:020000040800F2
:10000000000001204D0E0008110900081709000822
:100010001D09000823090008290900080000000044
:100020000000000000000000000000002F09000890
:100030003B090008000000004709000853090008B8
:10004000950E0008950E0008950E0008950E000804
:10005000950E0008950E0008950E0008950E0008F4
:10006000950E0008950E0008950E0008950E0008E4
:10007000950E0008950E00085F0900086B0900083E
:10008000950E0008950E0008950E0008950E0008C4
:10009000950E0008950E0008950E0008950E0008B4
:1000A000950E0008950E0008950E0008950E0008A4
:1000B000950E0008950E0008950E0008950E000894
:1000C000950E0008950E0008950E0008950E000884
:1000D000950E00083D050008950E0008950E0008D5
:1000E000950E0008950E0008950E0008950E000864
:1000F000950E0008950E0008950E0008950E000854
:10010000950E0008950E0008950E0008950E000843
:10011000950E0008950E0008950E0008950E000833
:10012000950E0008950E0008950E0008950E000823
:1001300000000000000000000000000000000000BF
:1001400000000000000000000000000000000000AF
:10015000000000000000000000000000000000009F
:10016000000000000000000000000000000000008F
:10017000000000000000000000000000000000007F
:10018000000000000000000000000000000000006F
:10019000000000000000000000000000000000005F
:1001A000000000000000000000000000000000004F
:1001B000000000000000000000000000000000003F
:1001C000000000000000000000000000000000002F
:1001D000000000000000000000000000000000001F
:0401E0005FF8E0F1F3
:1001E40010B5054C237833B9044B13B10448AFF36D
:1001F40000800123237010BD0C00002000000000CB
:100204008425000808B5034B1BB103490348AFF329
:10021400008008BD000000001000002084250008B4
:1002240080B483B000AF786039603B68013B0A4A10
:10023400D35C1A467B6813441B683A68013A064942
:100244008A5C11467A680A4443F00103136000BFD4
:100254000C37BD4680BC70479826000880B483B034
:1002640000AF786039603B68013B0A4AD35C1A46A8
:100274007B6813441B683A68013A06498A5C114654
:100284007A680A4423F00103136000BF0C37BD46AB
:1002940080BC70479826000880B485B000AFF86031
:1002A400B9607A60BB68013B0B4AD35C1A46FB68B1
:1002B40013445B681B0C1B04BA68013A06498A5C48
:1002C4001146FA680A4411467A6813434B6000BF2A
:1002D4001437BD4680BC70479826000880B483B0AC
:1002E40000AF786039603B68013B064AD35C1A462C
:1002F4007B6813445B689BB218460C37BD4680BCD0
:10030400704700BF9826000880B485B000AFF8603D
:10031400B9607A60BB68013B064AD35C1A46FB6845
:1003240013441A467B68D36000BF1437BD4680BCB3
:10033400704700BF9826000880B485B000AFF8600D
:10034400B9607A60BB68013B064AD35C1A46FB6815
:1003540013441A467B68936000BF1437BD4680BCC3
:10036400704700BF9826000880B483B000AF78605F
:100374007B681B6803F01003102B0CBF01230023C0
:10038400DBB218460C37BD4680BC704780B483B0DE
:1003940000AF78607B681B6803F04003402B0CBF00
:1003A40001230023DBB218460C37BD4680BC7047DE
:1003B40080B485B000AF78607B681B68FB60FB6825
:1003C4007B685B68FB60FB6800BF1437BD4680BC7C
:1003D400704780B489B000AF78607B680C33FB60F1
:1003E400FB6853E8003FBB60BB6843F01003FB614C
:1003F4007B680C33FA69BA617B617969BA6941E84F
:1004040000233B613B69002BE7D100BF00BF2437C9
:10041400BD4680BC704780B483B000AF78607B6811
:10042400DB6803F01003102B0CBF01230023DBB2A5
:1004340018460C37BD4680BC704780B489B000AF05
:1004440078607B681433FB60FB6853E8003FBB6053
:10045400BB6843F04003FB617B681433FA69BA61FB
:100464007B617969BA6941E800233B613B69002BF0
:10047400E7D100BF00BF2437BD4680BC704780B4BD
:1004840089B000AF78607B681433FB60FB6853E885
:10049400003FBB60BB6843F08003FB617B6814339F
:1004A400FA69BA617B617969BA6941E800233B6101
:1004B4003B69002BE7D100BF00BF2437BD4680BC99
:1004C4007047000080B500AF174B1A460521174846
:1004D400FFF71AFFC82205211448FFF7DDFE144A6E
:1004E40005211248FFF728FF05211048FFF798FE61
:1004F4000F4A04210D48FFF71FFF0B4B1A46042136
:100504000A48FFF701FF002204210848FFF7C4FE50
:100514000848FFF75EFF0748FFF78FFF0548FFF71E
:10052400AEFF00BF80BD00BF2800002000000240D5
:10053400043801400038014080B582B000AF17484C
:10054400FFF712FF0346002B23D01448FFF763FF85
:100554000346002B1DD005211148FFF77FFE05211E
:100564000F48FFF7BBFE0346C3F1C8037B607B68FB
:100574009BB219460B4800F017F8C8220521084819
:10058400FFF78AFE05210648FFF74AFE0348FFF7F6
:100594000FFF00BF0837BD4680BD00BF00380140D3
:1005A400000002402800002080B582B000AF7860CF
:1005B4000B467B8000BF0F48FFF7E8FE0346002B85
:1005C400F9D004210C48FFF749FE7B681A46042140
:1005D4000948FFF799FE7B881A4604210648FFF76D
:1005E4005BFE04210448FFF71BFE00BF0837BD462D
:1005F40080BD00BF003801400000024080B500AF5C
:10060400FFF760FF11210248FFF7CEFF00BF80BD56
:100614009C25000880B500AF4FF4967000F09CFC58
:1006240000BF80BD80B400AF044BDB681B0A03F03D
:1006340007031846BD4680BC704700BF00ED00E0CC
:1006440080B483B000AF0346FB7197F90730002BE9
:100654000BDBFB7903F01F02064997F907305B09AE
:10066400012000FA02F241F8232000BF0C37BD46F6
:1006740080BC704700E100E080B483B000AF034663
:100684003960FB7197F90730002B0ADB3B68DAB25B
:100694000C4997F907301201D2B20B4483F80023B6
:1006A4000AE03B68DAB20849FB7903F00F03043B24
:1006B4001201D2B20B441A7600BF0C37BD4680BC7F
:1006C400704700BF00E100E000ED00E080B489B0B5
:1006D40000AFF860B9607A60FB6803F00703FB6160
:1006E400FB69C3F10703042B28BF0423BB61FB6927
:1006F4000433062B02D9FB69033B00E000237B6132
:100704004FF0FF32BB6902FA03F3DA43BB681A40C5
:100714007B699A404FF0FF317B6901FA03F3D943B7
:100724007B680B40134318462437BD4680BC704792
:1007340080B485B000AF7860084B5A6907497B687C
:1007440013434B61054B5A697B681340FB60FB689C
:1007540000BF1437BD4680BC704700BF0010024084
:1007640080B500AF0120FFF7E3FFFFF75BFF03460F
:10077400002202211846FFF7A9FF034619460E205E
:10078400FFF77AFF0E20FFF75BFFFFF74BFF0346EF
:10079400002202211846FFF799FF034619460F204D
:1007A400FFF76AFF0F20FFF74BFF00BF80BD00007B
:1007B40080B483B000AF084B9B69074A43F004033D
:1007C4009361054B9B6903F004037B607B6800BF66
:1007D4000C37BD4680BC70470010024080B500AFA6
:1007E40000F058FB00F00BF8FFF7E2FFFFF7B8FF4B
:1007F40000F078FAFFF702FFFFF70CFFFCE780B583
:1008040090B000AF07F1180328220021184601F028
:10081400AFFE3B1D00221A605A609A60DA601A61CA
:100824000123BB614FF48033FB6100233B6201234E
:10083400BB6202237B634FF48033BB634FF4E0134A
:10084400FB6307F11803184600F0B2FC0346002BC3
:1008540001D000F019F80F237B600223BB60002352
:10086400FB604FF480633B6100237B613B1D0221ED
:10087400184601F00DF80346002B01D000F004F8EF
:1008840000BF4037BD4680BD80B400AF72B600BF24
:10089400FEE780B483B000AF7860396000BF0C37E6
:1008A400BD4680BC7047000080B485B000AF154BD6
:1008B4009B69144A43F001039361124B9B6903F053
:1008C4000103BB60BB680F4BDB690E4A43F08053E6
:1008D400D3610C4BDB6903F080537B607B680A4B6C
:1008E4005B68FB60FB6823F0E063FB60FB6843F03C
:1008F4000073FB60044AFB68536000BF1437BD46B5
:1009040080BC7047001002400000014080B400AF7A
:10091400FEE780B400AFFEE780B400AFFEE780B42A
:1009240000AFFEE780B400AFFEE780B400AF00BFC5
:10093400BD4680BC704780B400AF00BFBD4680BCDC
:10094400704780B400AF00BFBD4680BC704780B51F
:1009540000AF00F0E5FA00BF80BD80B400AF00BF77
:10096400BD4680BC704780B400AF00BFBD4680BCAC
:10097400704780B400AF00BFBD4680BC7047000024
:1009840080B400AF044BDB681B0A03F0070318466E
:10099400BD4680BC704700BF00ED00E080B483B06A
:1009A40000AF0346FB7197F90730002B0BDBFB7993
:1009B40003F01F02064997F907305B09012000FA8A
:1009C40002F241F8232000BF0C37BD4680BC7047BB
:1009D40000E100E080B483B000AF03463960FB71EE
:1009E40097F90730002B0ADB3B68DAB20C4997F918
:1009F40007301201D2B20B4483F800230AE03B68AB
:100A0400DAB20849FB7903F00F03043B1201D2B2B6
:100A14000B441A7600BF0C37BD4680BC704700BF3C
:100A240000E100E000ED00E080B489B000AFF860C0
:100A3400B9607A60FB6803F00703FB61FB69C3F1EB
:100A44000703042B28BF0423BB61FB690433062B73
:100A540002D9FB69033B00E000237B614FF0FF32C6
:100A6400BB6902FA03F3DA43BB681A407B699A4014
:100A74004FF0FF317B6901FA03F3D9437B680B40E4
:100A8400134318462437BD4680BC704780B485B0F4
:100A940000AFF860B9607A60BB68013B0C4AD35C74
:100AA4001A46FB6813441B6823F4804323F01003A5
:100AB400BA68013A06498A5C1146FA680A44114642
:100AC4007A6813430B6000BF1437BD4680BC70477F
:100AD400B826000880B485B000AFF860B9607A60C9
:100AE400BB68013B0B4AD35C1A46FB6813441B6882
:100AF40023F02002BB68013B0649CB5C1946FB6826
:100B04000B4419467B6813430B6000BF1437BD4682
:100B140080BC7047B826000880B485B000AFF86088
:100B2400B9607A60BB68013B0B4AD35C1A46FB6828
:100B340013441B6823F04002BB68013B0649CB5CAD
:100B44001946FB680B4419467B6813430B6000BFCE
:100B54001437BD4680BC7047B826000880B485B001
:100B640000AFF860B9607A60BB68013B0B4AD35CA4
:100B74001A46FB6813441B6823F08002BB68013BE0
:100B84000649CB5C1946FB680B4419467B68134342
:100B94000B6000BF1437BD4680BC7047B826000800
:100BA40080B485B000AFF860B9607A60BB68013B7F
:100BB4000B4AD35C1A46FB6813441B6823F4407247
:100BC400BB68013B0649CB5C1946FB680B441946DC
:100BD4007B6813430B6000BF1437BD4680BC70476D
:100BE400B826000880B485B000AFF860B9607A60B8
:100BF400BB68013B0B4AD35C1A46FB6813441B6871
:100C040023F44062BB68013B0649CB5C1946FB6890
:100C14000B4419467B6813430B6000BF1437BD4671
:100C240080BC7047B826000880B485B000AFF86077
:100C3400B9607A60BB68013B0B4AD35C1A46FB6817
:100C440013441B6823F44052BB68013B0649CB5C48
:100C54001946FB680B4419467B6813430B6000BFBD
:100C64001437BD4680BC7047B826000880B483B0F2
:100C740000AF78607B68DB6843F400527B68DA601D
:100C840000BF0C37BD4680BC704780B483B000AF52
:100C940078607B681B6923F490427B681A617B68E7
:100CA4005B6923F02A027B685A6100BF0C37BD469A
:100CB40080BC704780B485B000AF7860084B9A69F7
:100CC40007497B6813438B61054B9A697B68134022
:100CD400FB60FB6800BF1437BD4680BC704700BF93
:100CE4000010024080B58CB000AF07F1140300225D
:100CF4001A605A609A60DA601A615A619A613B46D6
:100D040000221A605A609A60DA601A614FF48040D7
:100D1400FFF7D0FF0420FFF7CDFF464B3B600923CC
:100D24007B600323BB600023FB603B4619464248BB
:100D340001F068F8414B3B6004237B603B46194655
:100D44003D4801F05FF8002205213D48FFF79EFE73
:100D54004FF4005205213A48FFF766FF00220521AF
:100D64003748FFF7B7FE002205213548FFF7D4FEC8
:100D7400802205213248FFF7F1FE00220521304888
:100D8400FFF70EFF002205212D48FFF72BFF10224D
:100D940004212B48FFF77AFE4FF40052042128481F
:100DA400FFF742FF002204212548FFF793FE0022AB
:100DB40004212348FFF7B0FE802204212048FFF7D6
:100DC400CDFE002204211E48FFF7EAFE0022042182
:100DD4001B48FFF707FFFFF7D3FD0346002203215B
:100DE4001846FFF721FE034619462520FFF7F2FDBA
:100DF4002520FFF7D3FD4FF4E1337B610023BB6172
:100E04000023FB6100233B620C237B620023BB6253
:100E14000023FB6207F1140319460A4801F082FA21
:100E24000848FFF732FF0748FFF720FF00BF3037BD
:100E3400BD4680BD02000204000801400400040411
:100E44000000024000380140FFF793FD0B480C49B5
:100E54000C4A002302E0D458C4500433C4188C4212
:100E6400F9D3094A094C002301E013600432A24279
:100E7400FBD301F059FBFFF7B1FC704700000020E1
:100E84000C000020DC2600080C000020F4000020E8
:100E9400FEE7000080B500AF084B1B68074A43F02B
:100EA40010031360032000F02BF90F2000F008F862
:100EB400FFF7FAFC0023184680BD00BF0020024063
:100EC40080B582B000AF7860124B1A68124B1B7861
:100ED40019464FF47A73B3FBF1F3B2FBF3F31846FC
:100EE40000F05AF90346002B01D001230EE07B6881
:100EF4000F2B0AD8002279684FF0FF3000F020F958
:100F0400064A7B681360002300E001231846083773
:100F1400BD4680BD00000020080000200400002021
:100F240080B400AF054B1B781A46054B1B6813446D
:100F3400034A136000BFBD4680BC70470800002010
:100F4400F000002080B400AF024B1B681846BD4679
:100F540080BC7047F000002080B584B000AF78609A
:100F6400FFF7F0FFB8607B68FB60FB68B3F1FF3FFD
:100F740005D00A4B1B781A46FB681344FB6000BF7C
:100F8400FFF7E0FF0246BB68D31AFA689A42F7D823
:100F940000BF00BF1037BD4680BD00BF0800002061
:100FA40080B485B000AF78607B6803F00703FB6012
:100FB4000C4BDB68BB60BA684FF6FF031340BB60A1
:100FC400FB681A02BB68134343F0BF6343F4003366
:100FD400BB60044ABB68D36000BF1437BD4680BC05
:100FE400704700BF00ED00E080B400AF044BDB6845
:100FF4001B0A03F007031846BD4680BC704700BFB8
:1010040000ED00E080B483B000AF03463960FB71AB
:1010140097F90730002B0ADB3B68DAB20C4997F9E1
:1010240007301201D2B20B4483F800230AE03B6874
:10103400DAB20849FB7903F00F03043B1201D2B280
:101044000B441A7600BF0C37BD4680BC704700BF06
:1010540000E100E000ED00E080B489B000AFF8608A
:10106400B9607A60FB6803F00703FB61FB69C3F1B5
:101074000703042B28BF0423BB61FB690433062B3D
:1010840002D9FB69033B00E000237B614FF0FF3290
:10109400BB6902FA03F3DA43BB681A407B699A40DE
:1010A4004FF0FF317B6901FA03F3D9437B680B40AE
:1010B400134318462437BD4680BC704780B582B0C0
:1010C40000AF78607B68013BB3F1807F01D30123DB
:1010D4000FE00A4A7B68013B53600F214FF0FF3059
:1010E400FFF790FF054B00229A60044B07221A6019
:1010F400002318460837BD4680BD00BF10E000E05D
:1011040080B582B000AF78607B68072B0FD07B6816
:10111400062B0CD07B68052B09D07B68042B06D0EA
:101124007B68032B03D091210448FFF7B2FB786856
:10113400FFF736FF00BF0837BD4680BDB025000865
:1011440080B586B000AF0346B9607A60FB730023B4
:101154007B617B680F2B03D9A9210E48FFF799FB0C
:10116400BB680F2B03D9AA210A48FFF792FBFFF7AC
:101174003BFF78617A68B9687869FFF76DFF0246CA
:1011840097F90F3011461846FFF73CFF00BF183798
:10119400BD4680BDB025000880B582B000AF786040
:1011A4007868FFF78BFF034618460837BD4680BDB5
:1011B40080B586B000AF78607B68002B01D1012335
:1011C4005CE37B681B68002B1CD07B681B6803F006
:1011D4000103002B16D17B681B6803F00203002B6C
:1011E40010D17B681B6803F00803002B0AD17B68CD
:1011F4001B6803F00403002B04D140F26511A548D9
:10120400FFF747FB7B681B6803F00103002B00F02A
:101214009A807B685B68002B0ED07B685B68B3F5B3
:10122400803F09D07B685B68B3F5A02F04D040F2FF
:101234006B119848FFF72DFB974B5B6803F00C0389
:10124400042B0CD0944B5B6803F00C03082B12D1D5
:10125400914B5B6803F48033B3F5803F0BD18E4B25
:101264001B6803F40033002B6CD07B685B68002B95
:1012740068D1012302E37B685B68B3F5803F06D144
:10128400854B1B68844A43F4803313602EE07B68EB
:101294005B68002B0CD1804B1B687F4A23F480339E
:1012A40013607D4B1B687C4A23F4802313601DE08C
:1012B4007B685B68B3F5A02F0CD1774B1B68764A2B
:1012C40043F480231360744B1B68734A43F48033E4
:1012D40013600BE0704B1B686F4A23F48033136078
:1012E4006D4B1B686C4A23F4802313607B685B6836
:1012F400002B13D0FFF726FE386108E0FFF722FE2B
:1013040002463B69D31A642B01D90323B6E2624B2C
:101314001B6803F40033002BF0D014E0FFF712FE37
:10132400386108E0FFF70EFE02463B69D31A642BCE
:1013340001D90323A2E2584B1B6803F40033002BAA
:10134400F0D100E000BF7B681B6803F00203002BB0
:1013540079D07B681B69002B08D07B681B69012B43
:1013640004D040F29F114B48FFF793FA7B685B6906
:101374001F2B04D94FF4D0714648FFF78AFA464B25
:101384005B6803F00C03002B0BD0434B5B6803F04A
:101394000C03082B1CD1404B5B6803F48033002BF7
:1013A40016D13D4B1B6803F00203002B05D07B686C
:1013B4001B69012B01D0012360E2374B1B6823F02A
:1013C400F8027B685B69DB00334913430B603AE046
:1013D4007B681B69002B20D0304B01221A60FFF779
:1013E400B1FD386108E0FFF7ADFD02463B69D31A51
:1013F400022B01D9032341E2274B1B6803F00203AC
:10140400002BF0D0244B1B6823F0F8027B685B6947
:10141400DB00214913430B6015E0204B00221A60C6
:10142400FFF790FD386108E0FFF78CFD02463B6949
:10143400D31A022B01D9032320E2174B1B6803F0B4
:101444000203002BF0D17B681B6803F00803002B18
:1014540048D07B689B69002B08D07B689B69012B73
:1014640004D04FF4F0710B48FFF713FA7B689B69C3
:10147400002B21D00A4B01221A60FFF763FD38616B
:1014840010E0FFF75FFD02463B69D31A022B09D92E
:101494000323F3E1EC25000800100240000042425F
:1014A40080044242674B5B6A03F00203002BE8D0DE
:1014B400012000F0D1FB15E0634B00221A60FFF716
:1014C40041FD386108E0FFF73DFD02463B69D31A50
:1014D400022B01D90323D1E15A4B5B6A03F00203C7
:1014E400002BF0D17B681B6803F00403002B00F091
:1014F400C0800023FB757B68DB68002B0CD07B6805
:10150400DB68012B08D07B68DB68052B04D040F234
:101514000F214E48FFF7BDF94A4BDB6903F08053B6
:10152400002B0DD1474BDB69464A43F08053D3610E
:10153400444BDB6903F08053BB60BB680123FB753C
:10154400434B1B6803F48073002B18D1404B1B687A
:101554003F4A43F480731360FFF7F4FC386108E0FA
:10156400FFF7F0FC02463B69D31A642B01D903232D
:1015740084E1374B1B6803F48073002BF0D07B6845
:10158400DB68012B06D12F4B1B6A2E4A43F0010363
:1015940013622DE07B68DB68002B0CD1294B1B6A9E
:1015A400284A23F001031362264B1B6A254A23F0C1
:1015B400040313621CE07B68DB68052B0CD1214B10
:1015C4001B6A204A43F0040313621E4B1B6A1D4A24
:1015D40043F0010313620BE01A4B1B6A194A23F010
:1015E40001031362174B1B6A164A23F004031362A8
:1015F4007B68DB68002B15D0FFF7A4FC38610AE098
:10160400FFF7A0FC02463B69D31A41F288329342A9
:1016140001D9032332E10B4B1B6A03F00203002BB5
:10162400EED01DE0FFF78EFC386113E0FFF78AFC73
:1016340002463B69D31A41F2883293420AD9032302
:101644001CE100BF0010024080044242EC25000867
:10165400007000408B4B1B6A03F00203002BE5D1A2
:10166400FB7D012B05D1874BDB69864A23F0805330
:10167400D3617B68DB69002B0CD07B68DB69012BB1
:1016840008D07B68DB69022B04D040F2AD217E4890
:10169400FFF7FFF87B68DB69002B00F0EE80794BE5
:1016A4005B6803F00C03082B00F0CE807B68DB69D9
:1016B400022B40F0B2807B681B6A002B09D07B6848
:1016C4001B6AB3F5803F04D040F2B6216E48FFF7A1
:1016D400E0F87B685B6A002B4AD07B685B6AB3F5F1
:1016E400802F45D07B685B6AB3F5002F40D07B68C0
:1016F4005B6AB3F5402F3BD07B685B6AB3F5801F10
:1017040036D07B685B6AB3F5A01F31D07B685B6A17
:10171400B3F5C01F2CD07B685B6AB3F5E01F27D0FC
:101724007B685B6AB3F5001F22D07B685B6AB3F504
:10173400101F1DD07B685B6AB3F5201F18D07B682F
:101744005B6AB3F5301F13D07B685B6AB3F5401F47
:101754000ED07B685B6AB3F5501F09D07B685B6A67
:10176400B3F5601F04D040F2B7214748FFF791F862
:10177400464B00221A60FFF7E5FB386108E0FFF7EB
:10178400E1FB02463B69D31A022B01D9032375E01E
:101794003C4B1B6803F00073002BF0D17B681B6A81
:1017A400B3F5803F16D17B689B68002B09D07B681A
:1017B4009B68B3F5003F04D040F2CD213248FFF7D7
:1017C40068F8304B5B6823F400327B689B682D49D2
:1017D40013434B602B4B5B6823F474127B68196AC8
:1017E4007B685B6A0B43274913434B60274B0122F9
:1017F4001A60FFF7A7FB386108E0FFF7A3FB024676
:101804003B69D31A022B01D9032337E01D4B1B6814
:1018140003F00073002BF0D02FE01C4B00221A6061
:10182400FFF790FB386108E0FFF78CFB02463B6949
:10183400D31A022B01D9032320E0124B1B6803F0B7
:101844000073002BF0D118E07B68DB69012B01D118
:10185400012313E00B4B5B68FB60FB6803F48032ED
:101864007B681B6A9A4206D1FB6803F470127B689A
:101874005B6A9A4201D0012300E00023184618371E
:10188400BD4680BD00100240EC25000860004242C5
:1018940080B584B000AF786039607B68002B01D1DB
:1018A400012376E17B681B6803F00103002B16D14A
:1018B4007B681B6803F00203002B10D17B681B6854
:1018C40003F00403002B0AD17B681B6803F00803B0
:1018D400002B04D140F236317448FEF7DAFF3B683E
:1018E400002B0AD03B68012B07D03B68022B04D0A5
:1018F40040F237316D48FEF7CCFF6D4B1B6803F0A7
:1019040007033A689A4210D9694B1B6823F007020F
:1019140067493B6813430B60654B1B6803F007037F
:101924003A689A4201D0012333E17B681B6803F0D3
:101934000203002B49D07B681B6803F00403002BCF
:1019440005D05C4B5B685B4A43F4E06353607B689F
:101954001B6803F00803002B05D0564B5B68554AFF
:1019640043F4605353607B689B68002B24D07B68EE
:101974009B68802B20D07B689B68902B1CD07B6855
:101984009B68A02B18D07B689B68B02B14D07B6815
:101994009B68C02B10D07B689B68D02B0CD07B68D5
:1019A4009B68E02B08D07B689B68F02B04D040F246
:1019B4005D313E48FEF76DFF3E4B5B6823F0F0025D
:1019C4007B689B683B4913434B607B681B6803F04F
:1019D4000103002B51D07B685B68002B0CD07B6823
:1019E4005B68012B08D07B685B68022B04D04FF442
:1019F40059712E48FEF74DFF7B685B68012B07D1B8
:101A04002C4B1B6803F40033002B15D10123C0E0D9
:101A14007B685B68022B07D1264B1B6803F00073BD
:101A2400002B09D10123B4E0224B1B6803F002030D
:101A3400002B01D10123ACE01E4B5B6823F00302B1
:101A44007B685B681B4913434B60FFF77BFAF860C4
:101A54000AE0FFF777FA0246FB68D31A41F28832AC
:101A6400934201D9032394E0124B5B6803F00C0208
:101A74007B685B689B009A42EBD10D4B1B6803F0BB
:101A840007033A689A4217D2094B1B6823F00702EE
:101A940007493B6813430B60054B1B6803F00703BE
:101AA4003A689A4208D0012373E000BFEC2500088D
:101AB40000200240001002407B681B6803F004030E
:101AC400002B25D07B68DB68002B18D07B68DB6893
:101AD400B3F5806F13D07B68DB68B3F5A06F0ED0CD
:101AE4007B68DB68B3F5C06F09D07B68DB68B3F54E
:101AF400E06F04D040F2A2312848FEF7CAFE284B1A
:101B04005B6823F4E0627B68DB68254913434B6020
:101B14007B681B6803F00803002B26D07B681B69D5
:101B2400002B18D07B681B69B3F5806F13D07B68DA
:101B34001B69B3F5A06F0ED07B681B69B3F5C06F4A
:101B440009D07B681B69B3F5E06F04D040F2A9317A
:101B54001248FEF79EFE124B5B6823F460527B68CA
:101B64001B69DB000E4913434B6000F021F8024669
:101B74000B4B5B681B0903F00F030A49CB5C22FA89
:101B840003F3094A1360094B1B681846FFF798F9D9
:101B9400002318461037BD4680BD00BFEC25000861
:101BA40000100240A02600080000002004000020CD
:101BB40080B487B000AF0023FB600023BB60002328
:101BC4007B6100237B6000233B611E4B5B68FB60F1
:101BD400FB6803F00C03042B02D0082B03D027E08E
:101BE400194B3B6127E0FB689B0C03F00F03174A7A
:101BF400D35C7B60FB6803F48033002B10D0114B63
:101C04005B685B0C03F00103114AD35CBB607B6827
:101C14000D4A02FB03F2BB68B2FBF3F37B6104E001
:101C24007B680C4A02FB03F37B617B693B6102E046
:101C3400054B3B6100BF3B6918461C37BD4680BC61
:101C4400704700BF0010024000127A00C02600084E
:101C5400D026000800093D0080B485B000AF78604C
:101C64000A4B1B680A4AA2FB03235B0A7A6802FB3D
:101C740003F3FB6000BFFB685A1EFA60002BF9D126
:101C840000BF00BF1437BD4680BC70470000002071
:101C9400D34D621090B488B000AFF860B9607A6038
:101CA400FB681A46BB681B0E13441C462268BB68BB
:101CB4007B617B6993FAA3F33B613B69B3FA83F3DA
:101CC400DBB29B000F2101FA03F3DB431A40BB682C
:101CD400FB61FB6993FAA3F3BB61BB69B3FA83F3BA
:101CE400DBB29B00796801FA03F31343236000BF5E
:101CF4002037BD4690BC704790B488B000AFF86000
:101D0400B9607A60FB681A46BB681B0E13441C4614
:101D14002268BB687B617B6993FAA3F33B613B69EF
:101D2400B3FA83F3DBB29B00032101FA03F3DB4331
:101D34001A40BB68FB61FB6993FAA3F3BB61BB69FF
:101D4400B3FA83F3DBB29B00796801FA03F313431C
:101D5400236000BF2037BD4690BC704790B488B064
:101D640000AFF860B9607A60FB681A46BB681B0E66
:101D740013441C462268BB687B617B6993FAA3F316
:101D84003B613B69B3FA83F3DBB29B00042101FAA4
:101D940003F3DB431A40BB68FB61FB6993FAA3F3CB
:101DA400BB61BB69B3FA83F3DBB29B00796801FAC8
:101DB40003F31343236000BF2037BD4690BC704734
:101DC40080B487B000AFF860B9607A60FB68DA6805
:101DD400BB681B0ADB431A40BB681B0A7B617B6937
:101DE40093FAA3F33B613B69B3FA83F3DBB219467D
:101DF4007B688B401A43FB68DA6000BF1C37BD4622
:101E040080BC704780B588B000AF786039607B686B
:101E1400684A93421BD07B68674A934217D07B6819
:101E2400664A934213D07B68654A93420FD07B681D
:101E3400644A93420BD07B68634A934207D07B6821
:101E4400624A934203D0A2216148FEF722FD3B6817
:101E54001B6823F07B43002B05D03B681B6803F011
:101E64007B43002B03D0A3215948FEF712FD3B68A6
:101E74001B681B021B0C7B617B693B613B6993FA0A
:101E8400A3F3FB60FB68B3FA83F3DBB2FB6184E08A
:101E94000122FB699A407B691340002B7AD0FB69CD
:101EA400072B06D840F20112FB6902FA03F3BB6167
:101EB40008E0FB69083B4FF0011202FA03F343F018
:101EC4008063BB613B685B68082B12D13B681B696C
:101ED400002B07D03B681B69012B03D0BE213C4873
:101EE400FEF7D7FC3B681B691A46B9697868FFF7A7
:101EF40067FF3B685B68002B13D03B685B68042B6F
:101F04000FD03B685B68082B0BD03B685B68012BE8
:101F140007D03B685B68092B03D0C5212C48FEF72A
:101F2400B8FC3B685B681A46B9697868FFF7B2FE8B
:101F34003B685B68012B03D03B685B68092B29D1A4
:101F44003B689B68022B0BD03B689B68012B07D036
:101F54003B689B68032B03D0CD211D48FEF799FCF9
:101F64003B68DB68002B07D03B68DB68042B03D09D
:101F7400CE211748FEF78DFC3B689B681A46B96969
:101F84007868FFF7B9FE3B68DB681A46B969786878
:101F9400FFF7E4FEFB690133FB617A69FB6922FA0E
:101FA40003F3002B7FF474AF002318462037BD469B
:101FB40080BD00BF00080140000C0140001001403A
:101FC4000014014000180140001C014000200140A1
:101FD4002426000880B400AF034B5B6803F00C03B5
:101FE4001846BD4680BC70470010024080B400AF64
:101FF400034B5B6803F0F0031846BD4680BC704792
:102004000010024080B400AF034B5B6803F4E0634C
:102014001846BD4680BC70470010024080B400AF33
:10202400034B5B6803F460531846BD4680BC70479D
:102034000010024080B400AF034B5B6803F48033AC
:102044001846BD4680BC70470010024080B400AF03
:10205400034B5B6803F470131846BD4680BC70479D
:102064000010024080B400AF044B5B685B0C03F0CB
:1020740001031846BD4680BC704700BF00100240F3
:1020840080B582B000AF786000F020F802467B682B
:102094001A607B681B68184600F03EF802467B68AD
:1020A4005A607B685B68184600F04CF802467B680F
:1020B4009A607B685B68184600F058F802467B68B3
:1020C400DA6000BF0837BD4680BD000080B582B02D
:1020D40000AF00237B60FFF77DFF0346082B0CD085
:1020E400082B0ED8002B02D0042B03D009E0094B97
:1020F4007B6009E0074B7B6006E000F04BF87860FA
:1021040002E0044B7B6000BF7B6818460837BD467D
:1021140080BD00BF00127A0080B582B000AF786045
:10212400FFF764FF03461B0903F00F03044AD35C63
:102134001A467B68D34018460837BD4680BD00BFA9
:10214400A026000880B582B000AF7860FFF75AFF80
:1021540003461B0A044AD35C1A467B68D3401846DC
:102164000837BD4680BD00BFB026000880B582B0E8
:1021740000AF7860FFF752FF0346DB0A044AD35CE2
:102184001A467B68D34018460837BD4680BD00BF59
:10219400B026000880B582B000AF00237B60002326
:1021A4003B60FFF747FF38603B68002B04D03B6877
:1021B400B3F5803F03D00BE00D4B7B600BE0FFF7E2
:1021C40051FF034601330B4AB2FBF3F37B6002E099
:1021D400074B7B6000BFFFF739FF03469B0C0233BC
:1021E4007A6802FB03F318460837BD4680BD00BF7A
:1021F40000093D0000127A0080B483B000AF78601B
:102204007B68DB6803F40053B3F5005F0CBF012364
:102214000023DBB218460C37BD4680BC704780B43F
:1022240083B000AF786039607B681B6923F4405247
:102234003B681A437B681A6100BF0C37BD4680BCFB
:10224400704780B483B000AF786039607B685B69A5
:1022540023F440723B681A437B685A6100BF0C3711
:10226400BD4680BC7047000080B485B000AFF86004
:10227400B9607A60BA6813469B0013449A001A4402
:102284007B689B00B2FBF3F3254AA2FB03235B09A3
:102294009BB21B0199B2BA6813469B0013449A007F
:1022A4001A447B689B00B2FBF3F21D4BA3FB0203B1
:1022B4005B09642000FB03F3D31A1B013233184A71
:1022C400A2FB03235B099BB203F0F0039BB20B4414
:1022D40099B2BA6813469B0013449A001A447B6867
:1022E4009B00B2FBF3F20E4BA3FB02035B096420D9
:1022F40000FB03F3D31A1B013233094AA2FB032365
:102304005B099BB203F00F039BB20B449BB21A46CA
:10231400FB689A6000BF1437BD4680BC704700BF9D
:102324001F85EB5180B588B000AF78603960012318
:10233400FB770023BB617B68744A934213D07B68AC
:10234400734A93420FD07B68724A93420BD07B68E6
:10235400714A934207D07B68704A934203D0CD21DF
:102364006F48FEF796FA3B681B686E4A934203D99E
:10237400CE216B48FEF78DFA3B685B68002B08D0D2
:102384003B685B68B3F5805F03D0CF216448FEF7F8
:1023940080FA3B689B68B3F5805F11D03B689B680B
:1023A400002B0DD03B689B68B3F5405F08D03B68B9
:1023B4009B68B3F5005F03D0D0215948FEF769FA52
:1023C4003B68DB68002B0DD03B68DB68B3F5806F9E
:1023D40008D03B68DB68B3F5C06F03D0D121504807
:1023E400FEF757FA3B681B69002B0FD03B681B694B
:1023F400042B0BD03B681B69082B07D03B681B6977
:102404000C2B03D0D2214648FEF743FA3B685B69A4
:10241400002B12D03B685B69B3F5807F0DD03B681D
:102424005B69B3F5007F08D03B685B69B3F5407F17
:1024340003D0D3213A48FEF72CFA7868FFF7DCFE84
:102444000346002B5CD17B68DB6823F4B05323F094
:102454000C033A6851683A68D26811433A681269C1
:102464000A431A437B68DA603B689B6819467868BC
:10247400FFF7D5FE3B685B6919467868FFF7E1FE14
:1024840007F108031846FFF7FBFD7B681F4A9342D8
:1024940002D17B69BB611AE07B681D4A934202D179
:1024A4003B69BB6113E07B681A4A934202D13B69E2
:1024B400BB610CE07B68184A934202D13B69BB6163
:1024C40005E07B68154A934201D13B69BB61BB6956
:1024D400002B15D03B681B68002B11D00023FB7721
:1024E4003B681B681A46B9697868FFF7BDFE7B68CC
:1024F4009B680F2B04D840F235110948FEF7C9F93F
:10250400FB7F18462037BD4680BD00BF0038014020
:102514000044004000480040004C0040005000408F
:102524005C26000820AA440070B500260C4D0D4C12
:10253400641BA410A64209D100F022F800260A4D1B
:102544000A4C641BA410A64205D170BD55F8043B87
:1025540098470136EEE755F8043B98470136F2E711
:10256400D4260008D4260008D4260008D82600085B
:1025740003460244934200D1704703F8011BF9E774
:10258400F8B500BFF8BC08BC9E467047F8B500BF5C
:08259400F8BC08BC9E4670472C
:10259C00555352542B444D4120436C617373210DA0
:1025AC000A0000002E2E2F447269766572732F5329
:1025BC00544D3332463178785F48414C5F447269F0
:1025CC007665722F5372632F73746D333266317864
:1025DC00785F68616C5F636F727465782E6300005E
:1025EC002E2E2F447269766572732F53544D3332ED
:1025FC00463178785F48414C5F4472697665722F3A
:10260C005372632F73746D3332663178785F6861FF
:10261C006C5F7263632E63002E2E2F447269766595
:10262C0072732F53544D3332463178785F48414C96
:10263C005F4472697665722F5372632F73746D33B6
:10264C0032663178785F6C6C5F6770696F2E6300EF
:10265C002E2E2F447269766572732F53544D33327C
:10266C00463178785F48414C5F4472697665722FC9
:10267C005372632F73746D3332663178785F6C6C80
:10268C005F75736172742E6300000000081C304487
:10269C00586C8000000000000000000001020304E0
:1026AC00060708090000000001020304081C30445E
:1026BC00586C800002030405060708090A0B0C0D70
:0826CC000E0F101001020000C6
:0426D40009020008EF
:0426D800E501000810
:0C26DC000024F4001000000001000000C9
:0400000508000E4D94
:00000001FF
