:020000040800F2
:1000000000000120CD360008B5290008BB290008F2
:10001000C1290008C7290008CD29000800000000F8
:10002000000000000000000000000000D3290008CC
:10003000DF29000800000000EB290008F72900086C
:100040001537000815370008153700081537000860
:100050001537000815370008153700081537000850
:100060001537000815370008153700081537000840
:100070001537000815370008153700081537000830
:100080001537000815370008153700081537000820
:100090001537000815370008153700081537000810
:1000A0001537000815370008153700081537000800
:1000B00015370008153700081537000815370008F0
:1000C00015370008153700081537000815370008E0
:1000D00015370008153700081537000815370008D0
:1000E00015370008153700081537000815370008C0
:1000F00015370008153700081537000815370008B0
:10010000153700081537000815370008153700089F
:100110001537000815370008E122000819230008E8
:10012000153700081537000815370008153700087F
:1001300000000000000000000000000000000000BF
:1001400000000000000000000000000000000000AF
:10015000000000000000000000000000000000009F
:10016000000000000000000000000000000000008F
:10017000000000000000000000000000000000007F
:10018000000000000000000000000000000000006F
:10019000000000000000000000000000000000005F
:1001A000000000000000000000000000000000004F
:1001B000000000000000000000000000000000003F
:1001C000000000000000000000000000000000002F
:1001D000000000000000000000000000000000001F
:0401E0005FF8E0F1F3
:1001E80010B5054C237833B9044B13B10448AFF369
:1001F80000800123237010BD0C02002000000000C5
:100208003CB9000808B5034B1BB103490348AFF3D9
:10021800008008BD00000000100200203CB9000862
:10022800034613F8012B002AFBD1181A013870472E
:1002380081F0004102E000BF83F0004330B54FEA8F
:1002480041044FEA430594EA050F08BF90EA020FFC
:100258001FBF54EA000C55EA020C7FEA645C7FEA8F
:10026800655C00F0E2804FEA5454D4EB5555B8BFB2
:100278006D420CDD2C4480EA020281EA030382EA23
:10028800000083EA010180EA020281EA0303362DB5
:1002980088BF30BD11F0004F4FEA01314FF4801C88
:1002A8004CEA113102D0404261EB410113F0004F9A
:1002B8004FEA03334CEA133302D0524263EB430351
:1002C80094EA050F00F0A780A4F10104D5F1200EEF
:1002D8000DDB02FA0EFC22FA05F2801841F100014A
:1002E80003FA0EF2801843FA05F359410EE0A5F11E
:1002F80020050EF1200E012A03FA0EFC28BF4CF04F
:10030800020C43FA05F3C01851EBE37101F0004504
:1003180007D54FF0000EDCF1000C7EEB00006EEB11
:100328000101B1F5801F1BD3B1F5001F0CD349089B
:100338005FEA30004FEA3C0C04F101044FEA4452F2
:1003480012F5800F80F09A80BCF1004F08BF5FEA79
:10035800500C50F1000041EB045141EA050130BD59
:100368005FEA4C0C404141EB0101013C28BFB1F56B
:10037800801FE9D291F0000F04BF01460020B1FAB6
:1003880081F308BF2033A3F10B03B3F120020CDA89
:100398000C3208DD02F1140CC2F10C0201FA0CF067
:1003A80021FA02F10CE002F11402D8BFC2F1200CCC
:1003B80001FA02F120FA0CFCDCBF41EA0C01904082
:1003C800E41AA2BF01EB0451294330BD6FEA0404CB
:1003D8001F3C1CDA0C340EDC04F11404C4F12002B6
:1003E80020FA04F001FA02F340EA030021FA04F3C8
:1003F80045EA030130BDC4F10C04C4F1200220FA1F
:1004080002F001FA04F340EA0300294630BD21FA5C
:1004180004F0294630BD94F0000F83F4801306BF22
:1004280081F480110134013D4EE77FEA645C18BF16
:100438007FEA655C29D094EA050F08BF90EA020FAD
:1004480005D054EA000C04BF1946104630BD91EAA5
:10045800030F1EBF0021002030BD5FEA545C05D1A8
:100468004000494128BF41F0004130BD14F58004E7
:100478003CBF01F5801130BD01F0004545F0FE415B
:1004880041F470014FF0000030BD7FEA645C1ABF90
:10049800194610467FEA655C1CBF0B46024650EAC7
:1004A800013406BF52EA033591EA030F41F40021F3
:1004B80030BD00BF90F0000F04BF0021704730B579
:1004C8004FF4806404F132044FF000054FF000014E
:1004D80050E700BF90F0000F04BF0021704730B50F
:1004E8004FF4806404F1320410F0004548BF4042E4
:1004F8004FF000013EE700BF42004FEAE2014FEA39
:1005080031014FEA02701FBF12F07F4393F07F4F13
:1005180081F06051704732F07F4208BF704793F016
:100528007F4F04BF41F40021704730B54FF4607429
:1005380001F0004521F000411CE700BF50EA01022C
:1005480008BF704730B54FF000050AE050EA0102D5
:1005580008BF704730B511F0004502D5404261EB45
:1005680041014FF4806404F132045FEA915C3FF486
:10057800D8AE4FF003025FEADC0C18BF03325FEA23
:10058800DC0C18BF033202EBDC02C2F1200300FAD4
:1005980003FC20FA02F001FA03FE40EA0E0021FAF9
:1005A80002F11444BDE600BF70B54FF0FF0C4CF4E7
:1005B800E06C1CEA11541DBF1CEA135594EA0C0F99
:1005C80095EA0C0F00F0DEF82C4481EA030621EAD4
:1005D8004C5123EA4C5350EA013518BF52EA03350F
:1005E80041F4801143F4801338D0A0FB02CE4FF0C1
:1005F8000005E1FB02E506F00042E0FB03E54FF0F1
:100608000006E1FB03569CF0000F18BF4EF0010EE8
:10061800A4F1FF04B6F5007F64F5407404D25FEAE4
:100628004E0E6D4146EB060642EAC62141EA555197
:100638004FEAC52040EA5E504FEACE2EB4F1FD0CD9
:1006480088BFBCF5E06F1ED8BEF1004F08BF5FEA57
:10065800500E50F1000041EB045170BD06F0004609
:1006680046EA010140EA020081EA0301B4EB5C04B6
:10067800C2BFD4EB0C0541EA045170BD41F48011AE
:100688004FF0000E013C00F3AB8014F1360FDEBFD3
:10069800002001F0004170BDC4F10004203C35DAAF
:1006A8000C341BDC04F11404C4F1200500FA05F332
:1006B80020FA04F001FA05F240EA020001F00042D3
:1006C80021F0004110EBD37021FA04F642EB060149
:1006D8005EEA430E08BF20EAD37070BDC4F10C0473
:1006E800C4F1200500FA04F320FA05F001FA04F237
:1006F80040EA020001F0004110EBD37041F1000123
:100708005EEA430E08BF20EAD37070BDC4F120052D
:1007180000FA05F24EEA020E20FA04F301FA05F295
:1007280043EA020321FA04F001F0004121FA04F23D
:1007380020EA020000EBD3705EEA430E08BF20EA0D
:10074800D37070BD94F0000F0FD101F00046400047
:1007580041EB010111F4801F08BF013CF7D041EAC9
:10076800060195F0000F18BF704703F000465200CD
:1007780043EB030313F4801F08BF013DF7D043EA9E
:100788000603704794EA0C0F0CEA135518BF95EA54
:100798000C0F0CD050EA410618BF52EA4306D1D1DB
:1007A80081EA030101F000414FF0000070BD50EAFA
:1007B800410606BF1046194652EA430619D094EA84
:1007C8000C0F02D150EA013613D195EA0C0F05D16E
:1007D80052EA03361CBF104619460AD181EA0301C2
:1007E80001F0004141F0FE4141F470014FF000007A
:1007F80070BD41F0FE4141F4780170BD70B54FF015
:10080800FF0C4CF4E06C1CEA11541DBF1CEA135594
:1008180094EA0C0F95EA0C0F00F0A7F8A4EB050476
:1008280081EA030E52EA03354FEA013100F088806D
:100838004FEA03334FF0805545EA131343EA126336
:100848004FEA022245EA111545EA10654FEA0026EB
:100858000EF000419D4208BF964244F1FD0404F5A4
:10086800407402D25B084FEA3202B61A65EB030500
:100878005B084FEA32024FF480104FF4002CB6EBBD
:10088800020E75EB030E22BFB61A754640EA0C003D
:100898005B084FEA3202B6EB020E75EB030E22BF7D
:1008A800B61A754640EA5C005B084FEA3202B6EBBE
:1008B800020E75EB030E22BFB61A754640EA9C007D
:1008C8005B084FEA3202B6EB020E75EB030E22BF4D
:1008D800B61A754640EADC0055EA060E18D04FEA0B
:1008E800051545EA16754FEA06164FEAC30343EAAB
:1008F80052734FEAC2025FEA1C1CC0D111F4801F78
:100908000BD141EA00014FF000004FF0004CB6E770
:1009180011F4801F04BF01430020B4F1FD0C88BF0F
:10092800BCF5E06F3FF6AFAEB5EB030C04BFB6EB1A
:10093800020C5FEA500C50F1000041EB045170BD0D
:100948000EF0004E4EEA113114EB5C04C2BFD4EB3A
:100958000C0541EA045170BD41F480114FF0000EBE
:10096800013C90E645EA060E8DE60CEA135594EA3A
:100978000C0F08BF95EA0C0F3FF43BAF94EA0C0F3D
:100988000AD150EA01347FF434AF95EA0C0F7FF4B2
:1009980025AF104619462CE795EA0C0F06D152EA06
:1009A80003353FF4FDAE1046194622E750EA4106EA
:1009B80018BF52EA43067FF4C5AE50EA41047FF4FB
:1009C8000DAF52EA43057FF4EBAE12E74FF0FF3C60
:1009D80006E000BF4FF0010C02E000BF4FF0010C31
:1009E8004DF804CD4FEA410C7FEA6C5C4FEA430CAA
:1009F80018BF7FEA6C5C1BD001B050EA410C0CBFF9
:100A080052EA430C91EA030F02BF90EA020F00205A
:100A1800704710F1000F91EA030F58BF994208BFC1
:100A280090422CBFD8176FEAE37040F0010070477E
:100A38004FEA410C7FEA6C5C02D150EA013C07D1D5
:100A48004FEA430C7FEA6C5CD6D152EA033CD3D020
:100A58005DF8040B704700BF8446104662468C461A
:100A68001946634600E000BF01B5FFF7B7FF00284D
:100A780048BF10F1000F01BD4DF808EDFFF7F4FF76
:100A88000CBF012000205DF808FB00BF4DF808ED01
:100A9800FFF7EAFF34BF012000205DF808FB00BF24
:100AA8004DF808EDFFF7E0FF94BF012000205DF846
:100AB80008FB00BF4DF808EDFFF7CEFF94BF0120FB
:100AC80000205DF808FB00BF4DF808EDFFF7C4FFF4
:100AD80034BF012000205DF808FB00BF4FEA410C3D
:100AE8007FEA6C5C02D150EA013C0AD14FEA430C20
:100AF8007FEA6C5C02D152EA033C02D14FF000005D
:100B080070474FF0010070474FEA410212F500129A
:100B180015D211D56FF47873B3EB625212D94FEA3C
:100B2800C12343F0004343EA505311F0004F23FA26
:100B380002F018BF404270474FF00000704750EA7B
:100B4800013005D111F0004008BF6FF00040704738
:100B58004FF00000704700BF4A0011D212F5001292
:100B680011D20DD56FF47873B3EB62520ED44FEAFD
:100B7800C12343F0004343EA505323FA02F070477D
:100B88004FF00000704750EA013002D14FF0FF30BB
:100B980070474FF0000070474FEA4102B2F1E0435E
:100BA80024BFB3F5001CDCF1FE5C0DD901F0004C4C
:100BB8004FEAC0024CEA5070B2F1004F40EB83009C
:100BC80008BF20F00100704711F0804F21D113F1C8
:100BD8003872BCBF01F00040704741F480114FEA01
:100BE8005252C2F11802C2F1200C10FA0CF320FA8A
:100BF80002F018BF40F001004FEAC1234FEAD323A7
:100C080003FA0CFC40EA0C0023FA02F34FEA430310
:100C1800CCE77FEA625307D150EA01331EBF4FF099
:100C2800FE4040F44000704701F0004040F0FE40B4
:100C380040F40000704700BF80F0004002E000BFB1
:100C480081F0004142001FBF5FEA410392EA030FAF
:100C58007FEA226C7FEA236C6AD04FEA1262D2EBF9
:100C68001363C1BFD218414048404140B8BF5B42FE
:100C7800192B88BF704710F0004F40F4000020F097
:100C88007F4018BF404211F0004F41F4000121F0AD
:100C98007F4118BF494292EA030F3FD0A2F10102F7
:100CA80041FA03FC10EB0C00C3F1200301FA03F135
:100CB80000F0004302D5494260EB4000B0F5000F58
:100CC80013D3B0F1807F06D340084FEA310102F117
:100CD8000102FE2A51D2B1F1004F40EBC25008BFC9
:100CE80020F0010040EA03007047490040EB000093
:100CF800013A28BFB0F5000FEDD2B0FA80FCACF194
:100D0800080CB2EB0C0200FA0CF0AABF00EBC250C0
:100D180052421843BCBFD0401843704792F0000FAE
:100D280081F4000106BF80F400000132013BB5E701
:100D38004FEA41037FEA226C18BF7FEA236C21D077
:100D480092EA030F04D092F0000F08BF08467047DC
:100D580090EA010F1CBF0020704712F07F4F04D1AA
:100D6800400028BF40F00040704712F100723CBFBD
:100D780000F50000704700F0004343F0FE4040F4E7
:100D8800000070477FEA226216BF08467FEA2363A5
:100D98000146420206BF5FEA412390EA010F40F490
:100DA800800070474FF0000304E000BF10F00043DC
:100DB80048BF40425FEA000C08BF704743F09643C3
:100DC80001464FF000001CE050EA010208BF7047DE
:100DD8004FF000030AE000BF50EA010208BF704765
:100DE80011F0004302D5404261EB41015FEA010C7A
:100DF80002BF84460146002043F0B64308BFA3F172
:100E08008053A3F50003BCFA8CF2083AA3EBC25353
:100E180010DB01FA02FC634400FA02FCC2F1200272
:100E2800BCF1004F20FA02F243EB020008BF20F0A9
:100E38000100704702F1200201FA02FCC2F120020F
:100E480050EA4C0021FA02F243EB020008BF20EA04
:100E5800DC7070474FF0FF0C1CEAD0521EBF1CEA32
:100E6800D15392EA0C0F93EA0C0F6FD01A4480EA20
:100E7800010C400218BF5FEA41211ED04FF0006309
:100E880043EA501043EA5111A0FB01310CF0004035
:100E9800B1F5000F3EBF490041EAD3715B0040EA5B
:100EA800010062F17F02FD2A1DD8B3F1004F40EB2B
:100EB800C25008BF20F00100704790F0000F0CF0FE
:100EC800004C08BF49024CEA502040EA51207F3AC2
:100ED800C2BFD2F1FF0340EAC250704740F400009D
:100EE8004FF00003013A5DDC12F1190FDCBF00F08E
:100EF80000407047C2F10002410021FA02F1C2F13C
:100F0800200200FA02FC5FEA310040F1000053EAD7
:100F18004C0308BF20EADC70704792F0000F00F025
:100F2800004C02BF400010F4000F013AF9D040EA2B
:100F38000C0093F0000F01F0004C02BF490011F4BF
:100F4800000F013BF9D041EA0C018FE70CEAD153BD
:100F580092EA0C0F18BF93EA0C0F0AD030F0004C3D
:100F680018BF31F0004CD8D180EA010000F00040F1
:100F7800704790F0000F17BF90F0004F084691F0AF
:100F8800000F91F0004F14D092EA0C0F01D14202E9
:100F98000FD193EA0C0F03D14B0218BF084608D1B2
:100FA80080EA010000F0004040F0FE4040F40000FC
:100FB800704740F0FE4040F4400070474FF0FF0C8F
:100FC8001CEAD0521EBF1CEAD15392EA0C0F93EAD6
:100FD8000C0F69D0A2EB030280EA010C49024FEA28
:100FE800402037D04FF0805343EA111143EA1013E1
:100FF8000CF000408B4238BF5B0042F17D024FF499
:10100800000C8B4224BF5B1A40EA0C00B3EB510F73
:1010180024BFA3EB510340EA5C00B3EB910F24BF5C
:10102800A3EB910340EA9C00B3EBD10F24BFA3EBE1
:10103800D10340EADC001B0118BF5FEA1C1CE0D1A9
:10104800FD2A3FF650AF8B4240EBC25008BF20F05C
:10105800010070470CF0004C4CEA50207F32C2BFB0
:10106800D2F1FF0340EAC250704740F400004FF04D
:101078000003013A37E792F0000F00F0004C02BF7E
:10108800400010F4000F013AF9D040EA0C0093F048
:10109800000F01F0004C02BF490011F4000F013BA2
:1010A800F9D041EA0C0195E70CEAD15392EA0C0F0A
:1010B80008D142027FF47DAF93EA0C0F7FF470AF42
:1010C800084676E793EA0C0F04D14B023FF44CAF85
:1010D80008466EE730F0004C18BF31F0004CCAD11A
:1010E80030F000427FF45CAF31F000437FF43CAF56
:1010F8005FE700BF4FF0FF3C06E000BF4FF0010C78
:1011080002E000BF4FF0010C4DF804CD4FEA400259
:101118004FEA41037FEA226C18BF7FEA236C11D0A3
:1011280001B052EA530C18BF90EA010F58BFB2EB56
:10113800030088BFC81738BF6FEAE17018BF40F0D6
:10114800010070477FEA226C02D15FEA402C05D18A
:101158007FEA236CE4D15FEA412CE1D05DF8040B0F
:10116800704700BF844608466146FFE70FB5FFF7A2
:10117800C9FF002848BF10F1000F0FBD4DF808ED5A
:10118800FFF7F4FF0CBF012000205DF808FB00BF4B
:101198004DF808EDFFF7EAFF34BF012000205DF8A5
:1011A80008FB00BF4DF808EDFFF7E0FF94BF0120F2
:1011B80000205DF808FB00BF4DF808EDFFF7D2FFEF
:1011C80094BF012000205DF808FB00BF4DF808ED32
:1011D800FFF7C8FF34BF012000205DF808FB00BFFF
:1011E8004FEA4002B2F1FE4F0FD34FF09E03B3EB2C
:1011F80012620DD94FEA002343F0004310F0004F6C
:1012080023FA02F018BF404270474FF000007047C1
:1012180012F1610F01D1420205D110F0004008BF60
:101228006FF0004070474FF00000704738B5054632
:101238000C460022002328462146FFF727FC28B940
:1012480028462146BDE8384000F00AB8284604F18F
:10125800004100F005F8404261EB410138BD00BF94
:10126800D0B500220B4B06460F46FFF79DF9FFF756
:1012780073FC0446FFF71EF90022074BFFF794F9A9
:1012880002460B4630463946FEF7D6FFFFF764FCA8
:101298002146D0BD0000F03D0000F04180B582B08D
:1012A80000AF7860391D4FF6FF730122034805F03F
:1012B80005FD7B6818460837BD4680BDB40500208B
:1012C80080B500AF00F00EF800F0AAFF00F0B4FC03
:1012D80000BF80BD80B500AF142001F0FFF800BF4B
:1012E80080BD000080B400AF034B48221A6000BFE5
:1012F800BD4680BC704700BF2802002080B489B07A
:1013080000AF78600023BB61194B5B687B61194BA8
:101318001A687B6802FB03F33B61154B9B68FB6112
:10132800134B9B68FB60FA68FB699A42F8D0FA682D
:10133800FB699A4206D2FA69FB68D31ABA69134460
:10134800BB6107E07A69FB68D21AFB691344BA6982
:101358001344BB61FB68FB61BA693B699A4200D2DE
:10136800DEE700BF00BF2437BD4680BC704700BF22
:1013780010E000E02802002080B485B000AF0346EA
:10138800FB710023FB81FB79032B41D801A252F8A2
:1013980023F000BFAD130008C7130008E5130008C9
:1013A800FF1300081E4B5B6A9BB2C3F5FF437F33F4
:1013B8009BB2FB811A4B47F6FF725A6229E04FF045
:1013C80080435B6A9BB2C3F5FF437F339BB2FB81CB
:1013D8004FF0804347F6FF725A621AE0114B5B6A7E
:1013E8009BB2C3F5FF437F339BB2FB810D4B47F69E
:1013F800FF725A620DE00C4B5B6A9BB2C3F5FF4368
:101408007F339BB2FB81084B47F6FF725A6200E0BC
:1014180000BFB7F90E3018461437BD4680BC704778
:1014280000080040000C00400004004080B483B075
:1014380000AF78600B4B1A687B681A607B680433CE
:10144800094A12681A607B680833084A12681A60E9
:101458007B680C33064A12681A6000BF0C37BD4619
:1014680080BC70472C02002030020020340200208B
:101478003802002080B500AF0020FFF77DFF03464B
:101488001A46124B1B689B1A104A13600120FFF77B
:1014980073FF03461A460E4B1B689B1A0C4A1360CF
:1014A8000220FFF769FF03461A460A4B1B681344DC
:1014B800084A13600320FFF75FFF03461A46064BEE
:1014C8001B681344044A136000BF80BD2C0200202F
:1014D80030020020340200203802002080B400AF1F
:1014E800024B1846BD4680BC704700BF00008244CE
:1014F80080B483B000AF0346FB71FB79002B03D1A6
:10150800054B00221A7002E0034B01221A7000BF3B
:101518000C37BD4680BC7047C002002090B583B030
:1015280000AF0446084611461A462346FB80034688
:10153800BB800B467B8013463B80B7F9063013F51A
:10154800616F0ADBB7F90630B3F5616F05DCB7F9EF
:1015580006301946002000F0CFFDB7F9043013F526
:10156800616F0ADBB7F90430B3F5616F05DCB7F9D1
:1015780004301946012000F0BFFDB7F9023013F519
:10158800616F0ADBB7F90230B3F5616F05DCB7F9B3
:1015980002301946022000F0AFFDB7F9003013F50C
:1015A800616F0ADBB7F90030B3F5616F05DCB7F995
:1015B80000301946032000F09FFD00BF0C37BD46E0
:1015C80090BD000080B582B000AF0346FB710023D8
:1015D80000220021002000F015F8042000F064FC2F
:1015E800064B00221A70064B00221A70FB79184627
:1015F80000F036FD00BF0837BD4680BD8C020020D4
:10160800C002002090B585B000AF044608461146D8
:101618001A462346FB800346BB800B467B80134655
:101628003B80184B01221A70174AFB881384164A0C
:10163800BB885384144A7B889384134A3B88D38499
:101648000023FB7316E0FB7B0F4A103332F913308B
:101658001846FEF73FFF02460B4610461946FFF7AD
:101668009BFA0246FB7B1146184600F0A9FCFB7B5F
:101678000133FB73FB7B032BE5D900BF00BF143795
:10168800BD4690BD8C0200209802002080B58AB02B
:1016980000AF786000237B6207F1080300221A601C
:1016A8005A609A60DA6000F0D3F83862FFF716FFE4
:1016B800F86100F0C3F8B86100F0D4F800237B6249
:1016C8001EE05A4A7B6A52F82330642202FB03F375
:1016D8001846FFF76BFB0346396A1846FFF7BAFB53
:1016E8000346F9691846FFF769FC03461A467B6A00
:1016F8009B0028333B4443F8202C7B6A01337B62F0
:101708007B6A032BDDDDBB68FA6811461846FFF7D4
:1017180099FA03461A463B6919461046FFF792FAAA
:1017280003461A467B6919461046FFF78BFA0346AB
:101738004FF081411846FFF741FC03461846FFF772
:101748004FFD03461AB27B681A80BB68FA681146D7
:101758001846FFF775FA03461A463B6919461046BC
:10176800FFF76EFA03461A467B6919461046FFF7DB
:1017780069FA034683F000434FF081411846FFF7AA
:101788001DFC03461846FFF72BFD03461AB27B687B
:101798005A80BB68FA6811461846FFF753FA0346A1
:1017A8001A463B6919461046FFF74AFA03461A4695
:1017B8007B6919461046FFF743FA034683F0004356
:1017C8004FF081411846FFF7F9FB0346B9691846FF
:1017D800FFF7F4FB034616491846FFF73BFB0346A1
:1017E8001846FFF7FDFC03461AB27B689A80114B36
:1017F8001B78002B15D000237B620CE07B6A9B00D2
:1018080028333B4453F8202C0B497B6A41F82320AA
:101818007B6A01337B627B6A032BEFDD064800F0AD
:101828001BFB00BF2837BD4680BD00BF7C020020DF
:1018380000007A448C0200209802002080B400AF97
:10184800024B1846BD4680BC704700BF00001F43CE
:1018580080B400AF024B1846BD4680BC704700BF3D
:10186800F8334C4380B582B000AF1348FFF7DEFD74
:101878000023FB7117E0FB790F4A52F82310FB791C
:101888000E4A52F82320FB798A1A0D4941F8232081
:10189800FA79FB79084951F82220084941F82320B0
:1018A800FB790133FB71FB79032BE4D900BF00BF3F
:1018B8000837BD4680BD00BF5C0200206C020020D6
:1018C8007C02002080B582B000AF03460A46FB7157
:1018D8001346BB803F4ABB881380FB79072B73D81C
:1018E80001A252F823F000BF111900082B190008B3
:1018F8003B1900084F1900086F19000889190008DA
:10190800AB190008C9190008324B00221A80BB889D
:10191800002B14BF01230023DBB21846FFF752FE49
:1019280053E0B7F9043000220021184600F054F8BB
:101938004BE0BB885B429BB21BB2002200211846D9
:1019480000F04AF841E0BB885B089BB218B2BB883C
:101958001A46D203D31A5B009BB21BB21A46002167
:1019680000F03AF831E0BB885B089BB218B2BB883C
:101978005B009BB21BB21A46002100F02DF824E050
:101988000020FFF7B5FDBB881A469203D21A9200D1
:10199800D31A9BB21BB21A460021002000F01CF893
:1019A80013E00020FFF7A4FDBB881A4692001344F9
:1019B8009BB21BB21A460021002000F00DF804E08B
:1019C8000120FFF7FFFD00E000BF00BF0837BD465C
:1019D80080BD00BF5802002080B584B000AF034628
:1019E800FB800B46BB8013467B80FFF727FFF86020
:1019F8006F4B4FF000021A60B7F906301846FFF730
:101A0800D5F903466B4A1360B7F902301846FFF759
:101A1800CDF9034668491846FFF7D0FA0346F96836
:101A28001846FFF717FA03461A46644B1A60B7F9C7
:101A38000630002B0BD1B7F90430002B07D1B7F9CA
:101A48000230002B03D10120FFF7BCFDADE0594B5C
:101A58001B68574A126811461846FFF7F3F8034601
:101A68001A46564B1B6819461046FFF7EBF8034613
:101A78001846FFF7B5FB0346514A13604D4B1B68E8
:101A88004B4A126811461846FFF7DAF803461A4619
:101A98004A4B1B6819461046FFF7D4F80346184608
:101AA800FFF79EFB0346474A1360424B1B68404AB8
:101AB800126811461846FFF7C3F803461A463F4B0B
:101AC8001B6819461046FFF7BBF803461846FFF790
:101AD80087FB03463C4A1360364B1B68344A12683E
:101AE80011461846FFF7AEF803461A46334B1B68F3
:101AF80019461046FFF7A4F803461846FFF770FB8F
:101B08000346324A13602E4B1B68B3F57A7F03DD18
:101B18002B4B4FF47A721A60294B1B6813F57A7FA6
:101B280002DA274B2A4A1A60264B1B68B3F57A7FDC
:101B380003DD244B4FF47A721A60224B1B6813F5AD
:101B48007A7F02DA1F4B224A1A601F4B1B68B3F5D3
:101B58007A7F03DD1C4B4FF47A721A601A4B1B68AC
:101B680013F57A7F02DA184B194A1A60174B1B686B
:101B7800B3F57A7F03DD154B4FF47A721A60134B75
:101B88001B6813F57A7F02DA104B114A1A600C4B66
:101B98001B6818B20B4B1B6819B20B4B1B681AB2A7
:101BA8000A4B1B681BB2FFF72DFD1037BD4680BDE1
:101BB8003C0200204002002000007A444402002039
:101BC800480200204C02002050020020540200204D
:101BD80018FCFFFFF8B500AF1448FFF757FD144B8A
:101BE8001B78002B20D0134B1B691846FFF7F8FA17
:101BF80003461CB20F4B5B691846FFF7F1FA034620
:101C08001DB20C4B9B691846FFF7EAFA03461EB251
:101C1800084BDB691846FFF7E3FA03461BB2324666
:101C280029462046FFF77AFC00BFF8BD9002002045
:101C38008C0200209802002080B483B000AF0023FB
:101C48007B6062E03A497A6813469B001344DB00E4
:101C58000B444FF000021A6035497A6813469B001E
:101C68001344DB000B4408334FF000021A6030497C
:101C78007A6813469B001344DB000B4418334FF07B
:101C880000021A602A497A6813469B001344DB0055
:101C98000B441C334FF000021A6025497A6813463A
:101CA8009B001344DB000B4420334FF000021A6002
:101CB8001F497A6813469B001344DB000B44243306
:101CC8004FF000021A601A497A6813469B001344C1
:101CD800DB000B440C33174A1A6015497A6813461F
:101CE8009B001344DB000B441033134A1A6010495D
:101CF8007A6813469B001344DB000B4414334FF0FF
:101D08007C521A607B6801337B607B68032B99DD0A
:101D18000A4B0B4A5A60094B4FF000029A60074B76
:101D2800084ADA6000BF0C37BD4680BC704700BF68
:101D3800C4020020CDCC4C3F8FC2753D000000206E
:101D4800CDCCCC3ECDCCCC3D2DE9F04182B000AF1E
:101D5800786039607B681B6839681846FEF770FF41
:101D680003461A467B689A617B689C687B68DD68D5
:101D78007B689A697B681B6A19461046FEF760FF04
:101D8800034619462846FFF765F803461D467B6853
:101D98001A697B689B6919461046FFF75BF803468A
:101DA80019462846FEF74EFF034698467B685D694C
:101DB8007B689E697B681B6A19461846FEF742FFD6
:101DC800034619463046FEF73BFF03461A467B6832
:101DD800DB6919461046FEF735FF034619462846C3
:101DE800FFF738F8034619464046FEF72BFF03462F
:101DF80019462046FEF726FF03461A467B689A6076
:101E08007B681A6A7B68DA617B689A697B681A6200
:101E18007B689B680E491846FFF7D8F90346002BE4
:101E280002D07B680A4A9A607B689B680949184611
:101E3800FFF7AEF90346002B02D07B68054A9A608B
:101E48007B689B6818460837BD46BDE8F08100BF2F
:101E58000000C8440000C8C480B584B000AF7860F2
:101E68000023FB6016E0FA6813469B001344DB006E
:101E78000C4A98187B68FA6853F822301946FFF71D
:101E880063FF01467B68FA68043243F82210FB6856
:101E98000133FB60FB68032BE5DD00BF00BF103793
:101EA800BD4680BDC402002080B485B000AF0346A3
:101EB800FB71FB79042B7BD8FB79042B40D10023E1
:101EC800FB6039E03D49FA6813469B001344DB0088
:101ED8000B4408334FF000021A603849FA68134679
:101EE8009B001344DB000B4418334FF000021A60C8
:101EF8003249FA6813469B001344DB000B441C3339
:101F08004FF000021A602D49FA6813469B001344EB
:101F1800DB000B4420334FF000021A602749FA68AF
:101F280013469B001344DB000B4424334FF000029C
:101F38001A60FB680133FB60FB68032BC2DD38E0E5
:101F4800FA791E4913469B001344DB000B440833FF
:101F58004FF000021A60FA79184913469B0013449F
:101F6800DB000B4418334FF000021A60FA7913496A
:101F780013469B001344DB000B441C334FF0000254
:101F88001A60FA790D4913469B001344DB000B4491
:101F980020334FF000021A60FA79084913469B0073
:101FA8001344DB000B4424334FF000021A6000E0B6
:101FB80000BF1437BD4680BC704700BFC402002074
:101FC80080B485B000AF03463960FB71FB79042B00
:101FD8001FD8FB79042B12D10023FB600BE00F49BB
:101FE800FA6813469B001344DB000B443A681A60F6
:101FF800FB680133FB60FB68032BF0DD0AE0FA792C
:10200800064913469B001344DB000B443A681A60E8
:1020180000E000BF1437BD4680BC7047C4020020F2
:1020280080B483B000AF0346FB80B7F90630002BBD
:1020380005DDFB8803F5FA639BB21BB20AE0B7F92A
:102048000630002B05DAFB88A3F5FA639BB21BB2B6
:1020580000E0002318460C37BD4680BC70470000DE
:1020680080B483B000AF0346FB71FB79002B01D02D
:102078000123FB71FB794FF4616203FB02F21C4BF5
:102088005A63FB794FF4616203FB02F2184B9A63BF
:10209800FB794FF4616203FB02F2154BDA63FB79BB
:1020A8004FF4616203FB02F2114B1A64FB794FF49F
:1020B800616203FB02F20F4B5A63FB794FF46162D2
:1020C80003FB02F20B4B9A63FB794FF4616203FB4B
:1020D80002F2084BDA63FB794FF4616203FB02F208
:1020E800044B1A6400BF0C37BD4680BC704700BF64
:1020F80000340140002C014080B584B000AF034695
:102108000A46FB711346BB80B7F904301846FFF73F
:1021180087FF0346FB81B7F90E30B3F5616F02DB29
:102128004FF46163FB81B7F90E3013F5616F02DC80
:102138004FF2F013FB81FB79032B67D801A252F809
:1021480023F000BF5D2100088F210008C12100088D
:10215800EB210008FB895B429BB2FB81B7F90E308B
:10216800002B07DB2C4AB7F90E3053632A4B0022A9
:102178009A634CE0284B00225A63B7F90E305A4252
:10218800254B9A6343E0FB895B429BB2FB81B7F91D
:102198000E30002B07DB204AB7F90E30D3631E4BF5
:1021A80000221A6433E01C4B0022DA63B7F90E30C0
:1021B8005A42194B1A642AE0B7F90E30002B07DB94
:1021C800164AB7F90E305363144B00229A631EE087
:1021D800124B00225A63B7F90E305A420F4B9A63DA
:1021E80015E0B7F90E30002B07DB0C4AB7F90E30B3
:1021F800D3630A4B00221A6409E0084B0022DA6311
:10220800B7F90E305A42054B1A6400E000BF00BF10
:102218001037BD4680BD00BF00340140002C01408E
:1022280080B500AF0021224802F006FF04212048B3
:1022380002F002FF08211E4802F0FEFE0C211C4895
:1022480002F0FAFE00211B4802F0F6FE04211948AC
:1022580002F0F2FE0821174802F0EEFE0C211548A4
:1022680002F0EAFE4FF0804347F6FF725A620421FB
:10227800114803F0ADF9114B47F6FF725A62042179
:102288000F4803F0A5F90F4B47F6FF725A62042175
:102298000D4803F09DF90D4B47F6FF725A62042171
:1022A8000B4803F095F90B4802F056FD00BF80BDBE
:1022B800740300206C050020BC03002000040040CB
:1022C80004040020000800404C040020000C0040DA
:1022D800940400202405002080B400AF0B4B1B6839
:1022E8001B6903F00103012B0BD1084B1B68DB684A
:1022F80003F00103012B04D1044B1B686FF00102AA
:102308001A6100BFBD4680BC704700BFDC040020D6
:1023180080B500AF194B1B681B6903F00103012B43
:1023280029D1174B1B68DB6803F00103012B22D16D
:10233800134B1B686FF001021A61124B1B78002BBC
:1023480004D0114B1B6801330F4A13600F4B1B88D5
:10235800002B06D00D4B1B88013B9AB20B4B1A8001
:1023680007E0FFF787F8FFF735FC084B4FF47A7260
:102378001A8000F029F800BF80BD00BFDC040020EF
:10238800240500206C030020680300201C000020A6
:1023980080B485B000AF0346FB71FA7913469B0001
:1023A80013445B00134403F5FA73064A82FB0312D5
:1023B8009210DB17D31AFB81FB8918461437BD46E8
:1023C80080BC70476766666680B500AF2B4B1B887C
:1023D80001339AB2294B1A80294B1A88274B1B883C
:1023E8009A4205D301220121264801F00DFE04E09E
:1023F80000220121234801F007FE214B5A881F4B78
:102408001B889A4205D3012202211E4801F0FCFDD7
:1024180004E0002202211B4801F0F6FD184B9A88BF
:10242800164B1B889A4206D301224FF48041164866
:1024380001F0EAFD05E000224FF48041124801F066
:10244800E3FD0F4BDA880D4B1B889A4206D3012215
:102458004FF400410C4801F0D7FD05E000224FF48D
:102468000041094801F0D0FD044B1B88B3F5FA6F11
:1024780002D3024B00221A8000BF80BD64030020F3
:1024880024000020000C01400014014090B583B0E6
:1024980000AF03460A46FB711346BB71FB79032B59
:1024A80011D8BB79B42B10D8FB790A49BA79CA5428
:1024B800FC79BB791846FFF76BFF03461A46064BB3
:1024C80023F8142002E000BF00E000BF0C37BD462F
:1024D80090BD00BF2000002024000020B0B588B0C7
:1024E80002AF0346FB8000F087F87861FB88022B77
:1024F80075D9FB881846FEF759FC034619467869D2
:10250800FEF746FE0346002B69D000210020FFF7A6
:10251800D9F900210020FFF7B9FF4FF4FA7001F054
:1025280059F900F069F83861B4210020FFF7AEFFCF
:102538004FF4FA7001F04EF900F05EF8F860F868B0
:10254800FDF7DAFF04460D463869FDF7D5FF024668
:102558000B46CDE9002322462B46254805F00EFC04
:102568005A210020FFF792FF2249F868FEF710FE73
:102578000346002B10D01F493869FEF709FE0346B1
:10258800002B09D04FF448710620FFF79BF94FF450
:102598007A7001F01FF927E03969F868FEF70CFE38
:1025A8000346002B09D04FF4FA710520FFF78AF98A
:1025B8004FF47A7001F00EF916E03969F868FEF701
:1025C800E7FD0346002B00D10EE04FF4FA71062018
:1025D800FFF778F94FF47A7001F0FCF804E0FA217B
:1025E8000120FFF76FF900BF00BF1837BD46B0BD27
:1025F80058B900080000A04180B584B000AF4FF082
:1026080000037B604FF00003FB600023FB7260E077
:1026180001224FF40061364801F0F6FC1420FEF761
:102628006DFE00224FF40061314801F0EDFC00BF5F
:102638004FF480512E4801F0C1FC0346002BF7D01F
:102648002C4B01221A70FB7A0133FB720FE02A4BE4
:102658001B683B803B8841F26F72934207D9254B38
:1026680000221A70244B00221A60244B3BE04FF4DE
:1026780080511F4801F0A2FC0346012BE7D01D4BF7
:1026880000221A701E4B5B6A7B8079881A4B1A6885
:1026980013469B0013445B000B441846FDF70AFFE2
:1026A8004FF00002174BFEF7A9F802460B461046FA
:1026B8001946FEF771FA03467B607968F868FEF7F9
:1026C800C1FA0346FB600C4B00221A600A2001F095
:1026D80081F8FB7A052B9BD10B49F868FEF76EFC55
:1026E80003467B607B6818461037BD4680BD00BF37
:1026F800001C01406C030020680300200080BB45DB
:102708000014004000404D400000A04080B58AB051
:1027180000AF07F1180300221A605A609A60DA6065
:102728004A4B9B69494A43F004039361474B9B69B1
:1027380003F004037B617B69444B9B69434A43F084
:1027480008039361414B9B6903F008033B613B69B4
:102758003E4B9B693D4A43F0800393613B4B9B6929
:1027680003F08003FB60FB68384B9B69374A43F0F2
:1027780040039361354B9B6903F04003BB60BB6822
:10278800324B9B69314A43F0200393612F4B9B697D
:1027980003F020037B607B682C4B9B692B4A43F03A
:1027A80010039361294B9B6903F010033B603B685E
:1027B80000220321264801F027FC00224FF4006183
:1027C800244801F021FC00224FF44041224801F046
:1027D8001BFC0323BB610123FB6100233B62022333
:1027E8007B6207F118031946194801F053F94FF4B1
:1027F8000063BB610123FB6100233B6202237B6210
:1028080007F118031946134801F044F94FF48053AF
:10281800BB610023FB6100233B6207F118031946E3
:102828000C4801F037F94FF44043BB610123FB61C9
:1028380000233B6202237B6207F11803194606480E
:1028480001F028F900BF2837BD4680BD00100240BE
:10285800000C0140001C01400014014080B500AF8D
:1028680000F056FF00F019F8FFF750FF00F08CF960
:1028780000F04EFA00F0A0FA00F0F2FA00F044FB83
:1028880000F096FB00F0FEFB00F0A6FE00F0C6FB91
:10289800FEF716FDFEF71EFDFCE780B590B000AF11
:1028A80007F1180328220021184604F0F1FB3B1D0C
:1028B80000221A605A609A60DA601A610123BB61CB
:1028C8004FF48033FB6100233B620123BB62022388
:1028D8007B634FF48033BB634FF4E013FB6307F172
:1028E8001803184601F0C2FB0346002B01D000F084
:1028F80019F80F237B600223BB600023FB604FF4B1
:1029080080633B6100237B613B1D0221184601F077
:102918001BFF0346002B01D000F004F800BF40372E
:10292800BD4680BD80B400AF72B600BFFEE780B47C
:1029380083B000AF7860396000BF0C37BD4680BCFB
:102948007047000080B584B000AF164B9B69154AEC
:1029580043F001039361134B9B6903F00103BB60D0
:10296800BB68104BDB690F4A43F08053D3610D4BB2
:10297800DB6903F080537B607B68052001F01AF85F
:10298800094B5B68FB60FB6823F0E063FB60FB6856
:1029980043F00073FB60044AFB68536000BF1037C4
:1029A800BD4680BD001002400000014080B400AF69
:1029B800FEE780B400AFFEE780B400AFFEE780B466
:1029C80000AFFEE780B400AFFEE780B400AF00BF01
:1029D800BD4680BC704780B400AF00BFBD4680BC18
:1029E800704780B400AF00BFBD4680BC704780B55B
:1029F80000AF00F0D3FE00BF80BD80B400AF01235C
:102A08001846BD4680BC704780B582B000AF78607C
:102A1800396004F013FB034616221A604FF0FF33A7
:102A280018460837BD4680BD80B582B000AF7860D3
:102A38004FF0FF317868FFF7E7FFFEE780B586B013
:102A480000AFF860B9607A6000237B610AE0AFF3F9
:102A580000800146BB685A1CBA60CAB21A707B690A
:102A680001337B617A697B689A42F0DB7B681846A0
:102A78001837BD4680BD80B586B000AFF860B96034
:102A88007A6000237B6109E0BB685A1CBA601B7836
:102A98001846FEF703FC7B6901337B617A697B6822
:102AA8009A42F1DB7B6818461837BD4680BD80B472
:102AB80083B000AF78604FF0FF3318460C37BD463F
:102AC80080BC704780B483B000AF786039603B68E1
:102AD8004FF400525A60002318460C37BD4680BC9C
:102AE800704780B483B000AF7860012318460C3774
:102AF800BD4680BC704780B485B000AFF860B9604F
:102B08007A60002318461437BD4680BC7047000021
:102B180080B586B000AF7860144A154BD31A7B6134
:102B28007B693B61134B1B68002B02D1114B124A86
:102B38001A60104B1A687B6813443A699A4207D2A4
:102B480004F07CFA03460C221A604FF0FF3309E0C8
:102B5800084B1B68FB60074B1A687B681344054ADF
:102B68001360FB6818461837BD4680BD0000012079
:102B780000040000700300201006002080B400AF9D
:102B880000BFBD4680BC704780B596B000AF07F166
:102B9800480300221A605A609A60DA6007F140031D
:102BA80000221A605A6007F1240300221A605A6052
:102BB8009A60DA601A615A619A613B1D20220021ED
:102BC800184604F065FA504B504A1A604E4B0022E2
:102BD8005A604D4B00229A604B4B40F60F62DA6008
:102BE800494B00221A61484B00225A61464B802209
:102BF8009A61454801F0DCFF0346002B01D0FFF73E
:102C080091FE4FF48053BB6407F1480319463E48D0
:102C180002F03EFF0346002B01D0FFF783FE3A483F
:102C280002F02CF90346002B01D0FFF77BFE0023AE
:102C38003B6400237B6407F140031946324803F0E4
:102C4800E7FD0346002B01D0FFF76CFE60237B6293
:102C58000023BB620023FB6200233B6300237B63EA
:102C68000023BB630023FB6307F1240300221946FA
:102C7800254802F06BFD0346002B01D0FFF752FEFA
:102C880007F12403042219461F4802F05FFD03469A
:102C9800002B01D0FFF746FE07F12403082219464E
:102CA800194802F053FD0346002B01D0FFF73AFE06
:102CB80007F124030C221946134802F047FD034686
:102CC800002B01D0FFF72EFE00237B600023BB60A2
:102CD8000023FB6000233B6100237B614FF400531A
:102CE800BB6100233B623B1D1946074803F060FEA9
:102CF8000346002B01D0FFF715FE034800F002FC45
:102D080000BF5837BD4680BD74030020002C014029
:102D180080B58CB000AF07F10C03242200211846BF
:102D280004F0B6F93B1D00221A605A60214B4FF09F
:102D380080421A601F4B00225A601E4B00229A6084
:102D48001C4B4FF6FF72DA601A4B00221A61194BBE
:102D580000229A610323FB6000233B6101237B610E
:102D68000023BB610023FB6100233B6201237B62DC
:102D78000023BB620023FB6207F10C0319460D48D0
:102D880002F082FA0346002B01D0FFF7CBFD0023A7
:102D98007B600023BB603B1D1946064803F038FDE5
:102DA8000346002B01D0FFF7BDFD00BF3037BD46FD
:102DB80080BD00BFBC03002080B58CB000AF07F118
:102DC8000C0324220021184604F062F93B1D00225E
:102DD8001A605A60204B214A1A601F4B00225A6021
:102DE8001D4B00229A601C4B4FF6FF72DA601A4B9B
:102DF80000221A61184B00229A610323FB6000230A
:102E08003B6101237B610023BB610023FB6100233D
:102E18003B6201237B620023BB620023FB6207F154
:102E28000C0319460C4802F02FFA0346002B01D078
:102E3800FFF778FD00237B600023BB603B1D19462C
:102E4800054803F0E5FC0346002B01D0FFF76AFDB7
:102E580000BF3037BD4680BD040400200004004098
:102E680080B58CB000AF07F10C032422002118466E
:102E780004F00EF93B1D00221A605A60204B214ACB
:102E88001A601F4B00225A601D4B00229A601C4B8F
:102E98004FF6FF72DA601A4B00221A61184B0022B3
:102EA8009A610323FB6000233B6101237B610023BC
:102EB800BB610023FB6100233B6201237B6200238B
:102EC800BB620023FB6207F10C0319460C4802F0B1
:102ED800DBF90346002B01D0FFF724FD00237B60BC
:102EE8000023BB603B1D1946054803F091FC0346CF
:102EF800002B01D0FFF716FD00BF3037BD4680BD5F
:102F08004C0400200008004080B58CB000AF07F1E9
:102F18000C0324220021184604F0BAF83B1D0022B5
:102F28001A605A60204B214A1A601F4B00225A60CF
:102F38001D4B00229A601C4B4FF6FF72DA601A4B49
:102F480000221A61184B00229A610323FB600023B8
:102F58003B6101237B610023BB610023FB610023EC
:102F68003B6201237B620023BB620023FB6207F103
:102F78000C0319460C4802F087F90346002B01D0D0
:102F8800FFF7D0FC00237B600023BB603B1D194684
:102F9800054803F03DFC0346002B01D0FFF7C2FCB7
:102FA80000BF3037BD4680BD94040020000C0040AF
:102FB80080B582B000AF3B4600221A605A60154BBC
:102FC800154A1A60134B41F61F425A60114B0022F2
:102FD8009A60104B6322DA600E4B00229A610D480A
:102FE80001F0E6FD0346002B01D0FFF79BFC002310
:102FF8003B6000237B603B461946064803F008FC0B
:103008000346002B01D0FFF78DFC00BF0837BD46F3
:1030180080BD00BFDC0400200010004080B582B0F5
:1030280000AF3B4600221A605A60144B144A1A60DB
:10303800124B47225A60114B00229A600F4B09220B
:10304800DA600E4B00229A610C4801F0B1FD03468C
:10305800002B01D0FFF766FC00233B6000237B6058
:103068003B461946054803F0D3FB0346002B01D025
:10307800FFF758FC00BF0837BD4680BD2405002077
:103088000014004080B596B000AF07F14803002255
:103098001A605A609A60DA6007F1400300221A60E9
:1030A8005A6007F1240300221A605A609A60DA60B5
:1030B8001A615A619A613B1D20220021184603F0CB
:1030C800E7FF504B504A1A604E4B00225A604D4B56
:1030D80000229A604B4B40F60F62DA60494B00229F
:1030E8001A61484B00225A61464B80229A61454832
:1030F80001F05EFD0346002B01D0FFF713FC4FF4EF
:103108008053BB6407F1480319463E4802F0C0FCEF
:103118000346002B01D0FFF705FC3A4801F0AEFE4C
:103128000346002B01D0FFF7FDFB00233B6400237F
:103138007B6407F140031946324803F069FB0346F4
:10314800002B01D0FFF7EEFB60237B620023BB62FC
:103158000023FB6200233B6300237B630023BB63E4
:103168000023FB6307F1240300221946254802F0D7
:10317800EDFA0346002B01D0FFF7D4FB07F1240337
:10318800042219461F4802F0E1FA0346002B01D039
:10319800FFF7C8FB07F1240308221946194802F073
:1031A800D5FA0346002B01D0FFF7BCFB07F1240337
:1031B8000C221946134802F0C9FA0346002B01D025
:1031C800FFF7B0FB00237B600023BB600023FB609C
:1031D80000233B6100237B614FF40053BB61002354
:1031E8003B623B1D1946074803F0E2FB0346002BF0
:1031F80001D0FFF797FB034800F084F900BF583768
:10320800BD4680BD6C0500200034014080B586B005
:1032180000AF78607B681B682C4A93420CD12C4B1A
:103228009B692B4A43F400639361294B9B6903F420
:1032380000637B617B6944E07B681B68254A934295
:1032480014D1234BDB69224A43F01003D361204B8E
:10325800DB6903F010033B613B6900220221362041
:1032680000F0C8FB362000F0F1FB2AE07B681B6801
:10327800194A934214D1164BDB69154A43F02003CF
:10328800D361134BDB6903F02003FB60FB6800226A
:103298000321372000F0AEFB372000F0D7FB10E009
:1032A8007B681B680D4A93420BD1094B9B69084AFE
:1032B80043F400539361064B9B6903F40053BB60CE
:1032C800BB6800BF1837BD4680BD00BF002C014059
:1032D800001002400010004000140040003401407B
:1032E80080B592B000AF786007F12C0300221A6015
:1032F8005A609A60DA607B681B68B3F1804F4FD1DF
:10330800784BDB69774A43F00103D361754BDB697E
:1033180003F00103BB62BB6A724B9B69714A43F0BD
:10332800040393616F4B9B6903F004037B627B6A20
:103338006C4B9B696B4A43F008039361694B9B692B
:1033480003F008033B623B6A4FF40043FB6200232F
:103358003B6300237B6307F12C031946624800F0A6
:1033680099FB0823FB6200233B6300237B6307F17F
:103378002C0319465D4800F08DFB5D4B5B68FB63D1
:10338800FB6B23F44073FB63FB6B43F0E063FB636D
:10339800FB6B43F48073FB63554AFB6B53609DE002
:1033A8007B681B68534A934236D14E4BDB694D4AC2
:1033B80043F00203D3614B4BDB6903F00203FB616B
:1033C800FB69484B9B69474A43F008039361454BA7
:1033D8009B6903F00803BB61BB693023FB620023D0
:1033E8003B6300237B6307F12C0319463F4800F039
:1033F80051FB3F4B5B683B643B6C23F440633B648D
:103408003B6C43F0E0633B643B6C43F400633B6418
:10341800374A3B6C536061E07B681B68364A9342CD
:1034280033D1304BDB692F4A43F00403D3612D4B72
:10343800DB6903F004037B617B692A4B9B69294A9A
:1034480043F020039361274B9B6903F020033B6102
:103458003B694FF44053FB6200233B6300237B63CB
:1034680007F12C031946254800F014FB204B5B6834
:103478007B647B6C43F0E0637B647B6C43F4805338
:103488007B641B4A7B6C536028E07B681B681C4A82
:10349800934223D1134BDB69124A43F00803D361EB
:1034A800104BDB6903F00803FB60FB680D4B9B695D
:1034B8000C4A43F0040393610A4B9B6903F004032D
:1034C800BB60BB680323FB6200233B6300237B6371
:1034D80007F12C031946044800F0DCFA00BF48370E
:1034E800BD4680BD0010024000080140000C0140AC
:1034F80000000140000400400008004000140140A2
:10350800000C004080B58AB000AF786007F1140362
:1035180000221A605A609A60DA607B681B68284A41
:1035280093422BD1274B9B69264A43F04003936172
:10353800244B9B6903F040033B613B694FF4D44340
:103548007B610223BB6102233B6207F11403194626
:103558001D4800F09FFA1D4B5B687B627B6A23F075
:10356800C0037B627B6A43F0E0637B627B6A43F063
:10357800C0037B62154A7B6A53601DE07B681B6849
:10358800134A934218D10F4B9B690E4A43F010031C
:1035980093610C4B9B6903F01003FB60FB684FF4CD
:1035A80070737B610223BB6102233B6207F1140342
:1035B8001946084800F06EFA00BF2837BD4680BD9E
:1035C800002C01400010024000180140000001409A
:1035D800003401400010014080B500AF114B124A81
:1035E8001A60104B4FF4E1325A600E4B00229A6079
:1035F8000C4B0022DA600B4B00221A61094B0C229B
:103608005A61084B00229A61064B0022DA6105488C
:1036180003F09AFA0346002B01D0FFF783F900BFA5
:1036280080BD00BFB40500200038014080B588B0D7
:1036380000AF786007F1100300221A605A609A60A0
:10364800DA607B681B681C4A934231D11B4B9B692B
:103658001A4A43F480439361184B9B6903F48043EF
:10366800FB60FB68154B9B69144A43F004039361A4
:10367800124B9B6903F00403BB60BB684FF40073F3
:103688003B6102237B610323FB6107F110031946A9
:103698000B4800F0FFF94FF480633B6100237B6126
:1036A8000023BB6107F110031946054800F0F2F941
:1036B80000BF2037BD4680BD0038014000100240E1
:1036C80000080140FFF75AFA0B480C490C4A00233E
:1036D80002E0D458C4500433C4188C42F9D3094AC0
:1036E800094C002301E013600432A242FBD303F02B
:1036F800ABFCFFF7B3F87047000000200C02002075
:10370800ACBF00080C02002010060020FEE70000F5
:1037180080B500AF084B1B68074A43F010031360DD
:10372800032000F047F9032000F008F8FFF70AF932
:103738000023184680BD00BF0020024080B582B03B
:1037480000AF7860124B1A68124B1B7819464FF479
:103758007A73B3FBF1F3B2FBF3F3184600F08EF97A
:103768000346002B01D001230EE07B680F2B0AD8FB
:10377800002279684FF0FF3000F03CF9064A7B6878
:103788001360002300E0012318460837BD4680BDBA
:103798002C000020340000203000002080B400AF4E
:1037A800054B1B781A46054B1B681344034A1360E4
:1037B80000BFBD4680BC704734000020FC050020D7
:1037C80080B400AF024B1B681846BD4680BC7047EA
:1037D800FC05002080B584B000AF7860FFF7F0FFEB
:1037E800B8607B68FB60FB68B3F1FF3F05D00A4B0C
:1037F8001B781A46FB681344FB6000BFFFF7E0FF25
:103808000246BB68D31AFA689A42F7D800BF00BFCD
:103818001037BD4680BD00BF3400002080B485B09D
:1038280000AF78607B6803F00703FB600C4BDB6834
:10383800BB60BA684FF6FF031340BB60FB681A020F
:10384800BB68134343F0BF6343F40033BB60044ACF
:10385800BB68D36000BF1437BD4680BC704700BF4B
:1038680000ED00E080B400AF044BDB681B0A03F0F6
:1038780007031846BD4680BC704700BF00ED00E056
:1038880080B483B000AF0346FB7197F90730002B73
:103898000BDBFB7903F01F02064997F907305B0938
:1038A800012000FA02F241F8232000BF0C37BD4680
:1038B80080BC704700E100E080B483B000AF0346ED
:1038C8003960FB7197F90730002B0ADB3B68DAB2E5
:1038D8000C4997F907301201D2B20B4483F8002340
:1038E8000AE03B68DAB20849FB7903F00F03043BAE
:1038F8001201D2B20B441A7600BF0C37BD4680BC09
:10390800704700BF00E100E000ED00E080B489B03E
:1039180000AFF860B9607A60FB6803F00703FB61E9
:10392800FB69C3F10703042B28BF0423BB61FB69B0
:103938000433062B02D9FB69033B00E000237B61BB
:103948004FF0FF32BB6902FA03F3DA43BB681A404F
:103958007B699A404FF0FF317B6901FA03F3D94341
:103968007B680B40134318462437BD4680BC70471C
:1039780080B582B000AF78607B68013BB3F1807F8F
:1039880001D301230FE00A4A7B68013B53600F21F2
:103998004FF0FF30FFF790FF054B00229A60044B71
:1039A80007221A60002318460837BD4680BD00BFAD
:1039B80010E000E080B582B000AF78607B68072B2C
:1039C8000FD07B68062B0CD07B68052B09D07B6851
:1039D800042B06D07B68032B03D091210448FEF703
:1039E800A6FF7868FFF71AFF00BF0837BD4680BDFD
:1039F8006CB9000880B586B000AF0346B9607A603C
:103A0800FB7300237B617B680F2B03D9A9210E4828
:103A1800FEF78DFFBB680F2B03D9AA210A48FEF7D2
:103A280086FFFFF71FFF78617A68B9687869FFF742
:103A38006DFF024697F90F3011461846FFF73CFF15
:103A480000BF1837BD4680BD6CB9000880B582B08C
:103A580000AF0346FB7197F90730002B03DABD214D
:103A68000548FEF764FF97F907301846FFF708FF87
:103A780000BF0837BD4680BD6CB9000880B582B06C
:103A880000AF78607868FFF773FF03461846083779
:103A9800BD4680BD80B58AB000AF7860396000232C
:103AA8007B6200233B627B68944A93421BD07B680D
:103AB800934A934217D07B68924A934213D07B680B
:103AC800914A93420FD07B68904A93420BD07B680F
:103AD8008F4A934207D07B688E4A934203D0BD2118
:103AE8008D48FEF724FF3B681B689BB2002B05D06E
:103AF8003B681B681B0C1B04002B03D0BE218648A7
:103B0800FEF715FF3B685B68002B00F035823B68C9
:103B18005B68012B00F030823B685B68112B00F07A
:103B28002B823B685B68022B00F026823B685B684F
:103B3800122B00F021823B685B68784A934200F0C0
:103B48001B823B685B68764A934200F015823B68AB
:103B58005B68744A934200F00F823B685B68724A64
:103B6800934200F009823B685B68704A934200F018
:103B780003823B685B686E4A934200F0FD813B68B4
:103B88005B68032B00F0F881BF216348FEF7CFFE86
:103B9800F2E101227B6A02FA03F3FB613B681B68CE
:103BA800FA691340BB61BA69FB699A4240F0E18146
:103BB8007B68524A93421BD07B68514A934217D084
:103BC8007B68504A934213D07B684F4A93420FD088
:103BD8007B684E4A93420BD07B684D4A934207D08C
:103BE8007B684C4A934203D0CD214B48FEF79FFE99
:103BF8003B685B684E4A934200F0C6804C4A934249
:103C080000F2EC80474A934200F0BE80454A934256
:103C180000F2E480454A934200F0B680434A93425A
:103C280000F2DC803E4A934200F0AE803C4A934268
:103C380000F2D4803C4A934200F0A6803A4A93426C
:103C480000F2CC80122B2BD8122B00F2C78001A2D5
:103C580052F823F0913D0008B13C00083D3D0008B2
:103C6800DF3D0008E53D0008E53D0008E53D0008AA
:103C7800E53D0008E53D0008E53D0008E53D000894
:103C8800E53D0008E53D0008E53D0008E53D000884
:103C9800E53D0008E53D0008D93C0008673D0008FF
:103CA8001E4A934270D099E03B68DB68022B0BD028
:103CB8003B68DB68012B07D03B68DB68032B03D02C
:103CC800D5211548FEF733FE3B68DB683B6286E08A
:103CD8003B68DB68022B0BD03B68DB68012B07D005
:103CE8003B68DB68032B03D0DC210B48FEF71FFE83
:103CF8003B68DB6804333B6271E000BF00080140A9
:103D0800000C01400010014000140140001801405F
:103D1800001C014000200140A8B900080000111053
:103D280000002110000031100000121000002210C5
:103D3800000032103B68DB68022B0BD03B68DB6865
:103D4800012B07D03B68DB68032B03D0E3219148A4
:103D5800FEF7EDFD3B68DB6808333B623FE03B68FC
:103D6800DB68022B0BD03B68DB68012B07D03B6874
:103D7800DB68032B03D0EA218648FEF7D8FD3B68B1
:103D8800DB680C333B622AE03B689B68002B0BD056
:103D98003B689B68012B07D03B689B68022B03D0CC
:103DA800F7217C48FEF7C3FD3B689B68002B02D1D6
:103DB80004233B6213E03B689B68012B05D1082371
:103DC8003B627B68FA691A6109E008233B627B68F9
:103DD800FA695A6103E000233B6200E000BFBB6957
:103DE800FF2B01D87B6801E07B6804337B61BB69EA
:103DF800FF2B02D87B6A9B0002E07B6A083B9B0092
:103E08003B617B691A680F213B6901FA03F3DB43C5
:103E18001A40396A3B6901FA03F31A437B691A604D
:103E28003B685B6803F08053002B00F0A2805A4B7C
:103E38009B69594A43F001039361574B9B6903F00F
:103E48000103BB60BB68554A7B6A9B08023352F882
:103E58002330FB607B6A03F003039B000F2202FA06
:103E680003F3DB43FA681340FB607B684C4A9342D8
:103E78001FD07B684B4A934219D07B684A4A9342C9
:103E880013D07B68494A93420DD07B68484A9342D5
:103E980007D07B68474A934201D105230AE00623ED
:103EA80008E0042306E0032304E0022302E00123E0
:103EB80000E000237A6A02F0030292009340FA6855
:103EC8001343FB6035497B6A9B080233FA6841F863
:103ED80023203B685B6803F48013002B06D0364B25
:103EE8009A683549BB6913438B6006E0324B9A6880
:103EF800BB69DB43304913408B603B685B6803F464
:103F08000013002B06D02C4BDA682B49BB691343EE
:103F1800CB6006E0284BDA68BB69DB4326491340CF
:103F2800CB603B685B6803F40033002B06D0224B60
:103F38005A682149BB6913434B6006E01E4B5A6817
:103F4800BB69DB431C4913404B603B685B6803F467
:103F58008033002B06D0184B1A681749BB691343E6
:103F68000B6006E0144B1A68BB69DB431249134027
:103F78000B607B6A01337B623B681A687B6A22FAB2
:103F880003F3002B7FF405AE00BF00BF2837BD4602
:103F980080BD00BFA8B90008001002400000014021
:103FA80000080140000C01400010014000140140CD
:103FB80000180140001C01400004014080B584B095
:103FC80000AF78600B467B807B88002B04D07B8811
:103FD8001B0C1B04002B04D04FF4DA710948FEF7C0
:103FE800A6FC7B689A687B881340002B02D00123CB
:103FF800FB7301E00023FB73FB7B18461037BD46BB
:1040080080BD00BFA8B9000880B582B000AF786055
:104018000B467B8013467B707B88002B04D07B8803
:104028001B0C1B04002B04D04FF4EA710E48FEF75A
:104038007EFC7B78002B07D07B78012B04D040F2E4
:10404800D5110948FEF773FC7B78002B03D07A88DA
:104058007B681A6103E07B881A047B681A6100BFD9
:104068000837BD4680BD00BFA8B9000880B586B036
:1040780000AF78607B68002B01D101235AE37B688D
:104088001B68002B1CD07B681B6803F00103002B06
:1040980016D17B681B6803F00203002B10D17B68E4
:1040A8001B6803F00803002B0AD17B681B6803F028
:1040B8000403002B04D140F265118F48FEF737FC4A
:1040C8007B681B6803F00103002B00F09A807B6873
:1040D8005B68002B0ED07B685B68B3F5803F09D026
:1040E8007B685B68B3F5A02F04D040F26B1182485F
:1040F800FEF71DFC814B5B6803F00C03042B0CD00E
:104108007E4B5B6803F00C03082B12D17B4B5B687A
:1041180003F48033B3F5803F0BD1784B1B6803F46D
:104128000033002B6CD07B685B68002B68D10123BF
:1041380000E37B685B68B3F5803F06D16F4B1B6873
:104148006E4A43F4803313602EE07B685B68002B73
:104158000CD16A4B1B68694A23F480331360674BA0
:104168001B68664A23F4802313601DE07B685B6844
:10417800B3F5A02F0CD1614B1B68604A43F4802330
:1041880013605E4B1B685D4A43F4803313600BE099
:104198005A4B1B68594A23F480331360574B1B68EA
:1041A800564A23F4802313607B685B68002B13D086
:1041B800FFF706FB386108E0FFF702FB02463B69A0
:1041C800D31A642B01D90323B4E24C4B1B6803F4C4
:1041D8000033002BF0D014E0FFF7F2FA386108E062
:1041E800FFF7EEFA02463B69D31A642B01D9032381
:1041F800A0E2424B1B6803F40033002BF0D100E02F
:1042080000BF7B681B6803F00203002B00F080806E
:104218007B681B69002B08D07B681B69012B04D0C5
:1042280040F29F113448FEF782FB7B685B691F2BC5
:1042380004D94FF4D0713048FEF779FB2F4B5B68F7
:1042480003F00C03002B0BD02C4B5B6803F00C0322
:10425800082B1CD1294B5B6803F48033002B16D143
:10426800264B1B6803F00203002B05D07B681B69F3
:10427800012B01D001235DE2204B1B6823F0F802DB
:104288007B685B69DB001D4913430B6040E07B687A
:104298001B69002B20D01A4B01221A60FFF790FAF5
:1042A800386108E0FFF78CFA02463B69D31A022B03
:1042B80001D903233EE2114B1B6803F00203002BD4
:1042C800F0D00E4B1B6823F0F8027B685B69DB00BB
:1042D8000A4913430B601BE0094B00221A60FFF7E1
:1042E8006FFA38610EE0FFF76BFA02463B69D31AA2
:1042F800022B07D903231DE2E4B90008001002408D
:10430800000042427D4B1B6803F00203002BEAD1F8
:104318007B681B6803F00803002B40D07B689B690F
:10432800002B08D07B689B69012B04D04FF4F071F7
:104338007348FEF7FCFA7B689B69002B19D0714B18
:1043480001221A60FFF73CFA386108E0FFF738FAF3
:1043580002463B69D31A022B01D90323EAE1674BD2
:104368005B6A03F00203002BF0D0012000F002FC8E
:1043780015E0644B00221A60FFF722FA386108E062
:10438800FFF71EFA02463B69D31A022B01D9032311
:10439800D0E15A4B5B6A03F00203002BF0D17B6833
:1043A8001B6803F00403002B00F0BF800023FB759B
:1043B8007B68DB68002B0CD07B68DB68012B08D09E
:1043C8007B68DB68052B04D040F20F214C48FEF7D0
:1043D800AEFA4A4BDB6903F08053002B0DD1474BF3
:1043E800DB69464A43F08053D361444BDB6903F0F1
:1043F8008053BB60BB680123FB75434B1B6803F408
:104408008073002B18D1404B1B683F4A43F48073DC
:104418001360FFF7D5F9386108E0FFF7D1F90246D4
:104428003B69D31A642B01D9032383E1364B1B68FC
:1044380003F48073002BF0D07B68DB68012B06D176
:104448002E4B1B6A2D4A43F0010313622DE07B6853
:10445800DB68002B0CD1294B1B6A284A23F0010387
:104468001362264B1B6A254A23F0040313621CE0DF
:104478007B68DB68052B0CD1204B1B6A1F4A43F075
:10448800040313621D4B1B6A1C4A43F001031362A9
:104498000BE01A4B1B6A194A23F001031362174BEE
:1044A8001B6A164A23F0040313627B68DB68002B3F
:1044B80015D0FFF785F938610AE0FFF781F9024660
:1044C8003B69D31A41F28832934201D9032331E17F
:1044D8000A4B1B6A03F00203002BEED01CE0FFF727
:1044E8006FF9386112E0FFF76BF902463B69D31A9E
:1044F80041F28832934209D903231BE1001002409C
:10450800E4B9000880044242007000408B4B1B6AEB
:1045180003F00203002BE6D1FB7D012B05D1874B6D
:10452800DB69864A23F08053D3617B68DB69002B03
:104538000CD07B68DB69012B08D07B68DB69022B18
:1045480004D040F2AD217E48FEF7F1F97B68DB69C3
:10455800002B00F0EE80794B5B6803F00C03082B0E
:1045680000F0CE807B68DB69022B40F0B2807B686C
:104578001B6A002B09D07B681B6AB3F5803F04D007
:1045880040F2B6216E48FEF7D2F97B685B6A002BD1
:104598004AD07B685B6AB3F5802F45D07B685B6A3D
:1045A800B3F5002F40D07B685B6AB3F5402F3BD052
:1045B8007B685B6AB3F5801F36D07B685B6AB3F5AE
:1045C800A01F31D07B685B6AB3F5C01F2CD07B6815
:1045D8005B6AB3F5E01F27D07B685B6AB3F5001F01
:1045E80022D07B685B6AB3F5101F1DD07B685B6ABD
:1045F800B3F5201F18D07B685B6AB3F5301F13D062
:104608007B685B6AB3F5401F0ED07B685B6AB3F5C5
:10461800501F09D07B685B6AB3F5601F04D040F275
:10462800B7214748FEF783F9464B00221A60FFF787
:10463800C7F8386108E0FFF7C3F802463B69D31AA8
:10464800022B01D9032375E03C4B1B6803F0007370
:10465800002BF0D17B681B6AB3F5803F16D17B68CD
:104668009B68002B09D07B689B68B3F5003F04D09A
:1046780040F2CD213248FEF75AF9304B5B6823F4FB
:1046880000327B689B682D4913434B602B4B5B685A
:1046980023F474127B68196A7B685B6A0B432749A9
:1046A80013434B60274B01221A60FFF789F83861E2
:1046B80008E0FFF785F802463B69D31A022B01D9B7
:1046C800032337E01D4B1B6803F00073002BF0D069
:1046D8002FE01C4B00221A60FFF772F8386108E0DF
:1046E800FFF76EF802463B69D31A022B01D9032360
:1046F80020E0124B1B6803F00073002BF0D118E088
:104708007B68DB69012B01D1012313E00B4B5B684C
:10471800FB60FB6803F480327B681B6A9A4206D10F
:10472800FB6803F470127B685B6A9A4201D001232C
:1047380000E0002318461837BD4680BD001002402F
:10474800E4B900086000424280B584B000AF7860E8
:1047580039607B68002B01D1012376E17B681B68F7
:1047680003F00103002B16D17B681B6803F00203DA
:10477800002B10D17B681B6803F00403002B0AD1BF
:104788007B681B6803F00803002B04D140F2363124
:104798007448FEF7CCF83B68002B0AD03B68012B25
:1047A80007D03B68022B04D040F237316D48FEF742
:1047B800BEF86D4B1B6803F007033A689A4210D99C
:1047C800694B1B6823F0070267493B6813430B607A
:1047D800654B1B6803F007033A689A4201D001232E
:1047E80033E17B681B6803F00203002B49D07B6828
:1047F8001B6803F00403002B05D05C4B5B685B4A25
:1048080043F4E06353607B681B6803F00803002BE4
:1048180005D0564B5B68554A43F4605353607B6838
:104828009B68002B24D07B689B68802B20D07B68FA
:104838009B68902B1CD07B689B68A02B18D07B684A
:104848009B68B02B14D07B689B68C02B10D07B680A
:104858009B68D02B0CD07B689B68E02B08D07B68CA
:104868009B68F02B04D040F25D313E48FEF75FF8BC
:104878003E4B5B6823F0F0027B689B683B4913431F
:104888004B607B681B6803F00103002B51D07B68E9
:104898005B68002B0CD07B685B68012B08D07B68B9
:1048A8005B68022B04D04FF459712E48FEF73FF88D
:1048B8007B685B68012B07D12C4B1B6803F4003322
:1048C800002B15D10123C0E07B685B68022B07D160
:1048D800264B1B6803F00073002B09D10123B4E0B9
:1048E800224B1B6803F00203002B01D10123ACE02B
:1048F8001E4B5B6823F003027B685B681B4913430C
:104908004B60FEF75DFFF8600AE0FEF759FF0246CC
:10491800FB68D31A41F28832934201D9032394E009
:10492800124B5B6803F00C027B685B689B009A4241
:10493800EBD10D4B1B6803F007033A689A4217D274
:10494800094B1B6823F0070207493B6813430B60B8
:10495800054B1B6803F007033A689A4208D0012305
:1049680073E000BFE4B900080020024000100240D4
:104978007B681B6803F00403002B25D07B68DB6889
:10498800002B18D07B68DB68B3F5806F13D07B6889
:10499800DB68B3F5A06F0ED07B68DB68B3F5C06F3A
:1049A80009D07B68DB68B3F5E06F04D040F2A23130
:1049B8002848FDF7BCFF284B5B6823F4E0627B685E
:1049C800DB68254913434B607B681B6803F00803C9
:1049D800002B26D07B681B69002B18D07B681B69CD
:1049E800B3F5806F13D07B681B69B3F5A06F0ED049
:1049F8007B681B69B3F5C06F09D07B681B69B3F589
:104A0800E06F04D040F2A9311248FDF790FF124B35
:104A18005B6823F460527B681B69DB000E49134313
:104A28004B6000F021F802460B4B5B681B0903F052
:104A38000F030A49CB5C22FA03F3094A1360094BB6
:104A48001B681846FEF77AFE002318461037BD4645
:104A580080BD00BFE4B9000800100240CCBA0008CD
:104A68002C0000203000002080B487B000AF002365
:104A7800FB600023BB6000237B6100237B60002375
:104A88003B611E4B5B68FB60FB6803F00C03042B67
:104A980002D0082B03D027E0194B3B6127E0FB68C5
:104AA8009B0C03F00F03174AD35C7B60FB6803F48D
:104AB8008033002B10D0114B5B685B0C03F00103B3
:104AC800114AD35CBB607B680D4A03FB02F2BB68EA
:104AD800B2FBF3F37B6104E07B680C4A02FB03F34F
:104AE8007B617B693B6102E0054B3B6100BF3B6931
:104AF80018461C37BD4680BC704700BF00100240F6
:104B080000127A00E4BA0008F4BA000800093D006F
:104B180080B400AF024B1B681846BD4680BC704786
:104B28002C00002080B500AFFFF7F2FF0246054BCE
:104B38005B681B0A03F007030349CB5C22FA03F303
:104B4800184680BD00100240DCBA000880B500AFEE
:104B5800FFF7DEFF0246054B5B68DB0A03F007033D
:104B68000349CB5C22FA03F3184680BD00100240CB
:104B7800DCBA000880B485B000AF78600A4B1B68C7
:104B88000A4AA2FB03235B0A7A6802FB03F3FB6071
:104B980000BFFB685A1EFA60002BF9D100BF00BFA6
:104BA8001437BD4680BC70472C000020D34D6210DE
:104BB80080B582B000AF78607B68002B01D10123FB
:104BC800B5E07B681B685C4A934227D07B681B680A
:104BD8005A4A934222D07B681B68B3F1804F1DD09C
:104BE8007B681B68564A934218D07B681B68554AF5
:104BF800934213D07B681B68534A93420ED07B685C
:104C08001B68524A934209D07B681B68504A9342FA
:104C180004D040F213114F48FDF789FE7B689B686A
:104C2800002B14D07B689B68102B10D07B689B6886
:104C3800202B0CD07B689B68402B08D07B689B6836
:104C4800602B04D04FF48A714248FDF770FE7B68F0
:104C58001B69002B0ED07B681B69B3F5807F09D0D8
:104C68007B681B69B3F5007F04D040F21511394801
:104C7800FDF75DFE7B68DB68002B04D07B68DB6892
:104C8800B3F5803F04D34FF48B713248FDF74FFEE4
:104C98007B689B69002B08D07B689B69802B04D0BC
:104CA80040F217112B48FDF742FE7B6893F83D3020
:104CB800DBB2002B06D17B68002283F83C207868A1
:104CC800FEF7A4FA7B68022283F83D207B681A6805
:104CD8007B6804331946104601F0F0F97B6801221D
:104CE80083F846207B68012283F83E207B680122F6
:104CF80083F83F207B68012283F840207B680122EB
:104D080083F841207B68012283F842207B680122D6
:104D180083F843207B68012283F844207B680122C2
:104D280083F845207B68012283F83D20002318463C
:104D38000837BD4680BD00BF002C0140003401404B
:104D48000004004000080040000C00400010004033
:104D5800001400401CBA000880B584B000AF786029
:104D68007B681B683D4A934227D07B681B683C4A96
:104D7800934222D07B681B68B3F1804F1DD07B68BB
:104D88001B68384A934218D07B681B68364A93429E
:104D980013D07B681B68354A93420ED07B681B682A
:104DA800334A934209D07B681B68324A934204D045
:104DB8004FF4E8713048FDF7BAFD7B6893F83D3051
:104DC800DBB2012B01D0012344E07B68022283F887
:104DD8003D207B681B68DA687B681B6842F001022B
:104DE800DA607B681B681D4A934218D07B681B6891
:104DF8001B4A934213D07B681B68B3F1804F0ED0D7
:104E08007B681B68174A934209D07B681B68164A5F
:104E1800934204D07B681B68144A934211D17B6883
:104E28001B689B6803F00703FB60FB68062B10D028
:104E38007B681B681A687B681B6842F001021A606D
:104E480007E07B681B681A687B681B6842F00102F0
:104E58001A60002318461037BD4680BD002C01405B
:104E6800003401400004004000080040000C0040ED
:104E780000100040001400401CBA000880B582B041
:104E880000AF78607B68002B01D10123B5E07B6817
:104E98001B685C4A934227D07B681B685A4A934236
:104EA80022D07B681B68B3F1804F1DD07B681B68DC
:104EB800564A934218D07B681B68554A934213D0D0
:104EC8007B681B68534A93420ED07B681B68524A22
:104ED800934209D07B681B68504A934204D040F241
:104EE8002C514F48FDF723FD7B689B68002B14D09D
:104EF8007B689B68102B10D07B689B68202B0CD09C
:104F08007B689B68402B08D07B689B68602B04D02B
:104F180040F22D514248FDF70AFD7B681B69002BC2
:104F28000ED07B681B69B3F5807F09D07B681B694D
:104F3800B3F5007F04D040F22E513948FDF7F7FC55
:104F48007B68DB68002B04D07B68DB68B3F5803FA7
:104F580004D340F22F513248FDF7E9FC7B689B6986
:104F6800002B08D07B689B69802B04D04FF4A66186
:104F78002B48FDF7DCFC7B6893F83D30DBB2002B57
:104F880006D17B68002283F83C20786800F04AF854
:104F98007B68022283F83D207B681A687B680433AB
:104FA8001946104601F08AF87B68012283F84620EA
:104FB8007B68012283F83E207B68012283F83F202A
:104FC8007B68012283F840207B68012283F8412016
:104FD8007B68012283F842207B68012283F8432002
:104FE8007B68012283F844207B68012283F84520EE
:104FF8007B68012283F83D20002318460837BD4608
:1050080080BD00BF002C0140003401400004004076
:1050180000080040000C0040001000400014004050
:105028001CBA000880B483B000AF786000BF0C37AA
:10503800BD4680BC7047000080B584B000AF786082
:1050480039607B681B688A4A93420BD13B68002B06
:1050580062D03B68042B5FD03B68082B5CD03B6870
:105068000C2B59D07B681B68824A93420BD13B6852
:10507800002B51D03B68042B4ED03B68082B4BD0FB
:105088003B680C2B48D07B681B68B3F1804F0BD171
:105098003B68002B40D03B68042B3DD03B68082B75
:1050A8003AD03B680C2B37D07B681B68724A934216
:1050B8000BD13B68002B2FD03B68042B2CD03B68CE
:1050C800082B29D03B680C2B26D07B681B686B4AC1
:1050D80093420BD13B68002B1ED03B68042B1BD09E
:1050E8003B68082B18D03B680C2B15D07B681B68D5
:1050F800634A93420BD13B68002B0DD03B68042BCD
:105108000AD03B68082B07D03B680C2B04D040F230
:10511800B3515C48FDF70BFC3B68002B09D17B6859
:1051280093F83E30DBB2012B14BF01230023DBB21E
:1051380022E03B68042B09D17B6893F83F30DBB24F
:10514800012B14BF01230023DBB215E03B68082BB9
:1051580009D17B6893F84030DBB2012B14BF0123DF
:105168000023DBB208E07B6893F84130DBB2012B07
:1051780014BF01230023DBB2002B01D0012372E00E
:105188003B68002B04D17B68022283F83E2013E0A1
:105198003B68042B04D17B68022283F83F200BE094
:1051A8003B68082B04D17B68022283F8402003E087
:1051B8007B68022283F841207B681B6801223968DA
:1051C800184601F0C5FA7B681B68294A934204D047
:1051D8007B681B68274A934201D1012300E0002322
:1051E800002B07D07B681B685A6C7B681B6842F4ED
:1051F80000425A647B681B681D4A934218D07B683A
:105208001B681C4A934213D07B681B68B3F1804F1C
:105218000ED07B681B68184A934209D07B681B68CC
:10522800164A934204D07B681B68154A934211D1F1
:105238007B681B689B6803F00703FB60FB68062B11
:1052480010D07B681B681A687B681B6842F00102F3
:105258001A6007E07B681B681A687B681B6842F065
:1052680001021A60002318461037BD4680BD00BFF2
:10527800002C0140003401400004004000080040B8
:10528800000C00401CBA000880B586B000AF7860FA
:1052980039607B68002B01D1012394E17B681B688E
:1052A8007F4A93421DD07B681B687E4A934218D080
:1052B8007B681B68B3F1804F13D07B681B687A4A00
:1052C80093420ED07B681B68784A934209D07B686A
:1052D8001B68774A934204D040F6D8317548FDF7E9
:1052E80026FB7B689B68002B14D07B689B68102B7F
:1052F80010D07B689B68202B0CD07B689B68402B68
:1053080008D07B689B68602B04D040F6D931694887
:10531800FDF70DFB7B681B69002B0ED07B681B69B2
:10532800B3F5807F09D07B681B69B3F5007F04D093
:1053380040F6DA315F48FDF7FAFA7B689B69002B83
:1053480008D07B689B69802B04D040F6DB31594834
:10535800FDF7EDFA3B681B68012B0CD03B681B6816
:10536800022B08D03B681B68032B04D040F6DC31C5
:105378005048FDF7DCFA3B689B68012B0CD03B6872
:105388009B68022B08D03B689B68032B04D040F62F
:10539800DD314848FDF7CBFA3B689B69012B0CD0FF
:1053A8003B689B69022B08D03B689B69032B04D0A0
:1053B80040F6DE313F48FDF7BAFA3B685B68002BE0
:1053C80008D03B685B68022B04D040F6DF313948CF
:1053D800FDF7ADFA3B685B69002B08D03B685B6959
:1053E800022B04D04FF43E613248FDF7A0FA3B6827
:1053F800DB68002B10D03B68DB68042B0CD03B68C3
:10540800DB68082B08D03B68DB680C2B04D040F61F
:10541800E1312848FDF78BFA3B68DB69002B10D097
:105428003B68DB69042B0CD03B68DB69082B08D090
:105438003B68DB690C2B04D040F6E2311D48FDF7D0
:1054480076FA3B681B690F2B04D940F6E3311948FB
:10545800FDF76DFA3B681B6A0F2B04D940F6E4315F
:105468001448FDF764FA7B68DB68002B04D07B687E
:10547800DB68B3F5803F04D340F6E5310D48FDF70E
:1054880056FA7B6893F83D30DBB2002B14D17B6869
:10549800002283F83C207868FDF722FF0CE000BF6B
:1054A800002C014000340140000400400008004086
:1054B800000C00401CBA00087B68022283F83D20DB
:1054C8007B681B689B687A68126823F4804323F022
:1054D800070393607B681A687B6804331946104693
:1054E80000F0ECFD7B681B689B687B617B681B6830
:1054F8009B693B617B681B681B6AFB603B681B6898
:105508007A6913437B613B6923F4407323F00303F7
:105518003B613B689A683B689B691B0213433A6985
:1055280013433B613B6923F4406323F00C033B6165
:105538003B6923F4704323F0F0033B613B68DA686E
:105548003B68DB691B0213433A6913433B613B68C1
:105558001B691A013B681B6A1B0313433A6913430F
:105568003B61FB6823F02203FB603B685A683B6899
:105578005B691B011343FA681343FB607B681B6874
:105588007A699A607B681B683A699A617B681B68CC
:10559800FA681A627B68012283F846207B68012238
:1055A80083F83E207B68012283F83F207B68012234
:1055B80083F842207B68012283F843207B6801221C
:1055C80083F83D20002318461837BD4680BD00BF2C
:1055D80080B584B000AF786039607B6893F83E305E
:1055E800FB737B6893F83F30BB737B6893F842305A
:1055F8007B737B6893F843303B737B681B684D4A29
:1056080093421DD07B681B684B4A934218D07B6835
:105618001B68B3F1804F13D07B681B68474A9342DD
:105628000ED07B681B68464A934209D07B681B688A
:10563800444A934204D040F695414348FDF777F930
:105648003B68002B10D1FB7B012B02D17B7B012B0C
:1056580001D0012369E07B68022283F83E207B6841
:10566800022283F8422031E03B68042B10D1BB7B37
:10567800012B02D13B7B012B01D0012355E07B6834
:10568800022283F83F207B68022283F843201DE032
:10569800FB7B012B08D1BB7B012B05D17B7B012B2D
:1056A80002D13B7B012B01D001233EE07B68022223
:1056B80083F83E207B68022283F83F207B68022221
:1056C80083F842207B68022283F843203B68002B42
:1056D80003D03B68042B08D00FE07B681B680122CD
:1056E8000021184601F034F816E07B681B68012297
:1056F8000421184601F02CF80EE07B681B68012293
:105708000021184601F024F87B681B680122042157
:10571800184601F01DF800BF7B681B681A687B6893
:105728001B6842F001021A60002318461037BD4674
:1057380080BD00BF002C014000340140000400403F
:1057480000080040000C00401CBA000880B586B074
:1057580000AFF860B9607A600023FB757B68002BA6
:1057680010D07B68042B0DD07B68082B0AD07B688F
:105778000C2B07D07B683C2B04D041F27E0190486B
:10578800FDF7D5F8BB681B68602B08D0BB681B68A1
:10579800702B04D041F27F018948FDF7C8F8BB6837
:1057A8009B68002B08D0BB689B68022B04D04FF481
:1057B80084518348FDF7BBF8BB681B69002B08D0F0
:1057C800BB681B69042B04D041F281017C48FDF7BA
:1057D800AEF8FB6893F83C30012B01D1022347E176
:1057E800FB68012283F83C207B680C2B00F238818F
:1057F80001A252F823F000BF35580008695A000882
:10580800695A0008695A0008BB580008695A000814
:10581800695A0008695A000843590008695A00087B
:10582800695A0008695A0008E1590008FB681B68B2
:10583800644A93421DD0FB681B68634A934218D0A0
:10584800FB681B68B3F1804F13D0FB681B685F4A85
:1058580093420ED0FB681B685D4A934209D0FB68EF
:105868001B685C4A934204D041F28B015448FDF70F
:105878005EF8FB681B68B968184600F099FCFB687D
:105888001B689A69FB681B6842F008029A61FB680A
:105898001B689A69FB681B6822F004029A61FB681E
:1058A8001B689969BB681A69FB681B680A439A6197
:1058B800D9E0FB681B68434A93421DD0FB681B680C
:1058C800414A934218D0FB681B68B3F1804F13D04C
:1058D800FB681B683D4A93420ED0FB681B683C4A34
:1058E800934209D0FB681B683A4A934204D041F2BC
:1058F8009C013348FDF71BF8FB681B68B96818461C
:1059080000F0F0FCFB681B689A69FB681B6842F4AE
:1059180000629A61FB681B689A69FB681B6822F43D
:1059280080629A61FB681B689969BB681B691A02E7
:10593800FB681B680A439A6195E0FB681B68214A6B
:1059480093421DD0FB681B681F4A934218D0FB681E
:105958001B68B3F1804F13D0FB681B681B4A934246
:105968000ED0FB681B681A4A934209D0FB681B6873
:10597800184A934204D041F2AD011148FCF7D7FF11
:10598800FB681B68B968184600F04AFDFB681B688D
:10599800DA69FB681B6842F00802DA61FB681B6879
:1059A800DA69FB681B6822F00402DA61FB681B688D
:1059B800D969BB681A69FB681B680A43DA6152E057
:1059C8001CBA0008002C01400034014000040040CB
:1059D80000080040000C0040FB681B68264A934200
:1059E8001DD0FB681B68254A934218D0FB681B68CA
:1059F800B3F1804F13D0FB681B68214A93420ED045
:105A0800FB681B681F4A934209D0FB681B681E4A43
:105A1800934204D041F2BE011C48FCF788FFFB68A2
:105A28001B68B968184600F099FDFB681B68DA69BD
:105A3800FB681B6842F40062DA61FB681B68DA697C
:105A4800FB681B6822F48062DA61FB681B68D9690D
:105A5800BB681B691A02FB681B680A43DA6102E02B
:105A68000123FB7500BFFB68002283F83C20FB7D07
:105A780018461837BD4680BD002C0140003401404F
:105A88000004004000080040000C00401CBA000858
:105A980080B584B000AF786039600023FB737B6801
:105AA80093F83C30012B01D10223F6E27B680122F6
:105AB80083F83C207B68022283F83D203B681B6802
:105AC800B3F5805F29D03B681B68702B25D03B68F5
