:020000040800F2
:10000000000001209D3700086D28000873280008B3
:10001000792800087F2800088528000800000000D3
:100020000000000000000000000000008B28000815
:100030009728000800000000A3280008AF28000847
:10004000E5370008E5370008E5370008E537000820
:10005000E5370008E5370008E5370008E537000810
:10006000E5370008E5370008E5370008E537000800
:10007000E5370008E5370008E5370008E5370008F0
:10008000E5370008E5370008E5370008E5370008E0
:10009000E5370008E5370008E5370008E5370008D0
:1000A000E5370008E5370008E5370008E5370008C0
:1000B000E5370008E5370008E5370008E5370008B0
:1000C000E5370008E5370008E5370008E5370008A0
:1000D000E5370008E5370008E1130008E5370008B8
:1000E000E5370008E5370008E5370008E537000880
:1000F000E5370008E5370008E5370008E537000870
:10010000E5370008E5370008E5370008E53700085F
:10011000E5370008E5370008BD280008E537000886
:10012000E5370008E5370008E5370008E53700083F
:1001300000000000000000000000000000000000BF
:1001400000000000000000000000000000000000AF
:10015000000000000000000000000000000000009F
:10016000000000000000000000000000000000008F
:10017000000000000000000000000000000000007F
:10018000000000000000000000000000000000006F
:10019000000000000000000000000000000000005F
:1001A000000000000000000000000000000000004F
:1001B000000000000000000000000000000000003F
:1001C000000000000000000000000000000000002F
:1001D000000000000000000000000000000000001F
:0401E0005FF8E0F1F3
:1001E80010B5054C237833B9044B13B10448AFF369
:1001F80000800123237010BDFC01002000000000D6
:1002080054C4000808B5034B1BB103490348AFF3B6
:10021800008008BD000000000002002054C400084F
:10022800034613F8012B002AFBD1181A013870472E
:1002380081F0004102E000BF83F0004330B54FEA8F
:1002480041044FEA430594EA050F08BF90EA020FFC
:100258001FBF54EA000C55EA020C7FEA645C7FEA8F
:10026800655C00F0E2804FEA5454D4EB5555B8BFB2
:100278006D420CDD2C4480EA020281EA030382EA23
:10028800000083EA010180EA020281EA0303362DB5
:1002980088BF30BD11F0004F4FEA01314FF4801C88
:1002A8004CEA113102D0404261EB410113F0004F9A
:1002B8004FEA03334CEA133302D0524263EB430351
:1002C80094EA050F00F0A780A4F10104D5F1200EEF
:1002D8000DDB02FA0EFC22FA05F2801841F100014A
:1002E80003FA0EF2801843FA05F359410EE0A5F11E
:1002F80020050EF1200E012A03FA0EFC28BF4CF04F
:10030800020C43FA05F3C01851EBE37101F0004504
:1003180007D54FF0000EDCF1000C7EEB00006EEB11
:100328000101B1F5801F1BD3B1F5001F0CD349089B
:100338005FEA30004FEA3C0C04F101044FEA4452F2
:1003480012F5800F80F09A80BCF1004F08BF5FEA79
:10035800500C50F1000041EB045141EA050130BD59
:100368005FEA4C0C404141EB0101013C28BFB1F56B
:10037800801FE9D291F0000F04BF01460020B1FAB6
:1003880081F308BF2033A3F10B03B3F120020CDA89
:100398000C3208DD02F1140CC2F10C0201FA0CF067
:1003A80021FA02F10CE002F11402D8BFC2F1200CCC
:1003B80001FA02F120FA0CFCDCBF41EA0C01904082
:1003C800E41AA2BF01EB0451294330BD6FEA0404CB
:1003D8001F3C1CDA0C340EDC04F11404C4F12002B6
:1003E80020FA04F001FA02F340EA030021FA04F3C8
:1003F80045EA030130BDC4F10C04C4F1200220FA1F
:1004080002F001FA04F340EA0300294630BD21FA5C
:1004180004F0294630BD94F0000F83F4801306BF22
:1004280081F480110134013D4EE77FEA645C18BF16
:100438007FEA655C29D094EA050F08BF90EA020FAD
:1004480005D054EA000C04BF1946104630BD91EAA5
:10045800030F1EBF0021002030BD5FEA545C05D1A8
:100468004000494128BF41F0004130BD14F58004E7
:100478003CBF01F5801130BD01F0004545F0FE415B
:1004880041F470014FF0000030BD7FEA645C1ABF90
:10049800194610467FEA655C1CBF0B46024650EAC7
:1004A800013406BF52EA033591EA030F41F40021F3
:1004B80030BD00BF90F0000F04BF0021704730B579
:1004C8004FF4806404F132044FF000054FF000014E
:1004D80050E700BF90F0000F04BF0021704730B50F
:1004E8004FF4806404F1320410F0004548BF4042E4
:1004F8004FF000013EE700BF42004FEAE2014FEA39
:1005080031014FEA02701FBF12F07F4393F07F4F13
:1005180081F06051704732F07F4208BF704793F016
:100528007F4F04BF41F40021704730B54FF4607429
:1005380001F0004521F000411CE700BF50EA01022C
:1005480008BF704730B54FF000050AE050EA0102D5
:1005580008BF704730B511F0004502D5404261EB45
:1005680041014FF4806404F132045FEA915C3FF486
:10057800D8AE4FF003025FEADC0C18BF03325FEA23
:10058800DC0C18BF033202EBDC02C2F1200300FAD4
:1005980003FC20FA02F001FA03FE40EA0E0021FAF9
:1005A80002F11444BDE600BF70B54FF0FF0C4CF4E7
:1005B800E06C1CEA11541DBF1CEA135594EA0C0F99
:1005C80095EA0C0F00F0DEF82C4481EA030621EAD4
:1005D8004C5123EA4C5350EA013518BF52EA03350F
:1005E80041F4801143F4801338D0A0FB02CE4FF0C1
:1005F8000005E1FB02E506F00042E0FB03E54FF0F1
:100608000006E1FB03569CF0000F18BF4EF0010EE8
:10061800A4F1FF04B6F5007F64F5407404D25FEAE4
:100628004E0E6D4146EB060642EAC62141EA555197
:100638004FEAC52040EA5E504FEACE2EB4F1FD0CD9
:1006480088BFBCF5E06F1ED8BEF1004F08BF5FEA57
:10065800500E50F1000041EB045170BD06F0004609
:1006680046EA010140EA020081EA0301B4EB5C04B6
:10067800C2BFD4EB0C0541EA045170BD41F48011AE
:100688004FF0000E013C00F3AB8014F1360FDEBFD3
:10069800002001F0004170BDC4F10004203C35DAAF
:1006A8000C341BDC04F11404C4F1200500FA05F332
:1006B80020FA04F001FA05F240EA020001F00042D3
:1006C80021F0004110EBD37021FA04F642EB060149
:1006D8005EEA430E08BF20EAD37070BDC4F10C0473
:1006E800C4F1200500FA04F320FA05F001FA04F237
:1006F80040EA020001F0004110EBD37041F1000123
:100708005EEA430E08BF20EAD37070BDC4F120052D
:1007180000FA05F24EEA020E20FA04F301FA05F295
:1007280043EA020321FA04F001F0004121FA04F23D
:1007380020EA020000EBD3705EEA430E08BF20EA0D
:10074800D37070BD94F0000F0FD101F00046400047
:1007580041EB010111F4801F08BF013CF7D041EAC9
:10076800060195F0000F18BF704703F000465200CD
:1007780043EB030313F4801F08BF013DF7D043EA9E
:100788000603704794EA0C0F0CEA135518BF95EA54
:100798000C0F0CD050EA410618BF52EA4306D1D1DB
:1007A80081EA030101F000414FF0000070BD50EAFA
:1007B800410606BF1046194652EA430619D094EA84
:1007C8000C0F02D150EA013613D195EA0C0F05D16E
:1007D80052EA03361CBF104619460AD181EA0301C2
:1007E80001F0004141F0FE4141F470014FF000007A
:1007F80070BD41F0FE4141F4780170BD70B54FF015
:10080800FF0C4CF4E06C1CEA11541DBF1CEA135594
:1008180094EA0C0F95EA0C0F00F0A7F8A4EB050476
:1008280081EA030E52EA03354FEA013100F088806D
:100838004FEA03334FF0805545EA131343EA126336
:100848004FEA022245EA111545EA10654FEA0026EB
:100858000EF000419D4208BF964244F1FD0404F5A4
:10086800407402D25B084FEA3202B61A65EB030500
:100878005B084FEA32024FF480104FF4002CB6EBBD
:10088800020E75EB030E22BFB61A754640EA0C003D
:100898005B084FEA3202B6EB020E75EB030E22BF7D
:1008A800B61A754640EA5C005B084FEA3202B6EBBE
:1008B800020E75EB030E22BFB61A754640EA9C007D
:1008C8005B084FEA3202B6EB020E75EB030E22BF4D
:1008D800B61A754640EADC0055EA060E18D04FEA0B
:1008E800051545EA16754FEA06164FEAC30343EAAB
:1008F80052734FEAC2025FEA1C1CC0D111F4801F78
:100908000BD141EA00014FF000004FF0004CB6E770
:1009180011F4801F04BF01430020B4F1FD0C88BF0F
:10092800BCF5E06F3FF6AFAEB5EB030C04BFB6EB1A
:10093800020C5FEA500C50F1000041EB045170BD0D
:100948000EF0004E4EEA113114EB5C04C2BFD4EB3A
:100958000C0541EA045170BD41F480114FF0000EBE
:10096800013C90E645EA060E8DE60CEA135594EA3A
:100978000C0F08BF95EA0C0F3FF43BAF94EA0C0F3D
:100988000AD150EA01347FF434AF95EA0C0F7FF4B2
:1009980025AF104619462CE795EA0C0F06D152EA06
:1009A80003353FF4FDAE1046194622E750EA4106EA
:1009B80018BF52EA43067FF4C5AE50EA41047FF4FB
:1009C8000DAF52EA43057FF4EBAE12E74FF0FF3C60
:1009D80006E000BF4FF0010C02E000BF4FF0010C31
:1009E8004DF804CD4FEA410C7FEA6C5C4FEA430CAA
:1009F80018BF7FEA6C5C1BD001B050EA410C0CBFF9
:100A080052EA430C91EA030F02BF90EA020F00205A
:100A1800704710F1000F91EA030F58BF994208BFC1
:100A280090422CBFD8176FEAE37040F0010070477E
:100A38004FEA410C7FEA6C5C02D150EA013C07D1D5
:100A48004FEA430C7FEA6C5CD6D152EA033CD3D020
:100A58005DF8040B704700BF8446104662468C461A
:100A68001946634600E000BF01B5FFF7B7FF00284D
:100A780048BF10F1000F01BD4DF808EDFFF7F4FF76
:100A88000CBF012000205DF808FB00BF4DF808ED01
:100A9800FFF7EAFF34BF012000205DF808FB00BF24
:100AA8004DF808EDFFF7E0FF94BF012000205DF846
:100AB80008FB00BF4DF808EDFFF7CEFF94BF0120FB
:100AC80000205DF808FB00BF4DF808EDFFF7C4FFF4
:100AD80034BF012000205DF808FB00BF4FEA410C3D
:100AE8007FEA6C5C02D150EA013C0AD14FEA430C20
:100AF8007FEA6C5C02D152EA033C02D14FF000005D
:100B080070474FF0010070474FEA410212F500129A
:100B180015D211D56FF47873B3EB625212D94FEA3C
:100B2800C12343F0004343EA505311F0004F23FA26
:100B380002F018BF404270474FF00000704750EA7B
:100B4800013005D111F0004008BF6FF00040704738
:100B58004FF00000704700BF4A0011D212F5001292
:100B680011D20DD56FF47873B3EB62520ED44FEAFD
:100B7800C12343F0004343EA505323FA02F070477D
:100B88004FF00000704750EA013002D14FF0FF30BB
:100B980070474FF0000070474FEA4102B2F1E0435E
:100BA80024BFB3F5001CDCF1FE5C0DD901F0004C4C
:100BB8004FEAC0024CEA5070B2F1004F40EB83009C
:100BC80008BF20F00100704711F0804F21D113F1C8
:100BD8003872BCBF01F00040704741F480114FEA01
:100BE8005252C2F11802C2F1200C10FA0CF320FA8A
:100BF80002F018BF40F001004FEAC1234FEAD323A7
:100C080003FA0CFC40EA0C0023FA02F34FEA430310
:100C1800CCE77FEA625307D150EA01331EBF4FF099
:100C2800FE4040F44000704701F0004040F0FE40B4
:100C380040F40000704700BF80F0004002E000BFB1
:100C480081F0004142001FBF5FEA410392EA030FAF
:100C58007FEA226C7FEA236C6AD04FEA1262D2EBF9
:100C68001363C1BFD218414048404140B8BF5B42FE
:100C7800192B88BF704710F0004F40F4000020F097
:100C88007F4018BF404211F0004F41F4000121F0AD
:100C98007F4118BF494292EA030F3FD0A2F10102F7
:100CA80041FA03FC10EB0C00C3F1200301FA03F135
:100CB80000F0004302D5494260EB4000B0F5000F58
:100CC80013D3B0F1807F06D340084FEA310102F117
:100CD8000102FE2A51D2B1F1004F40EBC25008BFC9
:100CE80020F0010040EA03007047490040EB000093
:100CF800013A28BFB0F5000FEDD2B0FA80FCACF194
:100D0800080CB2EB0C0200FA0CF0AABF00EBC250C0
:100D180052421843BCBFD0401843704792F0000FAE
:100D280081F4000106BF80F400000132013BB5E701
:100D38004FEA41037FEA226C18BF7FEA236C21D077
:100D480092EA030F04D092F0000F08BF08467047DC
:100D580090EA010F1CBF0020704712F07F4F04D1AA
:100D6800400028BF40F00040704712F100723CBFBD
:100D780000F50000704700F0004343F0FE4040F4E7
:100D8800000070477FEA226216BF08467FEA2363A5
:100D98000146420206BF5FEA412390EA010F40F490
:100DA800800070474FF0000304E000BF10F00043DC
:100DB80048BF40425FEA000C08BF704743F09643C3
:100DC80001464FF000001CE050EA010208BF7047DE
:100DD8004FF000030AE000BF50EA010208BF704765
:100DE80011F0004302D5404261EB41015FEA010C7A
:100DF80002BF84460146002043F0B64308BFA3F172
:100E08008053A3F50003BCFA8CF2083AA3EBC25353
:100E180010DB01FA02FC634400FA02FCC2F1200272
:100E2800BCF1004F20FA02F243EB020008BF20F0A9
:100E38000100704702F1200201FA02FCC2F120020F
:100E480050EA4C0021FA02F243EB020008BF20EA04
:100E5800DC7070474FF0FF0C1CEAD0521EBF1CEA32
:100E6800D15392EA0C0F93EA0C0F6FD01A4480EA20
:100E7800010C400218BF5FEA41211ED04FF0006309
:100E880043EA501043EA5111A0FB01310CF0004035
:100E9800B1F5000F3EBF490041EAD3715B0040EA5B
:100EA800010062F17F02FD2A1DD8B3F1004F40EB2B
:100EB800C25008BF20F00100704790F0000F0CF0FE
:100EC800004C08BF49024CEA502040EA51207F3AC2
:100ED800C2BFD2F1FF0340EAC250704740F400009D
:100EE8004FF00003013A5DDC12F1190FDCBF00F08E
:100EF80000407047C2F10002410021FA02F1C2F13C
:100F0800200200FA02FC5FEA310040F1000053EAD7
:100F18004C0308BF20EADC70704792F0000F00F025
:100F2800004C02BF400010F4000F013AF9D040EA2B
:100F38000C0093F0000F01F0004C02BF490011F4BF
:100F4800000F013BF9D041EA0C018FE70CEAD153BD
:100F580092EA0C0F18BF93EA0C0F0AD030F0004C3D
:100F680018BF31F0004CD8D180EA010000F00040F1
:100F7800704790F0000F17BF90F0004F084691F0AF
:100F8800000F91F0004F14D092EA0C0F01D14202E9
:100F98000FD193EA0C0F03D14B0218BF084608D1B2
:100FA80080EA010000F0004040F0FE4040F40000FC
:100FB800704740F0FE4040F4400070474FF0FF0C8F
:100FC8001CEAD0521EBF1CEAD15392EA0C0F93EAD6
:100FD8000C0F69D0A2EB030280EA010C49024FEA28
:100FE800402037D04FF0805343EA111143EA1013E1
:100FF8000CF000408B4238BF5B0042F17D024FF499
:10100800000C8B4224BF5B1A40EA0C00B3EB510F73
:1010180024BFA3EB510340EA5C00B3EB910F24BF5C
:10102800A3EB910340EA9C00B3EBD10F24BFA3EBE1
:10103800D10340EADC001B0118BF5FEA1C1CE0D1A9
:10104800FD2A3FF650AF8B4240EBC25008BF20F05C
:10105800010070470CF0004C4CEA50207F32C2BFB0
:10106800D2F1FF0340EAC250704740F400004FF04D
:101078000003013A37E792F0000F00F0004C02BF7E
:10108800400010F4000F013AF9D040EA0C0093F048
:10109800000F01F0004C02BF490011F4000F013BA2
:1010A800F9D041EA0C0195E70CEAD15392EA0C0F0A
:1010B80008D142027FF47DAF93EA0C0F7FF470AF42
:1010C800084676E793EA0C0F04D14B023FF44CAF85
:1010D80008466EE730F0004C18BF31F0004CCAD11A
:1010E80030F000427FF45CAF31F000437FF43CAF56
:1010F8005FE700BF4FF0FF3C06E000BF4FF0010C78
:1011080002E000BF4FF0010C4DF804CD4FEA400259
:101118004FEA41037FEA226C18BF7FEA236C11D0A3
:1011280001B052EA530C18BF90EA010F58BFB2EB56
:10113800030088BFC81738BF6FEAE17018BF40F0D6
:10114800010070477FEA226C02D15FEA402C05D18A
:101158007FEA236CE4D15FEA412CE1D05DF8040B0F
:10116800704700BF844608466146FFE70FB5FFF7A2
:10117800C9FF002848BF10F1000F0FBD4DF808ED5A
:10118800FFF7F4FF0CBF012000205DF808FB00BF4B
:101198004DF808EDFFF7EAFF34BF012000205DF8A5
:1011A80008FB00BF4DF808EDFFF7E0FF94BF0120F2
:1011B80000205DF808FB00BF4DF808EDFFF7D2FFEF
:1011C80094BF012000205DF808FB00BF4DF808ED32
:1011D800FFF7C8FF34BF012000205DF808FB00BFFF
:1011E8004FEA4002B2F1FE4F0FD34FF09E03B3EB2C
:1011F80012620DD94FEA002343F0004310F0004F6C
:1012080023FA02F018BF404270474FF000007047C1
:1012180012F1610F01D1420205D110F0004008BF60
:101228006FF0004070474FF00000704738B50C462B
:1012380005462146284600220023FFF727FC28B947
:1012480028462146BDE8384000F00AB8284604F18F
:10125800004100F005F8404261EB410138BD00BF94
:10126800D0B500220B4B06460F46FFF79DF9FFF756
:1012780073FC0446FFF71EF90022074BFFF794F9A9
:1012880002460B4630463946FEF7D6FFFFF764FCA8
:101298002146D0BD0000F03D0000F04180B500AF10
:1012A8000821054802F0CEFE0346002B01D1012398
:1012B80000E00023184680BD0020014080B582B0C0
:1012C80000AF0346FB71FFF7E9FF0346012B0ED180
:1012D800114B1B881A46FB7901335B009A420CDAE2
:1012E8000D4B1B8801339AB20B4B1A8005E00A4B51
:1012F80000221A80094B00221A80074B1B88022BF8
:1013080004D1064B01221A80012300E0002318466D
:101318000837BD4680BD00BF1A0200201802002011
:1013280080B582B000AF7860391D4FF6FF73012297
:10133800034805F047FE7B6818460837BD4680BD60
:10134800D005002080B489B000AF78607B680C338A
:10135800FB60FB6853E8003FBB60BB6843F02003B9
:10136800FB617B680C33FA69BA617B617969BA6998
:1013780041E800233B613B69002BE7D100BF00BF78
:101388002437BD4680BC704780B483B000AF786016
:101398007B68DB6803F02003202B0CBF01230023AC
:1013A800DBB218460C37BD4680BC704780B483B0AA
:1013B80000AF78607B685B68DBB218460C37BD46C7
:1013C80080BC704780B500AF0248FFF7BBFF00BF85
:1013D80080BD00BF0044004080B582B000AF09481E
:1013E800FFF7D2FF0346002B08D00648FFF7DEFFC1
:1013F8000346FB71FB79184600F002FA00BF083774
:10140800BD4680BD0044004080B500AF01F096F8AD
:1014180000F0A0FD00F0EAF8FFF7D4FF00BF80BDA0
:1014280080B500AF0120FFF749FF0346002B0FD01E
:10143800134B1B78002B0CBF01230023DBB21A4689
:101448000F4B1A7001224FF480410E4802F020FE23
:101458000B4B1B78002B0ED100224FF4804109481A
:1014680002F016FE002300220021002000F0CAFA34
:1014780000F0BCF801E000F037F900BF80BD00BF04
:101488001C0200200020014080B485B000AF034654
:10149800FB710023FB81FB79032B41D801A252F891
:1014A80023F000BFBD140008D7140008F514000885
:1014B8000F1500081E4B5B6A9BB2C3F5FF437F33D1
:1014C8009BB2FB811A4B47F6FF725A6229E04FF034
:1014D80080435B6A9BB2C3F5FF437F339BB2FB81BA
:1014E8004FF0804347F6FF725A621AE0114B5B6A6D
:1014F8009BB2C3F5FF437F339BB2FB810D4B47F68D
:10150800FF725A620DE00C4B5B6A9BB2C3F5FF4356
:101518007F339BB2FB81084B47F6FF725A6200E0AB
:1015280000BFB7F90E3018461437BD4680BC704767
:1015380000080040000C00400004004080B483B064
:1015480000AF78600B4B1A687B681A607B680433BD
:10155800094A12681A607B680833084A12681A60D8
:101568007B680C33064A12681A6000BF0C37BD4608
:1015780080BC70472002002024020020280200209E
:101588002C02002080B500AF0020FFF77DFF034646
:101598001A46124B1B689B1A104A13600120FFF76A
:1015A80073FF03461A460E4B1B689B1A0C4A1360BE
:1015B8000220FFF769FF03461A460A4B1B681344CB
:1015C800084A13600320FFF75FFF03461A46064BDD
:1015D8001B681344044A136000BF80BD200200202A
:1015E80024020020280200202C02002080B400AF32
:1015F800264B4FF000021A60244B4FF000029A600D
:10160800224B4FF000029A61204B4FF00002DA6142
:101618001E4B4FF000021A621C4B4FF000025A6238
:101628001A4B1B4ADA60194B1A4A1A61174B1A4AA5
:101638005A611A4B4FF000021A60184B4FF0000223
:101648009A60164B4FF000029A61144B4FF000025B
:10165800DA61124B4FF000021A62104B4FF0000291
:101668005A620E4B0E4ADA600C4B4FF000021A61B8
:101678000A4B4FF07C525A610A4BA0221A80094B40
:1016880078225A8000BFBD4680BC7047D80200202F
:101698000000884117B7D1380000A040B0020020F0
:1016A800000060400403002080B582B000AF78607D
:1016B8007968044800F0D6FC034618460837BD464A
:1016C80080BD00BFD802002080B582B000AF78602E
:1016D8007968044800F0C6FC034618460837BD463A
:1016E80080BD00BFB002002098B500AF334B1B8807
:1016F800C3F1A0031846FFF759FB0346304A1360AD
:101708002E4B5B88783B1846FFF750FB03462D4A63
:1017180013602C4B1B68184600F05CF803462A49F6
:101728001846FFF73FFD0346002B13D0244B1B68D8
:10173800184600F04FF8034623491846FFF732FDD4
:101748000346002B06D0002300220021002000F0D1
:1017580059F932E01A4B1B681846FFF7A5FF0346F4
:101768001846FFF73DFD03461846FFF71FFB0346E3
:10177800164A1360134B1B681846FFF7A5FF03466C
:101788001846FFF72DFD03461846FFF70FFB0346E3
:101798000F4A13600E4B1B681846FFF721FD0346DE
:1017A8001CB20A4B1B681846FFF71AFD03461BB20A
:1017B8001A460021204600F087FA98BD040300204D
:1017C80000030020AC0200200000F0413402002099
:1017D8003002002080B582B000AF78604FF0000181
:1017E8007868FFF7D5FC0346002B03D07B6883F0AD
:1017F80000437B607B6818460837BD4680BD000003
:1018080080B582B000AF0346FB71FB79242B07D16A
:10181800134B01221A7014220021124806F006FA0E
:10182800FB79232B07D10E4B00221A700E4B002296
:101838001A7000F01BF80A4B1B78012B0CD1FB79AE
:10184800242B09D0084B1B785A1CD1B2064A1170B8
:101858001946044AFB79535400BF0837BD4680BD7A
:101868004C020020380200204D02002080B400AF56
:10187800234B1B78303B9BB21A46920013441A46FE
:1018880091001A460B4613449B009AB21C4B5B7896
:10189800303B9BB2194689000B445B009BB2134452
:1018A8009AB2174B9B789BB213449BB2303B9AB2C7
:1018B800144B1A80124BDB78303B9BB21A469200CD
:1018C80013441A4691001A460B4613449B009AB2D9
:1018D8000B4B1B79303B9BB2194689000B445B00CC
:1018E8009BB213449AB2064B5B799BB213449BB2EA
:1018F800303B9AB2034B5A8000BFBD4680BC70474C
:10190800380200200403002080B400AF024B1846C0
:10191800BD4680BC704700BF0000824490B583B0CC
:1019280000AF0446084611461A462346FB80034684
:10193800BB800B467B8013463B80B7F9063013F516
:10194800616F0ADBB7F90630B3F5616F05DCB7F9EB
:1019580006301946002000F05DFDB7F9043013F594
:10196800616F0ADBB7F90430B3F5616F05DCB7F9CD
:1019780004301946012000F04DFDB7F9023013F587
:10198800616F0ADBB7F90230B3F5616F05DCB7F9AF
:1019980002301946022000F03DFDB7F9003013F57A
:1019A800616F0ADBB7F90030B3F5616F05DCB7F991
:1019B80000301946032000F02DFD00BF0C37BD464E
:1019C80090BD000080B582B000AF0346FB710023D4
:1019D80000220021002000F015F8042000F0F2FB9E
:1019E800064B00221A70064B00221A70FB79184623
:1019F80000F0C4FC00BF0837BD4680BD9C02002033
:101A08009D02002090B585B000AF044608461146F7
:101A18001A462346FB800346BB800B467B80134651
:101A28003B80184B01221A70174AFB881384164A08
:101A3800BB885384144A7B889384134A3B88D38495
:101A48000023FB7316E0FB7B0F4A103332F9133087
:101A58001846FEF73FFD02460B4610461946FFF7AB
:101A68009BF80246FB7B1146184600F037FCFB7BCF
:101A78000133FB73FB7B032BE5D900BF00BF143791
:101A8800BD4690BD9C0200200803002080B58AB0A6
:101A980000AF786000237B6207F1080300221A6018
:101AA8005A609A60DA6000F0D5F83862FFF72CFFC8
:101AB800F86100F0C5F8B86100F0D6F800237B6241
:101AC8001FE05B4A7B6A52F82330642202FB03F36F
:101AD8001846FFF76BF90346396A1846FFF7BAF953
:101AE8000346F9691846FFF769FA03461A467B6AFE
:101AF8009B0007F128010B4443F8202C7B6A013333
:101B08007B627B6A032BDCDDBB68FA6811461846EA
:101B1800FFF798F803461A463B6919461046FFF73F
:101B280091F803461A467B6919461046FFF78AF86A
:101B380003464FF081411846FFF740FA034618461E
:101B4800FFF74EFB03461AB27B681A80BB68FA6837
:101B580011461846FFF774F803461A463B691946BA
:101B68001046FFF76DF803461A467B69194610467A
:101B7800FFF768F8034683F000434FF081411846A9
:101B8800FFF71CFA03461846FFF72AFB03461AB26A
:101B98007B685A80BB68FA6811461846FFF752F806
:101BA80003461A463B6919461046FFF749F80346AB
:101BB8001A467B6919461046FFF742F8034683F038
:101BC80000434FF081411846FFF7F8F90346B96919
:101BD8001846FFF7F3F9034616491846FFF73AF98E
:101BE80003461846FFF7FCFA03461AB27B689A8048
:101BF800114B1B78002B16D000237B620DE07B6A0B
:101C08009B0007F12802134453F8202C0B497B6AE8
:101C180041F823207B6A01337B627B6A032BEEDD6C
:101C2800064800F0A7FA00BF2837BD4680BD00BFB0
:101C38008C02002000007A449C0200200803002047
:101C480080B400AF024B1846BD4680BC704700BF49
:101C580000001F4380B400AF024B1846BD4680BC4D
:101C6800704700BFF8334C4380B582B000AF1348CB
:101C7800FFF764FC0023FB7117E0FB790F4A52F869
:101C88002310FB790E4A52F82320FB798A1A0D4952
:101C980041F82320FA79FB79084951F822200849AC
:101CA80041F82320FB790133FB71FB79032BE4D93D
:101CB80000BF00BF0837BD4680BD00BF6C020020D2
:101CC8007C0200208C02002080B582B000AF034661
:101CD800FB800B46BB8013467B80B7F90220B7F91F
:101CE8000410B7F90630184600F004F800BF0837AA
:101CF800BD4680BD80B584B000AF0346FB800B466F
:101D0800BB8013467B80FFF79BFFF8606F4B4FF05B
:101D180000021A60B7F906301846FFF747F803467D
:101D28006B4A1360B7F902301846FFF73FF80346CD
:101D380068491846FFF742F90346F9681846FFF75D
:101D480089F803461A46644B1A60B7F90630002B27
:101D58000BD1B7F90430002B07D1B7F90230002BAB
:101D680003D10120FFF72EFEADE0594B1B68574AFF
:101D7800126811461846FEF765FF03461A46564B89
:101D88001B6819461046FEF75DFF03461846FFF725
:101D980027FA0346514A13604D4B1B684B4A126899
:101DA80011461846FEF74CFF03461A464A4B1B6875
:101DB80019461046FEF746FF03461846FFF710FA85
:101DC8000346474A1360424B1B68404A1268114653
:101DD8001846FEF735FF03461A463F4B1B6819465F
:101DE8001046FEF72DFF03461846FFF7F9F903469C
:101DF8003C4A1360364B1B68344A12681146184631
:101E0800FEF720FF03461A46334B1B681946104657
:101E1800FEF716FF03461846FFF7E2F90346324A73
:101E280013602E4B1B68B3F57A7F03DD2B4B4FF401
:101E38007A721A60294B1B6813F57A7F02DA274BEE
:101E48002A4A1A60264B1B68B3F57A7F03DD244BB8
:101E58004FF47A721A60224B1B6813F57A7F02DA04
:101E68001F4B224A1A601F4B1B68B3F57A7F03DDAC
:101E78001C4B4FF47A721A601A4B1B6813F57A7F61
:101E880002DA184B194A1A60174B1B68B3F57A7FA8
:101E980003DD154B4FF47A721A60134B1B6813F568
:101EA8007A7F02DA104B114A1A600C4B1B6818B281
:101EB8000B4B1B6819B20B4B1B681AB20A4B1B68F9
:101EC8001BB2FFF79FFD1037BD4680BD50020020B2
:101ED8005402002000007A44580200205C020020CE
:101EE80060020020640200206802002018FCFFFF46
:101EF800F8B500AF1448FFF7C9FD144B1B78002B49
:101F080020D0134B1B691846FFF76AF903461CB229
:101F18000F4B5B691846FFF763F903461DB20C4B7C
:101F28009B691846FFF75CF903461EB2084BDB694C
:101F38001846FFF755F903461BB232462946204694
:101F4800FFF7ECFC00BFF8BD300300209C02002026
:101F58000803002080B483B000AF00237B6062E0F8
:101F68003A497A6813469B001344DB000B444FF050
:101F780000021A6035497A6813469B001344DB0057
:101F88000B4408334FF000021A6030497A68134650
:101F98009B001344DB000B4418334FF000021A6017
:101FA8002A497A6813469B001344DB000B441C3310
:101FB8004FF000021A6025497A6813469B001344C3
:101FC800DB000B4420334FF000021A601F497A6887
:101FD80013469B001344DB000B4424334FF00002EC
:101FE8001A601A497A6813469B001344DB000B44B5
:101FF8000C33174A1A6015497A6813469B00134434
:10200800DB000B441033134A1A6010497A681346F0
:102018009B001344DB000B4414334FF07C521A60CE
:102028007B6801337B607B68032B99DD0A4B0B4A85
:102038005A60094B4FF000029A60074B084ADA6071
:1020480000BF0C37BD4680BC704700BF3803002076
:10205800CDCC4C3F8FC2753D00000020CDCCCC3E8E
:10206800CDCCCC3D2DE9F04182B000AF786039602D
:102078007B681B6839681846FEF7E2FD03461A4676
:102088007B689A617B689C687B68DD687B689A6975
:102098007B681B6A19461046FEF7D2FD03461946AF
:1020A8002846FEF7D7FE03461D467B681A697B68FB
:1020B8009B6919461046FEF7CDFE03461946284689
:1020C800FEF7C0FD034698467B685D697B689E699C
:1020D8007B681B6A19461846FEF7B4FD0346194685
:1020E8003046FEF7ADFD03461A467B68DB691946A4
:1020F8001046FEF7A7FD034619462846FEF7AAFE36
:10210800034619464046FEF79DFD034619462046FC
:10211800FEF798FD03461A467B689A607B681A6A40
:102128007B68DA617B689A697B681A627B689B685E
:102138000E491846FFF74AF80346002B02D07B6881
:102148000A4A9A607B689B6809491846FFF720F895
:102158000346002B02D07B68054A9A607B689B681F
:1021680018460837BD46BDE8F08100BF0000C844E6
:102178000000C8C480B584B000AF78600023FB605D
:1021880016E0FA6813469B001344DB000C4A9818C3
:102198007B68FA6853F822301946FFF763FF014657
:1021A8007B68FA68043243F82210FB680133FB604D
:1021B800FB68032BE5DD00BF00BF1037BD4680BDBF
:1021C8003803002080B485B000AF0346FB71FB796B
:1021D800042B7BD8FB79042B40D10023FB6039E02A
:1021E8003D49FA6813469B001344DB000B4408334F
:1021F8004FF000021A603849FA6813469B001344EE
:10220800DB000B4418334FF000021A603249FA68B9
:1022180013469B001344DB000B441C334FF00002B1
:102228001A602D49FA6813469B001344DB000B44DF
:1022380020334FF000021A602749FA6813469B00C2
:102248001344DB000B4424334FF000021A60FB6890
:102258000133FB60FB68032BC2DD38E0FA791E49C5
:1022680013469B001344DB000B4408334FF0000275
:102278001A60FA79184913469B001344DB000B4493
:1022880018334FF000021A60FA79134913469B007D
:102298001344DB000B441C334FF000021A60FA7938
:1022A8000D4913469B001344DB000B4420334FF0C9
:1022B80000021A60FA79084913469B001344DB00B0
:1022C8000B4424334FF000021A6000E000BF1437BB
:1022D800BD4680BC704700BF3803002080B485B07D
:1022E80000AF03463960FB71FB79042B1FD8FB79DB
:1022F800042B12D10023FB600BE00F49FA68134648
:102308009B001344DB000B443A681A60FB680133F6
:10231800FB60FB68032BF0DD0AE0FA7906491346F7
:102328009B001344DB000B443A681A6000E000BFCE
:102338001437BD4680BC70473803002080B483B092
:1023480000AF0346FB80B7F90630002B05DDFB889C
:1023580003F5FA639BB21BB20AE0B7F90630002B0B
:1023680005DAFB88A3F5FA639BB21BB200E00023F1
:1023780018460C37BD4680BC7047000080B483B057
:1023880000AF0346FB71FB79002B01D00123FB71E1
:10239800FB794FF4616202FB03F21C4B5A63FB7931
:1023A8004FF4616202FB03F2184B9A63FB794FF416
:1023B800616202FB03F2154BDA63FB794FF4616249
:1023C80002FB03F2114B1A64FB794FF4616202FBC2
:1023D80003F20F4B5A63FB794FF4616202FB03F27D
:1023E8000B4B9A63FB794FF4616202FB03F2084BD3
:1023F800DA63FB794FF4616202FB03F2044B1A645F
:1024080000BF0C37BD4680BC704700BF0034014098
:10241800002C014080B584B000AF03460A46FB712A
:102428001346BB80B7F904301846FFF787FF034609
:10243800FB81B7F90E30B3F5616F02DB4FF46163CE
:10244800FB81B7F90E3013F5616F02DC4FF2F01320
:10245800FB81FB79032B67D801A252F823F000BF58
:1024680079240008AB240008DD24000807250008AB
:10247800FB895B429BB2FB81B7F90E30002B07DB6F
:102488002C4AB7F90E3053632A4B00229A634CE06A
:10249800284B00225A63B7F90E305A42254B9A63EB
:1024A80043E0FB895B429BB2FB81B7F90E30002BFE
:1024B80007DB204AB7F90E30D3631E4B00221A649B
:1024C80033E01C4B0022DA63B7F90E305A42194B3D
:1024D8001A642AE0B7F90E30002B07DB164AB7F961
:1024E8000E305363144B00229A631EE0124B0022F5
:1024F8005A63B7F90E305A420F4B9A6315E0B7F991
:102508000E30002B07DB0C4AB7F90E30D3630A4BA9
:1025180000221A6409E0084B0022DA63B7F90E308A
:102528005A42054B1A6400E000BF00BF1037BD4691
:1025380080BD00BF00340140002C014080B500AFD1
:102548000021224802F0BEFD0421204802F0BAFD15
:1025580008211E4802F0B6FD0C211C4802F0B2FD0D
:1025680000211B4802F0AEFD0421194802F0AAFD23
:102578000821174802F0A6FD0C21154802F0A2FD1B
:102588004FF0804347F6FF725A620421114803F066
:1025980065F8114B47F6FF725A6204210F4803F0A1
:1025A8005DF80F4B47F6FF725A6204210D4803F09D
:1025B80055F80D4B47F6FF725A6204210B4803F099
:1025C8004DF80B4802F00EFC00BF80BD400500200E
:1025D800D80300208805002000040040B004002033
:1025E8000008004020040020000C0040680400207F
:1025F800F804002080B582B000AF78607B681B6863
:10260800054A934203D1FEF7BDFFFFF771FC00BFF7
:102618000837BD4680BD00BF0010004080B58AB0B5
:1026280000AF07F1180300221A605A609A60DA6056
:10263800364B9B69354A43F004039361334B9B69DE
:1026480003F004037B617B69304B9B692F4A43F09D
:10265800400393612D4B9B6903F040033B613B6949
:102668002A4B9B69294A43F020039361274B9B69B6
:1026780003F02003FB60FB68244B9B69234A43F467
:1026880080739361214B9B6903F48073BB60BB68C3
:102698001E4B9B691D4A43F0100393611B4B9B69BA
:1026A80003F010037B607B68184B9B69174A43F063
:1026B80008039361154B9B6903F008033B603B6873
:1026C80000224FF48041124801F0E2FC3823BB613C
:1026D8000023FB6101233B6207F1180319460C48EC
:1026E80001F01CFA4FF48043BB610123FB61002316
:1026F8003B6201237B6207F118031946044801F085
:102708000DFA00BF2837BD4680BD00BF001002404B
:102718000020014080B500AF01F062F800F019F820
:10272800FFF77CFF00F096F900F058FA00F0AAFADB
:1027380000F0FCFA00F04EFB00F0A0FB00F0D4FB28
:1027480000F04AFF00F072FFFEF75EFEFEF768FE3B
:10275800FCE780B590B000AF07F1180328220021EC
:10276800184605F063FA3B1D00221A605A609A6009
:10277800DA601A610123BB614FF48033FB610023E7
:102788003B620123BB6202237B634FF48033BB634C
:102798004FF4E013FB6307F11803184601F0AAFC95
:1027A8000346002B01D000F019F80F237B600223A9
:1027B800BB600023FB604FF480633B6100237B61B7
:1027C8003B1D0221184602F005F80346002B01D0F4
:1027D80000F004F800BF4037BD4680BD80B400AFAC
:1027E80072B600BFFEE780B483B000AF786039608E
:1027F80000BF0C37BD4680BC7047000080B584B070
:1028080000AF164B9B69154A43F001039361134BC4
:102818009B6903F00103BB60BB68104BDB690F4A7F
:1028280043F08053D3610D4BDB6903F080537B6029
:102838007B68052001F002F9094B5B68FB60FB68C7
:1028480023F0E063FB60FB6843F00073FB60044A1D
:10285800FB68536000BF1037BD4680BD00100240C2
:102868000000014080B400AFFEE780B400AFFEE78F
:1028780080B400AFFEE780B400AFFEE780B400AFDD
:10288800FEE780B400AF00BFBD4680BC704780B48F
:1028980000AF00BFBD4680BC704780B400AF00BF2A
:1028A800BD4680BC704780B500AF00F0DFFF00BFB9
:1028B80080BD000080B500AF024802F08DFF00BF68
:1028C80080BD00BFF804002080B400AF0123184683
:1028D800BD4680BC704780B582B000AF7860396073
:1028E80005F07AF9034616221A604FF0FF331846AE
:1028F8000837BD4680BD80B582B000AF78604FF024
:10290800FF317868FFF7E7FFFEE780B586B000AFD4
:10291800F860B9607A6000237B610AE0AFF3008059
:102928000146BB685A1CBA60CAB21A707B69013387
:102938007B617A697B689A42F0DB7B6818461837B6
:10294800BD4680BD80B586B000AFF860B9607A60DA
:1029580000237B6109E0BB685A1CBA601B781846E3
:10296800FEF7DEFC7B6901337B617A697B689A42FA
:10297800F1DB7B6818461837BD4680BD80B483B04C
:1029880000AF78604FF0FF3318460C37BD4680BC67
:10299800704780B483B000AF786039603B684FF40B
:1029A80000525A60002318460C37BD4680BC704759
:1029B80080B483B000AF7860012318460C37BD4659
:1029C80080BC704780B485B000AFF860B9607A60A9
:1029D800002318461437BD4680BC704780B586B0C2
:1029E80000AF7860144A154BD31A7B617B693B6151
:1029F800134B1B68002B02D1114B124A1A60104B63
:102A08001A687B6813443A699A4207D205F0E4F8D9
:102A180003460C221A604FF0FF3309E0084B1B688D
:102A2800FB60074B1A687B681344054A1360FB6810
:102A380018461837BD4680BD00000120000400007C
:102A4800A00200203006002080B400AF00BFBD46C1
:102A580080BC704780B596B000AF07F148030022EC
:102A68001A605A609A60DA6007F1400300221A601F
:102A78005A6007F1240300221A605A609A60DA60EB
:102A88001A615A619A613B1D20220021184605F0FF
:102A9800CDF8504B504A1A604E4B00225A604D4BAD
:102AA80000229A604B4B40F60F62DA60494B0022D5
:102AB8001A61484B00225A61464B80229A61454868
:102AC80002F0BCF80346002B01D0FFF787FE4FF455
:102AD8008053BB6407F1480319463E4803F026F9C2
:102AE8000346002B01D0FFF779FE3A4802F00CFAB2
:102AF8000346002B01D0FFF771FE00233B6400233F
:102B08007B6407F140031946324803F0F3FF03469C
:102B1800002B01D0FFF762FE60237B620023BB62BB
:102B28000023FB6200233B6300237B630023BB631A
:102B38000023FB6307F1240300221946254802F00D
:102B480053FF0346002B01D0FFF748FE07F124038B
:102B5800042219461F4802F047FF0346002B01D004
:102B6800FFF73CFE07F1240308221946194802F032
:102B78003BFF0346002B01D0FFF730FE07F124038B
:102B88000C221946134802F02FFF0346002B01D0F0
:102B9800FFF724FE00237B600023BB600023FB605B
:102BA80000233B6100237B614FF40053BB6100238A
:102BB8003B623B1D1946074804F06CF80346002B9E
:102BC80001D0FFF70BFE034800F0B2FB00BF5837F7
:102BD800BD4680BD40050020002C014080B58CB06A
:102BE80000AF07F10C0324220021184605F01EF857
:102BF8003B1D00221A605A60214B4FF080421A6038
:102C08001F4B00225A601E4B00229A601C4B4FF645
:102C1800FF72DA601A4B00221A61194B00229A617E
:102C28000323FB6000233B6101237B610023BB611D
:102C38000023FB6100233B6201237B620023BB620C
:102C48000023FB6207F10C0319460D4802F062FBF2
:102C58000346002B01D0FFF7C1FD00237B60002352
:102C6800BB603B1D1946064803F044FF0346002B92
:102C780001D0FFF7B3FD00BF3037BD4680BD00BFB0
:102C88008805002080B58CB000AF07F10C03242222
:102C98000021184604F0CAFF3B1D00221A605A6042
:102CA800204B214A1A601F4B00225A601D4B0022FC
:102CB8009A601C4B4FF6FF72DA601A4B00221A61B9
:102CC800184B00229A610323FB6000233B61012318
:102CD8007B610023BB610023FB6100233B6201236E
:102CE8007B620023BB620023FB6207F10C031946D9
:102CF8000C4802F00FFB0346002B01D0FFF76EFDD6
:102D080000237B600023BB603B1D1946054803F088
:102D1800F1FE0346002B01D0FFF760FD00BF3037FE
:102D2800BD4680BDB00400200004004080B58CB0D2
:102D380000AF07F10C0324220021184604F076FFA7
:102D48003B1D00221A605A60204B214A1A601F4B13
:102D580000225A601D4B00229A601C4B4FF6FF72EE
:102D6800DA601A4B00221A61184B00229A61032379
:102D7800FB6000233B6101237B610023BB610023CF
:102D8800FB6100233B6201237B620023BB620023BB
:102D9800FB6207F10C0319460C4802F0BBFA034624
:102DA800002B01D0FFF71AFD00237B600023BB60D6
:102DB8003B1D1946054803F09DFE0346002B01D034
:102DC800FFF70CFD00BF3037BD4680BD2004002052
:102DD8000008004080B58CB000AF07F10C03242236
:102DE8000021184604F022FF3B1D00221A605A6099
:102DF800204B214A1A601F4B00225A601D4B0022AB
:102E08009A601C4B4FF6FF72DA601A4B00221A6167
:102E1800184B00229A610323FB6000233B610123C6
:102E28007B610023BB610023FB6100233B6201231C
:102E38007B620023BB620023FB6207F10C03194687
:102E48000C4802F067FA0346002B01D0FFF7C6FCD6
:102E580000237B600023BB603B1D1946054803F037
:102E680049FE0346002B01D0FFF7B8FC00BF3037FE
:102E7800BD4680BD68040020000C004080B582B0CB
:102E880000AF3B4600221A605A60154B154A1A607B
:102E9800134B41F61F425A60114B00229A60104BA7
:102EA8006322DA600E4B00229A610D4801F0C6FEDB
:102EB8000346002B01D0FFF791FC00233B60002361
:102EC8007B603B461946064803F014FE0346002B78
:102ED80001D0FFF783FC00BF0837BD4680BD00BFA7
:102EE800F80400200010004080B596B000AF07F14C
:102EF800480300221A605A609A60DA6007F14003BA
:102F080000221A605A6007F1240300221A605A60EE
:102F18009A60DA601A615A619A613B1D2022002189
:102F2800184604F083FE504B504A1A604E4B00225C
:102F38005A604D4B00229A604B4B40F60F62DA60A4
:102F4800494B00221A61484B00225A61464B8022A5
:102F58009A61454801F072FE0346002B01D0FFF745
:102F68003DFC4FF48053BB6407F1480319463E48C3
:102F780002F0DCFE0346002B01D0FFF72FFC3A4895
:102F880001F0C2FF0346002B01D0FFF727FC002306
:102F98003B6400237B6407F140031946324803F081
:102FA800A9FD0346002B01D0FFF718FC60237B62C4
:102FB8000023BB620023FB6200233B6300237B6387
:102FC8000023BB630023FB6307F124030022194697
:102FD800254802F009FD0346002B01D0FFF7FEFB50
:102FE80007F12403042219461F4802F0FDFC03469A
:102FF800002B01D0FFF7F2FB07F124030822194642
:10300800194802F0F1FC0346002B01D0FFF7E6FB5C
:1030180007F124030C221946134802F0E5FC034685
:10302800002B01D0FFF7DAFB00237B600023BB6095
:103038000023FB6000233B6100237B614FF40053B6
:10304800BB6100233B623B1D1946074803F022FE83
:103058000346002B01D0FFF7C1FB034800F068F9D5
:1030680000BF5837BD4680BDD8030020003401405A
:1030780080B586B000AF78607B681B681F4A9342B2
:103088000CD11F4B9B691E4A43F4006393611C4B90
:103098009B6903F400637B617B692AE07B681B689A
:1030A800184A934214D1164BDB69154A43F01003B2
:1030B800D361134BDB6903F010033B613B690122C9
:1030C8000221362000F0DAFC362000F003FD10E083
:1030D8007B681B680C4A93420BD1094B9B69084AD1
:1030E80043F400539361064B9B6903F40053FB6060
:1030F800FB6800BF1837BD4680BD00BF002C0140EB
:1031080000100240001000400034014080B592B029
:1031180000AF786007F12C0300221A605A609A60A9
:10312800DA607B681B68B3F1804F4FD1784BDB695D
:10313800774A43F00103D361754BDB6903F0010360
:10314800BB62BB6A724B9B69714A43F0040393618B
:103158006F4B9B6903F004037B627B6A6C4B9B6932
:103168006B4A43F008039361694B9B6903F00803BA
:103178003B623B6A4FF40043FB6200233B6300233E
:103188007B6307F12C031946624800F0C7FC08234B
:10319800FB6200233B6300237B6307F12C03194682
:1031A8005D4800F0BBFC5D4B5B68FB63FB6B23F485
:1031B8004073FB63FB6B43F0E063FB63FB6B43F41F
:1031C8008073FB63554AFB6B53609DE07B681B680B
:1031D800534A934236D14E4BDB694D4A43F00203C2
:1031E800D3614B4BDB6903F00203FB61FB69484B7E
:1031F8009B69474A43F008039361454B9B6903F079
:103208000803BB61BB693023FB6200233B630023D7
:103218007B6307F12C0319463F4800F07FFC3F4BC6
:103228005B683B643B6C23F440633B643B6C43F05A
:10323800E0633B643B6C43F400633B64374A3B6C9C
:10324800536061E07B681B68364A934233D1304B48
:10325800DB692F4A43F00403D3612D4BDB6903F08C
:1032680004037B617B692A4B9B69294A43F020034D
:103278009361274B9B6903F020033B613B694FF443
:103288004053FB6200233B6300237B6307F12C035D
:103298001946254800F042FC204B5B687B647B6C38
:1032A80043F0E0637B647B6C43F480537B641B4A8C
:1032B8007B6C536028E07B681B681C4A934223D1CF
:1032C800134BDB69124A43F00803D361104BDB69E7
:1032D80003F00803FB60FB680D4B9B690C4A43F045
:1032E800040393610A4B9B6903F00403BB60BB684A
:1032F8000323FB6200233B6300237B6307F12C035A
:103308001946044800F00AFC00BF4837BD4680BD96
:103318000010024000080140000C0140000001407C
:10332800000400400008004000140140000C004068
:1033380080B58AB000AF786007F1140300221A60E4
:103348005A609A60DA607B681B68284A93422BD1DE
:10335800274B9B69264A43F040039361244B9B69A2
:1033680003F040033B613B694FF4D4437B61022384
:10337800BB6102233B6207F1140319461D4800F0A4
:10338800CDFB1D4B5B687B627B6A23F0C0037B62CD
:103398007B6A43F0E0637B627B6A43F0C0037B6235
:1033A800154A7B6A53601DE07B681B68134A934289
:1033B80018D10F4B9B690E4A43F0100393610C4BD5
:1033C8009B6903F01003FB60FB684FF470737B612B
:1033D8000223BB6102233B6207F114031946084824
:1033E80000F09CFB00BF2837BD4680BD002C014083
:1033F8000010024000180140000001400034014064
:103408000010014080B400AF044BDB681B0A03F0D6
:1034180007031846BD4680BC704700BF00ED00E0BA
:1034280080B483B000AF0346FB7197F90730002BD7
:103438000BDBFB7903F01F02064997F907305B099C
:10344800012000FA02F241F8232000BF0C37BD46E4
:1034580080BC704700E100E080B483B000AF034651
:103468003960FB7197F90730002B0ADB3B68DAB249
:103478000C4997F907301201D2B20B4483F80023A4
:103488000AE03B68DAB20849FB7903F00F03043B12
:103498001201D2B20B441A7600BF0C37BD4680BC6D
:1034A800704700BF00E100E000ED00E080B489B0A3
:1034B80000AFF860B9607A60FB6803F00703FB614E
:1034C800FB69C3F10703042B28BF0423BB61FB6915
:1034D8000433062B02D9FB69033B00E000237B6120
:1034E8004FF0FF32BB6902FA03F3DA43BB681A40B4
:1034F8007B699A404FF0FF317B6901FA03F3D943A6
:103508007B680B40134318462437BD4680BC704780
:1035180080B483B000AF78607B68DB6843F4005206
:103528007B68DA6000BF0C37BD4680BC704780B44A
:1035380083B000AF78607B681B6923F490427B6896
:103548001A617B685B6923F02A027B685A6100BFB5
:103558000C37BD4680BC704780B485B000AF78603A
:10356800084BDA6907497B681343CB61054BDA6975
:103578007B681340FB60FB6800BF1437BD4680BC06
:10358800704700BF0010024080B485B000AF78607B
:10359800084B9A6907497B6813438B61054B9A6905
:1035A8007B681340FB60FB6800BF1437BD4680BCD6
:1035B800704700BF0010024080B400AF054B5B6845
:1035C800044A43F0E06343F00803536000BFBD467C
:1035D80080BC70470000014080B500AF114B124A13
:1035E8001A60104B4FF4E1325A600E4B00229A6079
:1035F8000C4B0022DA600B4B00221A61094B0C229B
:103608005A61084B00229A61064B0022DA6105488C
:1036180003F01EFC0346002B01D0FFF7DFF800BFC4
:1036280080BD00BFD00500200038014080B58CB0B7
:1036380000AF07F1140300221A605A609A60DA603A
:103648001A615A619A613B4600221A605A609A6070
:10365800DA601A614FF40030FFF77EFF2020FFF791
:1036680093FF42F220033B6009237B600323BB6086
:103678000023FB603B4619461E4803F01BFF44F23B
:1036880040033B6004237B603B461946194803F01E
:1036980011FFFFF791FFFFF7B5FE03460022002157
:1036A8001846FFF703FF034619462620FFF7D4FE06
:1036B8002620FFF7B5FE4FF4E1337B610023BB61A1
:1036C8000023FB6100233B620C237B620023BB6267
:1036D8000023FB6207F114031946074804F07AF93E
:1036E8000548FFF724FF0448FFF712FF00BF3037F3
:1036F800BD4680BD001401400044004080B588B03C
:1037080000AF786007F1100300221A605A609A60CF
:10371800DA607B681B681C4A934231D11B4B9B695A
:103728001A4A43F480439361184B9B6903F480431E
:10373800FB60FB68154B9B69144A43F004039361D3
:10374800124B9B6903F00403BB60BB684FF4007322
:103758003B6102237B610323FB6107F110031946D8
:103768000B4800F0DBF94FF480633B6100237B6179
:103778000023BB6107F110031946054800F0CEF994
:1037880000BF2037BD4680BD003801400010024010
:1037980000080140FFF758F90B480C490C4A002370
:1037A80002E0D458C4500433C4188C42F9D3094AEF
:1037B800094C002301E013600432A242FBD304F059
:1037C80011FAFEF7A7FF704700000020FC01002057
:1037D8002CCB0008FC0100202C060020FEE700008E
:1037E80080B500AF084B1B68074A43F0100313600D
:1037F800032000F023F9032000F008F8FEF7FEFF8D
:103808000023184680BD00BF0020024080B582B06A
:1038180000AF7860124B1A68124B1B7819464FF4A8
:103828007A73B3FBF1F3B2FBF3F3184600F06AF9CD
:103838000346002B01D001230EE07B680F2B0AD82A
:10384800002279684FF0FF3000F018F9064A7B68CB
:103858001360002300E0012318460837BD4680BDE9
:103868001C000020240000202000002080B400AFAD
:10387800054B1B781A46054B1B681344034A136013
:1038880000BFBD4680BC70472400002018060020F9
:1038980080B400AF024B1B681846BD4680BC704719
:1038A8001806002080B485B000AF78607B6803F00C
:1038B8000703FB600C4BDB68BB60BA684FF6FF037D
:1038C8001340BB60FB681A02BB68134343F0BF6335
:1038D80043F40033BB60044ABB68D36000BF1437AD
:1038E800BD4680BC704700BF00ED00E080B400AF6B
:1038F800044BDB681B0A03F007031846BD4680BC6F
:10390800704700BF00ED00E080B483B000AF03460D
:10391800FB7197F90730002B0BDBFB7903F01F02D3
:10392800064997F907305B09012000FA02F241F8CD
:10393800232000BF0C37BD4680BC704700E100E083
:1039480080B483B000AF03463960FB7197F9073044
:10395800002B0ADB3B68DAB20C4997F907301201F1
:10396800D2B20B4483F800230AE03B68DAB2084974
:10397800FB7903F00F03043B1201D2B20B441A7611
:1039880000BF0C37BD4680BC704700BF00E100E0B7
:1039980000ED00E080B489B000AFF860B9607A60EB
:1039A800FB6803F00703FB61FB69C3F10703042B02
:1039B80028BF0423BB61FB690433062B02D9FB69CA
:1039C800033B00E000237B614FF0FF32BB6902FA42
:1039D80003F3DA43BB681A407B699A404FF0FF3122
:1039E8007B6901FA03F3D9437B680B4013431846FC
:1039F8002437BD4680BC704780B582B000AF786080
:103A08007B68013BB3F1807F01D301230FE00A4AB1
:103A18007B68013B53600F214FF0FF30FFF790FFA9
:103A2800054B00229A60044B07221A6000231846AF
:103A38000837BD4680BD00BF10E000E080B582B009
:103A480000AF78607B68072B0FD07B68062B0CD003
:103A58007B68052B09D07B68042B06D07B68032B79
:103A680003D091210448FEF7BEFE7868FFF71AFFDD
:103A780000BF0837BD4680BD70C4000880B586B059
:103A880000AF0346B9607A60FB7300237B617B68F3
:103A98000F2B03D9A9210E48FEF7A5FEBB680F2BF3
:103AA80003D9AA210A48FEF79EFEFFF71FFF786197
:103AB8007A68B9687869FFF76DFF024697F90F30A1
:103AC80011461846FFF73CFF00BF1837BD4680BDBA
:103AD80070C4000880B582B000AF0346FB7197F947
:103AE8000730002B03DABD210548FEF77CFE97F965
:103AF80007301846FFF708FF00BF0837BD4680BDEE
:103B080070C4000880B582B000AF78607868FFF7AD
:103B180073FF034618460837BD4680BD80B58AB096
:103B280000AF7860396000237B6200233B627B68CA
:103B3800A94A93421BD07B68A84A934217D07B6856
:103B4800A74A934213D07B68A64A93420FD07B685A
:103B5800A54A93420BD07B68A44A934207D07B685E
:103B6800A34A934203D0BD21A248FEF73CFE3B681E
:103B78001B689BB2002B05D03B681B681B0C1B0401
:103B8800002B03D0BE219B48FEF72DFE3B685B68E7
:103B9800002B00F035823B685B68012B00F0308217
:103BA8003B685B68112B00F02B823B685B68022B3B
:103BB80000F026823B685B68122B00F021823B688C
:103BC8005B688D4A934200F01B823B685B688B4AB6
:103BD800934200F015823B685B68894A934200F083
:103BE8000F823B685B68874A934200F009823B6812
:103BF8005B68854A934200F003823B685B68834AAE
:103C0800934200F0FD813B685B68032B00F0F8816C
:103C1800BF217848FEF7E7FDF2E101227B6A02FA4C
:103C280003F3FB613B681B68FA691340BB61BA691F
:103C3800FB699A4240F0E1817B68674A93421BD056
:103C48007B68664A934217D07B68654A934213D0D3
:103C58007B68644A93420FD07B68634A93420BD0D7
:103C68007B68624A934207D07B68614A934203D0DB
:103C7800CD216048FEF7B7FD3B685B68634A934215
:103C880000F0C680614A934200F2EC805C4A93429D
:103C980000F0BE805A4A934200F2E4805A4A9342A6
:103CA80000F0B680584A934200F2DC80534A9342AF
:103CB80000F0AE80514A934200F2D480514A9342B8
:103CC80000F0A6804F4A934200F2CC80122B2BD8EA
:103CD800122B00F2C78001A252F823F0193E000807
:103CE800393D00088B3D0008673E00086D3E00081E
:103CF8006D3E00086D3E00086D3E00086D3E0008F0
:103D08006D3E00086D3E00086D3E00086D3E0008DF
:103D18006D3E00086D3E00086D3E00086D3E0008CF
:103D2800613D0008B53D0008334A934270D099E0E0
:103D38003B68DB68022B0BD03B68DB68012B07D0A4
:103D48003B68DB68032B03D0D5212A48FEF74BFDDF
:103D58003B68DB683B6286E03B68DB68022B0BD084
:103D68003B68DB68012B07D03B68DB68032B03D07B
:103D7800DC212048FEF737FD3B68DB6804333B62F3
:103D880071E03B68DB68022B0BD03B68DB68012BDA
:103D980007D03B68DB68032B03D0E3211548FEF707
:103DA80022FD3B68DB6808333B625CE03B68DB680C
:103DB800022B0BD03B68DB68012B07D03B68DB6824
:103DC800032B03D0EA210B48FEF70DFD3B68DB68A7
:103DD8000C333B6247E000BF00080140000C014083
:103DE800001001400014014000180140001C01406F
:103DF80000200140ACC40008000011100000211090
:103E080000003110000012100000221000003210D3
:103E18003B689B68002B0BD03B689B68012B07D045
:103E28003B689B68022B03D0F7217C48FEF7DBFC3C
:103E38003B689B68002B02D104233B6213E03B687C
:103E48009B68012B05D108233B627B68FA691A61DC
:103E580009E008233B627B68FA695A6103E00023A2
:103E68003B6200E000BFBB69FF2B01D87B6801E023
:103E78007B6804337B61BB69FF2B02D87B6A9B009C
:103E880002E07B6A083B9B003B617B691A680F2153
:103E98003B6901FA03F3DB431A40396A3B6901FACB
:103EA80003F31A437B691A603B685B6803F080532D
:103EB800002B00F0A2805A4B9B69594A43F001033A
:103EC8009361574B9B6903F00103BB60BB68554A7C
:103ED8007B6A9B08023352F82330FB607B6A03F04D
:103EE80003039B000F2202FA03F3DB43FA68134033
:103EF800FB607B684C4A93421FD07B684B4A9342D5
:103F080019D07B684A4A934213D07B68494A934246
:103F18000DD07B68484A934207D07B68474A934252
:103F280001D105230AE0062308E0042306E0032361
:103F380004E0022302E0012300E000237A6A02F091
:103F4800030292009340FA681343FB6035497B6A89
:103F58009B080233FA6841F823203B685B6803F446
:103F68008013002B06D0364B9A683549BB6913433A
:103F78008B6006E0324B9A68BB69DB4330491340DB
:103F88008B603B685B6803F40013002B06D02C4B56
:103F9800DA682B49BB691343CB6006E0284BDA6823
:103FA800BB69DB4326491340CB603B685B6803F47D
:103FB8000033002B06D0224B5A682149BB691343B2
:103FC8004B6006E01E4B5A68BB69DB431C49134033
:103FD8004B603B685B6803F48033002B06D0184BBA
:103FE8001A681749BB6913430B6006E0144B1A683B
:103FF800BB69DB43124913400B607B6A01337B6268
:104008003B681A687B6A22FA03F3002B7FF405AE3B
:1040180000BF00BF2837BD4680BD00BFACC4000844
:10402800001002400000014000080140000C01405F
:10403800001001400014014000180140001C01401C
:104048000004014080B584B000AF78600B467B80E7
:104058007B88002B04D07B881B0C1B04002B04D00E
:104068004FF4DA710948FEF7BEFB7B689A687B88D3
:104078001340002B02D00123FB7301E00023FB73E4
:10408800FB7B18461037BD4680BD00BFACC4000896
:1040980080B582B000AF78600B467B8013467B709A
:1040A8007B88002B04D07B881B0C1B04002B04D0BE
:1040B8004FF4EA710E48FEF796FB7B78002B07D089
:1040C8007B78012B04D040F2D5110948FEF78BFB11
:1040D8007B78002B03D07A887B681A6103E07B88A1
:1040E8001A047B681A6100BF0837BD4680BD00BF4F
:1040F800ACC4000880B586B000AF78607B68002B40
:1041080001D101235CE37B681B68002B1CD07B6812
:104118001B6803F00103002B16D17B681B6803F0B2
:104128000203002B10D17B681B6803F00803002BE7
:104138000AD17B681B6803F00403002B04D140F20A
:104148006511A548FEF74FFB7B681B6803F0010368
:10415800002B00F09A807B685B68002B0ED07B6890
:104168005B68B3F5803F09D07B685B68B3F5A02F27
:1041780004D040F26B119848FEF735FB974B5B680B
:1041880003F00C03042B0CD0944B5B6803F00C0376
:10419800082B12D1914B5B6803F48033B3F5803F51
:1041A8000BD18E4B1B6803F40033002B6CD07B685B
:1041B8005B68002B68D1012302E37B685B68B3F579
:1041C800803F06D1854B1B68844A43F480331360D3
:1041D8002EE07B685B68002B0CD1804B1B687F4A04
:1041E80023F4803313607D4B1B687C4A23F48023BF
:1041F80013601DE07B685B68B3F5A02F0CD1774B8B
:104208001B68764A43F480231360744B1B68734A17
:1042180043F4803313600BE0704B1B686F4A23F440
:10422800803313606D4B1B686C4A23F48023136042
:104238007B685B68002B13D0FFF72AFB386108E026
:10424800FFF726FB02463B69D31A642B01D90323E7
:10425800B6E2624B1B6803F40033002BF0D014E085
:10426800FFF716FB386108E0FFF712FB02463B69CF
:10427800D31A642B01D90323A2E2584B1B6803F419
:104288000033002BF0D100E000BF7B681B6803F00F
:104298000203002B79D07B681B69002B08D07B6850
:1042A8001B69012B04D040F29F114B48FEF79BFA83
:1042B8007B685B691F2B04D94FF4D0714648FEF721
:1042C80092FA464B5B6803F00C03002B0BD0434B70
:1042D8005B6803F00C03082B1CD1404B5B6803F4AC
:1042E8008033002B16D13D4B1B6803F00203002BD3
:1042F80005D07B681B69012B01D0012360E2374B95
:104308001B6823F0F8027B685B69DB0033491343C1
:104318000B603AE07B681B69002B20D0304B0122F0
:104328001A60FFF7B5FA386108E0FFF7B1FA0246FC
:104338003B69D31A022B01D9032341E2274B1B689F
:1043480003F00203002BF0D0244B1B6823F0F80283
:104358007B685B69DB00214913430B6015E0204B48
:1043680000221A60FFF794FA386108E0FFF790FA24
:1043780002463B69D31A022B01D9032320E2174BCB
:104388001B6803F00203002BF0D17B681B6803F065
:104398000803002B48D07B689B69002B08D07B68FA
:1043A8009B69012B04D04FF4F0710B48FEF71BFA00
:1043B8007B689B69002B21D00A4B01221A60FFF70A
:1043C80067FA386110E0FFF763FA02463B69D31ACF
:1043D800022B09D90323F3E1E8C4000800100240C6
:1043E8000000424280044242674B5B6A03F00203CA
:1043F800002BE8D0012000F003FC15E0634B0022FD
:104408001A60FFF745FA386108E0FFF741FA0246FB
:104418003B69D31A022B01D90323D1E15A4B5B6ABA
:1044280003F00203002BF0D17B681B6803F0040340
:10443800002B00F0C0800023FB757B68DB68002B35
:104448000CD07B68DB68012B08D07B68DB68052B08
:1044580004D040F20F214E48FEF7C5F94A4BDB69FC
:1044680003F08053002B0DD1474BDB69464A43F0DC
:104478008053D361444BDB6903F08053BB60BB6856
:104488000123FB75434B1B6803F48073002B18D181
:10449800404B1B683F4A43F480731360FFF7F8F9F9
:1044A800386108E0FFF7F4F902463B69D31A642B38
:1044B80001D9032384E1374B1B6803F48073002B75
:1044C800F0D07B68DB68012B06D12F4B1B6A2E4A84
:1044D80043F0010313622DE07B68DB68002B0CD1ED
:1044E800294B1B6A284A23F001031362264B1B6AD7
:1044F800254A23F0040313621CE07B68DB68052B64
:104508000CD1214B1B6A204A43F0040313621E4B53
:104518001B6A1D4A43F0010313620BE01A4B1B6A26
:10452800194A23F001031362174B1B6A164A23F03A
:10453800040313627B68DB68002B15D0FFF7A8F92A
:1045480038610AE0FFF7A4F902463B69D31A41F241
:104558008832934201D9032332E10B4B1B6A03F0E3
:104568000203002BEED01DE0FFF792F9386113E04B
:10457800FFF78EF902463B69D31A41F2883293421B
:104588000AD903231CE100BF001002408004424204
:10459800E8C40008007000408B4B1B6A03F002035C
:1045A800002BE5D1FB7D012B05D1874BDB69864AC2
:1045B80023F08053D3617B68DB69002B0CD07B68C8
:1045C800DB69012B08D07B68DB69022B04D040F241
:1045D800AD217E48FEF707F97B68DB69002B00F008
:1045E800EE80794B5B6803F00C03082B00F0CE805B
:1045F8007B68DB69022B40F0B2807B681B6A002B6A
:1046080009D07B681B6AB3F5803F04D040F2B6211D
:104618006E48FEF7E8F87B685B6A002B4AD07B6837
:104628005B6AB3F5802F45D07B685B6AB3F5002FD2
:1046380040D07B685B6AB3F5402F3BD07B685B6AF0
:10464800B3F5801F36D07B685B6AB3F5A01F31D005
:104658007B685B6AB3F5C01F2CD07B685B6AB3F5D7
:10466800E01F27D07B685B6AB3F5001F22D07B6808
:104678005B6AB3F5101F1DD07B685B6AB3F5201F1A
:1046880018D07B685B6AB3F5301F13D07B685B6A10
:10469800B3F5401F0ED07B685B6AB3F5501F09D095
:1046A8007B685B6AB3F5601F04D040F2B7214748C6
:1046B800FEF799F8464B00221A60FFF7E9F83861CF
:1046C80008E0FFF7E5F802463B69D31A022B01D947
:1046D800032375E03C4B1B6803F00073002BF0D1FB
:1046E8007B681B6AB3F5803F16D17B689B68002BFB
:1046F80009D07B689B68B3F5003F04D040F2CD2118
:104708003248FEF770F8304B5B6823F400327B6860
:104718009B682D4913434B602B4B5B6823F4741241
:104728007B68196A7B685B6A0B43274913434B60B4
:10473800274B01221A60FFF7ABF8386108E0FFF752
:10474800A7F802463B69D31A022B01D9032337E0A5
:104758001D4B1B6803F00073002BF0D02FE01C4B9F
:1047680000221A60FFF794F8386108E0FFF790F824
:1047780002463B69D31A022B01D9032320E0124BCE
:104788001B6803F00073002BF0D118E07B68DB692D
:10479800012B01D1012313E00B4B5B68FB60FB6825
:1047A80003F480327B681B6A9A4206D1FB6803F4E3
:1047B80070127B685B6A9A4201D0012300E00023F3
:1047C80018461837BD4680BD00100240E8C40008EE
:1047D8006000424280B584B000AF786039607B6881
:1047E800002B01D1012376E17B681B6803F00103EC
:1047F800002B16D17B681B6803F00203002B10D135
:104808007B681B6803F00403002B0AD17B681B68D4
:1048180003F00803002B04D140F236317448FDF749
:10482800E2FF3B68002B0AD03B68012B07D03B68AE
:10483800022B04D040F237316D48FDF7D4FF6D4BA1
:104848001B6803F007033A689A4210D9694B1B6842
:1048580023F0070267493B6813430B60654B1B68ED
:1048680003F007033A689A4201D0012333E17B68D9
:104878001B6803F00203002B49D07B681B6803F018
:104888000403002B05D05C4B5B685B4A43F4E06390
:1048980053607B681B6803F00803002B05D0564B58
:1048A8005B68554A43F4605353607B689B68002BF0
:1048B80024D07B689B68802B20D07B689B68902BDA
:1048C8001CD07B689B68A02B18D07B689B68B02B9A
:1048D80014D07B689B68C02B10D07B689B68D02B5A
:1048E8000CD07B689B68E02B08D07B689B68F02B1A
:1048F80004D040F25D313E48FDF775FF3E4B5B68E2
:1049080023F0F0027B689B683B4913434B607B684C
:104918001B6803F00103002B51D07B685B68002BF8
:104928000CD07B685B68012B08D07B685B68022B26
:1049380004D04FF459712E48FDF755FF7B685B682A
:10494800012B07D12C4B1B6803F40033002B15D126
:104958000123C0E07B685B68022B07D1264B1B68EC
:1049680003F00073002B09D10123B4E0224B1B682C
:1049780003F00203002B01D10123ACE01E4B5B685E
:1049880023F003027B685B681B4913434B60FEF707
:104998007FFFF8600AE0FEF77BFF0246FB68D31A48
:1049A80041F28832934201D9032394E0124B5B68A9
:1049B80003F00C027B685B689B009A42EBD10D4BBD
:1049C8001B6803F007033A689A4217D2094B1B6821
:1049D80023F0070207493B6813430B60054B1B682C
:1049E80003F007033A689A4208D0012373E000BF36
:1049F800E8C4000800200240001002407B681B68E1
:104A080003F00403002B25D07B68DB68002B18D04B
:104A18007B68DB68B3F5806F13D07B68DB68B3F520
:104A2800A06F0ED07B68DB68B3F5C06F09D07B68D8
:104A3800DB68B3F5E06F04D040F2A2312848FDF7F7
:104A4800D2FE284B5B6823F4E0627B68DB6825496B
:104A580013434B607B681B6803F00803002B26D0C8
:104A68007B681B69002B18D07B681B69B3F5806FC6
:104A780013D07B681B69B3F5A06F0ED07B681B69E8
:104A8800B3F5C06F09D07B681B69B3F5E06F04D03C
:104A980040F2A9311248FDF7A6FE124B5B6823F4D9
:104AA80060527B681B69DB000E4913434B6000F0C2
:104AB80021F802460B4B5B681B0903F00F030A49F8
:104AC800CB5C22FA03F3094A1360094B1B681846AA
:104AD800FEF79CFE002318461037BD4680BD00BF78
:104AE800E8C400080010024044C600081C0000206A
:104AF8002000002080B487B000AF0023FB600023B3
:104B0800BB6000237B6100237B6000233B611E4B5D
:104B18005B68FB60FB6803F00C03042B02D0082BD6
:104B280003D027E0194B3B6127E0FB689B0C03F09F
:104B38000F03174AD35C7B60FB6803F48033002BB8
:104B480010D0114B5B685B0C03F00103114AD35C76
:104B5800BB607B680D4A02FB03F2BB68B2FBF3F350
:104B68007B6104E07B680C4A02FB03F37B617B6991
:104B78003B6102E0054B3B6100BF3B6918461C37AF
:104B8800BD4680BC704700BF0010024000127A008A
:104B98005CC600086CC6000800093D0080B400AF80
:104BA800024B1B681846BD4680BC70471C0000209D
:104BB80080B500AFFFF7F2FF0246054B5B681B0AA2
:104BC80003F007030349CB5C22FA03F3184680BDC0
:104BD8000010024054C6000880B500AFFFF7DEFFA2
:104BE8000246054B5B68DB0A03F007030349CB5C0D
:104BF80022FA03F3184680BD0010024054C600088C
:104C080080B485B000AF78600A4B1B680A4AA2FBE3
:104C180003235B0A7A6802FB03F3FB6000BFFB68AF
:104C28005A1EFA60002BF9D100BF00BF1437BD46E9
:104C380080BC70471C000020D34D621080B582B044
:104C480000AF78607B68002B01D10123B5E07B6859
:104C58001B685C4A934227D07B681B685A4A934278
:104C680022D07B681B68B3F1804F1DD07B681B681E
:104C7800564A934218D07B681B68554A934213D012
:104C88007B681B68534A93420ED07B681B68524A64
:104C9800934209D07B681B68504A934204D040F283
:104CA80013114F48FDF79FFD7B689B68002B14D0BC
:104CB8007B689B68102B10D07B689B68202B0CD0DE
:104CC8007B689B68402B08D07B689B68602B04D06E
:104CD8004FF48A714248FDF786FD7B681B69002BFB
:104CE8000ED07B681B69B3F5807F09D07B681B6990
:104CF800B3F5007F04D040F215113948FDF773FD74
:104D08007B68DB68002B04D07B68DB68B3F5803FE9
:104D180004D34FF48B713248FDF765FD7B689B69BE
:104D2800002B08D07B689B69802B04D040F21711B8
:104D38002B48FDF758FD7B6893F83D30DBB2002B1C
:104D480006D17B68002283F83C207868FEF790F94A
:104D58007B68022283F83D207B681A687B680433ED
:104D68001946104601F01CFB7B68012283F8462097
:104D78007B68012283F83E207B68012283F83F206C
:104D88007B68012283F840207B68012283F8412058
:104D98007B68012283F842207B68012283F8432044
:104DA8007B68012283F844207B68012283F8452030
:104DB8007B68012283F83D20002318460837BD464A
:104DC80080BD00BF002C01400034014000040040B9
:104DD80000080040000C0040001000400014004093
:104DE80020C5000880B584B000AF78607B681B6878
:104DF8003D4A934227D07B681B683C4A934222D0A5
:104E08007B681B68B3F1804F1DD07B681B68384AEC
:104E1800934218D07B681B68364A934213D07B684C
:104E28001B68354A93420ED07B681B68334A93420D
:104E380009D07B681B68324A934204D04FF4E8716A
:104E48003048FDF7D0FC7B6893F83D30DBB2012B8E
:104E580001D0012344E07B68022283F83D207B686F
:104E68001B68DA687B681B6842F00102DA607B68BD
:104E78001B681D4A934218D07B681B681B4A9342E3
:104E880013D07B681B68B3F1804F0ED07B681B681A
:104E9800174A934209D07B681B68164A934204D08C
:104EA8007B681B68144A934211D17B681B689B6816
:104EB80003F00703FB60FB68062B10D07B681B68B8
:104EC8001A687B681B6842F001021A6007E07B6879
:104ED8001B681A687B681B6842F001021A6000238D
:104EE80018461037BD4680BD002C014000340140F3
:104EF8000004004000080040000C00400010004082
:104F08000014004020C5000880B582B000AF78606A
:104F18007B68002B01D10123B5E07B681B685C4AE4
:104F2800934227D07B681B685A4A934222D07B68F9
:104F38001B68B3F1804F1DD07B681B68564A9342AB
:104F480018D07B681B68554A934213D07B681B684E
:104F5800534A93420ED07B681B68524A934209D049
:104F68007B681B68504A934204D040F22C514F484A
:104F7800FDF739FC7B689B68002B14D07B689B6825
:104F8800102B10D07B689B68202B0CD07B689B680B
:104F9800402B08D07B689B68602B04D040F22D51D1
:104FA8004248FDF720FC7B681B69002B0ED07B680C
:104FB8001B69B3F5807F09D07B681B69B3F5007F57
:104FC80004D040F22E513948FDF70DFC7B68DB68B0
:104FD800002B04D07B68DB68B3F5803F04D340F234
:104FE8002F513248FDF7FFFB7B689B69002B08D0E7
:104FF8007B689B69802B04D04FF4A6612B48FDF792
:10500800F2FB7B6893F83D30DBB2002B06D17B685E
:10501800002283F83C20786800F04AF87B68022276
:1050280083F83D207B681A687B680433194610466C
:1050380001F0B6F97B68012283F846207B680122DB
:1050480083F83E207B68012283F83F207B68012299
:1050580083F840207B68012283F841207B68012285
:1050680083F842207B68012283F843207B68012271
:1050780083F844207B68012283F845207B6801225D
:1050880083F83D20002318460837BD4680BD00BF81
:10509800002C01400034014000040040000800409A
:1050A800000C0040001000400014004020C500081B
:1050B80080B483B000AF786000BF0C37BD4680BCB9
:1050C8007047000080B584B000AF786039607B68B5
:1050D8001B688A4A93420BD13B68002B62D03B681D
:1050E800042B5FD03B68082B5CD03B680C2B59D055
:1050F8007B681B68824A93420BD13B68002B51D0D6
:105108003B68042B4ED03B68082B4BD03B680C2BDC
:1051180048D07B681B68B3F1804F0BD13B68002BEC
:1051280040D03B68042B3DD03B68082B3AD03B6805
:105138000C2B37D07B681B68724A93420BD13B68B3
:10514800002B2FD03B68042B2CD03B68082B29D090
:105158003B680C2B26D07B681B686B4A93420BD1AB
:105168003B68002B1ED03B68042B1BD03B68082BE8
:1051780018D03B680C2B15D07B681B68634A934298
:105188000BD13B68002B0DD03B68042B0AD03B6841
:10519800082B07D03B680C2B04D040F2B3515C4875
:1051A800FDF721FB3B68002B09D17B6893F83E3063
:1051B800DBB2012B14BF01230023DBB222E03B68E2
:1051C800042B09D17B6893F83F30DBB2012B14BF65
:1051D80001230023DBB215E03B68082B09D17B686B
:1051E80093F84030DBB2012B14BF01230023DBB25C
:1051F80008E07B6893F84130DBB2012B14BF012330
:105208000023DBB2002B01D0012372E03B68002BA6
:1052180004D17B68022283F83E2013E03B68042B0C
:1052280004D17B68022283F83F200BE03B68082BFF
:1052380004D17B68022283F8402003E07B680222C5
:1052480083F841207B681B6801223968184601F001
:10525800F1FB7B681B68294A934204D07B681B6872
:10526800274A934201D1012300E00023002B07D0F5
:105278007B681B685A6C7B681B6842F400425A645E
:105288007B681B681D4A934218D07B681B681C4AC0
:10529800934213D07B681B68B3F1804F0ED07B68B4
:1052A8001B68184A934209D07B681B68164A9342C8
:1052B80004D07B681B68154A934211D17B681B6830
:1052C8009B6803F00703FB60FB68062B10D07B6824
:1052D8001B681A687B681B6842F001021A6007E0C5
:1052E8007B681B681A687B681B6842F001021A60B9
:1052F800002318461037BD4680BD00BF002C014072
:10530800003401400004004000080040000C004048
:1053180020C5000880B586B000AF786039607B682A
:10532800002B01D1012394E17B681B687F4A9342DB
:105338001DD07B681B687E4A934218D07B681B6827
:10534800B3F1804F13D07B681B687A4A93420ED022
:105358007B681B68784A934209D07B681B68774A48
:10536800934204D040F6D8317548FDF73CFA7B6883
:105378009B68002B14D07B689B68102B10D07B682F
:105388009B68202B0CD07B689B68402B08D07B68DF
:105398009B68602B04D040F6D9316948FDF723FAA1
:1053A8007B681B69002B0ED07B681B69B3F5807F77
:1053B80009D07B681B69B3F5007F04D040F6DA3169
:1053C8005F48FDF710FA7B689B69002B08D07B6863
:1053D8009B69802B04D040F6DB315948FDF703FA6E
:1053E8003B681B68012B0CD03B681B68022B08D05C
:1053F8003B681B68032B04D040F6DC315048FDF7AE
:10540800F2F93B689B68012B0CD03B689B68022B28
:1054180008D03B689B68032B04D040F6DD31484830
:10542800FDF7E1F93B689B69012B0CD03B689B6950
:10543800022B08D03B689B69032B04D040F6DE3171
:105448003F48FDF7D0F93B685B68002B08D03B6804
:105458005B68022B04D040F6DF313948FDF7C3F909
:105468003B685B69002B08D03B685B69022B04D062
:105478004FF43E613248FDF7B6F93B68DB68002B14
:1054880010D03B68DB68042B0CD03B68DB68082B2A
:1054980008D03B68DB680C2B04D040F6E131284883
:1054A800FDF7A1F93B68DB69002B10D03B68DB698D
:1054B800042B0CD03B68DB69082B08D03B68DB6900
:1054C8000C2B04D040F6E2311D48FDF78CF93B68FF
:1054D8001B690F2B04D940F6E3311948FDF783F90E
:1054E8003B681B6A0F2B04D940F6E4311448FDF7DA
:1054F8007AF97B68DB68002B04D07B68DB68B3F53E
:10550800803F04D340F6E5310D48FDF76CF97B6820
:1055180093F83D30DBB2002B14D17B68002283F86E
:105528003C207868FDF7F2FD0CE000BF002C01403C
:10553800003401400004004000080040000C004016
:1055480020C500087B68022283F83D207B681B6821
:105558009B687A68126823F4804323F007039360FA
:105568007B681A687B6804331946104600F018FFF8
:105578007B681B689B687B617B681B689B693B61D8
:105588007B681B681B6AFB603B681B687A6913436E
:105598007B613B6923F4407323F003033B613B6861
:1055A8009A683B689B691B0213433A6913433B6142
:1055B8003B6923F4406323F00C033B613B6923F40C
:1055C800704323F0F0033B613B68DA683B68DB69B2
:1055D8001B0213433A6913433B613B681B691A0179
:1055E8003B681B6A1B0313433A6913433B61FB681F
:1055F80023F02203FB603B685A683B685B691B0128
:105608001343FA681343FB607B681B687A699A60E6
:105618007B681B683A699A617B681B68FA681A623A
:105628007B68012283F846207B68012283F83E20AC
:105638007B68012283F83F207B68012283F842209F
:105648007B68012283F843207B68012283F83D2090
:10565800002318461837BD4680BD00BF80B584B00A
:1056680000AF786039607B6893F83E30FB737B68E5
:1056780093F83F30BB737B6893F842307B737B6849
:1056880093F843303B737B681B684D4A93421DD0A7
:105698007B681B684B4A934218D07B681B68B3F140
:1056A800804F13D07B681B68474A93420ED07B68B3
:1056B8001B68464A934209D07B681B68444A934258
:1056C80004D040F695414348FDF78DF83B68002B20
:1056D80010D1FB7B012B02D17B7B012B01D0012355
:1056E80069E07B68022283F83E207B68022283F807
:1056F800422031E03B68042B10D1BB7B012B02D147
:105708003B7B012B01D0012355E07B68022283F803
:105718003F207B68022283F843201DE0FB7B012B9E
:1057280008D1BB7B012B05D17B7B012B02D13B7BB5
:10573800012B01D001233EE07B68022283F83E2042
:105748007B68022283F83F207B68022283F842208C
:105758007B68022283F843203B68002B03D03B6818
:10576800042B08D00FE07B681B6801220021184633
:1057780001F060F916E07B681B68012204211846D5
:1057880001F058F90EE07B681B68012200211846D9
:1057980001F050F97B681B6801220421184601F0CA
:1057A80049F900BF7B681B681A687B681B6842F070
:1057B80001021A60002318461037BD4680BD00BF9D
:1057C800002C014000340140000400400008004063
:1057D800000C004020C5000880B582B000AF78609A
:1057E8007B681B681B6903F00203022B22D17B68CC
:1057F8001B68DB6803F00203022B1BD17B681B6864
:105808006FF002021A617B6801221A777B681B68B5
:105818009B6903F00303002B03D0786800F0A5FD13
:1058280005E0786800F098FD786800F0A7FD7B68CF
:1058380000221A777B681B681B6903F00403042B9A
:1058480022D17B681B68DB6803F00403042B1BD19F
:105858007B681B686FF004021A617B6802221A7762
:105868007B681B689B6903F44073002B03D078683E
:1058780000F07BFD05E0786800F06EFD786800F0C8
:105888007DFD7B6800221A777B681B681B6903F023
:105898000803082B22D17B681B68DB6803F0080328
:1058A800082B1BD17B681B686FF008021A617B68A4
:1058B80004221A777B681B68DB6903F00303002B5B
:1058C80003D0786800F051FD05E0786800F044FDE9
:1058D800786800F053FD7B6800221A777B681B68A4
:1058E8001B6903F01003102B22D17B681B68DB684F
:1058F80003F01003102B1BD17B681B686FF010029C
:105908001A617B6808221A777B681B68DB6903F4D5
:105918004073002B03D0786800F027FD05E0786815
:1059280000F01AFD786800F029FD7B6800221A77DC
:105938007B681B681B6903F00103012B0ED17B6890
:105948001B68DB6803F00103012B07D17B681B6828
:105958006FF001021A617868FCF74CFE7B681B68DF
:105968001B6903F08003802B0ED17B681B68DB6802
:1059780003F08003802B07D17B681B686FF08002DF
:105988001A61786801F05BFA7B681B681B6903F091
:105998004003402B0ED17B681B68DB6803F0400393
:1059A800402B07D17B681B686FF040021A6178684A
:1059B80000F0EDFC7B681B681B6903F02003202BBB
:1059C8000ED17B681B68DB6803F02003202B07D10E
:1059D8007B681B686FF020021A61786801F026FA6C
:1059E80000BF0837BD4680BD80B586B000AFF860FF
:1059F800B9607A600023FB757B68002B10D07B6848
:105A0800042B0DD07B68082B0AD07B680C2B07D0A1
:105A18007B683C2B04D041F27E019048FCF7E3FE02
:105A2800BB681B68602B08D0BB681B68702B04D050
:105A380041F27F018948FCF7D6FEBB689B68002BC2
:105A480008D0BB689B68022B04D04FF4845183486C
:105A5800FCF7C9FEBB681B69002B08D0BB681B6933
:105A6800042B04D041F281017C48FCF7BCFEFB68A2
:105A780093F83C30012B01D1022347E1FB68012256
:105A880083F83C207B680C2B00F2388101A252F885
:105A980023F000BFD15A0008055D0008055D000825
:105AA800055D0008575B0008055D0008055D0008F6
:105AB800055D0008DF5B0008055D0008055D00085E
:105AC800055D00087D5C0008FB681B68644A93421A
