:020000040800F2
:1000000000000120E11500085D13000863130008DB
:10001000691300086F130008751300080000000042
:100020000000000000000000000000007B1300083A
:100030008713000800000000931300089F130008B6
:100040002916000829160008291600082916000894
:100050002916000829160008291600082916000884
:100060002916000829160008291600082916000874
:100070002916000829160008291600082916000864
:100080002916000829160008291600082916000854
:100090002916000829160008291600082916000844
:1000A0002916000829160008291600082916000834
:1000B0002916000829160008291600082916000824
:1000C0002916000829160008291600082916000814
:1000D0002916000829160008291600082916000804
:1000E00029160008291600082916000829160008F4
:1000F00029160008291600082916000829160008E4
:1001000029160008291600082916000829160008D3
:1001100029160008291600082916000829160008C3
:1001200029160008291600082916000829160008B3
:1001300000000000000000000000000000000000BF
:1001400000000000000000000000000000000000AF
:10015000000000000000000000000000000000009F
:10016000000000000000000000000000000000008F
:10017000000000000000000000000000000000007F
:10018000000000000000000000000000000000006F
:10019000000000000000000000000000000000005F
:1001A000000000000000000000000000000000004F
:1001B000000000000000000000000000000000003F
:1001C000000000000000000000000000000000002F
:1001D000000000000000000000000000000000001F
:0401E0005FF8E0F1F3
:1001E40010B5054C237833B9044B13B10448AFF36D
:1001F40000800123237010BD78000020000000005F
:10020400EC58000808B5034B1BB103490348AFF38E
:10021400008008BD000000007C000020EC580008AD
:1002240080B586B000AF0346FB7107F10C030022D2
:100234001A605A609A60FB79FB6001233B610723D3
:100244007B6107F10C0319460C4801F025FE0346B7
:10025400002B01D001F03CF8084801F00DFC4FF4EC
:10026400FA71064801F0CEFC044801F0EDFD0346A6
:100274009BB218461837BD4680BD00BF400400201D
:1002840080B483B000AF00237B6002E07B6801335D
:100294007B607B68092BF9DD00BF00BF0C37BD46CE
:1002A40080BC704780B582B000AF0023FB7100238F
:1002B400BB71204B01221A601F4B00221A60FFF70A
:1002C400DFFF1D4B01221A601A4B00221A60FFF750
:1002D400D7FF184B01221A60174B00221A60FFF750
:1002E400CFFF0023FB711CE0124B00221A60FFF7C2
:1002F400C7FFFFF7C5FF0420FFF792FF03461A4626
:10030400BB79120991B20D4A22F81310BB7901335B
:10031400BB71084B01221A60FFF7B2FFFB7901336E
:10032400FB7197F90730002BDEDA00BF00BF0837F6
:10033400BD4680BD948123429081234294000020D5
:1003440080B500AFFFF7AEFF00F002F800BF80BD3C
:1003540080B400AF864B1A88864B1A80864B0522E0
:100364001A8017E0844B1B881A46814B33F81220FD
:10037400804B1B889A4207D37F4B1B881A467C4BC1
:1003840033F812207B4B1A807B4B1B8801339AB2C3
:10039400794B1A80784B1B887A2BE3D9744B1A88D3
:1003A400764B1A80744B05221A8017E0724B1B8817
:1003B4001A466F4B33F81220704B1B889A4207D8A9
:1003C4006D4B1B881A466A4B33F812206B4B1A800C
:1003D400694B1B8801339AB2674B1A80664B1B88A2
:1003E4007A2BE3D9634B1B881A46644B1B8813444E
:1003F400DA0F13445B10DAB2614B1A705E4B0522BC
:100404001A804CE05C4B1B881A46594B33F8122077
:100414005B4B1B789BB29A423BD9574B1B880133E9
:10042400534A32F81320564B1B789BB29A4230D968
:10043400514B1B8802334E4A32F81320504B1B7821
:100444009BB29A4225D94C4B1B880333484A32F855
:1004540013204B4B1B789BB29A421AD2464B1B88F3
:100464000433434A32F81320454B1B789BB29A421B
:100474000FD2414B1B8805333D4A32F81320404BC1
:100484001B789BB29A4204D23B4B1A883D4B1A808C
:1004940009E0394B1B8801339AB2374B1A80364B2B
:1004A4001B88752BAED9384B76221A804CE0364B1C
:1004B4001B881A462E4B33F81220314B1B789BB203
:1004C4009A423BD2304B1B880133294A32F813201D
:1004D4002B4B1B789BB29A4230D22B4B1B88023396
:1004E400234A32F81320264B1B789BB29A4225D21A
:1004F400254B1B8803331E4A32F81320204B1B78EC
:100504009BB29A421AD9204B1B880433184A32F8FA
:1005140013201B4B1B789BB29A420FD91A4B1B8892
:100524000533134A32F81320154B1B789BB29A42B9
:1005340004D9154B1A88154B1A8009E0124B1B88F5
:10054400013B9AB2104B1A800F4B1B88052BAED877
:100554000E4B1B881A460B4B1B881344DA0F1344AB
:100564005B10DAB20A4B1A7000BFBD4680BC7047FC
:10057400940000201402002016020020180200201B
:100584003C0400201A0200201C0200201E0200204D
:100594003D04002080B582B000AF012000F0D4F803
:1005A4000346002B1AD02F4B1B78002B0CBF0123C2
:1005B4000023DBB21A462B4B1A702A4B1B78002BF4
:1005C40006D0294804F040FA284804F03DFA05E032
:1005D400274804F039FA274804F036FA214B1B78EF
:1005E400002B1AD0244804F02FFAFFF7A9FE234B5E
:1005F4001B781946224804F0A1F9224B1B781946AE
:10060400214804F09BF91C4804F01EFA00F044F859
:100614000346184600F062F820E01C4804F014FA7F
:10062400FFF740FE0023FB7114E0FB7903F007039E
:10063400DBB2002B02D1104804F006FAF979FB79F9
:10064400134A32F813301A46124804F077F9FB794A
:100654000133FB7197F90730002BE6DA00BF083746
:10066400BD4680BD2002002004590008205900081E
:100674004459000854590008785900083D040020E2
:100684007C5900083C0400209C590008D0590008FB
:1006940094000020F459000880B483B000AF002314
:1006A4007B600EE00B4A7B6832F81330DB089BB2A8
:1006B400D9B2094A7B6813440A461A707B6801332D
:1006C4007B607B687F2BEDDD034B18460C37BD4602
:1006D40080BC7047940000209401002080B584B051
:1006E40000AF786000F0E7FA0023FB6013E0FB68DA
:1006F4007A6813441B781F2B0AD8FB6898B2FB68EE
:100704007A6813441B789BB20122194600F0BAF9A7
:10071400FB680133FB60FB687F2BE8DD00F0D2FA55
:1007240000BF1037BD4680BD80B500AF0821054825
:1007340002F0B6F90346002B01D1012300E00023A7
:10074400184680BD0020014080B582B000AF03464A
:10075400FB71FFF7E9FF0346012B0ED1114B1B88F8
:100764001A46FB7901335B009A420CDA0D4B1B8865
:1007740001339AB20B4B1A8005E00A4B00221A800F
:10078400094B00221A80074B1B88022B04D1064B0D
:1007940001221A80012300E0002318460837BD46D1
:1007A40080BD00BF240200202202002080B483B058
:1007B40000AF78607B689B6903F00203022B0CBFD7
:1007C40001230023DBB218460C37BD4680BC7047BA
:1007D40080B483B000AF78607B681B6843F4807298
:1007E4007B681A6000BF0C37BD4680BC704780B47C
:1007F40083B000AF78607B681B6843F400727B6849
:100804001A6000BF0C37BD4680BC704780B483B00B
:1008140000AF78600B46FB707B681B6923F0FF0216
:10082400FB781A437B681A6100BF0C37BD4680BC55
:100834007047000080B582B000AF03460A46FB71E2
:100844001346BB7100BF1F48FFF7B0FF0346002BE0
:10085400F9D11C48FFF7BCFF00BF1B49194800F041
:10086400BDFA0346002BF8D000227821154800F089
:1008740099FA00BF1549134800F0B0FA0346002B5B
:10088400F8D0FB7919460F48FFF7C0FF00BF1049A5
:100894000C4800F0A3FA0346002BF8D0BB791946A4
:1008A4000848FFF7B3FF00BF0949064800F096FA6D
:1008B4000346002BF8D00348FFF799FF00BF083721
:1008C400BD4680BD005400400100030082000700C3
:1008D4008400070080B500AF00F05AFA642000F0ED
:1008E40005FFAE210020FFF7A5FFA6210020FFF79A
:1008F400A1FFAE210020FFF79DFFD5210020FFF7C7
:1009040099FF80210020FFF795FFA8210020FFF721
:1009140091FF1F210020FFF78DFFD3210020FFF757
:1009240089FF00210020FFF785FF40210020FFF709
:1009340081FF8D210020FFF77DFF14210020FFF7A8
:1009440079FF20210020FFF775FF02210020FFF727
:1009540071FFA1210020FFF76DFFC8210020FFF7E0
:1009640069FFDA210020FFF765FF02210020FFF76D
:1009740061FF81210020FFF75DFFCF210020FFF7F9
:1009840059FFD9210020FFF755FFF1210020FFF77F
:1009940051FFDB210020FFF74DFF40210020FFF72E
:1009A40049FF2E210020FFF745FFA4210020FFF777
:1009B40041FFA6210020FFF73DFFAF210020FFF7F4
:1009C40039FF002000F046F800F00EF8054B002235
:1009D4001A80044B00225A80024B01225A7100BF34
:1009E40080BD00BF2804002080B582B000AF002382
:1009F400FB7125E0FB79503BDBB219460020FFF781
:100A040019FF00210020FFF715FF10210020FFF738
:100A140011FF0023BB710CE0BA79FB79DB011344AD
:100A24000B4AD35C19464020FFF704FFBB7901331E
:100A3400BB7197F90630002BEEDAFB790133FB71B9
:100A4400FB79072BD6D900BF00BF0837BD4680BD50
:100A54002802002080B582B000AF0346FB71FB7909
:100A6400002B01D1002300E0FF234FF4007219464C
:100A7400034803F05BFF00BF0837BD4680BD00BFDD
:100A84002802002080B483B000AF0346FB800B46ED
:100A9400BB801346FB70FB887F2B48D8BB881F2B79
:100AA40045D8254B1B79002B06D0FB78002B0CBFB7
:100AB40001230023DBB2FB70FB78012B1AD1FA88E7
:100AC400BB88DB0898B20346DB0113441B4AD35CA2
:100AD4005AB2BB8803F00703012101FA03F35BB2A6
:100AE400134359B2FA880346DB011344C9B2134ACB
:100AF400D1541DE0FA88BB88DB0898B20346DB01B9
:100B040013440E4AD35C5AB2BB8803F00703012195
:100B140001FA03F35BB2DB435BB2134059B2FA88C8
:100B24000346DB011344C9B2044AD15400E000BFB8
:100B34000C37BD4680BC70472804002028020020E2
:100B440080B483B000AF03460A46FB801346BB80E3
:100B5400054AFB881380044ABB88538000BF0C37C6
:100B6400BD4680BC704700BF2804002080B586B015
:100B740000AF03463960FB711346BB713A4B1B88C7
:100B84001A463B681B7813447F2B07DC364B5B8883
:100B94001A463B685B7813441F2B01DD00235EE09B
:100BA40000237B614BE03B685A68FB79203B396842
:100BB400497801FB03F319467B690B445B0013443A
:100BC4001B88FB6000233B6130E0FA683B6902FA52
:100BD40003F303F40043002B10D0234B1A883B6922
:100BE4009BB2134498B2204B5A887B699BB213443E
:100BF4009BB2BA791946FFF745FF14E01A4B1A88DD
:100C04003B699BB2134498B2174B5A887B699BB2D9
:100C1400134499B2BB79002B0CBF01230023DBB230
:100C24001A46FFF72FFF3B6901333B613B681B7892
:100C34001A463B699342C8D37B6901337B613B68A5
:100C44005B781A467B699342ADD3074B1A883B689D
:100C54001B789BB213449AB2034B1A80FB79184653
:100C64001837BD4680BD00BF2804002080B584B07D
:100C740000AFF860B9601346FB7112E0FB681B78A3
:100C8400FA79B9681846FFF771FF03461A46FB68FC
:100C94001B789A4202D0FB681B7808E0FB6801339A
:100CA400FB60FB681B78002BE8D1FB681B781846B7
:100CB4001037BD4680BD80B500AF0020FFF7CAFEE7
:100CC40000BF80BD80B500AFFFF78EFE00BF80BDC2
:100CD40080B582B000AF7860084611461A460346D4
:100CE400FB700B46BB7013467B707B78002B01D0E6
:100CF400FFF7E1FFFB789BB2BA7892B2114618462F
:100D0400FFF71EFF012206497868FFF7AFFF3B7C1F
:100D1400002B01D0FFF7D6FF00BF0837BD4680BDCA
:100D24000000002080B584B002AF78600846114608
:100D34001A460346FB700B46BB7013467B70FB7868
:100D4400002B12D0FB78032B0FD8FB781A469200A5
:100D540013445B00DBB20A3BDAB2B9787B780093C8
:100D64000B4600217868FFF7B3FF00BF0837BD4684
:100D740080BD80B483B000AF78607B681B6843F0AB
:100D840001027B681A6000BF0C37BD4680BC704707
:100D940080B500AF0248FFF7ECFF00BF80BD00BF85
:100DA4000054004080B483B000AF78600B46FB7001
:100DB4001346BB70BB78002B04D0FB7843F00103CF
:100DC400FB7003E0FB7823F00103FB70FA787B6887
:100DD4001A6100BF0C37BD4680BC704780B487B031
:100DE40000AF7860396000233B610023FB6000237F
:100DF400BB600023FB757B685B69FB607B689B6958
:100E0400BB60BB681B04BB60FA68BB68134323F078
:100E14007F433B613A693B6813403A689A4202D186
:100E24000123FB7501E00023FB75FB7D18461C378D
:100E3400BD4680BC7047000080B582B000AF7860CA
:100E4400391D4FF6FF730122034802F0EDFE7B6863
:100E540018460837BD4680BD7004002080B500AF39
:100E640001220349034802F062FF00BF80BD00BFB6
:100E74002E0400207004002080B500AFFFF7EEFFC1
:100E8400FFF728FD0123012201210248FFF74AFF51
:100E940000BF80BD045A000880B500AFFFF77AFB9D
:100EA400642000F023FC00BF80BD000080B584B046
:100EB40000AF3B1D00221A605A609A60184B194A11
:100EC4001A60174B00229A60154B00221A73144BB8
:100ED40000221A75124B4FF46022DA61104B002283
:100EE4005A600F4B01221A610D4800F023FC03469F
:100EF400002B01D000F0ECF904237B600123BB60DC
:100F04000723FB603B1D1946054800F0C5FF034657
:100F1400002B01D000F0DCF900BF1037BD4680BDC6
:100F240040040020003C014080B588B000AF7860E8
:100F340007F1100300221A605A609A60DA607B6835
:100F44001B68144A934221D1134B9B69124A43F400
:100F540000439361104B9B6903F40043FB60FB68FF
:100F64000D4B9B690C4A43F0800393610A4B9B69C8
:100F740003F08003BB60BB6840233B6103237B61B8
:100F840007F110031946054801F0F6FA00BF2037AF
:100F9400BD4680BD003C014000100240001C0140E1
:100FA40080B588B000AF07F1100300221A605A60C0
:100FB4009A60DA60294B9B69284A43F08003936165
:100FC400264B9B6903F08003FB60FB68234B9B6902
:100FD400224A43F480739361204B9B6903F480732A
:100FE400BB60BB681D4B9B691C4A43F004039361BF
:100FF4001A4B9B6903F004037B607B68174B9B6966
:10100400164A43F008039361144B9B6903F00803E9
:101014003B603B6800223021114801F067FD30231A
:101024003B6101237B610023BB610223FB6107F168
:10103400100319460A4801F09FFA38233B61002344
:101044007B610123BB6107F110031946054801F0D8
:1010540093FA00BF2037BD4680BD00BF0010024098
:10106400001C01400020014080B483B000AF7860D0
:101074007B681B6823F080027B681A6000BF0C3712
:10108400BD4680BC704780B483B000AF78607B6895
:101094001B6823F040027B681A6000BF0C37BD4612
:1010A40080BC704780B483B000AF786039607B68DF
:1010B400DB6823F0FE023B681A437B68DA6000BFFA
:1010C4000C37BD4680BC704780B483B000AF7860F5
:1010D4007B68DB6823F001027B68DA6000BF0C37B1
:1010E400BD4680BC7047000080B485B000AF786016
:1010F400084BDA6907497B681343CB61054BDA690E
:101104007B681340FB60FB6800BF1437BD4680BC9E
:10111400704700BF0010024080B485B000AF786013
:10112400084B9A6907497B6813438B61054B9A699D
:101134007B681340FB60FB6800BF1437BD4680BC6E
:10114400704700BF0010024080B58CB000AF07F1BB
:10115400180300221A605A609A60DA601A615A61B0
:101164003B1D00221A605A609A60DA601A610820F6
:10117400FFF7D2FF4CF2C0037B600923BB6003235B
:10118400FB6004233B613B1D1946164803F022F81B
:101194004FF40010FFF7A8FF1348FFF795FF12481C
:1011A400FFF771FF1048FFF75FFF0023BB610F4B90
:1011B400FB6100233B6200237B624FF48063BB62CC
:1011C4004FF48043FB6207F118031946064803F005
:1011D400D9F900210448FFF765FF00BF3037BD4649
:1011E40080BD00BF000C014000540040801A06007E
:1011F40080B500AF00F018FA00F00DF8FFF7D0FE4C
:10120400FFF754FE00F074F9FFF79EFFFFF734FE7A
:10121400FFF742FEFCE780B596B000AF07F130035C
:1012240028220021184603F081FB07F11C03002249
:101234001A605A609A60DA601A613B1D00221A60D3
:101244005A609A60DA601A615A6101233B634FF471
:1012540080337B630023BB6301233B640223FB6471
:101264004FF480333B654FF4E0137B6507F13003A3
:10127400184601F06DFC0346002B01D000F028F85D
:101284000F23FB6102233B6200237B624FF48063E4
:10129400BB620023FB6207F11C030221184601F024
:1012A400C7FF0346002B01D000F012F802237B6035
:1012B4004FF40043FB603B1D184602F0EDF9034672
:1012C400002B01D000F004F800BF5837BD4680BDA4
:1012D40080B400AF72B600BFFEE780B483B000AF45
:1012E4007860396000BF0C37BD4680BC7047000091
:1012F40080B584B000AF164B9B69154A43F00103D7
:101304009361134B9B6903F00103BB60BB68104BF3
:10131400DB690F4A43F08053D3610D4BDB6903F063
:1013240080537B607B68052001F0CEF8094B5B6835
:10133400FB60FB6823F0E063FB60FB6843F0007331
:10134400FB60044AFB68536000BF1037BD4680BD94
:10135400001002400000014080B400AFFEE780B4FA
:1013640000AFFEE780B400AFFEE780B400AFFEE755
:1013740080B400AFFEE780B400AF00BFBD4680BCC0
:10138400704780B400AF00BFBD4680BC704780B4D6
:1013940000AF00BFBD4680BC704780B500AF00F011
:1013A40089F900BF80BD80B586B000AFF860B96030
:1013B4007A6000237B610AE0AFF300800146BB68DA
:1013C4005A1CBA60CAB21A707B6901337B617A69AC
:1013D4007B689A42F0DB7B6818461837BD4680BDAF
:1013E40080B586B000AFF860B9607A6000237B6195
:1013F40009E0BB685A1CBA601B781846FFF71CFD4D
:101404007B6901337B617A697B689A42F1DB7B6893
:1014140018461837BD4680BD80B483B000AF7860ED
:101424004FF0FF3318460C37BD4680BC704780B47C
:1014340083B000AF786039603B684FF400525A6063
:10144400002318460C37BD4680BC704780B483B077
:1014540000AF7860012318460C37BD4680BC704746
:1014640080B485B000AFF860B9607A600023184694
:101474001437BD4680BC704780B586B000AF786035
:10148400144A154BD31A7B617B693B61134B1B6870
:10149400002B02D1114B124A1A60104B1A687B6858
:1014A40013443A699A4207D203F016FA03460C220F
:1014B4001A604FF0FF3309E0084B1B68FB60074BD1
:1014C4001A687B681344054A1360FB68184618378A
:1014D400BD4680BD0000012000040000300400204F
:1014E400D004002080B400AF00BFBD4680BC70476C
:1014F40080B500AF114B124A1A60104B4FF4E13221
:101504005A600E4B00229A600C4B0022DA600B4B9F
:1015140000221A61094B0C225A61084B00229A617D
:10152400064B0022DA61054802F0C4FA0346002B98
:1015340001D0FFF7CDFE00BF80BD00BF70040020C6
:101544000038014080B588B000AF786007F110031F
:1015540000221A605A609A60DA607B681B681C4A31
:10156400934231D11B4B9B691A4A43F480439361E4
:10157400184B9B6903F48043FB60FB68154B9B6924
:10158400144A43F004039361124B9B6903F0040370
:10159400BB60BB684FF400733B6102237B61032390
:1015A400FB6107F1100319460B4800F0E5FF4FF407
:1015B40080633B6100237B610023BB6107F110035F
:1015C4001946054800F0D8FF00BF2037BD4680BD4E
:1015D400003801400010024000080140FFF782FF7C
:1015E4000B480C490C4A002302E0D458C45004337D
:1015F400C4188C42F9D3094A094C002301E0136052
:101604000432A242FBD303F06DF9FFF7F1FD7047FA
:1016140000000020780000203464000878000020D6
:10162400CC040020FEE7000080B500AF084B1B6827
:10163400074A43F010031360032000F045FF032022
:1016440000F008F8FFF754FE0023184680BD00BFE1
:101654000020024080B582B000AF7860124B1A6857
:10166400124B1B7819464FF47A73B3FBF1F3B2FBB8
:10167400F3F3184600F074FF0346002B01D0012356
:101684000EE07B680F2B0AD8002279684FF0FF30F8
:1016940000F03AFF064A7B681360002300E0012350
:1016A40018460837BD4680BD080000201000002001
:1016B4000C00002080B400AF054B1B781A46054B84
:1016C4001B681344034A136000BFBD4680BC7047C7
:1016D40010000020B804002080B400AF024B1B6847
:1016E4001846BD4680BC7047B804002080B584B05D
:1016F40000AF7860FFF7F0FFB8607B68FB60FB68C1
:10170400B3F1FF3F05D00A4B1B781A46FB6813441C
:10171400FB6000BFFFF7E0FF0246BB68D31AFA681C
:101724009A42F7D800BF00BF1037BD4680BD00BF46
:101734001000002080B586B000AF78600023FB75F0
:1017440000233B610023BB600023FB607B68002B0C
:1017540001D1012388E17B681B688C4A93420ED037
:101764007B681B688A4A934209D07B681B68894A54
:10177400934204D040F2A9118748FFF7AEFD7B687D
:101784005B68002B09D07B685B68B3F5006F04D0FD
:101794004FF4D5718048FFF7A0FD7B689B68002B50
:1017A40009D07B689B68B3F5807F04D040F2AB110D
:1017B4007948FFF792FD7B681B7B002B08D07B6880
:1017C4001B7B012B04D04FF4D6717348FFF785FDC2
:1017D4007B68DB69002B44D07B68DB69B3F5003F91
:1017E4003FD07B68DB69B3F5C02F3AD07B68DB69F7
:1017F400B3F5002F35D07B68DB69B3F5202F30D0EB
:101804007B68DB69B3F5402F2BD07B68DB69002B49
:1018140027D07B68DB69B3F5003F22D07B68DB69A6
:10182400B3F5C02F1DD07B68DB69B3F5202F18D02A
:101834007B68DB69B3F5402F13D07B68DB69B3F5B4
:10184400802F0ED07B68DB69B3F5402F09D07B680D
:10185400DB69B3F5602F04D040F2AD114E48FFF7B9
:101864003CFD7B689B68002B2AD07B681B69002B9E
:1018740003D07B681B69102B04D940F2B111464890
:10188400FFF72BFD7B681B7D002B08D07B681B7D3D
:10189400012B04D04FF4D9713F48FFF71EFD7B683C
:1018A4001B7D002B0CD07B689B69002B03D07B68CD
:1018B4009B69082B04D940F2B5113748FFF70DFD99
:1018C4007B689B6A002B09D17B680022DA627B6803
:1018D400002283F824207868FFF726FB786800F05C
:1018E40001FD0346FB757B689B6A03F01003002B24
:1018F40040F0B180FB7D002B40F0AD807B689B6A9B
:1019040023F4885323F0020343F002027B689A62B3
:101914007B685A687B681B681E498B420AD17B68C6
:10192400DB69B3F5402F02D07B68DB6904E04FF438
:10193400002301E07B68DB691A437B681B7B5B0047
:101944001343BA681343BB607B689B68B3F5807F1D
:1019540003D07B689B68012B02D14FF4807300E0B5
:1019640000233A6913433B617B681B7D012B21D122
:101974007B681B7B002B11D17B689B69013B5A035D
:101984003B69134343F400633B6113E000240140CB
:1019940000280140003C0140185A00087B689B6AFB
:1019A40043F020027B689A627B68DB6A43F00102A1
:1019B4007B68DA627B681B685B6823F469417B6837
:1019C4001B683A690A435A607B681B689A68284B0B
:1019D40013407A681268B9680B4393607B689B680C
:1019E400B3F5807F03D07B689B68012B04D17B68AF
:1019F4001B69013B1B05FB607B681B68DB6A23F4E6
:101A040070017B681B68FA680A43DA627B681B68AA
:101A14009A68184B1340BA689A420BD17B6800222B
:101A2400DA627B689B6A23F0030343F001027B685C
:101A34009A6218E07B689B6A23F0120343F0100259
:101A44007B689A627B68DB6A43F001027B68DA6236
:101A54000123FB7507E07B689B6A43F010027B68F7
:101A64009A620123FB75FB7D18461837BD4680BD7D
:101A7400FDF7E1FFFE0E1FFF80B584B000AF786074
:101A84000023FB737B681B685A4A93420ED07B6821
:101A94001B68594A934209D07B681B68574A934292
:101AA40004D040F211415648FFF717FC7B6893F8C5
:101AB4002430012B01D1022398E07B68012283F8B2
:101AC4002420786800F0B4FB0346FB73FB7B002BF7
:101AD40040F087807B689B6A23F4407323F0010302
:101AE40043F480727B689A627B681B68424A934223
:101AF40005D1404B5B6803F47023002B15D17B6840
:101B04009B6A23F480127B689A627B681B685B681B
:101B140003F48063002B26D07B689B6A23F4405334
:101B240043F480527B689A621DE07B689B6A43F4AD
:101B340080127B689A627B681B682E4A934204D0A9
:101B44007B681B682C4A93420DD12A4B5B6803F4D3
:101B54008063002B07D07B689B6A23F4405343F4D3
:101B640080527B689A627B689B6A03F48053002BE3
:101B740006D07B68DB6A23F006027B68DA6202E047
:101B84007B680022DA627B68002283F824207B6869
:101B94001B686FF002021A607B681B689B6803F481
:101BA4006023B3F5602F13D17B681B68124A9342FC
:101BB40005D1104B5B6803F47023002B08D17B68BC
:101BC4001B689A687B681B6842F4A0029A600CE068
:101BD4007B681B689A687B681B6842F480129A6071
:101BE40003E07B68002283F82420FB7B184610372F
:101BF400BD4680BD0024014000280140003C014056
:101C0400185A000890B587B000AF78603960002397
:101C14007B610023FB6000233B617B681B68804A77
:101C240093420ED07B681B687E4A934209D07B683E
:101C34001B687D4A934204D040F2B3417B48FFF7CE
:101C44004CFBFFF749FD78617B681B689B6803F4D4
:101C54008073002B0BD07B689B6A43F020027B6867
:101C64009A627B68002283F824200123D3E07B68F6
:101C74001B685B6803F48073002B31D17B681B689D
:101C8400DB6A03F47003002B2AD121E03B68B3F133
:101C9400FF3F1DD03B68002B07D0FFF71DFD024618
:101CA4007B69D31A3A689A4212D27B681B681B6814
:101CB40003F00203002B0BD17B689B6A43F0040200
:101CC4007B689A627B68002283F824200323A2E0C5
:101CD4007B681B681B6803F00203002BD6D070E0FE
:101CE400534B1C68022001F0EDFD0346B4FBF3F2F4
:101CF4007B681B6819694F4B0B40002B18D17B681C
:101D04001B68D9684C4B0B40002B11D17B681B68B6
:101D140019694A4B0B40002B08D17B681B68D968B2
:101D2400474B0B40002B01D1142320E029231EE054
:101D34007B681B681969414B0B40002B06D17B68FB
:101D44001B68D9683E4B0B40002B0DD07B681B6889
:101D540019693C4B0B40002B08D17B681B68D96880
:101D6400384B0B40002B01D1542300E0FC2302FB31
:101D740003F33B6121E03B68B3F1FF3F1AD03B68BA
:101D8400002B07D0FFF7A8FC02467B69D31A3A68F8
:101D94009A420FD2FB683A699A420BD97B689B6AD4
:101DA40043F004027B689A627B68002283F8242053
:101DB400032330E0FB680133FB60FB683A699A4215
:101DC400D9D87B681B686FF012021A607B689B6A23
:101DD40043F400727B689A627B681B689B6803F417
:101DE4006023B3F5602F15D17B681B7B002B11D1C9
:101DF4007B689B6A23F480727B689A627B689B6A27
:101E040003F48053002B05D17B689B6A43F00102E5
:101E14007B689A62002318461C37BD4690BD00BFFC
:101E24000024014000280140003C0140185A0008E9
:101E34000800002024499224244992009224491243
:101E4400922449004992240080B582B000AF7860A2
:101E54007B681B680C4A93420ED07B681B680B4A54
:101E6400934209D07B681B68094A934204D040F22C
:101E7400E5610848FFF731FA7B681B68DB6C18469C
:101E84000837BD4680BD00BF002401400028014042
:101E9400003C0140185A000880B584B000AF786057
:101EA40039600023FB730023BB607B681B688B4A8B
:101EB40093420ED07B681B68894A934209D07B68A1
:101EC4001B68884A934204D040F2D6718648FFF7D3
:101ED40004FA3B681B68002B48D03B681B68012B45
:101EE40044D03B681B68022B40D03B681B68032B23
:101EF4003CD03B681B68042B38D03B681B68052B1F
:101F040034D03B681B68062B30D03B681B68072B1A
:101F14002CD03B681B68082B28D03B681B68092B16
:101F240024D03B681B680A2B20D03B681B680B2B12
:101F34001CD03B681B680C2B18D03B681B680D2B0E
:101F440014D03B681B680E2B10D03B681B680F2B0A
:101F54000CD03B681B68102B08D03B681B68112B06
:101F640004D040F2D7716048FFF7B7F93B685B686B
:101F7400012B40D03B685B68022B3CD03B685B681C
:101F8400032B38D03B685B68042B34D03B685B6818
:101F9400052B30D03B685B68062B2CD03B685B6814
:101FA400072B28D03B685B68082B24D03B685B6810
:101FB400092B20D03B685B680A2B1CD03B685B680C
:101FC4000B2B18D03B685B680C2B14D03B685B6808
:101FD4000D2B10D03B685B680E2B0CD03B685B6804
:101FE4000F2B08D03B685B68102B04D04FF4FB61C7
:101FF4003D48FFF772F93B689B68002B20D03B6893
:102004009B68012B1CD03B689B68022B18D03B6853
:102014009B68032B14D03B689B68042B10D03B684F
:102024009B68052B0CD03B689B68062B08D03B684B
:102034009B68072B04D040F2D9712B48FFF74DF968
:102044007B6893F82430012B01D10223E5E07B68FF
:10205400012283F824203B685B68062B1CD87B682C
:102064001B68596B3B685A6813469B001344053B35
:102074001F2202FA03F3DB4319403B6818683B68EC
:102084005A6813469B001344053B00FA03F27B682D
:102094001B680A435A6345E03B685B680C2B25D8F0
:1020A4007B681B68196B3B685A6813469B00134492
:1020B400233B1F2202FA03F3DB4319403B681868F1
:1020C4003B685A6813469B001344233B00FA03F20F
:1020D4007B681B680A431A6324E000BF00240140A4
:1020E40000280140003C0140185A00087B681B6826
:1020F400D96A3B685A6813469B001344413B1F222C
:1021040002FA03F3DB4319403B6818683B685A68DA
:1021140013469B001344413B00FA03F27B681B689F
:102124000A43DA623B681B68092B1CD97B681B686D
:10213400D9683B681A6813465B0013441E3B0722A8
:1021440002FA03F3DB4319403B6898683B681A685A
:1021540013465B0013441E3B00FA03F27B681B68C2
:102164000A43DA6019E07B681B6819693B681A68DE
:1021740013465B001344072202FA03F3DB431940BE
:102184003B6898683B681A6813465B00134400FA7E
:1021940003F27B681B680A431A613B681B68102BB7
:1021A40003D03B681B68112B32D17B681B681D4A26
:1021B400934225D17B681B689B6803F40003002BC2
:1021C40026D17B681B689A687B681B6842F400020E
:1021D4009A603B681B68102B1AD1134B1B68134A77
:1021E400A2FB03239A0C13469B0013445B00BB60C1
:1021F40002E0BB68013BBB60BB68002BF9D107E080
:102204007B689B6A43F020027B689A620123FB731C
:102214007B68002283F82420FB7B18461037BD46D8
:1022240080BD00BF002401400800002083DE1B4362
:1022340080B584B000AF78600023FB600023BB60EE
:102244007B681B689B6803F00103012B40D07B680B
:102254001B689A687B681B6842F001029A601F4BF6
:102264001B681F4AA2FB03239B0CBB6002E0BB68F4
:10227400013BBB60BB68002BF9D1FFF72DFAF86076
:102284001FE0FFF729FA0246FB68D31A022B18D97C
:102294007B681B689B6803F00103012B11D07B68EA
:1022A4009B6A43F010027B689A627B68DB6A43F0A6
:1022B40001027B68DA627B68002283F82420012310
:1022C40007E07B681B689B6803F00103012BD8D1EE
:1022D400002318461037BD4680BD00BF080000200B
:1022E40083DE1B4380B584B000AF78600023FB60BD
:1022F4007B681B689B6803F00103012B2ED17B686C
:102304001B689A687B681B6822F001029A60FFF7D9
:10231400E3F9F8601BE0FFF7DFF90246FB68D31A24
:10232400022B14D97B681B689B6803F00103012B03
:102334000DD17B689B6A43F010027B689A627B68CC
:10234400DB6A43F001027B68DA62012307E07B6801
:102354001B689B6803F00103012BDCD000231846A3
:102364001037BD4680BD000080B485B000AF7860F2
:102374007B6803F00703FB600C4BDB68BB60BA6847
:102384004FF6FF031340BB60FB681A02BB6813439C
:1023940043F0BF6343F40033BB60044ABB68D360BB
:1023A40000BF1437BD4680BC704700BF00ED00E09D
:1023B40080B400AF044BDB681B0A03F00703184624
:1023C400BD4680BC704700BF00ED00E080B483B020
:1023D40000AF03463960FB7197F90730002B0ADB25
:1023E4003B68DAB20C4997F907301201D2B20B44B8
:1023F40083F800230AE03B68DAB20849FB7903F06A
:102404000F03043B1201D2B20B441A7600BF0C37FF
:10241400BD4680BC704700BF00E100E000ED00E075
:1024240080B489B000AFF860B9607A60FB6803F0EB
:102434000703FB61FB69C3F10703042B28BF0423D3
:10244400BB61FB690433062B02D9FB69033B00E043
:1024540000237B614FF0FF32BB6902FA03F3DA43D6
:10246400BB681A407B699A404FF0FF317B6901FADF
:1024740003F3D9437B680B40134318462437BD4606
:1024840080BC704780B582B000AF78607B68013B48
:10249400B3F1807F01D301230FE00A4A7B68013B3B
:1024A40053600F214FF0FF30FFF790FF054B0022E0
:1024B4009A60044B07221A60002318460837BD4669
:1024C40080BD00BF10E000E080B582B000AF78604E
:1024D4007B68072B0FD07B68062B0CD07B68052B01
:1024E40009D07B68042B06D07B68032B03D0912191
:1024F4000448FEF7F2FE7868FFF736FF00BF08379E
:10250400BD4680BD505A000880B586B000AF034672
:10251400B9607A60FB7300237B617B680F2B03D95E
:10252400A9210E48FEF7D9FEBB680F2B03D9AA21B7
:102534000A48FEF7D2FEFFF73BFF78617A68B96874
:102544007869FFF76DFF024697F90F301146184678
:10255400FFF73CFF00BF1837BD4680BD505A000846
:1025640080B582B000AF78607868FFF78BFF0346D0
:1025740018460837BD4680BD80B58AB000AF786084
:10258400396000237B6200233B627B68A94A934243
:102594001BD07B68A84A934217D07B68A74A934212
:1025A40013D07B68A64A93420FD07B68A54A934216
:1025B4000BD07B68A44A934207D07B68A34A93421A
:1025C40003D0BD21A248FEF788FE3B681B689BB27E
:1025D400002B05D03B681B681B0C1B04002B03D08D
:1025E400BE219B48FEF779FE3B685B68002B00F038
:1025F40035823B685B68012B00F030823B685B6886
:10260400112B00F02B823B685B68022B00F02682C2
:102614003B685B68122B00F021823B685B688D4A43
:10262400934200F01B823B685B688B4A934200F044
:1026340015823B685B68894A934200F00F823B68CD
:102644005B68874A934200F009823B685B68854A6D
:10265400934200F003823B685B68834A934200F034
:10266400FD813B685B68032B00F0F881BF2178484B
:10267400FEF733FEF2E101227B6A02FA03F3FB6107
:102684003B681B68FA691340BB61BA69FB699A42EB
:1026940040F0E1817B68674A93421BD07B68664ABD
:1026A400934217D07B68654A934213D07B68644A8F
:1026B40093420FD07B68634A93420BD07B68624A93
:1026C400934207D07B68614A934203D0CD2160488E
:1026D400FEF703FE3B685B68634A934200F0C680E2
:1026E400614A934200F2EC805C4A934200F0BE805F
:1026F4005A4A934200F2E4805A4A934200F0B68068
:10270400584A934200F2DC80534A934200F0AE8070
:10271400514A934200F2D480514A934200F0A68079
:102724004F4A934200F2CC80122B2BD8122B00F28A
:10273400C78001A252F823F07128000891270008ED
:10274400E3270008BF280008C5280008C52800089A
:10275400C5280008C5280008C5280008C5280008A1
:10276400C5280008C5280008C5280008C528000891
:10277400C5280008C5280008C5280008B92700088E
:102784000D280008334A934270D099E03B68DB6817
:10279400022B0BD03B68DB68012B07D03B68DB685E
:1027A400032B03D0D5212A48FEF797FD3B68DB684D
:1027B4003B6286E03B68DB68022B0BD03B68DB683E
:1027C400012B07D03B68DB68032B03D0DC212048B6
:1027D400FEF783FD3B68DB6804333B6271E03B68D2
:1027E400DB68022B0BD03B68DB68012B07D03B680E
:1027F400DB68032B03D0E3211548FEF76EFD3B682D
:10280400DB6808333B625CE03B68DB68022B0BD07F
:102814003B68DB68012B07D03B68DB68032B03D0E4
:10282400EA210B48FEF759FD3B68DB680C333B6239
:1028340047E000BF00080140000C014000100140C7
:102844000014014000180140001C01400020014018
:102854008C5A0008000011100000211000003110F3
:102864000000121000002210000032103B689B6828
:10287400002B0BD03B689B68012B07D03B689B68FF
:10288400022B03D0F7217C48FEF727FD3B689B68A9
:10289400002B02D104233B6213E03B689B68012BAD
:1028A40005D108233B627B68FA691A6109E00823B1
:1028B4003B627B68FA695A6103E000233B6200E0F3
:1028C40000BFBB69FF2B01D87B6801E07B68043340
:1028D4007B61BB69FF2B02D87B6A9B0002E07B6AA9
:1028E400083B9B003B617B691A680F213B6901FA35
:1028F40003F3DB431A40396A3B6901FA03F31A43D1
:102904007B691A603B685B6803F08053002B00F01E
:10291400A2805A4B9B69594A43F001039361574B78
:102924009B6903F00103BB60BB68554A7B6A9B0843
:10293400023352F82330FB607B6A03F003039B00ED
:102944000F2202FA03F3DB43FA681340FB607B684F
:102954004C4A93421FD07B684B4A934219D07B6800
:102964004A4A934213D07B68494A93420DD07B680C
:10297400484A934207D07B68474A934201D10523D2
:102984000AE0062308E0042306E0032304E002230C
:1029940002E0012300E000237A6A02F003029200BD
:1029A4009340FA681343FB6035497B6A9B08023302
:1029B400FA6841F823203B685B6803F48013002B1A
:1029C40006D0364B9A683549BB6913438B6006E0E1
:1029D400324B9A68BB69DB43304913408B603B68D8
:1029E4005B6803F40013002B06D02C4BDA682B49E8
:1029F400BB691343CB6006E0284BDA68BB69DB4351
:102A040026491340CB603B685B6803F40033002B1A
:102A140006D0224B5A682149BB6913434B6006E038
:102A24001E4B5A68BB69DB431C4913404B603B682F
:102A34005B6803F48033002B06D0184B1A681749DF
:102A4400BB6913430B6006E0144B1A68BB69DB4394
:102A5400124913400B607B6A01337B623B681A683E
:102A64007B6A22FA03F3002B7FF405AE00BF00BF9C
:102A74002837BD4680BD00BF8C5A000800100240B4
:102A84000000014000080140000C0140001001401A
:102A94000014014000180140001C014000040140E2
:102AA40080B584B000AF78600B467B807B88002BB8
:102AB40004D07B881B0C1B04002B04D04FF4DA7168
:102AC4000948FEF70AFC7B689A687B881340002B50
:102AD40002D00123FB7301E00023FB73FB7B184648
:102AE4001037BD4680BD00BF8C5A000880B582B047
:102AF40000AF78600B467B8013467B707B88002B8D
:102B040004D07B881B0C1B04002B04D04FF4EA7107
:102B14000E48FEF7E2FB7B78002B07D07B78012B75
:102B240004D040F2D5110948FEF7D7FB7B78002B7F
:102B340003D07A887B681A6103E07B881A047B6877
:102B44001A6100BF0837BD4680BD00BF8C5A00081B
:102B540080B586B000AF78607B68002B01D101237B
:102B64005CE37B681B68002B1CD07B681B6803F04C
:102B74000103002B16D17B681B6803F00203002BB2
:102B840010D17B681B6803F00803002B0AD17B6813
:102B94001B6803F00403002B04D140F26511A5481F
:102BA400FEF79BFB7B681B6803F00103002B00F01E
:102BB4009A807B685B68002B0ED07B685B68B3F5FA
:102BC400803F09D07B685B68B3F5A02F04D040F246
:102BD4006B119848FEF781FB974B5B6803F00C037D
:102BE400042B0CD0944B5B6803F00C03082B12D11C
:102BF400914B5B6803F48033B3F5803F0BD18E4B6C
:102C04001B6803F40033002B6CD07B685B68002BDB
:102C140068D1012302E37B685B68B3F5803F06D18A
:102C2400854B1B68844A43F4803313602EE07B6831
:102C34005B68002B0CD1804B1B687F4A23F48033E4
:102C440013607D4B1B687C4A23F4802313601DE0D2
:102C54007B685B68B3F5A02F0CD1774B1B68764A71
:102C640043F480231360744B1B68734A43F480332A
:102C740013600BE0704B1B686F4A23F480331360BE
:102C84006D4B1B686C4A23F4802313607B685B687C
:102C9400002B13D0FEF720FD386108E0FEF71CFD81
:102CA40002463B69D31A642B01D90323B6E2624B73
:102CB4001B6803F40033002BF0D014E0FEF70CFD86
:102CC400386108E0FEF708FD02463B69D31A642B1D
:102CD40001D90323A2E2584B1B6803F40033002BF1
:102CE400F0D100E000BF7B681B6803F00203002BF7
:102CF40079D07B681B69002B08D07B681B69012B8A
:102D040004D040F29F114B48FEF7E7FA7B685B69F9
:102D14001F2B04D94FF4D0714648FEF7DEFA464B18
:102D24005B6803F00C03002B0BD0434B5B6803F090
:102D34000C03082B1CD1404B5B6803F48033002B3D
:102D440016D13D4B1B6803F00203002B05D07B68B2
:102D54001B69012B01D0012360E2374B1B6823F070
:102D6400F8027B685B69DB00334913430B603AE08C
:102D74007B681B69002B20D0304B01221A60FEF7C0
:102D8400ABFC386108E0FEF7A7FC02463B69D31AA6
:102D9400022B01D9032341E2274B1B6803F00203F2
:102DA400002BF0D0244B1B6823F0F8027B685B698E
:102DB400DB00214913430B6015E0204B00221A600D
:102DC400FEF78AFC386108E0FEF786FC02463B69A0
:102DD400D31A022B01D9032320E2174B1B6803F0FB
:102DE4000203002BF0D17B681B6803F00803002B5F
:102DF40048D07B689B69002B08D07B689B69012BBA
:102E040004D04FF4F0710B48FEF767FA7B689B69B6
:102E1400002B21D00A4B01221A60FEF75DFC3861B9
:102E240010E0FEF759FC02463B69D31A022B09D97C
:102E34000323F3E1C85A0008001002400000424294
:102E440080044242674B5B6A03F00203002BE8D024
:102E5400012000F003FC15E0634B00221A60FEF72A
:102E64003BFC386108E0FEF737FC02463B69D31AA5
:102E7400022B01D90323D1E15A4B5B6A03F002030D
:102E8400002BF0D17B681B6803F00403002B00F0D7
:102E9400C0800023FB757B68DB68002B0CD07B684B
:102EA400DB68012B08D07B68DB68052B04D040F27B
:102EB4000F214E48FEF711FA4A4BDB6903F08053A9
:102EC400002B0DD1474BDB69464A43F08053D36155
:102ED400444BDB6903F08053BB60BB680123FB7583
:102EE400434B1B6803F48073002B18D1404B1B68C1
:102EF4003F4A43F480731360FEF7EEFB386108E049
:102F0400FEF7EAFB02463B69D31A642B01D903237B
:102F140084E1374B1B6803F48073002BF0D07B688B
:102F2400DB68012B06D12F4B1B6A2E4A43F00103A9
:102F340013622DE07B68DB68002B0CD1294B1B6AE4
:102F4400284A23F001031362264B1B6A254A23F007
:102F5400040313621CE07B68DB68052B0CD1214B56
:102F64001B6A204A43F0040313621E4B1B6A1D4A6A
:102F740043F0010313620BE01A4B1B6A194A23F056
:102F840001031362174B1B6A164A23F004031362EE
:102F94007B68DB68002B15D0FEF79EFB38610AE0E6
:102FA400FEF79AFB02463B69D31A41F288329342F8
:102FB40001D9032332E10B4B1B6A03F00203002BFC
:102FC400EED01DE0FEF788FB386113E0FEF784FBCA
:102FD40002463B69D31A41F2883293420AD9032349
:102FE4001CE100BF0010024080044242C85A00089D
:102FF400007000408B4B1B6A03F00203002BE5D1E9
:10300400FB7D012B05D1874BDB69864A23F0805376
:10301400D3617B68DB69002B0CD07B68DB69012BF7
:1030240008D07B68DB69022B04D040F2AD217E48D6
:10303400FEF753F97B68DB69002B00F0EE80794BD7
:103044005B6803F00C03082B00F0CE807B68DB691F
:10305400022B40F0B2807B681B6A002B09D07B688E
:103064001B6AB3F5803F04D040F2B6216E48FEF7E8
:1030740034F97B685B6A002B4AD07B685B6AB3F5E2
:10308400802F45D07B685B6AB3F5002F40D07B6806
:103094005B6AB3F5402F3BD07B685B6AB3F5801F56
:1030A40036D07B685B6AB3F5A01F31D07B685B6A5E
:1030B400B3F5C01F2CD07B685B6AB3F5E01F27D043
:1030C4007B685B6AB3F5001F22D07B685B6AB3F54B
:1030D400101F1DD07B685B6AB3F5201F18D07B6876
:1030E4005B6AB3F5301F13D07B685B6AB3F5401F8E
:1030F4000ED07B685B6AB3F5501F09D07B685B6AAE
:10310400B3F5601F04D040F2B7214748FEF7E5F855
:10311400464B00221A60FEF7DFFA386108E0FEF73A
:10312400DBFA02463B69D31A022B01D9032375E06B
:103134003C4B1B6803F00073002BF0D17B681B6AC7
:10314400B3F5803F16D17B689B68002B09D07B6860
:103154009B68B3F5003F04D040F2CD213248FEF71E
:10316400BCF8304B5B6823F400327B689B682D49C4
:1031740013434B602B4B5B6823F474127B68196A0E
:103184007B685B6A0B43274913434B60274B01223F
:103194001A60FEF7A1FA386108E0FEF79DFA0246CC
:1031A4003B69D31A022B01D9032337E01D4B1B685B
:1031B40003F00073002BF0D02FE01C4B00221A60A8
:1031C400FEF78AFA386108E0FEF786FA02463B69A0
:1031D400D31A022B01D9032320E0124B1B6803F0FE
:1031E4000073002BF0D118E07B68DB69012B01D15F
:1031F400012313E00B4B5B68FB60FB6803F4803234
:103204007B681B6A9A4206D1FB6803F470127B68E0
:103214005B6A9A4201D0012300E000231846183764
:10322400BD4680BD00100240C85A000860004242FA
:1032340080B584B000AF786039607B68002B01D121
:10324400012376E17B681B6803F00103002B16D190
:103254007B681B6803F00203002B10D17B681B689A
:1032640003F00403002B0AD17B681B6803F00803F6
:10327400002B04D140F236317448FEF72EF83B6837
:10328400002B0AD03B68012B07D03B68022B04D0EB
:1032940040F237316D48FEF720F86D4B1B6803F0A0
:1032A40007033A689A4210D9694B1B6823F0070256
:1032B40067493B6813430B60654B1B6803F00703C6
:1032C4003A689A4201D0012333E17B681B6803F01A
:1032D4000203002B49D07B681B6803F00403002B16
:1032E40005D05C4B5B685B4A43F4E06353607B68E6
:1032F4001B6803F00803002B05D0564B5B68554A46
:1033040043F4605353607B689B68002B24D07B6834
:103314009B68802B20D07B689B68902B1CD07B689B
:103324009B68A02B18D07B689B68B02B14D07B685B
:103334009B68C02B10D07B689B68D02B0CD07B681B
:103344009B68E02B08D07B689B68F02B04D040F28C
:103354005D313E48FDF7C1FF3E4B5B6823F0F00250
:103364007B689B683B4913434B607B681B6803F095
:103374000103002B51D07B685B68002B0CD07B6869
:103384005B68012B08D07B685B68022B04D04FF488
:1033940059712E48FDF7A1FF7B685B68012B07D1AB
:1033A4002C4B1B6803F40033002B15D10123C0E020
:1033B4007B685B68022B07D1264B1B6803F0007304
:1033C400002B09D10123B4E0224B1B6803F0020354
:1033D400002B01D10123ACE01E4B5B6823F00302F8
:1033E4007B685B681B4913434B60FEF775F9F86013
:1033F4000AE0FEF771F90246FB68D31A41F28832FB
:10340400934201D9032394E0124B5B6803F00C024E
:103414007B685B689B009A42EBD10D4B1B6803F001
:1034240007033A689A4217D2094B1B6823F0070234
:1034340007493B6813430B60054B1B6803F0070304
:103444003A689A4208D0012373E000BFC85A0008C2
:1034540000200240001002407B681B6803F0040354
:10346400002B25D07B68DB68002B18D07B68DB68D9
:10347400B3F5806F13D07B68DB68B3F5A06F0ED013
:103484007B68DB68B3F5C06F09D07B68DB68B3F594
:10349400E06F04D040F2A2312848FDF71EFF284B0C
:1034A4005B6823F4E0627B68DB68254913434B6067
:1034B4007B681B6803F00803002B26D07B681B691C
:1034C400002B18D07B681B69B3F5806F13D07B6821
:1034D4001B69B3F5A06F0ED07B681B69B3F5C06F91
:1034E40009D07B681B69B3F5E06F04D040F2A931C1
:1034F4001248FDF7F2FE124B5B6823F460527B68BE
:103504001B69DB000E4913434B6000F021F80246AF
:103514000B4B5B681B0903F00F030A49CB5C22FACF
:1035240003F3094A1360094B1B681846FEF792F827
:10353400002318461037BD4680BD00BFC85A000896
:103544000010024054630008080000200C00002012
:1035540080B487B000AF0023FB600023BB6000236E
:103564007B6100237B6000233B611E4B5B68FB6037
:10357400FB6803F00C03042B02D0082B03D027E0D4
:10358400194B3B6127E0FB689B0C03F00F03174AC0
:10359400D35C7B60FB6803F48033002B10D0114BA9
:1035A4005B685B0C03F00103114AD35CBB607B686E
:1035B4000D4A02FB03F2BB68B2FBF3F37B6104E048
:1035C4007B680C4A02FB03F37B617B693B6102E08D
:1035D400054B3B6100BF3B6918461C37BD4680BCA8
:1035E400704700BF0010024000127A006C630008AC
:1035F4007C63000800093D0080B400AF024B1B68E7
:103604001846BD4680BC70470800002080B500AF56
:10361400FFF7F2FF0246054B5B681B0A03F0070342
:103624000349CB5C22FA03F3184680BD0010024024
:103634006463000880B500AFFFF7DEFF0246054B68
:103644005B68DB0A03F007030349CB5C22FA03F34C
:10365400184680BD001002406463000880B485B041
:1036640000AF78600A4B1B680A4AA2FB03235B0A7B
:103674007A6802FB03F3FB6000BFFB685A1EFA6022
:10368400002BF9D100BF00BF1437BD4680BC704782
:1036940008000020D34D621080B586B000AF78607A
:1036A40000233B610023FB607B681B6803F001037C
:1036B400002B1BD17B681B6803F00203002B15D180
:1036C4007B681B6803F00403002B0FD17B681B6825
:1036D40003F00803002B09D17B681B6803F0100377
:1036E400002B03D16A217348FDF7F7FD7B681B6843
:1036F40003F00103002B00F095800023FB757B6829
:103704005B68002B12D07B685B68B3F5807F0DD0BB
:103714007B685B68B3F5007F08D07B685B68B3F5B2
:10372400407F03D072216348FDF7D7FD624BDB690C
:1037340003F08053002B0DD15F4BDB695E4A43F0ED
:103744008053D3615C4BDB6903F08053BB60BB687F
:103754000123FB75594B1B6803F48073002B18D1AC
:10376400564B1B68554A43F480731360FDF7B4FF4E
:10377400386108E0FDF7B0FF02463B69D31A642BB9
:1037840001D9032392E04D4B1B6803F48073002B93
:10379400F0D0494B1B6A03F44073FB60FB68002BB9
:1037A4002ED07B685B6803F44073FA689A4227D092
:1037B400414B1B6A23F44073FB60414B01221A60A6
:1037C4003F4B00221A603C4AFB681362FB6803F01B
:1037D4000103002B14D0FDF77FFF38610AE0FDF7E9
:1037E4007BFF02463B69D31A41F28832934201D9E6
:1037F40003235BE0304B1B6A03F00203002BEED083
:103804002D4B1B6A23F440727B685B682A4913437F
:103814000B62FB7D012B05D1274BDB69264A23F084
:103824008053D3617B681B6803F00203002B1FD015
:103834007B689B68002B12D07B689B68B3F5804F34
:103844000DD07B689B68B3F5004F08D07B689B68FC
:10385400B3F5404F03D0B7211648FDF73EFD164B94
:103864005B6823F440427B689B68134913434B60B5
:103874007B681B6803F01003002B16D07B685B6920
:10388400B3F5800F08D07B685B69002B04D040F24D
:1038940013110848FDF721FD074B5B6823F48002F0
:1038A4007B685B69044913434B600023184618374F
:1038B400BD4680BD005B000800100240007000405F
:1038C4004004424280B588B000AF786000237B6139
:1038D4000023FB6100233B610023FB600023BB61E9
:1038E4007B6803F00103002B18D17B6803F002030B
:1038F400002B13D17B6803F00403002B0ED17B68EB
:1039040003F00803002B09D17B6803F01003002B9C
:1039140004D14FF4CA716048FDF7DFFC7B68013BBA
:103924000F2B00F2AF8001A252F823F0073A0008EF
:103934006D3A0008893A0008F7390008893A000806
:10394400893A0008893A0008FF390008893A0008D2
:10395400893A0008893A0008893A0008893A000837
:10396400893A0008893A0008713900084B4B5B68B2
:10397400FB604A4B1B6803F08073002B00F08480CB
:10398400FB689B0C03F00F03454AD35C3B61FB6867
:1039940003F48033002B15D0404B5B685B0C03F0C1
:1039A4000103404AD35C7B61FB6803F48033002B42
:1039B4000DD03D4A7B69B2FBF3F23B6902FB03F392
:1039C400FB6104E03B69394A02FB03F3FB61334BBF
:1039D4005B6803F48003B3F5800F02D1FB69BB611C
:1039E40052E0FB695B00324AA2FB03235B08BB6124
:1039F4004AE0FFF7ADFDB86149E0FFF7A9FDB86102
:103A040045E0264B1B6AFB60FB6803F44073B3F587
:103A1400807F08D1FB6803F00203002B03D04FF42E
:103A24000043BB611FE0FB6803F44073B3F5007F00
:103A340009D11A4B5B6A03F00203002B03D049F649
:103A44004043BB610FE0FB6803F44073B3F5407F70
:103A54001CD1124B1B6803F40033002B16D04FF219
:103A64002443BB6112E011E0FFF7E4FD02460B4B77
:103A74005B689B0B03F0030301335B00B2FBF3F3BE
:103A8400BB6104E000BF02E000BF00E000BFBB690F
:103A940018462037BD4680BD005B00080010024078
:103AA400806300089063000800127A0000093D005A
:103AB400ABAAAAAA80B582B000AF78607B68002B5D
:103AC40001D101239FE07B689B69002B2CD07B688C
:103AD4001B684F4A93420ED07B681B684D4A934241
:103AE40009D07B681B684C4A934204D04FF4B771E9
:103AF4004A48FDF7F2FB7B689B69002B32D07B6858
:103B04009B69B3F5807F2DD07B689B69B3F5007FFB
:103B140028D07B689B69B3F5407F23D040F26F11B6
:103B24003E48FDF7DAFB1DE07B681B68384A934288
:103B340018D07B681B68374A934213D07B681B6894
:103B4400354A93420ED07B681B68354A934209D0AC
:103B54007B681B68334A934204D040F273112F48A8
:103B6400FDF7BBFB7B689B68002B09D07B689B68D7
:103B7400B3F5805F04D040F275112848FDF7ADFB22
:103B84007B6893F84130DBB2002B06D17B680022BE
:103B940083F840207868FDF7D5FC7B68242283F8FD
:103BA40041207B681B68DA687B681B6822F400523A
:103BB400DA60786800F088F97B681B681A697B68AA
:103BC4001B6822F490421A617B681B685A697B68FF
:103BD4001B6822F02A025A617B681B68DA687B68DA
:103BE4001B6842F40052DA607B6800225A647B68E6
:103BF400202283F841207B68202283F842207B68BE
:103C040000225A63002318460837BD4680BD00BF12
:103C14000038014000440040004800403C5B00087C
:103C2400004C00400050004080B58AB002AFF860FC
:103C3400B9603B601346FB8000237B61FB6893F80B
:103C44004130DBB2202B6DD1BB68002B02D0FB8846
:103C5400002B01D1012366E0FB6800225A64FB6853
:103C6400212283F84120FDF737FD7861FB68FA884B
:103C74009A84FB68FA88DA84FB689B68B3F5805FF2
:103C840008D1FB681B69002B04D10023FB61BB68CE
:103C9400BB6103E0BB68FB610023BB612AE03B68B6
:103CA40000937B6900228021F86800F065F80346E0
:103CB400002B01D0032336E0FB69002B0BD1BB6939
:103CC4001B881A46FB681B68C2F308025A60BB696A
:103CD4000233BB6107E0FB691A78FB681B685A6012
:103CE400FB690133FB61FB68DB8C9BB2013B9AB23D
:103CF400FB68DA84FB68DB8C9BB2002BCFD13B687A
:103D040000937B6900224021F86800F035F80346EF
:103D1400002B01D0032306E0FB68202283F8412016
:103D2400002300E0022318462037BD4680BD80B53D
:103D340084B000AFF860B9601346FB80FB6893F869
:103D44004230DBB2202B12D1BB68002B02D0FB889F
:103D5400002B01D101230BE0FB6800221A63FB88CE
:103D64001A46B968F86800F075F8034600E00223C3
:103D740018461037BD4680BD80B590B000AFF860DE
:103D8400B9603B601346FB7150E0BB6CB3F1FF3F7D
:103D94004CD0BB6C002B07D0FDF79EFC02463B6861
:103DA400D31ABA6C9A4241D2FB681B680C33BB62CB
:103DB400BB6A53E8003F7B627B6A23F4D073FB63E6
:103DC400FB681B680C33FA6B7A633B63396B7A6B61
:103DD40041E80023FB62FB6A002BE5D1FB681B680A
:103DE40014337B617B6953E8003F3B613B6923F0FB
:103DF4000103BB63FB681B681433BA6B3A62FB6153
:103E0400F9693A6A41E80023BB61BB69002BE5D13B
:103E1400FB68202283F84120FB68202283F842209B
:103E2400FB68002283F8402003230FE0FB681B6833
:103E34001A68BB681340BA689A420CBF0123002376
:103E4400DBB21A46FB799A429FD0002318464037CA
:103E5400BD4680BD80B485B000AFF860B96013463C
:103E6400FB80FB68BA689A62FB68FA889A85FB68EB
:103E7400FA88DA85FB6800225A64FB68222283F8F8
:103E84004220FB681B69002B07D0FB681B68DA68BB
:103E9400FB681B6842F48072DA60FB681B685A692D
:103EA400FB681B6842F001025A61FB681B68DA6810
:103EB400FB681B6842F02002DA60002318461437BE
:103EC400BD4680BC7047000080B584B000AF786008
:103ED4007B685B685F4A934204D940F666615E483A
:103EE400FDF7FBF97B68DB68002B09D07B68DB6896
:103EF400B3F5005F04D040F667615748FDF7EDF96C
:103F04007B681B69002B0ED07B681B69B3F5806F3F
:103F140009D07B681B69B3F5C06F04D040F66861B3
:103F24004D48FDF7DAF97B685A694FF6F37313408D
:103F3400002B03D17B685B69002B04D140F66961D7
:103F44004548FDF7CAF97B681B681B6923F4405197
:103F54007B68DA687B681B680A431A617B689A6825
:103F64007B681B691A437B685B691343BB607B688E
:103F74001B68DB6823F4B05323F00C037A681268DF
:103F8400B9680B43D3607B681B685B6923F4407199
:103F94007B689A697B681B680A435A617B681B6863
:103FA4002E4A934203D1FFF745FBF86002E0FFF786
:103FB4002DFBF860FA6813469B0013449A001A44D8
:103FC4007B685B689B00B2FBF3F3254AA2FB0323E7
:103FD4005B091901FA6813469B0013449A001A44BA
:103FE4007B685B689B00B2FBF3F21D4BA3FB0203EF
:103FF4005B09642000FB03F3D31A1B013233184A14
:10400400A2FB03235B0903F0F0031944FA68134687
:104014009B0013449A001A447B685B689B00B2FBC4
:10402400F3F20F4BA3FB02035B09642000FB03F3D1
:10403400D31A1B0132330A4AA2FB03235B0903F0A0
:104044000F027B681B680A449A6000BF1037BD46A4
:1040540080BD00BF20AA44003C5B0008003801403A
:104064001F85EB5190B488B000AFF860B9607A60F6
:10407400FB681A46BB681B0E13441C462268BB68C7
:104084007B617B6993FAA3F33B613B69B3FA83F3E6
:10409400DBB29B000F2101FA03F3DB431A40BB6838
:1040A400FB61FB6993FAA3F3BB61BB69B3FA83F3C6
:1040B400DBB29B00796801FA03F31343236000BF6A
:1040C4002037BD4690BC704790B488B000AFF8600C
:1040D400B9607A60FB681A46BB681B0E13441C4621
:1040E4002268BB687B617B6993FAA3F33B613B69FC
:1040F400B3FA83F3DBB29B00032101FA03F3DB433E
:104104001A40BB68FB61FB6993FAA3F3BB61BB690B
:10411400B3FA83F3DBB29B00796801FA03F3134328
:10412400236000BF2037BD4690BC704790B488B070
:1041340000AFF860B9607A60FB681A46BB681B0E72
:1041440013441C462268BB687B617B6993FAA3F322
:104154003B613B69B3FA83F3DBB29B00042101FAB0
:1041640003F3DB431A40BB68FB61FB6993FAA3F3D7
:10417400BB61BB69B3FA83F3DBB29B00796801FAD4
:1041840003F31343236000BF2037BD4690BC704740
:1041940080B487B000AFF860B9607A60FB68DA6811
:1041A400BB681B0ADB431A40BB681B0A7B617B6943
:1041B40093FAA3F33B613B69B3FA83F3DBB2194689
:1041C4007B688B401A43FB68DA6000BF1C37BD462E
:1041D40080BC704780B588B000AF786039607B6878
:1041E400684A93421BD07B68674A934217D07B6826
:1041F400664A934213D07B68654A93420FD07B682A
:10420400644A93420BD07B68634A934207D07B682D
:10421400624A934203D0A2216148FDF75EF83B68ED
:104224001B6823F07B43002B05D03B681B6803F01D
:104234007B43002B03D0A3215948FDF74EF83B687C
:104244001B681B021B0C7B617B693B613B6993FA16
:10425400A3F3FB60FB68B3FA83F3DBB2FB6184E096
:104264000122FB699A407B691340002B7AD0FB69D9
:10427400072B06D840F20112FB6902FA03F3BB6173
:1042840008E0FB69083B4FF0011202FA03F343F024
:104294008063BB613B685B68082B12D13B681B6978
:1042A400002B07D03B681B69012B03D0BE213C487F
:1042B400FDF713F83B681B691A46B9697868FFF77C
:1042C40067FF3B685B68002B13D03B685B68042B7B
:1042D4000FD03B685B68082B0BD03B685B68012BF5
:1042E40007D03B685B68092B03D0C5212C48FCF739
:1042F400F4FF3B685B681A46B9697868FFF7B2FE59
:104304003B685B68012B03D03B685B68092B29D1B0
:104314003B689B68022B0BD03B689B68012B07D042
:104324003B689B68032B03D0CD211D48FCF7D5FFC8
:104334003B68DB68002B07D03B68DB68042B03D0A9
:10434400CE211748FCF7C9FF3B689B681A46B96938
:104354007868FFF7B9FE3B68DB681A46B969786884
:10436400FFF7E4FEFB690133FB617A69FB6922FA1A
:1043740003F3002B7FF474AF002318462037BD46A7
:1043840080BD00BF00080140000C01400010014046
:104394000014014000180140001C014000200140AD
:1043A400785B000880B483B000AF78607B681B68DA
:1043B40043F001027B681A6000BF0C37BD4680BC25
:1043C400704780B483B000AF78607B681B6823F0CB
:1043D40001027B681A6000BF0C37BD4680BC704781
:1043E40080B485B000AFF860B9607A60FB689B6800
:1043F40023F4034323F0FF03B9687A680A431A439A
:10440400FB689A6000BF1437BD4680BC704700004B
:1044140080B487B000AFF860B9607A603B60002375
:104424003B6100237B61BB68414AA2FB03239B0CD5
:104434003B61FB685B6823F03F023B691A43FB68FE
:104444005A60FB681B6A23F03F027B6839498B4240
:1044540002D83B69013309E03B694FF4967101FBD3
:1044640003F33549A1FB03139B0901331A43FB688A
:104474001A627B682F4A934239D93B68002B17D1C3
:104484007A6813465B001344BA68B2FBF3F3C3F3D0
:104494000B03002B09D07A6813465B001344BA68F7
:1044A400B2FBF3F343F400431DE048F201031AE0C6
:1044B4007A6813469B0013449A001344BA68B2FB0B
:1044C400F3F3C3F30B03002B0BD07A6813469B0062
:1044D40013449A001344BA68B2FBF3F343F4004361
:1044E40001E048F201033A6813437B6111E07B6801
:1044F4005B00BA68B2FBF3F240F6FC731340002B86
:1045040005D07B685B00BA68B2FBF3F300E00423D8
:104514007B61FB68DB6923F44F4323F0FF037A6973
:104524001A43FB68DA6100BF1C37BD4680BC704784
:1045340083DE1B43A0860100D34D621080B483B098
:1045440000AF786039607B681B6823F01A023B680F
:104554001A437B681A6000BF0C37BD4680BC7047A5
:1045640080B483B000AF786039607B681B6823F443
:1045740080623B681A437B681A6000BF0C37BD46F3
:1045840080BC704780B586B000AF786039607B68C6
:10459400444A934207D07B68434A934203D086211E
:1045A4004248FCF79AFE3B681B68002B0FD03B681F
:1045B4001B681A2B0BD03B681B68022B07D03B6887
:1045C4001B68122B03D089213848FCF786FE3B6810
:1045D4005B68002B04D03B685B68354A934203D97F
:1045E4008A213248FCF779FE3B689B68002B08D08F
:1045F4003B689B68B3F5804F03D08B212B48FCF7B5
:104604006CFE3B68DB68B3F5806F03D38C212748CD
:10461400FCF763FE3B681B69B3F5806F07D03B680A
:104624001B69002B03D08D212048FCF756FE3B6804
:104634005B69B3F5804F08D03B685B69B3F5404FC5
:1046440003D08E211948FCF748FE7868FFF7B9FEBD
:1046540007F10803184600F083F839693B685A6883
:104664003B689B687868FFF7D3FE3B68D9683B6872
:104674005B691A467868FFF7B3FE3B681B68194606
:104684007868FFF75BFF7868FFF78CFE3B681B696F
:1046940019467868FFF764FF002318461837BD46AB
:1046A40080BD00BF0054004000580040B05B0008CB
:1046B400801A060080B400AF034B5B6803F00C0360
:1046C4001846BD4680BC70470010024080B400AF5D
:1046D400034B5B6803F0F0031846BD4680BC70478B
:1046E4000010024080B400AF034B5B6803F4E06346
:1046F4001846BD4680BC70470010024080B400AF2D
:10470400034B5B6803F460531846BD4680BC704796
:104714000010024080B400AF034B5B6803F48033A5
:104724001846BD4680BC70470010024080B400AFFC
:10473400034B5B6803F470131846BD4680BC704796
:104744000010024080B400AF044B5B685B0C03F0C4
:1047540001031846BD4680BC704700BF00100240EC
:1047640080B582B000AF786000F020F802467B6824
:104774001A607B681B68184600F03EF802467B68A6
:104784005A607B685B68184600F04CF802467B6808
:104794009A607B685B68184600F058F802467B68AC
:1047A400DA6000BF0837BD4680BD000080B582B026
:1047B40000AF00237B60FFF77DFF0346082B0CD07E
:1047C400082B0ED8002B02D0042B03D009E0094B90
:1047D4007B6009E0074B7B6006E000F04BF87860F3
:1047E40002E0044B7B6000BF7B6818460837BD4677
:1047F40080BD00BF00127A0080B582B000AF78603F
:10480400FFF764FF03461B0903F00F03044AD35C5C
:104814001A467B68D34018460837BD4680BD00BFA2
:104824005463000880B582B000AF7860FFF75AFF88
:1048340003461B0A044AD35C1A467B68D3401846D5
:104844000837BD4680BD00BF6463000880B582B0F0
:1048540000AF7860FFF752FF0346DB0A044AD35CDB
:104864001A467B68D34018460837BD4680BD00BF52
:104874006463000880B582B000AF00237B6000232E
:104884003B60FFF747FF38603B68002B04D03B6870
:10489400B3F5803F03D00BE00D4B7B600BE0FFF7DB
:1048A40051FF034601330B4AB2FBF3F37B6002E092
:1048B400074B7B6000BFFFF739FF03469B0C0233B5
:1048C4007A6802FB03F318460837BD4680BD00BF73
:1048D40000093D0000127A00014B1868704700BFC0
:1048E4001400002070B500260C4D0D4C641BA41060
:1048F400A64209D100F0F8FF00260A4D0A4C641BB9
:10490400A410A64205D170BD55F8043B9847013662
:10491400EEE755F8043B98470136F2E72C640008AB
:104924002C6400082C640008306400080346024428
:10493400934200D1704703F8011BF9E70FB40A4B07
:1049440013B51C6824B1A36913B9204600F05EFABC
:1049540005AB2046049AA168019300F029FC02B03B
:10496400BDE8104004B070471400002070B50E4636
:10497400054618B183690BB900F048FAAB69AC6815
:1049840013B9284600F042FA2C4B9C4220D16C68A3
:10499400636EDB0705D4A389980502D4A06D00F0EB
:1049A400D3FAA38919071DD52369DBB1013EA36896
:1049B40016F8011F013BA36039BB002B38DA2246ED
:1049C4000A21284600F048F8013011D00A2511E0E8
:1049D4001B4B9C4201D1AC68DAE71A4B9C4208BFDE
:1049E400EC68D5E72146284600F088F80028DDD099
:1049F4004FF0FF35636EDA0705D4A3899B0502D413
:104A0400A06D00F0A2FA284670BD002B04DAA2695A
:104A14009A4206DC0A2904D023685A1C22601970C1
:104A2400C5E72246284600F017F80130BFD1DFE77A
:104A34000A2523685A1C22601D70DBE7B86300084E
:104A4400D863000898630008024B01461868FFF712
:104A54008DBF00BF14000020F8B50E46144605466D
:104A640018B183690BB900F0D1F9214B9C422BD1C9
:104A74006C68A369A360A3891A072FD523696BB354
:104A840023692068F6B2C01A63693746834204DC9E
:104A94002146284600F026F930BBA3680130013BCB
:104AA400A36023685A1C22601E706369834204D089
:104AB400A389DB0706D50A2E04D12146284600F037
:104AC40011F988B93846F8BD0A4B9C4201D1AC684B
:104AD400CFE7094B9C4208BFEC68CAE72146284649
:104AE40000F00CF80028CBD04FF0FF37EAE700BF06
:104AF400B8630008D863000898630008324B70B5A7
:104B04001D6806460C4625B1AB6913B9284600F06A
:104B14007DF92E4B9C420FD16C68A389B4F90C200B
:104B240019072CD4DD0611D40923336042F0400365
:104B34004FF0FF30A3813EE0254B9C4201D1AC688D
:104B4400EBE7244B9C4208BFEC68E6E7580712D514
:104B5400616B41B104F14403994202D0304600F044
:104B640059FA00236363A38923F02403A381002358
:104B7400636023692360A38943F00803A381236945
:104B84004BB9A38903F42073B3F5007F03D0214606
:104B9400304600F0FFF9A089B4F90C2010F00103AD
:104BA4000AD00023A36063695B42A361236943B90C
:104BB40010F08000BAD170BD810758BF6369A3604B
:104BC400F4E70020F7E700BF14000020B8630008F2
:104BD400D8630008986300088A892DE9F0410546E6
:104BE40010070C4658D44B68002B05DC0B6C002BCB
:104BF40002DC0020BDE8F081E66A002EF9D0002333
:104C040012F480522F682B6032D0606DA3895A074A
:104C140005D56368C01A636B0BB1236CC01A0023FB
:104C24000246E66A2846216AB047431CA38906D196
:104C340029681D292CD82A4ACA40D60728D500221B
:104C440062602269D904226004D5421C01D12B6818
:104C540003B96065616B2F600029CAD004F1440375
:104C6400994202D0284600F0D5F900206063C1E7DC
:104C7400216A01232846B047411CC7D12B68002B69
:104C8400C4D01D2B01D0162B01D12F60B1E7A3890D
:104C940043F04003A381ADE70F69002FA9D0930728
:104CA40018BF00230E6808BF4B69A6EB07080F6006
:104CB4008B60B8F1000F9CDD43463A462846216AD2
:104CC400A66AB047002806DCA3894FF0FF3043F002
:104CD4004003A3818EE70744A8EB0008E9E700BF7F
:104CE4000100402038B50B6905460C4613B9002570
:104CF400284638BD18B183690BB900F087F8144B06
:104D04009C421BD16C68B4F90C30002BEFD0626E5E
:104D1400D00704D4990502D4A06D00F015F92846F3
:104D24002146FFF759FF636E0546DA07E0D4A389ED
:104D34009B05DDD4A06D00F008F9D9E7054B9C4232
:104D440001D1AC68DFE7044B9C4208BFEC68DAE7AA
:104D5400B8630008D863000898630008002310B5FE
:104D64000446C0E90033C0E90433836081814366AB
:104D7400C2818361194608225C30FFF7D7FD054BD9
:104D840024626362044BA362044BE362044B236317
:104D940010BD00BF6157000883570008BB570008C7
:104DA400DF570008014900F0AFB800BFE94C000824
:104DB40070B568254A1E55430E4605F1740100F08E
:104DC40075F9044640B10021C0E900160C30A0601A
:104DD40005F16802FFF7AAFD204670BD014800F006
:104DE400B3B800BFC4040020014800F0AEB800BF4F
:104DF400C4040020014800F0A7B800BFBF0400208D
:104E0400014800F0A2B800BFBF04002010B504465A
:104E1400FFF7F0FFA3691BB1BDE81040FFF7F0BF37
:104E2400C4E912332365134B134A1B68A262A342DD
:104E340008BF0123204608BFA36100F01FF860608B
:104E4400204600F01BF8A060204600F017F800226E
:104E54000421E0606068FFF781FF01220921A06856
:104E6400FFF77CFF02221221E068FFF777FF01239E
:104E7400A361D1E794630008A94D0008F8B507467B
:104E8400FFF7ACFF1E4B1E68B36913B93046FFF73A
:104E9400BDFF4836D6E90134013B03D533680BB373
:104EA4003668F7E7B4F90C50D5B9164B04F158003D
:104EB400E360656600F047F8FFF796FF082229468D
:104EC400C4E90155C4E904552560A56104F15C00F9
:104ED400FFF72CFDC4E90D55C4E912552046F8BD71
:104EE4006834D9E704213846FFF762FF044630608E
:104EF4000028D5D1FFF778FF0C233B60EEE700BF15
:104F0400946300080100FFFF2DE9F8430646884634
:104F1400002700F14804D4E90195B9F1010905D548
:104F24002468002CF7D13846BDE8F883AB89012BFF
:104F340007D9B5F90E30013303D029463046C047AE
:104F440007436835E9E770477047704770B50E4608
:104F5400B1F90E10144600291D4696B007DA002355
:104F64002B60B3891A0610D44FF480630EE06A46AE
:104F740000F05AFC0028F2DB019A02F47042A2F518
:104F840000535A425A412A60EEE74023002023602E
:104F940016B070BD8B8973B59D0706460C4607D5C0
:104FA40004F14703236023610123636102B070BDF0
:104FB4006A4601ABFFF7CAFF00990546304600F088
:104FC40075F848B9B4F90C309A05EFD423F003030B
:104FD40043F00203A381E3E70D4BB362A38920608E
:104FE40043F08003A381009B20616361019B5BB15B
:104FF4003046B4F90E1000F029FC28B1A38923F03F
:10500400030343F00103A381A0890543A581CDE7F0
:10501400A94D000838B50546002943D051F8043C91
:105024000C1F002BB8BFE41800F040FC1E4A1368A4
:10503400104633B9636014602846BDE8384000F078
:105044003BBCA3420AD921686218934201BF1A6883
:105054005B685218226063600460EDE71A465B687F
:105064000BB1A342FAD911685018A0420BD12068A1
:105074000144501883421160DED118685B68014412
:1050840011605360D8E702D90C232B60D4E7206861
:1050940021188B4201BF19685B680918216063609D
:1050A4005460C9E738BD00BF34040020F8B5CD1CF6
:1050B40025F0030508350C2D38BF0C25002D0646B8
:1050C40001DBA94203D90C2333600020F8BD00F0B2
:1050D400EDFB21490A6814469CB9204F3B6823B96B
:1050E4002146304600F02AFB38602946304600F05D
:1050F40025FB431C23D10C233046336000F0DCFB3A
:10510400E3E723685B1B17D40B2B03D923601C44F0
:10511400256004E06368A2420CBF0B605360304614
:1051240000F0CAFB04F10B00231D20F00700C21A93
:10513400CCD01B1AA350C9E722466468CCE7C41C30
:1051440024F00304A042E3D0211A304600F0F6FA1A
:105154000130DDD1CFE700BF340400203804002043
:10516400936810B4013B002B936007DA9469A3425F
:1051740001DB0A2902D110BCFFF76EBC1368581C6E
:1051840010601970084610BC7047F8B506460F4603
:105194001446D518AC4201D1002007E03A46304607
:1051A40014F8011BFFF7DCFF431CF3D1F8BD00002A
:1051B4002DE9F04F0D461446984606469DB018B1A9
:1051C40083690BB9FFF722FE894B9D421BD1756899
:1051D4006B6ED90705D4AB899A0502D4A86DFFF785
:1051E400B3FEAB891B0701D52B69EBB929463046C1
:1051F400FFF784FCC0B16B6EDC070ED54FF0FF30B7
:105204001DB0BDE8F08F7B4B9D4201D1B568DFE74F
:10521400794B9D4208BFF568DAE7AB899805EDD470
:10522400A86DFFF792FEE9E70023099320238DF888
:10523400293030234FF00109CDF80C80DFF8BC8110
:105244008DF82A3023469A4613F8012B0AB1252AF1
:10525400F9D1BAEB040B0BD05B4622462946304603
:10526400FFF793FF013000F0AA80099A5A4409928B
:105274009AF80030002B00F0A28000234FF0FF3298
:10528400CDE905230AF1010A049307938DF85330FD
:105294001A935446052214F8011B584800F0F8FAF2
:1052A400049AD8B9D10644BF20238DF8533013078C
:1052B40044BF2B238DF853309AF800302A2B15D095
:1052C400544600204FF00A0C079A214611F8013B7E
:1052D400303B092B4ED9B0B1079214E0A0EB080380
:1052E40009FA03F31343A2460493D2E7039B191D5F
:1052F4001B680391002BBBBF5B4242F00202079381
:105304000793B8BF049223782E2B0CD163782A2BF1
:1053140035D1039B02341A1D1B680392002BB8BFBE
:105324004FF0FF330593DFF8E4A0032250462178C1
:1053340000F0AEFA40B14023A0EB0A0003FA00F0FB
:10534400049B01340343049314F8011B06222C48E4
:105354008DF8281000F09CFA00283FD0294B1BBB85
:10536400039B073323F0070308330393099B3B4450
:10537400099367E70C4601200CFB0232A5E70023E2
:105384004FF00A0C194601340593204610F8012BFE
:10539400303A092A03D9002BC5D00591C3E7044646
:1053A40001230CFB0121F0E703AB00932A463046AE
:1053B400154B04A9AFF300800746781CD6D16B6E59
:1053C400D90705D4AB899A0502D4A86DFFF7BDFDB2
:1053D400AB895B063FF512AF099811E703AB009365
:1053E4002A463046084B04A900F082F8E4E700BFDF
:1053F400B8630008D863000898630008F8630008DD
:1054040002640008000000008F510008FE630008D9
:105414002DE9F047164699468A680B690746934278
:10542400B8BF1346336091F843200C46DDF8208062
:105434000AB1013333602368990642BF33680233EB
:105444003360256815F0060506D104F1190AE368EE
:1054540032689B1AAB4228DC94F84320131E22685E
:1054640018BF012392062DD44946384604F143025D
:10547400C047013020D02368E56803F00603042BFD
:1054840018BF002532684FF00006A36808BFAD1AA4
:10549400226908BF25EAE5759342C4BF9B1AED183B
:1054A4001A34B5421AD1002008E001235246494675
:1054B4003846C047013003D14FF0FF30BDE8F087D4
:1054C4000135C4E73020E11881F843005A1C94F8F0
:1054D40045102244023382F84310C5E701232246D3
:1054E40049463846C0470130E6D00136D9E70000C6
:1054F4002DE9FF470C46277E9146782F80469A4631
:105504000C9904F1430207D8622F0AD8002F00F047
:10551400D980582F00F0A48004F1420684F8427028
:105524003AE0A7F16303152BF6D801A050F823F055
:105534008D550008A15500081D5500081D5500088B
:105544001D5500081D550008A15500081D550008EB
:105554001D5500081D5500081D550008AF560008CC
:10556400D1550008915600081D5500081D55000826
:10557400D15600081D550008D15500081D550008D6
:105584001D550008995600080B6804F142061A1DBF
:105594001B680A6084F842300123A4E02568086887
:1055A4002E0600F104030AD505680B60002D03DA0A
:1055B4002D236D4284F843300A235E4819E015F028
:1055C400400F05680B6018BF2DB2EFE70B68256824
:1055D400181D0860280601D51D6802E06906FBD580
:1055E4001D886F2F0CBF08230A235248002184F81A
:1055F40043106668002EA8BF2168A660A4BF21F0EE
:10560400040121600DB9002E4DD01646B5FBF3F10F
:1056140003FB1157C75D06F8017D2F46BB420D46BB
:10562400F4D9082B0BD12368DF0708D523696168F7
:105634009942DEBF302306F8013C06F1FF36921B87
:1056440022614B4621464046CDF800A003AAFFF74D
:10565400DFFE01304CD14FF0FF3004B0BDE8F087DD
:10566400344884F845700E68236856F8045B1F06B6
:105674000E6014D5D90744BF43F0200323601DB93D
:10568400236823F0200323601023AFE7236843F04B
:10569400200323607823284884F84530E3E75E0636
:1056A40048BFADB2E6E71646BBE70B6826681D1D8A
:1056B40060690D6035061B6801D5186002E071064B
:1056C400FBD51880002316462361BAE70B681A1D20
:1056D4000A601E6800213046626800F0D9F808B1FB
:1056E400801B606063682361002384F84330A8E76B
:1056F4003246494640462369D0470130ABD023683F
:105704009B0713D4E068039B9842B8BF1846A4E7EC
:105714000123324649464046D04701309BD00135EB
:10572400E36803995B1AAB42F2DCEBE7002504F172
:105734001906F5E7096400081A64000838B500235F
:10574400054D044608462B60FBF796FE431C02D128
:105754002B6803B1236038BDC804002010B50C4683
:10576400B1F90E1000F0AEF80028ABBF636DA38949
:105774001B1823F48053ACBF6365A38110BD2DE9CE
:10578400F0411F468B890546DB050C46164605D5B8
:1057940002230022B1F90E1000F068F8A389324602
:1057A40023F48053A38128463B46B4F90E10BDE888
:1057B400F04100F017B810B50C46B1F90E1000F026
:1057C40055F8431CA38915BF606523F4805343F443
:1057D4008053A38118BFA38110BDB1F90E1000F04E
:1057E40013B8000038B50446084611460022054D9A
:1057F4002A601A46FBF7F4FD431C02D12B6803B15F
:10580400236038BDC804002038B50023054D044684
:1058140008462B60FBF700FE431C02D12B6803B142
:10582400236038BDC804002038B50023064D044663
:10583400084611462B60FBF7FAFD431C02D12B6886
:1058440003B1236038BD00BFC804002038B500236D
:10585400054D044608462B60FBF7F8FD431C02D1B6
:105864002B6803B1236038BDC804002038B5044652
:10587400084611460022054D2A601A46FBF7F0FD42
:10588400431C02D12B6803B1236038BDC804002037
:10589400034610B5C9B202449342184601D1002010
:1058A40003E0047801338C42F6D110BD0148FFF7C0
:1058B4004BBB00BFC00400200148FFF746BB00BF3C
:1058C400C004002038B50446084611460022054DA0
:1058D4002A601A46FBF767FD431C02D12B6803B10B
:1058E400236038BDC8040020F8B500BFF8BC08BC6C
:1058F4009E467047F8B500BFF8BC08BC9E4670478A
:105904005072696E74204D656469616E20616E64C5
:10591400205468726573686F6C640D002A2A2A2A01
:105924002A2A2A2A2A2A2A2A2A2A2A2A2A2A2A2AD3
:105934002A2A2A2A2A2A2A2A2A2A2A2A0D0000005E
:105944005072696E742072617720646174610D0015
:105954002323232323232323232323232323232313
:105964002323232323232323232323232323232303
:10597400230D00000D000000546865206D65646906
:10598400616E206F6620746869732064617461209D
:1059940069733A25640D0A00546865206C69676868
:1059A4007420696E74656E736974792074687265A5
:1059B40073686F6C6420666F722074686973206406
:1059C4006174612069733A25640D0A002A2A2A2A1F
:1059D4002A2A2A2A2A2A2A2A2A2A2A2A2A2A2A2A23
:1059E4002A2A2A2A2A2A2A2A2A2A2A2A2A2A0D005A
:1059F4004144565B25645D3A25642009000000009B
:105A04006F6C656420696E69742073756363657374
:105A1400732100002E2E2F447269766572732F5302
:105A2400544D3332463178785F48414C5F44726953
:105A34007665722F5372632F73746D3332663178C7
:105A4400785F68616C5F6164632E63002E2E2F445F
:105A54007269766572732F53544D333246317878B8
:105A64005F48414C5F4472697665722F5372632FAD
:105A740073746D3332663178785F68616C5F636F1D
:105A8400727465782E6300002E2E2F447269766539
:105A940072732F53544D3332463178785F48414CFA
:105AA4005F4472697665722F5372632F73746D331A
:105AB40032663178785F68616C5F6770696F2E63F6
:105AC400000000002E2E2F447269766572732F53E6
