:020000040800F2
:1000000000000120150D0008C90C0008CF0C0008E5
:10001000D50C0008DB0C0008E10C00080000000013
:10002000000000000000000000000000C12D0008DA
:10003000E70C000800000000A12F0008E92F0008CD
:100040005D0D00085D0D00085D0D00085D0D0008E8
:100050005D0D00085D0D00085D0D00085D0D0008D8
:100060005D0D00085D0D00085D0D00085D0D0008C8
:100070005D0D00085D0D00085D0D00085D0D0008B8
:100080005D0D00085D0D00085D0D00085D0D0008A8
:100090005D0D00085D0D00085D0D00085D0D000898
:1000A0005D0D0008F50C00085D0D00085D0D0008F1
:1000B0005D0D00085D0D00085D0D00085D0D000878
:1000C0005D0D00085D0D00085D0D00085D0D000868
:1000D0005D0D00085D0D00085D0D00085D0D000858
:1000E0005D0D00085D0D00085D0D00085D0D000848
:1000F0005D0D00085D0D00085D0D00085D0D000838
:100100005D0D00085D0D00085D0D00085D0D000827
:100110005D0D00085D0D00085D0D00085D0D000817
:100120005D0D00085D0D00085D0D00085D0D000807
:1001300000000000000000000000000000000000BF
:1001400000000000000000000000000000000000AF
:10015000000000000000000000000000000000009F
:10016000000000000000000000000000000000008F
:10017000000000000000000000000000000000007F
:10018000000000000000000000000000000000006F
:10019000000000000000000000000000000000005F
:1001A000000000000000000000000000000000004F
:1001B000000000000000000000000000000000003F
:1001C000000000000000000000000000000000002F
:1001D000000000000000000000000000000000001F
:0401E0005FF8E0F1F3
:1001F00010B5054C237833B9044B13B10448AFF361
:1002000000800123237010BD1000002000000000BA
:100210007834000808B5034B1BB103490348AFF31A
:10022000008008BD000000001400002078340008A1
:1002300080B582B000AF0346FB71FB79002B06D17D
:1002400000224FF48051074801F047F805E00122F1
:100250004FF48051034801F040F800BF0837BD4615
:1002600080BD00BF0020014080B500AF08210548D7
:1002700001F01CF80346002B01D1012300E000230C
:10028000184680BD0020014080B500AF1021054810
:1002900001F00CF80346002B01D1012300E00023FC
:1002A000184680BD0020014080B500AF20210548E0
:1002B00000F0FCFF0346002B01D1012300E00023E6
:1002C000184680BD0020014080B582B000AF0346D3
:1002D000FB71FFF7C9FF0346012B0ED1114B1B88A1
:1002E0001A46FB7901335B009A420CDA0D4B1B88EE
:1002F00001339AB20B4B1A8005E00A4B00221A8098
:10030000094B00221A80074B1B88022B04D1064B95
:1003100001221A80012300E0002318460837BD4659
:1003200080BD00BF320000202C00002080B582B0CC
:1003300000AF0346FB71FFF7A7FF0346012B0ED169
:10034000114B1B881A46FB7901335B009A420CDA89
:100350000D4B1B8801339AB20B4B1A8005E00A4BF8
:1003600000221A80094B00221A80074B1B88022B9F
:1003700004D1064B01221A80012300E00023184615
:100380000837BD4680BD00BF340000202E0000208D
:1003900080B582B000AF0346FB71FFF785FF0346CF
:1003A000012B0ED1114B1B881A46FB7901335B00E0
:1003B0009A420CDA0D4B1B8801339AB20B4B1A8010
:1003C00005E00A4B00221A80094B00221A80074BD5
:1003D0001B88022B04D1064B01221A80012300E066
:1003E000002318460837BD4680BD00BF36000020F8
:1003F0003000002080B584B000AF03460A46FB7190
:100400001346BB71FB79FB73FB7B032B10D0032BD3
:1004100017DC012B02D0022B05D012E0BB79184665
:1004200000F036F82CE0BB79184600F0D1F827E050
:10043000BB79184600F02CF8BB79184600F0C8F8D4
:100440001EE000220421104800F047FF002208218E
:100450000D4800F042FF002210210B4800F03DFF44
:1004600000220221094800F038FF002280210648BE
:1004700000F033FF00220421044800F02EFF00BFEB
:1004800000BF1037BD4680BD00180140002001406C
:1004900080B582B000AF0346FB71FB79062B00F2FA
:1004A000818001A252F823F0C5040008E504000889
:1004B0000505000825050008450500086505000834
:1004C0008505000801220421404800F006FF0022B3
:1004D00008213E4800F001FF002210213B4800F0B7
:1004E000FCFE6FE000220421384800F0F6FE0122F5
:1004F0000821364800F0F1FE00221021334800F0B8
:10050000ECFE5FE000220421304800F0E6FE00220D
:1005100008212E4800F0E1FE012210212B4800F0B6
:10052000DCFE4FE001220421284800F0D6FE012223
:100530000821264800F0D1FE00221021234800F0B7
:10054000CCFE3FE001220421204800F0C6FE00223C
:1005500008211E4800F0C1FE012210211B4800F0B6
:10056000BCFE2FE000220421184800F0B6FE012254
:100570000821164800F0B1FE01221021134800F0B6
:10058000ACFE1FE001220421104800F0A6FE01226B
:1005900008210E4800F0A1FE012210210B4800F0B6
:1005A0009CFE0FE000220421084800F096FE002285
:1005B0000821064800F091FE00221021034800F0B7
:1005C0008CFE00BF00BF0837BD4680BD001801404B
:1005D00080B582B000AF0346FB71FB79062B00F2B9
:1005E000818001A252F823F00506000825060008C4
:1005F000450600086506000885060008A5060008EF
:10060000C506000801220221404800F066FE0022D3
:1006100080213F4800F061FE002204213B4800F0A9
:100620005CFE6FE000220221384800F056FE0122F5
:100630008021374800F051FE00220421334800F0A9
:100640004CFE5FE000220221304800F046FE00220E
:1006500080212F4800F041FE012204212B4800F0A8
:100660003CFE4FE001220221284800F036FE012224
:100670008021274800F031FE00220421234800F0A9
:100680002CFE3FE001220221204800F026FE00223D
:1006900080211F4800F021FE012204211B4800F0A8
:1006A0001CFE2FE000220221184800F016FE012255
:1006B0008021174800F011FE01220421134800F0A8
:1006C0000CFE1FE001220221104800F006FE01226C
:1006D00080210F4800F001FE012204210B4800F0A8
:1006E000FCFD0FE000220221084800F0F6FD002288
:1006F0008021074800F0F1FD00220421034800F0AA
:10070000ECFD00BF00BF0837BD4680BD00200140A2
:100710000018014080B500AF4FF4FA7001F014FDED
:1007200000210320FFF766FE4FF4FA7001F00CFD84
:1007300001210320FFF75EFE4FF4FA7001F004FD83
:1007400002210320FFF756FE4FF4FA7001F0FCFC83
:1007500003210320FFF74EFE4FF4FA7001F0F4FC82
:1007600004210320FFF746FE4FF4FA7001F0ECFC81
:1007700005210320FFF73EFE4FF4FA7001F0E4FC80
:1007800006210320FFF736FE4FF4FA7001F0DCFC7F
:10079000C2E7000080B500AF0A4B1B68002B0DD0EC
:1007A0000120FFF745FD642001F0CEFC0020FFF79B
:1007B0003FFD4FF47A7001F0C7FCEDE70020FFF732
:1007C00037FDE9E73800002080B500AF0C4B1B680F
:1007D000002B04D04FF480410A4800F096FD0A4BEC
:1007E0001B68002B05D04FF40041064800F08DFD3A
:1007F000ECE700224FF44041024800F06EFDE5E7CF
:100800003C000020002001404000002080B500AFE7
:100810000120FFF759FD0346012B09D1164B1B6838
:10082000002B0CBF01230023DBB21A46124B1A60C7
:100830000120FFF77BFD0346012B09D10F4B1B68FD
:10084000002B0CBF01230023DBB21A460B4B1A60AE
:100850000120FFF79DFD0346012B09D1084B1B68C2
:10086000002B0CBF01230023DBB21A46044B1A6095
:100870000A2001F069FCCBE7380000203C00002092
:100880004000002080B485B000AFF860B9607A60A5
:10089000FB68064A1A60BB68054A1A607B688022BA
:1008A0001A6000BF1437BD4680BC7047540000205A
:1008B000A8000020B0B59CB000AF274B07F154044E
:1008C0001D460FCD0FC495E8070084E8070007F127
:1008D00054030021184601F0EBFB03461F4A136046
:1008E0001F4B07F138041D460FCD0FC495E80700D4
:1008F00084E8070007F138030021184601F0D8FB0F
:100900000346184A1360184B07F11C041D460FCD0F
:100910000FC495E8070084E8070007F11C030021D5
:10092000184601F0C5FB0346104A1360104B3C46C5
:100930001D460FCD0FC495E8070084E807003B462D
:100940000021184601F0B4FB03460A4A136000BFB9
:100950007037BD46B0BD00BF9C3400084400002085
:10096000C434000848000020EC3400084C0000208B
:10097000143500085000002080B582B000AF7860C8
:10098000FFF7C8FE00BF0837BD4680BD80B582B006
:1009900000AF7860FFF7FEFE00BF0837BD4680BDA0
:1009A00080B582B000AF7860FFF730FF00BF083736
:1009B000BD4680BD80B582B000AF7860FFF704FF10
:1009C00000BF0837BD4680BD80B588B000AF07F1D5
:1009D000100300221A605A609A60DA602D4B9B69FE
:1009E0002C4A43F0400393612A4B9B6903F0400378
:1009F000FB60FB68274B9B69264A43F48073936135
:100A0000244B9B6903F48073BB60BB68214B9B69DB
:100A1000204A43F0040393611E4B9B6903F00403D7
:100A20007B607B6800229C211B4800F056FC002262
:100A30004DF20601194800F050FC9C233B61012354
:100A40007B610023BB610223FB6107F110031946A0
:100A5000114800F097FA4DF206033B6101237B61D8
:100A60000023BB610223FB6107F1100319460B4809
:100A700000F088FA38233B6100237B610023BB61CF
:100A800007F110031946054800F07CFA00BF203733
:100A9000BD4680BD0010024000180140002001400A
:100AA00080B500AF00F05CF900F007F8FFF78CFFAD
:100AB000FFF700FF01F0F5FAFEE780B590B000AF58
:100AC00007F1180328220021184602F0A9FC3B1D5B
:100AD00000221A605A609A60DA601A610123BB61D1
:100AE0004FF48033FB6100233B620123BB6202238E
:100AF0007B634FF48033BB634FF4E013FB6307F178
:100B00001803184600F01AFC0346002B01D000F031
:100B10002BF80F237B600223BB600023FB604FF4A4
:100B200080633B6100237B613B1D0221184600F07E
:100B300087FE0346002B01D000F016F800BF4037B7
:100B4000BD4680BD80B582B000AF78607B681B6811
:100B5000044A934201D100F019F900BF0837BD469D
:100B600080BD00BF002C014080B400AF72B600BF52
:100B7000FEE7000080B584B000AF184B9B69174AB0
:100B800043F001039361154B9B6903F00103BB60C4
:100B9000BB68124BDB69114A43F08053D3610F4BA2
:100BA000DB6903F080537B607B6800220F216FF0CC
:100BB000010000F0BCF90A4B5B68FB60FB6823F0A6
:100BC000E063FB60FB6843F00073FB60044AFB6872
:100BD000536000BF1037BD4680BD00BF001002400B
:100BE0000000014080B58CB000AF78600023BB628C
:100BF00000237B62002387F82F302E4B9B692D4A00
:100C000043F4006393612B4B9B6903F40063BB6067
:100C1000BB6807F10C0207F110031146184600F0FB
:100C20006BFF00F055FFB862BB6A234AA2FB0323A7
:100C30009B0C013B7B62214B214A1A601F4B40F207
:100C4000E732DA601D4A7B6A53601C4B00221A614E
:100C50001A4B00229A60194B00229A61174800F043
:100C600099FF034687F82F3097F82F30002B1BD1C0
:100C7000124800F0E7FF034687F82F3097F82F302F
:100C8000002B11D1192000F06EF97B680F2B08D8CA
:100C900000227968192000F04AF90A4A7B6813603B
:100CA00002E0012387F82F3097F82F3018463037AD
:100CB000BD4680BD0010024083DE1B43A802002019
:100CC000002C01400400002080B400AFFEE780B497
:100CD00000AFFEE780B400AFFEE780B400AFFEE7F0
:100CE00080B400AFFEE780B400AF00BFBD4680BC5B
:100CF0007047000080B500AF024801F003F800BF64
:100D000080BD00BFA802002080B400AF00BFBD4678
:100D100080BC7047FFF7F8FF0B480C490C4A0023D2
:100D200002E0D458C4500433C4188C42F9D3094AA1
:100D3000094C002301E013600432A242FBD302F00D
:100D400077FBFFF7ADFE7047000000201000002089
:100D50006C3500081000002040100020FEE7000065
:100D600080B500AF084B1B68074A43F010031360BF
:100D7000032000F0D1F80F20FFF734FFFFF7FAFE51
:100D80000023184680BD00BF0020024080B400AFA1
:100D9000054B1B781A46054B1B681344034A136026
:100DA00000BFBD4680BC704708000020F002002054
:100DB00080B400AF024B1B681846BD4680BC70472C
:100DC000F002002080B485B000AF78607B6803F04B
:100DD0000703FB600C4BDB68BB60BA684FF6FF0390
:100DE0001340BB60FB681A02BB68134343F0BF6348
:100DF00043F40033BB60044ABB68D36000BF1437C0
:100E0000BD4680BC704700BF00ED00E080B400AF7D
:100E1000044BDB681B0A03F007031846BD4680BC81
:100E2000704700BF00ED00E080B483B000AF034620
:100E3000FB7197F90730002B0BDBFB7903F01F02E6
:100E4000064997F907305B09012000FA02F241F8E0
:100E5000232000BF0C37BD4680BC704700E100E096
:100E600080B483B000AF03463960FB7197F9073057
:100E7000002B0ADB3B68DAB20C4997F90730120104
:100E8000D2B20B4483F800230AE03B68DAB2084987
:100E9000FB7903F00F03043B1201D2B20B441A7624
:100EA00000BF0C37BD4680BC704700BF00E100E0CA
:100EB00000ED00E080B489B000AFF860B9607A60FE
:100EC000FB6803F00703FB61FB69C3F10703042B15
:100ED00028BF0423BB61FB690433062B02D9FB69DD
:100EE000033B00E000237B614FF0FF32BB6902FA55
:100EF00003F3DA43BB681A407B699A404FF0FF3135
:100F00007B6901FA03F3D9437B680B40134318460E
:100F10002437BD4680BC704780B582B000AF786092
:100F20007868FFF74FFF00BF0837BD4680BD80B52A
:100F300086B000AF0346B9607A60FB7300237B6123
:100F4000FFF764FF78617A68B9687869FFF7B2FFE4
:100F5000024697F90F3011461846FFF781FF00BF90
:100F60001837BD4680BD80B582B000AF0346FB7127
:100F700097F907301846FFF757FF00BF0837BD46FF
:100F800080BD000080B48BB000AF78603960002372
:100F90007B6200233B6279E101227B6A02FA03F360
:100FA000FB613B681B68FA691340BB61BA69FB6966
:100FB0009A4240F068813B685B68964A93425ED0F3
:100FC000944A934275D8944A934258D0924A934295
:100FD0006FD8924A934252D0904A934269D8904A2D
:100FE00093424CD08E4A934263D88E4A934246D065
:100FF0008C4A93425DD8122B2AD8122B59D801A2C1
:1010000052F823F07F100008591000086B100008F8
:10101000AD100008B3100008B3100008B3100008AA
:10102000B3100008B3100008B3100008B310000894
:10103000B3100008B3100008B3100008B310000884
:10104000B3100008B3100008611000087510000804
:10105000754A934213D02CE03B68DB683B6229E081
:101060003B68DB6804333B6224E03B68DB680833A1
:101070003B621FE03B68DB680C333B621AE03B6875
:101080009B68002B02D104233B6213E03B689B6802
:10109000012B05D108233B627B68FA691A6109E0DC
:1010A00008233B627B68FA695A6103E000233B62D4
:1010B00000E000BFBB69FF2B01D87B6801E07B68C3
:1010C00004337B61BB69FF2B02D87B6A9B0002E083
:1010D0007B6A083B9B003B617B691A680F213B6977
:1010E00001FA03F3DB431A40396A3B6901FA03F35F
:1010F0001A437B691A603B685B6803F08053002BDE
:1011000000F0C180494B9B69484A43F00103936159
:10111000464B9B6903F00103BB60BB68444A7B6A92
:101120009B08023352F82330FB607B6A03F0030311
:101130009B000F2202FA03F3DB43FA681340FB60C3
:101140007B683C4A93421FD07B683B4A934219D04C
:101150007B683A4A934213D07B68394A93420DD058
:101160007B68384A934207D07B68374A934201D163
:1011700005230AE0062308E0042306E0032304E035
:10118000022302E0012300E000237A6A02F0030256
:1011900092009340FA681343FB6025497B6A9B08E1
:1011A0000233FA6841F823203B685B6803F480133C
:1011B000002B06D0254B9A682449BB6913438B60EA
:1011C00006E0224B9A68BB69DB43204913408B60E1
:1011D0003B685B6803F40013002B06D01B4BDA68F6
:1011E0001A49BB691343CB6006E0184BDA68BB6948
:1011F000DB4316491340CB603B685B6803F4003364
:10120000002B25D0114B5A681049BB6913434B6022
:1012100025E000BF00003210000031100000221055
:1012200000002110000012100000111000100240F8
:101230000000014000080140000C01400010014086
:101240000014014000180140001C0140000401404E
:10125000154B5A68BB69DB43134913404B603B682D
:101260005B6803F48033002B06D00F4B1A680E49DD
:10127000BB6913430B6006E00B4B1A68BB69DB4389
:10128000094913400B607B6A01337B623B681A6833
:101290007B6A22FA03F3002B7FF47EAE00BF00BF0F
:1012A0002C37BD4680BC70470004014080B485B037
:1012B00000AF78600B467B807B689A687B88134020
:1012C000002B02D00123FB7301E00023FB73FB7BA7
:1012D00018461437BD4680BC704780B483B000AF59
:1012E00078600B467B8013467B707B78002B03D0A5
:1012F0007A887B681A6103E07B881A047B681A612C
:1013000000BF0C37BD4680BC704780B485B000AFCD
:1013100078600B467B807B68DB68FB607A88FB68C3
:1013200013401A04FB68D9437B880B401A437B683F
:101330001A6100BF1437BD4680BC704780B586B0C7
:1013400000AF78607B68002B01D1012372E27B68DB
:101350001B6803F00103002B00F08780924B5B6851
:1013600003F00C03042B0CD08F4B5B6803F00C03D1
:10137000082B12D18C4B5B6803F48033B3F5803FAC
:101380000BD1894B1B6803F40033002B6CD07B68B6
:101390005B68002B68D101234CE27B685B68B3F586
:1013A000803F06D1804B1B687F4A43F48033136033
:1013B0002EE07B685B68002B0CD17B4B1B687A4A64
:1013C00023F480331360784B1B68774A23F480231F
:1013D00013601DE07B685B68B3F5A02F0CD1724BE6
:1013E0001B68714A43F4802313606F4B1B686E4A7D
:1013F00043F4803313600BE06B4B1B686A4A23F4A1
:1014000080331360684B1B68674A23F480231360A2
:101410007B685B68002B13D0FFF7CAFC386108E0DB
:10142000FFF7C6FC02463B69D31A642B01D903239C
:1014300000E25D4B1B6803F40033002BF0D014E096
:10144000FFF7B6FC386108E0FFF7B2FC02463B69E3
:10145000D31A642B01D90323ECE1534B1B6803F42B
:101460000033002BF0D100E000BF7B681B6803F065
:101470000203002B63D04C4B5B6803F00C03002B82
:101480000BD0494B5B6803F00C03082B1CD1464B77
:101490005B6803F48033002B16D1434B1B6803F0C9
:1014A0000203002B05D07B681B69012B01D00123AF
:1014B000C0E13D4B1B6823F0F8027B685B69DB00F1
:1014C000394913430B603AE07B681B69002B20D03D
:1014D000364B01221A60FFF76BFC386108E0FFF71A
:1014E00067FC02463B69D31A022B01D90323A1E111
:1014F0002D4B1B6803F00203002BF0D02A4B1B6816
:1015000023F0F8027B685B69DB00274913430B601B
:1015100015E0264B00221A60FFF74AFC386108E00C
:10152000FFF746FC02463B69D31A022B01D903237D
:1015300080E11D4B1B6803F00203002BF0D17B6898
:101540001B6803F00803002B3AD07B689B69002BD3
:1015500019D0174B01221A60FFF72AFC386108E006
:10156000FFF726FC02463B69D31A022B01D903235D
:1015700060E10D4B5B6A03F00203002BF0D0012009
:1015800000F0EAFA1CE00A4B00221A60FFF710FC98
:1015900038610FE0FFF70CFC02463B69D31A022BBF
:1015A00008D9032346E100BF001002400000424278
:1015B00080044242924B5B6A03F00203002BE9D1A4
:1015C0007B681B6803F00403002B00F0A680002357
:1015D000FB758B4BDB6903F08053002B0DD1884BDF
:1015E000DB69874A43F08053D361854BDB6903F0A5
:1015F0008053BB60BB680123FB75824B1B6803F4FF
:101600008073002B18D17F4B1B687E4A43F4807394
:101610001360FFF7CDFB386108E0FFF7C9FB024616
:101620003B69D31A642B01D9032303E1754B1B6873
:1016300003F48073002BF0D07B68DB68012B06D1AC
:101640006F4B1B6A6E4A43F0010313622DE07B6807
:10165000DB68002B0CD16A4B1B6A694A23F001033B
:101660001362674B1B6A664A23F0040313621CE093
:101670007B68DB68052B0CD1614B1B6A604A43F029
:10168000040313625E4B1B6A5D4A43F0010313625D
:101690000BE05B4B1B6A5A4A23F001031362584B61
:1016A0001B6A574A23F0040313627B68DB68002B34
:1016B00015D0FFF77DFB38610AE0FFF779FB0246A2
:1016C0003B69D31A41F28832934201D90323B1E036
:1016D0004B4B1B6A03F00203002BEED014E0FFF724
:1016E00067FB38610AE0FFF763FB02463B69D31AE8
:1016F00041F28832934201D903239BE0404B1B6A9D
:1017000003F00203002BEED1FB7D012B05D13C4BF6
:10171000DB693B4A23F08053D3617B68DB69002B94
:1017200000F08780364B5B6803F00C03082B61D018
:101730007B68DB69022B46D1334B00221A60FFF72E
:1017400037FB386108E0FFF733FB02463B69D31AE9
:10175000022B01D903236DE0294B1B6803F00073B2
:10176000002BF0D17B681B6AB3F5803F08D1244B76
:101770005B6823F400327B689B68214913434B600C
:101780001F4B5B6823F474127B68196A7B685B6A81
:101790000B431B4913434B601B4B01221A60FFF79D
:1017A00007FB386108E0FFF703FB02463B69D31AE9
:1017B000022B01D903233DE0114B1B6803F000739A
:1017C000002BF0D035E0104B00221A60FFF7F0FA42
:1017D000386108E0FFF7ECFA02463B69D31A022BA6
:1017E00001D9032326E0064B1B6803F00073002B8E
:1017F000F0D11EE07B68DB69012B07D1012319E0E2
:101800000010024000700040600042420B4B5B68D9
:10181000FB60FB6803F480327B681B6A9A4206D146
:10182000FB6803F470127B685B6A9A4201D0012363
:1018300000E0002318461837BD4680BD0010024066
:1018400080B584B000AF786039607B68002B01D12F
:101850000123D0E06A4B1B6803F007033A689A4201
:1018600010D9674B1B6823F0070265493B68134397
:101870000B60634B1B6803F007033A689A4201D080
:101880000123B8E07B681B6803F00203002B20D023
:101890007B681B6803F00403002B05D0594B5B6881
:1018A000584A43F4E06353607B681B6803F0080305
:1018B000002B05D0534B5B68524A43F4605353608E
:1018C000504B5B6823F0F0027B689B684D491343E3
:1018D0004B607B681B6803F00103002B40D07B68E2
:1018E0005B68012B07D1474B1B6803F40033002BC7
:1018F00015D101237FE07B685B68022B07D1414B48
:101900001B6803F00073002B09D1012373E03D4BEA
:101910001B6803F00203002B01D101236BE0394B5C
:101920005B6823F003027B685B68364913434B60B6
:10193000FFF73EFAF8600AE0FFF73AFA0246FB6862
:10194000D31A41F28832934201D9032353E02D4B3D
:101950005B6803F00C027B685B689B009A42EBD1EA
:10196000274B1B6803F007033A689A4210D2244BB6
:101970001B6823F0070222493B6813430B60204B8E
:101980001B6803F007033A689A4201D0012332E052
:101990007B681B6803F00403002B08D0194B5B68BD
:1019A00023F4E0627B68DB68164913434B607B6875
:1019B0001B6803F00803002B09D0124B5B6823F46B
:1019C00060527B681B69DB000E4913434B6000F0DB
:1019D00021F802460B4B5B681B0903F00F030A4911
:1019E000CB5C22FA03F3094A1360094B1B681846C3
:1019F000FFF7F8F8002318461037BD4680BD00BF3A
:101A0000002002400010024038350008000000208D
:101A10000400002080B487B000AF0023FB600023E7
:101A2000BB6000237B6100237B6000233B611E4B76
:101A30005B68FB60FB6803F00C03042B02D0082BEF
:101A400003D027E0194B3B6127E0FB689B0C03F0B8
:101A50000F03174AD35C7B60FB6803F48033002BD1
:101A600010D0114B5B685B0C03F00103114AD35C8F
:101A7000BB607B680D4A03FB02F2BB68B2FBF3F369
:101A80007B6104E07B680C4A02FB03F37B617B69AA
:101A90003B6102E0054B3B6100BF3B6918461C37C8
:101AA000BD4680BC704700BF0010024000127A00A3
:101AB000503500086035000800093D0080B400AFD3
:101AC000024B1B681846BD4680BC704700000020D2
:101AD00080B500AFFFF7F2FF0246054B5B68DB0AFB
:101AE00003F007030349CB5C22FA03F3184680BDD9
:101AF000001002404835000880B483B000AF786021
:101B000039607B680F221A60114B5B6803F0030297
:101B10007B685A600E4B5B6803F0F0027B689A604A
:101B20000B4B5B6803F4E0627B68DA60084B5B6830
:101B3000DB0803F4E0627B681A61064B1B6803F064
:101B400007023B681A6000BF0C37BD4680BC704777
:101B5000001002400020024080B485B000AF7860E1
:101B60000A4B1B680A4AA2FB03235B0A7A6802FB42
:101B700003F3FB6000BFFB685A1EFA60002BF9D12B
:101B800000BF00BF1437BD4680BC70470000002076
:101B9000D34D621080B582B000AF78607B68002BB7
:101BA00001D1012341E07B6893F83D30DBB2002B8B
:101BB00006D17B68002283F83C20786800F039F871
:101BC0007B68022283F83D207B681A687B680433B7
:101BD0001946104600F0C2F97B68012283F84620BE
:101BE0007B68012283F83E207B68012283F83F2036
:101BF0007B68012283F840207B68012283F8412022
:101C00007B68012283F842207B68012283F843200D
:101C10007B68012283F844207B68012283F84520F9
:101C20007B68012283F83D20002318460837BD4613
:101C300080BD80B483B000AF786000BF0C37BD4674
:101C400080BC704780B485B000AF78607B6893F843
:101C50003D30DBB2012B01D0012344E07B6802223E
:101C600083F83D207B681B68DA687B681B6842F05C
:101C70000102DA607B681B681D4A934218D07B68BA
:101C80001B681C4A934213D07B681B68B3F1804FDA
:101C90000ED07B681B68184A934209D07B681B688A
:101CA000164A934204D07B681B68154A934211D1AF
:101CB0007B681B689B6803F00703FB60FB68062BCF
:101CC00010D07B681B681A687B681B6842F00102B1
:101CD0001A6007E07B681B681A687B681B6842F023
:101CE00001021A60002318461437BD4680BC7047B5
:101CF000002C014000340140000400400008004076
:101D0000000C004080B582B000AF78607B681B6833
:101D10001B6903F00203022B22D17B681B68DB687E
:101D200003F00203022B1BD17B681B686FF00202D9
:101D30001A617B6801221A777B681B689B6903F034
:101D40000303002B03D0786800F0EDF805E0786815
:101D500000F0E0F8786800F0EFF87B6800221A776E
:101D60007B681B681B6903F00403042B22D17B688A
:101D70001B68DB6803F00403042B1BD17B681B6822
:101D80006FF004021A617B6802221A777B681B6875
:101D90009B6903F44073002B03D0786800F0C3F80C
:101DA00005E0786800F0B6F8786800F0C5F87B6860
:101DB00000221A777B681B681B6903F00803082B55
:101DC00022D17B681B68DB6803F00803082B1BD15A
:101DD0007B681B686FF008021A617B6804221A771F
:101DE0007B681B68DB6903F00303002B03D0786872
:101DF00000F099F805E0786800F08CF8786800F059
:101E00009BF87B6800221A777B681B681B6903F0CC
:101E10001003102B22D17B681B68DB6803F01003D2
:101E2000102B1BD17B681B686FF010021A617B6856
:101E300008221A777B681B68DB6903F44073002B68
:101E400003D0786800F06FF805E0786800F062F879
:101E5000786800F071F87B6800221A777B681B684D
:101E60001B6903F00103012B0ED17B681B68DB6843
:101E700003F00103012B07D17B681B686FF001029F
:101E80001A617868FEF75EFE7B681B681B6903F0C9
:101E90008003802B0ED17B681B68DB6803F0800316
:101EA000802B07D17B681B686FF080021A6178680D
:101EB00000F0D7F87B681B681B6903F04003402BD8
:101EC0000ED17B681B68DB6803F04003402B07D111
:101ED0007B681B686FF040021A61786800F035F883
:101EE0007B681B681B6903F02003202B0ED17B68E5
:101EF0001B68DB6803F02003202B07D17B681B687D
:101F00006FF020021A61786800F0A2F800BF08376D
:101F1000BD4680BD80B483B000AF786000BF0C3791
:101F2000BD4680BC704780B483B000AF786000BF0E
:101F30000C37BD4680BC704780B483B000AF78607A
:101F400000BF0C37BD4680BC704780B483B000AF83
:101F5000786000BF0C37BD4680BC704780B485B048
:101F600000AF786039607B681B68FB607B68334A30
:101F7000934213D07B68324A93420FD07B68B3F10F
:101F8000804F0BD07B682F4A934207D07B682E4A44
:101F9000934203D07B682D4A934208D1FB6823F01B
:101FA0007003FB603B685B68FA681343FB607B6807
:101FB000224A934213D07B68214A93420FD07B6818
:101FC000B3F1804F0BD07B681E4A934207D07B68E9
:101FD0001D4A934203D07B681C4A934208D1FB6898
:101FE00023F44073FB603B68DB68FA681343FB60D3
:101FF000FB6823F080023B685B691343FB607B68EE
:10200000FA681A603B689A687B68DA623B681A680B
:102010007B689A627B68094A934203D07B68084ACE
:10202000934203D13B681A697B681A637B6801227B
:102030005A6100BF1437BD4680BC7047002C014078
:10204000003401400004004000080040000C004043
:1020500080B483B000AF786000BF0C37BD4680BC51
:10206000704780B483B000AF786000BF0C37BD46C6
:1020700080BC704780B485B000AF0346FB8000236E
:10208000FB60B7F90630842B05D0B7F90620FB6852
:1020900013440333FB60FB6818461437BD4680BC0D
:1020A000704780B500AF00F0D1FA0023184680BD1C
:1020B000F0B589B004AF786039607B685B69002B4C
:1020C00020D07B689B69002B1CD07B685C687B6898
:1020D0001D687B681E697B68B3F908301846FFF7F6
:1020E000C9FF01467B685B697A6892690292019335
:1020F00000913B6832462946204600F0E8F8034646
:10210000FB601CE07B685C687B681D687B681B6902
:102110009EB27B68B3F908301846FFF7ABFF024662
:1021200007F10C03019300923B6832462946204692
:1021300000F029F90346012B01D0002300E0FB68E1
:1021400018461437BD46F0BD80B584B000AF786046
:102150007B68FB60FB68002B01D0FB6800E001237B
:10216000184600F03FFA002318461037BD4680BDE0
:1021700080B483B000AF78607B6803F108027B68AD
:102180005A607B684FF0FF329A607B6803F1080267
:102190007B68DA607B6803F108027B681A617B6800
:1021A00000221A6000BF0C37BD4680BC704780B467
:1021B00083B000AF78607B6800221A6100BF0C37E3
:1021C000BD4680BC704780B485B000AF7860396090
:1021D0007B685B68FB603B68FA685A60FB689A68DA
:1021E0003B689A60FB689B683A685A60FB683A688B
:1021F0009A603B687A681A617B681B685A1C7B6826
:102200001A6000BF1437BD4680BC704780B485B0EB
:1022100000AF786039603B681B68BB60BB68B3F196
:10222000FF3F03D17B681B69FB600CE07B680833D0
:10223000FB6002E0FB685B68FB60FB685B681B6837
:10224000BA689A42F6D2FB685A683B685A603B68A3
:102250005B683A689A603B68FA689A60FB683A681B
:102260005A603B687A681A617B681B685A1C7B68F5
:102270001A6000BF1437BD4680BC704780B485B07B
:1022800000AF78607B681B69FB607B685B687A687D
:1022900092689A607B689B687A6852685A60FB68AB
:1022A0005B687A689A4203D17B689A68FB685A60D7
:1022B0007B6800221A61FB681B685A1EFB681A6063
:1022C000FB681B6818461437BD4680BC704780B554
:1022D0008EB004AFF860B9607A603B607B6B002B16
:1022E0000AD14FF0500383F31188BFF36F8FBFF310
:1022F0004F8F3B6200BFFEE7BB6B002B0AD14FF054
:10230000500383F31188BFF36F8FBFF34F8FFB61CF
:1023100000BFFEE754233B613B69542B0AD04FF0CA
:10232000500383F31188BFF36F8FBFF34F8FBB61EF
:1023300000BFFEE7BB6B002B1ED07B6B002B1BD0BE
:10234000BB6B7B627B6A7A6B1A637B6A022283F8BF
:102350005120002303937B6A029307F11403019336
:102360003B6B00933B687A68B968F86800F050F8F6
:10237000786A00F0CDF801E000237B617B691846A4
:102380002837BD4680BD80B58CB004AFF860B96019
:102390003B601346FB80FB889B00184600F068FEFC
:1023A00078617B69002B0ED0542000F061FEF8614B
:1023B000FB69002B03D0FB697A691A6305E0786931
:1023C00000F01AFF01E00023FB61FB69002B17D02E
:1023D000FB69002283F85120FA8800230393FB69EC
:1023E0000293FB6A0193BB6A00933B68B968F86883
:1023F00000F00EF8F86900F08BF80123BB6102E0F1
:102400004FF0FF33BB61BB6918462037BD4680BD26
:1024100080B588B000AFF860B9607A603B603B6B14
:102420001A6B7B6803F18043013B9B001344BB6143
:10243000BB6923F00703BB61BB6903F00703002BF3
:102440000AD04FF0500383F31188BFF36F8FBFF3AF
:102450004F8F7B6100BFFEE70023FB6112E0BA688B
:10246000FB69134419783A6BFB69134434330A4609
:102470001A70BA68FB6913441B78002B06D0FB69FD
:102480000133FB61FB690F2BE9D900E000BF3B6B17
:10249000002283F84320BB6A062B01D90623BB62C6
:1024A0003B6BBA6ADA623B6BBA6A5A643B6B0022D6
:1024B0009A643B6B04331846FFF779FE3B6B183385
:1024C0001846FFF774FE3B6B3A6B1A61BB6AC3F1A7
:1024D00007023B6B9A613B6B3A6B5A623B6B002283
:1024E000DA643B6B002283F850203A68F968B869D7
:1024F00000F00EFC02463B6B1A60FB6A002B02D018
:10250000FB6A3A6B1A6000BF2037BD4680BD0000F1
:1025100080B582B000AF786000F0E8FC2A4B1B6801
:102520000133294A1360294B1B68002B09D1274A24
:102530007B681360244B1B68012B10D100F0C0FA9C
:102540000DE0234B1B68002B09D1204B1B68DA6A76
:102550007B68DB6A9A4202D81C4A7B6813601D4B79
:102560001B6801331B4A13607B68DB6A01229A40B7
:10257000194B1B681343184A13607B68DA6A1346C9
:102580009B0013449B00154A1A447B680433194688
:102590001046FFF718FE00F0D9FC0D4B1B68002B0E
:1025A0000ED00A4B1B68DA6A7B68DB6A9A4207D254
:1025B0000B4B4FF080521A60BFF34F8FBFF36F8FFA
:1025C00000BF0837BD4680BDF4030020F4020020A0
:1025D0000004002010040020FC030020F80200206A
:1025E00004ED00E080B584B000AF78600023FB60AC
:1025F0007B68002B17D0134B1B68002B0AD04FF0C1
:10260000500383F31188BFF36F8FBFF34F8FBB600D
:1026100000BFFEE700F07AF80021786800F012FBB6
:1026200000F082F8F860FB68002B07D1064B4FF0F2
:1026300080521A60BFF34F8FBFF36F8F00BF103708
:10264000BD4680BD1C04002004ED00E080B58AB0CA
:1026500004AF0023BB6000237B603A46391D07F1BD
:1026600008031846FEF70EF939687B68BA680292CB
:1026700001930023009300230A461E491E48FFF7DA
:1026800026FE03461D4A13601C4B1B68002B02D01C
:1026900001237B6101E000237B617B69012B16D163
:1026A0004FF0500383F31188BFF36F8FBFF34F8F49
:1026B0003B6100BF124B4FF0FF321A60114B0122F9
:1026C0001A60114B00221A6000F09EFB0EE07B693D
:1026D000B3F1FF3F0AD14FF0500383F31188BFF3EA
:1026E0006F8FBFF34F8FFB6000BFFEE700BF18374F
:1026F000BD4680BD30350008912A0008180400202E
:102700001404002000040020F803002080B400AF6F
:10271000044B1B680133034A136000BFBD4680BCF5
:10272000704700BF1C04002080B584B000AF0023B8
:10273000FB600023BB60414B1B68002B0AD14FF0AC
:10274000500383F31188BFF36F8FBFF34F8F3B604C
:1027500000BFFEE700F0CAFB384B1B68013B374A5D
:102760001360364B1B68002B61D1354B1B68002B67
:102770005DD02EE0334BDB68DB68FB60FB68183311
:102780001846FFF77BFDFB6804331846FFF776FD1C
:10279000FB68DB6A01229A402B4B1B6813432A4AD1
:1027A0001360FB68DA6A13469B0013449B00274AB8
:1027B0001A44FB68043319461046FFF704FDFB6812
:1027C000DA6A234B1B68DB6A9A4202D3214B01224F
:1027D0001A601C4B1B68002BCCD1FB68002B01D06E
:1027E00000F00CFA1C4B1B687B607B68002B10D040
:1027F00000F036F80346002B02D0164B01221A6077
:102800007B68013B7B607B68002BF1D1124B00227F
:102810001A60104B1B68002B09D00123BB600F4BC3
:102820004FF080521A60BFF34F8FBFF36F8F00F0ED
:102830008DFBBB6818461037BD4680BD1C040020C8
:10284000F4030020B4030020FC030020F802002061
:10285000F4020020080400200404002004ED00E03D
:1028600080B586B000AF00237B61514B1B68002B05
:1028700040F08D804F4B1B6801333B614D4A3B69F3
:1028800013603B69002B20D14B4B1B681B68002B4E
:102890000AD04FF0500383F31188BFF36F8FBFF35B
:1028A0004F8F3B6000BFFEE7434B1B68FB60434B11
:1028B0001B68414A1360414AFB681360404B1B6828
:1028C00001333F4A136000F099F93E4B1B683A69A7
:1028D0009A424DD3384B1B681B68002B01D1012352
:1028E00000E00023002B04D0364B4FF0FF321A607B
:1028F0003EE0314B1B68DB68DB68BB60BB685B6834
:102900007B603A697B689A4203D22E4A7B681360E7
:102910002EE0BB6804331846FFF7B0FCBB689B6A27
:10292000002B04D0BB6818331846FFF7A7FCBB6820
:10293000DB6A01229A40244B1B681343224A13602E
:10294000BB68DA6A13469B0013449B001F4A1A4473
:10295000BB68043319461046FFF735FCBB68DA6ADA
:102960001B4B1B68DB6A9A42B4D301237B61B1E73E
:10297000174B1B68DA6A154913469B0013449B00EA
:102980000B441B68012B07D901237B6104E0114B29
:102990001B6801330F4A13600F4B1B68002B01D0DB
:1029A00001237B617B6918461837BD4680BD00BF97
:1029B0001C040020F8030020AC030020B00300201A
:1029C0000C04002014040020FC030020F802002066
:1029D000F4020020040400200804002080B487B022
:1029E00000AF264B1B68002B03D0254B01221A6039
:1029F0003FE0234B00221A60224B1B68FB60FB6800
:102A0000B3FA83F3FB72FB7AC3F11F037B611E49A8
:102A10007A6913469B0013449B000B441B68002BF0
:102A20000AD14FF0500383F31188BFF36F8FBFF3C8
:102A30004F8F7B6000BFFEE77A6913469B0013440B
:102A40009B00114A13443B613B695B685A683B69D0
:102A50005A603B695A683B6908339A4204D13B6922
:102A60005B685A683B695A603B695B68DB68074A88
:102A7000136000BF1C37BD4680BC70471C0400209B
:102A800008040020FC030020F8020020F4020020CB
:102A900080B582B000AF786000F052F8064B1B683A
:102AA000012BF9D9054B4FF080521A60BFF34F8FBD
:102AB000BFF36F8FF0E700BFF802002004ED00E0E5
:102AC00080B582B000AF00237B600CE07A681346CB
:102AD0009B0013449B00124A13441846FFF748FB1F
:102AE0007B6801337B607B68062BEFD90D48FFF7CD
:102AF0003FFB0D48FFF73CFB0C48FFF739FB0C4848
:102B0000FFF736FB0B48FFF733FB0B4B054A1A6008
:102B10000A4B054A1A6000BF0837BD4680BD00BF9A
:102B2000F80200208403002098030020B403002052
:102B3000C8030020E0030020AC030020B003002005
:102B400080B582B000AF19E000F0D0F9104BDB681F
:102B5000DB687B607B6804331846FFF78FFB0D4B07
:102B60001B68013B0B4A13600B4B1B68013B0A4A75
:102B7000136000F0EBF9786800F010F8064B1B6862
:102B8000002BE1D100BF00BF0837BD4680BD00BFAC
:102B9000C8030020F4030020DC03002080B584B0CB
:102BA00000AF78607B6893F85130002B08D17B68C8
:102BB0001B6B184600F020FB786800F01DFB18E046
:102BC0007B6893F85130012B03D1786800F014FB37
:102BD0000FE07B6893F85130022B0AD04FF050037E
:102BE00083F31188BFF36F8FBFF34F8FFB6000BF7C
:102BF000FEE700BF1037BD4680BD000080B483B043
:102C000000AF0E4B1B681B68002B01D1012300E0B5
:102C10000023002B04D00A4B4FF0FF321A6008E06B
:102C2000064B1B68DB68DB687B607B685B68044A7B
:102C3000136000BF0C37BD4680BC7047AC0300205A
:102C40001404002080B584B000AF78603960294B4F
:102C50001B68FB60284B1B6804331846FFF70EFB0C
:102C60000346002B0BD1244B1B68DB6A012202FABE
:102C700003F3DA43214B1B681340204A13607B683F
:102C8000B3F1FF3F0AD13B68002B07D01A4B1B68FA
:102C9000043319461A48FFF796FA26E0FA687B686B
:102CA0001344BB60144B1B68BA685A60BA68FB686F
:102CB0009A4209D2134B1A680F4B1B68043319460A
:102CC0001046FFF7A3FA10E00F4B1A680A4B1B6877
:102CD000043319461046FFF799FA0C4B1B68BA6883
:102CE0009A4202D2094ABB68136000BF1037BD4642
:102CF00080BD00BFF8030020F4020020FC03002088
:102D0000E0030020B0030020AC03002014040020E6
:102D100080B485B000AFF860B9607A60FB68043BAE
:102D2000FB60FB684FF080721A60FB68043BFB603D
:102D3000BB6823F00102FB681A60FB68043BFB6080
:102D4000084AFB681A60FB68143BFB607A68FB6802
:102D50001A60FB68203BFB60FB6818461437BD46D1
:102D600080BC7047692D000880B485B000AF002397
:102D70007B60124B1B68B3F1FF3F0AD04FF050034A
:102D800083F31188BFF36F8FBFF34F8FFB6000BFDA
:102D9000FEE74FF0500383F31188BFF36F8FBFF34B
:102DA0004F8FBB6000BF00BF7B68002BFCD000BF13
:102DB00000BF1437BD4680BC704700BF0C00002028
:102DC000074B19680868B0E8F00F80F30988BFF373
:102DD0006F8F4FF0000080F311884EF00D0E70479A
:102DE000F402002000BF00BF06480068006880F3BE
:102DF000088862B661B6BFF34F8FBFF36F8F00DFF5
:102E000000BF00BF08ED00E080B584B000AF324BDA
:102E1000FB60FB681B78DBB27B60FB68FF221A70EB
:102E2000FB681B78DBB2FB70FB78DBB203F050036E
:102E3000DAB22A4B1A702A4B07221A6009E0284B93
:102E40001B68013B264A1360FB78DBB25B00DBB2F8
:102E5000FB70FB78DBB203F08003802BEFD0204BBC
:102E60001B68C3F10703042B0AD04FF0500383F310
:102E70001188BFF36F8FBFF34F8FBB6000BFFEE7BA
:102E8000174B1B681B02164A1360154B1B6803F493
:102E9000E063134A13607B68DAB2FB681A70114B67
:102EA0001B68104A43F4700313600E4B1B680D4AF5
:102EB00043F07043136000F0B9F80B4B00221A6026
:102EC000FFF792FFFFF78AFDFFF74EFF002318463A
:102ED0001037BD4680BD00BF00E400E020040020A4
:102EE0002404002020ED00E00C00002080B483B01A
:102EF00000AF4FF0500383F31188BFF36F8FBFF320
:102F00004F8F7B6000BF0F4B1B6801330D4A13606E
:102F10000C4B1B68012B0FD10B4B1B68DBB2002B3A
:102F20000AD04FF0500383F31188BFF36F8FBFF3C4
:102F30004F8F3B6000BFFEE700BF0C37BD4680BC33
:102F4000704700BF0C00002004ED00E080B483B0A7
:102F500000AF114B1B68002B0AD14FF0500383F3D5
:102F60001188BFF36F8FBFF34F8F7B6000BFFEE709
:102F7000094B1B68013B084A1360074B1B68002B79
:102F800005D100233B603B6883F3118800BF00BF7D
:102F90000C37BD4680BC70470C00002000000000CC
:102FA000EFF30980BFF36F8F0D4B1A6820E9F00F24
:102FB00010602DE908404FF0500080F31188FFF7B2
:102FC0000DFD4FF0000080F31188BDE8084019683E
:102FD0000868B0E8F00F80F30988BFF36F8F70477F
:102FE000F402002000BF00BF80B582B000AF4FF0F8
:102FF000500383F31188BFF36F8FBFF34F8F7B6054
:1030000000BFFFF72DFC0346002B03D0064B4FF00B
:1030100080521A6000233B603B6883F3118800BF35
:1030200000BF0837BD4680BD04ED00E080B400AFAE
:103030000A4B00221A600A4B00221A60094B1B68D7
:10304000094AA2FB03239B09084A013B1360034B77
:1030500007221A6000BFBD4680BC704710E000E048
:1030600018E000E000000020D34D621014E000E002
:1030700080B58AB000AF78600023FB61FFF746FBA4
:10308000584B1B68002B01D100F010F9564B1A6801
:103090007B681340002B40F08E807B68002B1DD096
:1030A00008227B6813447B607B6803F00703002BD6
:1030B00014D07B6823F0070308337B607B6803F040
:1030C0000703002B0AD04FF0500383F31188BFF39E
:1030D0006F8FBFF34F8F7B6100BFFEE77B68002BD4
:1030E00069D0424B1B687A689A4264D8404B3B6275
:1030F0003F4B1B687B6204E07B6A3B627B6A1B6818
:103100007B627B6A5B687A689A4203D97B6A1B6838
:10311000002BF1D1334B1B687A6A9A424BD03B6A41
:103120001B6808221344FB617B6A1A683B6A1A60B9
:103130007B6A5A687B68D21A08235B009A421FD9BF
:103140007A6A7B681344BB61BB6903F00703002BF9
:103150000AD04FF0500383F31188BFF36F8FBFF392
:103160004F8F3B6100BFFEE77B6A5A687B68D21ACB
:10317000BB695A607B6A7A685A60B86900F0F8F8EF
:103180001A4B1A687B6A5B68D31A184A1360174B8C
:103190001A68184B1B689A4203D2144B1B68154AD5
:1031A00013607B6A5A68104B1B681A437B6A5A602B
:1031B0007B6A00221A60FFF7B7FAFB6903F0070386
:1031C000002B0AD04FF0500383F31188BFF36F8FA9
:1031D000BFF34F8FFB6000BFFEE7FB69184628373F
:1031E000BD4680BD301000203C100020341000206F
:1031F000281000203810002080B586B000AF78601D
:103200007B687B617B68002B48D008235B427A692E
:1032100013447B617B693B613B695A68214B1B68A6
:103220001340002B0AD14FF0500383F31188BFF3F2
:103230006F8FBFF34F8FFB6000BFFEE73B691B68DA
:10324000002B0AD04FF0500383F31188BFF36F8F28
:10325000BFF34F8FBB6000BFFEE73B695A68114B5D
:103260001B681340002B19D03B691B68002B15D13C
:103270003B695A680B4B1B68DB431A403B695A6039
:10328000FFF744FA3B695A68074B1B681344064A28
:103290001360386900F06CF8FFF746FA00BF183782
:1032A000BD4680BD3C1000203410002080B485B0A5
:1032B00000AF4FF44063BB60274BFB60FB6803F03B
:1032C0000703002B0CD0FB680733FB60FB6823F07F
:1032D0000703FB60BA68FB68D31A1F4A1344BB603C
:1032E000FB687B601D4A7B6813601C4B00225A60A0
:1032F0007B68BA681344FB600822FB689B1AFB607A
:10330000FB6823F00703FB60FB68154A1360144B4E
:103310001B6800225A60124B1B6800221A607B68EF
:103320003B603B68FA68D21A3B685A600C4B1A68DB
:103330003B681A603B685B680A4A13603B685B68DD
:10334000094A1360094B4FF000421A6000BF14375E
:10335000BD4680BC704700BF280400202810002014
:103360003010002038100020341000203C100020C5
:1033700080B485B000AF7860274BFB6002E0FB684B
:103380001B68FB60FB681B687A689A42F7D8FB6889
:10339000BB60FB685B68BA6813447A689A4208D1DC
:1033A000FB685A687B685B681A44FB685A60FB6874
:1033B0007B607B68BB607B685B68BA681A44FB68AB
:1033C0001B689A4218D1FB681A68144B1B689A4212
:1033D0000DD07B685A68FB681B685B681A447B6881
:1033E0005A60FB681B681A687B681A6008E00B4B20
:1033F0001A687B681A6003E0FB681A687B681A60C9
:10340000FA687B689A4202D0FB687A681A6000BF4B
:103410001437BD4680BC70472810002030100020B3
:1034200003460244934200D1704703F8011BF9E7B9
:1034300070B500260C4D0D4C641BA410A64209D19A
:1034400000F01AF800260A4D0A4C641BA410A6428C
:1034500005D170BD55F8043B98470136EEE755F8A5
:10346000043B98470136F2E76435000864350008EC
:103470006435000868350008F8B500BFF8BC08BC22
:103480009E467047F8B500BFF8BC08BC9E46704722
:103490006D795461736B5F524742000090340008AD
:1034A0007909000800000000000000008000000012
:1034B00000000000000000006D795461736B5F42F2
:1034C00065657000B83400088D090008FDFF000034
:1034D000000000008000000000000000000000006C
:1034E0006D795461736B5F4B45590000E0340008FF
:1034F000A1090008FDFF000000000000800000009E
:1035000000000000000000006D795461736B5F4C97
:103510004544000008350008B5090008FDFF00001B
:10352000000000008000000000000000000000001B
:1035300049444C450000000000000000000000006D
:103540000102030406070809000000000102030449
:1035500002030405060708090A0B0C0D0E0F1010D4
:043560000102000064
:043564001502000844
:04356800F101000865
:10356C000024F4001000000001000000AAAAAAAA7E
:0400000508000D15CD
:00000001FF
