:020000040800F2
:1000000000000120B9320008912800089928000852
:10001000A1280008A9280008B12800080000000055
:10002000000000000000000000000000B9280008E7
:10003000C528000800000000D1280008DD280008BD
:1000400001330008013300080133000801330008C0
:1000500001330008013300080133000801330008B0
:1000600001330008013300080133000801330008A0
:100070000133000801330008013300080133000890
:100080000133000801330008013300080133000880
:100090000133000801330008013300080133000870
:1000A0000133000801330008013300080133000860
:1000B0000133000801330008013300080133000850
:1000C0000133000801330008013300080133000840
:1000D0000133000801330008013300080133000830
:1000E0000133000801330008013300080133000820
:1000F0000133000801330008013300080133000810
:1001000001330008013300080133000801330008FF
:100110000133000801330008E92800080133000812
:1001200001330008013300080133000801330008DF
:1001300000000000000000000000000000000000BF
:1001400000000000000000000000000000000000AF
:10015000000000000000000000000000000000009F
:10016000000000000000000000000000000000008F
:10017000000000000000000000000000000000007F
:10018000000000000000000000000000000000006F
:10019000000000000000000000000000000000005F
:1001A000000000000000000000000000000000004F
:1001B000000000000000000000000000000000003F
:1001C000000000000000000000000000000000002F
:1001D000000000000000000000000000000000001F
:0401E0005FF8E0F1F3
:1001E40010B5054C237833B9044B13B10448AFF36D
:1001F40000800123237010BD2800002000000000AF
:10020400B484000808B5034B1BB103490348AFF39A
:10021400008008BD000000002C000020B484000809
:1002240081F0004102E000BF83F0004330B54FEAA3
:1002340041044FEA430594EA050F08BF90EA020F10
:100244001FBF54EA000C55EA020C7FEA645C7FEAA3
:10025400655C00F0E2804FEA5454D4EB5555B8BFC6
:100264006D420CDD2C4480EA020281EA030382EA37
:10027400000083EA010180EA020281EA0303362DC9
:1002840088BF30BD11F0004F4FEA01314FF4801C9C
:100294004CEA113102D0404261EB410113F0004FAE
:1002A4004FEA03334CEA133302D0524263EB430365
:1002B40094EA050F00F0A780A4F10104D5F1200E03
:1002C4000DDB02FA0EFC22FA05F2801841F100015E
:1002D40003FA0EF2801843FA05F359410EE0A5F132
:1002E40020050EF1200E012A03FA0EFC28BF4CF063
:1002F400020C43FA05F3C01851EBE37101F0004519
:1003040007D54FF0000EDCF1000C7EEB00006EEB25
:100314000101B1F5801F1BD3B1F5001F0CD34908AF
:100324005FEA30004FEA3C0C04F101044FEA445206
:1003340012F5800F80F09A80BCF1004F08BF5FEA8D
:10034400500C50F1000041EB045141EA050130BD6D
:100354005FEA4C0C404141EB0101013C28BFB1F57F
:10036400801FE9D291F0000F04BF01460020B1FACA
:1003740081F308BF2033A3F10B03B3F120020CDA9D
:100384000C3208DD02F1140CC2F10C0201FA0CF07B
:1003940021FA02F10CE002F11402D8BFC2F1200CE0
:1003A40001FA02F120FA0CFCDCBF41EA0C01904096
:1003B400E41AA2BF01EB0451294330BD6FEA0404DF
:1003C4001F3C1CDA0C340EDC04F11404C4F12002CA
:1003D40020FA04F001FA02F340EA030021FA04F3DC
:1003E40045EA030130BDC4F10C04C4F1200220FA33
:1003F40002F001FA04F340EA0300294630BD21FA71
:1004040004F0294630BD94F0000F83F4801306BF36
:1004140081F480110134013D4EE77FEA645C18BF2A
:100424007FEA655C29D094EA050F08BF90EA020FC1
:1004340005D054EA000C04BF1946104630BD91EAB9
:10044400030F1EBF0021002030BD5FEA545C05D1BC
:100454004000494128BF41F0004130BD14F58004FB
:100464003CBF01F5801130BD01F0004545F0FE416F
:1004740041F470014FF0000030BD7FEA645C1ABFA4
:10048400194610467FEA655C1CBF0B46024650EADB
:10049400013406BF52EA033591EA030F41F4002107
:1004A40030BD00BF90F0000F04BF0021704730B58D
:1004B4004FF4806404F132044FF000054FF0000162
:1004C40050E700BF90F0000F04BF0021704730B523
:1004D4004FF4806404F1320410F0004548BF4042F8
:1004E4004FF000013EE700BF42004FEAE2014FEA4D
:1004F40031014FEA02701FBF12F07F4393F07F4F28
:1005040081F06051704732F07F4208BF704793F02A
:100514007F4F04BF41F40021704730B54FF460743D
:1005240001F0004521F000411CE700BF50EA010240
:1005340008BF704730B54FF000050AE050EA0102E9
:1005440008BF704730B511F0004502D5404261EB59
:1005540041014FF4806404F132045FEA915C3FF49A
:10056400D8AE4FF003025FEADC0C18BF03325FEA37
:10057400DC0C18BF033202EBDC02C2F1200300FAE8
:1005840003FC20FA02F001FA03FE40EA0E0021FA0D
:1005940002F11444BDE600BF4FEA4102B2F1E04368
:1005A40024BFB3F5001CDCF1FE5C0DD901F0004C56
:1005B4004FEAC0024CEA5070B2F1004F40EB8300A6
:1005C40008BF20F00100704711F0804F21D113F1D2
:1005D4003872BCBF01F00040704741F480114FEA0B
:1005E4005252C2F11802C2F1200C10FA0CF320FA94
:1005F40002F018BF40F001004FEAC1234FEAD323B1
:1006040003FA0CFC40EA0C0023FA02F34FEA43031A
:10061400CCE77FEA625307D150EA01331EBF4FF0A3
:10062400FE4040F44000704701F0004040F0FE40BE
:1006340040F40000704700BF80F0004002E000BFBB
:1006440081F0004142001FBF5FEA410392EA030FB9
:100654007FEA226C7FEA236C6AD04FEA1262D2EB03
:100664001363C1BFD218414048404140B8BF5B4208
:10067400192B88BF704710F0004F40F4000020F0A1
:100684007F4018BF404211F0004F41F4000121F0B7
:100694007F4118BF494292EA030F3FD0A2F1010201
:1006A40041FA03FC10EB0C00C3F1200301FA03F13F
:1006B40000F0004302D5494260EB4000B0F5000F62
:1006C40013D3B0F1807F06D340084FEA310102F121
:1006D4000102FE2A51D2B1F1004F40EBC25008BFD3
:1006E40020F0010040EA03007047490040EB00009D
:1006F400013A28BFB0F5000FEDD2B0FA80FCACF19E
:10070400080CB2EB0C0200FA0CF0AABF00EBC250CA
:1007140052421843BCBFD0401843704792F0000FB8
:1007240081F4000106BF80F400000132013BB5E70B
:100734004FEA41037FEA226C18BF7FEA236C21D081
:1007440092EA030F04D092F0000F08BF08467047E6
:1007540090EA010F1CBF0020704712F07F4F04D1B4
:10076400400028BF40F00040704712F100723CBFC7
:1007740000F50000704700F0004343F0FE4040F4F1
:10078400000070477FEA226216BF08467FEA2363AF
:100794000146420206BF5FEA412390EA010F40F49A
:1007A400800070474FF0000304E000BF10F00043E6
:1007B40048BF40425FEA000C08BF704743F09643CD
:1007C40001464FF000001CE050EA010208BF7047E8
:1007D4004FF000030AE000BF50EA010208BF70476F
:1007E40011F0004302D5404261EB41015FEA010C84
:1007F40002BF84460146002043F0B64308BFA3F17C
:100804008053A3F50003BCFA8CF2083AA3EBC2535D
:1008140010DB01FA02FC634400FA02FCC2F120027C
:10082400BCF1004F20FA02F243EB020008BF20F0B3
:100834000100704702F1200201FA02FCC2F1200219
:1008440050EA4C0021FA02F243EB020008BF20EA0E
:10085400DC7070474FF0FF0C1CEAD0521EBF1CEA3C
:10086400D15392EA0C0F93EA0C0F6FD01A4480EA2A
:10087400010C400218BF5FEA41211ED04FF0006313
:1008840043EA501043EA5111A0FB01310CF000403F
:10089400B1F5000F3EBF490041EAD3715B0040EA65
:1008A400010062F17F02FD2A1DD8B3F1004F40EB35
:1008B400C25008BF20F00100704790F0000F0CF008
:1008C400004C08BF49024CEA502040EA51207F3ACC
:1008D400C2BFD2F1FF0340EAC250704740F40000A7
:1008E4004FF00003013A5DDC12F1190FDCBF00F098
:1008F40000407047C2F10002410021FA02F1C2F146
:10090400200200FA02FC5FEA310040F1000053EAE1
:100914004C0308BF20EADC70704792F0000F00F02F
:10092400004C02BF400010F4000F013AF9D040EA35
:100934000C0093F0000F01F0004C02BF490011F4C9
:10094400000F013BF9D041EA0C018FE70CEAD153C7
:1009540092EA0C0F18BF93EA0C0F0AD030F0004C47
:1009640018BF31F0004CD8D180EA010000F00040FB
:10097400704790F0000F17BF90F0004F084691F0B9
:10098400000F91F0004F14D092EA0C0F01D14202F3
:100994000FD193EA0C0F03D14B0218BF084608D1BC
:1009A40080EA010000F0004040F0FE4040F4000006
:1009B400704740F0FE4040F4400070474FF0FF0C99
:1009C4001CEAD0521EBF1CEAD15392EA0C0F93EAE0
:1009D4000C0F69D0A2EB030280EA010C49024FEA32
:1009E400402037D04FF0805343EA111143EA1013EB
:1009F4000CF000408B4238BF5B0042F17D024FF4A3
:100A0400000C8B4224BF5B1A40EA0C00B3EB510F7D
:100A140024BFA3EB510340EA5C00B3EB910F24BF66
:100A2400A3EB910340EA9C00B3EBD10F24BFA3EBEB
:100A3400D10340EADC001B0118BF5FEA1C1CE0D1B3
:100A4400FD2A3FF650AF8B4240EBC25008BF20F066
:100A5400010070470CF0004C4CEA50207F32C2BFBA
:100A6400D2F1FF0340EAC250704740F400004FF057
:100A74000003013A37E792F0000F00F0004C02BF88
:100A8400400010F4000F013AF9D040EA0C0093F052
:100A9400000F01F0004C02BF490011F4000F013BAC
:100AA400F9D041EA0C0195E70CEAD15392EA0C0F14
:100AB40008D142027FF47DAF93EA0C0F7FF470AF4C
:100AC400084676E793EA0C0F04D14B023FF44CAF8F
:100AD40008466EE730F0004C18BF31F0004CCAD124
:100AE40030F000427FF45CAF31F000437FF43CAF60
:100AF4005FE700BF4FF0FF3C06E000BF4FF0010C82
:100B040002E000BF4FF0010C4DF804CD4FEA400263
:100B14004FEA41037FEA226C18BF7FEA236C11D0AD
:100B240001B052EA530C18BF90EA010F58BFB2EB60
:100B3400030088BFC81738BF6FEAE17018BF40F0E0
:100B4400010070477FEA226C02D15FEA402C05D194
:100B54007FEA236CE4D15FEA412CE1D05DF8040B19
:100B6400704700BF844608466146FFE70FB5FFF7AC
:100B7400C9FF002848BF10F1000F0FBD4DF808ED64
:100B8400FFF7F4FF0CBF012000205DF808FB00BF55
:100B94004DF808EDFFF7EAFF34BF012000205DF8AF
:100BA40008FB00BF4DF808EDFFF7E0FF94BF0120FC
:100BB40000205DF808FB00BF4DF808EDFFF7D2FFF9
:100BC40094BF012000205DF808FB00BF4DF808ED3C
:100BD400FFF7C8FF34BF012000205DF808FB00BF09
:100BE4004FEA4002B2F1FE4F0FD34FF09E03B3EB36
:100BF40012620DD94FEA002343F0004310F0004F76
:100C040023FA02F018BF404270474FF000007047CB
:100C140012F1610F01D1420205D110F0004008BF6A
:100C24006FF0004070474FF00000704780B400AF91
:100C3400124B4FF000021A60104B4FF000029A6002
:100C44000E4B4FF000029A610C4B4FF00002DA6138
:100C54000A4B4FF000021A62084B4FF000025A622E
:100C6400064B074ADA60054B064A1A61034B4FF0FC
:100C740082425A6100BFBD4680BC70474C000020D0
:100C84000000AA420000A04080B582B000AF7860A6
:100C94007968044801F0DCF8034618460837BD4675
:100CA40080BD00BF4C00002080B500AF144B1B7802
:100CB400C3F140031846FFF779FD0346114A136058
:100CC400104B1B681846FFF7DFFF03461846FFF773
:100CD40087FF03461846FFF769FD03460A4A136077
:100CE400094B1B681846FFF77BFF03461BB21A46E5
:100CF400002140F2771000F059FE00BF80BD00BF14
:100D040074010020440000204800002080B586B013
:100D140000AF0346FB7107F10C0300221A605A600E
:100D24009A60FB79FB6001233B6107237B6107F138
:100D34000C0319460C4802F01BFF0346002B01D09C
:100D440001F060FD084802F003FD4FF4FA71064813
:100D540002F0C4FD044802F0E3FE03469BB21846C9
:100D64001837BD4680BD00BF4805002080B483B05D
:100D740000AF00237B6002E07B6801337B607B680B
:100D8400092BF9DD00BF00BF0C37BD4680BC70479E
:100D940080B582B000AF0023FB710023BB71204BF0
:100DA40001221A601F4B00221A60FFF7DFFF1D4B60
:100DB40001221A601A4B00221A60FFF7D7FF184B62
:100DC40001221A60174B00221A60FFF7CFFF00239D
:100DD400FB711CE0124B00221A60FFF7C7FFFFF7FC
:100DE400C5FF0420FFF792FF03461A46BB79120998
:100DF40091B20D4A22F81310BB790133BB71084B31
:100E040001221A60FFF7B2FFFB790133FB7197F9F6
:100E14000730002BDEDA00BF00BF0837BD4680BDB7
:100E240094812342908123427400002080B400AF57
:100E3400804B1A88804B1A80804B05221A8017E059
:100E44007E4B1B881A467B4B33F812207A4B1B8847
:100E54009A4207D3794B1B881A46764B33F81220F3
:100E6400754B1A80754B1B8801339AB2734B1A80E9
:100E7400724B1B887A2BE3D96E4B1A88704B1A80FD
:100E84006E4B05221A8017E06C4B1B881A46694B7F
:100E940033F812206A4B1B889A4207D8674B1B8889
:100EA4001A46644B33F81220654B1A80634B1B8837
:100EB40001339AB2614B1A80604B1B887A2BE3D9B9
:100EC4005D4B1B881A465E4B1B881344DA0F134490
:100ED4005B10DAB25B4B1A70584B05221A8046E05D
:100EE400564B1B881A46534B33F81230554A127826
:100EF400934236D9514B1B8801334E4A32F8133092
:100F0400504A127893422CD94C4B1B880233494ADD
:100F140032F813304B4A1278934222D9474B1B883C
:100F24000333444A32F81330464A1278934218D2B3
:100F3400424B1B8804333F4A32F81330414A12783B
:100F440093420ED23D4B1B8805333A4A32F8133094
:100F54003C4A1278934204D2384B1A883A4B1A808E
:100F640009E0364B1B8801339AB2344B1A80334B59
:100F74001B88752BB4D9354B76221A8046E0334B47
:100F84001B881A462B4B33F812302E4A12789342A0
:100F940036D22E4B1B880133264A32F81330294AA5
:100FA400127893422CD2294B1B880233214A32F8FF
:100FB4001330244A1278934222D2244B1B880333E1
:100FC4001C4A32F813301F4A1278934218D91F4B27
:100FD4001B880433174A32F813301A4A12789342A2
:100FE4000ED91A4B1B880533124A32F81330154AAE
:100FF4001278934204D9154B1A88154B1A8009E0CC
:10100400124B1B88013B9AB2104B1A800F4B1B8862
:10101400052BB4D80E4B1B881A460B4B1B88134464
:10102400DA0F13445B10DAB20A4B1A7000BFBD46E4
:1010340080BC704774000020F8010020FA010020F1
:10104400FC01002075010020FE01002000020020A8
:10105400020200207401002080B582B000AFFFF7C7
:1010640097FEFFF7E3FE00237B600EE00B4A7B68EC
:1010740032F81330DB089BB2D9B2094A7B681344B7
:101084000A461A707B6801337B607B687F2BEDDD39
:10109400034B18460837BD4680BD00BF74000020CE
:1010A4007801002080B584B000AF786000F0B2F918
:1010B4000023FB6012E0FB687A6813441B781F2B43
:1010C40009D8FB6898B2FB687A6813441B7801223C
:1010D400194600F041F9FB680133FB60FB687F2B84
:1010E400E9DD00F09EF900BF1037BD4680BD000069
:1010F40080B500AF0821054803F072FB0346002BBE
:1011040001D1012300E00023184680BD00200140E6
:1011140080B582B000AF0346FB71FFF7E9FF0346D9
:10112400012B0ED1114B1B881A46FB7901335B004E
:101134009A420CDA0D4B1B8801339AB20B4B1A807E
:1011440005E00A4B00221A80094B00221A80074B43
:101154001B88022B04D1064B01221A80012300E0D4
:10116400002318460837BD4680BD00BF0602002094
:101174000402002080B586B004AF03460A46FB7122
:101184001346BB71FB799AB20A230293012301939C
:10119400BB1D009301237821034803F02FFD00BFFA
:1011A4000837BD4680BD00BF7805002080B500AF7C
:1011B400642002F007F9AE210020FFF7DBFFA6212F
:1011C4000020FFF7D7FFAE210020FFF7D3FFD52182
:1011D4000020FFF7CFFF80210020FFF7CBFFA821DD
:1011E4000020FFF7C7FF1F210020FFF7C3FFD32113
:1011F4000020FFF7BFFF00210020FFF7BBFF4021C5
:101204000020FFF7B7FF8D210020FFF7B3FF142163
:101214000020FFF7AFFF20210020FFF7ABFF0221E2
:101224000020FFF7A7FFA1210020FFF7A3FFC8219B
:101234000020FFF79FFFDA210020FFF79BFF022128
:101244000020FFF797FF81210020FFF793FFCF21B4
:101254000020FFF78FFFD9210020FFF78BFFF1213A
:101264000020FFF787FFDB210020FFF783FF4021E9
:101274000020FFF77FFF2E210020FFF77BFFA42132
:101284000020FFF777FFA6210020FFF773FFAF21AF
:101294000020FFF76FFF002000F046F800F00EF882
:1012A400054B00221A80044B00225A80024B012273
:1012B4005A7100BF80BD00BF0804002080B582B011
:1012C40000AF0023FB7125E0FB79503BDBB21946EC
:1012D4000020FFF74FFF00210020FFF74BFF1021F4
:1012E4000020FFF747FF0023BB710CE0BA79FB79BC
:1012F400DB0113440B4AD35C19464020FFF73AFF45
:10130400BB790133BB7197F90630002BEEDAFB7918
:101314000133FB71FB79072BD6D900BF00BF083717
:10132400BD4680BD0802002080B582B000AF0346F0
:10133400FB71FB79002B01D1002300E0FF234FF464
:1013440000721946034807F087F800BF0837BD4606
:1013540080BD00BF0802002080B483B000AF034604
:10136400FB800B46BB801346FB70FB887F2B48D861
:10137400BB881F2B45D8254B1B79002B06D0FB7847
:10138400002B0CBF01230023DBB2FB70FB78012B85
:101394001AD1FA88BB88DB0898B20346DB011344F0
:1013A4001B4AD35C5AB2BB8803F00703012101FA3C
:1013B40003F35BB2134359B2FA880346DB011344C7
:1013C400C9B2134AD1541DE0FA88BB88DB0898B22D
:1013D4000346DB0113440E4AD35C5AB2BB8803F0C4
:1013E4000703012101FA03F35BB2DB435BB2134051
:1013F40059B2FA880346DB011344C9B2044AD154F2
:1014040000E000BF0C37BD4680BC704708040020D4
:101414000802002080B500AF0020FFF785FF00BF61
:1014240080BD80B500AFFFF749FF00BF80BD80B528
:1014340000AF00F079FF00F083FCFFF7F7FBFFF744
:10144400B5FE00BF80BD000080B500AFFFF704FE0D
:1014540003461846FFF726FE0120FFF759FE034610
:10146400002B12D001224FF40041174803F0D8F9A1
:10147400164B1B780133DAB2144B1A70134B1B78DA
:10148400022B02D9114B00221A70104B1B78002B2F
:1014940011D1FFF7CBFB0021002000F09DFA0022C0
:1014A4004FF40041084803F0BBF9084B1B780133A3
:1014B400DAB2064B1A70054B1B78022B01D1FFF7E9
:1014C400F3FB00BF80BD00BF002001400E040020DC
:1014D40080B485B000AF0346FB710023FB81FB7928
:1014E400032B41D801A252F823F000BF01150008D4
:1014F4001B15000839150008531500081E4B5B6ABC
:101504009BB2C3F5FF437F339BB2FB811A4B47F673
:10151400FF725A6229E04FF080435B6A9BB2C3F5C5
:10152400FF437F339BB2FB814FF0804347F6FF724A
:101534005A621AE0114B5B6A9BB2C3F5FF437F33D7
:101544009BB2FB810D4B47F6FF725A620DE00C4BC8
:101554005B6A9BB2C3F5FF437F339BB2FB81084BAD
:1015640047F6FF725A6200E000BFB7F90E30184622
:101574001437BD4680BC704700080040000C004092
:101584000004004080B483B000AF78600B4B1A684D
:101594007B681A607B680433094A12681A607B68A6
:1015A4000833084A12681A607B680C33064A1268CA
:1015B4001A6000BF0C37BD4680BC70471004002081
:1015C40014040020180400201C04002080B500AF7F
:1015D4000020FFF77DFF03461A46124B1B689B1A37
:1015E400104A13600120FFF773FF03461A460E4B9F
:1015F4001B689B1A0C4A13600220FFF769FF03461D
:101604001A460A4B1B681344084A13600320FFF769
:101614005FFF03461A46064B1B681344044A1360D3
:1016240000BF80BD10040020140400201804002012
:101634001C04002080B400AF024B1846BD4680BC99
:10164400704700BF0000824490B583B000AF0446E9
:10165400084611461A462346FB800346BB800B46C8
:101664007B8013463B80B7F9063013F5616F0ADBC4
:10167400B7F90630B3F5616F05DCB7F906301946E2
:10168400002000F0BDFDB7F9043013F5616F0ADBEB
:10169400B7F90430B3F5616F05DCB7F904301946C6
:1016A400012000F0ADFDB7F9023013F5616F0ADBDC
:1016B400B7F90230B3F5616F05DCB7F902301946AA
:1016C400022000F09DFDB7F9003013F5616F0ADBCD
:1016D400B7F90030B3F5616F05DCB7F9003019468E
:1016E400032000F08DFD00BF0C37BD4690BD000007
:1016F40080B582B000AF0346FB71002300220021B5
:10170400002000F015F8042000F052FC064B0022E3
:101714001A70064B00221A70FB79184600F024FD5B
:1017240000BF0837BD4680BD70040020A40400201B
:1017340090B585B000AF0446084611461A462346C4
:10174400FB800346BB800B467B8013463B80184BD3
:1017540001221A70174AFB881384164ABB885384E3
:10176400144A7B889384134A3B88D3840023FB73F5
:1017740016E0FB7B0F4A103332F913301846FEF79C
:10178400A1FE02460B4610461946FEF705FF024627
:10179400FB7B1146184600F097FCFB7B0133FB737F
:1017A400FB7B032BE5D900BF00BF1437BD4690BDBA
:1017B400700400207C04002080B58AB000AF7860FB
:1017C40000237B6207F1080300221A605A609A60C2
:1017D400DA6000F0B1F83862FFF72CFFF86100F02E
:1017E400A1F8B86100F0B2F800237B621EE0494A18
:1017F4007B6A52F82330642202FB03F31846FEF797
:10180400D5FF0346396A1846FFF724F80346F969F9
:101814001846FFF7D3F803461A467B6A9B00283321
:101824003B4443F8202C7B6A01337B627B6A032BA5
:10183400DDDDBB68FA6811461846FEF703FF034670
:101844001A463B6919461046FEF7FCFE03461A4643
:101854007B6919461046FEF7F5FE03464FF08141B9
:101864001846FFF7ABF803461846FFF7B9F90346E5
:101874001AB27B681A807B6800225A80BB68FA68B7
:1018840011461846FEF7DEFE03461A463B69194622
:101894001046FEF7D5FE03461A467B6919461046E4
:1018A400FEF7CEFE034683F000434FF08141184615
:1018B400FFF784F80346B9691846FFF77FF8034633
:1018C40015491846FEF7C6FF03461846FFF788F980
:1018D40003461AB27B689A80104B1B78002B15D0F4
:1018E40000237B620CE07B6A9B0028333B4453F863
:1018F400202C0B497B6A41F823207B6A01337B62ED
:101904007B6A032BEFDD064800F02AFB00BF283773
:10191400BD4680BD6004002000007A4470040020AD
:101924007C04002080B400AF024B1846BD4680BC46
:10193400704700BF00001F4380B400AF024B18463D
:10194400BD4680BC704700BFF8334C4380B582B0BD
:1019540000AF1348FFF716FE0023FB7117E0FB7975
:101964000F4A52F82310FB790E4A52F82320FB79D0
:101974008A1A0D4941F82320FA79FB79084951F86C
:101984002220084941F82320FB790133FB71FB79BC
:10199400032BE4D900BF00BF0837BD4680BD00BF9C
:1019A40040040020500400206004002080B582B070
:1019B40000AF0346FB800B46BB8013467B80B7F920
:1019C4000220B7F90410B7F90630184600F088F879
:1019D40000BF0837BD4680BD80B582B000AF034666
:1019E4000A46FB711346BB803C4ABB881380FB79D3
:1019F400072B6DD801A252F823F000BF211A00086A
:101A04003B1A00084B1A00085F1A00087F1A0008E6
:101A1400991A0008B51A0008CD1A00082F4B0022A5
:101A24001A80BB88002B14BF01230023DBB21846A5
:101A3400FFF75EFE4DE0B7F904300022002118469E
:101A440000F04EF845E0BB885B429BB21BB200221B
:101A54000021184600F044F83BE0BB885B089BB2C9
:101A640018B2BB881A46D203D31A5B009BB21BB2CE
:101A74001A46002100F034F82BE0BB885B089BB2C7
:101A840018B2BB885B009BB21BB21A46002100F05F
:101A940027F81EE0BB881A469203D21A9200D31A82
:101AA4009BB21BB21A460021002000F019F810E086
:101AB400BB881A46920013449BB21BB21A460021FB
:101AC400002000F00DF804E00120FFF711FE00E013
:101AD40000BF00BF0837BD4680BD00BF3C040020E6
:101AE40080B584B000AF0346FB800B46BB80134631
:101AF4007B80FFF717FFF8606F4B4FF000021A600E
:101B0400B7F906301846FEF751FE03466B4A1360D8
:101B1400B7F902301846FEF749FE034668491846ED
:101B2400FEF74CFF0346F9681846FEF793FE03469A
:101B34001A46644B1A60B7F90630002B0BD1B7F97B
:101B44000430002B07D1B7F90230002B03D1012058
:101B5400FFF7CEFDADE0594B1B68574A126811469A
:101B64001846FEF76FFD03461A46564B1B68194686
:101B74001046FEF767FD03461846FFF731F80346A3
:101B8400514A13604D4B1B684B4A12681146184664
:101B9400FEF756FD03461A464A4B1B681946104683
:101BA400FEF750FD03461846FFF71AF80346474A66
:101BB4001360424B1B68404A126811461846FEF7F0
:101BC4003FFD03461A463F4B1B6819461046FEF775
:101BD40037FD03461846FFF703F803463C4A1360F3
:101BE400364B1B68344A126811461846FEF72AFD24
:101BF40003461A46334B1B6819461046FEF720FD70
:101C040003461846FEF7ECFF0346324A13602E4B98
:101C14001B68B3F57A7F03DD2B4B4FF47A721A609D
:101C2400294B1B6813F57A7F02DA274B2A4A1A607C
:101C3400264B1B68B3F57A7F03DD244B4FF47A728D
:101C44001A60224B1B6813F57A7F02DA1F4B224A73
:101C54001A601F4B1B68B3F57A7F03DD1C4B4FF4EE
:101C64007A721A601A4B1B6813F57A7F02DA184BE2
:101C7400194A1A60174B1B68B3F57A7F03DD154BBD
:101C84004FF47A721A60134B1B6813F57A7F02DAE9
:101C9400104B114A1A600C4B1B6818B20B4B1B6893
:101CA40019B20B4B1B681AB20A4B1B681BB2FFF725
:101CB4003FFD1037BD4680BD2004002024040020D1
:101CC40000007A44280400202C0400203004002062
:101CD400340400203804002018FCFFFFF8B500AFDE
:101CE4001448FFF769FD144B1B78002B20D0134BCD
:101CF4001B691846FEF774FF03461CB20F4B5B6961
:101D04001846FEF76DFF03461DB20C4B9B6918463F
:101D1400FEF766FF03461EB2084BDB691846FEF762
:101D24005FFF03461BB2324629462046FFF78CFC70
:101D340000BFF8BD74040020700400207C0400205F
:101D440080B483B000AF00237B6062E03A497A68D4
:101D540013469B001344DB000B444FF000021A604F
:101D640035497A6813469B001344DB000B4408335F
:101D74004FF000021A6030497A6813469B001344FE
:101D8400DB000B4418334FF000021A602A497A68CA
:101D940013469B001344DB000B441C334FF000023A
:101DA4001A6025497A6813469B001344DB000B44F0
:101DB40020334FF000021A601F497A6813469B00D3
:101DC4001344DB000B4424334FF000021A601A4919
:101DD4007A6813469B001344DB000B440C33174A08
:101DE4001A6015497A6813469B001344DB000B44C0
:101DF4001033134A1A6010497A6813469B0013443F
:101E0400DB000B4414334FF07C521A607B680133BF
:101E14007B607B68032B99DD0A4B0B4A5A60094BA4
:101E24004FF000029A60074B084ADA6000BF0C3793
:101E3400BD4680BC704700BFA8040020CDCC4C3FF9
:101E44008FC2753D00000020CDCCCC3ECDCCCC3D26
:101E54002DE9F04182B000AF786039607B681B687F
:101E640039681846FEF7ECFB03461A467B689A610C
:101E74007B689C687B68DD687B689A697B681B6A01
:101E840019461046FEF7DCFB034619462846FEF7C2
:101E9400E1FC03461D467B681A697B689B69194609
:101EA4001046FEF7D7FC034619462846FEF7CAFB40
:101EB400034698467B685D697B689E697B681B6AFC
:101EC40019461846FEF7BEFB034619463046FEF790
:101ED400B7FB03461A467B68DB6919461046FEF7D2
:101EE400B1FB034619462846FEF7B4FC03461946DF
:101EF4004046FEF7A7FB034619462046FEF7A2FB21
:101F040003461A467B689A607B681A6A7B68DA61C2
:101F14007B689A697B681A627B689B680E491846DD
:101F2400FEF754FE0346002B02D07B680A4A9A60EF
:101F34007B689B6809491846FEF72AFE0346002B76
:101F440002D07B68054A9A607B689B68184608370C
:101F5400BD46BDE8F08100BF0000C8440000C8C40D
:101F640080B584B000AF78600023FB6016E0FA68A7
:101F740013469B001344DB000C4A98187B68FA68EC
:101F840053F822301946FFF763FF01467B68FA686D
:101F9400043243F82210FB680133FB60FB68032B17
:101FA400E5DD00BF00BF1037BD4680BDA80400209A
:101FB40080B485B000AF0346FB71FB79042B7BD85A
:101FC400FB79042B40D10023FB6039E03D49FA68DA
:101FD40013469B001344DB000B4408334FF000020C
:101FE4001A603849FA6813469B001344DB000B441B
:101FF40018334FF000021A603249FA6813469B0006
:102004001344DB000B441C334FF000021A602D49CB
:10201400FA6813469B001344DB000B4420334FF053
:1020240000021A602749FA6813469B001344DB0038
:102034000B4424334FF000021A60FB680133FB6049
:10204400FB68032BC2DD38E0FA791E4913469B0076
:102054001344DB000B4408334FF000021A60FA7992
:10206400184913469B001344DB000B4418334FF00C
:1020740000021A60FA79134913469B001344DB00EB
:102084000B441C334FF000021A60FA790D491346D1
:102094009B001344DB000B4420334FF000021A6012
:1020A400FA79084913469B001344DB000B4424339C
:1020B4004FF000021A6000E000BF1437BD4680BC38
:1020C400704700BFA804002080B485B000AF034669
:1020D4003960FB71FB79042B1FD8FB79042B12D1D7
:1020E4000023FB600BE00F49FA6813469B0013447E
:1020F400DB000B443A681A60FB680133FB60FB6841
:10210400032BF0DD0AE0FA79064913469B001344D9
:10211400DB000B443A681A6000E000BF1437BD4688
:1021240080BC7047A804002080B483B000AF03468D
:10213400FB80B7F90630002B05DDFB8803F5FA6355
:102144009BB21BB20AE0B7F90630002B05DAFB8814
:10215400A3F5FA639BB21BB200E0002318460C37C8
:10216400BD4680BC7047000080B483B000AF034616
:10217400FB71FB79002B01D00123FB71FB794FF438
:10218400616203FB02F21C4B5A63FB794FF46162F8
:1021940003FB02F2184B9A63FB794FF4616203FB71
:1021A40002F2154BDA63FB794FF4616203FB02F22E
:1021B400114B1A64FB794FF4616203FB02F20F4B7B
:1021C4005A63FB794FF4616203FB02F20B4B9A638F
:1021D400FB794FF4616203FB02F2084BDA63FB798B
:1021E4004FF4616203FB02F2044B1A6400BF0C3724
:1021F400BD4680BC704700BF00340140002C014044
:1022040080B584B000AF03460A46FB711346BB8019
:10221400B7F904301846FFF787FF0346FB81B7F987
:102224000E30B3F5616F02DB4FF46163FB81B7F9E4
:102234000E3013F5616F02DC4FF2F013FB81FB7972
:10224400032B67D801A252F823F000BF61220008D3
:1022540093220008C5220008EF220008FB895B4294
:102264009BB2FB81B7F90E30002B07DB2C4AB7F980
:102274000E3053632A4B00229A634CE0284B002211
:102284005A63B7F90E305A42254B9A6343E0FB89EF
:102294005B429BB2FB81B7F90E30002B07DB204A6F
:1022A400B7F90E30D3631E4B00221A6433E01C4B83
:1022B4000022DA63B7F90E305A42194B1A642AE045
:1022C400B7F90E30002B07DB164AB7F90E3053630B
:1022D400144B00229A631EE0124B00225A63B7F992
:1022E4000E305A420F4B9A6315E0B7F90E30002BAB
:1022F40007DB0C4AB7F90E30D3630A4B00221A6489
:1023040009E0084B0022DA63B7F90E305A42054B54
:102314001A6400E000BF00BF1037BD4680BD00BF97
:1023240000340140002C014080B500AF0021224858
:1023340004F0CCF90421204804F0C8F908211E480F
:1023440004F0C4F90C211C4804F0C0F900211B4816
:1023540004F0BCF90421194804F0B8F9082117481D
:1023640004F0B4F90C21154804F0B0F94FF080439F
:1023740047F6FF725A620421114804F073FC114BB2
:1023840047F6FF725A6204210F4804F06BFC0F4BAE
:1023940047F6FF725A6204210D4804F063FC0D4BAA
:1023A40047F6FF725A6204210B4804F05BFC0B48A9
:1023B40004F01CF800BF80BDCC0500207C07002081
:1023C40014060020000400405C06002000080040C1
:1023D400A4060020000C0040EC0600203407002076
:1023E40080B582B000AF78607B681B68054A934271
:1023F40003D1FFF7EBF8FFF771FC00BF0837BD46C8
:1024040080BD00BF0010004080B584B000AF3B1D0C
:1024140000221A605A609A60184B194A1A60174BC6
:1024240000229A60154B00221A73144B00221A756D
:10243400124B4FF46022DA61104B00225A600F4BAA
:1024440001221A610D4800F0E1FF0346002B01D080
:1024540000F0D8F904237B600123BB600023FB60F8
:102464003B1D1946054801F083FB0346002B01D0B0
:1024740000F0C8F900BF1037BD4680BD48050020F4
:10248400003C014080B588B000AF786007F11003CC
:1024940000221A605A609A60DA607B681B68144AEA
:1024A400934221D1134B9B69124A43F40043936135
:1024B400104B9B6903F40043FB60FB680D4B9B6965
:1024C4000C4A43F0800393610A4B9B6903F0800339
:1024D400BB60BB6840233B6103237B6107F11003AE
:1024E4001946054801F0E8FE00BF2037BD4680BD0F
:1024F400003C014000100240001C014080B58CB03B
:1025040000AF07F1200300221A605A609A60DA6073
:10251400454B9B69444A43F080039361424B9B695A
:1025240003F08003FB61FB693F4B9B693E4A43F028
:10253400040393613C4B9B6903F00403BB61BB69D7
:10254400394B9B69384A43F040039361364B9B698E
:1025540003F040037B617B69334B9B69324A43F050
:1025640020039361304B9B6903F020033B613B697B
:102574002D4B9B692C4A43F4807393612A4B9B69CE
:1025840003F48073FB60FB68274B9B69264A43F086
:1025940010039361244B9B6903F01003BB60BB6879
:1025A400214B9B69204A43F0080393611E4B9B69AE
:1025B40003F008037B607B68002230211B4802F093
:1025C4002FF900224FF40041194802F029F9302371
:1025D4003B6201237B620023BB620223FB6207F19F
:1025E40020031946114801F067FE38233B6200239B
:1025F4007B620123BB6207F1200319460C4801F0FA
:102604005BFE4FF400433B6201237B620023BB6209
:102614000223FB6207F120031946054801F04CFE32
:1026240000BF3037BD4680BD00100240001C014091
:102634000020014080B500AF124B134A1A60114BC1
:10264400124A5A600F4B00229A600E4B0022DA6045
:102654000C4B4FF480421A610A4B00225A61094B19
:1026640000229A61074B0022DA61064B00221A62AB
:10267400044802F001F90346002B01D000F0C2F82F
:1026840000BF80BD7805002000540040801A060079
:1026940080B588B000AF786007F1100300221A609B
:1026A4005A609A60DA607B681B68154A934223D1AA
:1026B400144B9B69134A43F008039361114B9B69C4
:1026C40003F00803FB60FB68C0233B6112237B61BA
:1026D4000323FB6107F1100319460B4801F0ECFDDD
:1026E400084BDB69074A43F40013D361054BDB69EC
:1026F40003F40013BB60BB6800BF2037BD4680BD38
:102704000054004000100240000C014080B500AFAE
:1027140000F0F6FD00F019F8FFF7F0FE00F0F2F813
:1027240000F0B4F900F006FA00F058FA00F0AAFA42
:1027340000F0FCFA00F030FBFFF766FEFFF77AFFCB
:10274400FEF775FEFEF780FEFCE780B596B000AF9D
:1027540007F1300328220021184605F07DFE07F119
:102764001C0300221A605A609A60DA601A613B1DE9
:1027740000221A605A609A60DA601A615A61012371
:102784003B634FF480337B630023BB6301233B64CF
:102794000223FB644FF480333B654FF4E0137B6505
:1027A40007F13003184602F09DFD0346002B01D0CB
:1027B40000F028F80F23FB6102233B6200237B62B5
:1027C4004FF48063BB620023FB6207F11C03022108
:1027D400184603F0F5F80346002B01D000F012F878
:1027E40002237B604FF40043FB603B1D184603F05B
:1027F4001BFB0346002B01D000F004F800BF583740
:10280400BD4680BD80B400AF72B600BF00BFFDE717
:1028140080B483B000AF7860396000BF0C37BD4628
:1028240080BC704780B584B000AF164B9B69154AD5
:1028340043F001039361134B9B6903F00103BB60F5
:10284400BB68104BDB690F4A43F08053D3610D4BD7
:10285400DB6903F080537B607B68052001F0BCFCDE
:10286400094B5B68FB60FB6823F0E063FB60FB687B
:1028740043F00073FB60044AFB68536000BF1037E9
:10288400BD4680BD001002400000014080B400AF8E
:1028940000BFFDE780B400AF00BFFDE780B400AF28
:1028A40000BFFDE780B400AF00BFFDE780B400AF18
:1028B40000BFFDE780B400AF00BFBD4680BC7047D9
:1028C40080B400AF00BFBD4680BC704780B400AF89
:1028D40000BFBD4680BC704780B500AF00F056FD18
:1028E40000BF80BD80B500AF024804F079FA00BF94
:1028F40080BD00BF3407002080B400AF00BFBD46D8
:1029040080BC704780B596B000AF07F14803002241
:102914001A605A609A60DA6007F1400300221A6074
:102924005A6007F1240300221A605A609A60DA6040
:102934001A615A619A613B1D20220021184605F054
:102944008BFD504B504A1A604E4B00225A604D4B3F
:1029540000229A604B4B40F60F62DA60494B00222A
:102964001A61484B00225A61464B80229A614548BD
:1029740003F068FC0346002B01D0FFF743FF4FF43C
:102984008053BB6407F1480319463E4804F0D2FC67
:102994000346002B01D0FFF735FF3A4803F0B8FD9A
:1029A4000346002B01D0FFF72DFF00233B640023D7
:1029B4007B6407F140031946324805F09FFB034648
:1029C400002B01D0FFF71EFF60237B620023BB6254
:1029D4000023FB6200233B6300237B630023BB6370
:1029E4000023FB6307F1240300221946254804F061
:1029F400FFFA0346002B01D0FFF704FF07F124037D
:102A0400042219461F4804F0F3FA0346002B01D0B0
:102A1400FFF7F8FE07F1240308221946194804F0C9
:102A2400E7FA0346002B01D0FFF7ECFE07F124037D
:102A34000C221946134804F0DBFA0346002B01D09C
:102A4400FFF7E0FE00237B600023BB600023FB60F4
:102A540000233B6100237B614FF40053BB610023DF
:102A64003B623B1D1946074805F018FC0346002B42
:102A740001D0FFF7C7FE034800F0B2FB00BF583790
:102A8400BD4680BDCC050020002C014080B58CB033
:102A940000AF07F10C0324220021184605F0DCFCEA
:102AA4003B1D00221A605A60214B4FF080421A608D
:102AB4001F4B00225A601E4B00229A601C4B4FF69B
:102AC400FF72DA601A4B00221A61194B00229A61D4
:102AD4000323FB6000233B6101237B610023BB6173
:102AE4000023FB6100233B6201237B620023BB6262
:102AF4000023FB6207F10C0319460D4803F00EFF97
:102B04000346002B01D0FFF77DFE00237B600023EA
:102B1400BB603B1D1946064805F0F0FA0346002B3E
:102B240001D0FFF76FFE00BF3037BD4680BD00BF48
:102B34001406002080B58CB000AF07F10C032422EA
:102B44000021184605F088FC3B1D00221A605A60DB
:102B5400204B214A1A601F4B00225A601D4B002251
:102B64009A601C4B4FF6FF72DA601A4B00221A610E
:102B7400184B00229A610323FB6000233B6101236D
:102B84007B610023BB610023FB6100233B620123C3
:102B94007B620023BB620023FB6207F10C0319462E
:102BA4000C4803F0BBFE0346002B01D0FFF72AFEBE
:102BB40000237B600023BB603B1D1946054805F0DC
:102BC4009DFA0346002B01D0FFF71CFE00BF3037EF
:102BD400BD4680BD5C0600200004004080B58CB07A
:102BE40000AF07F10C0324220021184605F034FC41
:102BF4003B1D00221A605A60204B214A1A601F4B69
:102C040000225A601D4B00229A601C4B4FF6FF7243
:102C1400DA601A4B00221A61184B00229A610323CE
:102C2400FB6000233B6101237B610023BB61002324
:102C3400FB6100233B6201237B620023BB62002310
:102C4400FB6207F10C0319460C4803F067FE0346C8
:102C5400002B01D0FFF7D6FD00237B600023BB606F
:102C64003B1D1946054805F049FA0346002B01D0DF
:102C7400FFF7C8FD00BF3037BD4680BDA406002065
:102C84000008004080B58CB000AF07F10C0324228B
:102C94000021184605F0E0FB3B1D00221A605A6033
:102CA400204B214A1A601F4B00225A601D4B002200
:102CB4009A601C4B4FF6FF72DA601A4B00221A61BD
:102CC400184B00229A610323FB6000233B6101231C
:102CD4007B610023BB610023FB6100233B62012372
:102CE4007B620023BB620023FB6207F10C031946DD
:102CF4000C4803F013FE0346002B01D0FFF782FDBE
:102D040000237B600023BB603B1D1946054805F08A
:102D1400F5F90346002B01D0FFF774FD00BF3037EF
:102D2400BD4680BDEC060020000C004080B582B09A
:102D340000AF3B4600221A605A60154B154A1A60D0
:102D4400134B41F61F425A60114B00229A60104BFC
:102D54006322DA600E4B00229A610D4803F072FA86
:102D64000346002B01D0FFF74DFD00233B600023F9
:102D74007B603B461946064805F0C0F90346002B24
:102D840001D0FFF73FFD00BF0837BD4680BD00BF3F
:102D9400340700200010004080B596B000AF07F162
:102DA400480300221A605A609A60DA6007F140030F
:102DB40000221A605A6007F1240300221A605A6044
:102DC4009A60DA601A615A619A613B1D20220021DF
:102DD400184605F041FB504B504A1A604E4B0022F6
:102DE4005A604D4B00229A604B4B40F60F62DA60FA
:102DF400494B00221A61484B00225A61464B8022FB
:102E04009A61454803F01EFA0346002B01D0FFF7F0
:102E1400F9FC4FF48053BB6407F1480319463E485C
:102E240004F088FA0346002B01D0FFF7EBFC3A4884
:102E340003F06EFB0346002B01D0FFF7E3FC0023F5
:102E44003B6400237B6407F140031946324805F0D4
:102E540055F90346002B01D0FFF7D4FC60237B62B5
:102E64000023BB620023FB6200233B6300237B63DC
:102E74000023BB630023FB6307F1240300221946EC
:102E8400254804F0B5F80346002B01D0FFF7BAFC3F
:102E940007F12403042219461F4804F0A9F8034645
:102EA400002B01D0FFF7AEFC07F1240308221946DA
:102EB400194804F09DF80346002B01D0FFF7A2FC4B
:102EC40007F124030C221946134804F091F8034631
:102ED400002B01D0FFF796FC00237B600023BB602E
:102EE4000023FB6000233B6100237B614FF400530C
:102EF400BB6100233B623B1D1946074805F0CEF930
:102F04000346002B01D0FFF77DFC034800F068F96D
:102F140000BF5837BD4680BD7C0700200034014007
:102F240080B586B000AF78607B681B681F4A934207
:102F34000CD11F4B9B691E4A43F4006393611C4BE5
:102F44009B6903F400637B617B692AE07B681B68EF
:102F5400184A934214D1164BDB69154A43F0100307
:102F6400D361134BDB6903F010033B613B6902221D
:102F74000221362001F050F9362001F079F910E0F1
:102F84007B681B680C4A93420BD1094B9B69084A26
:102F940043F400539361064B9B6903F40053FB60B5
:102FA400FB6800BF1837BD4680BD00BF002C014040
:102FB40000100240001000400034014080B592B07F
:102FC40000AF786007F12C0300221A605A609A60FF
:102FD400DA607B681B68B3F1804F4FD1784BDB69B3
:102FE400774A43F00103D361754BDB6903F00103B6
:102FF400BB62BB6A724B9B69714A43F004039361E1
:103004006F4B9B6903F004037B627B6A6C4B9B6987
:103014006B4A43F008039361694B9B6903F008030F
:103024003B623B6A4FF40043FB6200233B63002393
:103034007B6307F12C031946624801F03DF908232C
:10304400FB6200233B6300237B6307F12C031946D7
:103054005D4801F031F95D4B5B68FB63FB6B23F466
:103064004073FB63FB6B43F0E063FB63FB6B43F474
:103074008073FB63554AFB6B53609DE07B681B6860
:10308400534A934236D14E4BDB694D4A43F0020317
:10309400D3614B4BDB6903F00203FB61FB69484BD3
:1030A4009B69474A43F008039361454B9B6903F0CE
:1030B4000803BB61BB693023FB6200233B6300232D
:1030C4007B6307F12C0319463F4801F0F5F83F4BA9
:1030D4005B683B643B6C23F440633B643B6C43F0B0
:1030E400E0633B643B6C43F400633B64374A3B6CF2
:1030F400536061E07B681B68364A934233D1304B9E
:10310400DB692F4A43F00403D3612D4BDB6903F0E1
:1031140004037B617B692A4B9B69294A43F02003A2
:103124009361274B9B6903F020033B613B694FF498
:103134004053FB6200233B6300237B6307F12C03B2
:103144001946254801F0B8F8204B5B687B647B6C1A
:1031540043F0E0637B647B6C43F480537B641B4AE1
:103164007B6C536028E07B681B681C4A934223D124
:10317400134BDB69124A43F00803D361104BDB693C
:1031840003F00803FB60FB680D4B9B690C4A43F09A
:10319400040393610A4B9B6903F00403BB60BB689F
:1031A4000323FB6200233B6300237B6307F12C03AF
:1031B4001946044801F080F800BF4837BD4680BD79
:1031C4000010024000080140000C014000000140D2
:1031D400000400400008004000140140000C0040BE
:1031E40080B58AB000AF786007F1140300221A603A
:1031F4005A609A60DA607B681B68284A93422BD134
:10320400274B9B69264A43F040039361244B9B69F7
:1032140003F040033B613B694FF4D4437B610223D9
:10322400BB6102233B6207F1140319461D4801F0F8
:1032340043F81D4B5B687B627B6A23F0C0037B62AF
:103244007B6A43F0E0637B627B6A43F0C0037B628A
:10325400154A7B6A53601DE07B681B68134A9342DE
:1032640018D10F4B9B690E4A43F0100393610C4B2A
:103274009B6903F01003FB60FB684FF470737B6180
:103284000223BB6102233B6207F114031946084879
:1032940001F012F800BF2837BD4680BD002C014064
:1032A40000100240001801400000014000340140B9
:1032B40000100140FFF720FB0B480C490C4A002387
:1032C40002E0D458C4500433C4188C42F9D3094AD8
:1032D400094C002301E013600432A242FBD305F041
:1032E400C3F8FFF713FA70470000002028000020FD
:1032F400E486000828000020C8070020FEE700003C
:1033040080B500AF084B1B68074A43F010031360F5
:10331400032000F061FF032000F008F8FFF782FAB1
:103324000023184680BD00BF0020024080B582B053
:1033340000AF7860124B1A68124B1B7819464FF491
:103344007A73B3FBF1F3B2FBF3F3184600F0A8FF72
:103354000346002B01D001230EE07B680F2B0AD813
:10336400002279684FF0FF3000F056FF064A7B6870
:103374001360002300E0012318460837BD4680BDD2
:103384001C000020240000202000002080B400AF96
:10339400054B1B781A46054B1B681344034A1360FC
:1033A40000BFBD4680BC704724000020C407002035
:1033B40080B400AF024B1B681846BD4680BC704702
:1033C400C407002080B584B000AF7860FFF7F0FF39
:1033D400B8607B68FB60FB68B3F1FF3F05D00A4B24
:1033E4001B781A46FB681344FB6000BFFFF7E0FF3D
:1033F4000246BB68D31AFA689A42F7D800BF00BFE6
:103404001037BD4680BD00BF2400002080B586B0C3
:1034140000AF78600023FB7500233B610023BB6091
:103424000023FB607B68002B01D1012388E17B68CA
:103434001B688C4A93420ED07B681B688A4A93426D
:1034440009D07B681B68894A934204D040F2A911D1
:103454008748FFF7DDF97B685B68002B09D07B6840
:103464005B68B3F5006F04D04FF4D5718048FFF763
:10347400CFF97B689B68002B09D07B689B68B3F508
:10348400807F04D040F2AB117948FFF7C1F97B6823
:103494001B7B002B08D07B681B7B012B04D04FF4D3
:1034A400D6717348FFF7B4F97B68DB69002B44D00D
:1034B4007B68DB69B3F5003F3FD07B68DB69B3F51C
:1034C400C02F3AD07B68DB69B3F5002F35D07B6819
:1034D400DB69B3F5202F30D07B68DB69B3F5402F6F
:1034E4002BD07B68DB69002B27D07B68DB69B3F5C5
:1034F400003F22D07B68DB69B3F5C02F1DD07B6809
:10350400DB69B3F5202F18D07B68DB69B3F5402F56
:1035140013D07B68DB69B3F5802F0ED07B68DB6941
:10352400B3F5402F09D07B68DB69B3F5602F04D075
:1035340040F2AD114E48FFF76BF97B689B68002B96
:103544002AD07B681B69002B03D07B681B69102B76
:1035540004D940F2B1114648FFF75AF97B681B7D44
:10356400002B08D07B681B7D012B04D04FF4D9714C
:103574003F48FFF74DF97B681B7D002B0CD07B681F
:103584009B69002B03D07B689B69082B04D940F20C
:10359400B5113748FFF73CF97B689B6A002B09D1CA
:1035A4007B680022DA627B68002283F82420786832
:1035B400FEF768FF786800F001FD0346FB757B6841
:1035C4009B6A03F01003002B40F0B180FB7D002BBD
:1035D40040F0AD807B689B6A23F4885323F0020398
:1035E40043F002027B689A627B685A687B681B68B6
:1035F4001E498B420AD17B68DB69B3F5402F02D0A8
:103604007B68DB6904E04FF4002301E07B68DB693D
:103614001A437B681B7B5B001343BA681343BB608C
:103624007B689B68B3F5807F03D07B689B68012B24
:1036340002D14FF4807300E000233A6913433B61E5
:103644007B681B7D012B21D17B681B7B002B11D157
:103654007B689B69013B5A033B69134343F4006352
:103664003B6113E00024014000280140003C01407C
:10367400CC8400087B689B6A43F020027B689A62D2
:103684007B68DB6A43F001027B68DA627B681B6853
:103694005B6823F469417B681B683A690A435A6092
:1036A4007B681B689A68284B13407A681268B9686B
:1036B4000B4393607B689B68B3F5807F03D07B6882
:1036C4009B68012B04D17B681B69013B1B05FB60D4
:1036D4007B681B68DB6A23F470017B681B68FA68EB
:1036E4000A43DA627B681B689A68184B1340BA680D
:1036F4009A420BD17B680022DA627B689B6A23F0D2
:10370400030343F001027B689A6218E07B689B6ABA
:1037140023F0120343F010027B689A627B68DB6A31
:1037240043F001027B68DA620123FB7507E07B68E2
:103734009B6A43F010027B689A620123FB75FB7D50
:1037440018461837BD4680BDFDF7E1FFFE0E1FFF8A
:1037540080B584B000AF78600023FB737B681B687E
:103764005A4A93420ED07B681B68594A934209D047
:103774007B681B68574A934204D040F21141564873
:10378400FFF746F87B6893F82430012B01D102231C
:1037940098E07B68012283F82420786800F0B4FB69
:1037A4000346FB73FB7B002B40F087807B689B6A9E
:1037B40023F4407323F0010343F480727B689A621C
:1037C4007B681B68424A934205D1404B5B6803F413
:1037D4007023002B15D17B689B6A23F480127B68CD
:1037E4009A627B681B685B6803F48063002B26D0B5
:1037F4007B689B6A23F4405343F480527B689A624B
:103804001DE07B689B6A43F480127B689A627B6844
:103814001B682E4A934204D07B681B682C4A93424F
:103824000DD12A4B5B6803F48063002B07D07B68BF
:103834009B6A23F4405343F480527B689A627B680A
:103844009B6A03F48053002B06D07B68DB6A23F069
:1038540006027B68DA6202E07B680022DA627B6837
:10386400002283F824207B681B686FF002021A6030
:103874007B681B689B6803F46023B3F5602F13D146
:103884007B681B68124A934205D1104B5B6803F4B2
:103894007023002B08D17B681B689A687B681B68BF
:1038A40042F4A0029A600CE07B681B689A687B680B
:1038B4001B6842F480129A6003E07B68002283F85C
:1038C4002420FB7B18461037BD4680BD00240140F0
:1038D40000280140003C0140CC84000890B587B02A
:1038E40000AF7860396000237B610023FB60002314
:1038F4003B617B681B68804A93420ED07B681B68DF
:103904007E4A934209D07B681B687D4A934204D067
:1039140040F2B3417B48FEF77BFFFFF749FD786136
:103924007B681B689B6803F48073002B0BD07B6857
:103934009B6A43F020027B689A627B68002283F8CA
:1039440024200123D3E07B681B685B6803F4807345
:10395400002B31D17B681B68DB6A03F47003002BF6
:103964002AD121E03B68B3F1FF3F1DD03B68002B17
:1039740007D0FFF71DFD02467B69D31A3A689A42C5
:1039840012D27B681B681B6803F00203002B0BD167
:103994007B689B6A43F004027B689A627B6800221E
:1039A40083F824200323A2E07B681B681B6803F0D0
:1039B4000203002BD6D070E0534B1C68022002F0A7
:1039C40049FB0346B4FBF3F27B681B6819694F4B50
:1039D4000B40002B18D17B681B68D9684C4B0B40FB
:1039E400002B11D17B681B6819694A4B0B40002BD3
:1039F40008D17B681B68D968474B0B40002B01D169
:103A0400142320E029231EE07B681B681969414BBD
:103A14000B40002B06D17B681B68D9683E4B0B40DA
:103A2400002B0DD07B681B6819693C4B0B40002BA5
:103A340008D17B681B68D968384B0B40002B01D137
:103A4400542300E0FC2302FB03F33B6121E03B68C9
:103A5400B3F1FF3F1AD03B68002B07D0FFF7A8FC57
:103A640002467B69D31A3A689A420FD2FB683A69D4
:103A74009A420BD97B689B6A43F004027B689A6282
:103A84007B68002283F82420032330E0FB680133A1
:103A9400FB60FB683A699A42D9D87B681B686FF06F
:103AA40012021A607B689B6A43F400727B689A6214
:103AB4007B681B689B6803F46023B3F5602F15D102
:103AC4007B681B7B002B11D17B689B6A23F480727B
:103AD4007B689A627B689B6A03F48053002B05D150
:103AE4007B689B6A43F001027B689A620023184654
:103AF4001C37BD4690BD00BF002401400028014092
:103B0400003C0140CC8400081C000020244992247D
:103B14002449920092244912922449004992240093
:103B240080B582B000AF78607B681B680C4A934212
:103B34000ED07B681B680B4A934209D07B681B68D4
:103B4400094A934204D040F2E5610848FEF760FE5A
:103B54007B681B68DB6C18460837BD4680BD00BF18
:103B64000024014000280140003C0140CC840008AE
:103B740080B584B000AF786039600023FB73002304
:103B8400BB607B681B688B4A93420ED07B681B68C2
:103B9400894A934209D07B681B68884A934204D0BF
:103BA40040F2D6718648FEF733FE3B681B68002B53
:103BB40048D03B681B68012B44D03B681B68022B30
:103BC40040D03B681B68032B3CD03B681B68042B2C
:103BD40038D03B681B68052B34D03B681B68062B28
:103BE40030D03B681B68072B2CD03B681B68082B24
:103BF40028D03B681B68092B24D03B681B680A2B20
:103C040020D03B681B680B2B1CD03B681B680C2B1B
:103C140018D03B681B680D2B14D03B681B680E2B17
:103C240010D03B681B680F2B0CD03B681B68102B13
:103C340008D03B681B68112B04D040F2D771604850
:103C4400FEF7E6FD3B685B68012B40D03B685B6890
:103C5400022B3CD03B685B68032B38D03B685B6825
:103C6400042B34D03B685B68052B30D03B685B6821
:103C7400062B2CD03B685B68072B28D03B685B681D
:103C8400082B24D03B685B68092B20D03B685B6819
:103C94000A2B1CD03B685B680B2B18D03B685B6815
:103CA4000C2B14D03B685B680D2B10D03B685B6811
:103CB4000E2B0CD03B685B680F2B08D03B685B680D
:103CC400102B04D04FF4FB613D48FEF7A1FD3B6887
:103CD4009B68002B20D03B689B68012B1CD03B6861
:103CE4009B68022B18D03B689B68032B14D03B685D
:103CF4009B68042B10D03B689B68052B0CD03B6859
:103D04009B68062B08D03B689B68072B04D040F2C5
:103D1400D9712B48FEF77CFD7B6893F82430012B86
:103D240001D10223E5E07B68012283F824203B686B
:103D34005B68062B1CD87B681B68596B3B685A6808
:103D440013469B001344053B1F2202FA03F3DB4393
:103D540019403B6818683B685A6813469B00134433
:103D6400053B00FA03F27B681B680A435A6345E08B
:103D74003B685B680C2B25D87B681B68196B3B6818
:103D84005A6813469B001344233B1F2202FA03F391
:103D9400DB4319403B6818683B685A6813469B002C
:103DA4001344233B00FA03F27B681B680A431A633B
:103DB40024E000BF0024014000280140003C0140F1
:103DC400CC8400087B681B68D96A3B685A68134630
:103DD4009B001344413B1F2202FA03F3DB431940C7
:103DE4003B6818683B685A6813469B001344413B80
:103DF40000FA03F27B681B680A43DA623B681B68BB
:103E0400092B1CD97B681B68D9683B681A68134660
:103E14005B0013441E3B072202FA03F3DB43194001
:103E24003B6898683B681A6813465B0013441E3B62
:103E340000FA03F27B681B680A43DA6019E07B68C6
:103E44001B6819693B681A6813465B001344072210
:103E540002FA03F3DB4319403B6898683B681A682D
:103E640013465B00134400FA03F27B681B680A43A1
:103E74001A613B681B68102B03D03B681B68112B2D
:103E840032D17B681B681D4A934225D17B681B682D
:103E94009B6803F40003002B26D17B681B689A6897
:103EA4007B681B6842F400029A603B681B68102B15
:103EB4001AD1134B1B68134AA2FB03239A0C134613
:103EC4009B0013445B00BB6002E0BB68013BBB602A
:103ED400BB68002BF9D107E07B689B6A43F02002A2
:103EE4007B689A620123FB737B68002283F8242099
:103EF400FB7B18461037BD4680BD00BF002401403F
:103F04001C00002083DE1B4380B584B000AF7860C2
:103F14000023FB600023BB607B681B689B6803F085
:103F24000103012B40D07B681B689A687B681B687F
:103F340042F001029A601F4B1B681F4AA2FB032335
:103F44009B0CBB6002E0BB68013BBB60BB68002B01
:103F5400F9D1FFF72DFAF8601FE0FFF729FA0246BE
:103F6400FB68D31A022B18D97B681B689B6803F083
:103F74000103012B11D07B689B6A43F010027B681C
:103F84009A627B68DB6A43F001027B68DA627B68D1
:103F9400002283F82420012307E07B681B689B68C8
:103FA40003F00103012BD8D1002318461037BD4676
:103FB40080BD00BF1C00002083DE1B4380B584B09D
:103FC40000AF78600023FB607B681B689B6803F08C
:103FD4000103012B2ED17B681B689A687B681B68E0
:103FE40022F001029A60FFF7E3F9F8601BE0FFF7A3
:103FF400DFF90246FB68D31A022B14D97B681B68CD
:104004009B6803F00103012B0DD17B689B6A43F08D
:1040140010027B689A627B68DB6A43F001027B686A
:10402400DA62012307E07B681B689B6803F00103E5
:10403400012BDCD0002318461037BD4680BD00009C
:1040440080B485B000AF78607B6803F00703FB6041
:104054000C4BDB68BB60BA684FF6FF031340BB60D0
:10406400FB681A02BB68134343F0BF6343F4003395
:10407400BB60044ABB68D36000BF1437BD4680BC34
:10408400704700BF00ED00E080B400AF044BDB6874
:104094001B0A03F007031846BD4680BC704700BFE7
:1040A40000ED00E080B483B000AF0346FB7197F9E4
:1040B4000730002B0BDBFB7903F01F02064997F94D
:1040C40007305B09012000FA02F241F8232000BF07
:1040D4000C37BD4680BC704700E100E080B483B07B
:1040E40000AF03463960FB7197F90730002B0ADBF8
:1040F4003B68DAB20C4997F907301201D2B20B448B
:1041040083F800230AE03B68DAB20849FB7903F03C
:104114000F03043B1201D2B20B441A7600BF0C37D2
:10412400BD4680BC704700BF00E100E000ED00E048
:1041340080B489B000AFF860B9607A60FB6803F0BE
:104144000703FB61FB69C3F10703042B28BF0423A6
:10415400BB61FB690433062B02D9FB69033B00E016
:1041640000237B614FF0FF32BB6902FA03F3DA43A9
:10417400BB681A407B699A404FF0FF317B6901FAB2
:1041840003F3D9437B680B40134318462437BD46D9
:1041940080BC704780B582B000AF78607B68013B1B
:1041A400B3F1807F01D301230FE00A4A7B68013B0E
:1041B40053600F214FF0FF30FFF790FF054B0022B3
:1041C4009A60044B07221A60002318460837BD463C
:1041D40080BD00BF10E000E080B582B000AF786021
:1041E4007B68072B0FD07B68062B0CD07B68052BD4
:1041F40009D07B68042B06D07B68032B03D0912164
:104204000448FEF705FB7868FFF71AFF00BF08377C
:10421400BD4680BD0485000880B586B000AF034666
:10422400B9607A60FB7300237B617B680F2B03D931
:10423400A9210E48FEF7ECFABB680F2B03D9AA217B
:104244000A48FEF7E5FAFFF71FFF78617A68B96854
:104254007869FFF76DFF024697F90F30114618464B
:10426400FFF73CFF00BF1837BD4680BD048500083A
:1042740080B582B000AF0346FB7197F90730002B7D
:1042840003DABD210548FEF7C3FA97F9073018464B
:10429400FFF708FF00BF0837BD4680BD048500084E
:1042A40080B582B000AF78607868FFF773FF03468B
:1042B40018460837BD4680BD80B58AB000AF786027
:1042C400396000237B6200233B627B68944A9342FB
:1042D4001BD07B68934A934217D07B68924A9342DF
:1042E40013D07B68914A93420FD07B68904A9342E3
:1042F4000BD07B688F4A934207D07B688E4A9342E7
:1043040003D0BD218D48FEF783FA3B681B689BB23E
:10431400002B04D03B681B68B3F5803F03D3BE2158
:104324008648FEF775FA3B685B68002B00F036821E
:104334003B685B68012B00F031823B685B68112BA2
:1043440000F02C823B685B68022B00F027823B68FC
:104354005B68122B00F022823B685B68784A9342C8
:1043640000F01C823B685B68764A934200F0168238
:104374003B685B68744A934200F010823B685B6858
:10438400724A934200F00A823B685B68704A934227
:1043940000F004823B685B686E4A934200F0FE8141
:1043A4003B685B68032B00F0F981BF216348FEF78B
:1043B4002FFAF3E101227B6A02FA03F3FB613B6803
:1043C4001B68FA691340BB61BA69FB699A4240F001
:1043D400E2817B68524A93421BD07B68514A9342E4
:1043E40017D07B68504A934213D07B684F4A93425C
:1043F4000FD07B684E4A93420BD07B684D4A934260
:1044040007D07B684C4A934203D0CD214B48FEF73A
:10441400FFF93B685B684F4A934200F0C7804D4AFE
:10442400934200F2ED80484A934200F0BF80464A2E
:10443400934200F2E580464A934200F0B780444A32
:10444400934200F2DD803F4A934200F0AF803D4A40
:10445400934200F2D5803D4A934200F0A7803B4A44
:10446400934200F2CD80122B2CD8122B00F2C8807C
:1044740001A252F823F000BFB1450008D14400085E
:104484005D450008FF45000805460008054600088C
:1044940005460008054600080546000805460008CC
:1044A40005460008054600080546000805460008BC
:1044B400054600080546000805460008F9440008BA
:1044C400874500081E4A934270D099E03B68DB6838
:1044D400022B0BD03B68DB68012B07D03B68DB6801
:1044E400032B03D0D5211548FEF792F93B68DB680E
:1044F4003B6286E03B68DB68022B0BD03B68DB68E1
:10450400012B07D03B68DB68032B03D0DC210B486D
:10451400FEF77EF93B68DB6804333B6271E000BF61
:1045240000080140000C014000100140001401404B
:1045340000180140001C0140002001404085000893
:1045440000001110000021100000311000001210B2
:1045540000002210000032103B68DB68022B0BD0F5
:104564003B68DB68012B07D03B68DB68032B03D077
:10457400E3219148FEF74CF93B68DB6808333B6262
:104584003FE03B68DB68022B0BD03B68DB68012B08
:1045940007D03B68DB68032B03D0EA218648FEF78B
:1045A40037F93B68DB680C333B622AE03B689B6865
:1045B400002B0BD03B689B68012B07D03B689B68A2
:1045C400022B03D0F7217C48FEF722F93B689B6855
:1045D400002B02D104233B6213E03B689B68012B50
:1045E40005D108233B627B68FA691A6109E0082354
:1045F4003B627B68FA695A6103E000233B6200E096
:1046040000BFBB69FF2B01D87B6801E07B680433E2
:104614007B61BB69FF2B02D87B6A9B0002E07B6A4B
:10462400083B9B003B617B691A680F213B6901FAD7
:1046340003F3DB431A40396A3B6901FA03F31A4373
:104644007B691A603B685B6803F08053002B00F0C1
:10465400A2805A4B9B69594A43F001039361574B1B
:104664009B6903F00103BB60BB68554A7B6A9B08E6
:10467400023352F82330FB607B6A03F003039B0090
:104684000F2202FA03F3DB43FA681340FB607B68F2
:104694004C4A93421FD07B684B4A934219D07B68A3
:1046A4004A4A934213D07B68494A93420DD07B68AF
:1046B400484A934207D07B68474A934201D1052375
:1046C4000AE0062308E0042306E0032304E00223AF
:1046D40002E0012300E000237A6A02F00302920060
:1046E4009340FA681343FB6035497B6A9B080233A5
:1046F400FA6841F823203B685B6803F48013002BBD
:1047040006D0364B9A683549BB6913438B6006E083
:10471400324B9A68BB69DB43304913408B603B687A
:104724005B6803F40013002B06D02C4BDA682B498A
:10473400BB691343CB6006E0284BDA68BB69DB43F3
:1047440026491340CB603B685B6803F40033002BBD
:1047540006D0224B5A682149BB6913434B6006E0DB
:104764001E4B5A68BB69DB431C4913404B603B68D2
:104774005B6803F48033002B06D0184B1A68174982
:10478400BB6913430B6006E0144B1A68BB69DB4337
:10479400124913400B607B6A01337B623B681A68E1
:1047A4007B6A22FA03F3002B7FF404AE00BF00BF40
:1047B4002837BD4680BD00BF408500080010024078
:1047C4000000014000080140000C014000100140BD
:1047D4000014014000180140001C01400004014085
:1047E40080B584B000AF78600B467B807B88002B5B
:1047F40004D14FF4DA710948FEF70AF87B689A6825
:104804007B881340002B02D00123FB7301E00023BB
:10481400FB73FB7B18461037BD4680BD40850008FE
:1048240080B582B000AF78600B467B8013467B7006
:104834007B88002B04D14FF4EA710E48FDF7E8FFA2
:104844007B78002B07D07B78012B04D040F2D51164
:104854000848FDF7DDFF7B78002B03D07A887B685E
:104864001A6103E07B881A047B681A6100BF083769
:10487400BD4680BD4085000880B584B000AF786037
:104884007B68002B01D10123B4E17B681B689B4A40
:10489400934209D07B681B68994A934204D040F242
:1048A400DB119848FDF7B4FF7B685B68002B04D0EC
:1048B4007B685B68944A934204D94FF4EE71914843
:1048C400FDF7A6FF7B689B68002B09D07B689B687B
:1048D400B3F5804F04D040F2DD118A48FDF798FF0C
:1048E4007B68DB68B3F5806F04D34FF4EF718548C0
:1048F400FDF78EFF7B681B69B3F5804F09D07B6899
:104904001B69B3F5404F04D040F2DF117D48FDF739
:104914007FFF7B685B69002B08D07B685B69012B98
:1049240004D04FF4F0717748FDF772FF7B689B6900
:1049340023F0FE03002B04D040F2E1117148FDF78F
:1049440067FF7B68DB69002B08D07B68DB69402B41
:1049540004D04FF4F1716B48FDF75AFF7B681B6A72
:10496400002B08D07B681B6A802B04D040F2E31133
:104974006448FDF74DFF7B6893F83D30DBB2002BB4
:1049840006D17B68002283F83C207868FDF780FE1E
:104994007B68242283F83D207B681B681A687B6847
:1049A4001B6822F001021A607B681B681A687B6826
:1049B4001B6842F400421A607B681B681A687B68B3
:1049C4001B6822F400421A6001F0E8F9F8607B6881
:1049D4005B684E4A934207D8FB684D4A934294BFA2
:1049E40001230023DBB206E0FB684A4A934294BFEA
:1049F40001230023DBB2002B01D00123FAE0FB6882
:104A0400454AA2FB03239B0CBB607B681B685B6865
:104A140023F03F017B681B68BA680A435A607B68CD
:104A24001B681B6A23F03F017B685B68374A93422B
:104A340002D8BB68013309E0BB684FF4967202FBED
:104A440003F3364AA2FB03239B0901337A681268F5
:104A54000B4313627B681B68DB6923F44F4222F02B
:104A6400FF027B685B6829498B4219D8FB68591E91
:104A74007B685B685B00B1FBF3F3591C40F6FC7385
:104A84000B40002B0AD0FB68591E7B685B685B00F7
:104A9400B1FBF3F30133C3F30B0364E0042362E0DB
:104AA4007B689B68002B11D1FB68581E7B68596892
:104AB4000B465B000B44B0FBF3F30133C3F30B036E
:104AC400002B0CBF01230023DBB212E0FB68581E4D
:104AD4007B6859680B469B000B4499000B44B0FB60
:104AE400F3F30133C3F30B03002B0CBF01230023A7
:104AF400DBB2002B14D0012335E000BF005400408A
:104B0400005800407C850008801A0600A086010039
:104B14007F841E00FF083D0083DE1B43D34D6210DB
:104B24007B689B68002B0ED1FB68581E7B68596814
:104B34000B465B000B44B0FBF3F30133C3F30B03ED
:104B440043F400430FE0FB68581E7B6859680B462A
:104B54009B000B4499000B44B0FBF3F30133C3F304
:104B64000B0343F44043796809681343CB617B68C2
:104B74001B681B6823F0C0017B68DA697B681B6AC9
:104B84001A437B681B680A431A607B681B689B682E
:104B940023F4034323F0FF037A6811697A68D26827
:104BA40011437A6812680B4393607B681B68DB6867
:104BB40023F0FF017B685A697B689B691A437B6811
:104BC4001B680A43DA607B681B681A687B681B6889
:104BD40042F001021A607B6800221A647B6820227A
:104BE40083F83D207B6800221A637B68002283F8E7
:104BF4003E20002318461037BD4680BD80B588B0DE
:104C040002AFF860084611461A4603467B810B46FC
:104C14003B811346FB80FEF7CBFB7861FB88012BBD
:104C240007D0FB88102B04D040F606217348FDF70B
:104C3400EFFDFB6893F83D30DBB2202B40F0D980C8
:104C44007B690093192301226D49F86800F072F919
:104C54000346002B01D00223CCE0FB6893F83C30E0
:104C6400012B01D10223C5E0FB68012283F83C201B
:104C7400FB681B681B6803F00103012B07D0FB686A
:104C84001B681A68FB681B6842F001021A60FB6823
:104C94001B681A68FB681B6822F400621A60FB68D0
:104CA400212283F83D20FB68402283F83E20FB68E4
:104CB40000221A64FB683A6A5A62FB68BA8C5A8505
:104CC400FB685B8D9AB2FB681A85FB684D4ADA6211
:104CD400F8883A8979897B690193BB6A0093034612
:104CE400F86800F091F80346002B52D0012381E0CC
:104CF4007A69B96AF86800F037FA0346002B0DD0D8
:104D0400FB681B6C042B07D1FB681B681A68FB68E3
:104D14001B6842F400721A6001236BE0FB685B6A53
:104D24001A78FB681B681A61FB685B6A5A1CFB688B
:104D34005A62FB681B8D013B9AB2FB681A85FB68BB
:104D44005B8D9BB2013B9AB2FB685A85FB681B687A
:104D54005B6903F00403042B1BD1FB681B8D002B40
:104D640017D0FB685B6A1A78FB681B681A61FB68DA
:104D74005B6A5A1CFB685A62FB681B8D013B9AB242
:104D8400FB681A85FB685B8D9BB2013B9AB2FB689A
:104D94005A85FB681B8D002BAAD17A69B96AF86819
:104DA40000F02AFA0346002B0DD0FB681B6C042B81
:104DB40007D1FB681B681A68FB681B6842F4007221
:104DC4001A60012316E0FB681B681A68FB681B68FD
:104DD40042F400721A60FB68202283F83D20FB68CD
:104DE400002283F83E20FB68002283F83C20002345
:104DF40000E0022318461837BD4680BD7C850008B4
:104E0400020010000000FFFF80B588B002AFF86018
:104E1400084611461A4603467B810B463B811346DE
:104E2400FB80FB681B681A68FB681B6842F480728D
:104E34001A607B6A00933B6A00224FF00111F86804
:104E440000F078F80346002B0DD0FB681B681B6844
:104E540003F48073B3F5807F03D1FB684FF40072D1
:104E64001A6403235FE07B89DBB21A46FB681B6884
:104E740002F0FE021A617B6A3A6A2D49F86800F072
:104E8400D3F80346002B01D001234CE000237B61BF
:104E9400FB681B685B697B61FB681B689B697B61C2
:104EA4007B697A6A396AF86800F05EF90346002B78
:104EB4000DD0FB681B6C042B07D1FB681B681A68B8
:104EC400FB681B6842F400721A6001232BE0FB8824
:104ED400012B05D13B89DAB2FB681B681A6121E01A
:104EE4003B891B0A9BB2DAB2FB681B681A617A6AB7
:104EF400396AF86800F038F90346002B0DD0FB68D6
:104F04001B6C042B07D1FB681B681A68FB681B68C1
:104F140042F400721A60012305E03B89DAB2FB68AF
:104F24001B681A61002318461837BD4680BD00BFB0
:104F34000200010080B584B000AFF860B9603B6046
:104F44001346FB7148E03B68B3F1FF3F44D0FEF7E2
:104F54002FFA0246BB69D31A3A689A4202D33B68D5
:104F6400002B39D1BB681B0CDBB2012B0DD1FB68C4
:104F74001B685B69DA43BB6813409BB2002B0CBF10
:104F840001230023DBB21A460CE0FB681B689B6913
:104F9400DA43BB6813409BB2002B0CBF01230023F0
:104FA400DBB21A46FB799A4216D1FB6800221A63D7
:104FB400FB68202283F83D20FB68002283F83E2012
:104FC400FB681B6C43F02002FB681A64FB68002238
:104FD40083F83C20012323E0BB681B0CDBB2012BCC
:104FE4000DD1FB681B685B69DA43BB6813409BB255
:104FF400002B0CBF01230023DBB21A460CE0FB6834
:105004001B689B69DA43BB6813409BB2002B0CBF3F
:1050140001230023DBB21A46FB799A4293D0002382
:1050240018461037BD4680BD80B584B000AFF86027
:10503400B9607A603B6071E0FB681B685B6903F4EC
:105044008063B3F5806F23D1FB681B681A68FB6823
:105054001B6842F400721A60FB681B686FF480627C
:105064005A61FB6800221A63FB68202283F83D2002
:10507400FB68002283F83E20FB681B6C43F00402AB
:10508400FB681A64FB68002283F83C20012367E074
:105094007B68B3F1FF3F41D0FEF78AF902463B68D3
:1050A400D31A7A689A4202D37B68002B36D1BB6844
:1050B4001B0CDBB2012B0CD1FB681B685B69DA4368
:1050C400BB6813409BB2002B14BF01230023DBB247
:1050D4000BE0FB681B689B69DA43BB6813409BB217
:1050E400002B14BF01230023DBB2002B16D0FB6876
:1050F40000221A63FB68202283F83D20FB6800220B
:1051040083F83E20FB681B6C43F02002FB681A64A2
:10511400FB68002283F83C20012321E0BB681B0CC0
:10512400DBB2012B0CD1FB681B685B69DA43BB68FB
:1051340013409BB2002B14BF01230023DBB20BE00E
:10514400FB681B689B69DA43BB6813409BB2002B66
:1051540014BF01230023DBB2002B7FF46DAF0023C7
:1051640018461037BD4680BD80B584B000AFF860E6
:10517400B9607A6034E0F86800F086F80346002BE2
:1051840001D0012334E0BB68B3F1FF3F28D0FEF720
:105194000FF902467B68D31ABA689A4202D3BB68F5
:1051A400002B1DD1FB681B685B6903F08003802B17
:1051B40016D0FB6800221A63FB68202283F83D2086
:1051C400FB68002283F83E20FB681B6C43F020023E
:1051D400FB681A64FB68002283F83C20012307E083
:1051E400FB681B685B6903F08003802BC3D1002339
:1051F40018461037BD4680BD80B584B000AFF86056
:10520400B9607A6034E0F86800F03EF80346002B99
:1052140001D0012334E0BB68B3F1FF3F28D0FEF78F
:10522400C7F802467B68D31ABA689A4202D3BB68AD
:10523400002B1DD1FB681B685B6903F00403042B7E
:1052440016D0FB6800221A63FB68202283F83D20F5
:10525400FB68002283F83E20FB681B6C43F02002AD
:10526400FB681A64FB68002283F83C20012307E0F2
:10527400FB681B685B6903F00403042BC3D10023A0
:1052840018461037BD4680BD80B483B000AF786047
:105294007B681B685B6903F48063B3F5806F1BD183
:1052A4007B681B686FF480625A617B6800221A6312
:1052B4007B68202283F83D207B68002283F83E200F
:1052C4007B681B6C43F004027B681A647B680022D1
:1052D40083F83C20012300E0002318460C37BD4628
:1052E40080BC704780B586B000AF78607B68002BC7
:1052F40001D101235AE37B681B68002B1CD07B6817
:105304001B6803F00103002B16D17B681B6803F0B4
:105314000203002B10D17B681B6803F00803002BE9
:105324000AD17B681B6803F00403002B04D140F20C
:1053340065118F48FDF76CFA7B681B6803F0010365
:10534400002B00F09A807B685B68002B0ED07B6892
:105354005B68B3F5803F09D07B685B68B3F5A02F29
:1053640004D040F26B118248FDF752FA814B5B681E
:1053740003F00C03042B0CD07E4B5B6803F00C038E
:10538400082B12D17B4B5B6803F48033B3F5803F69
:105394000BD1784B1B6803F40033002B6CD07B6873
:1053A4005B68002B68D1012300E37B685B68B3F57D
:1053B400803F06D16F4B1B686E4A43F48033136001
:1053C4002EE07B685B68002B0CD16A4B1B68694A32
:1053D40023F480331360674B1B68664A23F48023ED
:1053E40013601DE07B685B68B3F5A02F0CD1614BA3
:1053F4001B68604A43F4802313605E4B1B685D4A5C
:1054040043F4803313600BE05A4B1B68594A23F46E
:1054140080331360574B1B68564A23F48023136070
:105424007B685B68002B13D0FDF7C2FF386108E08E
:10543400FDF7BEFF02463B69D31A642B01D903234F
:10544400B4E24C4B1B6803F40033002BF0D014E09F
:10545400FDF7AEFF386108E0FDF7AAFF02463B699D
:10546400D31A642B01D90323A0E2424B1B6803F433
:105474000033002BF0D100E000BF7B681B6803F011
:105484000203002B00F080807B681B69002B08D08E
:105494007B681B69012B04D040F29F113448FDF74F
:1054A400B7F97B685B691F2B04D94FF4D07130487E
:1054B400FDF7AEF92F4B5B6803F00C03002B0BD008
:1054C4002C4B5B6803F00C03082B1CD1294B5B6845
:1054D40003F48033002B16D1264B1B6803F0020320
:1054E400002B05D07B681B69012B01D001235DE2F1
:1054F400204B1B6823F0F8027B685B69DB001D49C5
:1055040013430B6040E07B681B69002B20D01A4BCF
:1055140001221A60FDF74CFF386108E0FDF748FFEF
:1055240002463B69D31A022B01D903233EE2114BF5
:105534001B6803F00203002BF0D00E4B1B6823F012
:10554400F8027B685B69DB000A4913430B601BE0CC
:10555400094B00221A60FDF72BFF38610EE0FDF7BE
:1055640027FF02463B69D31A022B07D903231DE206
:10557400B485000800100240000042427D4B1B68C5
:1055840003F00203002BEAD17B681B6803F00803D5
:10559400002B40D07B689B69002B08D07B689B69FB
:1055A400012B04D04FF4F0717348FDF731F97B6897
:1055B4009B69002B19D0714B01221A60FDF7F8FE8C
:1055C400386108E0FDF7F4FE02463B69D31A022B6A
:1055D40001D90323EAE1674B5B6A03F00203002B62
:1055E400F0D0012000F002FC15E0644B00221A60A8
:1055F400FDF7DEFE386108E0FDF7DAFE02463B699E
:10560400D31A022B01D90323D0E15A4B5B6A03F06E
:105614000203002BF0D17B681B6803F00403002B0A
:1056240000F0BF800023FB757B68DB68002B0CD087
:105634007B68DB68012B08D07B68DB68052B04D012
:1056440040F20F214C48FDF7E3F84A4BDB6903F0C5
:105654008053002B0DD1474BDB69464A43F08053FE
:10566400D361444BDB6903F08053BB60BB68012307
:10567400FB75434B1B6803F48073002B18D1404B1C
:105684001B683F4A43F480731360FDF791FE386151
:1056940008E0FDF78DFE02463B69D31A642B01D95D
:1056A400032383E1364B1B6803F48073002BF0D093
:1056B4007B68DB68012B06D12E4B1B6A2D4A43F015
:1056C400010313622DE07B68DB68002B0CD1294BAE
:1056D4001B6A284A23F001031362264B1B6A254ADE
:1056E40023F0040313621CE07B68DB68052B0CD1F8
:1056F400204B1B6A1F4A43F0040313621D4B1B6AB1
:105704001C4A43F0010313620BE01A4B1B6A194A4B
:1057140023F001031362174B1B6A164A23F0040398
:1057240013627B68DB68002B15D0FDF741FE3861FE
:105734000AE0FDF73DFE02463B69D31A41F2883286
:10574400934201D9032331E10A4B1B6A03F002039C
:10575400002BEED01CE0FDF72BFE386112E0FDF7C4
:1057640027FE02463B69D31A41F28832934209D993
:1057740003231BE100100240B48500088004424268
:10578400007000408B4B1B6A03F00203002BE6D130
:10579400FB7D012B05D1874BDB69864A23F08053BF
:1057A400D3617B68DB69002B0CD07B68DB69012B40
:1057B40008D07B68DB69022B04D040F2AD217E481F
:1057C400FDF726F87B68DB69002B00F0EE80794B4F
:1057D4005B6803F00C03082B00F0CE807B68DB6968
:1057E400022B40F0B2807B681B6A002B09D07B68D7
:1057F4001B6AB3F5803F04D040F2B6216E48FDF732
:1058040007F87B685B6A002B4AD07B685B6AB3F558
:10581400802F45D07B685B6AB3F5002F40D07B684E
:105824005B6AB3F5402F3BD07B685B6AB3F5801F9E
:1058340036D07B685B6AB3F5A01F31D07B685B6AA6
:10584400B3F5C01F2CD07B685B6AB3F5E01F27D08B
:105854007B685B6AB3F5001F22D07B685B6AB3F593
:10586400101F1DD07B685B6AB3F5201F18D07B68BE
:105874005B6AB3F5301F13D07B685B6AB3F5401FD6
:105884000ED07B685B6AB3F5501F09D07B685B6AF6
:10589400B3F5601F04D040F2B7214748FCF7B8FFC6
:1058A400464B00221A60FDF783FD386108E0FDF7DE
:1058B4007FFD02463B69D31A022B01D9032375E00D
:1058C4003C4B1B6803F00073002BF0D17B681B6A10
:1058D400B3F5803F16D17B689B68002B09D07B68A9
:1058E4009B68B3F5003F04D040F2CD213248FCF769
:1058F4008FFF304B5B6823F400327B689B682D4933
:1059040013434B602B4B5B6823F474127B68196A56
:105914007B685B6A0B43274913434B60274B012287
:105924001A60FDF745FD386108E0FDF741FD0246C8
:105934003B69D31A022B01D9032337E01D4B1B68A3
:1059440003F00073002BF0D02FE01C4B00221A60F0
:10595400FDF72EFD386108E0FDF72AFD02463B699C
:10596400D31A022B01D9032320E0124B1B6803F046
:105974000073002BF0D118E07B68DB69012B01D1A7
:10598400012313E00B4B5B68FB60FB6803F480327C
:105994007B681B6A9A4206D1FB6803F470127B6829
:1059A4005B6A9A4201D0012300E0002318461837AD
:1059B400BD4680BD00100240B4850008600042422C
:1059C40080B584B000AF786039607B68002B01D16A
:1059D400012376E17B681B6803F00103002B16D1D9
:1059E4007B681B6803F00203002B10D17B681B68E3
:1059F40003F00403002B0AD17B681B6803F008033F
:105A0400002B04D140F236317448FCF701FF3B68A7
:105A1400002B0AD03B68012B07D03B68022B04D033
:105A240040F237316D48FCF7F3FE6D4B1B6803F011
:105A340007033A689A4210D9694B1B6823F007029E
:105A440067493B6813430B60654B1B6803F007030E
:105A54003A689A4201D0012333E17B681B6803F062
:105A64000203002B49D07B681B6803F00403002B5E
:105A740005D05C4B5B685B4A43F4E06353607B682E
:105A84001B6803F00803002B05D0564B5B68554A8E
:105A940043F4605353607B689B68002B24D07B687D
:105AA4009B68802B20D07B689B68902B1CD07B68E4
:105AB4009B68A02B18D07B689B68B02B14D07B68A4
:105AC4009B68C02B10D07B689B68D02B0CD07B6864
