:020000040800F2
:1000000000000120A90A0008250A00082B0A0008A0
:10001000310A0008370A00083D0A00080000000005
:10002000000000000000000000000000430A00087B
:100030004F0A0008000000005B0A0008670A000879
:10004000F10A0008F10A0008F10A0008F10A0008A4
:10005000F10A0008F10A0008F10A0008F10A000894
:10006000F10A0008F10A0008F10A0008F10A000884
:10007000F10A0008F10A0008F10A0008F10A000874
:10008000750A0008F10A0008F10A0008F10A0008E0
:10009000F10A0008F10A0008F10A0008F10A000854
:1000A000F10A0008F10A0008F10A0008F10A000844
:1000B000F10A0008F10A0008F10A0008890A00089C
:1000C000F10A0008F10A0008F10A0008F10A000824
:1000D000F10A0008F10A0008F10A0008F10A000814
:1000E000F10A0008F10A0008F10A0008F10A000804
:1000F000F10A0008F10A0008F10A0008F10A0008F4
:10010000F10A0008F10A0008F10A0008F10A0008E3
:10011000F10A0008F10A0008F10A0008F10A0008D3
:10012000F10A0008F10A0008F10A0008F10A0008C3
:1001300000000000000000000000000000000000BF
:1001400000000000000000000000000000000000AF
:10015000000000000000000000000000000000009F
:10016000000000000000000000000000000000008F
:10017000000000000000000000000000000000007F
:10018000000000000000000000000000000000006F
:10019000000000000000000000000000000000005F
:1001A000000000000000000000000000000000004F
:1001B000000000000000000000000000000000003F
:1001C000000000000000000000000000000000002F
:1001D000000000000000000000000000000000001F
:0401E0005FF8E0F1F3
:1001E40010B5054C237833B9044B13B10448AFF36D
:1001F40000800123237010BD1400002000000000C3
:100204008045000808B5034B1BB103490348AFF30D
:10021400008008BD00000000180000208045000890
:1002240080B584B002AF03460A46FB711346BB7126
:1002340000BF0A4B93F83D30DBB2202BF9D1FB7998
:100244009AB201230193BB1D009301237821034833
:1002540001F022FD00BF0837BD4680BD7C020020AE
:1002640080B500AF642000F0A5FCAE210020FFF7AC
:10027400D7FFA6210020FFF7D3FFAE210020FFF710
:10028400CFFFD5210020FFF7CBFF80210020FFF70F
:10029400C7FFA8210020FFF7C3FF1F210020FFF79D
:1002A400BFFFD3210020FFF7BBFF00210020FFF791
:1002B400B7FF40210020FFF7B3FF8D210020FFF797
:1002C400AFFF14210020FFF7ABFF20210020FFF730
:1002D400A7FF02210020FFF7A3FFA1210020FFF7C1
:1002E4009FFFC8210020FFF79BFFDA210020FFF7C2
:1002F40097FF02210020FFF793FF81210020FFF7E1
:100304008FFFCF210020FFF78BFFD9210020FFF7BB
:1003140087FFF1210020FFF783FFDB210020FFF797
:100324007FFF40210020FFF77BFF2E210020FFF7F5
:1003340077FFA4210020FFF773FFA6210020FFF719
:100344006FFFAF210020FFF76BFF002000F046F89D
:1003540000F00EF8054B00221A80044B00225A804C
:10036400024B01225A7100BF80BD00BF3002002041
:1003740080B582B000AF0023FB7125E0FB79503BD0
:10038400DBB219460020FFF74BFF00210020FFF7E6
:1003940047FF10210020FFF743FF0023BB710CE04F
:1003A400BA79FB79DB0113440B4AD35C194640202C
:1003B400FFF736FFBB790133BB7197F90630002B89
:1003C400EEDAFB790133FB71FB79072BD6D900BF39
:1003D40000BF0837BD4680BD3000002080B582B024
:1003E40000AF0346FB71FB79002B01D1002300E031
:1003F400FF234FF400721946034804F0B7F800BF16
:100404000837BD4680BD00BF3000002080B483B0F3
:1004140000AF0346FB800B46BB801346FB70FB8892
:100424007F2B48D8BB881F2B45D8254B1B79002B25
:1004340006D0FB78002B0CBF01230023DBB2FB703A
:10044400FB78012B1AD1FA88BB88DB0898B20346E3
:10045400DB0113441B4AD35C5AB2BB8803F0070385
:10046400012101FA03F35BB2134359B2FA8803463C
:10047400DB011344C9B2134AD1541DE0FA88BB8886
:10048400DB0898B20346DB0113440E4AD35C5AB22C
:10049400BB8803F00703012101FA03F35BB2DB43DA
:1004A4005BB2134059B2FA880346DB011344C9B264
:1004B400044AD15400E000BF0C37BD4680BC7047ED
:1004C400300200203000002080B483B000AF034627
:1004D4000A46FB801346BB80054AFB881380044A06
:1004E400BB88538000BF0C37BD4680BC704700BF3B
:1004F4003002002080B586B000AF03463960FB713E
:100504001346BB713A4B1B881A463B681B7813444D
:100514007F2B07DC364B5B881A463B685B781344B9
:100524001F2B01DD00235EE000237B614BE03B6871
:100534005A68FB79203B3968497801FB03F3194673
:100544007B690B445B0013441B88FB6000233B6105
:1005540030E0FA683B6902FA03F303F40043002B2A
:1005640010D0234B1A883B699BB2134498B2204B9A
:100574005A887B699BB213449BB2BA791946FFF738
:1005840045FF14E01A4B1A883B699BB2134498B296
:10059400174B5A887B699BB2134499B2BB79002BE1
:1005A4000CBF01230023DBB21A46FFF72FFF3B6980
:1005B40001333B613B681B781A463B699342C8D3BD
:1005C4007B6901337B613B685B781A467B699342A4
:1005D400ADD3074B1A883B681B789BB213449AB27D
:1005E400034B1A80FB7918461837BD4680BD00BFFF
:1005F4003002002080B584B000AFF860B9601346C3
:10060400FB7112E0FB681B78FA79B9681846FFF7AA
:1006140071FF03461A46FB681B789A4202D0FB68B6
:100624001B7808E0FB680133FB60FB681B78002B38
:10063400E8D1FB681B7818461037BD4680BD80B5ED
:1006440000AF0020FFF7CAFE00BF80BD80B500AF39
:10065400FFF78EFE00BF80BD80B582B000AF78602A
:10066400084611461A460346FB700B46BB701346F8
:100674007B707B78002B01D0FFF7E1FFFB789BB206
:10068400BA7892B211461846FFF71EFF01220649B6
:100694007868FFF7AFFF3B7C002B01D0FFF7D6FF54
:1006A40000BF0837BD4680BD0000002080B584B07F
:1006B40002AF7860084611461A460346FB700B46A3
:1006C400BB7013467B70FB78002B12D0FB78032B96
:1006D4000FD8FB781A46920013445B00DBB20A3B46
:1006E400DAB2B9787B7800930B4600217868FFF77B
:1006F400B3FF00BF0837BD4680BD000080B500AF22
:10070400FFF7AEFD0123002201210848FFF7CEFFC9
:100714000123002202210648FFF7C8FF012300221B
:1007240003210448FFF7C2FF00BF80BD98450008BD
:10073400AC450008B845000880B400AF00BFBD4612
:1007440080BC704780B582B000AF0C4B5B690B4A2C
:1007540043F001035361094B5B6903F001037B60C0
:100764007B6800220021102000F01FFB102000F005
:1007740038FB00BF0837BD4680BD00BF00100240F3
:1007840080B483B000AF0E4B9B690D4A43F0040361
:1007940093610B4B9B6903F004037B607B68084BFC
:1007A4009B69074A43F008039361054B9B6903F077
:1007B40008033B603B6800BF0C37BD4680BC7047F4
:1007C4000010024080B500AF124B134A1A60114B5F
:1007D400124A5A600F4B00229A600E4B0022DA60D4
:1007E4000C4B4FF480421A610A4B00225A61094BA8
:1007F40000229A61074B0022DA61064B00221A623A
:10080400044801F0F1F80346002B01D000F0CEF8C3
:1008140000BF80BD7C02002000540040A08601007F
:1008240080B588B000AF786007F1100300221A6029
:100834005A609A60DA607B681B682C4A934251D1F3
:100844002B4B9B692A4A43F008039361284B9B690D
:1008540003F00803FB60FB68C0233B6112237B6148
:100864000323FB6107F110031946224800F028FF17
:100874001F4BDB691E4A43F40013D3611C4BDB6935
:1008840003F40013BB60BB681B4B1C4A1A601A4B71
:1008940010225A60184B00229A60174B8022DA60AB
:1008A400154B00221A61144B00225A61124B00228C
:1008B4009A61114B0022DA610F4800F0ADFA034649
:1008C400002B01D000F072F87B680B4A5A630A4A85
:1008D4007B685362002200211F2000F066FA1F206B
:1008E40000F07FFA00BF2037BD4680BD00540040B1
:1008F40000100240000C0140380200206C0002404D
:1009040080B500AF00F0F4F800F00BF8FFF738FF03
:10091400FFF718FFFFF756FFFFF7F0FEFFF70CFF96
:10092400FCE780B590B000AF07F11803282200213E
:10093400184603F01BFE3B1D00221A605A609A60A1
:10094400DA601A610123BB614FF48033FB61002339
:100954003B620123BB6202237B634FF48033BB639E
:100964004FF4E013FB6307F11803184603F0E0F9B2
:100974000346002B01D000F019F80F237B600223FB
:10098400BB600023FB604FF480633B6100237B6109
:100994003B1D0221184603F04BFC0346002B01D0FB
:1009A40000F004F800BF4037BD4680BD80B400AFFE
:1009B40072B600BFFEE7000080B584B000AF164BEE
:1009C4009B69154A43F001039361134B9B6903F040
:1009D4000103BB60BB68104BDB690F4A43F08053D3
:1009E400D3610D4BDB6903F080537B607B6805208A
:1009F40000F0D0F9094B5B68FB60FB6823F0E0630F
:100A0400FB60FB6843F00073FB60044AFB685360BF
:100A140000BF1037BD4680BD0010024000000140F9
:100A240080B400AFFEE780B400AFFEE780B400AF4F
:100A3400FEE780B400AFFEE780B400AFFEE780B409
:100A440000AF00BFBD4680BC704780B400AF00BF9C
:100A5400BD4680BC704780B400AF00BFBD4680BCBB
:100A6400704780B500AF00F089F800BF80BD00007A
:100A740080B500AF024800F0ADFB00BF80BD00BFF1
:100A84003802002080B500AF024801F05BFA00BFD5
:100A940080BD00BF7C02002080B400AF00BFBD4613
:100AA40080BC7047FFF7F8FF0B480C490C4A002341
:100AB40002E0D458C4500433C4188C42F9D3094A10
:100AC400094C002301E013600432A242FBD303F07B
:100AD40029FDFFF715FF70470000002014000020D7
:100AE4006C4D000814000020D4020020FEE7000032
:100AF40080B500AF084B1B68074A43F0100313602E
:100B0400032000F047F9032000F008F8FFF754FF32
:100B14000023184680BD00BF0020024080B582B08B
:100B240000AF7860124B1A68124B1B7819464FF4C9
:100B34007A73B3FBF1F3B2FBF3F3184600F05FF9F9
:100B44000346002B01D001230EE07B680F2B0AD84B
:100B5400002279684FF0FF3000F027F9064A7B68DD
:100B64001360002300E0012318460837BD4680BD0A
:100B740008000020100000200C00002080B400AF0A
:100B8400054B1B781A46054B1B681344034A136034
:100B940000BFBD4680BC704710000020D00200207A
:100BA40080B400AF024B1B681846BD4680BC70473A
:100BB400D002002080B584B000AF7860FFF7F0FF6A
:100BC400B8607B68FB60FB68B3F1FF3F05D00A4B5C
:100BD4001B781A46FB681344FB6000BFFFF7E0FF75
:100BE4000246BB68D31AFA689A42F7D800BF00BF1E
:100BF4001037BD4680BD00BF1000002080B485B012
:100C040000AF78607B6803F00703FB600C4BDB6884
:100C1400BB60BA684FF6FF031340BB60FB681A025F
:100C2400BB68134343F0BF6343F40033BB60044A1F
:100C3400BB68D36000BF1437BD4680BC704700BF9B
:100C440000ED00E080B400AF044BDB681B0A03F046
:100C540007031846BD4680BC704700BF00ED00E0A6
:100C640080B483B000AF0346FB7197F90730002BC3
:100C74000BDBFB7903F01F02064997F907305B0988
:100C8400012000FA02F241F8232000BF0C37BD46D0
:100C940080BC704700E100E080B483B000AF03463D
:100CA4003960FB7197F90730002B0ADB3B68DAB235
:100CB4000C4997F907301201D2B20B4483F8002390
:100CC4000AE03B68DAB20849FB7903F00F03043BFE
:100CD4001201D2B20B441A7600BF0C37BD4680BC59
:100CE400704700BF00E100E000ED00E080B489B08F
:100CF40000AFF860B9607A60FB6803F00703FB613A
:100D0400FB69C3F10703042B28BF0423BB61FB6900
:100D14000433062B02D9FB69033B00E000237B610B
:100D24004FF0FF32BB6902FA03F3DA43BB681A409F
:100D34007B699A404FF0FF317B6901FA03F3D94391
:100D44007B680B40134318462437BD4680BC70476C
:100D540080B582B000AF78607B68013BB3F1807FDF
:100D640001D301230FE00A4A7B68013B53600F2142
:100D74004FF0FF30FFF790FF054B00229A60044BC1
:100D840007221A60002318460837BD4680BD00BFFD
:100D940010E000E080B582B000AF78607868FFF7BB
:100DA4002DFF00BF0837BD4680BD80B586B000AFBB
:100DB4000346B9607A60FB7300237B61FFF742FF4F
:100DC40078617A68B9687869FFF790FF024697F905
:100DD4000F3011461846FFF75FFF00BF1837BD46B6
:100DE40080BD80B582B000AF0346FB7197F9073030
:100DF4001846FFF735FF00BF0837BD4680BD80B5F4
:100E040082B000AF78607868FFF7A2FF0346184607
:100E14000837BD4680BD000080B485B000AF78605F
:100E24000023FB607B68002B01D1012359E07B6820
:100E34001B681A462D4B9A420FD87B681B681A46CA
:100E44002B4B13442B4AA2FB03231B099A007B68F8
:100E54001A647B68284ADA630EE07B681B681A46CA
:100E6400264B1344234AA2FB03231B099A007B68E5
:100E74001A647B68224ADA637B68022283F82120A1
:100E84007B681B681B68FB60FB6823F47F5323F0BB
:100E94003003FB607B685A687B689B681A437B68F5
:100EA400DB681A437B681B691A437B685B691A43D6
:100EB4007B689B691A437B68DB691343FA681343B5
:100EC400FB607B681B68FA681A607B6800229A637F
:100ED4007B68012283F821207B68002283F820208C
:100EE400002318461437BD4680BC704707040240EF
:100EF400F8FFFDBFCDCCCCCC00000240F8FBFDBF19
:100F04000004024080B586B000AFF860B9607A6032
:100F14003B600023FB75FB6893F82030012B01D163
:100F240002234BE0FB68012283F82020FB6893F83E
:100F34002130DBB2012B3AD1FB68022283F8212055
:100F4400FB6800229A63FB681B681A68FB681B68CD
:100F540022F001021A603B687A68B968F86800F008
:100F640082FBFB68DB6A002B08D0FB681B681A68ED
:100F7400FB681B6842F00E021A600FE0FB681B68F6
:100F84001A68FB681B6822F004021A60FB681B687D
:100F94001A68FB681B6842F00A021A60FB681B6847
:100FA4001A68FB681B6842F001021A6005E0FB68DE
:100FB400002283F820200223FB75FB7D1846183796
:100FC400BD4680BD80B584B000AF78600023FB735C
:100FD4007B6893F82130DBB2022B05D07B680422B6
:100FE4009A630123FB73D6E07B681B681A687B68ED
:100FF4001B6822F00E021A607B681B681A687B6803
:101004001B6822F001021A607B681B681A46644B55
:101014009A4258D97B681B68624A93424FD07B68D6
:101024001B68614A934248D07B681B685F4A9342BD
:1010340040D07B681B685E4A934238D07B681B684B
:101044005C4A934230D07B681B685B4A934228D049
:101054007B681B68524A934220D07B681B68574ABE
:10106400934219D07B681B68554A934212D07B681F
:101074001B68544A93420AD07B681B68524A9342C5
:1010840002D14FF480531BE04FF4803318E04FF447
:10109400807315E0102313E0012311E04FF08073F7
:1010A4000EE04FF480130BE04FF4803308E04FF46C
:1010B400805305E04FF4807302E0102300E0012325
:1010C400424A536057E07B681B68364A93424FD0CC
:1010D4007B681B68344A934248D07B681B68334A58
:1010E400934240D07B681B68314A934238D07B6876
:1010F4001B68304A934230D07B681B682E4A934267
:1011040028D07B681B68264A934220D07B681B68E2
:101114002A4A934219D07B681B68294A934212D009
:101124007B681B68274A93420AD07B681B68264A5F
:10113400934202D14FF480531BE04FF4803318E004
:101144004FF4807315E0102313E0012311E04FF0F6
:1011540080730EE04FF480130BE04FF4803308E00B
:101164004FF4805305E04FF4807302E0102300E055
:101174000123174A53607B68012283F821207B688E
:10118400002283F820207B685B6B002B03D07B68F4
:101194005B6B78689847FB7B18461037BD4680BD6B
:1011A40080000240080002401C000240300002405F
:1011B40044000240580002406C000240080402400F
:1011C4001C04024030040240440402400004024073
:1011D4000000024080B584B000AF78607B68DB6BB0
:1011E4001B68FB607B681B681B68BB607B681B6CAF
:1011F40004229A40FB681340002B00F0D680BB68A1
:1012040003F00403002B00F0D0807B681B681B688C
:1012140003F02003002B07D17B681B681A687B68E6
:101224001B6822F004021A607B681B681A469B4BF9
:101234009A4258D97B681B68994A93424FD07B687D
:101244001B68984A934248D07B681B68964A93422D
:1012540040D07B681B68954A934238D07B681B68F2
:10126400934A934230D07B681B68924A934228D0B9
:101274007B681B68894A934220D07B681B688E4A2E
:10128400934219D07B681B688C4A934212D07B68C6
:101294001B688B4A93420AD07B681B68894A934235
:1012A40002D14FF480431BE04FF4802318E04FF445
:1012B400806315E0402313E0042311E04FF08063C2
:1012C4000EE04FF480030BE04FF4802308E04FF46A
:1012D400804305E04FF4806302E0402300E00423F0
:1012E400794A536057E07B681B686D4A93424FD03C
:1012F4007B681B686B4A934248D07B681B686A4AC8
:10130400934240D07B681B68684A934238D07B681C
:101314001B68674A934230D07B681B68654A9342D6
:1013240028D07B681B685D4A934220D07B681B6889
:10133400614A934219D07B681B68604A934212D079
:101344007B681B685E4A93420AD07B681B685D4ACF
:10135400934202D14FF480431BE04FF4802318E002
:101364004FF4806315E0402313E0042311E04FF0B1
:1013740080630EE04FF480030BE04FF4802308E019
:101384004FF4804305E04FF4806302E0402300E023
:1013940004234E4A53607B68DB6A002B00F03681DD
:1013A4007B68DB6A7868984730E17B681B6C0222B3
:1013B4009A40FB681340002B00F0F880BB6803F0F0
:1013C4000203002B00F0F2807B681B681B6803F0AB
:1013D4002003002B0BD17B681B681A687B681B6891
:1013E40022F00A021A607B68012283F821207B68BC
:1013F4001B681A46294B9A4273D97B681B68284A92
:1014040093426AD07B681B68264A934263D07B6808
:101414001B68254A93425BD07B681B68234A93422E
:1014240038D07B681B68224A934230D07B681B68A3
:10143400204A934228D07B681B68184A934220D0E4
:101444007B681B681C4A934219D07B681B681B4A43
:10145400934212D07B681B68194A93420AD07B6876
:101464001B68184A934202D14FF4005336E04FF4FC
:10147400003333E04FF4007330E020232EE00223E6
:101484002CE04FF0007329E04FF4001326E04FF4F2
:10149400003323E04FF4005320E000BF80000240FB
:1014A400080002401C000240300002404400024098
:1014B400580002406C000240080402401C04024030
:1014C4003004024044040240000402400000024090
:1014D4004FF4007302E0202300E002234E4A5360DD
:1014E40057E07B681B684D4A93424FD07B681B686A
:1014F4004B4A934248D07B681B684A4A934240D087
:101504007B681B68484A934238D07B681B68474A0B
:10151400934230D07B681B68454A934228D07B684D
:101524001B68444A934220D07B681B68424A93421A
:1015340019D07B681B68414A934212D07B681B68B0
:101544003F4A93420AD07B681B683E4A934202D1C9
:101554004FF400531BE04FF4003318E04FF40073D2
:1015640015E0202313E0022311E04FF000730EE096
:101574004FF400130BE04FF4003308E04FF4005332
:1015840005E04FF4007302E0202300E002232E4A1A
:1015940053607B68002283F820207B689B6A002BC1
:1015A40034D07B689B6A786898472FE07B681B6C13
:1015B40008229A40FB681340002B28D0BB6803F034
:1015C4000803002B23D07B681B681A687B681B68A0
:1015D40022F00E021A607B681A6C7B68DB6B0121B7
:1015E40001FA02F25A607B6801229A637B68012245
:1015F40083F821207B68002283F820207B681B6B02
:10160400002B04D07B681B6B7868984700BF00BF31
:101614001037BD4680BD00BF0004024008000240F0
:101624001C000240300002404400024058000240C6
:101634006C00024080000240080402401C04024086
:1016440030040240440402400000024080B483B0ED
:1016540000AF78607B6893F82130DBB218460C3712
:10166400BD4680BC704780B485B000AFF860B960F7
:101674007A603B60FB681A6CFB68DB6B012101FA42
:1016840002F25A60FB681B683A685A60FB685B6840
:10169400102B08D1FB681B687A689A60FB681B688A
:1016A400BA68DA6007E0FB681B68BA689A60FB688E
:1016B4001B687A68DA6000BF1437BD4680BC704787
:1016C40080B48BB000AF7860396000237B62002364
:1016D4003B6279E101227B6A02FA03F3FB613B6816
:1016E4001B68FA691340BB61BA69FB699A4240F00E
:1016F40068813B685B68A04A93425ED09E4A9342ED
:1017040075D89E4A934258D09C4A93426FD89C4ABB
:10171400934252D09A4A934269D89A4A93424CD0FF
:10172400984A934263D8984A934246D0964A934241
:101734005DD8122B2AD8122B59D801A252F823F0C3
:10174400BF17000899170008AB170008ED17000829
:10175400F3170008F3170008F3170008F31700083D
:10176400F3170008F3170008F3170008F31700082D
:10177400F3170008F3170008F3170008F31700081D
:10178400F3170008A1170008B51700087F4A934211
:1017940013D02CE03B68DB683B6229E03B68DB68E4
:1017A40004333B6224E03B68DB6808333B621FE0A0
:1017B4003B68DB680C333B621AE03B689B68002B98
:1017C40002D104233B6213E03B689B68012B05D1E3
:1017D40008233B627B68FA691A6109E008233B62CB
:1017E4007B68FA695A6103E000233B6200E000BFB2
:1017F400BB69FF2B01D87B6801E07B6804337B6104
:10180400BB69FF2B02D87B6A9B0002E07B6A083B22
:101814009B003B617B691A680F213B6901FA03F362
:10182400DB431A40396A3B6901FA03F31A437B69C3
:101834001A603B685B6803F08053002B00F0C180A2
:10184400534B9B69524A43F001039361504B9B698C
:1018540003F00103BB60BB684E4A7B6A9B080233FA
:1018640052F82330FB607B6A03F003039B000F22D2
:1018740002FA03F3DB43FA681340FB607B68464AD1
:1018840093421FD07B68454A934219D07B68444AEF
:10189400934213D07B68434A93420DD07B68424AFB
:1018A400934207D07B68414A934201D105230AE061
:1018B400062308E0042306E0032304E0022302E0F5
:1018C400012300E000237A6A02F0030292009340AD
:1018D400FA681343FB602F497B6A9B080233FA685A
:1018E40041F823203B685B6803F48013002B06D087
:1018F4002F4B9A682E49BB6913438B6006E02C4B2F
:101904009A68BB69DB432A4913408B603B685B6878
:1019140003F40013002B06D0254BDA682449BB6975
:101924001343CB6006E0224BDA68BB69DB432049F2
:101934001340CB603B685B6803F40033002B06D094
:101944001B4B5A681A49BB6913434B6006E0184B9A
:101954005A68BB69DB43164913404B603B685B68BC
:1019640003F48033002B25D0114B1A681049BB694E
:1019740013430B6025E000BF00003210000031105B
:1019840000002210000021100000121000001110AD
:10199400001002400000014000080140000C01401A
:1019A400001001400014014000180140001C0140D7
:1019B400000401400B4B1A68BB69DB43094913401F
:1019C4000B607B6A01337B623B681A687B6A22FA8C
:1019D40003F3002B7FF47EAE00BF00BF2C37BD465F
:1019E40080BC70470004014080B584B000AF7860CB
:1019F4007B68002B01D101232BE17B6893F83D30F8
:101A0400DBB2002B06D17B68002283F83C20786887
:101A1400FEF706FF7B68242283F83D207B681B6861
:101A24001A687B681B6822F001021A607B681B68D5
:101A34001A687B681B6842F400421A607B681B6862
:101A44001A687B681B6822F400421A6002F038FDB1
:101A5400F8607B685B68814A934207D8FB68804AD8
:101A6400934294BF01230023DBB206E0FB687D4A66
:101A7400934294BF01230023DBB2002B01D0012346
:101A8400E7E0FB68784AA2FB03239B0CBB607B68FE
:101A94001B685B6823F03F017B681B68BA680A43D4
:101AA4005A607B681B681B6A23F03F017B685B6894
:101AB4006A4A934202D8BB68013309E0BB684FF419
:101AC400967202FB03F3694AA2FB03239B090133C9
:101AD4007A6812680B4313627B681B68DB6923F422
:101AE4004F4222F0FF027B685B685C498B4219D845
:101AF400FB68591E7B685B685B00B1FBF3F3591C00
:101B040040F6FC730B40002B0AD0FB68591E7B681F
:101B14005B685B00B1FBF3F30133C3F30B0351E0E8
:101B240004234FE07B689B68002B11D1FB68581E8F
:101B34007B6859680B465B000B44B0FBF3F301333D
:101B4400C3F30B03002B0CBF01230023DBB212E011
:101B5400FB68581E7B6859680B469B000B44990030
:101B64000B44B0FBF3F30133C3F30B03002B0CBFA3
:101B740001230023DBB2002B01D0012322E07B6888
:101B84009B68002B0ED1FB68581E7B6859680B4676
:101B94005B000B44B0FBF3F30133C3F30B0343F4D7
:101BA40000430FE0FB68581E7B6859680B469B0096
:101BB4000B4499000B44B0FBF3F30133C3F30B0361
:101BC40043F44043796809681343CB617B681B681D
:101BD4001B6823F0C0017B68DA697B681B6A1A43BF
:101BE4007B681B680A431A607B681B689B6823F444
:101BF400034323F0FF037A6811697A68D2681143BA
:101C04007A6812680B4393607B681B68DB6823F077
:101C1400FF017B685A697B689B691A437B681B6870
:101C24000A43DA607B681B681A687B681B6842F0A9
:101C340001021A607B6800221A647B68202283F800
:101C44003D207B6800221A637B68002283F83E20D3
:101C5400002318461037BD4680BD00BFA086010092
:101C64007F841E00FF083D0083DE1B43D34D6210BA
:101C740080B483B000AF78607B681B685B6903F055
:101C84008003802B03D17B681B6800221A6100BF8C
:101C94000C37BD4680BC704780B58AB002AFF8608F
:101CA400084611461A4603467B810B463B81134680
:101CB400FB8000237B61FEF773FFF861FB6893F8F8
:101CC4003D30DBB2202B40F02E81994B1B68DB08A2
:101CD400984AA2FB03231A0A13469B0013449A0052
:101CE40013447B617B69013B7B617B69002B12D1CF
:101CF400FB6800221A63FB68202283F83D20FB68FE
:101D0400002283F83E20FB681B6C43F02002FB6832
:101D14001A64022308E1FB681B689B6903F0020351
:101D2400022BDFD0FB6893F83C30012B01D1022356
:101D3400FAE0FB68012283F83C20FB681B681B68FF
:101D440003F00103012B07D0FB681B681A68FB68CA
:101D54001B6842F001021A60FB681B681A68FB6882
:101D64001B6822F400621A60FB68212283F83D207C
:101D7400FB68402283F83E20FB6800221A64FB685B
:101D8400BA6A5A62FB68BA8D5A85FB685B8D9AB24F
:101D9400FB681A85FB68684ADA627A89FB685A64C8
:101DA4003A89FB689A64FA88FB68DA64FB68002263
:101DB4001A65FB681B8D002B00F0A180FB685B6B30
:101DC400002B22D0FB685B6B5C4A9A62FB685B6BFE
:101DD4005B4A1A63FB685B6B0022DA62FB685B6B2D
:101DE40000225A63FB68586BFB685B6A1946FB6800
:101DF4001B6810331A46FB681B8DFFF783F80346F4
:101E0400FB76FB7E002B66D113E0FB68202283F86F
:101E14003D20FB68002283F83E20FB681B6C43F0E6
:101E24008002FB681A64FB68002283F83C200123CB
:101E34007AE0F8883A897989FB690193232300932E
:101E44000346F86801F04EFB0346002B22D0FB68E2
:101E54005B6B1846FFF7B6F80346FB76FB685B6BD3
:101E640000229A62FB681B681A68FB681B6822F4EC
:101E740080621A60FB6800221A85FB6800225A857A
:101E8400FB681B681A68FB681B6822F001021A6071
:101E9400012349E000233B61FB681B685B693B61EC
:101EA400FB681B689B693B613B69FB68002283F804
:101EB4003C20FB681B685A68FB681B6842F480720C
:101EC4005A60FB681B685A68FB681B6842F400622E
:101ED4005A60002328E0FB68202283F83D20FB6839
:101EE400002283F83E20FB681B6C43F01002FB6861
:101EF4001A64FB68002283F83C20012314E0FB6889
:101F0400202283F83D20FB68002283F83E20FB68F2
:101F14001B6C43F04002FB681A64FB68002283F8E0
:101F24003C20012300E0022318462037BD4680BD33
:101F34000800002089B5F8140000FFFF15360008DA
:101F4400BF37000880B588B000AF78600023BB615C
:101F54007B681B685B687B617B68DB6A3B617B68D1
:101F640093F83E30FB737B6893F83D30BB73FB7B87
:101F7400102B03D0FB7B402B40F0C1807B681B6897
:101F84009B69BB617B681B685B69FB61FB6903F050
:101F94000103002B0DD13B69B3F52A0F03D03B6934
:101FA400B3F12A4F01D1012300E00023012B00F0FB
:101FB4003281FB6903F00103002B0CD07B695B0ABF
:101FC40003F00103002B06D0786801F097FE7868CF
:101FD40000F0D6FC92E0FB69DB0803F00103002B60
:101FE40009D07B695B0A03F00103002B03D07868F6
:101FF40000F04BFD82E0FB695B0803F00103002B5A
:1020040009D07B695B0A03F00103002B03D07868D5
:1020140000F064FD72E0BB699B0803F00103002B30
:102024003BD07B681B685B6803F40063B3F5006F07
:1020340000F0F380FB69DB0903F00103002B0FD0F0
:102044007B699B0A03F00103002B09D0FB699B0801
:1020540003F00103002B03D1786800F042F94DE04E
:10206400FB699B0803F00103002B00F0D6807B6919
:102074005B0A03F00103002B00F0CF80BB7B212B14
:1020840003D1786800F0C9F9C7E0FB7B402B40F02E
:10209400C480786800F037FABFE07B681B685B682F
:1020A40003F40063B3F5006F00F0B780FB699B098C
:1020B40003F00103002B0FD07B699B0A03F001039B
:1020C400002B09D0FB699B0803F00103002B03D10B
:1020D400786800F0B0FA11E0FB699B0803F0010393
:1020E400002B00F09A807B695B0A03F00103002B4C
:1020F40000F09380786800F059FB8EE08DE07B68F7
:102104001B6C002B04D07B681B685B69FB6107E0D8
:102114007B681B689B69BB617B681B685B69FB61AF
:10212400FB695B0803F00103002B12D07B695B0A97
:1021340003F00103002B0CD07B681B6C002B03D035
:102144007B681B689B69BB61B969786800F01DFFF7
:1021540066E0FB691B0903F00103002B09D07B69CE
:102164005B0A03F00103002B03D0786800F058FFEA
:1021740056E0BB7B212B02D0BB7B292B25D1FB69ED
:10218400DB0903F00103002B0FD07B699B0A03F0EA
:102194000103002B09D0FB699B0803F00103002B0A
:1021A40003D1786800F035FE39E0FB699B0803F041
:1021B4000103002B33D07B695B0A03F00103002B7E
:1021C4002DD0786800F062FE29E0FB699B0903F0DA
:1021D4000103002B0FD07B699B0A03F00103002B42
:1021E40009D0FB699B0803F00103002B03D1786835
:1021F40000F06CFE14E0FB699B0803F00103002B64
:102204000ED07B695B0A03F00103002B08D07868C9
:1022140000F09AFE04E000BF02E000BF00E000BF4F
:102224002037BD4680BD80B483B000AF786000BF66
:102234000C37BD4680BC704780B483B000AF786073
:1022440000BF0C37BD4680BC704780B483B000AF7C
:10225400786000BF0C37BD4680BC704780B483B043
:1022640000AF786000BF0C37BD4680BC704780B4B7
:1022740083B000AF78600B46FB7013463B8000BF11
:102284000C37BD4680BC704780B483B000AF786023
:1022940000BF0C37BD4680BC704780B483B000AF2C
:1022A400786000BF0C37BD4680BC704780B483B0F3
:1022B40000AF786000BF0C37BD4680BC704780B467
:1022C40083B000AF786000BF0C37BD4680BC704758
:1022D40080B483B000AF786000BF0C37BD4680BCCB
:1022E400704780B584B000AF78607B6893F83D3068
:1022F400FB737B6893F83E30BB737B68DB6ABB601F
:102304007B681B8D002B50D1FB7B212B4DD1BB68EF
:10231400082B1DD0BB68202B1AD0BB6813F5803F57
:1023240016D07B681B685A687B681B6822F4E062DD
:102334005A607B6811221A637B68002283F83E206E
:102344007B68202283F83D207868FFF76CFF60E00B
:102354007B681B685A687B681B6822F4E0625A60D9
:102364007B681B681A687B681B6842F400721A60F9
:102374007B6800221A637B68202283F83D207B68F7
:1023840093F83E30DBB2402B07D17B68002283F800
:102394003E207868FFF781FF3BE07B68002283F8EA
:1023A4003E207868FFF73FFF33E0FB7B212B05D00D
:1023B400BB7B402B2DD1FB7B222B2AD17B685B8DF1
:1023C4009BB2002B08D17B681B685A687B681B682A
:1023D40022F480625A601CE07B6893F83E30DBB2E2
:1023E400402B03D1786800F08EF812E07B685B6ABA
:1023F4001A787B681B681A617B685B6A5A1C7B6865
:102404005A627B685B8D9BB2013B9AB27B685A85AA
:10241400FFE700BF1037BD4680BD80B584B000AF74
:1024240078607B68DB6AFB607B6893F83D30DBB2E5
:10243400212B64D17B685B8D9BB2002B12D07B680F
:102444005B6A1A787B681B681A617B685B6A5A1C32
:102454007B685A627B685B8D9BB2013B9AB27B6856
:102464005A854CE0FB68082B1DD0FB68202B1AD042
:10247400FB6813F5803F16D07B681B685A687B683D
:102484001B6822F4E0625A607B6811221A637B683D
:10249400002283F83E207B68202283F83D20786860
:1024A400FFF7C1FE2BE07B681B685A687B681B68DA
:1024B40022F4E0625A607B681B681A687B681B68B8
:1024C40042F400721A607B6800221A637B6820223F
:1024D40083F83D207B6893F83E30DBB2402B07D174
:1024E4007B68002283F83E207868FFF7D6FE06E07A
:1024F4007B68002283F83E207868FFF794FE00BFD3
:102504001037BD4680BD80B584B000AF78607B686D
:1025140093F83D30FB737B681B6D002B1DD17B68EA
:10252400DB6C012B0BD17B689B6CDAB27B681B687C
:102534001A617B681B6D9A1C7B681A6577E07B685F
:102544009B6C9BB21B12DAB27B681B681A617B68B6
:102554001B6D5A1C7B681A6569E07B681B6D012B37
:102564000BD17B689B6CDAB27B681B681A617B6851
:102574001B6D5A1C7B681A6559E07B681B6D022B26
:1025840052D1FB7B222B0DD17B681B681A687B68B8
:102594001B6842F480721A607B681B6D5A1C7B684E
:1025A4001A6544E07B685B8D9BB2002B15D0FB7BE6
:1025B400212B12D17B685B6A1A787B681B681A61CD
:1025C4007B685B6A5A1C7B685A627B685B8D9BB232
:1025D400013B9AB27B685A8529E07B685B8D9BB28C
:1025E400002B24D1FB7B212B21D17B681B685A68EB
:1025F4007B681B6822F4E0625A607B681B681A6877
:102604007B681B6842F400721A607B6800221A63BC
:102614007B68202283F83D207B68002283F83E20DB
:102624007868FFF73AFE02E07868FFF721FB00BF05
:102634001037BD4680BD80B584B000AF78607B683C
:1026440093F83D30DBB2222B40F0AC807B685B8D8D
:102654009BB2FB60FB68032B21D97B681B681A695A
:102664007B685B6AD2B21A707B685B6A5A1C7B68AF
:102674005A627B685B8D9BB2013B9AB27B685A8538
:102684007B685B8D9BB2032B40F08C807B681B685E
:102694005A687B681B6822F480625A6082E07B6817
:1026A400DB6A022B75D0FB68012B02D0FB68002B80
:1026B4006FD1786801F0C2FA0346002B42D17B68DF
:1026C4001B681A687B681B6822F480621A607B6846
:1026D4001B685A687B681B6822F4E0625A607B6856
:1026E4001B681A697B685B6AD2B21A707B685B6A82
:1026F4005A1C7B685A627B685B8D9BB2013B9AB221
:102704007B685A857B68202283F83D207B6893F898
:102714003E30DBB2402B0AD17B68002283F83E2096
:102724007B6800221A637868FFF7C0FD3AE07B6893
:10273400002283F83E207B6812221A637868FFF730
:102744007BFD2FE07B681B685A687B681B6822F45A
:10275400E0625A607B681B681A697B685B6AD2B264
:102764001A707B685B6A5A1C7B685A627B685B8D53
:102774009BB2013B9AB27B685A857B68202283F81E
:102784003D207B68002283F83E207868FFF797FDA0
:1027940008E07B681B685A687B681B6822F48062C7
:1027A4005A60FFE700BF1037BD4680BD80B584B0D6
:1027B40000AF78607B68DB6AFB607B685B8D9BB2F3
:1027C400042B1BD17B681B685A687B681B6822F446
:1027D40080625A607B681B681A697B685B6AD2B244
:1027E4001A707B685B6A5A1C7B685A627B685B8DD3
:1027F4009BB2013B9AB27B685A85BDE07B685B8DD6
:102804009BB2032B29D17B681B685A687B681B68C1
:1028140022F480625A60FB68042B0AD0FB68022B06
:1028240007D07B681B681A687B681B6822F4806287
:102834001A607B681B681A697B685B6AD2B21A707B
:102844007B685B6A5A1C7B685A627B685B8D9BB2AF
:10285400013B9AB27B685A858EE07B685B8D9BB2A4
:10286400022B76D1FB68012B02D0FB68102B08D118
:102874007B681B681A687B681B6822F480621A6094
:1028840019E0FB68042B02D0FB68022B08D17B689B
:102894001B681A687B681B6842F480621A600AE04D
:1028A400FB68102B07D07B681B681A687B681B6861
:1028B40042F400721A607B681B681A697B685B6A61
:1028C400D2B21A707B685B6A5A1C7B685A627B6856
:1028D4005B8D9BB2013B9AB27B685A857B681B680F
:1028E4001A697B685B6AD2B21A707B685B6A5A1C8D
:1028F4007B685A627B685B8D9BB2013B9AB27B68B2
:102904005A857B681B685A687B681B6822F440728E
:102914005A607B68202283F83D207B6893F83E3020
:10292400DBB2402B0AD17B68002283F83E207B680F
:1029340000221A637868FFF7B9FC1DE07B68002267
:1029440083F83E207B6812221A637868FFF774FCD0
:1029540012E07B681B681A697B685B6AD2B21A70E2
:102964007B685B6A5A1C7B685A627B685B8D9BB28E
:10297400013B9AB27B685A8500BF1037BD4680BDC3
:1029840080B483B000AF78607B6893F83E30DBB2EC
:10299400402B17D17B681B6D002B09D17B685B6CC6
:1029A400DBB21A467B681B6802F0FE021A6167E01C
:1029B4007B685B6CDBB243F00103DAB27B681B68B3
:1029C4001A615DE07B681B69B3F5804F33D17B6886
:1029D40093F83D30DBB2212B09D17B685B6CDBB211
:1029E4001A467B681B6802F0FE021A6108E07B68E5
:1029F4005B6CDBB243F00103DAB27B681B681A61DB
:102A04007B685B6B002B04D07B685B6B9B6A002B41
:102A140008D17B689B6B002B32D07B689B6B9B6AD5
:102A2400002B2DD07B681B685A687B681B6842F4B6
:102A340000625A6024E07B681B6D002B0ED17B681A
:102A44005B6C9BB2DB11DBB203F00603DBB263F019
:102A54000F03DAB27B681B681A6111E07B681B6D97
:102A6400012B0DD17B685B6C9BB2DB11DBB203F0F5
:102A74000603DBB263F00E03DAB27B681B681A61EB
:102A840000BF0C37BD4680BC704780B483B000AF34
:102A940078607B685B6CDAB27B681B681A617B6860
:102AA4005B6B002B04D07B685B6B9B6A002B08D1AB
:102AB4007B689B6B002B0CD07B689B6B9B6A002B09
:102AC40007D07B681B685A687B681B6842F4006205
:102AD4005A6000BF0C37BD4680BC704780B491B0CB
:102AE40000AF78607B6893F83E3087F83F307B68AE
:102AF400DB6ABB637B681B6B7B637B6893F83D304D
:102B0400DBB2222B40F074817B681B6D002B0FD14C
:102B140097F83F30402B0BD100233B637B681B6845
:102B24005B693B637B681B689B693B633B6B6BE145
:102B34007B681B6D002B1DD17B681B69B3F5404F6F
:102B440018D10023FB627B681B685B69FB627B68AE
:102B54001B689B69FB62FB6A7B681B681A687B685D
:102B64001B6842F480721A607B681B6D5A1C7B6878
:102B74001A6549E17B685B8D9BB2002B13D100235E
:102B8400BB627B681B685B69BB627B681B689B6973
:102B9400BB62BB6A7B681B681A687B681B6842F46B
:102BA40000721A6020E17B685B8D9BB2012B40F0C0
:102BB4008A80BB6B13F5803F37D17B681B681A682A
:102BC4007B681B6822F480621A607B681B685B6800
:102BD40003F40063B3F5006F13D17B681B681A68B4
:102BE4007B681B6822F480621A6000237B627B6826
:102BF4001B685B697B627B681B689B697B627B6A81
:102C0400F2E000233B627B681B685B693B627B6884
:102C14001B689B693B623B6A7B681B681A687B681C
:102C24001B6842F400721A60DEE0BB6B082B2ED0E6
:102C3400BB6B202B2BD07B6B122B02D1BB6B012BDC
:102C440025D1BB6B042B0ED0BB6B022B0BD0BB6B03
:102C5400102B08D07B681B681A687B681B6822F4F9
:102C640080621A6007E07B681B681A687B681B68CF
:102C740042F480621A600023FB617B681B685B6915
:102C8400FB617B681B689B69FB61FB69ACE07B684B
:102C94001B681A687B681B6822F480621A60002330
:102CA400BB617B681B685B69BB617B681B689B6954
:102CB400BB61BB697B681B681A687B681B6842F44C
:102CC40000721A6090E07B685B8D9BB2022B58D136
:102CD400BB6B042B21D0BB6B022B1ED0BB6B102B08
:102CE4001BD07B681B681A687B681B6842F400620F
:102CF4001A6000237B617B681B685B697B617B686E
:102D04001B689B697B617B697B681B681A687B68AD
:102D14001B6822F480621A6012E07B681B681A68E0
:102D24007B681B6842F480621A6000233B617B6805
:102D34001B685B693B617B681B689B693B613B6902
:102D44007B681B685B6803F40063B3F5006F4BD1C9
:102D5400BB6B13F5803F0BD0BB6B012B08D0BB6B57
:102D6400082B05D0BB6B102B02D0BB6B202B3BD1A7
:102D74007B681B685A687B681B6842F480525A60FF
:102D840032E07B681B681A687B681B6842F48062C7
:102D94001A607B681B685B6803F40063B3F5006F1B
:102DA40017D1BB6B13F5803F0BD0BB6B012B08D045
:102DB400BB6B082B05D0BB6B102B02D0BB6B202B3D
:102DC40007D17B681B685A687B681B6842F4805291
:102DD4005A600023FB607B681B685B69FB607B684F
:102DE4001B689B69FB60FB687B6800221A650BE02B
:102DF4000023BB607B681B685B69BB607B681B68E6
:102E04009B69BB60BB68FFE700BF4437BD4680BC1D
:102E1400704780B584B000AF78607B6893F83D302C
:102E2400FB737B685B8D9BB2002B2BD07B685B6A4A
:102E34001A787B681B681A617B685B6A5A1C7B681A
:102E44005A627B685B8D9BB2013B9AB27B685A8560
:102E54007B685B8D9BB2002B14D1FB7B292B11D19A
:102E64007B681B685A687B681B6822F480625A601E
:102E74007B6821221A637B68282283F83D207868C6
:102E8400FFF7E3F900BF1037BD4680BD80B483B0BF
:102E940000AF78607B685B8D9BB2002B11D07B68A0
:102EA4005B6A1A787B681B681A617B685B6A5A1CC8
:102EB4007B685A627B685B8D9BB2013B9AB27B68EC
:102EC4005A8500BF0C37BD4680BC704780B584B0BE
:102ED40000AF78607B6893F83D30FB737B685B8D53
:102EE4009BB2002B2CD07B681B681A697B685B6AD9
:102EF400D2B21A707B685B6A5A1C7B685A627B6820
:102F04005B8D9BB2013B9AB27B685A857B685B8D73
:102F14009BB2002B14D1FB7B2A2B11D17B681B683D
:102F24005A687B681B6822F480625A607B6822229C
:102F34001A637B68282283F83D207868FFF78EF9AE
:102F440000BF1037BD4680BD80B483B000AF786049
:102F54007B685B8D9BB2002B12D07B681B681A695F
:102F64007B685B6AD2B21A707B685B6A5A1C7B68A6
:102F74005A627B685B8D9BB2013B9AB27B685A852F
:102F840000BF0C37BD4680BC704780B584B000AF2D
:102F9400786039600023FB737B6893F83D30DBB2C3
:102FA40003F02803282B27D17B681B685A687B68A9
:102FB4001B6822F480625A603B689B0803F001039B
:102FC400002B01D10123FB733B68DB0903F00103F0
:102FD400002B03D17B68DB68BB8102E07B689B69C3
:102FE400BB817B68002283F83C20BA89FB7B1946AD
:102FF4007868FFF73CF90EE00023BB607B681B6830
:103004005B69BB607B681B689B69BB60BB687B6852
:10301400002283F83C2000BF1037BD4680BD00006D
:1030240080B584B000AF78607B6893F83D30FB7363
:103034007B681B685A687B681B6822F4E0625A60EC
:103044000023BB607B681B685B69BB607B681B6893
:103054001A687B681B6842F001021A60BB687B68CF
:103064001B681A687B681B6822F480621A607B689C
:103074001B685B6803F40063B3F5006F72D1FB7BDC
:10308400222B02D0FB7B2A2B35D17B689B6B1B68E0
:103094005B689AB27B685A857B685B8D9BB2002B18
:1030A40005D07B681B6C43F004027B681A647B6860
:1030B4001B685A687B681B6822F400625A607B684C
:1030C4009B6B1846FEF7C2FA0346012B49D07B6876
:1030D4009B6B694A5A637B689B6B1846FDF772FFCA
:1030E4000346002B3DD07B689B6B5B6B7A68926BCD
:1030F4001046984735E07B685B6B1B685B689AB247
:103104007B685A857B685B8D9BB2002B05D07B68FE
:103114001B6C43F004027B681A647B681B685A6862
:103124007B681B6822F400625A607B685B6B1846FC
:10313400FEF78CFA0346012B14D07B685B6B4E4A76
:103144005A637B685B6B1846FDF73CFF0346002B14
:1031540008D07B685B6B5B6B7A68526B1046984750
:1031640000E000BF7B685B8D9BB2002B3ED07B6888
:103174001B685B6903F00403042B12D17B681B6892
:103184001A697B685B6AD2B21A707B685B6A5A1CE4
:103194007B685A627B685B8D9BB2013B9AB27B6809
:1031A4005A857B681B685B6903F04003402B12D18E
:1031B4007B681B681A697B685B6AD2B21A707B6889
:1031C4005B6A5A1C7B685A627B685B8D9BB2013BCD
:1031D4009AB27B685A857B685B8D9BB2002B05D0C5
:1031E4007B681B6C43F004027B681A647B681B6C6D
:1031F400002B03D0786800F043F839E0FB7B2A2BDE
:1032040009D17B6800221A637B68282283F83D2059
:103214007868FFF723F87B6893F83D30DBB2282BFE
:1032240011D17B68154ADA627B6800221A637B68D5
:10323400202283F83D207B68002283F83E207868B2
:10324400FFF722F814E07B681B6B222B02D0FB7B78
:10325400222B0DD17B6800221A637B68202283F81D
:103264003D207B68002283F83E207868FEF7F6FF55
:1032740000BF1037BD4680BD2D3800080000FFFF99
:1032840080B584B000AF78607B6893F83D30FB7301
:103294007B6893F83E30BB73BB7B102B02D0BB7BA7
:1032A400402B0AD1FB7B222B07D17B681B681A6851
:1032B4007B681B6822F400621A60FB7B03F028031E
:1032C400282B07D17B6800221A637B68282283F8A5
:1032D4003D2015E07B681B685B6803F40063B3F56D
:1032E400006F0AD0FB7B602B07D07B68202283F819
:1032F4003D207B68002283F83E207B6800221A630D
:103304007B681B685B6803F40063B3F5006F62D1EC
:103314007B681B685A687B681B6822F400625A60E9
:103324007B685B6B93F82130DBB2012B20D07B6888
:103334005B6B6A4A5A637B685B6B1846FDF742FE17
:103344000346002B00F089807B681B681A687B6841
:103354001B6822F001021A607B68202283F83D205A
:103364007B685B6B5B6B7A68526B1046984774E0C2
:103374007B689B6B594A5A637B689B6B1846FDF7C5
:1033840021FE0346002B68D07B681B685B6903F051
:103394004003402B0BD17B681B681A697B685B6A0E
:1033A400D2B21A707B685B6A5A1C7B685A627B686B
:1033B4001B681A687B681B6822F001021A607B682C
:1033C400202283F83D207B689B6B5B6B7A68926B51
:1033D4001046984741E07B6893F83D30DBB2602BA0
:1033E40025D17B68202283F83D207B6800221A6463
:1033F4007B681B685B6903F04003402B0BD17B683F
:103404001B681A697B685B6AD2B21A707B685B6A54
:103414005A1C7B685A627B681B681A687B681B6845
:1034240022F001021A607868FEF752FF15E07B680B
:103434001B685B6903F04003402B0BD17B681B685E
:103444001A697B685B6AD2B21A707B685B6A5A1C21
:103454007B685A627868FEF732FF7B681B6CBB603E
:10346400BB6803F00103002B0ED1BB6803F0020319
:10347400002B09D1BB6803F00403002B04D1BB6803
:1034840003F00803002B07D07B681B685A687B682D
:103494001B6822F4E0625A607B6893F83D30FB734A
:1034A4007B681B6C03F00403042B13D1FB7B282BD8
:1034B40010D17B680A4ADA627B6800221A637B684F
:1034C400202283F83D207B68002283F83E20786820
:1034D400FEF7DAFE00BF1037BD4680BD2D38000868
:1034E4000000FFFF80B588B002AFF86008461146BF
:1034F4001A4603467B810B463B811346FB80FB68DF
:103504001B681A68FB681B6842F480721A607B6A45
:1035140000933B6A00224FF00111F86800F02CFA86
:103524000346002B0DD0FB681B681B6803F48073F3
:10353400B3F5807F03D1FB684FF400721A64032350
:103544005FE07B89DBB21A46FB681B6802F0FE026F
:103554001A617B6A3A6A2D49F86800F087FA0346D3
:10356400002B01D001234CE000237B61FB681B6826
:103574005B697B61FB681B689B697B617B697A6A19
:10358400396AF86800F012FB0346002B0DD0FB6883
:103594001B6C042B07D1FB681B681A68FB681B684B
:1035A40042F400721A6001232BE0FB88012B05D141
:1035B4003B89DAB2FB681B681A6121E03B891B0A6C
:1035C4009BB2DAB2FB681B681A617A6A396AF868D6
:1035D40000F0ECFA0346002B0DD0FB681B6C042BA7
:1035E40007D1FB681B681A68FB681B6842F4007209
:1035F4001A60012305E03B89DAB2FB681B681A6193
:10360400002318461837BD4680BD00BF02000100E4
:1036140080B586B000AF78607B685B6A7B617B694C
:1036240093F83D30FB747B6993F83E30BB747B693F
:10363400DB6AFB607B691B685A687B691B6822F440
:1036440040725A607B695B6B002B03D07B695B6BB8
:1036540000229A627B699B6B002B03D07B699B6B76
:1036640000229A62FB7C03F02103212B07D0FB7C10
:1036740003F02203222B31D1BB7C202B2ED17B697A
:103684001B685A687B691B6822F400625A607B6974
:1036940000225A85FB7C292B0AD17B6921221A63DB
:1036A4007B69282283F83D207869FEF7CEFD0CE083
:1036B400FB7C2A2B09D17B6922221A637B6928228D
:1036C40083F83D207869FEF7C9FD7B691B685A6859
:1036D4007B691B6842F440725A606AE07B6993F824
:1036E4003E30DBB2002B64D07B695B8D9BB2012B37
:1036F40007D17B691B681A687B691B6822F48062A6
:103704001A607B691B685A687B691B6822F44072E3
:103714005A60FB6813F5803F09D0FB68082B06D07C
:10372400FB68B3F12A4F02D0FB68202B07D17B69D9
:103734001B681A687B691B6842F400721A607B6913
:103744001B685A687B691B6822F480525A607B6943
:103754001B685A687B691B6822F400625A607B69A3
:1037640000225A857B691B6C002B03D07869FEF715
:10377400A6FD1EE07B69202283F83D207B6993F837
:103784003E30DBB2402B0AD17B69002283F83E2015
:103794007B6900221A637869FEF788FD09E07B697A
:1037A400002283F83E207B6912221A637869FEF7AF
:1037B40043FD00BF1837BD4680BD80B584B000AF5F
:1037C40078607B685B6AFB60FB685B6B002B03D0F3
:1037D400FB685B6B00229A62FB689B6B002B03D037
:1037E400FB689B6B00229A62FB681B681A68FB6883
:1037F4001B6822F480621A60FB6800225A85FB6809
:10380400202283F83D20FB68002283F83E20FB68D9
:103814001B6C43F01002FB681A64F868FEF74FFD56
:1038240000BF1037BD4680BD80B586B000AF78605C
:103834000023FB607B685B6A7B617B6993F83D30A6
:10384400FB744B4B1B68DB084A4AA2FB03231A0A8E
:1038540013469B001344DA00D31AFB60FB68002B69
:1038640006D17B691B6C43F020027B691A640AE071
:10387400FB68013BFB607B691B681B6803F40073F6
:10388400B3F5007FEAD07B695B6B002B03D07B69C7
:103894005B6B00229A627B699B6B002B03D07B6974
:1038A4009B6B00229A627B691B681A687B691B68A0
:1038B40022F480621A607B6900225A857B695B6B03
:1038C400002B03D07B695B6B00225A637B699B6B83
:1038D400002B03D07B699B6B00225A637B691B68B6
:1038E4001A687B691B6822F001021A607B6993F8ED
:1038F4003D30DBB2602B0ED17B69202283F83D2062
:103904007B69002283F83E207B6900221A6478696F
:10391400FEF7DEFC27E0FB7C03F02803282B17D1FD
:103924007B691B681A687B691B6842F001021A6094
:103934007B691B681A687B691B6842F480621A60A1
:103944007B6900221A637B69282283F83D2007E003
:103954007B69202283F83D207B69002283F83E2086
:103964007869FEF7ACFC00BF1837BD4680BD00BFC8
:103974000800002089B5F81480B584B000AFF86061
:10398400B9603B601346FB7148E03B68B3F1FF3F0D
:1039940044D0FDF705F90246BB69D31A3A689A4246
:1039A40002D33B68002B39D1BB681B0CDBB2012B63
:1039B4000DD1FB681B685B69DA43BB6813409BB29B
:1039C400002B0CBF01230023DBB21A460CE0FB687A
:1039D4001B689B69DA43BB6813409BB2002B0CBF86
:1039E40001230023DBB21A46FB799A4216D1FB6805
:1039F40000221A63FB68202283F83D20FB68002222
:103A040083F83E20FB681B6C43F02002FB681A64B9
:103A1400FB68002283F83C20012323E0BB681B0CD5
:103A2400DBB2012B0DD1FB681B685B69DA43BB6811
:103A340013409BB2002B0CBF01230023DBB21A46B8
:103A44000CE0FB681B689B69DA43BB6813409BB2BC
:103A5400002B0CBF01230023DBB21A46FB799A42E8
:103A640093D0002318461037BD4680BD80B584B07E
:103A740000AFF860B9607A603B6071E0FB681B6876
:103A84005B6903F48063B3F5806F23D1FB681B6823
:103A94001A68FB681B6842F400721A60FB681B68B2
:103AA4006FF480625A61FB6800221A63FB6820226B
:103AB40083F83D20FB68002283F83E20FB681B6CE2
:103AC40043F00402FB681A64FB68002283F83C207C
:103AD400012367E07B68B3F1FF3F41D0FDF760F855
:103AE40002463B68D31A7A689A4202D37B68002B59
:103AF40036D1BB681B0CDBB2012B0CD1FB681B68F5
:103B04005B69DA43BB6813409BB2002B14BF0123EB
:103B14000023DBB20BE0FB681B689B69DA43BB68DC
:103B240013409BB2002B14BF01230023DBB2002BF4
:103B340016D0FB6800221A63FB68202283F83D201C
:103B4400FB68002283F83E20FB681B6C43F02002D4
:103B5400FB681A64FB68002283F83C20012321E0FF
:103B6400BB681B0CDBB2012B0CD1FB681B685B69C7
:103B7400DA43BB6813409BB2002B14BF012300231C
:103B8400DBB20BE0FB681B689B69DA43BB6813403C
:103B94009BB2002B14BF01230023DBB2002B7FF464
:103BA4006DAF002318461037BD4680BD80B584B084
:103BB40000AFF860B9607A6034E0F86800F070F83B
:103BC4000346002B01D0012334E0BB68B3F1FF3F6F
:103BD40028D0FCF7E5FF02467B68D31ABA689A42FC
:103BE40002D3BB68002B1DD1FB681B685B6903F023
:103BF4008003802B16D0FB6800221A63FB68202206
:103C040083F83D20FB68002283F83E20FB681B6C90
:103C140043F02002FB681A64FB68002283F83C200E
:103C2400012307E0FB681B685B6903F08003802BBA
:103C3400C3D1002318461037BD4680BD80B485B07B
:103C440000AF78600023FB60134B1B68DB08134A4A
:103C5400A2FB03231A0A13469B001344FB60FB6870
:103C6400013BFB60FB68002B07D17B681B6C43F0B6
:103C740020027B681A64012308E07B681B681B68C8
:103C840003F40073B3F5007FE9D00023184614371A
:103C9400BD4680BC704700BF0800002089B5F814F9
:103CA40080B483B000AF78607B681B685B6903F401
:103CB4008063B3F5806F1BD17B681B686FF48062EF
:103CC4005A617B6800221A637B68202283F83D20B6
:103CD4007B68002283F83E207B681B6C43F004025F
:103CE4007B681A647B68002283F83C20012300E08F
:103CF400002318460C37BD4680BC704780B483B09F
:103D040000AF78607B68DB6AB3F52A0F03D17B6868
:103D14000122DA6207E07B68DB6AB3F12A4F02D141
:103D24007B680822DA6200BF0C37BD4680BC70474E
:103D340080B586B000AF78607B68002B01D1012389
:103D44006CE27B681B6803F00103002B00F08780A2
:103D5400924B5B6803F00C03042B0CD08F4B5B6815
:103D640003F00C03082B12D18C4B5B6803F48033F3
:103D7400B3F5803F0BD1894B1B6803F40033002B50
:103D84006CD07B685B68002B68D1012346E27B68BA
:103D94005B68B3F5803F06D1804B1B687F4A43F4D0
:103DA400803313602EE07B685B68002B0CD17B4B67
:103DB4001B687A4A23F480331360784B1B68774A74
:103DC40023F4802313601DE07B685B68B3F5A02FA8
:103DD4000CD1724B1B68714A43F4802313606F4B00
:103DE4001B686E4A43F4803313600BE06B4B1B6813
:103DF4006A4A23F480331360684B1B68674A23F4D0
:103E0400802313607B685B68002B13D0FCF7C8FE2B
:103E1400386108E0FCF7C4FE02463B69D31A642B00
:103E240001D90323FAE15D4B1B6803F40033002B33
:103E3400F0D014E0FCF7B4FE386108E0FCF7B0FE03
:103E440002463B69D31A642B01D90323E6E1534BA1
:103E54001B6803F40033002BF0D100E000BF7B6843
:103E64001B6803F00203002B63D04C4B5B6803F028
:103E74000C03002B0BD0494B5B6803F00C03082B9D
:103E84001CD1464B5B6803F48033002B16D1434BA3
:103E94001B6803F00203002B05D07B681B69012B10
:103EA40001D00123BAE13D4B1B6823F0F8027B6883
:103EB4005B69DB00394913430B603AE07B681B699B
:103EC400002B20D0364B01221A60FCF769FE3861C2
:103ED40008E0FCF765FE02463B69D31A022B01D9C0
:103EE40003239BE12D4B1B6803F00203002BF0D04E
:103EF4002A4B1B6823F0F8027B685B69DB002749C7
:103F040013430B6015E0264B00221A60FCF748FEB1
:103F1400386108E0FCF744FE02463B69D31A022BE1
:103F240001D903237AE11D4B1B6803F00203002B24
:103F3400F0D17B681B6803F00803002B3AD07B6840
:103F44009B69002B19D0174B01221A60FCF728FE3D
:103F5400386108E0FCF724FE02463B69D31A022BC1
:103F640001D903235AE10D4B5B6A03F00203002BD2
:103F7400F0D0012000F0B8FA1CE00A4B00221A60CD
:103F8400FCF70EFE38610FE0FCF70AFE02463B69BF
:103F9400D31A022B08D9032340E100BF00100240CA
:103FA40000004242800442429E4B5B6A03F00203DB
:103FB400002BE9D17B681B6803F00403002B00F09D
:103FC400A6800023FB75974BDB6903F08053002B1D
:103FD4000DD1944BDB69934A43F08053D361914BE9
:103FE400DB6903F08053BB60BB680123FB758E4B18
:103FF4001B6803F48073002B18D18B4B1B688A4A0F
:1040040043F480731360FCF7CBFD386108E0FCF7E0
:10401400C7FD02463B69D31A642B01D90323FDE093
:10402400814B1B6803F48073002BF0D07B68DB6842
:10403400012B06D17B4B1B6A7A4A43F001031362BE
:104044002DE07B68DB68002B0CD1764B1B6A754A2C
:1040540023F001031362734B1B6A724A23F00403B7
:1040640013621CE07B68DB68052B0CD16D4B1B6A6B
:104074006C4A43F0040313626A4B1B6A694A43F0B7
:10408400010313620BE0674B1B6A664A23F00103CA
:104094001362644B1B6A634A23F0040313627B6854
:1040A400DB68002B15D0FCF77BFD38610AE0FCF7D8
:1040B40077FD02463B69D31A41F28832934201D913
:1040C4000323ABE0574B1B6A03F00203002BEED033
:1040D40014E0FCF765FD38610AE0FCF761FD024677
:1040E4003B69D31A41F28832934201D9032395E004
:1040F4004C4B1B6A03F00203002BEED1FB7D012B1A
:1041040005D1484BDB69474A23F08053D3617B6870
:10411400DB69002B00F08180424B5B6803F00C03E9
:10412400082B61D07B68DB69022B46D13F4B002210
:104134001A60FCF735FD386108E0FCF731FD0246F2
:104144003B69D31A022B01D9032367E0354B1B6863
:1041540003F00073002BF0D17B681B6AB3F5803F3A
:1041640008D1304B5B6823F400327B689B682D498F
:1041740013434B602B4B5B6823F474127B68196AFE
:104184007B685B6A0B43274913434B60274B01222F
:104194001A60FCF705FD386108E0FCF701FD0246F2
:1041A4003B69D31A022B01D9032337E01D4B1B684B
:1041B40003F00073002BF0D02FE01C4B00221A6098
:1041C400FCF7EEFC386108E0FCF7EAFC02463B69C8
:1041D400D31A022B01D9032320E0124B1B6803F0EE
:1041E4000073002BF0D118E07B68DB69012B01D14F
:1041F400012313E00B4B5B68FB60FB6803F4803224
:104204007B681B6A9A4206D1FB6803F470127B68D0
:104214005B6A9A4201D0012300E000231846183754
:10422400BD4680BD00100240007000406000424264
:1042340080B584B000AF786039607B68002B01D111
:104244000123D0E06A4B1B6803F007033A689A42E3
:1042540010D9674B1B6823F0070265493B68134379
:104264000B60634B1B6803F007033A689A4201D062
:104274000123B8E07B681B6803F00203002B20D005
:104284007B681B6803F00403002B05D0594B5B6863
:10429400584A43F4E06353607B681B6803F00803E7
:1042A400002B05D0534B5B68524A43F46053536070
:1042B400504B5B6823F0F0027B689B684D491343C5
:1042C4004B607B681B6803F00103002B40D07B68C4
:1042D4005B68012B07D1474B1B6803F40033002BA9
:1042E40015D101237FE07B685B68022B07D1414B2A
:1042F4001B6803F00073002B09D1012373E03D4BCD
:104304001B6803F00203002B01D101236BE0394B3E
:104314005B6823F003027B685B68364913434B6098
:10432400FCF73EFCF8600AE0FCF73AFC0246FB6846
:10433400D31A41F28832934201D9032353E02D4B1F
:104344005B6803F00C027B685B689B009A42EBD1CC
:10435400274B1B6803F007033A689A4210D2244B98
:104364001B6823F0070222493B6813430B60204B70
:104374001B6803F007033A689A4201D0012332E034
:104384007B681B6803F00403002B08D0194B5B689F
:1043940023F4E0627B68DB68164913434B607B6857
:1043A4001B6803F00803002B09D0124B5B6823F44D
:1043B40060527B681B69DB000E4913434B6000F0BD
:1043C40021F802460B4B5B681B0903F00F030A49F3
:1043D400CB5C22FA03F3094A1360094B1B681846A5
:1043E400FCF79CFB002318461037BD4680BD00BF78
:1043F4000020024000100240384D00080800002050
:104404000C00002080B487B000AF0023FB600023C1
:10441400BB6000237B6100237B6000233B611E4B58
:104424005B68FB60FB6803F00C03042B02D0082BD1
:1044340003D027E0194B3B6127E0FB689B0C03F09A
:104444000F03174AD35C7B60FB6803F48033002BB3
:1044540010D0114B5B685B0C03F00103114AD35C71
:10446400BB607B680D4A02FB03F2BB68B2FBF3F34B
:104474007B6104E07B680C4A02FB03F37B617B698C
:104484003B6102E0054B3B6100BF3B6918461C37AA
:10449400BD4680BC704700BF0010024000127A0085
:1044A400504D0008604D000800093D0080B400AF85
:1044B400024B1B681846BD4680BC704708000020AC
:1044C40080B500AFFFF7F2FF0246054B5B681B0A9D
:1044D40003F007030349CB5C22FA03F3184680BDBB
:1044E40000100240484D000880B485B000AF7860E9
:1044F4000A4B1B680A4AA2FB03235B0A7A6802FB85
:1045040003F3FB6000BFFB685A1EFA60002BF9D16D
:1045140000BF00BF1437BD4680BC704708000020B0
:10452400D34D621070B500260C4D0D4C641BA410C5
:10453400A64209D100F022F800260A4D0A4C641B59
:10454400A410A64205D170BD55F8043B9847013626
:10455400EEE755F8043B98470136F2E7644D00084E
:10456400644D0008644D0008684D00080346024489
:10457400934200D1704703F8011BF9E7F8B500BF77
:10458400F8BC08BC9E467047F8B500BFF8BC08BC30
:044594009E46704788
:104598004F4C454420696E69742073756363657375
:1045A80073210000796168626F6F6D20210000003F
:1045B80054686973206973206120444D412B493246
:1045C800632100000000000000000000000000005F
:1045D8000000000000000000001000100010001093
:1045E8000010001000000010000000000028002843
:1045F800002800000000000000000000000000008B
:1046080000240024007C00240048007C0048004866
:104618000000000000380054005000380014005416
:1046280000540038001000000020005400580030EA
:1046380000280054001400080000000000100028A2
:104648000028001000340048004800340000000032
:104658000010001000100000000000000000000022
:1046680000000000000800100020002000200020AA
:10467800002000200010000800200010000800089A
:10468800000800080008000800100020001000388A
:1046980000100028000000000000000000000000DA
:1046A8000000000000100010007C00100010000046
:1046B80000000000000000000000000000000000F2
:1046C80000000010001000100000000000000000B2
:1046D800000000380000000000000000000000009A
:1046E80000000000000000000000001000000000B2
:1046F8000008000800100010001000100020002022
:104708000000000000380044004400540044004405
:104718000044003800000000001000300050001075
:1047280000100010001000100000000000380044C5
:1047380000440004000800100020007C0000000075
:104748000038004400040018000400040044003845
:104758000000000000080018002800280048007C1D
:104768000008000800000000007C004000400078BD
:104778000004000400440038000000000038004431
:104788000040007800440044004400380000000065
:10479800007C000400080010001000200020002009
:1047A8000000000000380044004400380044004481
:1047B8000044003800000000003800440044004471
:1047C800003C000400440038000000000000000025
:1047D80000100000000000000000001000000000B1
:1047E80000000000000000100000000000000010A1
:1047F8000010001000000000000C003000400030E5
:10480800000C000000000000000000000000007C18
:104818000000007C00000000000000000000000014
:10482800006000180004001800600000000000008C
:1048380000380044000400080010001000000010B8
:104848000000000000380044004C0054005C0040A8
:104858000040003800000000001000280028002850
:104868000028007C00440044000000000078004458
:104878000044007800440044004400780000000030
:104888000038004400400040004000400044003828
:104898000000000000700048004400440044004448
:1048A8000048007000000000007C00400040007CD0
:1048B800004000400040007C00000000007C0040F8
:1048C8000040007800400040004000400000000028
:1048D8000038004400400040005C004400440038B8
:1048E80000000000004400440044007C00440044F0
:1048F80000440044000000000038001000100010C0
:10490800001000100010003800000000000400042F
:104918000004000400040004004400380000000003
:10492800004400480050006000500048004800441F
:1049380000000000004000400040004000400040EF
:104948000040007C000000000044006C006C005433
:104958000044004400440044000000000044006497
:10496800006400540054004C004C00440000000057
:104978000038004400440044004400440044003827
:104988000000000000780044004400440078004023
:10499800004000400000000000380044004400448B
:1049A800004400440054003800040000007800442B
:1049B800004400440078004800480044000000001B
:1049C800003800440040003000080004004400386B
:1049D80000000000007C0010001000100010001003
:1049E800001000100000000000440044004400448F
:1049F8000044004400440038000000000044004423
:104A080000440028002800280010001000000000C2
:104A180000440044005400540054006C002800284E
:104A280000000000004400280028001000100028A2
:104A3800002800440000000000440044002800282A
:104A4800001000100010001000000000007C00049E
:104A580000080010001000200040007C000000004A
:104A680000180010001000100010001000100010B6
:104A78000010001800200020001000100010001086
:104A880000080008000000000030001000100010AE
:104A98000010001000100010001000300010002856
:104AA8000028004400000000000000000000000092
:104AB80000000000000000000000000000000000EE
:104AC80000FE0000002000100000000000000000B0
:104AD8000000000000000000000000000038004452
:104AE800003C0044004C003400000000004000403E
:104AF80000580064004400440064005800000000AE
:104B08000000000000380044004000400044003825
:104B180000000000000400040034004C004400447D
:104B2800004C003400000000000000000038004481
:104B3800007C00400044003800000000000C001019
:104B4800007C001000100010001000100000000091
:104B5800000000000034004C00440044004C0034C5
:104B680000040078004000400058006400440044FD
:104B78000044004400000000001000000070001015
:104B880000100010001000100000000000100000CD
:104B9800007000100010001000100010001000E05D
:104BA80000400040004800500060005000480044A9
:104BB800000000000070001000100010001000102D
:104BC80000100010000000000000000000780054F1
:104BD800005400540054005400000000000000007D
:104BE80000580064004400440044004400000000F1
:104BF800000000000038004400440044004400382D
:104C08000000000000000000005800640044004458
:104C18000064005800400040000000000034004CD0
:104C280000440044004C003400040004000000006C
:104C380000580064004000400040004000000000B0
:104C4800000000000038004400300008004400382C
:104C58000000000000200020007800200020002034
:104C6800002000180000000000000000004400447C
:104C780000440044004C0034000000000000000024
:104C8800004400440028002800280010000000000C
:104C980000000000005400540054006C0028002854
:104CA8000000000000000000004400280010001070
:104CB80000280044000000000000000000440044F8
:104CC80000280028001000100010006000000000FC
:104CD800007C0008001000200040007C000000005C
:104CE8000018001000100010002000200010001014
:104CF8000010001800100010001000100010001024
:104D080000100010001000100030001000100010FB
:104D1800000800080010001000100030000000001B
:104D280000000074004C00000000000000000000BB
:104D38000000000000000000010203040607080943
:104D48000000000001020304020304050607080925
:0C4D58000A0B0C0D0E0F101001020000E1
:044D64000902000838
:044D6800E501000859
:104D6C00070A0000CC4500080024F40010000000E5
:044D7C000100000032
:0400000508000AA93C
:00000001FF
