:020000040800F2
:1000000000000120390F00088D0C0008930C000837
:10001000990C00089F0C0008A50C000800000000C7
:10002000000000000000000000000000AB0C000811
:10003000B70C000800000000C30C0008CF0C00083B
:10004000810F0008810F0008810F0008810F000850
:10005000810F0008810F0008810F0008810F000840
:10006000810F0008810F0008810F0008810F000830
:10007000810F0008810F0008810F0008810F000820
:10008000810F0008810F0008810F0008810F000810
:10009000810F0008810F0008810F0008810F000800
:1000A000810F0008810F0008810F0008810F0008F0
:1000B000810F0008810F0008810F0008810F0008E0
:1000C000810F0008810F0008810F0008810F0008D0
:1000D000810F0008DD0C0008810F0008810F000867
:1000E000810F0008810F0008810F0008810F0008B0
:1000F000810F0008810F0008810F0008810F0008A0
:10010000810F0008810F0008810F0008810F00088F
:10011000810F0008810F0008810F0008810F00087F
:10012000810F0008810F0008810F0008810F00086F
:1001300000000000000000000000000000000000BF
:1001400000000000000000000000000000000000AF
:10015000000000000000000000000000000000009F
:10016000000000000000000000000000000000008F
:10017000000000000000000000000000000000007F
:10018000000000000000000000000000000000006F
:10019000000000000000000000000000000000005F
:1001A000000000000000000000000000000000004F
:1001B000000000000000000000000000000000003F
:1001C000000000000000000000000000000000002F
:1001D000000000000000000000000000000000001F
:0401E0005FF8E0F1F3
:1001E40010B5054C237833B9044B13B10448AFF36D
:1001F40000800123237010BD900000200000000047
:100204005047000808B5034B1BB103490348AFF33B
:10021400008008BD00000000940000205047000842
:1002240080B500AF0821054801F014FB0346002BFC
:1002340001D1012300E00023184680BD00200140C5
:1002440080B500AF1021054801F004FB0346002BE4
:1002540001D1012300E00023184680BD00200140A5
:1002640080B500AF2021054801F0F4FA0346002BC5
:1002740001D1012300E00023184680BD0020014085
:1002840080B582B000AF0346FB71FFF7C9FF034698
:10029400012B0ED1114B1B881A46FB7901335B00ED
:1002A4009A420CDA0D4B1B8801339AB20B4B1A801D
:1002B40005E00A4B00221A80094B00221A80074BE2
:1002C4001B88022B04D1064B01221A80012300E073
:1002D400002318460837BD4680BD00BFB200002089
:1002E400AC00002080B582B000AF0346FB71FFF77D
:1002F400A7FF0346012B0ED1114B1B881A46FB792D
:1003040001335B009A420CDA0D4B1B8801339AB21D
:100314000B4B1A8005E00A4B00221A80094B00227D
:100324001A80074B1B88022B04D1064B01221A802A
:10033400012300E0002318460837BD4680BD00BFF6
:10034400B4000020AE00002080B582B000AF0346A8
:10035400FB71FFF785FF0346012B0ED1114B1B8860
:100364001A46FB7901335B009A420CDA0D4B1B8869
:1003740001339AB20B4B1A8005E00A4B00221A8013
:10038400094B00221A80074B1B88022B04D1064B11
:1003940001221A80012300E0002318460837BD46D5
:1003A40080BD00BFB6000020B000002080B582B040
:1003B40000AF7860391D4FF6FF730122034802F045
:1003C400B1F97B6818460837BD4680BD5811002036
:1003D40080B500AF01220349034802F026FA00BFAA
:1003E40080BD00BFB80000205811002080B582B045
:1003F40000AF786001220749074802F016FA4FF669
:10040400FF7301220349044802F08CF900BF083746
:10041400BD4680BDB80000205811002080B500AF53
:100424004FF4967000F00EFE00F05AF803461A4698
:10043400014B1A8000BF80BD0000002080B586B04B
:1004440002AF0346FB71FB79FB730023BB7307F117
:100454000E0207F10F014FF47A730093012304484D
:1004640001F0BAFEBB7B18461037BD4680BD00BF05
:100474000011002080B582B000AF0023FB71002280
:100484004FF480510A4801F0FCF90520FFF7D6FF2C
:10049400FF20FFF7D3FF0346FB7101224FF4805185
:1004A400034801F0EEF9FB7918460837BD4680BDD4
:1004B400000C014080B500AF00224FF48051074882
:1004C40001F0DFF90620FFF7B9FF01224FF4805154
:1004D400024801F0D6F900BF80BD00BF000C014006
:1004E40080B582B000AF0023FB8000224FF480511E
:1004F400164801F0C6F99020FFF7A0FF0020FFF78F
:100504009DFF0020FFF79AFF0020FFF797FFFF20D1
:10051400FFF794FF03461B021AB2B7F906301343E0
:100524001BB2FB80FF20FFF789FF03469AB2FB88CA
:100534001343FB8001224FF48051044801F0A1F9D8
:10054400FB8818460837BD4680BD00BF000C01403B
:1005540090B587B000AFF860B9601346FB80002205
:100564004FF48051194801F08CF90320FFF766FF1E
:10057400BB681B0CDBB21846FFF760FFBB681B0AA5
:10058400DBB21846FFF75AFFBB68DBB21846FFF729
:1005940055FF0023FB820AE0FB8AFA68D418FF2087
:1005A400FFF74CFF03462370FB8A0133FB82FA8A70
:1005B400FB889A42F0D301224FF48051034801F0A2
:1005C40060F900BF1C37BD4690BD00BF000C014060
:1005D40080B586B000AFF860B9601346FB80FFF7C2
:1005E40069FF00224FF48051194801F04AF90220B2
:1005F400FFF724FFBB681B0CDBB21846FFF71EFF96
:10060400BB681B0ADBB21846FFF718FFBB68DBB2F6
:100614001846FFF713FF0023FB8209E0FB8AFA6800
:1006240013441B781846FFF709FFFB8A0133FB824A
:10063400FA8AFB889A42F1D301224FF4805104488C
:1006440001F01FF900F0F8F800BF1837BD4680BD6F
:10065400000C014080B586B000AFF860B960134665
:10066400FB80BB689BB2DBB29BB2C3F58073FB8299
:10067400FA88FB8A9A4201D8FB88FB82FB8A1A46D5
:10068400B968F868FFF7A4FFFA88FB8A9A4216D083
:10069400FB8AFA681344FB60FB8ABA681344BB60A4
:1006A400FA88FB8AD31AFB80FB88B3F5807F03D9D1
:1006B4004FF48073FB82E1E7FB88FB82DEE700BF37
:1006C40000BF1837BD4680BD80B588B000AFF86064
:1006D400B9601346FB80BB681B0BFB61BB689BB214
:1006E400C3F30B037B837B8BC3F580533B83FA8873
:1006F4003B8B9A4201D8FB883B83FB691B034FF475
:10070400805219463148FFF723FF0023FB8209E09A
:100714007A8BFB8A13442D4AD35CFF2B07D1FB8AC7
:100724000133FB82FA8A3B8B9A42F1D300E000BF8B
:10073400FA8A3B8B9A421ED2F86900F049F80023EA
:10074400FB820BE0FB8AFA681A44F98A7B8B0B4420
:1007540011781E4AD154FB8A0133FB82FA8A3B8BFF
:100764009A42EFD3FB691B034FF480521946174892
:10077400FFF770FF05E03B8B1A46B968F868FFF78E
:1007840069FFFA883B8B9A421BD0FB690133FB61FA
:1007940000237B833B8BFA681344FB603B8BBA6872
:1007A4001344BB60FA883B8BD31AFB80FB88B3F5F8
:1007B400805F03D94FF480533B839EE7FB883B83E0
:1007C4009BE700BF00BF2037BD4680BDC8000020A6
:1007D40080B582B000AF78607B681B037B60FFF755
:1007E40069FE00F029F800224FF48051114801F00D
:1007F40048F82020FFF722FE7B681B0CDBB218466A
:10080400FFF71CFE7B681B0ADBB21846FFF716FED7
:100814007B68DBB21846FFF711FE01224FF48051CA
:10082400044801F02EF800F007F800BF0837BD4671
:1008340080BD00BF000C014080B500AF00BFFFF7D2
:1008440019FE034603F00103012BF8D000BF00BFDB
:1008540080BD000080B500AF0020FFF7B9FF1A2269
:1008640000210C48FFF730FF322200210A48FFF72D
:100874006FFE1A220749084802F05CFE0346002B6B
:1008840006D10549054802F0A7FD054802F02AFEF5
:1008940000BF80BD04000020CC1000206847000881
:1008A4007447000880B500AFFFF792FDFFF7B6FD6F
:1008B400084B1B884EF61672934203D0064802F08A
:1008C4008BFDFBE7054802F00DFEFFF7C3FF00BFF9
:1008D40080BD00BF00000020B4470008E4470008C2
:1008E40080B500AF0120FFF7CBFC0346002B1ED0E0
:1008F4000520FFF76DFF1A220021264802F064FD4F
:10090400254B1B781A462549224802F0F3FD1A228A
:100914004FF4A0411F48FFF7D7FE1E49204802F0BC
:100924005BFD1D4B1B780133DAB21B4B1A7001209F
:10093400FFF7D8FC0346002B1DD0322200211948B2
:1009440002F042FD32224FF4A0411648FFF700FEA8
:100954001A221049134802F0EDFD0346002B07D17B
:100964001049114802F038FD104802F0BBFD02E0C6
:100974000F4802F0B7FD0120FFF7E6FC0346002B09
:1009840005D00520FFF724FF0A4802F025FD00BF2B
:1009940080BD00BF04000020B9000020F447000817
:1009A40008480008CC1000202448000838480008F3
:1009B40078480008B848000880B588B000AF07F14F
:1009C400100300221A605A609A60DA60194B9B691E
:1009D400184A43F008039361164B9B6903F008031C
:1009E400FB60FB68134B9B69124A43F48073936169
:1009F400104B9B6903F48073BB60BB680D4B9B6910
:100A04000C4A43F0040393610A4B9B6903F004030B
:100A14007B607B6838233B6100237B610023BB61DF
:100A240007F110031946044800F080FD00BF203789
:100A3400BD4680BD001002400020014080B500AFDB
:100A440000F09EFA00F00BF8FFF7B6FF00F052F842
:100A540000F0F2F9FFF726FFFFF742FFFCE780B54D
:100A640090B000AF07F1180328220021184602F0C5
:100A7400ABFC3B1D00221A605A609A60DA601A616E
:100A84000123BB614FF48033FB6100233B620123EC
:100A9400BB6202237B634FF48033BB634FF4E013E8
:100AA400FB6307F11803184600F004FF0346002B0C
:100AB40001D000F019F80F237B600223BB600023F0
:100AC400FB604FF480633B6100237B613B1D02218B
:100AD400184601F06FF90346002B01D000F004F82A
:100AE40000BF4037BD4680BD80B400AF72B600BFC2
:100AF400FEE7000080B500AF174B184A1A60164B8A
:100B04004FF482725A60144B00229A60124B0022F6
:100B1400DA60114B00221A610F4B00225A610E4B0E
:100B24004FF400729A610C4B0022DA610A4B0022E6
:100B34001A62094B00225A62074B00229A62064B42
:100B44000A22DA62044801F0C3FA0346002B01D0FA
:100B5400FFF7CAFF00BF80BD00110020003800402D
:100B640080B588B000AF786007F1100300221A60E6
:100B74005A609A60DA607B681B68274A934246D1C0
:100B8400264BDB69254A43F48043D361234BDB695D
:100B940003F48043FB60FB68204B9B691F4A43F0CE
:100BA400080393611D4B9B6903F00803BB60BB689A
:100BB4004FF420433B6102237B610323FB6107F174
:100BC40010031946164800F0B1FC4FF480433B6112
:100BD40000237B610023BB6107F110031946104811
:100BE40000F0A4FC00224FF480510D4800F049FEAF
:100BF4004FF480533B6101237B610023BB610223DB
:100C0400FB6107F110031946054800F08FFC00BF93
:100C14002037BD4680BD00BF0038004000100240B0
:100C2400000C014080B485B000AF154B9B69144A99
:100C340043F001039361124B9B6903F00103BB6012
:100C4400BB680F4BDB690E4A43F08053D3610C4BF6
:100C5400DB6903F080537B607B680A4B5B68FB6055
:100C6400FB6823F0E063FB60FB6843F00073FB6008
:100C7400044AFB68536000BF1437BD4680BC70470C
:100C8400001002400000014080B400AFFEE780B4D1
:100C940000AFFEE780B400AFFEE780B400AFFEE72C
:100CA40080B400AFFEE780B400AF00BFBD4680BC97
:100CB400704780B400AF00BFBD4680BC704780B4AD
:100CC40000AF00BFBD4680BC704780B500AF00F0E8
:100CD4009DF900BF80BD000080B500AF024801F05F
:100CE400C9FD00BF80BD00BF5811002080B586B08B
:100CF40000AFF860B9607A6000237B610AE0AFF36B
:100D040000800146BB685A1CBA60CAB21A707B697B
:100D140001337B617A697B689A42F0DB7B68184611
:100D24001837BD4680BD80B586B000AFF860B960A5
:100D34007A6000237B6109E0BB685A1CBA601B78A7
:100D44001846FFF733FB7B6901337B617A697B6863
:100D54009A42F1DB7B6818461837BD4680BD80B4E3
:100D640083B000AF78604FF0FF3318460C37BD46B0
:100D740080BC704780B483B000AF786039603B6852
:100D84004FF400525A60002318460C37BD4680BC0D
:100D9400704780B483B000AF7860012318460C37E5
:100DA400BD4680BC704780B485B000AFF860B960C0
:100DB4007A60002318461437BD4680BC7047000093
:100DC40080B586B000AF7860144A154BD31A7B61A6
:100DD4007B693B61134B1B68002B02D1114B124AF8
:100DE4001A60104B1A687B6813443A699A4207D216
:100DF40002F0C0FA03460C221A604FF0FF3309E0F8
:100E0400084B1B68FB60074B1A687B681344054A50
:100E14001360FB6818461837BD4680BD00000120EA
:100E240000040000BC000020B811002080B400AF12
:100E340000BFBD4680BC704780B500AF114B124A5D
:100E44001A60104B4FF4E1325A600E4B00229A6044
:100E54000C4B0022DA600B4B00221A61094B0C2266
:100E64005A61084B00229A61064B0022DA61054858
:100E740001F008FC0346002B01D0FFF735FE00BF4C
:100E840080BD00BF581100200038014080B588B0F3
:100E940000AF786007F1100300221A605A609A606C
:100EA400DA607B681B68204A934239D11F4B9B69E7
:100EB4001E4A43F4804393611C4B9B6903F48043B3
:100EC400FB60FB68194B9B69184A43F00403936168
:100ED400164B9B6903F00403BB60BB684FF40073BB
:100EE4003B6102237B610323FB6107F11003194675
:100EF4000F4800F01BFB4FF480633B6100237B61D0
:100F04000023BB6107F110031946094800F00EFBEA
:100F140000220521252000F090F9252000F0A9F9F0
:100F240000BF2037BD4680BD00380140001002409C
:100F340000080140FFF77AFF0B480C490C4A0023D4
:100F440002E0D458C4500433C4188C42F9D3094A7B
:100F5400094C002301E013600432A242FBD302F0E7
:100F64000FFAFFF76BFD704700000020900000208F
:100F74009449000890000020B4110020FEE700000E
:100F840080B500AF084B1B68074A43F01003136099
:100F9400032000F047F90F2000F008F8FFF742FEA5
:100FA4000023184680BD00BF0020024080B582B0F7
:100FB40000AF7860124B1A68124B1B7819464FF435
:100FC4007A73B3FBF1F3B2FBF3F3184600F05FF965
:100FD4000346002B01D001230EE07B680F2B0AD8B7
:100FE400002279684FF0FF3000F027F9064A7B6849
:100FF4001360002300E0012318460837BD4680BD76
:1010040020000020280000202400002080B400AF2D
:10101400054B1B781A46054B1B681344034A13609F
:1010240000BFBD4680BC704728000020A0110020EE
:1010340080B400AF024B1B681846BD4680BC7047A5
:10104400A011002080B584B000AF7860FFF7F0FFF6
:10105400B8607B68FB60FB68B3F1FF3F05D00A4BC7
:101064001B781A46FB681344FB6000BFFFF7E0FFE0
:101074000246BB68D31AFA689A42F7D800BF00BF89
:101084001037BD4680BD00BF2800002080B485B065
:1010940000AF78607B6803F00703FB600C4BDB68F0
:1010A400BB60BA684FF6FF031340BB60FB681A02CB
:1010B400BB68134343F0BF6343F40033BB60044A8B
:1010C400BB68D36000BF1437BD4680BC704700BF07
:1010D40000ED00E080B400AF044BDB681B0A03F0B2
:1010E40007031846BD4680BC704700BF00ED00E012
:1010F40080B483B000AF0346FB7197F90730002B2F
:101104000BDBFB7903F01F02064997F907305B09F3
:10111400012000FA02F241F8232000BF0C37BD463B
:1011240080BC704700E100E080B483B000AF0346A8
:101134003960FB7197F90730002B0ADB3B68DAB2A0
:101144000C4997F907301201D2B20B4483F80023FB
:101154000AE03B68DAB20849FB7903F00F03043B69
:101164001201D2B20B441A7600BF0C37BD4680BCC4
:10117400704700BF00E100E000ED00E080B489B0FA
:1011840000AFF860B9607A60FB6803F00703FB61A5
:10119400FB69C3F10703042B28BF0423BB61FB696C
:1011A4000433062B02D9FB69033B00E000237B6177
:1011B4004FF0FF32BB6902FA03F3DA43BB681A400B
:1011C4007B699A404FF0FF317B6901FA03F3D943FD
:1011D4007B680B40134318462437BD4680BC7047D8
:1011E40080B582B000AF78607B68013BB3F1807F4B
:1011F40001D301230FE00A4A7B68013B53600F21AE
:101204004FF0FF30FFF790FF054B00229A60044B2C
:1012140007221A60002318460837BD4680BD00BF68
:1012240010E000E080B582B000AF78607868FFF726
:101234002DFF00BF0837BD4680BD80B586B000AF26
:101244000346B9607A60FB7300237B61FFF742FFBA
:1012540078617A68B9687869FFF790FF024697F970
:101264000F3011461846FFF75FFF00BF1837BD4621
:1012740080BD80B582B000AF0346FB7197F907309B
:101284001846FFF735FF00BF0837BD4680BD80B55F
:1012940082B000AF78607868FFF7A2FF0346184673
:1012A4000837BD4680BD80B485B000AF78600023A8
:1012B400FB737B6893F82130DBB2022B08D07B6888
:1012C40004229A637B68002283F82020012320E013
:1012D4007B681B681A687B681B6822F00E021A6020
:1012E4007B681B681A687B681B6822F001021A601D
:1012F4007B681A6C7B68DB6B012101FA02F25A608D
:101304007B68012283F821207B68002283F8202057
:10131400FB7B18461437BD4680BC704780B584B04B
:1013240000AF78600023FB737B6893F82130DBB255
:10133400022B05D07B6804229A630123FB73D6E059
:101344007B681B681A687B681B6822F00E021A60AF
:101354007B681B681A687B681B6822F001021A60AC
:101364007B681B681A46644B9A4258D97B681B6891
:10137400624A93424FD07B681B68614A934248D0CB
:101384007B681B685F4A934240D07B681B685E4A57
:10139400934238D07B681B685C4A934230D07B68A8
:1013A4001B685B4A934228D07B681B68524A93426D
:1013B40020D07B681B68574A934219D07B681B680E
:1013C400554A934212D07B681B68544A93420AD010
:1013D4007B681B68524A934202D14FF480531BE04E
:1013E4004FF4803318E04FF4807315E0102313E0BA
:1013F400012311E04FF080730EE04FF480130BE0F3
:101404004FF4803308E04FF4805305E04FF48073C9
:1014140002E0102300E00123424A536057E07B6856
:101424001B68364A93424FD07B681B68344A934208
:1014340048D07B681B68334A934240D07B681B6862
:10144400314A934238D07B681B68304A934230D08B
:101454007B681B682E4A934228D07B681B68264A07
:10146400934220D07B681B682A4A934219D07B6838
:101474001B68294A934212D07B681B68274A93420F
:101484000AD07B681B68264A934202D14FF48053EA
:101494001BE04FF4803318E04FF4807315E0102301
:1014A40013E0012311E04FF080730EE04FF480133A
:1014B4000BE04FF4803308E04FF4805305E04FF421
:1014C400807302E0102300E00123174A53607B6815
:1014D400012283F821207B68002283F820207B6886
:1014E4005B6B002B03D07B685B6B78689847FB7B56
:1014F40018461037BD4680BD8000024008000240F7
:101504001C000240300002404400024058000240E7
:101514006C000240080402401C04024030040240F3
:1015240044040240000402400000024080B48BB036
:1015340000AF7860396000237B6200233B6279E16D
:1015440001227B6A02FA03F3FB613B681B68FA69B8
:101554001340BB61BA69FB699A4240F068813B68F9
:101564005B68A04A93425ED09E4A934275D89E4AD5
:10157400934258D09C4A93426FD89C4A934252D08B
:101584009A4A934269D89A4A93424CD0984A9342D1
:1015940063D8984A934246D0964A93425DD8122B18
:1015A4002AD8122B59D801A252F823F02B1600087E
:1015B4000516000817160008591600085F160008DB
:1015C4005F1600085F1600085F1600085F16000823
:1015D4005F1600085F1600085F1600085F16000813
:1015E4005F1600085F1600085F1600085F16000803
:1015F4000D160008211600087F4A934213D02CE0F0
:101604003B68DB683B6229E03B68DB6804333B6290
:1016140024E03B68DB6808333B621FE03B68DB681F
:101624000C333B621AE03B689B68002B02D1042315
:101634003B6213E03B689B68012B05D108233B62A6
:101644007B68FA691A6109E008233B627B68FA69DE
:101654005A6103E000233B6200E000BFBB69FF2B3B
:1016640001D87B6801E07B6804337B61BB69FF2B95
:1016740002D87B6A9B0002E07B6A083B9B003B61CB
:101684007B691A680F213B6901FA03F3DB431A40B3
:10169400396A3B6901FA03F31A437B691A603B68B0
:1016A4005B6803F08053002B00F0C180534B9B69AF
:1016B400524A43F001039361504B9B6903F00103C9
:1016C400BB60BB684E4A7B6A9B08023352F82330E6
:1016D400FB607B6A03F003039B000F2202FA03F30F
:1016E400DB43FA681340FB607B68464A93421FD091
:1016F4007B68454A934219D07B68444A934213D08D
:101704007B68434A93420DD07B68424A934207D098
:101714007B68414A934201D105230AE0062308E08D
:10172400042306E0032304E0022302E0012300E093
:1017340000237A6A02F0030292009340FA6813438A
:10174400FB602F497B6A9B080233FA6841F8232027
:101754003B685B6803F48013002B06D02F4B9A6818
:101764002E49BB6913438B6006E02C4B9A68BB6916
:10177400DB432A4913408B603B685B6803F4001326
:10178400002B06D0254BDA682449BB691343CB6090
:1017940006E0224BDA68BB69DB4320491340CB6087
:1017A4003B685B6803F40033002B06D01B4B5A687C
:1017B4001A49BB6913434B6006E0184B5A68BB696E
:1017C400DB43164913404B603B685B6803F480338A
:1017D400002B25D0114B1A681049BB6913430B60C9
:1017E40025E000BF0000321000003110000022107C
:1017F400000021100000121000001110001002401F
:101804000000014000080140000C014000100140AC
:101814000014014000180140001C01400004014074
:101824000B4B1A68BB69DB43094913400B607B6AA5
:1018340001337B623B681A687B6A22FA03F3002B4C
:101844007FF47EAE00BF00BF2C37BD4680BC70471E
:101854000004014080B485B000AF78600B467B8003
:101864007B689A687B881340002B02D00123FB73AA
:1018740001E00023FB73FB7B18461437BD4680BC94
:10188400704780B483B000AF78600B467B8013460A
:101894007B707B78002B03D07A887B681A6103E025
:1018A4007B881A047B681A6100BF0C37BD4680BC74
:1018B4007047000080B586B000AF78607B68002B6D
:1018C40001D101236CE27B681B6803F00103002B48
:1018D40000F08780924B5B6803F00C03042B0CD060
:1018E4008F4B5B6803F00C03082B12D18C4B5B68A5
:1018F40003F48033B3F5803F0BD1894B1B6803F4A9
:101904000033002B6CD07B685B68002B68D101230B
:1019140046E27B685B68B3F5803F06D1804B1B6869
:101924007F4A43F4803313602EE07B685B68002BAE
:101934000CD17B4B1B687A4A23F480331360784BB9
:101944001B68774A23F4802313601DE07B685B687F
:10195400B3F5A02F0CD1724B1B68714A43F480235A
:1019640013606F4B1B686E4A43F4803313600BE0C3
:101974006B4B1B686A4A23F480331360684B1B6803
:10198400674A23F4802313607B685B68002B13D0C1
:10199400FFF74EFB386108E0FFF74AFB02463B695C
:1019A400D31A642B01D90323FAE15D4B1B6803F4BA
:1019B4000033002BF0D014E0FFF73AFB386108E065
:1019C400FFF736FB02463B69D31A642B01D9032384
:1019D400E6E1534B1B6803F40033002BF0D100E025
:1019E40000BF7B681B6803F00203002B63D04C4BE1
:1019F4005B6803F00C03002B0BD0494B5B6803F0CE
:101A04000C03082B1CD1464B5B6803F48033002B7A
:101A140016D1434B1B6803F00203002B05D07B68EF
:101A24001B69012B01D00123BAE13D4B1B6823F054
:101A3400F8027B685B69DB00394913430B603AE0C9
:101A44007B681B69002B20D0364B01221A60FFF7FC
:101A5400EFFA386108E0FFF7EBFA02463B69D31A64
:101A6400022B01D903239BE12D4B1B6803F00203D6
:101A7400002BF0D02A4B1B6823F0F8027B685B69CB
:101A8400DB00274913430B6015E0264B00221A6044
:101A9400FFF7CEFA386108E0FFF7CAFA02463B695D
:101AA400D31A022B01D903237AE11D4B1B6803F0DF
:101AB4000203002BF0D17B681B6803F00803002BA2
:101AC4003AD07B689B69002B19D0174B01221A600E
:101AD400FFF7AEFA386108E0FFF7AAFA02463B695D
:101AE400D31A022B01D903235AE10D4B5B6A03F08D
:101AF4000203002BF0D0012000F0CCFA1CE00A4BCA
:101B040000221A60FFF794FA38610FE0FFF790FAA9
:101B140002463B69D31A022B08D9032340E100BFD4
:101B24000010024000004242800442429E4B5B6A25
:101B340003F00203002BE9D17B681B6803F0040364
:101B4400002B00F0A6800023FB75974BDB6903F0A4
:101B54008053002B0DD1944BDB69934A43F080539F
:101B6400D361914BDB6903F08053BB60BB680123F5
:101B7400FB758E4B1B6803F48073002B18D18B4BC1
:101B84001B688A4A43F480731360FFF751FA386183
:101B940008E0FFF74DFA02463B69D31A642B01D9DA
:101BA4000323FDE0814B1B6803F48073002BF0D00A
:101BB4007B68DB68012B06D17B4B1B6A7A4A43F0B6
:101BC400010313622DE07B68DB68002B0CD1764B9C
:101BD4001B6A754A23F001031362734B1B6A724A32
:101BE40023F0040313621CE07B68DB68052B0CD133
:101BF4006D4B1B6A6C4A43F0040313626A4B1B6A05
:101C0400694A43F0010313620BE0674B1B6A664A9F
:101C140023F001031362644B1B6A634A23F0040339
:101C240013627B68DB68002B15D0FFF701FA38617B
:101C34000AE0FFF7FDF902463B69D31A41F2883204
:101C4400934201D90323ABE0574B1B6A03F0020311
:101C5400002BEED014E0FFF7EBF938610AE0FFF750
:101C6400E7F902463B69D31A41F28832934201D91B
:101C7400032395E04C4B1B6A03F00203002BEED1C7
:101C8400FB7D012B05D1484BDB69474A23F0805388
:101C9400D3617B68DB69002B00F08180424B5B6879
:101CA40003F00C03082B61D07B68DB69022B46D15F
:101CB4003F4B00221A60FFF7BBF9386108E0FFF7D9
:101CC400B7F902463B69D31A022B01D9032367E013
:101CD400354B1B6803F00073002BF0D17B681B6A43
:101CE400B3F5803F08D1304B5B6823F400327B6846
:101CF4009B682D4913434B602B4B5B6823F4741290
:101D04007B68196A7B685B6A0B43274913434B6002
:101D1400274B01221A60FFF78BF9386108E0FFF7BF
:101D240087F902463B69D31A022B01D9032337E012
:101D34001D4B1B6803F00073002BF0D02FE01C4BED
:101D440000221A60FFF774F9386108E0FFF770F9B0
:101D540002463B69D31A022B01D9032320E0124B1C
:101D64001B6803F00073002BF0D118E07B68DB697B
:101D7400012B01D1012313E00B4B5B68FB60FB6873
:101D840003F480327B681B6A9A4206D1FB6803F431
:101D940070127B685B6A9A4201D0012300E0002341
:101DA40018461837BD4680BD001002400070004040
:101DB4006000424280B584B000AF786039607B68CF
:101DC400002B01D10123D0E06A4B1B6803F0070309
:101DD4003A689A4210D9674B1B6823F00702654999
:101DE4003B6813430B60634B1B6803F007033A68BB
:101DF4009A4201D00123B8E07B681B6803F0020318
:101E0400002B20D07B681B6803F00403002B05D053
:101E1400594B5B68584A43F4E06353607B681B6822
:101E240003F00803002B05D0534B5B68524A43F47C
:101E340060535360504B5B6823F0F0027B689B68EF
:101E44004D4913434B607B681B6803F00103002B6F
:101E540040D07B685B68012B07D1474B1B6803F4B8
:101E64000033002B15D101237FE07B685B68022BD4
:101E740007D1414B1B6803F00073002B09D10123E8
:101E840073E03D4B1B6803F00203002B01D10123D7
:101E94006BE0394B5B6823F003027B685B6836496F
:101EA40013434B60FFF7C4F8F8600AE0FFF7C0F88B
:101EB4000246FB68D31A41F28832934201D90323C4
:101EC40053E02D4B5B6803F00C027B685B689B005E
:101ED4009A42EBD1274B1B6803F007033A689A42F6
:101EE40010D2244B1B6823F0070222493B6813439A
:101EF4000B60204B1B6803F007033A689A4201D039
:101F0400012332E07B681B6803F00403002B08D034
:101F1400194B5B6823F4E0627B68DB681649134362
:101F24004B607B681B6803F00803002B09D0124B3D
:101F34005B6823F460527B681B69DB000E49134322
:101F44004B6000F021F802460B4B5B681B0903F061
:101F54000F030A49CB5C22FA03F3094A1360094BC5
:101F64001B681846FFF722F8002318461037BD46B1
:101F740080BD00BF0020024000100240C848000895
:101F8400200000202400002080B487B000AF00238C
:101F9400FB600023BB6000237B6100237B60002384
:101FA4003B611E4B5B68FB60FB6803F00C03042B76
:101FB40002D0082B03D027E0194B3B6127E0FB68D4
:101FC4009B0C03F00F03174AD35C7B60FB6803F49C
:101FD4008033002B10D0114B5B685B0C03F00103C2
:101FE400114AD35CBB607B680D4A02FB03F2BB68F9
:101FF400B2FBF3F37B6104E07B680C4A02FB03F35E
:102004007B617B693B6102E0054B3B6100BF3B693F
:1020140018461C37BD4680BC704700BF0010024004
:1020240000127A00E0480008F048000800093D006A
:1020340080B400AF024B1B681846BD4680BC704795
:102044002000002080B500AFFFF7F2FF0246054BE9
:102054005B681B0A03F007030349CB5C22FA03F312
:10206400184680BD00100240D848000880B500AF73
:10207400FFF7DEFF0246054B5B68DB0A03F007034C
:102084000349CB5C22FA03F3184680BD00100240DA
:10209400D848000880B485B000AF78600A4B1B684C
:1020A4000A4AA2FB03235B0A7A6802FB03F3FB6080
:1020B40000BFFB685A1EFA60002BF9D100BF00BFB5
:1020C4001437BD4680BC704720000020D34D6210F9
:1020D40080B582B000AF78607B68002B01D101230A
:1020E40076E07B685B6A002B08D17B685B68B3F59C
:1020F400827F09D07B680022DA6105E07B680022D8
:102104001A617B6800225A617B6800229A627B68AC
:1021140093F85130DBB2002B06D17B68002283F8A0
:1021240050207868FEF71CFD7B68022283F851205A
:102134007B681B681A687B681B6822F040021A607F
:102144007B685B6803F482727B689B6803F40443D6
:102154001A437B68DB6803F400631A437B681B69DA
:1021640003F002031A437B685B6903F001031A431B
:102174007B689B6903F400731A437B68DB6903F093
:1021840038031A437B681B6A03F0800342EA0301A5
:102194007B689B6A03F400527B681B680A431A60DD
:1021A4007B689B691A0C7B681B6802F004025A6006
:1021B4007B681B68DA697B681B6822F40062DA6159
:1021C4007B6800225A657B68012283F85120002332
:1021D40018460837BD4680BD80B58CB000AFF860A6
:1021E400B9607A607B800123FB62002387F82B307F
:1021F400FB6893F85030012B01D1022398E1FB686E
:10220400012283F85020FEF713FF7862FB6893F8ED
:10221400513087F82330FB685B68FB617B887B83E4
:1022240097F82330012B0FD0FB69B3F5827F07D1D8
:10223400FB689B68002B03D197F82330042B03D051
:10224400022387F82B306DE1BB68002B05D07B6837
:10225400002B02D07B88002B03D1012387F82B307D
:1022640060E1FB6893F85130DBB2042B03D0FB68C8
:10227400052283F85120FB6800225A65FB687A68BE
:102284009A63FB687A88DA87FB687A889A87FB689E
:10229400BA681A63FB687A88DA86FB687A889A8651
:1022A400FB6800221A64FB6800225A64FB681B68FE
:1022B4001B6803F04003402B07D0FB681B681A68B7
:1022C400FB681B6842F040021A60FB68DB68B3F5E8
:1022D400006F7CD1FB685B68002B02D07B8B012BE9
:1022E4006AD1FB681B6B1A88FB681B68DA60FB68A1
:1022F4001B6B9A1CFB681A63FB68DB8E9BB2013B69
:102304009AB2FB68DA8657E0FB681B689B6803F0A7
:102314000203022B1BD1FB68DB8E9BB2002B16D071
:10232400FB6A012B13D1FB681B6B1A88FB681B68C3
:10233400DA60FB681B6B9A1CFB681A63FB68DB8E14
:102344009BB2013B9AB2FB68DA860023FB62FB680E
:102354001B689B6803F00103012B19D1FB68DB8F19
:102364009BB2002B14D0FB681B68DA68FB689B6B7C
:1023740092B21A80FB689B6B9A1CFB689A63FB6899
:10238400DB8F9BB2013B9AB2FB68DA870123FB62C5
:10239400FEF74EFE02467B6AD31ABA6B9A420BD8FA
:1023A400BB6BB3F1FF3F07D0032387F82B30FB68E7
:1023B400012283F85120B5E0FB68DB8E9BB2002B31
:1023C400A2D1FB68DB8F9BB2002B9DD180E0FB6820
:1023D4005B68002B02D07B8B012B6FD1FB681A6BDF
:1023E400FB681B680C3312781A70FB681B6B5A1C51
:1023F400FB681A63FB68DB8E9BB2013B9AB2FB68F5
:10240400DA865BE0FB681B689B6803F00203022B1F
:102414001CD1FB68DB8E9BB2002B17D0FB6A012B0F
:1024240014D1FB681A6BFB681B680C3312781A70A2
:10243400FB681B6B5A1CFB681A63FB68DB8E9BB240
:10244400013B9AB2FB68DA860023FB62FB681B68D7
:102454009B6803F00103012B19D1FB68DB8F9BB24E
:10246400002B14D0FB681B68DA68FB689B6BD2B244
:102474001A70FB689B6B5A1CFB689A63FB68DB8FC2
:102484009BB2013B9AB2FB68DA870123FB62FEF739
:10249400CFFD02467B6AD31ABA6B9A4203D8BB6B50
:1024A400B3F1FF3F02D1BB6B002B07D1032387F8A5
:1024B4002B30FB68012283F8512033E0FB68DB8E6C
:1024C4009BB2002B9ED1FB68DB8F9BB2002B99D172
:1024D4007A6AB96BF86800F0B7F80346002B06D0A7
:1024E400012387F82B30FB6820225A651AE0FB6829
:1024F4009B68002B0AD100237B61FB681B68DB68A7
:102504007B61FB681B689B687B617B69FB685B6D17
:10251400002B03D0012387F82B3003E0FB68012252
:1025240083F85120FB68002283F8502097F82B3061
:1025340018463037BD4680BD80B588B000AFF8601E
:10254400B9603B601346FB71FEF772FD0246BB6A3D
:102554009B1A3A681344FB61FEF76AFDB861394B74
:102564001B685B011B0DFA6902FB03F37B6154E0FA
:102574003B68B3F1FF3F50D0FEF75AFD0246BB69FA
:10258400D31AFA699A4202D9FB69002B3DD1FB6840
:102594001B685A68FB681B6822F0E0025A60FB68FB
:1025A4005B68B3F5827F11D1FB689B68B3F5004F7C
:1025B40004D0FB689B68B3F5806F07D1FB681B6888
:1025C4001A68FB681B6822F040021A60FB689B6A69
:1025D400B3F5005F0FD1FB681B681A68FB681B68C2
:1025E40022F400521A60FB681B681A68FB681B68B7
:1025F40042F400521A60FB68012283F85120FB6800
:10260400002283F85020032317E07B69002B01D1BB
:102614000023FB617B69013B7B61FB681B689A6853
:10262400BB681340BA689A420CBF01230023DBB293
:102634001A46FB799A429BD1002318462037BD469F
:1026440080BD00BF2000002080B586B002AFF860D6
:10265400B9607A607B680093BB6800228021F868C7
:10266400FFF76AFF0346002B07D0FB685B6D43F05E
:102674002002FB685A65032300E000231846103744
:10268400BD4680BD80B582B000AF78607B68002B0A
:1026940001D1012342E07B6893F84130DBB2002B87
:1026A40006D17B68002283F840207868FEF7EEFBB1
:1026B4007B68242283F841207B681B68DA687B6886
:1026C4001B6822F40052DA60786800F0C5FD7B686C
:1026D4001B681A697B681B6822F490421A617B6844
:1026E4001B685A697B681B6822F02A025A617B685E
:1026F4001B68DA687B681B6842F40052DA607B6806
:1027040000225A647B68202283F841207B682022BF
:1027140083F842207B6800225A6300231846083756
:10272400BD4680BD80B58AB002AFF860B9603B6039
:102734001346FB8000237B61FB6893F84130DBB2D6
:10274400202B6DD1BB68002B02D0FB88002B01D15C
:10275400012366E0FB6800225A64FB68212283F8A7
:102764004120FEF765FC7861FB68FA889A84FB686F
:10277400FA88DA84FB689B68B3F5805F08D1FB684C
:102784001B69002B04D10023FB61BB68BB6103E020
:10279400BB68FB610023BB612AE03B6800937B6953
:1027A40000228021F86800F014FB0346002B01D0BE
:1027B400032336E0FB69002B0BD1BB691B881A4647
:1027C400FB681B68C2F308025A60BB690233BB6131
:1027D40007E0FB691A78FB681B685A60FB690133E0
:1027E400FB61FB68DB8C9BB2013B9AB2FB68DA8429
:1027F400FB68DB8C9BB2002BCFD13B6800937B69D9
:1028040000224021F86800F0E4FA0346002B01D0CE
:10281400032306E0FB68202283F84120002300E024
:10282400022318462037BD4680BD80B584B000AF72
:10283400F860B9601346FB80FB6893F84230DBB262
:10284400202B12D1BB68002B02D0FB88002B01D1B6
:1028540001230BE0FB6800221A63FB881A46B9685F
:10286400F86800F024FB034600E002231846103702
:10287400BD4680BD80B5BAB000AF78607B681B6888
:102884001B68C7F8E4307B681B68DB68C7F8E03076
:102894007B681B685B69C7F8DC300023C7F8D83055
:1028A4000023C7F8D430D7F8E43003F00F03C7F897
:1028B400D830D7F8D830002B0FD1D7F8E43003F054
:1028C4002003002B09D0D7F8E03003F02003002BBD
:1028D40003D0786800F001FC5BE2D7F8D830002B15
:1028E40000F0DE80D7F8DC3003F00103002B06D1C2
:1028F400D7F8E03003F49073002B00F0D180D7F8C0
:10290400E43003F00103002B0BD0D7F8E03003F4DC
:102914008073002B05D07B685B6C43F001027B68FD
:102924005A64D7F8E43003F00403002B0BD0D7F833
:10293400DC3003F00103002B05D07B685B6C43F0B3
:1029440002027B685A64D7F8E43003F00203002BD8
:102954000BD0D7F8DC3003F00103002B05D07B68E3
:102964005B6C43F004027B685A64D7F8E43003F0EC
:102974000803002B11D0D7F8E03003F02003002B1C
:1029840005D1D7F8DC3003F00103002B05D07B68B8
:102994005B6C43F008027B685A647B685B6C002BB9
:1029A40000F0F281D7F8E43003F02003002B08D0C4
:1029B400D7F8E03003F02003002B02D0786800F051
:1029C4008CFB7B681B685B6903F04003002B14BF1E
:1029D40001230023DBB2C7F8D4307B685B6C03F0BF
:1029E4000803002B03D1D7F8D430002B4FD07868DC
:1029F40000F096FA7B681B685B6903F04003002BC8
:102A040041D07B681B681433C7F89C30D7F89C30DE
:102A140053E8003FC7F89830D7F8983023F04003C4
:102A2400C7F8D0307B681B681433D7F8D020C7F8B8
:102A3400A820C7F8A430D7F8A410D7F8A82041E8F4
:102A44000023C7F8A030D7F8A030002BD9D17B6879
:102A5400DB6B002B13D07B68DB6B7E4A5A637B688D
:102A6400DB6B1846FEF75AFC0346002B16D07B6836
:102A7400DB6B5B6B7A68D26B104698470EE0786824
:102A840000F093F90AE0786800F08FF906E07868BE
:102A940000F08BF97B6800225A6475E100BF73E192
:102AA4007B681B6B012B40F04F81D7F8E43003F0B7
:102AB4001003002B00F04881D7F8E03003F0100336
:102AC400002B00F041810023BB607B681B681B68FE
:102AD400BB607B681B685B68BB60BB687B681B680A
:102AE4005B6903F04003002B00F0B6807B68DB6B6E
:102AF4001B685B68A7F8BE30B7F8BE30002B00F047
:102B040045817B689B8DB7F8BE209A4280F03E8158
:102B14007B68B7F8BE20DA857B68DB6B9B69202B6A
:102B240000F088807B681B680C33C7F88830D7F8BE
:102B3400883053E8003FC7F88430D7F8843023F452
:102B44008073C7F8B8307B681B680C33D7F8B8209B
:102B5400C7F89420C7F89030D7F89010D7F894208D
:102B640041E80023C7F88C30D7F88C30002BD9D13A
:102B74007B681B6814337B677B6F53E8003F3B67BC
:102B84003B6F23F00103C7F8B4307B681B68143330
:102B9400D7F8B420C7F88020FB67F96FD7F88020F6
:102BA40041E80023BB67BB6F002BE1D17B681B6846
:102BB40014333B663B6E53E8003FFB65FB6D23F02B
:102BC4004003C7F8B0307B681B681433D7F8B020D3
:102BD400FA66BB66B96EFA6E41E800237B667B6ECB
:102BE400002BE3D17B68202283F842207B680022FB
:102BF4001A637B681B680C33FB64FB6C53E8003F6F
:102C0400BB64BB6C23F01003C7F8AC307B681B6853
:102C14000C33D7F8AC20BA657B65796DBA6D41E8A1
:102C240000233B653B6D002BE3D17B68DB6B1846CF
:102C3400FEF739FB7B6802225A637B689A8D7B68B6
:102C4400DB8D9BB2D31A9BB21946786800F0B6F8B4
:102C54009CE000BFE92F00087B689A8D7B68DB8DC0
:102C64009BB2D31AA7F8CE307B68DB8D9BB2002BC6
:102C740000F08E80B7F8CE30002B00F089807B689E
:102C84001B680C33BB63BB6B53E8003F7B637B6BFC
:102C940023F49073C7F8C8307B681B680C33D7F8EB
:102CA400C8207A643B64396C7A6C41E80023FB6386
:102CB400FB6B002BE3D17B681B6814337B627B6A5C
:102CC40053E8003F3B623B6A23F00103C7F8C4307A
:102CD4007B681B681433D7F8C4203A63FB62F96A33
:102CE4003A6B41E80023BB62BB6A002BE3D17B68EB
:102CF400202283F842207B6800221A637B681B68C9
:102D04000C333B613B6953E8003FFB60FB6823F0F5
:102D14001003C7F8C0307B681B680C33D7F8C02099
:102D2400FA61BB61B969FA6941E800237B617B6997
:102D3400002BE3D17B6802225A63B7F8CE301946E0
:102D4400786800F03BF823E0D7F8E43003F0800320
:102D5400002B09D0D7F8E03003F08003002B03D018
:102D6400786800F053F914E0D7F8E43003F0400336
:102D7400002B0ED0D7F8E03003F04003002B08D02E
:102D8400786800F092F904E000BF02E000BF00E0C0
:102D940000BFE837BD4680BD80B483B000AF786023
:102DA40000BF0C37BD4680BC704780B483B000AF11
:102DB400786000BF0C37BD4680BC704780B483B0D8
:102DC40000AF78600B467B8000BF0C37BD4680BCEB
:102DD400704780B590B000AFF860B9603B601346AF
:102DE400FB7150E0BB6CB3F1FF3F4CD0BB6C002BCC
:102DF40007D0FEF71DF902463B68D31ABA6C9A4213
:102E040041D2FB681B680C33BB62BB6A53E8003FCA
:102E14007B627B6A23F4D073FB63FB681B680C330F
:102E2400FA6B7A633B63396B7A6B41E80023FB628C
:102E3400FB6A002BE5D1FB681B6814337B617B695B
:102E440053E8003F3B613B6923F00103BB63FB682C
:102E54001B681433BA6B3A62FB61F9693A6A41E858
:102E64000023BB61BB69002BE5D1FB68202283F8FA
:102E74004120FB68202283F84220FB68002283F86B
:102E8400402003230FE0FB681B681A68BB681340EB
:102E9400BA689A420CBF01230023DBB21A46FB79BD
:102EA4009A429FD0002318464037BD4680BD80B467
:102EB40085B000AFF860B9601346FB80FB68BA6860
:102EC4009A62FB68FA889A85FB68FA88DA85FB6857
:102ED40000225A64FB68222283F84220FB681B69A3
:102EE400002B07D0FB681B68DA68FB681B6842F498
:102EF4008072DA60FB681B685A69FB681B6842F0E1
:102F040001025A61FB681B68DA68FB681B6842F0BF
:102F14002002DA60002318461437BD4680BC70478F
:102F240080B495B000AF78607B681B680C337B631A
:102F34007B6B53E8003F3B633B6B23F49073FB6470
:102F44007B681B680C33FA6C3A64FB63F96B3A6C6C
:102F540041E80023BB63BB6B002BE5D17B681B6896
:102F640014333B623B6A53E8003FFB61FB6923F087
:102F74000103BB647B681B681433BA6CFA62BB62DE
:102F8400B96AFA6A41E800237B627B6A002BE5D1C7
:102F94007B681B6B012B19D17B681B680C33FB60AE
:102FA400FB6853E8003FBB60BB6823F010037B64FD
:102FB4007B681B680C337A6CBA617B617969BA6986
:102FC40041E800233B613B69002BE5D17B6820226B
:102FD40083F842207B6800221A6300BF5437BD4641
:102FE40080BC704780B584B000AF78607B685B6A52
:102FF400FB60FB680022DA85FB680022DA84F8684B
:10300400FFF7D3FE00BF1037BD4680BD80B485B046
:1030140000AF78607B6893F84130DBB2212B3ED15E
:103024007B689B68B3F5805F14D17B681B69002BB8
:1030340010D17B681B6AFB60FB681B881A467B689F
:103044001B68C2F308025A607B681B6A9A1C7B687F
:103054001A6208E07B681B6A591C7A6811621A7844
:103064007B681B685A607B68DB8C9BB2013B9BB21C
:103074007A681946D184002B0FD17B681B68DA6803
:103084007B681B6822F08002DA607B681B68DA6860
:103094007B681B6842F04002DA60002300E00223F0
:1030A40018461437BD4680BC704780B582B000AF67
:1030B40078607B681B68DA687B681B6822F04002D2
:1030C400DA607B68202283F841207868FFF764FE89
:1030D400002318460837BD4680BD80B58CB000AFCC
:1030E40078607B6893F84230DBB2222B40F0AE80EC
:1030F4007B689B68B3F5805F17D17B681B69002BE5
:1031040013D10023FB627B689B6ABB627B681B68EC
:103114005B689BB2C3F308039AB2BB6A1A807B68EC
:103124009B6A9A1C7B689A6226E07B689B6AFB62B6
:103134000023BB627B689B68B3F5805F07D07B6824
:103144009B68002B0AD17B681B69002B06D17B6826
:103154001B685B68DAB2FB6A1A7008E07B681B685C
:103164005B68DBB203F07F03DAB2FB6A1A707B6838
:103174009B6A5A1C7B689A627B68DB8D9BB2013B1D
:103184009BB27A681946D185002B5DD17B681B6898
:10319400DA687B681B6822F02002DA607B681B68AF
:1031A400DA687B681B6822F48072DA607B681B68CB
:1031B4005A697B681B6822F001025A617B682022ED
:1031C40083F842207B6800225A637B681B6B012BC7
:1031D40035D17B6800221A637B681B680C337B61E2
:1031E4007B6953E8003F3B613B6923F010037B623A
:1031F4007B681B680C337A6A3A62FB61F9693A6A44
:1032040041E80023BB61BB69002BE5D17B681B68E7
:103214001B6803F01003102B0AD10023FB607B68AA
:103224001B681B68FB607B681B685B68FB60FB6852
:103234007B689B8D19467868FFF7C0FD02E07868CB
:10324400FDF7D4F8002302E0002300E0022318462F
:103254003037BD4680BD000080B584B000AF7860D3
:103264007B681B681B6923F440517B68DA687B68C0
:103274001B680A431A617B689A687B681B691A4356
:103284007B685B691343BB607B681B68DB6823F462
:10329400B05323F00C037A681268B9680B43D36007
:1032A4007B681B685B6923F440717B689A697B685F
:1032B4001B680A435A617B681B682C4A934203D1FA
:1032C400FEF7D4FEF86002E0FEF7BCFEF860FA6890
:1032D40013469B0013449A001A447B685B689B0066
:1032E400B2FBF3F3224AA2FB03235B091901FA6838
:1032F40013469B0013449A001A447B685B689B0046
:10330400B2FBF3F21A4BA3FB02035B09642000FB3C
:1033140003F3D31A1B013233154AA2FB03235B09BF
:1033240003F0F0031944FA6813469B0013449A000F
:103334001A447B685B689B00B2FBF3F20C4BA3FB63
:1033440002035B09642000FB03F3D31A1B0132332D
:10335400074AA2FB03235B0903F00F027B681B6887
:103364000A449A6000BF1037BD4680BD0038014052
:103374001F85EB51014B1868704700BF2C000020DB
:1033840070B500260C4D0D4C641BA410A64209D147
:1033940001F0DCF900260A4D0A4C641BA410A64275
:1033A40005D170BD55F8043B98470136EEE755F852
:1033B400043B98470136F2E78C4900088C49000821
:1033C4008C4900089049000803460244934200D106
:1033D400704703F8011BF9E70FB40A4B13B51C68D7
:1033E40024B1A36913B9204600F090FA05AB204636
:1033F400049AA168019300F0B7FD02B0BDE8104043
:1034040004B070472C00002070B50E46054618B174
:1034140083690BB900F07AFAAB69AC6813B9284632
:1034240000F074FA2C4B9C4220D16C68636EDB076D
:1034340005D4A389980502D4A06D00F005FBA389E7
:1034440019071DD52369DBB1013EA36816F8011FD6
:10345400013BA36039BB002B38DA22460A212846F7
:1034640000F07AF8013011D00A2511E01B4B9C4280
:1034740001D1AC68DAE71A4B9C4208BFEC68D5E787
:103484002146284600F0BAF80028DDD04FF0FF3579
:10349400636EDA0705D4A3899B0502D4A06D00F0FE
:1034A400D4FA284670BD002B04DAA2699A4206DCDD
:1034B4000A2904D023685A1C22601970C5E72246E1
:1034C400284600F049F80130BFD1DFE70A25236818
:1034D4005A1C22601D70DBE71849000838490008AF
:1034E400F8480008024B01461868FFF78DBF00BF7B
:1034F4002C0000200EB46FF0004100B59CB01DAB51
:1035040002900690079104910848094953F8042B46
:103514000591006802A9019300F0FEFB0022029BC2
:103524001A701CB05DF804EB03B070472C00002047
:103534000802FFFF10B56AB10139841810F8013B85
:1035440011F8012F934203D1A04201D0002BF5D1F1
:10355400981A10BD1046FCE7F8B50E461446054609
:1035640018B183690BB900F0D1F9214B9C422BD1DE
:103574006C68A369A360A3891A072FD523696BB369
:1035840023692068F6B2C01A63693746834204DCB3
:103594002146284600F026F930BBA3680130013BE0
:1035A400A36023685A1C22601E706369834204D09E
:1035B400A389DB0706D50A2E04D12146284600F04C
:1035C40011F988B93846F8BD0A4B9C4201D1AC6860
:1035D400CFE7094B9C4208BFEC68CAE7214628465E
:1035E40000F00CF80028CBD04FF0FF37EAE700BF1B
:1035F4001849000838490008F8480008324B70B5EB
:103604001D6806460C4625B1AB6913B9284600F07F
:103614007DF92E4B9C420FD16C68A389B4F90C2020
:1036240019072CD4DD0611D40923336042F040037A
:103634004FF0FF30A3813EE0254B9C4201D1AC68A2
:10364400EBE7244B9C4208BFEC68E6E7580712D529
:10365400616B41B104F14403994202D0304600F059
:1036640059FA00236363A38923F02403A38100236D
:10367400636023692360A38943F00803A38123695A
:103684004BB9A38903F42073B3F5007F03D021461B
:10369400304600F0FFF9A089B4F90C2010F00103C2
:1036A4000AD00023A36063695B42A361236943B921
:1036B40010F08000BAD170BD810758BF6369A36060
:1036C400F4E70020F7E700BF2C00002018490008A9
:1036D40038490008F84800088A892DE9F041054670
:1036E40010070C4658D44B68002B05DC0B6C002BE0
:1036F40002DC0020BDE8F081E66A002EF9D0002348
:1037040012F480522F682B6032D0606DA3895A075F
:1037140005D56368C01A636B0BB1236CC01A002310
:103724000246E66A2846216AB047431CA38906D1AB
:1037340029681D292CD82A4ACA40D60728D5002230
:1037440062602269D904226004D5421C01D12B682D
:1037540003B96065616B2F600029CAD004F144038A
:10376400994202D0284600F0D5F900206063C1E7F1
:10377400216A01232846B047411CC7D12B68002B7E
:10378400C4D01D2B01D0162B01D12F60B1E7A38922
:1037940043F04003A381ADE70F69002FA9D093073D
:1037A40018BF00230E6808BF4B69A6EB07080F601B
:1037B4008B60B8F1000F9CDD43463A462846216AE7
:1037C400A66AB047002806DCA3894FF0FF3043F017
:1037D4004003A3818EE70744A8EB0008E9E700BF94
:1037E4000100402038B50B6905460C4613B9002585
:1037F400284638BD18B183690BB900F087F8144B1B
:103804009C421BD16C68B4F90C30002BEFD0626E73
:10381400D00704D4990502D4A06D00F015F9284608
:103824002146FFF759FF636E0546DA07E0D4A38902
:103834009B05DDD4A06D00F008F9D9E7054B9C4247
:1038440001D1AC68DFE7044B9C4208BFEC68DAE7BF
:103854001849000838490008F8480008002310B542
:103864000446C0E90033C0E90433836081814366C0
:10387400C2818361194608225C30FFF7A5FD054B20
:1038840024626362044BA362044BE362044B23632C
:1038940010BD00BF194500083B45000873450008EA
:1038A40097450008014900F0AFB800BFE9370008A8
:1038B40070B568254A1E55430E4605F1740100F0A3
:1038C40075F9044640B10021C0E900160C30A0602F
:1038D40005F16802FFF778FD204670BD014800F04D
:1038E400B3B800BFAC110020014800F0AEB800BF6F
:1038F400AC110020014800F0A7B800BFA7110020B8
:10390400014800F0A2B800BFA711002010B504467A
:10391400FFF7F0FFA3691BB1BDE81040FFF7F0BF4C
:10392400C4E912332365134B134A1B68A262A342F2
:1039340008BF0123204608BFA36100F01FF86060A0
:10394400204600F01BF8A060204600F017F8002283
:103954000421E0606068FFF781FF01220921A0686B
:10396400FFF77CFF02221221E068FFF777FF0123B3
:10397400A361D1E7F4480008A9380008F8B5074660
:10398400FFF7ACFF1E4B1E68B36913B93046FFF74F
:10399400BDFF4836D6E90134013B03D533680BB388
:1039A4003668F7E7B4F90C50D5B9164B04F1580052
:1039B400E360656600F047F8FFF796FF08222946A2
:1039C400C4E90155C4E904552560A56104F15C000E
:1039D400FFF7FAFCC4E90D55C4E912552046F8BDB9
:1039E4006834D9E704213846FFF762FF04463060A3
:1039F4000028D5D1FFF778FF0C233B60EEE700BF2A
:103A0400F44800080100FFFF2DE9F8430646884604
:103A1400002700F14804D4E90195B9F1010905D55D
:103A24002468002CF7D13846BDE8F883AB89012B14
:103A340007D9B5F90E30013303D029463046C047C3
:103A440007436835E9E770477047704770B50E461D
:103A5400B1F90E10144600291D4696B007DA00236A
:103A64002B60B3891A0610D44FF480630EE06A46C3
:103A740000F0B6FD0028F2DB019A02F47042A2F5D0
:103A840000535A425A412A60EEE740230020236043
:103A940016B070BD8B8973B59D0706460C4607D5D5
:103AA40004F14703236023610123636102B070BD05
:103AB4006A4601ABFFF7CAFF00990546304600F09D
:103AC40075F848B9B4F90C309A05EFD423F0030320
:103AD40043F00203A381E3E70D4BB362A3892060A3
:103AE40043F08003A381009B20616361019B5BB170
:103AF4003046B4F90E1000F085FD28B1A38923F0F7
:103B0400030343F00103A381A0890543A581CDE705
:103B1400A938000838B50546002943D051F8043CBB
:103B24000C1F002BB8BFE41800F0C4FD1E4A136834
:103B3400104633B9636014602846BDE8384000F08D
:103B4400BFBDA3420AD921686218934201BF1A6813
:103B54005B685218226063600460EDE71A465B6894
:103B64000BB1A342FAD911685018A0420BD12068B6
:103B74000144501883421160DED118685B68014427
:103B840011605360D8E702D90C232B60D4E7206876
:103B940021188B4201BF19685B68091821606360B2
:103BA4005460C9E738BD00BFC0000020F8B5CD1C83
:103BB40025F0030508350C2D38BF0C25002D0646CD
:103BC40001DBA94203D90C2333600020F8BD00F0C7
:103BD40071FD21490A6814469CB9204F3B6823B9FA
:103BE4002146304600F086FC38602946304600F015
:103BF40081FC431C23D10C233046336000F060FD6C
:103C0400E3E723685B1B17D40B2B03D923601C4405
:103C1400256004E06368A2420CBF0B605360304629
:103C240000F04EFD04F10B00231D20F00700C21A22
:103C3400CCD01B1AA350C9E722466468CCE7C41C45
:103C440024F00304A042E3D0211A304600F052FCD1
:103C54000130DDD1CFE700BFC0000020C400002048
:103C64002DE9F0478E6882469E420C4690461F46D8
:103C740038D88A8912F4906F32D0256809690133E3
:103C8400A5EB010965694B4405EB450505EBD575C5
:103C94006D109D4238BF1D46530531D52946FFF7A7
:103CA40085FF064650B90C234FF0FF30CAF80030A8
:103CB400A38943F04003A381BDE8F0874A46216904
:103CC40000F0D0FCA38923F4906343F08003A38124
:103CD40026614E4426603E466561A5EB0905A56054
:103CE400BE4200D93E4632464146206800F0C8FC38
:103CF400A36822689B1B32440020A3602260DBE798
:103D04002A4600F0E3FC06460028E1D1504621692A
:103D1400FFF700FFC7E700002DE9F04F98468B89B5
:103D240007461B060D4614469DB00ED50B6963B9B4
:103D34004021FFF73BFF2860286120B90C233B603A
:103D44004FF0FF30D1E040236B610023099320231F
:103D54008DF8293030234FF00109CDF80C80DFF8BD
:103D6400A4818DF82A3023469A4613F8012B0AB110
:103D7400252AF9D1BAEB040B0BD05B46224629461F
:103D84003846FFF76DFF013000F0AA80099A5A44C3
:103D940009929AF80030002B00F0A28000234FF023
:103DA400FF32CDE905230AF1010A049307938DF844
:103DB40053301A935446052214F8011B514800F05D
:103DC40043FC049AD8B9D00644BF20238DF853305D
:103DD400110744BF2B238DF853309AF800302A2B57
:103DE40015D0544600204FF00A0C079A214611F8CA
:103DF400013B303B092B4ED9B0B1079214E0A0EB44
:103E0400080309FA03F31343A2460493D2E7039B7E
:103E1400191D1B680391002BBBBF5B4242F00202D9
:103E240007930793B8BF049223782E2B0CD16378A1
:103E34002A2B35D1039B02341A1D1B680392002BD5
:103E4400B8BF4FF0FF330593DFF8C8A003225046F4
:103E5400217800F0F9FB40B14023A0EB0A0003FAFB
:103E640000F0049B01340343049314F8011B06225D
:103E740025488DF8281000F0E7FB002838D0234BA4
:103E84001BBB039B073323F0070308330393099BEE
:103E94003344099367E70C4601200CFB0232A5E783
:103EA40000234FF00A0C194601340593204610F8FC
:103EB400012B303A092A03D9002BC5D00591C3E759
:103EC400044601230CFB0121F0E703AB00932A46CF
:103ED40038460F4B04A9AFF30080421C0646D6D1E6
:103EE400AB895B063FF52CAF09981DB0BDE8F08F98
:103EF40003AB00932A463846054B04A900F0D4F9D5
:103F0400EBE700BF584900086249000800000000C0
:103F1400653C00085E490008936810B4013B002B1F
:103F2400936007DA9469A34201DB0A2902D110BC29
:103F3400FFF712BB1368581C10601970084610BCB8
:103F44007047F8B506460F461446D518AC4201D161
:103F5400002007E03A46304614F8011BFFF7DCFF67
:103F6400431CF3D1F8BD00002DE9F04F0D46144673
:103F7400984606469DB018B183690BB9FFF7C6FC95
:103F8400894B9D421BD175686B6ED90705D4AB89EB
:103F94009A0502D4A86DFFF757FDAB891B0701D51D
:103FA4002B69EBB929463046FFF728FBC0B16B6E8D
:103FB400DC070ED54FF0FF301DB0BDE8F08F7B4B12
:103FC4009D4201D1B568DFE7794B9D4208BFF56892
:103FD400DAE7AB899805EDD4A86DFFF736FDE9E77C
:103FE4000023099320238DF8293030234FF0010951
:103FF400CDF80C80DFF8BC818DF82A3023469A4630
:1040040013F8012B0AB1252AF9D1BAEB040B0BD012
:104014005B46224629463046FFF793FF013000F005
:10402400AA80099A5A4409929AF80030002B00F0A9
:10403400A28000234FF0FF32CDE905230AF1010AE3
:10404400049307938DF853301A935446052214F8B9
:10405400011B584800F0F8FA049AD8B9D10644BFB5
:1040640020238DF85330130744BF2B238DF853308E
:104074009AF800302A2B15D0544600204FF00A0C31
:10408400079A214611F8013B303B092B4ED9B0B1B8
:10409400079214E0A0EB080309FA03F31343A246C2
:1040A4000493D2E7039B191D1B680391002BBBBF2C
:1040B4005B4242F0020207930793B8BF049223784D
:1040C4002E2B0CD163782A2B35D1039B02341A1D75
:1040D4001B680392002BB8BF4FF0FF330593DFF842
:1040E400E4A003225046217800F0AEFA40B1402308
:1040F400A0EB0A0003FA00F0049B01340343049389
:1041040014F8011B06222C488DF8281000F09CFAA4
:1041140000283FD0294B1BBB039B073323F0070325
:1041240008330393099B3B44099367E70C4601203A
:104134000CFB0232A5E700234FF00A0C19460134A8
:104144000593204610F8012B303A092A03D9002B95
:10415400C5D00591C3E7044601230CFB0121F0E718
:1041640003AB00932A463046154B04A9AFF30080F5
:104174000746781CD6D16B6ED90705D4AB899A054E
:1041840002D4A86DFFF761FCAB895B063FF512AF63
:10419400099811E703AB00932A463046084B04A95B
:1041A40000F082F8E4E700BF184900083849000825
:1041B400F848000858490008624900080000000057
:1041C400473F00085E4900082DE9F0471646994626
:1041D4008A680B6907469342B8BF1346336091F867
:1041E40043200C46DDF820800AB101333360236894
:1041F400990642BF336802333360256815F006051B
:1042040006D104F1190AE36832689B1AAB4228DC30
:1042140094F84320131E226818BF012392062DD45C
:104224004946384604F14302C047013020D0236890
:10423400E56803F00603042B18BF002532684FF02D
:104244000006A36808BFAD1A226908BF25EAE57510
:104254009342C4BF9B1AED181A34B5421AD10020F8
:1042640008E00123524649463846C047013003D18D
:104274004FF0FF30BDE8F0870135C4E73020E11886
:1042840081F843005A1C94F845102244023382F802
:104294004310C5E70123224649463846C04701304A
:1042A400E6D00136D9E700002DE9FF470C46277E0A
:1042B4009146782F80469A460C9904F1430207D818
:1042C400622F0AD8002F00F0D980582F00F0A48064
:1042D40004F1420684F842703AE0A7F16303152B17
:1042E400F6D801A050F823F04543000859430008CC
:1042F400D5420008D5420008D5420008D54200083E
:1043040059430008D5420008D5420008D5420008A8
:10431400D54200086744000889430008494400085E
:10432400D5420008D542000889440008D542000857
:1043340089430008D5420008D542000851440008CA
:104344000B6804F142061A1D1B680A6084F84230A7
:104354000123A4E0256808682E0600F104030AD5A9
:1043640005680B60002D03DA2D236D4284F8433079
:104374000A235E4819E015F0400F05680B6018BF6A
:104384002DB2EFE70B682568181D0860280601D5D3
:104394001D6802E06906FBD51D886F2F0CBF08233A
:1043A4000A235248002184F843106668002EA8BFEF
:1043B4002168A660A4BF21F0040121600DB9002E7C
:1043C4004DD01646B5FBF3F103FB1157C75D06F854
:1043D400017D2F46BB420D46F4D9082B0BD123682F
:1043E400DF0708D5236961689942DEBF302306F8E8
:1043F400013C06F1FF36921B22614B4621464046A2
:10440400CDF800A003AAFFF7DFFE01304CD14FF036
:10441400FF3004B0BDE8F087344884F845700E6876
:10442400236856F8045B1F060E6014D5D90744BFF1
:1044340043F0200323601DB9236823F02003236085
:104444001023AFE7236843F0200323607823284830
:1044540084F84530E3E75E0648BFADB2E6E71646AA
:10446400BBE70B6826681D1D60690D6035061B6877
:1044740001D5186002E07106FBD5188000231646AA
:104484002361BAE70B681A1D0A601E6800213046D2
:10449400626800F0D9F808B1801B6060636823612A
:1044A400002384F84330A8E732464946404623694E
:1044B400D0470130ABD023689B0713D4E068039B3B
:1044C4009842B8BF1846A4E70123324649464046FD
:1044D400D04701309BD00135E36803995B1AAB42A6
:1044E400F2DCEBE7002504F11906F5E76949000859
:1044F4007A49000838B50023054D044608462B6068
:10450400FCF75EFC431C02D12B6803B1236038BD69
:10451400B011002010B50C46B1F90E1000F0FCF8F3
:104524000028ABBF636DA3891B1823F48053ACBF71
:104534006365A38110BD2DE9F0411F468B890546B3
:10454400DB050C46164605D502230022B1F90E10F0
:1045540000F068F8A389324623F48053A3812846E7
:104564003B46B4F90E10BDE8F04100F017B810B5A1
:104574000C46B1F90E1000F055F8431CA38915BF81
:10458400606523F4805343F48053A38118BFA3814F
:1045940010BDB1F90E1000F013B8000038B5044690
:1045A400084611460022054D2A601A46FCF7BBFB5B
:1045B400431C02D12B6803B1236038BDB011002025
:1045C40038B50023054D044608462B60FCF7C7FBAD
:1045D400431C02D12B6803B1236038BDB011002005
:1045E40038B50023064D0446084611462B60FCF7F7
:1045F400C1FB431C02D12B6803B1236038BD00BF4B
:10460400B011002038B50023054D044608462B6040
:10461400FCF7BFFB431C02D12B6803B1236038BDF8
:10462400B011002038B50446084611460022054D55
:104634002A601A46FCF7B7FB431C02D12B6803B16E
:10464400236038BDB0110020034610B5C9B202443E
:104654009342184601D1002003E0047801338C42D0
:10466400F6D110BD0A44914200F1FF3300D17047E6
:1046740010B511F8014B914203F8014FF9D110BD67
:10468400884210B501EB020402D98442234607D8BC
:10469400431EA14208D011F8012B03F8012FF8E7BB
:1046A400014602448A4200D110BD13F8014D02F8BC
:1046B400014DF7E70148FFF7C7B900BFA811002073
:1046C4000148FFF7C2B900BFA8110020F8B507469A
:1046D40014460E4621B91146BDE8F840FFF766BA04
:1046E40022B9FFF717FA25462846F8BD00F026F848
:1046F400A0420FD221463846FFF758FA0546002853
:10470400F2D031462246FFF7ADFF31463846FFF777
:1047140001FAE9E73546E7E738B5044608461146A5
:104724000022054D2A601A46FCF7E0FA431C02D128
:104734002B6803B1236038BDB011002051F8043C4C
:10474400181F002BBCBF0B58C0187047F8B500BF2A
:10475400F8BC08BC9E467047F8B500BFF8BC08BC5E
:044764009E467047B6
:1047680062756666203A2025730D0A005468652034
:10477800573235713634207661726961626C652012
:10478800697320636F6E73697374656E74207769DB
:104798007468207468652070726F6772616D207626
:1047A80061726961626C650D000000005732355115
:1047B8003634206E6F2066696E6421206D617962DF
:1047C80065206974206261642120706C656173657D
:1047D800207265736574212121000000573235511C
:1047E80036342066696E64210D000000666C6173C2
:1047F8006820636F6E7574203A20256400000000FD
:10480800777269746520446F6E65210D0A204461D2
:1048180074612069732025730D0A00002072656198
:10482800642064617461206973202573200D0A0077
:104838005468652057323571363420766172696163
:10484800626C6520697320636F6E73697374656E3B
:10485800742077697468207468652070726F677255
:10486800616D207661726961626C652E0D000000D1
:104878002A2A2A2A573235713634207661726961BC
:10488800626C6520616E642070726F6772616D2062
:104898007661726961626C6520617265206469661F
:1048A800666572656E742E2A2A2A2A0D0000000099
:1048B800457261736520446F6E65210D0A20000002
:1048C80000000000000000000102030406070809B8
:1048D800000000000102030402030405060708099A
:1048E8000A0B0C0D0E0F1010010200003000002002
:1048F80000000000000000000000000000000000B0
:10490800000000000000000000000000000000009F
:10491800000000000000000000000000000000008F
:10492800000000000000000000000000000000007F
:10493800000000000000000000000000000000006F
:10494800000000000000000000000000000000005F
:10495800232D302B2000686C4C0065666745464760
:1049680000303132333435363738394142434445E3
:104978004600303132333435363738396162636452
:044988006566000060
:04498C000902000814
:04499000E501000835
:1049940016EF0000796168626F6F6D204C6561727B
:1049A4006E696E672054656D706C617465000000FB
:1049B4000024F4001000000001000000300000207A
:1049C400000000001849000838490008F8480008A9
:1049D40000000000000000000000000000000000D3
:1049E40000000000000000000000000000000000C3
:1049F40000000000000000000000000000000000B3
:104A040000000000000000000000000000000000A2
:104A14000000000000000000000000000000000092
:0400000508000F39A7
:00000001FF
