:020000040800F2
:1000000000000120C12200088D1C0008931C00087C
:10001000991C00089F1C0008A51C00080000000097
:10002000000000000000000000000000AB1C000801
:10003000B71C000800000000C31C0008CF1C00080B
:1000400009230008092300080923000809230008E0
:1000500009230008092300080923000809230008D0
:1000600009230008092300080923000809230008C0
:1000700009230008092300080923000809230008B0
:1000800009230008092300080923000809230008A0
:100090000923000809230008092300080923000890
:1000A0000923000809230008092300080923000880
:1000B0000923000809230008092300080923000870
:1000C0000923000809230008092300080923000860
:1000D0000923000809230008E91200080923000881
:1000E0000923000809230008092300080923000840
:1000F0000923000809230008092300080923000830
:10010000092300080923000809230008092300081F
:10011000092300080923000809230008DD1C000842
:1001200009230008092300080923000809230008FF
:1001300000000000000000000000000000000000BF
:1001400000000000000000000000000000000000AF
:10015000000000000000000000000000000000009F
:10016000000000000000000000000000000000008F
:10017000000000000000000000000000000000007F
:10018000000000000000000000000000000000006F
:10019000000000000000000000000000000000005F
:1001A000000000000000000000000000000000004F
:1001B000000000000000000000000000000000003F
:1001C000000000000000000000000000000000002F
:1001D000000000000000000000000000000000001F
:0401E0005FF8E0F1F3
:1001E80010B5054C237833B9044B13B10448AFF369
:1001F80000800123237010BDEC01002000000000E6
:100208007095000808B5034B1BB103490348AFF3C9
:10021800008008BD00000000F00100207095000873
:10022800034613F8012B002AFBD1181A013870472E
:100238004FF0FF0C1CEAD0521EBF1CEAD15392EAC1
:100248000C0F93EA0C0F6FD01A4480EA010C40029D
:1002580018BF5FEA41211ED04FF0006343EA5010F7
:1002680043EA5111A0FB01310CF00040B1F5000F39
:100278003EBF490041EAD3715B0040EA010062F1E8
:100288007F02FD2A1DD8B3F1004F40EBC25008BFD2
:1002980020F00100704790F0000F0CF0004C08BFF0
:1002A80049024CEA502040EA51207F3AC2BFD2F1BD
:1002B800FF0340EAC250704740F400004FF00003CB
:1002C800013A5DDC12F1190FDCBF00F00040704705
:1002D800C2F10002410021FA02F1C2F1200200FA43
:1002E80002FC5FEA310040F1000053EA4C0308BF0A
:1002F80020EADC70704792F0000F00F0004C02BF5B
:10030800400010F4000F013AF9D040EA0C0093F0D5
:10031800000F01F0004C02BF490011F4000F013B2F
:10032800F9D041EA0C018FE70CEAD15392EA0C0F9D
:1003380018BF93EA0C0F0AD030F0004C18BF31F008
:10034800004CD8D180EA010000F00040704790F0DE
:10035800000F17BF90F0004F084691F0000F91F082
:10036800004F14D092EA0C0F01D142020FD193EA48
:100378000C0F03D14B0218BF084608D180EA0100D0
:1003880000F0004040F0FE4040F40000704740F0AC
:10039800FE4040F44000704781F0004102E000BF99
:1003A80083F0004330B54FEA41044FEA430594EA2D
:1003B800050F08BF90EA020F1FBF54EA000C55EA68
:1003C800020C7FEA645C7FEA655C00F0E2804FEA39
:1003D8005454D4EB5555B8BF6D420CDD2C4480EA1B
:1003E800020281EA030382EA000083EA010180EA4B
:1003F800020281EA0303362D88BF30BD11F0004F99
:100408004FEA01314FF4801C4CEA113102D04042CE
:1004180061EB410113F0004F4FEA03334CEA133309
:1004280002D0524263EB430394EA050F00F0A78021
:10043800A4F10104D5F1200E0DDB02FA0EFC22FA1C
:1004480005F2801841F1000103FA0EF2801843FA10
:1004580005F359410EE0A5F120050EF1200E012A01
:1004680003FA0EFC28BF4CF0020C43FA05F3C0183F
:1004780051EBE37101F0004507D54FF0000EDCF1B8
:10048800000C7EEB00006EEB0101B1F5801F1BD361
:10049800B1F5001F0CD349085FEA30004FEA3C0C65
:1004A80004F101044FEA445212F5800F80F09A805B
:1004B800BCF1004F08BF5FEA500C50F1000041EB5F
:1004C800045141EA050130BD5FEA4C0C404141EB63
:1004D8000101013C28BFB1F5801FE9D291F0000F5E
:1004E80004BF01460020B1FA81F308BF2033A3F10D
:1004F8000B03B3F120020CDA0C3208DD02F1140C04
:10050800C2F10C0201FA0CF021FA02F10CE002F13E
:100518001402D8BFC2F1200C01FA02F120FA0CFC37
:10052800DCBF41EA0C019040E41AA2BF01EB045180
:10053800294330BD6FEA04041F3C1CDA0C340EDC7E
:1005480004F11404C4F1200220FA04F001FA02F3C1
:1005580040EA030021FA04F345EA030130BDC4F17F
:100568000C04C4F1200220FA02F001FA04F340EA74
:100578000300294630BD21FA04F0294630BD94F025
:10058800000F83F4801306BF81F480110134013D0C
:100598004EE77FEA645C18BF7FEA655C29D094EA7D
:1005A800050F08BF90EA020F05D054EA000C04BFFB
:1005B8001946104630BD91EA030F1EBF00210020E6
:1005C80030BD5FEA545C05D14000494128BF41F085
:1005D800004130BD14F580043CBF01F5801130BDE9
:1005E80001F0004545F0FE4141F470014FF0000074
:1005F80030BD7FEA645C1ABF194610467FEA655C25
:100608001CBF0B46024650EA013406BF52EA0335C6
:1006180091EA030F41F4002130BD00BF90F0000FB4
:1006280004BF0021704730B54FF4806404F13204F0
:100638004FF000054FF0000150E700BF90F0000FA9
:1006480004BF0021704730B54FF4806404F13204D0
:1006580010F0004548BF40424FF000013EE700BFA0
:1006680042004FEAE2014FEA31014FEA02701FBF30
:1006780012F07F4393F07F4F81F06051704732F062
:100688007F4208BF704793F07F4F04BF41F40021B9
:10069800704730B54FF4607401F0004521F0004117
:1006A8001CE700BF50EA010208BF704730B54FF0A1
:1006B80000050AE050EA010208BF704730B511F0A2
:1006C800004502D5404261EB41014FF4806404F1DA
:1006D80032045FEA915C3FF4D8AE4FF003025FEA60
:1006E800DC0C18BF03325FEADC0C18BF033202EBE4
:1006F800DC02C2F1200300FA03FC20FA02F001FA3E
:1007080003FE40EA0E0021FA02F11444BDE600BFE0
:1007180070B54FF0FF0C4CF4E06C1CEA11541DBF8F
:100728001CEA135594EA0C0F95EA0C0F00F0DEF85A
:100738002C4481EA030621EA4C5123EA4C5350EA3F
:10074800013518BF52EA033541F4801143F4801390
:1007580038D0A0FB02CE4FF00005E1FB02E506F021
:100768000042E0FB03E54FF00006E1FB03569CF076
:10077800000F18BF4EF0010EA4F1FF04B6F5007F7C
:1007880064F5407404D25FEA4E0E6D4146EB0606EE
:1007980042EAC62141EA55514FEAC52040EA5E5077
:1007A8004FEACE2EB4F1FD0C88BFBCF5E06F1ED821
:1007B800BEF1004F08BF5FEA500E50F1000041EB58
:1007C800045170BD06F0004646EA010140EA020005
:1007D80081EA0301B4EB5C04C2BFD4EB0C0541EA27
:1007E800045170BD41F480114FF0000E013C00F33C
:1007F800AB8014F1360FDEBF002001F0004170BD60
:10080800C4F10004203C35DA0C341BDC04F1140478
:10081800C4F1200500FA05F320FA04F001FA05F204
:1008280040EA020001F0004221F0004110EBD370D1
:1008380021FA04F642EB06015EEA430E08BF20EAFD
:10084800D37070BDC4F10C04C4F1200500FA04F3A0
:1008580020FA05F001FA04F240EA020001F0004132
:1008680010EBD37041F100015EEA430E08BF20EAA5
:10087800D37070BDC4F1200500FA05F24EEA020EED
:1008880020FA04F301FA05F243EA020321FA04F01C
:1008980001F0004121FA04F220EA020000EBD370D3
:1008A8005EEA430E08BF20EAD37070BD94F0000FD3
:1008B8000FD101F00046400041EB010111F4801F07
:1008C80008BF013CF7D041EA060195F0000F18BFB8
:1008D800704703F00046520043EB030313F4801FF4
:1008E80008BF013DF7D043EA0603704794EA0C0FAE
:1008F8000CEA135518BF95EA0C0F0CD050EA4106C4
:1009080018BF52EA4306D1D181EA030101F0004140
:100918004FF0000070BD50EA410606BF1046194668
:1009280052EA430619D094EA0C0F02D150EA013674
:1009380013D195EA0C0F05D152EA03361CBF1046B5
:1009480019460AD181EA030101F0004141F0FE4154
:1009580041F470014FF0000070BD41F0FE4141F4D8
:10096800780170BD70B54FF0FF0C4CF4E06C1CEAD8
:1009780011541DBF1CEA135594EA0C0F95EA0C0F8D
:1009880000F0A7F8A4EB050481EA030E52EA033548
:100998004FEA013100F088804FEA03334FF0805569
:1009A80045EA131343EA12634FEA022245EA111596
:1009B80045EA10654FEA00260EF000419D4208BF47
:1009C800964244F1FD0404F5407402D25B084FEAF4
:1009D8003202B61A65EB03055B084FEA32024FF4A0
:1009E80080104FF4002CB6EB020E75EB030E22BFFD
:1009F800B61A754640EA0C005B084FEA3202B6EBBD
:100A0800020E75EB030E22BFB61A754640EA5C006B
:100A18005B084FEA3202B6EB020E75EB030E22BFFB
:100A2800B61A754640EA9C005B084FEA3202B6EBFC
:100A3800020E75EB030E22BFB61A754640EADC00BB
:100A480055EA060E18D04FEA051545EA16754FEA1D
:100A580006164FEAC30343EA52734FEAC2025FEA3B
:100A68001C1CC0D111F4801F0BD141EA00014FF0CA
:100A780000004FF0004CB6E711F4801F04BF01439B
:100A88000020B4F1FD0C88BFBCF5E06F3FF6AFAEB7
:100A9800B5EB030C04BFB6EB020C5FEA500C50F147
:100AA800000041EB045170BD0EF0004E4EEA1131CA
:100AB80014EB5C04C2BFD4EB0C0541EA045170BDD1
:100AC80041F480114FF0000E013C90E645EA060E15
:100AD8008DE60CEA135594EA0C0F08BF95EA0C0F43
:100AE8003FF43BAF94EA0C0F0AD150EA01347FF48B
:100AF80034AF95EA0C0F7FF425AF104619462CE762
:100B080095EA0C0F06D152EA03353FF4FDAE1046C4
:100B1800194622E750EA410618BF52EA43067FF415
:100B2800C5AE50EA41047FF40DAF52EA43057FF4A5
:100B3800EBAE12E74FF0FF3C06E000BF4FF0010CB0
:100B480002E000BF4FF0010C4DF804CD4FEA410C14
:100B58007FEA6C5C4FEA430C18BF7FEA6C5C1BD0E1
:100B680001B050EA410C0CBF52EA430C91EA030F62
:100B780002BF90EA020F0020704710F1000F91EABF
:100B8800030F58BF994208BF90422CBFD8176FEA8D
:100B9800E37040F0010070474FEA410C7FEA6C5C5B
:100BA80002D150EA013C07D14FEA430C7FEA6C5C62
:100BB800D6D152EA033CD3D05DF8040B704700BF8E
:100BC8008446104662468C461946634600E000BFDC
:100BD80001B5FFF7B7FF002848BF10F1000F01BDAE
:100BE8004DF808EDFFF7F4FF0CBF012000205DF879
:100BF80008FB00BF4DF808EDFFF7EAFF34BF0120FE
:100C080000205DF808FB00BF4DF808EDFFF7E0FF96
:100C180094BF012000205DF808FB00BF4DF808EDE7
:100C2800FFF7CEFF94BF012000205DF808FB00BF4E
:100C38004DF808EDFFF7C4FF34BF012000205DF830
:100C480008FB00BF4FEA410C7FEA6C5C02D150EA16
:100C5800013C0AD14FEA430C7FEA6C5C02D152EAAC
:100C6800033C02D14FF0000070474FF0010070477D
:100C78004FEA410212F5001215D211D56FF47873BC
:100C8800B3EB625212D94FEAC12343F0004343EA5F
:100C9800505311F0004F23FA02F018BF404270473A
:100CA8004FF00000704750EA013005D111F00040C4
:100CB80008BF6FF0004070474FF00000704700BF5A
:100CC8004A0011D212F5001211D20DD56FF47873C3
:100CD800B3EB62520ED44FEAC12343F0004343EA18
:100CE800505323FA02F070474FF00000704750EA63
:100CF800013002D14FF0FF3070474FF000007047CD
:100D08004FEA4102B2F1E04324BFB3F5001CDCF125
:100D1800FE5C0DD901F0004C4FEAC0024CEA50705D
:100D2800B2F1004F40EB830008BF20F0010070478C
:100D380011F0804F21D113F13872BCBF01F000408F
:100D4800704741F480114FEA5252C2F11802C2F1C1
:100D5800200C10FA0CF320FA02F018BF40F0010042
:100D68004FEAC1234FEAD32303FA0CFC40EA0C00F4
:100D780023FA02F34FEA4303CCE77FEA625307D131
:100D880050EA01331EBF4FF0FE4040F44000704768
:100D980001F0004040F0FE4040F40000704700BF02
:100DA80080F0004002E000BF81F0004142001FBF18
:100DB8005FEA410392EA030F7FEA226C7FEA236C21
:100DC8006AD04FEA1262D2EB1363C1BFD218414016
:100DD80048404140B8BF5B42192B88BF704710F0AC
:100DE800004F40F4000020F07F4018BF404211F04F
:100DF800004F41F4000121F07F4118BF494292EAB7
:100E0800030F3FD0A2F1010241FA03FC10EB0C00E2
:100E1800C3F1200301FA03F100F0004302D549426F
:100E280060EB4000B0F5000F13D3B0F1807F06D31C
:100E380040084FEA310102F10102FE2A51D2B1F114
:100E4800004F40EBC25008BF20F0010040EA030009
:100E58007047490040EB0000013A28BFB0F5000F89
:100E6800EDD2B0FA80FCACF1080CB2EB0C0200FA3F
:100E78000CF0AABF00EBC25052421843BCBFD0408E
:100E88001843704792F0000F81F4000106BF80F408
:100E980000000132013BB5E74FEA41037FEA226CCB
:100EA80018BF7FEA236C21D092EA030F04D092F096
:100EB800000F08BF0846704790EA010F1CBF0020CA
:100EC800704712F07F4F04D1400028BF40F0004027
:100ED800704712F100723CBF00F50000704700F047
:100EE800004343F0FE4040F4000070477FEA22626E
:100EF80016BF08467FEA23630146420206BF5FEA3F
:100F0800412390EA010F40F4800070474FF000033E
:100F180004E000BF10F0004348BF40425FEA000C05
:100F280008BF704743F0964301464FF000001CE0AD
:100F380050EA010208BF70474FF000030AE000BF03
:100F480050EA010208BF704711F0004302D5404241
:100F580061EB41015FEA010C02BF844601460020B3
:100F680043F0B64308BFA3F18053A3F50003BCFACE
:100F78008CF2083AA3EBC25310DB01FA02FC63447B
:100F880000FA02FCC2F12002BCF1004F20FA02F282
:100F980043EB020008BF20F00100704702F1200275
:100FA80001FA02FCC2F1200250EA4C0021FA02F2D6
:100FB80043EB020008BF20EADC7070474FF0FF3CAB
:100FC80006E000BF4FF0010C02E000BF4FF0010C3B
:100FD8004DF804CD4FEA40024FEA41037FEA226C04
:100FE80018BF7FEA236C11D001B052EA530C18BF26
:100FF80090EA010F58BFB2EB030088BFC81738BF8B
:101008006FEAE17018BF40F0010070477FEA226C78
:1010180002D15FEA402C05D17FEA236CE4D15FEA74
:10102800412CE1D05DF8040B704700BF84460846A8
:101038006146FFE70FB5FFF7C9FF002848BF10F169
:10104800000F0FBD4DF808EDFFF7F4FF0CBF0120AE
:1010580000205DF808FB00BF4DF808EDFFF7EAFF38
:1010680034BF012000205DF808FB00BF4DF808EDF3
:10107800FFF7E0FF94BF012000205DF808FB00BFE8
:101088004DF808EDFFF7D2FF94BF012000205DF86E
:1010980008FB00BF4DF808EDFFF7C8FF34BF01207B
:1010A80000205DF808FB00BF4FEA4002B2F1FE4F96
:1010B8000FD34FF09E03B3EB12620DD94FEA002312
:1010C80043F0004310F0004F23FA02F018BF4042EB
:1010D80070474FF00000704712F1610F01D14202D2
:1010E80005D110F0004008BF6FF0004070474FF086
:1010F8000000704742000ED2B2F1FE4F0BD34FF002
:101108009E03B3EB126209D44FEA002343F0004375
:1011180023FA02F070474FF00000704712F1610F98
:1011280001D1420202D14FF0FF3070474FF000006A
:10113800704700BF38B50C460546214628460022B0
:101148000023FFF757FD28B928462146BDE8384057
:1011580000F00AB8284604F1004100F005F84042C2
:1011680061EB410138BD00BFD0B500220B4B0646EC
:101178000F46FFF7CDFAFFF7A3FD0446FFF74EFA37
:101188000022074BFFF7C4FA02460B4630463946A1
:10119800FFF706F9FFF794FD2146D0BD0000F03DAA
:1011A8000000F04180B500AF0821054801F0DCFCE3
:1011B8000346002B01D1012300E00023184680BD1F
:1011C8000020014080B582B000AF0346FB71FFF7F5
:1011D800E9FF0346012B0ED1114B1B881A46FB79F8
:1011E80001335B009A420CDA0D4B1B8801339AB22B
:1011F8000B4B1A8005E00A4B00221A80094B00228B
:101208001A80074B1B88022B04D1064B01221A8037
:10121800012300E0002318460837BD4680BD00BF03
:101228000A0200200802002080B582B000AF786072
:10123800391D4FF6FF730122034802F039FF7B681E
:1012480018460837BD4680BDE002002080B489B04A
:1012580000AF78607B680C33FB60FB6853E8003FA5
:10126800BB60BB6843F02003FB617B680C33FA6901
:10127800BA617B617969BA6941E800233B613B69DE
:10128800002BE7D100BF00BF2437BD4680BC7047A4
:1012980080B483B000AF78607B68DB6803F020031C
:1012A800202B0CBF01230023DBB218460C37BD46A8
:1012B80080BC704780B483B000AF78607B685B689F
:1012C800DBB218460C37BD4680BC704780B500AF0E
:1012D8000248FFF7BBFF00BF80BD00BF00440040CD
:1012E80080B582B000AF0948FFF7D2FF0346002B54
:1012F80008D00648FFF7DEFF0346FB71FB79184666
:1013080000F076F900BF0837BD4680BD00440040B4
:1013180080B500AF00F0F0F95A235A225A215A201A
:1013280000F022FB00F032F8FFF7D0FF00BF80BDCD
:1013380080B500AF0120FFF745FF0346002B0FD013
:10134800104B1B78002B0CBF01230023DBB21A467D
:101358000C4B1A7001224FF400410B4801F02AFC93
:10136800084B1B78002B08D100224FF40041064897
:1013780001F020FC00F00AF801E000F087F800BF57
:1013880080BD00BF0C0200200020014080B400AFE7
:10139800254B4FF000021A60234B4FF000029A6071
:1013A800214B4FF000029A611F4B4FF00002DA61A7
:1013B8001D4B4FF000021A621B4B4FF000025A629D
:1013C800194B1A4ADA60184B194A1A61164B194A0E
:1013D8005A61194B4FF000021A60174B4FF0000288
:1013E8009A60154B4FF000029A61134B4FF00002C0
:1013F800DA61114B4FF000021A620F4B4FF00002F6
:101408005A620D4B0D4ADA600B4B0D4A1A610A4BB2
:101418000C4A5A610C4BA0221A800B4B78225A8036
:1014280000BFBD4680BC7047680200200AD7A33CB5
:101438006F12033B0AD7A33B400200208FC2F53C42
:10144800A69B443BA69BC43B9402002080B582B077
:1014580000AF78607968044800F058F903461846E8
:101468000837BD4680BD00BF6802002080B582B045
:1014780000AF78607968044800F048F903461846D8
:101488000837BD4680BD00BF40020020B0B582B01D
:1014980002AF434B1B88A03B1846FFF73BFD0346B2
:1014A800404A13603E4B5B88C3F178031846FFF748
:1014B80031FD03463C4A13603B4B1B68184600F05D
:1014C80081F8034639491846FFF7D0FD0346002B3B
:1014D8000CD0344B1B68184600F074F803463449A6
:1014E8001846FFF7C3FD0346002B55D12D4B1B684B
:1014F8001846FFF7ABFF03461846FFF7D5FD03462E
:101508001846FFF707FD03462A4A1360264B1B6857
:101518001846FFF7ABFF03461846FFF7C5FD03461D
:101528001846FFF7F7FC0346234A1360214B1B6854
:101538001846FFF795F804460D461F4B1B681846DA
:10154800FFF78EF802460B46CDE9002322462B46CC
:101558001A4804F05BFA174B1B6819491846FFF73D
:1015680025FC03461846FFF7C5FD0346DBB21946BE
:10157800002000F0D1F9104B1B6811491846FFF7FD
:1015880015FC03461846FFF7B5FD0346DBB21946BE
:10159800012000F0C1F900E000BFBD46B0BD00BFAA
:1015A80094020020900200203C0200200000F0413C
:1015B8000000204214020020100200208895000834
:1015C8000000B44280B582B000AF78604FF00001EF
:1015D8007868FFF741FD0346002B03D07B6883F052
:1015E80000437B607B6818460837BD4680BD000015
:1015F80080B582B000AF0346FB71FB79242B07D17D
:10160800134B01221A7014220021124803F084FBA4
:10161800FB79232B07D10E4B00221A700E4B0022A8
:101628001A7000F01BF80A4B1B78012B0CD1FB79C0
:10163800242B09D0084B1B785A1CD1B2064A1170CA
:101648001946044AFB79535400BF0837BD4680BD8C
:101658002C020020180200202D02002080B400AFC8
:10166800234B1B78303B9BB21A46920013441A4610
:1016780091001A460B4613449B009AB21C4B5B78A8
:10168800303B9BB2194689000B445B009BB2134464
:101698009AB2174B9B789BB213449BB2303B9AB2D9
:1016A800144B1A80124BDB78303B9BB21A469200DF
:1016B80013441A4691001A460B4613449B009AB2EB
:1016C8000B4B1B79303B9BB2194689000B445B00DE
:1016D8009BB213449AB2064B5B799BB213449BB2FC
:1016E800303B9AB2034B5A8000BFBD4680BC70475E
:1016F800180200209402002080B500AF024802F0D2
:1017080003F900BF80BD00BF980200202DE9F04119
:1017180082B000AF786039607B681B68396818460A
:10172800FFF742FB03461A467B689A617B689C6810
:101738007B68DD687B689A697B681B6A1946104676
:10174800FFF732FB034619462846FEF771FD0346AC
:101758001D467B681A697B689B6919461046FEF727
:1017680067FD034619462846FFF720FB03469846BF
:101778007B685D697B689E697B681B6A19461846A9
:10178800FFF714FB034619463046FFF70DFB0346E7
:101798001A467B68DB6919461046FFF707FB0346C4
:1017A80019462846FEF744FD034619464046FFF70A
:1017B800FDFA034619462046FFF7F8FA03461A468B
:1017C8007B689A607B681A6A7B68DA617B689A69C9
:1017D8007B681A627B689B680E491846FFF746FCCF
:1017E8000346002B02D07B680A4A9A607B689B6894
:1017F80009491846FFF744FC0346002B02D07B68D2
:10180800054A9A607B689B6818460837BD46BDE85C
:10181800F08100BF0000B4C20000B44280B485B0BB
:1018280000AF0346FB71FA7913469B0013445B0033
:10183800134403F5FA73064A82FB03129210DB176E
:10184800D31AFB81FB8918461437BD4680BC704704
:101858006766666680B500AF2B4B1B8801339AB26A
:10186800294B1A80294B1A88274B1B889A4205D383
:1018780001220121264801F09DF904E000220121FE
:10188800234801F097F9214B5A881F4B1B889A422D
:1018980005D3012202211E4801F08CF904E0002240
:1018A80002211B4801F086F9184B9A88164B1B88B1
:1018B8009A4206D301224FF48041164801F07AF982
:1018C80005E000224FF48041124801F073F90F4BF4
:1018D800DA880D4B1B889A4206D301224FF4004147
:1018E8000C4801F067F905E000224FF4004109486F
:1018F80001F060F9044B1B88B3F5FA6F02D3024B71
:1019080000221A8000BF80BD2E02002004000020A3
:10191800000C01400014014090B583B000AF0346AD
:101928000A46FB711346BB71FB79032B11D8BB79AF
:10193800B42B10D8FB790A49BA79CA54FC79BB7917
:101948001846FFF76BFF03461A46064B23F8142088
:1019580002E000BF00E000BF0C37BD4690BD00BFED
:10196800000000200400002090B583B000AF0446BA
:10197800084611461A462346FB710346BB710B46BF
:101988007B7113463B71FB79B42B0AD81C4AFB794F
:101998001370FB791846FFF741FF03461A46194BA7
:1019A8001A80BB79B42B0AD8154ABB795370BB7916
:1019B8001846FFF733FF03461A46124B5A807B79C5
:1019C800B42B0AD80E4A7B7993707B791846FFF7B7
:1019D80025FF03461A460B4B9A803B79B42B0AD84D
:1019E800074A3B79D3703B791846FFF717FF034640
:1019F8001A46044BDA8000BF0C37BD4690BD00BFC5
:101A0800000000200400002080B582B000AF78609C
:101A18007B681A68044B1B689A4201D1FFF71AFFCA
:101A280000BF0837BD4680BD9802002080B588B049
:101A380000AF07F1100300221A605A609A60DA605A
:101A48003E4B9B693D4A43F0080393613B4B9B69BE
:101A580003F00803FB60FB68384B9B69374A43F087
:101A680020039361354B9B6903F02003BB60BB687F
:101A7800324B9B69314A43F4807393612F4B9B69C6
:101A880003F480737B607B682C4B9B692B4A43F083
:101A980004039361294B9B6903F004033B603B6893
:101AA80000220321264801F085F800224FF4404126
:101AB800244801F07FF800224FF40041224801F049
:101AC80079F803233B6101237B610023BB61022377
:101AD800FB6107F110031946194800F0B1FD4FF4F6
:101AE80040433B6101237B610023BB610223FB610F
:101AF80007F110031946134800F0A2FD38233B6193
:101B080000237B610123BB6107F1100319460E48CE
:101B180000F096FD4FF400433B6101237B610023F5
:101B2800BB610123FB6107F110031946064800F069
:101B380087FD00BF2037BD4680BD00BF00100240B2
:101B4800000C0140001401400020014080B500AFA6
:101B580000F0D8FB00F00DF8FFF768FF00F08AF9F5
:101B680000F0F6FA00F0CAFAFFF7D2FBFFF7E0FB45
:101B7800FCE780B590B000AF07F1180328220021D8
:101B8800184603F0C9F83B1D00221A605A609A6093
:101B9800DA601A610123BB614FF48033FB610023D3
:101BA8003B620123BB6202237B634FF48033BB6338
:101BB8004FF4E013FB6307F11803184601F02CF803
:101BC8000346002B01D000F019F80F237B60022395
:101BD800BB600023FB604FF480633B6100237B61A3
:101BE8003B1D0221184601F087FB0346002B01D05C
:101BF80000F004F800BF4037BD4680BD80B400AF98
:101C080072B600BFFEE780B483B000AF7860396079
:101C180000BF0C37BD4680BC7047000080B584B05B
:101C280000AF164B9B69154A43F001039361134BB0
:101C38009B6903F00103BB60BB68104BDB690F4A6B
:101C480043F08053D3610D4BDB6903F080537B6015
:101C58007B68052000F084FC094B5B68FB60FB682F
:101C680023F0E063FB60FB6843F00073FB60044A09
:101C7800FB68536000BF1037BD4680BD00100240AE
:101C88000000014080B400AFFEE780B400AFFEE77B
:101C980080B400AFFEE780B400AFFEE780B400AFC9
:101CA800FEE780B400AF00BFBD4680BC704780B47B
:101CB80000AF00BFBD4680BC704780B400AF00BF16
:101CC800BD4680BC704780B500AF00F061FB00BF27
:101CD80080BD000080B500AF024801F0A7FE00BF3C
:101CE80080BD00BF9802002080B400AF01231846D1
:101CF800BD4680BC704780B582B000AF786039605F
:101D080002F0E0FF034616221A604FF0FF33184630
:101D18000837BD4680BD80B582B000AF78604FF00F
:101D2800FF317868FFF7E7FFFEE780B586B000AFC0
:101D3800F860B9607A6000237B610AE0AFF3008045
:101D48000146BB685A1CBA60CAB21A707B69013373
:101D58007B617A697B689A42F0DB7B6818461837A2
:101D6800BD4680BD80B586B000AFF860B9607A60C6
:101D780000237B6109E0BB685A1CBA601B781846CF
:101D8800FFF752FA7B6901337B617A697B689A4273
:101D9800F1DB7B6818461837BD4680BD80B483B038
:101DA80000AF78604FF0FF3318460C37BD4680BC53
:101DB800704780B483B000AF786039603B684FF4F7
:101DC80000525A60002318460C37BD4680BC704745
:101DD80080B483B000AF7860012318460C37BD4645
:101DE80080BC704780B485B000AFF860B9607A6095
:101DF800002318461437BD4680BC704780B586B0AE
:101E080000AF7860144A154BD31A7B617B693B613C
:101E1800134B1B68002B02D1114B124A1A60104B4E
:101E28001A687B6813443A699A4207D202F04AFF5B
:101E380003460C221A604FF0FF3309E0084B1B6879
:101E4800FB60074B1A687B681344054A1360FB68FC
:101E580018461837BD4680BD000001200004000068
:101E6800300200204003002080B400AF00BFBD4610
:101E780080BC704780B582B000AF3B4600221A6034
:101E88005A60144B144A1A60124B47225A60114B7D
:101E980000229A600F4B0922DA600E4B80229A6169
:101EA8000C4801F05DFC0346002B01D0FFF7A6FEAD
:101EB80000233B6000237B603B461946054801F040
:101EC8005BFF0346002B01D0FFF798FE00BF0837E1
:101ED800BD4680BD980200200014004080B584B043
:101EE80000AF78607B681B680D4A934213D10D4B95
:101EF800DB690C4A43F02003D3610A4BDB6903F02A
:101F08002003FB60FB6800220121372000F048FB1A
:101F1800372000F071FB00BF1037BD4680BD00BF01
:101F2800001400400010024080B400AF044BDB688E
:101F38001B0A03F007031846BD4680BC704700BF64
:101F480000ED00E080B483B000AF0346FB7197F961
:101F58000730002B0BDBFB7903F01F02064997F9CA
:101F680007305B09012000FA02F241F8232000BF84
:101F78000C37BD4680BC704700E100E080B483B0F8
:101F880000AF03463960FB7197F90730002B0ADB75
:101F98003B68DAB20C4997F907301201D2B20B4408
:101FA80083F800230AE03B68DAB20849FB7903F0BA
:101FB8000F03043B1201D2B20B441A7600BF0C3750
:101FC800BD4680BC704700BF00E100E000ED00E0C6
:101FD80080B489B000AFF860B9607A60FB6803F03C
:101FE8000703FB61FB69C3F10703042B28BF042324
:101FF800BB61FB690433062B02D9FB69033B00E094
:1020080000237B614FF0FF32BB6902FA03F3DA4326
:10201800BB681A407B699A404FF0FF317B6901FA2F
:1020280003F3D9437B680B40134318462437BD4656
:1020380080BC704780B483B000AF78607B68DB6891
:1020480043F400527B68DA6000BF0C37BD4680BCA1
:10205800704780B483B000AF78607B681B6923F455
:1020680090427B681A617B685B6923F02A027B686F
:102078005A6100BF0C37BD4680BC704780B485B03C
:1020880000AF7860084BDA6907497B681343CB6176
:10209800054BDA697B681340FB60FB6800BF1437A7
:1020A800BD4680BC704700BF0010024080B485B0B8
:1020B80000AF7860084B9A6907497B6813438B61C6
:1020C800054B9A697B681340FB60FB6800BF1437B7
:1020D800BD4680BC704700BF0010024080B400AF0E
:1020E800054B5B68044A43F0E06343F00803536020
:1020F80000BFBD4680BC70470000014080B500AFFE
:10210800114B124A1A60104B4FF4E1325A600E4BD1
:1021180000229A600C4B0022DA600B4B00221A61F5
:10212800094B0C225A61084B00229A61064B002287
:10213800DA61054801F002FF0346002B01D0FFF7E2
:102148005DFD00BF80BD00BFE002002000380140F7
:1021580080B58CB000AF07F1140300221A605A60F2
:102168009A60DA601A615A619A613B4600221A60E5
:102178005A609A60DA601A614FF40030FFF77EFF08
:102188002020FFF793FF42F220033B6009237B6086
:102198000323BB600023FB603B4619461E4802F040
:1021A800FFF944F240033B6004237B603B46194639
:1021B800194802F0F5F9FFF791FFFFF7B5FE03465E
:1021C800012202211846FFF703FF0346194626207D
:1021D800FFF7D4FE2620FFF7B5FE4FF4E1337B610D
:1021E8000023BB610023FB6100233B620C237B625D
:1021F8000023BB620023FB6207F11403194607485A
:1022080002F05EFC0548FFF724FF0448FFF712FFC1
:1022180000BF3037BD4680BD001401400044004077
:1022280080B588B000AF786007F1100300221A600B
:102238005A609A60DA607B681B681C4A934231D105
:102248001B4B9B691A4A43F480439361184B9B6963
:1022580003F48043FB60FB68154B9B69144A43F009
:1022680004039361124B9B6903F00403BB60BB68D2
:102278004FF400733B6102237B610323FB6107F189
:10228800100319460B4800F0DBF94FF480633B61FB
:1022980000237B610023BB6107F110031946054841
:1022A80000F0CEF900BF2037BD4680BD00380140A0
:1022B8000010024000080140FFF7D6FD0B480C490A
:1022C8000C4A002302E0D458C4500433C4188C428A
:1022D800F9D3094A094C002301E013600432A242F1
:1022E800FBD302F0F5FCFFF731FC7047000000203B
:1022F800EC010020549C0008EC0100203C03002065
:10230800FEE7000080B500AF084B1B68074A43F0A2
:1023180010031360032000F023F9032000F008F8ED
:10232800FFF77CFC0023184680BD00BF0020024058
:1023380080B582B000AF7860124B1A68124B1B78D8
:1023480019464FF47A73B3FBF1F3B2FBF3F3184673
:1023580000F06AF90346002B01D001230EE07B68E8
:102368000F2B0AD8002279684FF0FF3000F018F9D7
:10237800064A7B681360002300E0012318460837EB
:10238800BD4680BD0C000020140000201000002075
:1023980080B400AF054B1B781A46054B1B681344E5
:1023A800034A136000BFBD4680BC7047140000207C
:1023B8002803002080B400AF024B1B681846BD46B6
:1023C80080BC70472803002080B485B000AF7860D7
:1023D8007B6803F00703FB600C4BDB68BB60BA68E3
:1023E8004FF6FF031340BB60FB681A02BB68134338
:1023F80043F0BF6343F40033BB60044ABB68D36057
:1024080000BF1437BD4680BC704700BF00ED00E038
:1024180080B400AF044BDB681B0A03F007031846BF
:10242800BD4680BC704700BF00ED00E080B483B0BB
:1024380000AF0346FB7197F90730002B0BDBFB79E4
:1024480003F01F02064997F907305B09012000FADB
:1024580002F241F8232000BF0C37BD4680BC70470C
:1024680000E100E080B483B000AF03463960FB713F
:1024780097F90730002B0ADB3B68DAB20C4997F969
:1024880007301201D2B20B4483F800230AE03B68FC
:10249800DAB20849FB7903F00F03043B1201D2B208
:1024A8000B441A7600BF0C37BD4680BC704700BF8E
:1024B80000E100E000ED00E080B489B000AFF86012
:1024C800B9607A60FB6803F00703FB61FB69C3F13D
:1024D8000703042B28BF0423BB61FB690433062BC5
:1024E80002D9FB69033B00E000237B614FF0FF3218
:1024F800BB6902FA03F3DA43BB681A407B699A4066
:102508004FF0FF317B6901FA03F3D9437B680B4035
:10251800134318462437BD4680BC704780B582B047
:1025280000AF78607B68013BB3F1807F01D3012362
:102538000FE00A4A7B68013B53600F214FF0FF30E0
:10254800FFF790FF054B00229A60044B07221A60A0
:10255800002318460837BD4680BD00BF10E000E0E4
:1025680080B582B000AF78607B68072B0FD07B689E
:10257800062B0CD07B68052B09D07B68042B06D072
:102588007B68032B03D091210448FFF73CFB786854
:10259800FFF71AFF00BF0837BD4680BD94950008B5
:1025A80080B586B000AF0346B9607A60FB7300233C
:1025B8007B617B680F2B03D9A9210E48FFF723FB0A
:1025C800BB680F2B03D9AA210A48FFF71CFBFFF7AA
:1025D8001FFF78617A68B9687869FFF76DFF02466E
:1025E80097F90F3011461846FFF73CFF00BF183720
:1025F800BD4680BD9495000880B582B000AF034603
:10260800FB7197F90730002B03DABD210548FFF766
:10261800FAFA97F907301846FFF708FF00BF08379E
:10262800BD4680BD9495000880B582B000AF786043
:102638007868FFF773FF034618460837BD4680BD24
:1026480080B58AB000AF7860396000237B620023D0
:102658003B627B68A94A93421BD07B68A84A934295
:1026680017D07B68A74A934213D07B68A64A934247
:102678000FD07B68A54A93420BD07B68A44A93424B
:1026880007D07B68A34A934203D0BD21A248FFF735
:10269800BAFA3B681B689BB2002B05D03B681B68E5
:1026A8001B0C1B04002B03D0BE219B48FFF7ABFA81
:1026B8003B685B68002B00F035823B685B68012B48
:1026C80000F030823B685B68112B00F02B823B687E
:1026D8005B68022B00F026823B685B68122B00F0D7
:1026E80021823B685B688D4A934200F01B823B68FD
:1026F8005B688B4A934200F015823B685B68894AA5
:10270800934200F00F823B685B68874A934200F06F
:1027180009823B685B68854A934200F003823B6804
:102728005B68834A934200F0FD813B685B68032B3A
:1027380000F0F881BF217848FFF765FAF2E101223D
:102748007B6A02FA03F3FB613B681B68FA69134072
:10275800BB61BA69FB699A4240F0E1817B68674ACC
:1027680093421BD07B68664A934217D07B68654AC0
:10277800934213D07B68644A93420FD07B68634AC4
:1027880093420BD07B68624A934207D07B68614AC8
:10279800934203D0CD216048FFF735FA3B685B6868
:1027A800634A934200F0C680614A934200F2EC808B
:1027B8005C4A934200F0BE805A4A934200F2E48099
:1027C8005A4A934200F0B680584A934200F2DC809D
:1027D800534A934200F0AE80514A934200F2D480AB
:1027E800514A934200F0A6804F4A934200F2CC80AF
:1027F800122B2BD8122B00F2C78001A252F823F01B
:102808003D2900085D280008AF2800088B2900082A
:1028180091290008912900089129000891290008A8
:102828009129000891290008912900089129000898
:102838009129000891290008912900089129000888
:102848009129000885280008D9280008334A9342AE
:1028580070D099E03B68DB68022B0BD03B68DB68E3
:10286800012B07D03B68DB68032B03D0D5212A480E
:10287800FFF7C9F93B68DB683B6286E03B68DB68C9
:10288800022B0BD03B68DB68012B07D03B68DB6869
:10289800032B03D0DC212048FFF7B5F93B68DB6840
:1028A80004333B6271E03B68DB68022B0BD03B686A
:1028B800DB68012B07D03B68DB68032B03D0E321DF
:1028C8001548FFF7A0F93B68DB6808333B625CE01A
:1028D8003B68DB68022B0BD03B68DB68012B07D019
:1028E8003B68DB68032B03D0EA210B48FFF78BF921
:1028F8003B68DB680C333B6247E000BF00080140DF
:10290800000C014000100140001401400018014073
:10291800001C014000200140D09500080000111063
:1029280000002110000031100000121000002210D9
:10293800000032103B689B68002B0BD03B689B68FB
:10294800012B07D03B689B68022B03D0F7217C48FA
:10295800FFF759F93B689B68002B02D104233B62BF
:1029680013E03B689B68012B05D108233B627B6819
:10297800FA691A6109E008233B627B68FA695A61BF
:1029880003E000233B6200E000BFBB69FF2B01D8D6
:102998007B6801E07B6804337B61BB69FF2B02D84D
:1029A8007B6A9B0002E07B6A083B9B003B617B697A
:1029B8001A680F213B6901FA03F3DB431A40396AAD
:1029C8003B6901FA03F31A437B691A603B685B6849
:1029D80003F08053002B00F0A2805A4B9B69594AA0
:1029E80043F001039361574B9B6903F00103BB60FC
:1029F800BB68554A7B6A9B08023352F82330FB6058
:102A08007B6A03F003039B000F2202FA03F3DB4304
:102A1800FA681340FB607B684C4A93421FD07B687E
:102A28004B4A934219D07B684A4A934213D07B6839
:102A3800494A93420DD07B68484A934207D07B6845
:102A4800474A934201D105230AE0062308E00423FC
:102A580006E0032304E0022302E0012300E0002350
:102A68007A6A02F0030292009340FA681343FB600B
:102A780035497B6A9B080233FA6841F823203B6892
:102A88005B6803F48013002B06D0364B9A683549EF
:102A9800BB6913438B6006E0324B9A68BB69DB4322
:102AA800304913408B603B685B6803F40013002BCC
:102AB80006D02C4BDA682B49BB691343CB6006E080
:102AC800284BDA68BB69DB4326491340CB603B6877
:102AD8005B6803F40033002B06D0224B5A68214967
:102AE800BB6913434B6006E01E4B5A68BB69DB4366
:102AF8001C4913404B603B685B6803F48033002B30
:102B080006D0184B1A681749BB6913430B6006E0D7
:102B1800144B1A68BB69DB43124913400B607B6A8C
:102B280001337B623B681A687B6A22FA03F3002B45
:102B38007FF405AE00BF00BF2837BD4680BD00BF8B
:102B4800D095000800100240000001400008014034
:102B5800000C014000100140001401400018014021
:102B6800001C01400004014080B584B000AF7860CB
:102B78000B467B807B88002B04D07B881B0C1B04B6
:102B8800002B04D04FF4DA710948FFF73CF87B6852
:102B98009A687B881340002B02D00123FB7301E065
:102BA8000023FB73FB7B18461037BD4680BD00BF72
:102BB800D095000880B582B000AF78600B467B8066
:102BC80013467B707B88002B04D07B881B0C1B046E
:102BD800002B04D04FF4EA710E48FFF714F87B7805
:102BE800002B07D07B78012B04D040F2D51109487F
:102BF800FFF709F87B78002B03D07A887B681A6185
:102C080003E07B881A047B681A6100BF0837BD4659
:102C180080BD00BFD095000880B586B000AF786051
:102C28007B68002B01D101235CE37B681B68002BC8
:102C38001CD07B681B6803F00103002B16D17B684E
:102C48001B6803F00203002B10D17B681B6803F09C
:102C58000803002B0AD17B681B6803F00403002BD0
:102C680004D140F26511A548FEF7CDFF7B681B68CB
:102C780003F00103002B00F09A807B685B68002B4F
:102C88000ED07B685B68B3F5803F09D07B685B68D2
:102C9800B3F5A02F04D040F26B119848FEF7B3FFAC
:102CA800974B5B6803F00C03042B0CD0944B5B68C8
:102CB80003F00C03082B12D1914B5B6803F48033AB
:102CC800B3F5803F0BD18E4B1B6803F40033002B08
:102CD8006CD07B685B68002B68D1012302E37B68BA
:102CE8005B68B3F5803F06D1854B1B68844A43F483
:102CF800803313602EE07B685B68002B0CD1804B1F
:102D08001B687F4A23F4803313607D4B1B687C4A21
:102D180023F4802313601DE07B685B68B3F5A02F64
:102D28000CD1774B1B68764A43F480231360744BAD
:102D38001B68734A43F4803313600BE0704B1B68C5
:102D48006F4A23F4803313606D4B1B686C4A23F47D
:102D5800802313607B685B68002B13D0FFF72AFB86
:102D6800386108E0FFF726FB02463B69D31A642B5B
:102D780001D90323B6E2624B1B6803F40033002B2E
:102D8800F0D014E0FFF716FB386108E0FFF712FBFC
:102D980002463B69D31A642B01D90323A2E2584B9C
:102DA8001B6803F40033002BF0D100E000BF7B6800
:102DB8001B6803F00203002B79D07B681B69002B8A
:102DC80008D07B681B69012B04D040F29F114B4847
:102DD800FEF719FF7B685B691F2B04D94FF4D0718C
:102DE8004648FEF710FF464B5B6803F00C03002BC8
:102DF8000BD0434B5B6803F00C03082B1CD1404BF2
:102E08005B6803F48033002B16D13D4B1B6803F03D
:102E18000203002B05D07B681B69012B01D001231D
:102E280060E2374B1B6823F0F8027B685B69DB00C4
:102E3800334913430B603AE07B681B69002B20D0B1
:102E4800304B01221A60FFF7B5FA386108E0FFF746
:102E5800B1FA02463B69D31A022B01D9032341E296
:102E6800274B1B6803F00203002BF0D0244B1B6890
:102E780023F0F8027B685B69DB00214913430B6090
:102E880015E0204B00221A60FFF794FA386108E039
:102E9800FFF790FA02463B69D31A022B01D90323A4
:102EA80020E2174B1B6803F00203002BF0D17B686C
:102EB8001B6803F00803002B48D07B689B69002B34
:102EC80008D07B689B69012B04D04FF4F0710B4844
:102ED800FEF799FE7B689B69002B21D00A4B0122E3
:102EE8001A60FFF767FA386110E0FFF763FA0246E5
:102EF8003B69D31A022B09D90323F3E10C96000886
:102F0800001002400000424280044242674B5B6A64
:102F180003F00203002BE8D0012000F003FC15E0C9
:102F2800634B00221A60FFF745FA386108E0FFF7A3
:102F380041FA02463B69D31A022B01D90323D1E196
:102F48005A4B5B6A03F00203002BF0D17B681B68C5
:102F580003F00403002B00F0C0800023FB757B689E
:102F6800DB68002B0CD07B68DB68012B08D07B6802
:102F7800DB68052B04D040F20F214E48FEF743FED4
:102F88004A4BDB6903F08053002B0DD1474BDB69BB
:102F9800464A43F08053D361444BDB6903F08053C6
:102FA800BB60BB680123FB75434B1B6803F480734C
:102FB800002B18D1404B1B683F4A43F480731360C1
:102FC800FFF7F8F9386108E0FFF7F4F902463B69C2
:102FD800D31A642B01D9032384E1374B1B6803F40C
:102FE8008073002BF0D07B68DB68012B06D12F4B58
:102FF8001B6A2E4A43F0010313622DE07B68DB68ED
:10300800002B0CD1294B1B6A284A23F001031362B9
:10301800264B1B6A254A23F0040313621CE07B68D5
:10302800DB68052B0CD1214B1B6A204A43F00403B3
:1030380013621E4B1B6A1D4A43F0010313620BE027
:103048001A4B1B6A194A23F001031362174B1B6AB8
:10305800164A23F0040313627B68DB68002B15D043
:10306800FFF7A8F938610AE0FFF7A4F902463B69BF
:10307800D31A41F28832934201D9032332E10B4B30
:103088001B6A03F00203002BEED01DE0FFF792F954
:10309800386113E0FFF78EF902463B69D31A41F213
:1030A800883293420AD903231CE100BF0010024072
:1030B800800442420C960008007000408B4B1B6A4B
:1030C80003F00203002BE5D1FB7D012B05D1874BD3
:1030D800DB69864A23F08053D3617B68DB69002B68
:1030E8000CD07B68DB69012B08D07B68DB69022B7D
:1030F80004D040F2AD217E48FEF785FD7B68DB6990
:10310800002B00F0EE80794B5B6803F00C03082B72
:1031180000F0CE807B68DB69022B40F0B2807B68D0
:103128001B6A002B09D07B681B6AB3F5803F04D06B
:1031380040F2B6216E48FEF766FD7B685B6A002B9D
:103148004AD07B685B6AB3F5802F45D07B685B6AA1
:10315800B3F5002F40D07B685B6AB3F5402F3BD0B6
:103168007B685B6AB3F5801F36D07B685B6AB3F512
:10317800A01F31D07B685B6AB3F5C01F2CD07B6879
:103188005B6AB3F5E01F27D07B685B6AB3F5001F65
:1031980022D07B685B6AB3F5101F1DD07B685B6A21
:1031A800B3F5201F18D07B685B6AB3F5301F13D0C6
:1031B8007B685B6AB3F5401F0ED07B685B6AB3F52A
:1031C800501F09D07B685B6AB3F5601F04D040F2DA
:1031D800B7214748FEF717FD464B00221A60FFF754
:1031E800E9F8386108E0FFF7E5F802463B69D31AC9
:1031F800022B01D9032375E03C4B1B6803F00073D5
:10320800002BF0D17B681B6AB3F5803F16D17B6831
:103218009B68002B09D07B689B68B3F5003F04D0FE
:1032280040F2CD213248FEF7EEFC304B5B6823F4C8
:1032380000327B689B682D4913434B602B4B5B68BE
:1032480023F474127B68196A7B685B6A0B4327490D
:1032580013434B60274B01221A60FFF7ABF8386124
:1032680008E0FFF7A7F802463B69D31A022B01D9F9
:10327800032337E01D4B1B6803F00073002BF0D0CD
:103288002FE01C4B00221A60FFF794F8386108E021
:10329800FFF790F802463B69D31A022B01D90323A2
:1032A80020E0124B1B6803F00073002BF0D118E0EC
:1032B8007B68DB69012B01D1012313E00B4B5B68B1
:1032C800FB60FB6803F480327B681B6A9A4206D174
:1032D800FB6803F470127B685B6A9A4201D0012391
:1032E80000E0002318461837BD4680BD0010024094
:1032F8000C9600086000424280B584B000AF786048
:1033080039607B68002B01D1012376E17B681B685B
:1033180003F00103002B16D17B681B6803F002033E
:10332800002B10D17B681B6803F00403002B0AD123
:103338007B681B6803F00803002B04D140F2363188
:103348007448FEF760FC3B68002B0AD03B68012BF1
:1033580007D03B68022B04D040F237316D48FEF7A6
:1033680052FC6D4B1B6803F007033A689A4210D968
:10337800694B1B6823F0070267493B6813430B60DE
:10338800654B1B6803F007033A689A4201D0012392
:1033980033E17B681B6803F00203002B49D07B688C
:1033A8001B6803F00403002B05D05C4B5B685B4A89
:1033B80043F4E06353607B681B6803F00803002B49
:1033C80005D0564B5B68554A43F4605353607B689D
:1033D8009B68002B24D07B689B68802B20D07B685F
:1033E8009B68902B1CD07B689B68A02B18D07B68AF
:1033F8009B68B02B14D07B689B68C02B10D07B686F
:103408009B68D02B0CD07B689B68E02B08D07B682E
:103418009B68F02B04D040F25D313E48FEF7F3FB89
:103428003E4B5B6823F0F0027B689B683B49134383
:103438004B607B681B6803F00103002B51D07B684D
:103448005B68002B0CD07B685B68012B08D07B681D
:103458005B68022B04D04FF459712E48FEF7D3FB5A
:103468007B685B68012B07D12C4B1B6803F4003386
:10347800002B15D10123C0E07B685B68022B07D1C4
:10348800264B1B6803F00073002B09D10123B4E01D
:10349800224B1B6803F00203002B01D10123ACE08F
:1034A8001E4B5B6823F003027B685B681B49134370
:1034B8004B60FEF77FFFF8600AE0FEF77BFF0246ED
:1034C800FB68D31A41F28832934201D9032394E06E
:1034D800124B5B6803F00C027B685B689B009A42A6
:1034E800EBD10D4B1B6803F007033A689A4217D2D9
:1034F800094B1B6823F0070207493B6813430B601D
:10350800054B1B6803F007033A689A4208D0012369
:1035180073E000BF0C960008002002400010024033
:103528007B681B6803F00403002B25D07B68DB68ED
:10353800002B18D07B68DB68B3F5806F13D07B68ED
:10354800DB68B3F5A06F0ED07B68DB68B3F5C06F9E
:1035580009D07B68DB68B3F5E06F04D040F2A23194
:103568002848FEF750FB284B5B6823F4E0627B6831
:10357800DB68254913434B607B681B6803F008032D
:10358800002B26D07B681B69002B18D07B681B6931
:10359800B3F5806F13D07B681B69B3F5A06F0ED0AD
:1035A8007B681B69B3F5C06F09D07B681B69B3F5ED
:1035B800E06F04D040F2A9311248FEF724FB124B09
:1035C8005B6823F460527B681B69DB000E49134378
:1035D8004B6000F021F802460B4B5B681B0903F0B7
:1035E8000F030A49CB5C22FA03F3094A1360094B1B
:1035F8001B681846FEF79CFE002318461037BD4688
:1036080080BD00BF0C9600080010024068970008B3
:103618000C0000201000002080B487B000AF002309
:10362800FB600023BB6000237B6100237B600023D9
:103638003B611E4B5B68FB60FB6803F00C03042BCB
:1036480002D0082B03D027E0194B3B6127E0FB6829
:103658009B0C03F00F03174AD35C7B60FB6803F4F1
:103668008033002B10D0114B5B685B0C03F0010317
:10367800114AD35CBB607B680D4A02FB03F2BB684E
:10368800B2FBF3F37B6104E07B680C4A02FB03F3B3
:103698007B617B693B6102E0054B3B6100BF3B6995
:1036A80018461C37BD4680BC704700BF001002405A
:1036B80000127A00809700089097000800093D00E2
:1036C80080B400AF024B1B681846BD4680BC7047EB
:1036D8000C00002080B500AFFFF7F2FF0246054B53
:1036E8005B681B0A03F007030349CB5C22FA03F368
:1036F800184680BD001002407897000880B500AFDA
:10370800FFF7DEFF0246054B5B68DB0A03F00703A1
:103718000349CB5C22FA03F3184680BD001002402F
:103728007897000880B485B000AF78600A4B1B68B2
:103738000A4AA2FB03235B0A7A6802FB03F3FB60D5
:1037480000BFFB685A1EFA60002BF9D100BF00BF0A
:103758001437BD4680BC70470C000020D34D621062
:1037680080B582B000AF78607B68002B01D101235F
:10377800B5E07B681B685C4A934227D07B681B686E
:103788005A4A934222D07B681B68B3F1804F1DD000
:103798007B681B68564A934218D07B681B68554A59
:1037A800934213D07B681B68534A93420ED07B68C0
:1037B8001B68524A934209D07B681B68504A93425F
:1037C80004D040F213114F48FEF71DFA7B689B683E
:1037D800002B14D07B689B68102B10D07B689B68EB
:1037E800202B0CD07B689B68402B08D07B689B689B
:1037F800602B04D04FF48A714248FEF704FA7B68C4
:103808001B69002B0ED07B681B69B3F5807F09D03C
:103818007B681B69B3F5007F04D040F21511394865
:10382800FEF7F1F97B68DB68002B04D07B68DB6866
:10383800B3F5803F04D34FF48B713248FEF7E3F9B8
:103848007B689B69002B08D07B689B69802B04D020
:1038580040F217112B48FEF7D6F97B6893F83D30F4
:10386800DBB2002B06D17B68002283F83C20786805
:10387800FEF734FB7B68022283F83D207B681A68D8
:103888007B6804331946104600F0FCF97B68012276
:1038980083F846207B68012283F83E207B6801225A
:1038A80083F83F207B68012283F840207B6801224F
:1038B80083F841207B68012283F842207B6801223B
:1038C80083F843207B68012283F844207B68012227
:1038D80083F845207B68012283F83D2000231846A1
:1038E8000837BD4680BD00BF002C014000340140B0
:1038F8000004004000080040000C00400010004098
:10390800001400404496000880B584B000AF786089
:103918007B681B683D4A934227D07B681B683C4AFA
:10392800934222D07B681B68B3F1804F1DD07B681F
:103938001B68384A934218D07B681B68364A934202
:1039480013D07B681B68354A93420ED07B681B688E
:10395800334A934209D07B681B68324A934204D0A9
:103968004FF4E8713048FEF74EF97B6893F83D3024
:10397800DBB2012B01D0012344E07B68022283F8EB
:103988003D207B681B68DA687B681B6842F001028F
:10399800DA607B681B681D4A934218D07B681B68F5
:1039A8001B4A934213D07B681B68B3F1804F0ED03B
:1039B8007B681B68174A934209D07B681B68164AC4
:1039C800934204D07B681B68144A934211D17B68E8
:1039D8001B689B6803F00703FB60FB68062B10D08D
:1039E8007B681B681A687B681B6842F001021A60D2
:1039F80007E07B681B681A687B681B6842F0010255
:103A08001A60002318461037BD4680BD002C0140BF
:103A1800003401400004004000080040000C004051
:103A280000100040001400404496000880B582B0A1
:103A380000AF78607B681B681B6903F00203022BE8
:103A480022D17B681B68DB6803F00203022B1BD1C1
:103A58007B681B686FF002021A617B6801221A7783
:103A68007B681B689B6903F00303002B03D078680D
:103A780000F0EDF805E0786800F0E0F8786800F00C
:103A8800EFF87B6800221A777B681B681B6903F0D4
:103A98000403042B22D17B681B68DB6803F0040352
:103AA800042B1BD17B681B686FF004021A617B68CA
:103AB80002221A777B681B689B6903F44073002B0A
:103AC80003D0786800F0C3F805E0786800F0B6F82D
:103AD800786800F0C5F87B6800221A777B681B6855
:103AE8001B6903F00803082B22D17B681B68DB687D
:103AF80003F00803082B1BD17B681B686FF00802D2
:103B08001A617B6804221A777B681B68DB6903F0FB
:103B18000303002B03D0786800F099F805E0786873
:103B280000F08CF8786800F09BF87B6800221A7720
:103B38007B681B681B6903F01003102B22D17B687C
:103B48001B68DB6803F01003102B1BD17B681B6814
:103B58006FF010021A617B6808221A777B681B686D
:103B6800DB6903F44073002B03D0786800F06FF82A
:103B780005E0786800F062F8786800F071F87B6812
:103B880000221A777B681B681B6903F00103012B6D
:103B98000ED17B681B68DB6803F00103012B07D19A
:103BA8007B681B686FF001021A617868FDF72CFFCB
:103BB8007B681B681B6903F08003802B0ED17B6830
:103BC8001B68DB6803F08003802B07D17B681B68C8
:103BD8006FF080021A61786800F0A7F97B681B68AB
:103BE8001B6903F04003402B0ED17B681B68DB6820
:103BF80003F04003402B07D17B681B686FF040023D
:103C08001A61786800F035F87B681B681B6903F057
:103C18002003202B0ED17B681B68DB6803F0200390
:103C2800202B07D17B681B686FF020021A61786827
:103C380000F072F900BF0837BD4680BD80B483B07C
:103C480000AF786000BF0C37BD4680BC704780B4B9
:103C580083B000AF786000BF0C37BD4680BC7047AA
:103C680080B483B000AF786000BF0C37BD4680BC1D
:103C7800704780B483B000AF786000BF0C37BD4692
:103C880080BC704780B485B000AF786039607B68CD
:103C98001B68FB607B68334A934213D07B68324AC7
:103CA80093420FD07B68B3F1804F0BD07B682F4ACB
:103CB800934207D07B682E4A934203D07B682D4AF3
:103CC800934208D1FB6823F07003FB603B685B6894
:103CD800FA681343FB607B68224A934213D07B68DF
:103CE800214A93420FD07B68B3F1804F0BD07B6899
:103CF8001E4A934207D07B681D4A934203D07B68D3
:103D08001C4A934208D1FB6823F44073FB603B686C
:103D1800DB68FA681343FB60FB6823F080023B68AA
:103D28005B691343FB607B68FA681A603B689A68B2
:103D38007B68DA623B681A687B689A627B68094A22
:103D4800934203D07B68084A934203D13B681A69BF
:103D58007B681A637B6801225A6100BF1437BD462D
:103D680080BC7047002C0140003401400004004032
:103D780000080040000C004080B584B000AF7860B7
:103D880039607B681B685C4A934227D07B681B6854
:103D98005A4A934222D07B681B68B3F1804F1DD0EA
:103DA8007B681B68564A934218D07B681B68554A43
:103DB800934213D07B681B68534A93420ED07B68AA
:103DC8001B68524A934209D07B681B68504A934249
:103DD80004D040F2B4714F48FDF715FF3B681B68EB
:103DE800002B20D03B681B68102B1CD03B681B683D
:103DF800202B18D03B681B68302B14D03B681B68FD
:103E0800402B10D03B681B68502B0CD03B681B68BC
:103E1800602B08D03B681B68702B04D040F2B5714A
:103E28003C48FDF7F0FE3B685B68802B08D03B6898
:103E38005B68002B04D040F2B6713648FDF7E3FE0C
:103E48007B6893F83C30012B01D1022350E07B685A
:103E5800012283F83C207B68022283F83D207B689E
:103E68001B685B68FB607B681B689B68BB60FB68C2
:103E780023F07003FB603B681B68FA681343FB6020
:103E88007B681B68FA685A607B681B681A4A934209
:103E980018D07B681B68194A934213D07B681B684B
:103EA800B3F1804F0ED07B681B68154A934209D046
:103EB8007B681B68134A934204D07B681B68124ACC
:103EC80093420CD1BB6823F08003BB603B685B68FE
:103ED800BA681343BB607B681B68BA689A607B68E2
:103EE800012283F83D207B68002283F83C200023D0
:103EF80018461037BD4680BD002C014000340140F3
:103F08000004004000080040000C00400010004081
:103F1800001400407C96000880B483B000AF78603D
:103F280000BF0C37BD4680BC704780B483B000AF7B
:103F3800786000BF0C37BD4680BC704780B582B042
:103F480000AF78607B68002B01D101239FE07B687C
:103F58009B69002B2CD07B681B684F4A93420ED07C
:103F68007B681B684D4A934209D07B681B684C4AA2
:103F7800934204D04FF4B7714A48FDF744FE7B687A
:103F88009B69002B32D07B689B69B3F5807F2DD06D
:103F98007B689B69B3F5007F28D07B689B69B3F584
:103FA800407F23D040F26F113E48FDF72CFE1DE004
:103FB8007B681B68384A934218D07B681B68374A6D
:103FC800934213D07B681B68354A93420ED07B68B6
:103FD8001B68354A934209D07B681B68334A934271
:103FE80004D040F273112F48FDF70DFE7B689B68E3
:103FF800002B09D07B689B68B3F5805F04D040F242
:1040080075112848FDF7FFFD7B6893F84130DBB256
:10401800002B06D17B68002283F840207868FEF7E1
:10402800FFF87B68242283F841207B681B68DA68E4
:104038007B681B6822F40052DA60786800F02AF97D
:104048007B681B681A697B681B6822F490421A61B6
:104058007B681B685A697B681B6822F02A025A61D0
:104068007B681B68DA687B681B6842F40052DA6078
:104078007B6800225A647B68202283F841207B6891
:10408800202283F842207B6800225A6300231846C6
:104098000837BD4680BD00BF0038014000440040DD
:1040A80000480040B8960008004C0040005000400E
:1040B80080B58AB002AFF860B9603B601346FB80F8
:1040C80000237B61FB6893F84130DBB2202B6DD174
:1040D800BB68002B02D0FB88002B01D1012366E0CE
:1040E800FB6800225A64FB68212283F84120FEF70E
:1040F80061F97861FB68FA889A84FB68FA88DA843F
:10410800FB689B68B3F5805F08D1FB681B69002BCF
:1041180004D10023FB61BB68BB6103E0BB68FB61A2
:104128000023BB612AE03B6800937B690022802161
:10413800F86800F040F80346002B01D0032336E06E
:10414800FB69002B0BD1BB691B881A46FB681B68EF
:10415800C2F308025A60BB690233BB6107E0FB691E
:104168001A78FB681B685A60FB690133FB61FB68BE
:10417800DB8C9BB2013B9AB2FB68DA84FB68DB8C70
:104188009BB2002BCFD13B6800937B690022402172
:10419800F86800F010F80346002B01D0032306E06E
:1041A800FB68202283F84120002300E00223184600
:1041B8002037BD4680BD80B590B000AFF860B960CB
:1041C8003B601346FB7150E0BB6CB3F1FF3F4CD032
:1041D800BB6C002B07D0FEF7EDF802463B68D31AFC
:1041E800BA6C9A4241D2FB681B680C33BB62BB6A4B
:1041F80053E8003F7B627B6A23F4D073FB63FB6860
:104208001B680C33FA6B7A633B63396B7A6B41E852
:104218000023FB62FB6A002BE5D1FB681B681433A3
:104228007B617B6953E8003F3B613B6923F00103F5
:10423800BB63FB681B681433BA6B3A62FB61F969AC
:104248003A6A41E80023BB61BB69002BE5D1FB68F2
:10425800202283F84120FB68202283F84220FB6853
:10426800002283F8402003230FE0FB681B681A68CC
:10427800BB681340BA689A420CBF01230023DBB223
:104288001A46FB799A429FD0002318464037BD460C
:1042980080BD000080B584B000AF78607B685B6843
:1042A8005F4A934204D940F666615E48FDF7ABFC6D
:1042B8007B68DB68002B09D07B68DB68B3F5005F9F
:1042C80004D040F667615748FDF79DFC7B681B6981
:1042D800002B0ED07B681B69B3F5806F09D07B6813
:1042E8001B69B3F5C06F04D040F668614D48FDF70F
:1042F8008AFC7B685A694FF6F3731340002B03D18D
:104308007B685B69002B04D140F669614548FDF77D
:104318007AFC7B681B681B6923F440517B68DA6868
:104328007B681B680A431A617B689A687B681B690B
:104338001A437B685B691343BB607B681B68DB6857
:1043480023F4B05323F00C037A681268B9680B435E
:10435800D3607B681B685B6923F440717B689A694A
:104368007B681B680A435A617B681B682E4A934224
:1043780003D1FFF7C3F9F86002E0FFF7ABF9F86083
:10438800FA6813469B0013449A001A447B685B68DA
:104398009B00B2FBF3F3254AA2FB03235B09190137
:1043A800FA6813469B0013449A001A447B685B68BA
:1043B8009B00B2FBF3F21D4BA3FB02035B096420D5
:1043C80000FB03F3D31A1B013233184AA2FB032361
:1043D8005B0903F0F0031944FA6813469B00134481
:1043E8009A001A447B685B689B00B2FBF3F20F4BA0
:1043F800A3FB02035B09642000FB03F3D31A1B0130
:1044080032330A4AA2FB03235B0903F00F027B68DD
:104418001B680A449A6000BF1037BD4680BD00BFC4
:1044280020AA4400B8960008003801401F85EB51C7
:1044380090B488B000AFF860B9607A60FB681A463B
:10444800BB681B0E13441C462268BB687B617B69F2
:1044580093FAA3F33B613B69B3FA83F3DBB29B00A6
:104468000F2101FA03F3DB431A40BB68FB61FB69C8
:1044780093FAA3F3BB61BB69B3FA83F3DBB29B0086
:10448800796801FA03F31343236000BF2037BD4660
:1044980090BC704790B488B000AFF860B9607A609B
:1044A800FB681A46BB681B0E13441C462268BB688F
:1044B8007B617B6993FAA3F33B613B69B3FA83F3AE
:1044C800DBB29B00032101FA03F3DB431A40BB680C
:1044D800FB61FB6993FAA3F3BB61BB69B3FA83F38E
:1044E800DBB29B00796801FA03F31343236000BF32
:1044F8002037BD4690BC704790B488B000AFF860D4
:10450800B9607A60FB681A46BB681B0E13441C46E8
:104518002268BB687B617B6993FAA3F33B613B69C3
:10452800B3FA83F3DBB29B00042101FA03F3DB4304
:104538001A40BB68FB61FB6993FAA3F3BB61BB69D3
:10454800B3FA83F3DBB29B00796801FA03F31343F0
:10455800236000BF2037BD4690BC704780B487B049
:1045680000AFF860B9607A60FB68DA68BB681B0A5C
:10457800DB431A40BB681B0A7B617B6993FAA3F390
:104588003B613B69B3FA83F3DBB219467B688B4026
:104598001A43FB68DA6000BF1C37BD4680BC704711
:1045A80080B588B000AF786039607B68684A93420C
:1045B8001BD07B68674A934217D07B68664A934250
:1045C80013D07B68654A93420FD07B68644A934254
:1045D8000BD07B68634A934207D07B68624A934258
:1045E80003D0A2216148FDF70EFB3B681B6823F04E
:1045F8007B43002B05D03B681B6803F07B43002BF3
:1046080003D0A3215948FDF7FEFA3B681B681B023B
:104618001B0C7B617B693B613B6993FAA3F3FB60ED
:10462800FB68B3FA83F3DBB2FB6184E00122FB6928
:104638009A407B691340002B7AD0FB69072B06D878
:1046480040F20112FB6902FA03F3BB6108E0FB695F
:10465800083B4FF0011202FA03F343F08063BB6199
:104668003B685B68082B12D13B681B69002B07D09D
:104678003B681B69012B03D0BE213C48FDF7C3FAF8
:104688003B681B691A46B9697868FFF767FF3B689A
:104698005B68002B13D03B685B68042B0FD03B682A
:1046A8005B68082B0BD03B685B68012B07D03B6825
:1046B8005B68092B03D0C5212C48FDF7A4FA3B6899
:1046C8005B681A46B9697868FFF7B2FE3B685B68B1
:1046D800012B03D03B685B68092B29D13B689B6899
:1046E800022B0BD03B689B68012B07D03B689B686B
:1046F800032B03D0CD211D48FDF785FA3B68DB6805
:10470800002B07D03B68DB68042B03D0CE21174869
:10471800FDF779FA3B689B681A46B9697868FFF72C
:10472800B9FE3B68DB681A46B9697868FFF7E4FEAA
:10473800FB690133FB617A69FB6922FA03F3002BF9
:104748007FF474AF002318462037BD4680BD00BFF4
:1047580000080140000C0140001001400014014015
:1047680000180140001C014000200140F496000898
:1047780080B400AF034B5B6803F00C031846BD46DA
:1047880080BC70470010024080B400AF034B5B68E8
:1047980003F0F0031846BD4680BC70470010024085
:1047A80080B400AF034B5B6803F4E0631846BD4672
:1047B80080BC70470010024080B400AF034B5B68B8
:1047C80003F460531846BD4680BC70470010024091
:1047D80080B400AF034B5B6803F480331846BD46D2
:1047E80080BC70470010024080B400AF034B5B6888
:1047F80003F470131846BD4680BC70470010024091
:1048080080B400AF044B5B685B0C03F001031846EF
:10481800BD4680BC704700BF0010024080B582B022
:1048280000AF786000F020F802467B681A607B6869
:104838001B68184600F03EF802467B685A607B68A1
:104848005B68184600F04CF802467B689A607B6803
:104858005B68184600F058F802467B68DA6000BFCB
:104868000837BD4680BD000080B582B000AF002388
:104878007B60FFF77DFF0346082B0CD0082B0ED872
:10488800002B02D0042B03D009E0094B7B6009E020
:10489800074B7B6006E000F04BF8786002E0044BC1
:1048A8007B6000BF7B6818460837BD4680BD00BFE7
:1048B80000127A0080B582B000AF7860FFF764FF1D
:1048C80003461B0903F00F03044AD35C1A467B68AE
:1048D800D34018460837BD4680BD00BF689700081A
:1048E80080B582B000AF7860FFF75AFF03461B0A15
:1048F800044AD35C1A467B68D34018460837BD463D
:1049080080BD00BF7897000880B582B000AF78609E
:10491800FFF752FF0346DB0A044AD35C1A467B685A
:10492800D34018460837BD4680BD00BF78970008B9
:1049380080B582B000AF00237B6000233B60FFF7A7
:1049480047FF38603B68002B04D03B68B3F5803FD5
:1049580003D00BE00D4B7B600BE0FFF751FF0346E4
:1049680001330B4AB2FBF3F37B6002E0074B7B6039
:1049780000BFFFF739FF03469B0C02337A6802FB3E
:1049880003F318460837BD4680BD00BF00093D0047
:1049980000127A0080B483B000AF78607B68DB686F
:1049A80003F40053B3F5005F0CBF01230023DBB20F
:1049B80018460C37BD4680BC704780B483B000AF42
:1049C800786039607B681B6923F440523B681A435E
:1049D8007B681A6100BF0C37BD4680BC704780B445
:1049E80083B000AF786039607B685B6923F44072FC
:1049F8003B681A437B685A6100BF0C37BD4680BCD0
:104A08007047000080B485B000AFF860B9607A6084
:104A1800BA6813469B0013449A001A447B689B00AB
:104A2800B2FBF3F3254AA2FB03235B099BB21B01EC
:104A380099B2BA6813469B0013449A001A447B68DB
:104A48009B00B2FBF3F21D4BA3FB02035B0964203E
:104A580000FB03F3D31A1B013233184AA2FB0323CA
:104A68005B099BB203F0F0039BB20B4499B2BA689E
:104A780013469B0013449A001A447B689B00B2FBC0
:104A8800F3F20E4BA3FB02035B09642000FB03F364
:104A9800D31A1B013233094AA2FB03235B099BB2D9
:104AA80003F00F039BB20B449BB21A46FB689A6053
:104AB80000BF1437BD4680BC704700BF1F85EB514F
:104AC80080B588B000AF786039600123FB77002398
:104AD800BB617B68744A934213D07B68734A9342E4
:104AE8000FD07B68724A93420BD07B68714A93421D
:104AF80007D07B68704A934203D0CD216F48FDF7F9
:104B080082F83B681B686E4A934203D9CE216B48F2
:104B1800FDF779F83B685B68002B08D03B685B6859
:104B2800B3F5805F03D0CF216448FDF76CF83B688C
:104B38009B68B3F5805F11D03B689B68002B0DD054
:104B48003B689B68B3F5405F08D03B689B68B3F54A
:104B5800005F03D0D0215948FDF755F83B68DB6862
:104B6800002B0DD03B68DB68B3F5806F08D03B683D
:104B7800DB68B3F5C06F03D0D1215048FDF743F887
:104B88003B681B69002B0FD03B681B69042B0BD0BB
:104B98003B681B69082B07D03B681B690C2B03D0AB
:104BA800D2214648FDF72FF83B685B69002B12D0ED
:104BB8003B685B69B3F5807F0DD03B685B69B3F5F3
:104BC800007F08D03B685B69B3F5407F03D0D321F1
:104BD8003A48FDF718F87868FFF7DCFE0346002B23
:104BE8005CD17B68DB6823F4B05323F00C033A688C
:104BF80051683A68D26811433A6812690A431A43FD
:104C08007B68DA603B689B6819467868FFF7D5FED1
:104C18003B685B6919467868FFF7E1FE07F108030E
:104C28001846FFF7FBFD7B681F4A934202D17B6958
:104C3800BB611AE07B681D4A934202D13B69BB61A4
:104C480013E07B681A4A934202D13B69BB610CE0CE
:104C58007B68184A934202D13B69BB6105E07B68D7
:104C6800154A934201D13B69BB61BB69002B15D042
:104C78003B681B68002B11D00023FB773B681B683F
:104C88001A46B9697868FFF7BDFE7B689B680F2BE9
:104C980004D840F235110948FCF7B5FFFB7F1846E8
:104CA8002037BD4680BD00BF0038014000440040A9
:104CB80000480040004C0040005000402C9700087D
:104CC80020AA4400014B1868704700BF1800002054
:104CD80070B500260C4D0D4C641BA410A64209D1DA
:104CE80004F042FC00260A4D0A4C641BA410A6429C
:104CF80005D170BD55F8043B98470136EEE755F8E5
:104D0800043B98470136F2E74C9C00084C9C00088D
:104D18004C9C0008509C000803460244934200D172
:104D2800704703F8011BF9E7002B2DE9F0471F46F0
:104D3800BBBF03F100431F4600232D2388B0144650
:104D4800129A109D1370149BDDF84CA023F02008D4
:104D5800B8F1460F05D0B8F1450F00D1013502234F
:104D680000E0032307AA049206AACDE902A2CDE92E
:104D7800003522463B4601F0B7FDB8F1470F06461D
:104D880002D1119BDB0722D5B8F1460F06EB0509C6
:104D980010D13378302B0AD100220023204639461F
:104DA800FBF71EFF18B9C5F10105CAF80050DAF87B
:104DB800003099440022002320463946FBF710FFB3
:104DC80008B1CDF81C903022079B4B4507D33046DD
:104DD800079B159A9B1B136008B0BDE8F087591C08
:104DE80007911A70F0E70346F7B5002903F8022B7C
:104DF800B6BF2D222B224942092942702BDD0DF125
:104E08000704A4460A2791FBF7F60A46A64607FBBD
:104E18001615632A05F13005314604F1FF340EF802
:104E2800015CF0DC3031AEF1020504F8011C2946C2
:104E3800441C61450AD30DF10902A2EB0E02654537
:104E480088BF00221344181A03B0F0BD11F8012BD3
:104E580004F8012FEDE7302330318370C170031D52
:104E6800F1E700002DE9F04F91B00C46DDF86880BD
:104E780016461F46054602F081FF03681846099347
:104E8800FBF7CEF900230E93D8F800300A900733C9
:104E980023F0070303F1080294F81890D4F800B03F
:104EA800C8F80020D3E90023C4E91223D4E9128A00
:104EB8002AF000430B934FF0FF3240469C4B0B996E
:104EC800FBF7C0FE70BB4FF0FF324046984B0B9982
:104ED800FBF79AFE30BB0022002340465146FBF701
:104EE80089FE10B12D2384F84330924B9248B9F1D2
:104EF800470F94BF9846804603234FF0000A23616A
:104F08002BF00403236033462146284600970FAA56
:104F180000F0D4F9013040F090804FF0FF3011B02C
:104F2800BDE8F08F4246534640465146FBF78AFE9D
:104F380048B1BAF1000FB8BF2D238048B8BF84F834
:104F480043307F4BD3E7636809F0DF015A1C42D135
:104F580006236360002206920EAACDE904920DAAE8
:104F68004BF4806303920DF13302CDE901322360E3
:104F7800636842460093284653460B91FFF7D4FED8
:104F88000B99804647290D9908D1C81C02DB636834
:104F9800994240DDA9F102095FFA89F9B9F1650F73
:104FA8001FD84A46013904F150000D91FFF71BFF45
:104FB8000E9A82461318012A236102DC2268D2075E
:104FC80001D5013323619DF83330002B9BD02D236D
:104FD80084F8433097E74729BCD1002BBAD1012385
:104FE800B7E7B9F1660F18D1002963680BDD2161B5
:104FF80013B92268D00702D501330B4423614FF05F
:10500800000AA165DFE713B92268D20701D5023388
:10501800F4E70123F2E74FF067090E9B994205DB9D
:1050280023682161D807EAD54B1CE7E70029CCBFE4
:105038000122C1F102021344E0E723685A0507D4AC
:105048002369424631462846B84701302BD164E7E8
:10505800B9F1650F40F2DD80D4E912010022002386
:10506800FBF7BEFD002833D0012331462846354AD8
:10507800B84701303FF451AFDDE90D239A4202DB16
:105088002368D8070FD5DDE9092331462846B847F4
:1050980001303FF442AF4FF0000804F11A090E9BAB
:1050A800013B434509DC23689B0700F10281E06866
:1050B8000F9B9842B8BF184631E701234A4631464C
:1050C8002846B84701303FF428AF08F10108E6E761
:1050D8000D9B002B38DC012331462846194AB84776
:1050E80001303FF41AAFDDE90D23134302D12368E1
:1050F800D907D8D5DDE9092331462846B847013014
:105108003FF40BAF4FF0000904F11A0A0D9B5B4204
:105118004B4501DC0E9B94E7012352463146284655
:10512800B84701303FF4F9AE09F10109EEE700BFD5
:10513800FFFFEF7F989700089C970008A497000846
:10514800A0970008A89700080E9AA36D9A42A8BFD6
:105158001A46002A914637DC4FF0000B29EAE97914
:1051680004F11A02D4F858A0AAEB09035B4533DC12
:10517800DDE90D239A423BDB2368DA0738D40E9A1F
:105188000D99A2EB0A03A2EB01099945A8BF99461C
:10519800B9F1000F34DC4FF0000829EAE97904F18D
:1051A8001A0ADDE90D239B1AA3EB090343457FF790
:1051B8007AAF0123524631462846B84701303FF4BA
:1051C800ACAE08F10108ECE71346314642462846E2
:1051D800B8470130C0D1A0E60123314628460B92DA
:1051E800B84701303FF499AE0B9A0BF1010BB9E7C0
:1051F8003146DDE909232846B8470130BFD18CE69E
:105208004B463146284608EB0A02B8470130C2D15E
:1052180083E60E9A012A01DCDB0737D501234246D3
:1052280031462846B84701303FF477AEDDE9092317
:1052380031462846B84701303FF46FAED4E9120131
:1052480000220023FBF7CCFCD8B90E9B08F1010221
:10525800013B31462846B84701300ED15DE60123AF
:105268004A4631462846B84701303FF456AE08F161
:1052780001080E9B013B4345F1DC534604F1500203
:10528800E0E64FF0000804F11A09F2E7012342466C
:10529800DFE701234A4631462846B84701303FF444
:1052A8003CAE08F10108E3680F995B1A4345F0DC4E
:1052B800FDE64FF0000804F11909F4E72DE9F0477D
:1052C800164699468A680B6907469342B8BF134643
:1052D800336091F843200C46DDF820800AB1013391
:1052E80033602368990642BF336802333360256808
:1052F80015F0060506D104F1190AE36832689B1A0D
:10530800AB4228DC94F84320131E226818BF0123FF
:1053180092062DD44946384604F14302C04701306D
:1053280020D02368E56803F00603042B18BF002586
:1053380032684FF00006A36808BFAD1A226908BF9B
:1053480025EAE5759342C4BF9B1AED181A34B54295
:105358001AD1002008E00123524649463846C04782
:10536800013003D14FF0FF30BDE8F0870135C4E7C5
:105378003020E11881F843005A1C94F84510224463
:10538800023382F84310C5E70123224649463846CE
:10539800C0470130E6D00136D9E700002DE9FF47C4
:1053A8000C46277E9146782F80469A460C9904F140
:1053B800430207D8622F0AD8002F00F0D980582F4F
:1053C80000F0A48004F1420684F842703AE0A7F1A4
:1053D8006303152BF6D801A050F823F03D540008BC
:1053E80051540008CD530008CD530008CD53000890
:1053F800CD53000851540008CD530008CD53000880
:10540800CD530008CD5300085F55000881540008AB
:1054180041550008CD530008CD53000881550008B8
:10542800CD53000881540008CD530008CD5300081F
:10543800495500080B6804F142061A1D1B680A60EA
:1054480084F842300123A4E0256808682E0600F19C
:1054580004030AD505680B60002D03DA2D236D427D
:1054680084F843300A235E4819E015F0400F0568B8
:105478000B6018BF2DB2EFE70B682568181D086090
:10548800280601D51D6802E06906FBD51D886F2F27
:105498000CBF08230A235248002184F84310666889
:1054A800002EA8BF2168A660A4BF21F004012160D6
:1054B8000DB9002E4DD01646B5FBF3F103FB11577D
:1054C800C75D06F8017D2F46BB420D46F4D9082B6F
:1054D8000BD12368DF0708D5236961689942DEBFCD
:1054E800302306F8013C06F1FF36921B22614B4639
:1054F80021464046CDF800A003AAFFF7DFFE0130A1
:105508004CD14FF0FF3004B0BDE8F087344884F840
:1055180045700E68236856F8045B1F060E6014D5A4
:10552800D90744BF43F0200323601DB9236823F043
:10553800200323601023AFE7236843F02003236090
:105548007823284884F84530E3E75E0648BFADB2C3
:10555800E6E71646BBE70B6826681D1D60690D6007
:1055680035061B6801D5186002E07106FBD5188066
:10557800002316462361BAE70B681A1D0A601E68E5
:1055880000213046626802F01BFC08B1801B606095
:1055980063682361002384F84330A8E7324649460C
:1055A80040462369D0470130ABD023689B0713D40A
:1055B800E068039B9842B8BF1846A4E70123324627
:1055C80049464046D04701309BD00135E3680399EE
:1055D8005B1AAB42F2DCEBE7002504F11906F5E7AC
:1055E800AA970008BB9700082DE9F04F87B00393EE
:1055F8008B6817465A1EB2F5AE7F85BF6FF4AE753D
:105608005B190023029388BF40F25D138B464FF06D
:1056180000058CBF8B6002930B68804643F4F063EF
:105628004BF81C3B0C465E46AA46A946CDE90455F4
:105638000195A26852B13B681B784E2B64D8402B69
:105648003CD8A3F12B01C8B20E283AD9B9F1000F02
:1056580003D0236823F4807323600AF1FF3ABAF178
:10566800010F00F213815E4500F2058101252846ED
:1056780007B0BDE8F08FA3F161020D2AE6D801A1B9
:1056880051F822F0CB570008555600085556000827
:10569800555600082B5800080358000855560008AE
:1056A80055560008D95700085556000855560008A1
:1056B800555600085556000891570008A3F14102B5
:1056C800DBE70E29C2D801A050F821F08357000863
:1056D8005556000883570008175800085556000803
:1056E800315700086D5700086D5700086D570008BE
:1056F8006D5700086D5700086D5700086D57000872
:105708006D5700086D5700086E2B09D8602BB2D86A
:10571800542B77D0592B99D1072D97D1082529E0FB
:10572800742B6FD0792BF6E72168C8051AD5029B30
:1057380021F08001216009F101091BB1013B01320F
:105748000293A260A368013BA3602369013323612C
:105758007B68013B002B7B6040F384803B6801330E
:105768003B6066E71AEB050F7FF470AF226822F4FE
:10577800C072226006F8013BE4E7226810067FF554
:1057880065AF22F08002F4E7BAF1000F0ED1B9F14B
:10579800000F0ED1226802F4E061B1F5E06F08D184
:1057A80022F4F0624FF0010A2260E3E7BAF1020F37
:1057B80055D0012D02D0042D7FF448AF0135EDB24C
:1057C800D8E7BAF1010F7FF441AF4FF0020AD1E7F1
:1057D8007DB9B9F1000F7FF43CAF226802F4E061B3
:1057E800B1F5E06F7FF439AF22F4F0620125226051
:1057F800C0E7032DE2D0052DDEE7022D7FF426AFAA
:105808000325B7E7062D7FF421AF0725B2E7226805
:1058180091057FF51BAF22F420722260CDF8049029
:10582800A8E7226802F4A061B1F5806F06D05005A0
:105838007FF50CAFB9F1000F3FF40FAF910558BFDA
:10584800019922F4F06258BFA9EB010142F4C07239
:105858004FF0000958BFCDE9041622608AE74FF0DF
:10586800030A87E739464046D4F88031984700282C
:105878003FF4DFAEEAE6D4F87C313A46404616F803
:10588800011D98472369013B2361ECE66B1E062B3B
:1058980025D8022D36D85E457FF6E8AED4F87C319F
:1058A8003A46404616F8011D98472369013B236193
:1058B800F1E70298D4F87C3110F8011D3A460290BD
:1058C800404698472369013B23610AF1FF3A5FFA92
:1058D8008AFABAF1020FECD1033DEDB2761B2368C8
:1058E800DA052FD55B0510D55E457FF6BFAED4F837
:1058F8007C313A46404616F8011D98472369013B1A
:105908002361F1E7AA460296DFE716F8011C23692E
:10591800652903F1FF3306F1FF3523610CD04529D2
:105928000AD0D4F87C313A4640469847236916F89D
:10593800021C013BB51E23613A464046D4F87C312F
:1059480098472E46256815F0100559D135702368FB
:1059580003F4C063B3F5806F1CD1019B4B45A3EBE7
:10596800090224D100225946404600F0A1FED4F88D
:1059780000C0039B1CF0020F06460F461B6821D08F
:1059880003991A1D0A601B68C3E90067E3680133BD
:10599800E3606CE6049B002BE4D005990A232A46B1
:1059A8004046013100F010FF049B059EC21A04F224
:1059B8006F139E4228BF04F5B7763046114900F0B0
:1059C80041F8CFE71CF0040F03F1040E03D003994C
:1059D800C1F800E0D7E7039AC2F800E0D3F80080E6
:1059E80002460B46FBF72EF928B1074800F026F8C7
:1059F800C8F80000CAE730463946FBF781F9F7E7EF
:105A0800002534E6CC970008489C00080FB40A4BE0
:105A180013B51C6824B1A36913B9204601F0AAFD87
:105A280005AB2046049AA168019303F0D5F802B0AB
:105A3800BDE8104004B070471800002000487047C7
:105A48000000C07F0EB46FF0004100B59CB01DABE4
:105A580002900690079104910848094953F8042BCD
:105A68000591006802A9019302F08EFF0022029BB3
:105A78001A701CB05DF804EB03B0704718000020E2
:105A88000802FFFF2DE9F0410F46904602F024FD81
:105A980004460D46B8F1000F11D0C7F30A53C3F1FD
:105AA8006B03002B0BDD00241B0503F17F5505F567
:105AB800401522462B46FAF72BFE04460D46204693
:105AC8002946BDE8F08100002DE9F04F9B460023F0
