:020000040800F2
:1000000000000120F1750008656900086B690008AF
:1000100071690008776900087D6900080000000028
:1000200000000000000000000000000083690008DC
:100030008F690008000000009B690008A76900089C
:1000400039760008397600083976000839760008D4
:1000500039760008397600083976000839760008C4
:1000600039760008397600083976000839760008B4
:1000700039760008397600083976000839760008A4
:100080003976000839760008397600083976000894
:100090003976000839760008397600083976000884
:1000A0003976000839760008397600083976000874
:1000B0003976000839760008397600083976000864
:1000C0003976000839760008397600083976000854
:1000D0003976000839760008397600083976000844
:1000E0003976000839760008397600083976000834
:1000F0003976000839760008397600083976000824
:100100003976000839760008397600083976000813
:100110003976000839760008B56900083976000894
:1001200039760008397600083976000839760008F3
:1001300000000000000000000000000000000000BF
:1001400000000000000000000000000000000000AF
:10015000000000000000000000000000000000009F
:10016000000000000000000000000000000000008F
:10017000000000000000000000000000000000007F
:10018000000000000000000000000000000000006F
:10019000000000000000000000000000000000005F
:1001A000000000000000000000000000000000004F
:1001B000000000000000000000000000000000003F
:1001C000000000000000000000000000000000002F
:1001D000000000000000000000000000000000001F
:0401E0005FF8E0F1F3
:1001E80010B5054C237833B9044B13B10448AFF369
:1001F80000800123237010BD44020020000000008D
:100208007C10010808B5034B1BB103490348AFF341
:10021800008008BD00000000480200207C10010892
:10022800034613F8012B002AFBD1181A013870472E
:1002380081F0004102E000BF83F0004330B54FEA8F
:1002480041044FEA430594EA050F08BF90EA020FFC
:100258001FBF54EA000C55EA020C7FEA645C7FEA8F
:10026800655C00F0E2804FEA5454D4EB5555B8BFB2
:100278006D420CDD2C4480EA020281EA030382EA23
:10028800000083EA010180EA020281EA0303362DB5
:1002980088BF30BD11F0004F4FEA01314FF4801C88
:1002A8004CEA113102D0404261EB410113F0004F9A
:1002B8004FEA03334CEA133302D0524263EB430351
:1002C80094EA050F00F0A780A4F10104D5F1200EEF
:1002D8000DDB02FA0EFC22FA05F2801841F100014A
:1002E80003FA0EF2801843FA05F359410EE0A5F11E
:1002F80020050EF1200E012A03FA0EFC28BF4CF04F
:10030800020C43FA05F3C01851EBE37101F0004504
:1003180007D54FF0000EDCF1000C7EEB00006EEB11
:100328000101B1F5801F1BD3B1F5001F0CD349089B
:100338005FEA30004FEA3C0C04F101044FEA4452F2
:1003480012F5800F80F09A80BCF1004F08BF5FEA79
:10035800500C50F1000041EB045141EA050130BD59
:100368005FEA4C0C404141EB0101013C28BFB1F56B
:10037800801FE9D291F0000F04BF01460020B1FAB6
:1003880081F308BF2033A3F10B03B3F120020CDA89
:100398000C3208DD02F1140CC2F10C0201FA0CF067
:1003A80021FA02F10CE002F11402D8BFC2F1200CCC
:1003B80001FA02F120FA0CFCDCBF41EA0C01904082
:1003C800E41AA2BF01EB0451294330BD6FEA0404CB
:1003D8001F3C1CDA0C340EDC04F11404C4F12002B6
:1003E80020FA04F001FA02F340EA030021FA04F3C8
:1003F80045EA030130BDC4F10C04C4F1200220FA1F
:1004080002F001FA04F340EA0300294630BD21FA5C
:1004180004F0294630BD94F0000F83F4801306BF22
:1004280081F480110134013D4EE77FEA645C18BF16
:100438007FEA655C29D094EA050F08BF90EA020FAD
:1004480005D054EA000C04BF1946104630BD91EAA5
:10045800030F1EBF0021002030BD5FEA545C05D1A8
:100468004000494128BF41F0004130BD14F58004E7
:100478003CBF01F5801130BD01F0004545F0FE415B
:1004880041F470014FF0000030BD7FEA645C1ABF90
:10049800194610467FEA655C1CBF0B46024650EAC7
:1004A800013406BF52EA033591EA030F41F40021F3
:1004B80030BD00BF90F0000F04BF0021704730B579
:1004C8004FF4806404F132044FF000054FF000014E
:1004D80050E700BF90F0000F04BF0021704730B50F
:1004E8004FF4806404F1320410F0004548BF4042E4
:1004F8004FF000013EE700BF42004FEAE2014FEA39
:1005080031014FEA02701FBF12F07F4393F07F4F13
:1005180081F06051704732F07F4208BF704793F016
:100528007F4F04BF41F40021704730B54FF4607429
:1005380001F0004521F000411CE700BF50EA01022C
:1005480008BF704730B54FF000050AE050EA0102D5
:1005580008BF704730B511F0004502D5404261EB45
:1005680041014FF4806404F132045FEA915C3FF486
:10057800D8AE4FF003025FEADC0C18BF03325FEA23
:10058800DC0C18BF033202EBDC02C2F1200300FAD4
:1005980003FC20FA02F001FA03FE40EA0E0021FAF9
:1005A80002F11444BDE600BF70B54FF0FF0C4CF4E7
:1005B800E06C1CEA11541DBF1CEA135594EA0C0F99
:1005C80095EA0C0F00F0DEF82C4481EA030621EAD4
:1005D8004C5123EA4C5350EA013518BF52EA03350F
:1005E80041F4801143F4801338D0A0FB02CE4FF0C1
:1005F8000005E1FB02E506F00042E0FB03E54FF0F1
:100608000006E1FB03569CF0000F18BF4EF0010EE8
:10061800A4F1FF04B6F5007F64F5407404D25FEAE4
:100628004E0E6D4146EB060642EAC62141EA555197
:100638004FEAC52040EA5E504FEACE2EB4F1FD0CD9
:1006480088BFBCF5E06F1ED8BEF1004F08BF5FEA57
:10065800500E50F1000041EB045170BD06F0004609
:1006680046EA010140EA020081EA0301B4EB5C04B6
:10067800C2BFD4EB0C0541EA045170BD41F48011AE
:100688004FF0000E013C00F3AB8014F1360FDEBFD3
:10069800002001F0004170BDC4F10004203C35DAAF
:1006A8000C341BDC04F11404C4F1200500FA05F332
:1006B80020FA04F001FA05F240EA020001F00042D3
:1006C80021F0004110EBD37021FA04F642EB060149
:1006D8005EEA430E08BF20EAD37070BDC4F10C0473
:1006E800C4F1200500FA04F320FA05F001FA04F237
:1006F80040EA020001F0004110EBD37041F1000123
:100708005EEA430E08BF20EAD37070BDC4F120052D
:1007180000FA05F24EEA020E20FA04F301FA05F295
:1007280043EA020321FA04F001F0004121FA04F23D
:1007380020EA020000EBD3705EEA430E08BF20EA0D
:10074800D37070BD94F0000F0FD101F00046400047
:1007580041EB010111F4801F08BF013CF7D041EAC9
:10076800060195F0000F18BF704703F000465200CD
:1007780043EB030313F4801F08BF013DF7D043EA9E
:100788000603704794EA0C0F0CEA135518BF95EA54
:100798000C0F0CD050EA410618BF52EA4306D1D1DB
:1007A80081EA030101F000414FF0000070BD50EAFA
:1007B800410606BF1046194652EA430619D094EA84
:1007C8000C0F02D150EA013613D195EA0C0F05D16E
:1007D80052EA03361CBF104619460AD181EA0301C2
:1007E80001F0004141F0FE4141F470014FF000007A
:1007F80070BD41F0FE4141F4780170BD70B54FF015
:10080800FF0C4CF4E06C1CEA11541DBF1CEA135594
:1008180094EA0C0F95EA0C0F00F0A7F8A4EB050476
:1008280081EA030E52EA03354FEA013100F088806D
:100838004FEA03334FF0805545EA131343EA126336
:100848004FEA022245EA111545EA10654FEA0026EB
:100858000EF000419D4208BF964244F1FD0404F5A4
:10086800407402D25B084FEA3202B61A65EB030500
:100878005B084FEA32024FF480104FF4002CB6EBBD
:10088800020E75EB030E22BFB61A754640EA0C003D
:100898005B084FEA3202B6EB020E75EB030E22BF7D
:1008A800B61A754640EA5C005B084FEA3202B6EBBE
:1008B800020E75EB030E22BFB61A754640EA9C007D
:1008C8005B084FEA3202B6EB020E75EB030E22BF4D
:1008D800B61A754640EADC0055EA060E18D04FEA0B
:1008E800051545EA16754FEA06164FEAC30343EAAB
:1008F80052734FEAC2025FEA1C1CC0D111F4801F78
:100908000BD141EA00014FF000004FF0004CB6E770
:1009180011F4801F04BF01430020B4F1FD0C88BF0F
:10092800BCF5E06F3FF6AFAEB5EB030C04BFB6EB1A
:10093800020C5FEA500C50F1000041EB045170BD0D
:100948000EF0004E4EEA113114EB5C04C2BFD4EB3A
:100958000C0541EA045170BD41F480114FF0000EBE
:10096800013C90E645EA060E8DE60CEA135594EA3A
:100978000C0F08BF95EA0C0F3FF43BAF94EA0C0F3D
:100988000AD150EA01347FF434AF95EA0C0F7FF4B2
:1009980025AF104619462CE795EA0C0F06D152EA06
:1009A80003353FF4FDAE1046194622E750EA4106EA
:1009B80018BF52EA43067FF4C5AE50EA41047FF4FB
:1009C8000DAF52EA43057FF4EBAE12E74FF0FF3C60
:1009D80006E000BF4FF0010C02E000BF4FF0010C31
:1009E8004DF804CD4FEA410C7FEA6C5C4FEA430CAA
:1009F80018BF7FEA6C5C1BD001B050EA410C0CBFF9
:100A080052EA430C91EA030F02BF90EA020F00205A
:100A1800704710F1000F91EA030F58BF994208BFC1
:100A280090422CBFD8176FEAE37040F0010070477E
:100A38004FEA410C7FEA6C5C02D150EA013C07D1D5
:100A48004FEA430C7FEA6C5CD6D152EA033CD3D020
:100A58005DF8040B704700BF8446104662468C461A
:100A68001946634600E000BF01B5FFF7B7FF00284D
:100A780048BF10F1000F01BD4DF808EDFFF7F4FF76
:100A88000CBF012000205DF808FB00BF4DF808ED01
:100A9800FFF7EAFF34BF012000205DF808FB00BF24
:100AA8004DF808EDFFF7E0FF94BF012000205DF846
:100AB80008FB00BF4DF808EDFFF7CEFF94BF0120FB
:100AC80000205DF808FB00BF4DF808EDFFF7C4FFF4
:100AD80034BF012000205DF808FB00BF4FEA410C3D
:100AE8007FEA6C5C02D150EA013C0AD14FEA430C20
:100AF8007FEA6C5C02D152EA033C02D14FF000005D
:100B080070474FF0010070474FEA410212F500129A
:100B180015D211D56FF47873B3EB625212D94FEA3C
:100B2800C12343F0004343EA505311F0004F23FA26
:100B380002F018BF404270474FF00000704750EA7B
:100B4800013005D111F0004008BF6FF00040704738
:100B58004FF00000704700BF4A0011D212F5001292
:100B680011D20DD56FF47873B3EB62520ED44FEAFD
:100B7800C12343F0004343EA505323FA02F070477D
:100B88004FF00000704750EA013002D14FF0FF30BB
:100B980070474FF0000070474FEA4102B2F1E0435E
:100BA80024BFB3F5001CDCF1FE5C0DD901F0004C4C
:100BB8004FEAC0024CEA5070B2F1004F40EB83009C
:100BC80008BF20F00100704711F0804F21D113F1C8
:100BD8003872BCBF01F00040704741F480114FEA01
:100BE8005252C2F11802C2F1200C10FA0CF320FA8A
:100BF80002F018BF40F001004FEAC1234FEAD323A7
:100C080003FA0CFC40EA0C0023FA02F34FEA430310
:100C1800CCE77FEA625307D150EA01331EBF4FF099
:100C2800FE4040F44000704701F0004040F0FE40B4
:100C380040F40000704700BF80F0004002E000BFB1
:100C480081F0004142001FBF5FEA410392EA030FAF
:100C58007FEA226C7FEA236C6AD04FEA1262D2EBF9
:100C68001363C1BFD218414048404140B8BF5B42FE
:100C7800192B88BF704710F0004F40F4000020F097
:100C88007F4018BF404211F0004F41F4000121F0AD
:100C98007F4118BF494292EA030F3FD0A2F10102F7
:100CA80041FA03FC10EB0C00C3F1200301FA03F135
:100CB80000F0004302D5494260EB4000B0F5000F58
:100CC80013D3B0F1807F06D340084FEA310102F117
:100CD8000102FE2A51D2B1F1004F40EBC25008BFC9
:100CE80020F0010040EA03007047490040EB000093
:100CF800013A28BFB0F5000FEDD2B0FA80FCACF194
:100D0800080CB2EB0C0200FA0CF0AABF00EBC250C0
:100D180052421843BCBFD0401843704792F0000FAE
:100D280081F4000106BF80F400000132013BB5E701
:100D38004FEA41037FEA226C18BF7FEA236C21D077
:100D480092EA030F04D092F0000F08BF08467047DC
:100D580090EA010F1CBF0020704712F07F4F04D1AA
:100D6800400028BF40F00040704712F100723CBFBD
:100D780000F50000704700F0004343F0FE4040F4E7
:100D8800000070477FEA226216BF08467FEA2363A5
:100D98000146420206BF5FEA412390EA010F40F490
:100DA800800070474FF0000304E000BF10F00043DC
:100DB80048BF40425FEA000C08BF704743F09643C3
:100DC80001464FF000001CE050EA010208BF7047DE
:100DD8004FF000030AE000BF50EA010208BF704765
:100DE80011F0004302D5404261EB41015FEA010C7A
:100DF80002BF84460146002043F0B64308BFA3F172
:100E08008053A3F50003BCFA8CF2083AA3EBC25353
:100E180010DB01FA02FC634400FA02FCC2F1200272
:100E2800BCF1004F20FA02F243EB020008BF20F0A9
:100E38000100704702F1200201FA02FCC2F120020F
:100E480050EA4C0021FA02F243EB020008BF20EA04
:100E5800DC7070474FF0FF0C1CEAD0521EBF1CEA32
:100E6800D15392EA0C0F93EA0C0F6FD01A4480EA20
:100E7800010C400218BF5FEA41211ED04FF0006309
:100E880043EA501043EA5111A0FB01310CF0004035
:100E9800B1F5000F3EBF490041EAD3715B0040EA5B
:100EA800010062F17F02FD2A1DD8B3F1004F40EB2B
:100EB800C25008BF20F00100704790F0000F0CF0FE
:100EC800004C08BF49024CEA502040EA51207F3AC2
:100ED800C2BFD2F1FF0340EAC250704740F400009D
:100EE8004FF00003013A5DDC12F1190FDCBF00F08E
:100EF80000407047C2F10002410021FA02F1C2F13C
:100F0800200200FA02FC5FEA310040F1000053EAD7
:100F18004C0308BF20EADC70704792F0000F00F025
:100F2800004C02BF400010F4000F013AF9D040EA2B
:100F38000C0093F0000F01F0004C02BF490011F4BF
:100F4800000F013BF9D041EA0C018FE70CEAD153BD
:100F580092EA0C0F18BF93EA0C0F0AD030F0004C3D
:100F680018BF31F0004CD8D180EA010000F00040F1
:100F7800704790F0000F17BF90F0004F084691F0AF
:100F8800000F91F0004F14D092EA0C0F01D14202E9
:100F98000FD193EA0C0F03D14B0218BF084608D1B2
:100FA80080EA010000F0004040F0FE4040F40000FC
:100FB800704740F0FE4040F4400070474FF0FF0C8F
:100FC8001CEAD0521EBF1CEAD15392EA0C0F93EAD6
:100FD8000C0F69D0A2EB030280EA010C49024FEA28
:100FE800402037D04FF0805343EA111143EA1013E1
:100FF8000CF000408B4238BF5B0042F17D024FF499
:10100800000C8B4224BF5B1A40EA0C00B3EB510F73
:1010180024BFA3EB510340EA5C00B3EB910F24BF5C
:10102800A3EB910340EA9C00B3EBD10F24BFA3EBE1
:10103800D10340EADC001B0118BF5FEA1C1CE0D1A9
:10104800FD2A3FF650AF8B4240EBC25008BF20F05C
:10105800010070470CF0004C4CEA50207F32C2BFB0
:10106800D2F1FF0340EAC250704740F400004FF04D
:101078000003013A37E792F0000F00F0004C02BF7E
:10108800400010F4000F013AF9D040EA0C0093F048
:10109800000F01F0004C02BF490011F4000F013BA2
:1010A800F9D041EA0C0195E70CEAD15392EA0C0F0A
:1010B80008D142027FF47DAF93EA0C0F7FF470AF42
:1010C800084676E793EA0C0F04D14B023FF44CAF85
:1010D80008466EE730F0004C18BF31F0004CCAD11A
:1010E80030F000427FF45CAF31F000437FF43CAF56
:1010F8005FE700BF4FF0FF3C06E000BF4FF0010C78
:1011080002E000BF4FF0010C4DF804CD4FEA400259
:101118004FEA41037FEA226C18BF7FEA236C11D0A3
:1011280001B052EA530C18BF90EA010F58BFB2EB56
:10113800030088BFC81738BF6FEAE17018BF40F0D6
:10114800010070477FEA226C02D15FEA402C05D18A
:101158007FEA236CE4D15FEA412CE1D05DF8040B0F
:10116800704700BF844608466146FFE70FB5FFF7A2
:10117800C9FF002848BF10F1000F0FBD4DF808ED5A
:10118800FFF7F4FF0CBF012000205DF808FB00BF4B
:101198004DF808EDFFF7EAFF34BF012000205DF8A5
:1011A80008FB00BF4DF808EDFFF7E0FF94BF0120F2
:1011B80000205DF808FB00BF4DF808EDFFF7D2FFEF
:1011C80094BF012000205DF808FB00BF4DF808ED32
:1011D800FFF7C8FF34BF012000205DF808FB00BFFF
:1011E8004FEA4002B2F1FE4F0FD34FF09E03B3EB2C
:1011F80012620DD94FEA002343F0004310F0004F6C
:1012080023FA02F018BF404270474FF000007047C1
:1012180012F1610F01D1420205D110F0004008BF60
:101228006FF0004070474FF00000704742000ED248
:10123800B2F1FE4F0BD34FF09E03B3EB126209D409
:101248004FEA002343F0004323FA02F070474FF0BF
:101258000000704712F1610F01D1420202D14FF034
:10126800FF3070474FF00000704700BF7BB972B97C
:101278000029BEBF00204FF0004106E008BF00284B
:101288001CBF6FF000414FF0FF3000F0D9B9ADF14D
:10129800080C6DE904CE002909DB002B1ADB00F0ED
:1012A8006DF8DDF804E0DDE9022304B07047404240
:1012B80061EB4101002B1BDB00F060F8DDF804E076
:1012C800DDE9022304B0404261EB4101524263EB85
:1012D80043037047524263EB430300F04FF8DDF8D5
:1012E80004E0DDE9022304B0404261EB41017047AC
:1012F800524263EB430300F041F8DDF804E0DDE916
:10130800022304B0524263EB4303704738B50C46DE
:1013180005462146284600220023FFF7B7FB28B9D7
:1013280028462146BDE8384000F00AB8284604F1AE
:10133800004100F005F8404261EB410138BD00BFB3
:10134800D0B500220B4B06460F46FFF72DF9FFF7E5
:1013580003FC0446FFF7AEF80022074BFFF724F919
:1013680002460B4630463946FEF766FFFFF7F4FBA8
:101378002146D0BD0000F03D0000F0412DE9F047C6
:10138800089E0D4604468E46002B40F083808A4214
:10139800174647D9B2FA82F34BB1C3F1200105FAD7
:1013A80003FE20FA01F19F4041EA0E0E9C404FEAED
:1013B8001748BEFBF8FC1FFA87F908FB1CE20CFB78
:1013C80009F0210C41EA024290420AD9BA180CF1FC
:1013D800FF3180F01881904240F21581ACF1020C87
:1013E8003A44121AB2FBF8F008FB102200FB09F18C
:1013F800A4B244EA0244A14209D93C1900F1FF32DF
:1014080080F00381A14240F2008102383C44641A12
:10141800002140EA0C401EB10022DC40C6E900422F
:10142800BDE8F08702B9FFDEB2FA82F3002B4FD194
:101438008D1A01214FEA124E1FFA82F8B5FBFEFC05
:101448000EFB1C5508FB0CF0220C42EA0545A8428D
:1014580007D97D190CF1FF3202D2A84200F2E980C7
:1014680094462D1AB5FBFEF00EFB105508FB00F84C
:10147800A4B244EA0544A04507D93C1900F1FF325B
:1014880002D2A04500F2D9801046A4EB080440EA35
:101498000C40C0E78B4208D9002E00F0B180002133
:1014A800C6E900050846BDE8F087B3FA83F10029CC
:1014B8004BD1AB4202D3824200F2B980841A65EB69
:1014C800030301209E46002EAAD0C6E9004EA7E7D6
:1014D8009F40C3F12002D1404FEA174EB1FBFEF006
:1014E8001FFA87F80EFB101124FA02F29D4000FB48
:1014F80008FC2A43150C45EA0145AC4504FA03F4F7
:1015080009D97D1900F1FF3180F08F80AC4540F298
:101518008C8002383D44A5EB0C05B5FBFEF10EFBB3
:10152800115C01FB08F995B245EA0C45A94507D9B4
:101538007D1901F1FF3274D2A94572D902393D44AF
:10154800A5EB090541EA004178E7C1F120078B4086
:1015580022FA07FC4CEA030C25FA07F44FEA1C4E62
:10156800B4FBFEF91FFA8CF80EFB194420FA07F3B6
:1015780009FB08FA8D401D432B0C43EA0444A2459D
:1015880002FA01F200FA01F309D91CEB040409F18B
:10159800FF3048D2A24546D9A9F102096444A4EB18
:1015A8000A04B4FBFEF00EFB104400FB08FAADB2CF
:1015B80045EA0444A24508D91CEB040400F1FF35B0
:1015C8002DD2A2452BD90238644440EA0940A0FB39
:1015D8000289A4EB0A044C45C6464D4619D316D0D9
:1015E8005EB1B3EB0E0264EB050404FA07F722FAC6
:1015F80001F31F43CC40C6E900740021BDE8F08721
:10160800314630460CE78C46EBE61046FFE643458C
:10161800E6D2B8EB020E69EB0C050138E0E7284684
:10162800D3E711468CE78146B9E7084673E70846D1
:1016380049E7ACF1020C3D4413E702383C4424E787
:10164800704700BF80B500AF0821054806F048FC88
:101658000346002B01D1012300E00023184680BD7A
:101668000020014080B582B000AF0346FB71FFF750
:10167800E9FF0346012B0ED1114B1B881A46FB7953
:1016880001335B009A420CDA0D4B1B8801339AB286
:101698000B4B1A8005E00A4B00221A80094B0022E6
:1016A8001A80074B1B88022B04D1064B01221A8093
:1016B800012300E0002318460837BD4680BD00BF5F
:1016C800620200206002002080B584B000AF3B6059
:1016D8000346FB710B46BB7113467B7100F0B4F8EF
:1016E800FB795B00DBB2184600F080F900F0F8F8EF
:1016F8000346002B03D000F0CDF8012322E0BB798C
:10170800184600F073F900F0EBF80023FB7312E0C1
:10171800FB7B3A6813441B78184600F067F900F021
:10172800DFF80346002B03D000F0B4F8012309E0EA
:10173800FB7B0133FB73FA7B7B799A42E8D300F099
:10174800A9F8002318461037BD4680BD80B582B081
:1017580000AF3B600346FB710B46BB7113467B71C0
:1017680000F072F8FB795B00DBB2184600F03EF936
:1017780000F0B6F80346002B03D000F08BF80123E5
:1017880032E0BB79184600F031F900F0A9F800F012
:101798005BF8FB795B005BB243F001035BB2DBB241
:1017A800184600F023F900F09BF817E07B79012B2D
:1017B80007D1002000F054F903461A463B681A7016
:1017C80006E0012000F04CF903461A463B681A70FF
:1017D8007B79013B7B713B6801333B607B79002B54
:1017E800E4D100F057F8002318460837BD4680BDFD
:1017F80080B500AF14E00E480BF064F900224FF4F6
:1018080080410C4806F092FBC82003F0C1FD01227C
:101818004FF48041074806F089FBC82003F0B8FD63
:1018280002F05CF90346002BE5D100BF00BF80BD84
:10183800981001080020014080B500AF022003F095
:1018480069FD00BF80BD000080B500AF0E4B5B682E
:101858000D4A23F4704353600B4B5B680A4A43F408
:1018680040535360094B01221A60094B01221A6048
:10187800FFF7E2FF054B00221A60FFF7DDFF044B7C
:1018880000221A6000BF80BD000C0140AC812142DB
:10189800A881214280B500AF0E4B5B680D4A23F446
:1018A800704353600B4B5B680A4A43F440535360E0
:1018B800094B00221A60094B00221A60FFF7BCFF8F
:1018C800054B01221A60054B01221A60FFF7B4FF8D
:1018D80000BF80BD000C0140A8812142AC8121429B
:1018E80080B582B000AF0023FB71164B5B68154AC8
:1018F80023F470435360134B5B68124A43F400436C
:101908005360114B01221A60FFF796FF0F4B01221B
:101918001A60FFF791FF09E0FB790133FB71FB794E
:10192800FA2B03D9FFF7B6FF012307E0084B1B6822
:10193800002BF1D1054B00221A6000231846083706
:10194800BD4680BD000C0140AC812142A8812142E6
:101958002C81214280B500AF0E4B00221A600E4B3D
:101968005B680D4A23F4704353600B4B5B680A4A6B
:1019780043F440535360094B00221A60FFF75CFFA1
:10198800044B01221A60FFF757FF024B00221A602E
:1019980000BF80BDA8812142000C0140AC812142DA
:1019A80080B500AF0E4B00221A600E4B5B680D4AE3
:1019B80023F4704353600B4B5B680A4A43F440536B
:1019C8005360094B01221A60FFF736FF044B0122CE
:1019D8001A60FFF731FF024B00221A6000BF80BD7A
:1019E800A8812142000C0140AC81214280B584B01D
:1019F80000AF0346FB71174B5B68164A23F470432C
:101A08005360144B5B68134A43F440535360124BC2
:101A180000221A600023FB7314E0FB79DB09DAB2B9
:101A28000E4B1A60FB795B00FB710B4B01221A60AD
:101A3800FFF702FF084B00221A60FFF7FDFEFB7B51
:101A48000133FB73FB7B072BE7D900BF00BF1037BF
:101A5800BD4680BD000C0140A8812142AC812142D5
:101A680080B584B000AF0346FB710023BB731B4BEA
:101A78005B681A4A23F470435360184B5B68174A33
:101A880043F4004353600023FB7316E0144B002219
:101A98001A60FFF7D1FE124B01221A60BB7B5B0074
:101AA800BB73104B1B68002B02D0BB7B0133BB738D
:101AB800FFF7C2FEFB7B0133FB73FB7B072BE5D9EA
:101AC800FB79002B02D1FFF76BFF01E0FFF742FF24
:101AD800BB7B18461037BD4680BD00BF000C0140D7
:101AE800A88121422C81214280B584B000AF0346F1
:101AF800FB71294B93F82430002B1CD0FB79002B69
:101B080002D00223FB7301E00023FB73224B5B68C6
:101B18001878214B1B68D97B07F10F030122FFF7C7
:101B2800D3FD0346002B02D04FF0FF3330E0FA7BA1
:101B3800194B5A742BE0184B9B7A002B02D14FF0AB
:101B4800FF3325E0FB79002B05D0134B5B7C002B82
:101B580001D000231CE0FB79002B02D00123FB738A
:101B680001E00023FB730C4B5B6818780A4B1B6879
:101B7800D97B07F10F030122FFF7A6FD0346002BCF
:101B880002D04FF0FF3303E0FA7B034B5A74002373
:101B980018461037BD4680BD0000002080B582B0D1
:101BA80000AF80233B70824B5B681878804B1B68C2
:101BB800997C3B460122FFF787FD0346002B02D0A4
:101BC8004FF0FF33EFE0642003F0E2FB00233B70AB
:101BD800774B5B681878764B1B68997C3B460122EB
:101BE800FFF772FD0346002B02D04FF0FF33DAE017
:101BF8006F4B5B6818786E4B1B68997D3B460622D5
:101C0800FFF7A4FD0346002B02D04FF0FF33CAE0D4
:101C18007B799B005BB203F004035AB2FB785B004C
:101C28005BB203F002035BB213435AB27B785BB238
:101C380003F001035BB213435BB2FB71FB79002B2A
:101C480015D0FB79012B03D1594B0122DA7438E006
:101C5800FB79022B03D1564B0022DA7431E0FB7971
:101C6800194654480AF0A8FE4FF0FF339BE0504B4A
:101C78005B6818784E4B1B68D9783B460122FFF702
:101C880065FD0346002B02D04FF0FF338BE03B7815
:101C980003F00F03FB71FB79002B05D146480AF0CE
:101CA80011FF4FF0FF337EE0FB79042B06D1434848
:101CB8000AF008FF3E4B0122DA7402E03C4B002296
:101CC800DA743B4BFF229A72394BFF221A72384B57
:101CD800FF225A72364BFF22DA72354B4FF6FF72EB
:101CE800DA81334BFF221A74314BFF229A74304B3E
:101CF80001221A732E4B012283F822202C4B00223A
:101D080083F823202A4B00225A75294B00221A7582
:101D18000C2200212A4809F0D5FF254B002283F820
:101D28002420234B002283F82520214B0022DA842B
:101D38004FF4FA6000F0FAF90346002B02D04FF096
:101D4800FF3330E0022000F07FFA0346002B02D078
:101D58004FF0FF3327E02A2000F01AFB0346002B40
:101D680002D04FF0FF331EE0322000F077FB03462D
:101D7800002B02D04FF0FF3315E0002000F05AFC92
:101D88000346002B02D04FF0FF330CE0002000F098
:101D9800A7FD0346002B02D04FF0FF3303E00020DD
:101DA80000F09AFC002318460837BD4680BD00BFE6
:101DB80000000020DC10010804110108501101087E
:101DC8001600002080B584B000AF0346FB71FB7994
:101DD800282B02D94FF0FF336AE0FB79002B1CD186
:101DE800002000F043FE00233B7307237B73324B34
:101DF8005B681878304B1B68997C07F10C0302224A
:101E0800FFF762FC0346002B02D04FF0FF334FE090
:101E1800294B00221A7500234AE0012000F026FE13
:101E280020233B73FB79012B05D100237B7305200D
:101E380000F0AEFA16E0FB79052B05D801237B7379
:101E4800052000F0A5FA0DE0FB79142B05D8022334
:101E58007B730A2000F09CFA04E003237B731420B0
:101E680000F096FA7B7B9B015BB243F007035BB201
:101E7800DBB27B73104B5B6818780F4B1B68997C3F
:101E880007F10C030222FFF71FFC0346002B02D0C8
:101E98004FF0FF330CE0084B08229A72064B0022E1
:101EA8001A73054B01221A75002000F0C3FB0023AA
:101EB80018461037BD4680BD0000002080B582B0AE
:101EC80000AF7E4B9B7A002B02D14FF0FF33F1E03D
:101ED8000023FB71794B5B681878784B1B68D97BBA
:101EE800FB1D0122FFF7F0FB0346002B02D04FF049
:101EF800FF33DFE0714B5B681878704B1B685979CA
:101F0800FB1D0122FFF7E0FB0346002B02D04FF038
:101F1800FF33CFE0694B5B681878684B1B68197909
:101F2800FB1D0122FFF7D0FB0346002B02D04FF028
:101F3800FF33BFE0614B93F82430002B5CD00C23B7
:101F4800FB715E4B5B6818785C4B1B681979FB1D4D
:101F58000122FFF7B9FB0346002B02D04FF0FF33F5
:101F6800A8E0322003F014FAC023FB71534B9B7A8C
:101F780003F00103002B04D0FB7943F02003DBB20C
:101F8800FB714E4B5B6818784C4B1B681979FB1D2D
:101F98000122FFF799FB0346002B02D04FF0FF33D5
:101FA80088E0464B5B7C002B02D00223FB7101E0EA
:101FB8000023FB71414B5B681878404B1B68D97B49
:101FC800FB1D0122FFF780FB0346002B02D04FF0D8
:101FD800FF336FE00023FB71384B5B681878374B91
:101FE8001B685979FB1D0122FFF76EFB0346002B86
:101FF8005FD04FF0FF335DE00423FB712F4B5B682C
:1020080018782E4B1B681979FB1D0122FFF75CFB22
:102018000346002B02D04FF0FF334BE0274B9B7C4D
:10202800002B05D1254B9B7A03F00103002B02D12D
:102038004023FB7101E06023FB71204B5B6818783B
:102048001E4B1B681979FB1D0122FFF73DFB034658
:10205800002B02D04FF0FF332CE0322003F098F928
:10206800164B5B7C002B02D00123FB7101E000239F
:10207800FB71124B5B681878104B1B68D97BFB1DF2
:102088000122FFF721FB0346002B02D04FF0FF335C
:1020980010E00A4B5B681878084B1B685979084BA5
:1020A8000122FFF711FB0346002B02D04FF0FF334C
:1020B80000E0002318460837BD4680BD0000002018
:1020C8001000002080B483B000AF7860164B1B7AF4
:1020D800032B1ED801A252F823F000BFF5200008F8
:1020E800FD20000807210008112100087B68FA225A
:1020F8001A8012E07B684FF4FA721A800DE07B6850
:102108004FF47A721A8008E07B684FF4FA621A80FA
:1021180003E07B6800221A8000BF002318460C37B2
:10212800BD4680BC704700BF0000002080B584B069
:1021380000AF0346FB80264B9B7A002B02D14FF061
:10214800FF3341E0FB88B3F5FA6F17D0B3F5FA6FA8
:1021580017DCB3F57A7F0ED0B3F57A7F11DCFA2B52
:1021680003D0B3F5FA7F03D00BE00023FB730BE039
:102178000823FB7308E01023FB7305E01823FB73A7
:1021880002E04FF0FF331FE0114B1A7AFB7BDB08AC
:10219800DBB29A4201D1002316E00D4B5B68187838
:1021A8000B4B1B68997907F10F030122FFF78CFA93
:1021B8000346002B02D04FF0FF3305E0FB7BDB0822
:1021C800DAB2034B1A72002318461037BD4680BD99
:1021D8000000002080B483B000AF7860194B5B7AB0
:1021E800032B1BD801A252F823F000BF05220008D8
:1021F8000D220008152200081D2200087B68022213
:102208001A700EE07B6804221A700AE07B680822C4
:102218001A7006E07B6810221A7002E04FF0FF3354
:102228000AE0084BDB7C002B05D07B681B785B0041
:10223800DAB27B681A70002318460C37BD4680BC9A
:10224800704700BF0000002080B584B000AF03468F
:10225800FB71304B9B7A002B02D14FF0FF3354E0D7
:10226800FB79023B0E2B2DD801A252F823F000BFB8
:10227800B5220008CD220008BB220008CD220008A4
:10228800CD220008CD220008C1220008CD22000876
:10229800CD220008CD220008CD220008CD2200085A
:1022A800CD220008CD220008C72200080023FB73B6
:1022B8000BE00823FB7308E01023FB7305E01823E9
:1022C800FB7302E04FF0FF331FE0124B5A7AFB7B9F
:1022D800DB08DBB29A4201D1002316E00D4B5B68A4
:1022E80018780C4B1B68D97907F10F030122FFF707
:1022F800EBF90346002B02D04FF0FF3305E0FB7BE0
:10230800DB08DAB2034B5A72002318461037BD4671
:1023180080BD00BF0000002080B483B000AF7860AB
:102328001A4BDB7A013B052B26D801A252F823F081
:102338005123000859230008612300086923000875
:1023480071230008792300087B68BC221A8017E0F3
:102358007B6862221A8013E07B682A221A800FE0C9
:102368007B6814221A800BE07B680A221A8007E037
:102378007B6805221A8003E07B6800221A8000BF70
:10238800002318460C37BD4680BC7047000000206B
:1023980080B584B000AF0346FB80234B9B7A002BAB
:1023A80002D14FF0FF333BE0FB88BB2B02D901235E
:1023B800FB7319E0FB88612B02D90223FB7313E03E
:1023C800FB88292B02D90323FB730DE0FB88132B11
:1023D80002D90423FB7307E0FB88092B02D90523E4
:1023E800FB7301E00623FB730F4BDA7AFB7B9A42FF
:1023F80001D1002314E00C4B5B6818780A4B1B686A
:10240800997807F10F030122FFF75EF90346002BC5
:1024180002D04FF0FF3303E0FA7B034BDA7200235C
:1024280018461037BD4680BD0000002080B483B038
:1024380000AF7860084B93F82430002B02D04FF09F
:10244800FF3304E0044BDA897B681A8000231846BE
:102458000C37BD4680BC70470000002080B584B0B2
:1024680000AF0346FB802F4B9B7A002B02D14FF025
:10247800FF3353E02B4B93F82430002B02D04FF05E
:10248800FF334BE0274B1B7D002B0FD0FB88002B25
:1024980009D0FB88282B06D8FB88DBB21846FFF743
:1024A80091FC00233AE00020FFF78CFCFB88032B0B
:1024B80002D80423FB8006E0FB88B3F57A7F02D9B3
:1024C8004FF47A73FB80FB884FF47A7292FBF3F334
:1024D800DBB2013BDBB2FB73124B5B681878114B24
:1024E8001B68597807F10F030122FFF7EDF803463F
:1024F800002B02D04FF0FF3310E0FB7B01334FF489
:102508007A7292FBF3F39AB2064BDA81054BDB89B8
:102518005B089BB21846FFF73BFF002318461037AD
:10252800BD4680BD0000002080B483B000AF786055
:10253800144B1B7A032B1BD801A252F823F000BFBF
:10254800592500086125000869250008712500083B
:102558007B680D4A1A600EE07B680C4A1A600AE034
:102568007B680B4A1A6006E07B680A4A1A6002E038
:102578004FF0FF3300E0002318460C37BD4680BCFF
:10258800704700BF000000200000034300008342A2
:10259800333303423333834180B483B000AF786070
:1025A8001B4B5B7A032B1FD801A252F823F000BF04
:1025B800C9250008D3250008DD250008E7250008FF
:1025C8007B684FF480421A8011E07B6841F69C7268
:1025D8001A800CE07B684FF480521A8007E07B6811
:1025E8004FF400621A8002E04FF0FF330AE0084B14
:1025F800DB7C002B05D07B681B885B089AB27B6864
:102608001A80002318460C37BD4680BC704700BFAF
:102618000000002080B483B000AF7860044B1A7CBF
:102628007B681A70002318460C37BD4680BC70477B
:102638000000002080B584B000AF0346FB71002382
:10264800FB60FB7923F00103FB71224B93F82430E4
:10265800002B01D0002338E01E4B9B7A002B02D1BF
:102668004FF0FF3331E01B4B1B7CFB72194B9A7AFE
:10267800FB791340DAB2174B1A74164B1B7CFA79A4
:102688009A4203D04FF0FF33FB6001E00023FB6068
:10269800FB79002B03D10F4B1B7D002B03D00120AE
:1026A800FFF722FA02E00020FFF71EFAFB79002B61
:1026B8000AD0FFF703FC0346002B05D0054AFB7A36
:1026C80013744FF0FF3300E0FB6818461037BD461F
:1026D80080BD00BF0000002080B584B000AF034675
:1026E800FB71FB7903F07003002B02D00123FB730D
:1026F80007E0FB79002B02D00023FB7301E04023A5
:10270800FB73374B5B681878354B1B68997C07F16E
:102718000F030122FEF7D8FF0346002B05D0304BEC
:1027280000229A724FF0FF3356E0FB7B23F0400300
:10273800DAB22B4B1A730023FB73FB7903F04003C7
:10274800002B04D1FB7B43F00403DBB2FB73FB7962
:1027580003F02003002B04D1FB7B43F00203DBB220
:10276800FB73FB7903F01003002B04D1FB7B43F0D0
:102778000103DBB2FB73FB7903F00803002B04D1E0
:10278800FB7B43F03803DBB2FB73154B5B681878AF
:10279800134B1B68D97C07F10F030122FEF794FF46
:1027A8000346002B05D00E4B00229A724FF0FF33E0
:1027B80012E0FB79002B05D0FB79082B02D0002012
:1027C80000F054F9064AFB799372054B00221A75FA
:1027D800322002F0DDFD002318461037BD4680BDCB
:1027E8000000002080B586B000AF0346B9607A606B
:1027F800FB813A4B93F82430002B02D14FF0FF3382
:1028080068E0364B9B7A002B02D14FF0FF3361E032
:10281800324B5B681878314B1B68997A07F11403BF
:102828000222FEF793FF0346002B02D04FF0FF333E
:1028380050E03B7D1B021AB27B7D1BB213431BB2D7
:10284800FB82FA8AFB899A4205D27B6800221A70B9
:102858004FF0FF333EE0214B5B685B885B089BB21F
:10286800FA8A9A421AD91D4B5B6818781B4B1B6869
:10287800597C07F114030122FEF768FF0346002B79
:1028880002D04FF0FF3325E03B7D03F01003002B0F
:1028980004D0FFF713FB6FF001031BE00F4B5B68DD
:1028A80018780E4B1B68D97AFB89DAB2BB68FEF739
:1028B8004DFF0346002B02D04FF0FF330AE0FA8A9F
:1028C800FB89B2FBF3F39BB2DBB2013BDAB27B6864
:1028D8001A70002318461837BD4680BD0000002036
:1028E80080B584B000AF0346FB715F4B9B7CFA79DF
:1028F8009A4201D10023B2E0FB79002B50D05A4B09
:102908005B681878584B1B68197907F10F03012287
:10291800FEF71CFF0346002B02D04FF0FF339EE06A
:10292800FB7B23F02003DBB2FB734F4B5B6818780B
:102938004D4B1B68197907F10F030122FEF7C4FEFE
:102948000346002B02D04FF0FF3388E0032002F04B
:102958001FFD0223FB73444B93F82230002B04D055
:10296800FB7B63F07F03DBB2FB733F4B93F82330B1
:10297800002B04D0FB7B43F03003DBB2FB733A4BF4
:102988005B681878384B1B68197D07F10F03012223
:10299800FEF79AFE0346002B5DD04FF0FF335EE052
:1029A800314B5B681878304B1B68197907F10F03B6
:1029B8000122FEF7CBFE0346002B02D04FF0FF3377
:1029C8004DE0294B9B7A03F00103002B05D0FB7BDC
:1029D80043F02003DBB2FB7304E0FB7B23F020030E
:1029E800DBB2FB73204B5B6818781F4B1B681979A7
:1029F80007F10F030122FEF767FE0346002B02D002
:102A08004FF0FF332BE0032002F0C2FC164B93F883
:102A18002230002B02D08023FB7301E00023FB73DC
:102A2800114B93F82330002B04D0FB7B43F0300389
:102A3800DBB2FB730C4B5B6818780B4B1B68197D7A
:102A480007F10F030122FEF73FFE0346002B02D0D9
:102A58004FF0FF3303E0044AFB79937400231846D0
:102A68001037BD4680BD00BF0000002080B584B08F
:102A780000AF0346FB711E4B93F82330FA799A4254
:102A880001D1002330E0FB79002B02D03023FB7307
:102A980001E00023FB73164B9B7C002B04D0FB7BCF
:102AA80043F00203DBB2FB73114B93F82230002B87
:102AB80004D0FB7B63F07F03DBB2FB730C4B5B68DA
:102AC80018780B4B1B68197D07F10F030122FEF7DD
:102AD800FBFD0346002B02D04FF0FF3304E0044A0D
:102AE800FB7982F82330002318461037BD4680BD95
:102AF8000000002090B587B000AF7860414B5B685C
:102B0800187807F1100304220D21FEF71FFE034673
:102B1800002B01D0072371E03B7CDB105BB203F094
:102B28001C035AB2FB7C1B115BB203F003035BB2BC
:102B380013435BB2DBB23B737B7CDB105BB203F00D
:102B48001C035AB2FB7C9B105BB203F003035BB21D
:102B580013435BB2DBB27B73BB7CDB105BB203F06D
:102B68001C035AB2FB7C5BB203F003035BB2134352
:102B78005BB2DBB2BB730023FB753BE0FB7D07F167
:102B88001802134413F80C3C002B07D1FB7D9B0063
:102B98007A6813444FF000021A6028E0FB7D9B001E
:102BA8007A681344184A1A600DE0FB7D9B007A6826
:102BB80013441868FB7D9B007A68D4181349FEF704
:102BC80049F903462360FB7D07F118021A4412F8FD
:102BD8000C2C013AD1B207F118021A4402F80C1C65
:102BE80007F11802134413F80C3C002BDDD1FB7DD0
:102BF8000133FB75FB7D022BC0D9002318461C3717
:102C0800BD4690BD000000207B14AE3E1D5A843F97
:102C180080B58AB000AF7860396000233B6207F165
:102C28000C031846FFF766FF00237B6267E07B6AA8
:102C38009B007A6813441A687B6A9B0039680B44C6
:102C48001B68D31A002BB8BF5B421846FEF7AEF8D4
:102C580003464FF08F411846FEF7B0F90346FB6173
:102C68007B6A9B0007F12802134453F81C3C4FF081
:102C780000011846FEF782FA0346002B25D17B6A2D
:102C88009B0007F12802134453F81C3C1946F869C5
:102C9800FEF794F903464FF07E511846FDF7D0FF32
:102CA8000346BB61BB6923F00043194A1146184625
:102CB800FEF78CFA0346002B1ED001227B6A02FA2B
:102CC80003F33A6A13433B6216E0124B1946F8695C
:102CD800FEF75EFA0346002B07D10F4B1946F86939
:102CE800FEF774FA0346002B06D001227B6A02FA2B
:102CF80003F33A6A13433B627B6A01337B627B6A64
:102D0800022B94DD3B6A18462837BD4680BD00BFBC
:102D1800295C0F3E9A99993E3333733F80B588B04A
:102D280000AF786039600023BB61544B5B6818784A
:102D380007F1080303220D21FEF708FD0346002BC7
:102D480001D0072395E03B7A03F01F03DBB23B7207
:102D58007B7A03F01F03DBB27B72BB7A03F01F039D
:102D6800DBB2BB720023FB617EE0FB699B007A68E3
:102D780013441A68FB699B0039680B441B68D31A13
:102D8800002BB8BF5B421846FEF710F803464FF019
:102D98008F411846FEF712F903463B6107F1080216
:102DA800FB6913441B78002B44D083231846FDF796
:102DB800F9FF034619463248FEF700F903467B61DE
:102DC80005E030497869FEF745F803467B6107F16D
:102DD8000802FB6913441B78013BD9B207F10802CA
:102DE800FB6913440A461A7007F10802FB69134489
:102DF8001B78002BE5D179693869FEF7DFF80346BF
:102E08004FF07E511846FDF71BFF0346FB60FB6839
:102E180023F000431C4A11461846FEF7D7F903462B
:102E2800002B1ED00122FB6902FA03F3BA6913438F
:102E3800BB6116E0154B19463869FEF7A9F9034638
:102E4800002B07D1124B19463869FEF7BFF9034624
:102E5800002B06D00122FB6902FA03F3BA69134377
:102E6800BB61FB690133FB61FB69022B7FF77DAF17
:102E7800BB6918462037BD4680BD00BF0000002052
:102E880000B04C4554E3853F295C0F3E00002041CB
:102E98000000D2422DE9B04F94B000AF7862396299
:102EA8001346FB77012387F83C30002387F83D3031
:102EB800A34B5B681878A24B1B68997C07F13C030D
:102EC8000222FEF701FC0346002B02D04FF0FF332D
:102ED800E4E2C82002F05CFA002387F83C30984B03
:102EE8005B681878964B1B68D97B07F13C03012275
:102EF800FEF7EAFB0346002B02D04FF0FF33CDE28A
:102F08008F4B5B6818788E4B1B68597907F13C0327
:102F18000122FEF7D9FB0346002B02D04FF0FF3306
:102F2800BCE2874B5B681878854B1B68997C07F176
:102F38003C030122FEF7C8FB0346002B02D04FF0EA
:102F4800FF33ABE27E4B5B6818787D4B1B68D97DFD
:102F580007F13C030122FEF7B7FB0346002B02D022
:102F68004FF0FF339AE2764B5B681878744B1B6816
:102F7800197907F13C030122FEF7A6FB0346002B53
:102F880002D04FF0FF3389E20C2387F83C306C4BBA
:102F98005B6818786A4B1B68197907F13C030122B2
:102FA800FEF792FB0346002B02D04FF0FF3375E289
:102FB8000F2002F0EDF9624B9B6A5B7A87F83C3090
:102FC8005F4B5B6818785E4B1B68997807F13C0388
:102FD8000122FEF779FB0346002B02D04FF0FF33A6
:102FE8005CE2574B9B6A1B7A87F83C30544B5B6812
:102FF8001878534B1B68597807F13C030122FEF7F8
:1030080063FB0346002B02D04FF0FF3346E2FB7F01
:10301800002B08D04A4B9B6A9B7A63F01F03DBB2F4
:1030280087F83C3004E0464B9B6A9B7A87F83C3033
:10303800434B5B681878424B1B68997907F13C034E
:103048000122FEF741FB0346002B02D04FF0FF336D
:1030580024E2FB7F002B08D0394B9B6ADB7A63F0B4
:103068001F03DBB287F83C3002E0182387F83C30B6
:10307800334B5B681878324B1B68D97907F13C03EE
:103088000122FEF721FB0346002B02D04FF0FF334D
:1030980004E2FB7F002B02D0C82002F079F940231C
:1030A80087F83C30264B5B681878254B1B681979E4
:1030B80007F13C030122FEF707FB0346002B02D071
:1030C8004FF0FF33EAE1782387F83C301C4B5B680C
:1030D80018781B4B1B68597907F13C030122FEF74E
:1030E800F3FA0346002B02D04FF0FF33D6E1322328
:1030F800184602F04DF9002387F83C30104B5B6806
:1031080018780F4B1B68597907F13C030122FEF729
:10311800DBFA0346002B02D04FF0FF33BEE1084B29
:103128005B681878064B1B68997A07F13C03022202
:10313800FEF70CFB0346002B04D04FF0FF33ADE144
:103148000000002097F83C301B021AB297F83D3077
:103158001BB213431BB2A7F84C30B7F84C301A4ACD
:10316800A2FB0323DB089BB287F84B307B6A03F191
:10317800080100230B607B6A1A1D0B681360126834
:103188007B6A1A603B6A03F1080100230B603B6A03
:103198001A1D0B68136012683B6A1A60002387F8CF
:1031A8004F308EE0094B5B681878084B1B68D97A5A
:1031B80007F13C030C22FEF7C9FA0346002B07D09F
:1031C8004FF0FF336AE100BFABAAAAAA00000020B3
:1031D80097F83C301B021AB297F83D301BB21343E4
:1031E8001BB2BB8697F83E301B021AB297F83F30E5
:1031F8001BB213431BB2FB8697F840301B021AB26E
:1032080097F841301BB213431BB23B873B6A1A68DD
:10321800B7F934301A443B6A1A603B6A04331968B8
:10322800B7F9363018463B6A1A1D0B1813603B6A0B
:1032380008331968B7F9383018463B6A03F10802B1
:103248000B18136097F842301B021AB297F84330F4
:103258001BB213431BB2BB8597F844301B021AB24A
:1032680097F845301BB213431BB2FB8597F84630DD
:103278001B021AB297F847301BB213431BB23B86A6
:103288007B6A1A68B7F92C301A447B6A1A607B6A21
:1032980004331968B7F92E3018467B6A1A1D0B18C3
:1032A80013607B6A08331968B7F9303018467B6AAF
:1032B80003F108020B18136097F84F30013387F8B1
:1032C8004F3097F84F2097F84B309A42FFF46AAF87
:1032D8007B6A1B681A464FEAE273151414048323A9
:1032E8001A464FF0000320462946FDF7BFFF024665
:1032F8000B461046194697F84B204FF00003FDF790
:10330800B5FF02460B467B6A1A607B6A04331B686A
:103318001A464FEAE2734FEA22494FEA02488323EA
:103328001A464FF0000340464946FDF79FFF024604
:103338000B461046194697F84B204FF00003FDF74F
:1033480095FF02460B46104619467B6A043302462F
:103358001A607B6A08331B681A464FEAE273111435
:10336800796113043B6183231A464FF00003D7E9C0
:103378000401FDF77BFF02460B461046194697F8F5
:103388004B204FF00003FDF771FF02460B46104635
:1033980019467B6A083302461A603B6A1B681A465C
:1033A8004FEAE2731114F9601304BB604FF4006331
:1033B8001A464FF00003D7E90201FDF757FF02460E
:1033C8000B461046194697F84B204FF00003FDF7BF
:1033D8004DFF02460B463B6A1A603B6A04331B6882
:1033E8001A464FEAE2731114796013043B604FF4F4
:1033F80000631A464FF00003D7E90001FDF736FFD6
:1034080002460B461046194697F84B204FF000032A
:10341800FDF72CFF02460B46104619463B6A04335B
:1034280002461A603B6A08331B681A464FEAE27381
:103438004FEA224B4FEA024A4FF400631A464FF014
:10344800000350465946FDF711FF02460B46104649
:10345800194697F84B204FF00003FDF707FF024687
:103468000B46104619463B6A083302461A603B6A07
:1034780008331B68002B08DD3B6A08331A683B6A6F
:103488000833A2F580321A6007E03B6A08331A68ED
:103498003B6A083302F580321A6000231846503719
:1034A800BD46BDE8B08F00BF80B58EB000AF786074
:1034B8003960022387F82E30644B93F82430002BB0
:1034C80006D0002000F0E6F9012387F82F3002E04B
:1034D800002387F82F3007F10C031846FEF7F2FD9A
:1034E80007F10F031846FEF775FE07F108031846A3
:1034F800FEF712FF07F10A031846FEF797FF534B32
:103508009B7A87F82D3007F10E031846FFF782F8EB
:1035180000237B630AE0002239687868FFF7BAFC69
:103528000346002B08D07B6B01337B6397F82E3062
:103538007A6B9A42EFDB00E000BF97F82E307A6B87
:103548009A4202D100233B6345E000237B630DE0F0
:1035580007F1100107F11C0301221846FFF79AFC36
:103568000346002B08D07B6B01337B6397F82E3022
:103578007A6B9A42ECDB00E000BF97F82E307A6B4A
:103588009A4202D100233B6325E007F11003194654
:103598003868FFF73DFB034687F82C3007F11C031A
:1035A80019467868FFF7BAFB034687F82B300023E3
:1035B8003B6397F82B30002B03D13B6B43F001039F
:1035C8003B6397F82C30002B04D13B6B43F002038C
:1035D8003B6300E000BF1D4BFF221A721B4BFF220A
:1035E8005A721A4BFF22DA72184B4FF6FF72DA81C1
:1035F800164BFF229A72154BFF221A74134B0122A5
:103608001A73BB891846FEF791FDFB7B1846FEF737
:103618001BFE3B891846FEF7BBFE7B891846FEF762
:103628001DFF97F82D301846FFF756F8BB7B184654
:10363800FFF700F897F82F30002B02D0012000F098
:1036480029F93B6B18463837BD4680BD000000207D
:1036580080B584B000AF03463A60FB800B46BB8060
:103668003B68002B02D14FF0FF333DE0204B9B7AA3
:10367800002B02D14FF0FF3336E0FB881B0A9BB2C8
:10368800DBB23B73FB88DBB27B737B7B1A46BB8860
:103698001344174A52685289934202DD4FF0FF33B0
:1036A80022E0134B5B681878114B1B68197E07F1F1
:1036B8000C030222FEF708F80346002B02D04FF055
:1036C800FF3311E00A4B5B681878094B1B68597D7A
:1036D800BB88DAB23B68FDF7F7FF0346002B02D040
:1036E8004FF0FF3300E0002318461037BD4680BD79
:1036F8000000002080B584B000AF03463A60FB802C
:103708000B46BB803B68002B02D14FF0FF333DE0F6
:10371800204B9B7A002B02D14FF0FF3336E0FB8819
:103728001B0A9BB2DBB23B73FB88DBB27B737B7BF0
:103738001A46BB881344174A52685289934202DDDD
:103748004FF0FF3322E0134B5B681878114B1B686E
:10375800197E07F10C030222FDF7B6FF0346002B82
:1037680002D04FF0FF3311E00A4B5B681878094B21
:103778001B68597DBB88DAB23B68FDF7E7FF034653
:10378800002B02D04FF0FF3300E00023184610371B
:10379800BD4680BD0000002080B58AB000AFB9608A
:1037A80011461A460346FB810B46BB811346FB8034
:1037B800374B93F82530002B02D04FF0FF3362E0EF
:1037C800BB68002B02D14FF0FF335CE00023FB8481
:1037D80034E0FA89FB8CD31A102BA8BF1023BB84C2
:1037E800FB8CBA681A44B98CFB8C1846FFF730FF7B
:1037F8000346002B02D04FF0FF3344E007F11402D8
:10380800B98CFB8C1846FFF775FF0346002B02D0D6
:103818004FF0FF3337E0FB8CBA681344BA8C07F1DA
:103828001401184608F040FA0346002B02D06FF046
:10383800010328E0FA8CBB8C1344FB84FA8CFB89C7
:103848009A42C6D3BB891B0A9BB2DBB23B74BB89C5
:10385800DBB27B740E4B5B6818780D4B1B68997E46
:1038680007F110030222FDF72FFF0346002B02D0B9
:103878004FF0FF3307E0064B012283F82520044A66
:10388800FB88D384002318462837BD4680BD00BF77
:103898000000002080B584B000AF0346FB71264BC2
:1038A80093F82430FA799A4201D1002340E0FB7959
:1038B800002B27D0204B93F82530002B02D14FF056
:1038C800FF3335E00020FEF70FF90020FFF708F876
:1038D800194BDB8C1846FEF7C1FD0023FB73164B12
:1038E8005B68187807F10F0301222321FDF7ECFE2E
:1038F800114B012283F824200120FEF7F5F8FEF78A
:10390800DDFA14E00020FEF7EFF80B4B1B7CFB738D
:10391800094B5B68187807F10F0301222321FDF793
:10392800D3FE054B002283F82420FEF7C7FA0023B4
:1039380018461037BD4680BD0000002080B58AB00B
:1039480000AF07F10C0207F1180311461846FFF7FC
:10395800ABFD78627B6A032B49D107F1080318464F
:10396800FEF7E2FDBB691846FDF720FA0246BB6880
:1039780019461046FDF76EFA03461846FDF730FC67
:103988000346BB61FB691846FDF710FA0246BB689F
:1039980019461046FDF75EFA03461846FDF720FC67
:1039A8000346FB613B6A1846FDF700FA0246BB680E
:1039B80019461046FDF74EFA03461846FDF710FC67
:1039C80003463B62BB1D1846FEF7E6FDFB68FA8816
:1039D80002FB03F3FB603B69FA8802FB03F33B61DC
:1039E8007B69FA8802FB03F37B61002300E0012373
:1039F80018462837BD4680BD80B584B000AF7860D2
:103A0800786800F021F80346FB817B680333184689
:103A180000F01AF80346DB001AB2B7F90E30134368
:103A28001BB2FB817B680633184600F00DF803468D
:103A38009B011AB2B7F90E3013431BB2FB81FB8905
:103A480018461037BD4680BD80B485B000AF786099
:103A58007B6893F90030002B02DD0023FB812DE009
:103A68007B6893F90030002B02DA0423FB8125E000
:103A78007B68013393F90030002B02DD0123FB81C1
:103A88001CE07B68013393F90030002B02DA052330
:103A9800FB8113E07B68023393F90030002B02DDD1
:103AA8000223FB810AE07B68023393F90030002B84
:103AB80002DA0623FB8101E00723FB81FB89184614
:103AC8001437BD4680BC704780B483B000AF7860BF
:103AD80000BF0C37BD4680BC7047000080B582B07F
:103AE80000AF0023FB71FEF759F80346002B5CD1A9
:103AF8007820FEF7F1FD0346FB71FB79002B01D01E
:103B0800012355E07820FEF795FD0346FB71FB790C
:103B1800002B01D002234BE06420FEF79FFC0346F4
:103B2800FB71FB79002B01D0032341E000F098F9E9
:103B38000346FB71FB79002B01D0042338E01E48B3
:103B4800FFF75AFF0346184600F09AF90346FB713F
:103B5800FB79002B01D005232AE040F2731000F016
:103B6800FFFC0346FB71FB79002B01D006231FE005
:103B7800642000F077FA0346FB71FB79002B01D033
:103B8800072315E0FFF7DAFE0346FB71FB79002BEC
:103B980001D008230CE00120FFF77CFE0346FB71EF
:103BA800FB79002B03D0092302E00A2300E000235D
:103BB80018460837BD4680BD2C00002000000000D4
:103BC800F0B595B002AFF860B9607A604FF07E53F7
:103BD8007B644FF000033B644FF00003FB634FF03E
:103BE8000003BB6307F1340407F1100207F1240155
:103BF80007F12C0007F12103019307F12203009339
:103C0800234600F097FE0346002B01D001231EE156
:103C1800B7F922309BB203F48073002B00F01681B1
:103C28003B691846FDF7C2F803464FF09D41184618
:103C3800FDF7C4F903467B647B691846FDF7B6F8BF
:103C480003464FF09D411846FDF7B8F903463B641B
:103C5800BB691846FDF7AAF803464FF09D41184680
:103C6800FDF7ACF90346FB63FB691846FDF79EF8C0
:103C780003464FF09D411846FDF7A0F90346BB6384
:103C88004FF04041386CFDF7E5F80346B96B18462C
:103C9800FDF7E0F803461C467B6C19461846FCF70E
:103CA800D1FF0346F96B1846FDF7D4F803461946C9
:103CB8002046FCF7C7FF03461846FCF71DFC0246E2
:103CC8000B46104619460CF099FC63A3D3E9002370
:103CD800FCF76AFC02460B4610461946FCF75CFFE7
:103CE8000246FB681A60FB6B19461846FCF7AAFFE8
:103CF8000346B96B1846FDF7ADF803461C467B6CC6
:103D080019461846FCF79EFF0346396C1846FDF71E
:103D1800A1F8034619462046FCF794FF03461846C7
:103D2800FCF7EAFB04460D464FF04041386CFDF7BE
:103D380091F80346396C1846FDF78CF803461E4681
:103D4800FB6B19461846FCF77DFF0346F96B1846CE
:103D5800FDF780F8034619463046FCF771FF034625
:103D68004FF07E511846FCF76DFF03461846FCF7E6
:103D7800C3FB02460B46204629460CF06DFC36A3D1
:103D8800D3E90023FCF710FC02460B4610461946FF
:103D9800FCF702FF0246BB681A60F96B386CFDF746
:103DA80059F803461C46B96B786CFDF753F803467F
:103DB80019462046FCF746FF034619461846FCF705
:103DC80041FF03461846FCF797FB04460D46796CFD
:103DD800786CFDF73FF803461E46396C386CFDF7E2
:103DE80039F8034619463046FCF72CFF03461E46B1
:103DF800F96BF86BFDF72EF8034619463046FCF7C9
:103E08001FFF03461E46B96BB86BFDF723F8034640
:103E180019463046FCF714FF03461846FCF76CFBBE
:103E280002460B46204629460CF016FC0AA3D3E9A5
:103E38000023FCF7B9FB02460B4610461946FCF76F
:103E4800ABFE02467B681A60002300E00223184696
:103E58004C37BD46F0BD00BF6666666666A64C4038
:103E680080B500AF4FF48062C823044940F6F630AD
:103E7800FFF792FC0346184680BD00BFF013010807
:103E880080B588B000AF0346FB80714A07F1140380
:103E98001268114619800233120C1A706D4A07F124
:103EA80010031268114619800233120C1A706A4AFC
:103EB80007F10C031268114619800233120C1A70AC
:103EC800664A07F108031268114619800233120C7A
:103ED8001A70FB8803F0030307F12002134413F858
:103EE8000C3C3B77FB88DB089BB203F0030307F12C
:103EF8002002134413F80C3C7B77FB889B099BB288
:103F080003F0030307F12002134413F80C3CBB77BA
:103F1800FB8803F0030307F12002134413F8103C55
:103F28003B76FB88DB089BB203F0030307F1200212
:103F3800134413F8103C7B76FB889B099BB203F073
:103F4800030307F12002134413F8103CBB7607F172
:103F58001C031A46032140F22640FFF779FB03466B
:103F6800002B02D04FF0FF336EE007F118031A461A
:103F7800032140F22A40FFF76BFB0346002B02D0D7
:103F88004FF0FF3360E007F11C0307F10C021268E1
:103F9800114619800233120C1A7007F1180307F141
:103FA80008021268114619800233120C1A70FB8835
:103FB80003F00403002B09D03B7F43F00103DBB27D
:103FC8003B773B7E43F00103DBB23B76FB8803F093
:103FD8002003002B09D07B7F43F00103DBB27B7702
:103FE8007B7E43F00103DBB27B76FB8803F48073AE
:103FF800002B09D0BB7F43F00103DBB2BB77BB7E4C
:1040080043F00103DBB2BB7607F11C031A46032118
:104018004FF48860FFF71CFB0346002B02D04FF0DB
:10402800FF3311E007F118031A46032140F231402B
:10403800FFF70EFB0346002B02D04FF0FF3303E0DF
:10404800074AFB881381002318462037BD4680BDE8
:104058007011010874110108781101087C11010818
:104068006402002080B588B000AF0346FB801F4A79
:1040780007F1100307CA83E80700FB88C82B02D999
:104088004FF0FF332EE0FB88C82292FBF3F39BB27C
:10409800013BFB83FB8B1B0A9BB2DBB23B72FB8BA6
:1040A800DBB27B7207F108031A46022140F21620A0
:1040B800FFF7CEFA0346002B02D04FF0FF3311E092
:1040C80007F110031A460C2140F6C120FFF7C0FA89
:1040D8000346002B02D04FF0FF3303E0044AFB886D
:1040E8009381002318462037BD4680BD8011010802
:1040F8006402002080B586B000AF03460A46FB7113
:104108001346BB80FB7903F00703002B03D0BB8861
:10411800B3F5C86F02D94FF0FF3307E1BB881846E3
:10412800FCF740FE034683491846FCF747FF034661
:104138003B6107F10B031846FEF74CF8FB7A023B8C
:104148000E2B79D801A252F823F000BF9141000844
:1041580041420008BD4100084142000841420008B0
:1041680041420008E9410008414200084142000874
:10417800414200084142000841420008414200080B
:1041880041420008154200084FF08D413869FCF79C
:1041980061FE03461846FDF749F80346FB82664967
:1041A8003869FCF757FE03461846FDF73FF8034603
:1041B800BB8244E04FF08C413869FCF74BFE034664
:1041C8001846FDF733F80346FB825C493869FCF76B
:1041D80041FE03461846FDF729F80346BB822EE048
:1041E8004FF08B413869FCF735FE03461846FDF75A
:1041F8001DF80346FB8252493869FCF72BFE03463B
:104208001846FDF713F80346BB8218E04FF08A41C1
:104218003869FCF71FFE03461846FDF707F8034602
:10422800FB8248493869FCF715FE03461846FCF737
:10423800FDFF0346BB8202E04FF0FF3376E0FB8AC6
:104248001B0A9BB2DBB23B73FB8ADBB27B73BB8A74
:104258001B0A9BB2DBB2BB73BB8ADBB2FB73FB7975
:1042680003F00103002B1CD007F10C031A460221AE
:104278004FF4EA70FFF7ECF90346002B02D04FF039
:10428800FF3353E007F10C0302331A4602214FF4BF
:104298009270FFF7DDF90346002B02D04FF0FF3391
:1042A80044E0FB7903F00203002B1CD007F10C0358
:1042B8001A4602214FF4EC70FFF7CAF90346002BA7
:1042C80002D04FF0FF3331E007F10C0302331A46F6
:1042D80002214FF49470FFF7BBF90346002B02D07C
:1042E8004FF0FF3322E0FB7903F00403002B1CD0CE
:1042F80007F10C031A4602214FF4EE70FFF7A8F9F4
:104308000346002B02D04FF0FF330FE007F10C03F8
:1043180002331A4602214FF49670FFF799F90346C3
:10432800002B02D04FF0FF3300E000231846183767
:10433800BD4680BD00004843000040460000C0451F
:10434800000040450000C04480B584B000AF03467B
:10435800FB710023FB73FB7903F00103002B04D0EE
:10436800FB7B43F03003DBB2FB73FB7903F0020302
:10437800002B04D0FB7B43F00C03DBB2FB73FB790F
:1043880003F00403002B04D0FB7B43F00303DBB2F0
:10439800FB7307F10F031A4601214FF4A470FFF7CE
:1043A80057F9034618461037BD4680BD80B584B01E
:1043B80000AF0346FB71FB79002B02D10123FB718F
:1043C80004E0FB79042B01D90423FB71FB79013B41
:1043D800DBB2FB7307F10F031A46012140F24F10BD
:1043E800FFF736F9034618461037BD4680BD000072
:1043F80080B584B000AF0346FB80FB880C4AA2FB63
:1044080003239B08FB81FB891B0A9BB2DBB23B732E
:10441800FB89DBB27B7307F10C031A4602214FF4C8
:10442800EF70FFF715F9034618461037BD4680BDF3
:10443800CDCCCCCC80B584B000AF0346FB80FB88E4
:104448000C4AA2FB03239B08FB81FB891B0A9BB236
:10445800DBB23B73FB89DBB27B7307F10C031A46B3
:1044680002214FF4ED70FFF7F3F8034618461037B2
:10447800BD4680BDCDCCCCCC80B584B000AF7860D3
:104488000B467B807B68134A82FB03129211DB1771
:10449800D31A7A8802FB03F3FB60FB681B16DBB2B6
:1044A8003B72FB681B14DBB27B72FB681B12DBB22E
:1044B800BB72FB68DBB2FB7207F108031A460421E2
:1044C8004FF4AE70FFF7C4F8034618461037BD46E0
:1044D80080BD00BFD34D621080B584B000AF0346E5
:1044E800FB80FB880C4AA2FB03239B08FB80FB880C
:1044F8001B0A9BB2DBB23B73FB88DBB27B7307F111
:104508000C031A4602214FF4AD70FFF7A1F80346D9
:1045180018461037BD4680BDCDCCCCCC80B584B014
:1045280000AF0346FB80FB880C4AA2FB03239B08D1
:10453800FB80FB881B0A9BB2DBB23B73FB88DBB2B8
:104548007B7307F10C031A4602214FF4AC70FFF796
:104558007FF8034618461037BD4680BDCDCCCCCC7D
:1045680080B586B000AF0346FB8002233B73CA23A5
:104578007B73E323BB730923FB7307F10C031A4610
:1045880004216820FFF764F8A3233B73FB8803F03A
:104598004003002B06D0C0237B73C823BB73C22300
:1045A800FB7305E0A3237B73A323BB73A323FB73D4
:1045B800FB8803F4C073002B06D0C4233B74CC23C0
:1045C8007B74C623BB7405E0A3233B74A3237B74CD
:1045D800A323BB74A323FB74A3233B75A3237B757D
:1045E80007F10C031A460A2140F6A720FFF730F816
:1045F800FB8803F00303002B02D020233B7301E068
:10460800D8233B7307F10C031A46012140F6B62064
:10461800FFF71EF8FB8803F02003002B03D00120CE
:1046280000F0C6F802E0002000F0C2F8FB8803F4AE
:10463800C073002B1DD0FB8803F48073002B08D0B7
:10464800B2233B738B237B73B623BB739B23FB7310
:1046580007E0B0233B7380237B73B423BB739023A1
:10466800FB7307F10C031A46042140F6A220FEF75B
:10467800EFFFFB8803F00103002B25D0F8233B73E1
:1046880007F10C031A4601214FF40B60FEF7E0FF17
:10469800FA210720FFF72EFD0720FFF755FE01201E
:1046A800FFF784FE6420FFF7A3FE4FF4FA70FFF7CC
:1046B800C1FEC8213C48FFF7DFFE2820FFF70CFFAA
:1046C8000A20FFF72BFF09E0D8233B7307F10C03FF
:1046D8001A4601214FF40B60FEF7BAFFFB8803F07E
:1046E8000203002B02D0D9233B7301E0D8233B738C
:1046F80007F10C031A46012140F23D70FEF7A8FFAE
:10470800FB8803F00403002B03D0012000F080F89D
:1047180002E0002000F07CF8FB8803F01003002B77
:1047280003D0012000F09BF802E0002000F097F889
:10473800FB8843F008039AB21C4B5A81FDF7BEFB75
:104748001A4B00229A73FB8803F04003002B05D014
:10475800164B9B7B0633DAB2144B9A73FB8803F42F
:10476800C073002B05D0114B9B7B0633DAB20F4B7D
:104778009A73FB8803F01403002B05D00B4B9B7B2B
:104788001033DAB2094B9A73FB8803F00303002B4A
:1047980005D0064B9B7B0433DAB2044B9A73002393
:1047A80018461837BD4680BD09E3CA0264020020D6
:1047B80080B588B000AF0346FB71FB79002B0FD0A2
:1047C800114A07F1140307CA03C31A7007F1140347
:1047D8001A4609214FF49760FEF73AFF03460EE0A8
:1047E8000A4A07F1080307CA03C31A7007F1080346
:1047F8001A4609214FF49760FEF72AFF0346184628
:104808002037BD4680BD00BF8C11010898110108F2
:1048180080B584B000AF0346FB71FB79002B08D04C
:10482800C0233B73C2237B73C423BB73C623FB73B0
:1048380006E007F10C0304228B21184607F042FA20
:1048480007F10C031A46042140F69820FEF700FFF2
:10485800FDF734FB034618461037BD4680BD80B5CA
:1048680084B000AF0346FB71FB79002B08D02023EE
:104878003B7328237B733023BB733823FB7306E019
:1048880007F10C030422A321184607F01BFA07F1CD
:104898000C031A46042140F69E20FEF7D9FEFDF7C8
:1048A8000DFB034618461037BD4680BD80B584B061
:1048B80000AF78607B6803331B7823F03F03FB73FA
:1048C8007B6803331B7803F03F03BB737B680133BA
:1048D8001B7803F00103002B12D0BB7BDB087B7332
:1048E800BB7B03F00703DBB201333B73104B1B6840
:1048F800002B05D00E4B1B68397B7A7B10469847F6
:104908007B6801331B7803F00803002B0AD0084B9F
:104918005B68002B06D0064B5B68FA7B9209D2B223
:1049280010469847002318461037BD4680BD00BF83
:104938006402002080B592B000AFF860B9607A6078
:104948003B60002387F847303B6D00221A80B44B48
:104958009B7B9BB207F120017A6D1846FDF742FF59
:104968000346002B02D04FF0FF3354E1AC4B5B8978
:1049780003F01403002B00F08A8097F820301A0601
:1049880097F821301B041A4397F822301B0213436F
:1049980097F823201A437B681A6097F824301A0680
:1049A80097F825301B041A4397F826301B021A4340
:1049B80097F8273019467B6804330A431A6097F83A
:1049C80028301A0697F829301B041A4397F82A301A
:1049D8001B021A4397F82B3019467B6808330A43A1
:1049E8001A6097F82C301A0697F82D301B041A43D2
:1049F80097F82E301B021A4397F82F3019467B6818
:104A08000C330A431A6097F84730103387F8473059
:104A18007B681B681B143B617B6804331B681B1491
:104A28007B617B6808331B681B14BB617B680C3394
:104A38001B681B14FB613B693A6902FB03F27B6943
:104A4800796901FB03F31A44BB69B96901FB03F3F4
:104A58001A44FB69F96901FB03F313443B643B6C9B
:104A6800B3F1706F03DB3B6CB3F1885F07DDFDF7D3
:104A780025FA3B6D00221A804FF0FF33CBE03B6DE7
:104A8800B3F9003043F480731AB23B6D1A80644B5B
:104A98005B8903F04003002B52D097F8473007F1A9
:104AA8004802134413F8283C1B021AB297F84730FF
:104AB800013307F148010B4413F8283C1BB2134398
:104AC8001AB2BB681A8097F84730023307F14802D8
:104AD800134413F8283C1B0219B297F847300333E4
:104AE80007F14802134413F8283C1AB2BB68023392
:104AF8000A4312B21A8097F84730043307F1480284
:104B0800134413F8283C1B0219B297F847300533B1
:104B180007F14802134413F8283C1AB2BB6804335F
:104B28000A4312B21A8097F84730063387F847309D
:104B38003B6DB3F9003043F008031AB23B6D1A809D
:104B4800374B5B8903F4C073002B52D097F847307A
:104B580007F14802134413F8283C1B021AB297F8CD
:104B68004730013307F148010B4413F8283C1BB2C6
:104B780013431AB2FB681A8097F84730023307F1DB
:104B88004802134413F8283C1B0219B297F847301F
:104B9800033307F14802134413F8283C1AB2FB68A0
:104BA80002330A4312B21A8097F84730043307F1E8
:104BB8004802134413F8283C1B0219B297F84730EF
:104BC800053307F14802134413F8283C1AB2FB686E
:104BD80004330A4312B21A8097F84730063387F82D
:104BE80047303B6DB3F9003043F070031AB23B6DA8
:104BF8001A800B4B5B8903F00303002B07D097F84F
:104C0800473007F1200213441846FFF74FFE386873
:104C1800FEF75AFF002318464837BD4680BD00BF3F
:104C28006402002080B586B004AF03460A46FB71D3
:104C38001346BB71FB799AB20A23029301230193AD
:104C4800BB1D009301237821034803F067FB00BFD5
:104C58000837BD4680BD00BFEC05002080B500AF19
:104C6800642002F049FDAE210020FFF7DBFFA621FA
:104C78000020FFF7D7FFAE210020FFF7D3FFD52193
:104C88000020FFF7CFFF80210020FFF7CBFFA821EE
:104C98000020FFF7C7FF1F210020FFF7C3FFD32124
:104CA8000020FFF7BFFF00210020FFF7BBFF4021D6
:104CB8000020FFF7B7FF8D210020FFF7B3FF142175
:104CC8000020FFF7AFFF20210020FFF7ABFF0221F4
:104CD8000020FFF7A7FFA1210020FFF7A3FFC821AD
:104CE8000020FFF79FFFDA210020FFF79BFF02213A
:104CF8000020FFF797FF81210020FFF793FFCF21C6
:104D08000020FFF78FFFD9210020FFF78BFFF1214B
:104D18000020FFF787FFDB210020FFF783FF4021FA
:104D28000020FFF77FFF2E210020FFF77BFFA42143
:104D38000020FFF777FFA6210020FFF773FFAF21C0
:104D48000020FFF76FFF002000F046F800F00EF893
:104D5800054B00221A80044B00225A80024B012284
:104D68005A7100BF80BD00BF7404002080B582B0B6
:104D780000AF0023FB7125E0FB79503BDBB21946FD
:104D88000020FFF74FFF00210020FFF74BFF102105
:104D98000020FFF747FF0023BB710CE0BA79FB79CD
:104DA800DB0113440B4AD35C19464020FFF73AFF56
:104DB800BB790133BB7197F90630002BEEDAFB792A
:104DC8000133FB71FB79072BD6D900BF00BF083729
:104DD800BD4680BD7402002080B582B000AF034696
:104DE800FB71FB79002B01D1002300E0FF234FF476
:104DF80000721946034806F065FF00BF0837BD4634
:104E080080BD00BF7402002080B483B000AF0346A9
:104E1800FB800B46BB801346FB70FB887F2B48D872
:104E2800BB881F2B45D8254B1B79002B06D0FB7858
:104E3800002B0CBF01230023DBB2FB70FB78012B96
:104E48001AD1FA88BB88DB0898B20346DB01134401
:104E58001B4AD35C5AB2BB8803F00703012101FA4D
:104E680003F35BB2134359B2FA880346DB011344D8
:104E7800C9B2134AD1541DE0FA88BB88DB0898B23E
:104E88000346DB0113440E4AD35C5AB2BB8803F0D5
:104E98000703012101FA03F35BB2DB435BB2134062
:104EA80059B2FA880346DB011344C9B2044AD15403
:104EB80000E000BF0C37BD4680BC7047740400207A
:104EC8007402002080B483B000AF03460A46FB801A
:104ED8001346BB80054AFB881380044ABB8853806D
:104EE80000BF0C37BD4680BC704700BF740400206B
:104EF80080B586B000AF03463960FB711346BB71BD
:104F08003A4B1B881A463B681B7813447F2B07DCF7
:104F1800364B5B881A463B685B7813441F2B01DDD0
:104F280000235EE000237B614BE03B685A68FB7915
:104F3800203B3968497801FB03F319467B690B4428
:104F48005B0013441B88FB6000233B6130E0FA6878
:104F58003B6902FA03F303F40043002B10D0234B00
:104F68001A883B699BB2134498B2204B5A887B69D4
:104F78009BB213449BB2BA791946FFF745FF14E078
:104F88001A4B1A883B699BB2134498B2174B5A883C
:104F98007B699BB2134499B2BB79002B0CBF0123E8
:104FA8000023DBB21A46FFF72FFF3B6901333B6151
:104FB8003B681B781A463B699342C8D37B69013327
:104FC8007B613B685B781A467B699342ADD3074B9C
:104FD8001A883B681B789BB213449AB2034B1A8019
:104FE800FB7918461837BD4680BD00BF7404002001
:104FF80080B584B000AFF860B9601346FB7112E069
:10500800FB681B78FA79B9681846FFF771FF034601
:105018001A46FB681B789A4202D0FB681B7808E0A6
:10502800FB680133FB60FB681B78002BE8D1FB6849
:105038001B7818461037BD4680BD80B500AF0020EC
:10504800FFF7CAFE00BF80BD80B500AFFFF78EFE38
:1050580000BF80BD80B582B000AF786008461146B9
:105068001A460346FB700B46BB7013467B707B7871
:10507800002B01D0FFF7E1FFFB789BB2BA7892B220
:1050880011461846FFF71EFF012206497868FFF708
:10509800AFFF3B7C002B01D0FFF7D6FF00BF0837DE
:1050A800BD4680BD3800002080B584B002AF78606E
:1050B800084611461A460346FB700B46BB7013465A
:1050C8007B70FB78002B12D0FB78032B0FD8FB7872
:1050D8001A46920013445B00DBB20A3BDAB2B97895
:1050E8007B7800930B4600217868FFF7B3FF00BF79
:1050F8000837BD4680BD000080B582B000AF78603B
:10510800391D4FF6FF730122034806F0E3FB7B6865
:1051180018460837BD4680BD3808002080B582B0E3
:1051280000AF78604FF000017868FCF731F803466B
:10513800002B03D07B6883F000437B607B681846B4
:105148000837BD4680BD000080B500AF00F0D6F836
:10515800FFF784FDFCF74CFB00224FF48041044824
:1051680002F0E4FE01F0B6F900F022FE00BF80BDB7
:10517800002001400000000080B500AF524A5349AA
:105188005348FEF71DFD0346002B00F094804E4B5C
:105198001B6850491846FBF75DFE03461846FCF7A6
:1051A8001FF803461846FBF795F94FF000024A4BE3
:1051B800FBF724FB02460B4610461946FBF7ECFCAE
:1051C8000346464A1360454B1B681846FBF794F99B
:1051D80002460B464249434807F080FC012300225F
:1051E80002214048FFF760FF0120FCF73BFA034625
:1051F800002B0CD03C4B1B780133DAB23A4B1A70B7
:10520800394B1B78022B02D9374B00221A70364BC8
:105218001B78002B33D100224FF40041334802F0B1
:1052280085FE00220021002000F004FC304B1B68A2
:105238002A4A126811461846FBF702FD034618462B
:10524800FFF76CFF03461846FBF756F91CA3D3E992
:105258000023FBF739FC0346002B09D00123002269
:1052680001212448FFF720FF1F4B00221A7023E07A
:105278000123002201212048FFF716FF1CE01A4BEA
:105288001B78012B18D101224FF40041174802F076
:105298004DFE0122C821012000F0CCFB124B1B78E7
:1052A8000133DAB2104B1A7001230022012112488F
:1052B800FFF7FAFE00E000BF80BD00BFAFF300803B
:1052C8009A9999999999C93F0805002010050020D5
:1052D800180500200000C842000059400C050020B5
:1052E800BC1101087C0400207A0400200020014041
:1052F80014050020CC110108DC11010880B400AFAE
:10530800034B48221A6000BFBD4680BC704700BFEF
:105318009004002080B489B000AF78600023BB619E
:10532800194B5B687B61194B1A687B6802FB03F3B6
:105338003B61154B9B68FB61134B9B68FB60FA68EC
:10534800FB699A42F8D0FA68FB699A4206D2FA6970
:10535800FB68D31ABA691344BB6107E07A69FB6832
:10536800D21AFB691344BA691344BB61FB68FB6139
:10537800BA693B699A4200D2DEE700BF00BF243712
:10538800BD4680BC704700BF10E000E090040020DC
:1053980080B582B000AF0346FB80FB884FF47A7279
:1053A80002FB03F31846FFF7B5FF00BF0837BD46F9
:1053B80080BD000080B485B000AF0346FB710023B8
:1053C800FB81FB79032B41D801A252F823F000BFDF
:1053D800E953000803540008215400083B5400080E
:1053E8001E4B5B6A9BB2C3F5FF437F339BB2FB81C5
:1053F8001A4B47F6FF725A6229E04FF080435B6A06
:105408009BB2C3F5FF437F339BB2FB814FF08043D0
:1054180047F6FF725A621AE0114B5B6A9BB2C3F5FA
:10542800FF437F339BB2FB810D4B47F6FF725A62F5
:105438000DE00C4B5B6A9BB2C3F5FF437F339BB215
:10544800FB81084B47F6FF725A6200E000BFB7F9CC
:105458000E3018461437BD4680BC7047000800401F
:10546800000C00400004004080B483B000AF7860B6
:105478000B4B1A687B681A607B680433094A126808
:105488001A607B680833084A12681A607B680C3314
:10549800064A12681A6000BF0C37BD4680BC7047C8
:1054A80094040020980400209C040020A0040020FC
:1054B80080B500AF0020FFF77DFF03461A46124B68
:1054C8001B689B1A104A13600120FFF773FF0346FD
:1054D8001A460E4B1B689B1A0C4A13600220FFF7F2
:1054E80069FF03461A460A4B1B681344084A1360AF
:1054F8000320FFF75FFF03461A46064B1B68134459
:10550800044A136000BF80BD940400209804002062
:105518009C040020A004002080B400AF024B184671
:10552800BD4680BC704700BF0000824480B582B091
:1055380000AF0346FB71FB79002B03D1094B002216
:105548001A7002E0074B01221A70064B1B78002BD9
:1055580004D0054B1B68184600F01EFE00BF083734
:10556800BD4680BDF90400200C05002090B583B02D
:1055780000AF0446084611461A462346FB800346F8
:10558800BB800B467B8013463B80B7F9063013F58A
:10559800616F0ADBB7F90630B3F5616F05DCB7F95F
:1055A80006301946002000F001FFB7F9043013F562
:1055B800616F0ADBB7F90430B3F5616F05DCB7F941
:1055C80004301946012000F0F1FEB7F9023013F556
:1055D800616F0ADBB7F90230B3F5616F05DCB7F923
:1055E80002301946022000F0E1FEB7F9003013F549
:1055F800616F0ADBB7F90030B3F5616F05DCB7F905
:1056080000301946032000F0D1FE00BF0C37BD461C
:1056180090BD000080B582B000AF0346FB71002347
:1056280000220021002000F015F8042000F0F8FC0A
:10563800064B00221A70064B00221A70FB79184696
:1056480000F068FE00BF0837BD4680BDF8040020A2
:10565800F904002090B585B000AF0446084611460D
:105668001A462346FB800346BB800B467B801346C5
:105678003B80184B01221A70174AFB881384164A7C
:10568800BB885384144A7B889384134A3B88D38409
:105698000023FB7316E0FB7B0F4A103332F91330FB
:1056A8001846FAF717FF02460B4610461946FBF74D
:1056B80073FA0246FB7B1146184600F03DFDFB7B62
:1056C8000133FB73FB7B032BE5D900BF00BF143705
:1056D800BD4690BDF80400201C05002080B582B0AE
:1056E80000AF7860786800F005F800BF0837BD465D
:1056F80080BD000080B58AB002AF7860786800F09D
:1057080067FDF8603D4B1B881846FBF74FFB0346C7
:10571800F9681846FBF79EFB03461846FBF760FD41
:105728000346374A13603749F868FBF74FFD0346CD
:10573800002B5ED1344B1A68314B1B68D31AFB61BE
:10574800324B1A682E4B1B68D31ABB61304B1A6850
:105758002B4B1B6813447B612E4B1A68284B1B6824
:1057680013443B61FB69B3F57A7F02DD4FF47A732A
:10577800FB61FB6913F57A7F01DA274BFB61BB6993
:10578800B3F57A7F02DD4FF47A73BB61BB6913F519
:105798007A7F01DA204BBB617B69B3F57A7F02DD42
:1057A8004FF47A737B617B6913F57A7F01DA1A4BC0
:1057B8007B613B69B3F57A7F02DD4FF47A733B6115
:1057C8003B6913F57A7F01DA134B3B613B69009320
:1057D8007B69BA69F969114807F0EEF8FB6918B2F4
:1057E800BB6919B27B691AB23B691BB2FFF732FF7A
:1057F80000E000BF2037BD4680BD00BFC4040020C4
:10580800C004002000FF7F47B0040020B40400203B
:10581800B8040020BC04002018FCFFFFF4110108A4
:1058280080B58AB000AF786000237B6207F1080377
:1058380000221A605A609A60DA6000F0C1F8386293
:10584800FFF76AFEF86100F0B1F8B86100F0C2F83D
:1058580000237B621FE04F4A7B6A52F823306422A0
:1058680002FB03F31846FBF7A1FA0346396A184608
:10587800FBF7F0FA0346F9691846FBF79FFB034666
:105888001A467B6A9B0007F128010B4443F8202C39
:105898007B6A01337B627B6A032BDCDDBB68FA68B9
:1058A80011461846FBF7CEF903461A463B691946D6
:1058B8001046FBF7C7F903461A467B691946104696
:1058C800FBF7C0F903464FF081411846FBF776FB1A
:1058D80003461846FBF784FC03461AB27B681A8015
:1058E8007B6800225A80BB68FA6811461846FBF7A5
:1058F800A9F903461A463B6919461046FBF7A0F971
:1059080003461A467B6919461046FBF799F9034680
:1059180083F000434FF081411846FBF74FFB0346E5
:10592800B9691846FBF74AFB03461B491846FBF7BB
:1059380091FA03461846FBF753FC03461AB27B68F4
:105948009A80164B1B78002B1FD000237B620DE03A
:105958007B6A9B0007F12802134453F8202C104956
:105968007B6A41F823207B6A01337B627B6A032BC5
:10597800EEDD0C4B1B78002B04D00B4B1B68184634
:10598800FFF7ACFE064800F023FB00BF2837BD46F2
:1059980080BD00BFE804002000007A44F80400201D
:1059A8001C050020F90400200C05002080B400AF7D
:1059B800024B1846BD4680BC704700BF00001F431D
:1059C80080B400AF024B1846BD4680BC704700BF8C
:1059D800F8334C4380B582B000AF1348FFF744FD5D
:1059E8000023FB7117E0FB790F4A52F82310FB796B
:1059F8000E4A52F82320FB798A1A0D4941F82320D0
:105A0800FA79FB79084951F82220084941F82320FE
:105A1800FB790133FB71FB79032BE4D900BF00BF8D
:105A28000837BD4680BD00BFC8040020D804002048
:105A3800E804002080B582B000AF0346FB710B4636
:105A4800BB801346BB71BB791846FFF76FFD3F4A11
:105A5800BB881380FB79072B72D801A252F823F078
:105A6800895A0008A35A0008B35A0008C75A000800
:105A7800E75A0008015B0008235B0008415B000847
:105A8800324B00221A80BB88002B14BF012300234D
:105A9800DBB21846FFF7BEFD53E0B7F90430002229
:105AA8000021184600F054F84BE0BB885B429BB2DB
:105AB8001BB200220021184600F04AF841E0BB88DA
:105AC8005B089BB218B2BB881A46D203D31A5B0094
