:020000040800F2
:1000000000000120B5050008B1040008B70400088D
:10001000BD040008C3040008C90400080000000073
:10002000000000000000000000000000CF040008F5
:10003000DB04000800000000E7040008F3040008E7
:10004000FD050008FD050008FD050008FD05000888
:10005000FD050008FD050008FD050008FD05000878
:10006000FD050008FD050008FD050008FD05000868
:10007000FD050008FD050008FD050008FD05000858
:10008000FD050008FD050008FD050008FD05000848
:10009000FD050008FD050008FD050008FD05000838
:1000A000FD050008FD050008FD050008FD05000828
:1000B000FD050008FD050008FD050008FD05000818
:1000C000FD050008FD050008FD050008FD05000808
:1000D000FD050008FD050008FD050008FD050008F8
:1000E000FD050008FD050008FD050008FD050008E8
:1000F000FD050008FD050008FD050008FD050008D8
:10010000FD050008FD050008FD050008FD050008C7
:10011000FD050008FD05000839020008FD0500087E
:10012000FD050008FD050008FD050008FD050008A7
:1001300000000000000000000000000000000000BF
:1001400000000000000000000000000000000000AF
:10015000000000000000000000000000000000009F
:10016000000000000000000000000000000000008F
:10017000000000000000000000000000000000007F
:10018000000000000000000000000000000000006F
:10019000000000000000000000000000000000005F
:1001A000000000000000000000000000000000004F
:1001B000000000000000000000000000000000003F
:1001C000000000000000000000000000000000002F
:1001D000000000000000000000000000000000001F
:0401E0005FF8E0F1F3
:1001E40010B5054C237833B9044B13B10448AFF36D
:1001F40000800123237010BD1000002000000000C7
:100204003022000808B5034B1BB103490348AFF380
:10021400008008BD00000000140000203022000807
:1002240080B500AF024801F0BBFC00BF80BD00BF39
:100234002C00002080B500AF024801F043FD00BF50
:1002440080BD00BF2C00002080B582B000AF786074
:100254007B681B68194A934205D1194B1B780133FB
:10026400DAB2174B1A70164B1B78164AA2FB03120C
:100274005209642101FB02F29B1ADBB2002B07D165
:100284000F4B01221A704FF480410F4800F01AFE00
:100294000B4B1B780B4AA2FB03121209322101FB00
:1002A40002F29B1ADBB2002B04D14FF40041064842
:1002B40000F008FE00BF0837BD4680BD00100040B6
:1002C400000000201F85EB510020014080B500AFE5
:1002D400FFF7A6FF00BF80BD80B400AF00BFBD46DE
:1002E40080BC704780B586B000AF07F108030022D8
:1002F4001A605A609A60DA60184B9B69174A43F097
:1003040004039361154B9B6903F004037B607B68D2
:10031400124B9B69114A43F4807393610F4B9B69A1
:1003240003F480733B603B6800224FF440410C4867
:1003340000F096FD4FF44043BB600123FB600023B3
:100344003B6102237B6107F108031946044800F06E
:10035400F3FA00BF1837BD4680BD00BF001002404D
:100364000020014080B500AF00F048F900F00BF820
:10037400FFF7B8FF00F0C8F800F04AF8FFF7A6FF4F
:10038400FFF7AAFFFCE780B590B000AF07F11803B0
:1003940028220021184601F041FF3B1D00221A606B
:1003A4005A609A60DA601A610123BB614FF48033AA
:1003B400FB6100233B620123BB6202237B634FF496
:1003C4008033BB634FF4E013FB6307F11803184653
:1003D40000F0A0FD0346002B01D000F025F80F2308
:1003E4007B600223BB600023FB604FF480633B61AE
:1003F40000237B613B1D0221184601F0FBF80346F4
:10040400002B01D000F010F800BF4037BD4680BD7E
:1004140080B500AF00220521362000F03DFA3620D9
:1004240000F066FA00BF80BD80B400AF72B600BFB2
:10043400FEE780B483B000AF7860396000BF0C374A
:10044400BD4680BC7047000080B485B000AF154B3A
:100454009B69144A43F001039361124B9B6903F0B7
:100464000103BB60BB680F4BDB690E4A43F080534A
:10047400D3610C4BDB6903F080537B607B680A4BD0
:100484005B68FB60FB6823F0E063FB60FB6843F0A0
:100494000073FB60044AFB68536000BF1437BD4619
:1004A40080BC7047001002400000014080B400AFDF
:1004B400FEE780B400AFFEE780B400AFFEE780B48F
:1004C40000AFFEE780B400AFFEE780B400AF00BF2A
:1004D400BD4680BC704780B400AF00BFBD4680BC41
:1004E400704780B400AF00BFBD4680BC704780B584
:1004F40000AF00F0C9F800BF80BD80B400AF00BFFA
:10050400BD4680BC7047000080B582B000AF3B465A
:1005140000221A605A60154B154A1A60134B41F6B3
:100524001F425A60114B00229A60104B6322DA601A
:100534000E4B00229A610D4801F05EFA0346002B2F
:1005440001D0FFF771FF00233B6000237B603B4633
:100554001946064801F05CFD0346002B01D0FFF765
:1005640063FF00BF0837BD4680BD00BF2C000020DC
:100574000010004080B485B000AF78607B681B68D1
:10058400094A93420BD1094BDB69084A43F0100333
:10059400D361064BDB6903F01003FB60FB6800BF0B
:1005A4001437BD4680BC7047001000400010024064
:1005B400FFF7A3FF0B480C490C4A002302E0D45870
:1005C400C4500433C4188C42F9D3094A094C00239B
:1005D40001E013600432A242FBD301F0FBFDFFF7FC
:1005E400C1FE70470000002010000020982300087E
:1005F4001000002078000020FEE7000080B500AF66
:10060400084B1B68074A43F010031360032000F0F3
:1006140023F90F2000F008F8FFF716FF002318460F
:1006240080BD00BF0020024080B582B000AF78607A
:10063400124B1A68124B1B7819464FF47A73B3FBAA
:10064400F1F3B2FBF3F3184600F06AF90346002B0A
:1006540001D001230EE07B680F2B0AD800227968B1
:100664004FF0FF3000F018F9064A7B68136000234E
:1006740000E0012318460837BD4680BD0400002071
:100684000C0000200800002080B400AF054B1B784C
:100694001A46054B1B681344034A136000BFBD464A
:1006A40080BC70470C0000207400002080B400AFB0
:1006B400024B1B681846BD4680BC7047740000207E
:1006C40080B485B000AF78607B6803F00703FB60FB
:1006D4000C4BDB68BB60BA684FF6FF031340BB608A
:1006E400FB681A02BB68134343F0BF6343F400334F
:1006F400BB60044ABB68D36000BF1437BD4680BCEE
:10070400704700BF00ED00E080B400AF044BDB682D
:100714001B0A03F007031846BD4680BC704700BFA0
:1007240000ED00E080B483B000AF0346FB7197F99D
:100734000730002B0BDBFB7903F01F02064997F906
:1007440007305B09012000FA02F241F8232000BFC0
:100754000C37BD4680BC704700E100E080B483B034
:1007640000AF03463960FB7197F90730002B0ADBB1
:100774003B68DAB20C4997F907301201D2B20B4444
:1007840083F800230AE03B68DAB20849FB7903F0F6
:100794000F03043B1201D2B20B441A7600BF0C378C
:1007A400BD4680BC704700BF00E100E000ED00E002
:1007B40080B489B000AFF860B9607A60FB6803F078
:1007C4000703FB61FB69C3F10703042B28BF042360
:1007D400BB61FB690433062B02D9FB69033B00E0D0
:1007E40000237B614FF0FF32BB6902FA03F3DA4363
:1007F400BB681A407B699A404FF0FF317B6901FA6C
:1008040003F3D9437B680B40134318462437BD4692
:1008140080BC704780B582B000AF78607B68013BD4
:10082400B3F1807F01D301230FE00A4A7B68013BC7
:1008340053600F214FF0FF30FFF790FF054B00226C
:100844009A60044B07221A60002318460837BD46F5
:1008540080BD00BF10E000E080B582B000AF7860DA
:100864007B68072B0FD07B68062B0CD07B68052B8D
:1008740009D07B68042B06D07B68032B03D091211D
:100884000448FFF7D6FD7868FFF71AFF00BF083762
:10089400BD4680BD4822000880B586B000AF03463F
:1008A400B9607A60FB7300237B617B680F2B03D9EB
:1008B400A9210E48FFF7BDFDBB680F2B03D9AA2160
:1008C4000A48FFF7B6FDFFF71FFF78617A68B96839
:1008D4007869FFF76DFF024697F90F301146184605
:1008E400FFF73CFF00BF1837BD4680BD4822000813
:1008F40080B582B000AF0346FB7197F90730002B37
:1009040003DABD210548FFF794FD97F9073018462F
:10091400FFF708FF00BF0837BD4680BD4822000826
:1009240080B582B000AF78607868FFF773FF034644
:1009340018460837BD4680BD80B58AB000AF7860E0
:10094400396000237B6200233B627B68A94A93429F
:100954001BD07B68A84A934217D07B68A74A93426E
:1009640013D07B68A64A93420FD07B68A54A934272
:100974000BD07B68A44A934207D07B68A34A934276
:1009840003D0BD21A248FFF754FD3B681B689BB20E
:10099400002B05D03B681B681B0C1B04002B03D0E9
:1009A400BE219B48FFF745FD3B685B68002B00F0C8
:1009B40035823B685B68012B00F030823B685B68E2
:1009C400112B00F02B823B685B68022B00F026821F
:1009D4003B685B68122B00F021823B685B688D4AA0
:1009E400934200F01B823B685B688B4A934200F0A1
:1009F40015823B685B68894A934200F00F823B682A
:100A04005B68874A934200F009823B685B68854AC9
:100A1400934200F003823B685B68834A934200F090
:100A2400FD813B685B68032B00F0F881BF217848A7
:100A3400FFF7FFFCF2E101227B6A02FA03F3FB6198
:100A44003B681B68FA691340BB61BA69FB699A4247
:100A540040F0E1817B68674A93421BD07B68664A19
:100A6400934217D07B68654A934213D07B68644AEB
:100A740093420FD07B68634A93420BD07B68624AEF
:100A8400934207D07B68614A934203D0CD216048EA
:100A9400FFF7CFFC3B685B68634A934200F0C68073
:100AA400614A934200F2EC805C4A934200F0BE80BB
:100AB4005A4A934200F2E4805A4A934200F0B680C4
:100AC400584A934200F2DC80534A934200F0AE80CD
:100AD400514A934200F2D480514A934200F0A680D6
:100AE4004F4A934200F2CC80122B2BD8122B00F2E7
:100AF400C78001A252F823F0310C0008510B000802
:100B0400A30B00087F0C0008850C0008850C000866
:100B1400850C0008850C0008850C0008850C00086D
:100B2400850C0008850C0008850C0008850C00085D
:100B3400850C0008850C0008850C0008790B00085A
:100B4400CD0B0008334A934270D099E03B68DB68D0
:100B5400022B0BD03B68DB68012B07D03B68DB68BA
:100B6400032B03D0D5212A48FFF763FC3B68DB68DD
:100B74003B6286E03B68DB68022B0BD03B68DB689A
:100B8400012B07D03B68DB68032B03D0DC21204812
:100B9400FFF74FFC3B68DB6804333B6271E03B6862
:100BA400DB68022B0BD03B68DB68012B07D03B686A
:100BB400DB68032B03D0E3211548FFF73AFC3B68BD
:100BC400DB6808333B625CE03B68DB68022B0BD0DC
:100BD4003B68DB68012B07D03B68DB68032B03D041
:100BE400EA210B48FFF725FC3B68DB680C333B62CA
:100BF40047E000BF00080140000C01400010014024
:100C04000014014000180140001C01400020014074
:100C1400842200080000111000002110000031108F
:100C24000000121000002210000032103B689B6884
:100C3400002B0BD03B689B68012B07D03B689B685B
:100C4400022B03D0F7217C48FFF7F3FB3B689B683A
:100C5400002B02D104233B6213E03B689B68012B09
:100C640005D108233B627B68FA691A6109E008230D
:100C74003B627B68FA695A6103E000233B6200E04F
:100C840000BFBB69FF2B01D87B6801E07B6804339C
:100C94007B61BB69FF2B02D87B6A9B0002E07B6A05
:100CA400083B9B003B617B691A680F213B6901FA91
:100CB40003F3DB431A40396A3B6901FA03F31A432D
:100CC4007B691A603B685B6803F08053002B00F07B
:100CD400A2805A4B9B69594A43F001039361574BD5
:100CE4009B6903F00103BB60BB68554A7B6A9B08A0
:100CF400023352F82330FB607B6A03F003039B004A
:100D04000F2202FA03F3DB43FA681340FB607B68AB
:100D14004C4A93421FD07B684B4A934219D07B685C
:100D24004A4A934213D07B68494A93420DD07B6868
:100D3400484A934207D07B68474A934201D105232E
:100D44000AE0062308E0042306E0032304E0022368
:100D540002E0012300E000237A6A02F00302920019
:100D64009340FA681343FB6035497B6A9B0802335E
:100D7400FA6841F823203B685B6803F48013002B76
:100D840006D0364B9A683549BB6913438B6006E03D
:100D9400324B9A68BB69DB43304913408B603B6834
:100DA4005B6803F40013002B06D02C4BDA682B4944
:100DB400BB691343CB6006E0284BDA68BB69DB43AD
:100DC40026491340CB603B685B6803F40033002B77
:100DD40006D0224B5A682149BB6913434B6006E095
:100DE4001E4B5A68BB69DB431C4913404B603B688C
:100DF4005B6803F48033002B06D0184B1A6817493C
:100E0400BB6913430B6006E0144B1A68BB69DB43F0
:100E1400124913400B607B6A01337B623B681A689A
:100E24007B6A22FA03F3002B7FF405AE00BF00BFF8
:100E34002837BD4680BD00BF842200080010024050
:100E44000000014000080140000C01400010014076
:100E54000014014000180140001C0140000401403E
:100E640080B582B000AF78600B467B8013467B7000
:100E74007B88002B04D07B881B0C1B04002B04D024
:100E84004FF4EA710E48FFF7D4FA7B78002B07D0B1
:100E94007B78012B04D040F2D5110948FFF7C9FA39
:100EA4007B78002B03D07A887B681A6103E07B8807
:100EB4001A047B681A6100BF0837BD4680BD00BFB5
:100EC4008422000880B584B000AF78600B467B8034
:100ED4007B88002B04D07B881B0C1B04002B04D0C4
:100EE4004FF4F6710A48FFF7A4FA7B68DB68FB60ED
:100EF4007A88FB6813401A04FB68D9437B880B404B
:100F04001A437B681A6100BF1037BD4680BD00BF1D
:100F14008422000880B586B000AF78607B68002B1F
:100F240001D101235CE37B681B68002B1CD07B6828
:100F34001B6803F00103002B16D17B681B6803F0C8
:100F44000203002B10D17B681B6803F00803002BFD
:100F54000AD17B681B6803F00403002B04D140F220
:100F64006511A548FFF765FA7B681B6803F0010368
:100F7400002B00F09A807B685B68002B0ED07B68A6
:100F84005B68B3F5803F09D07B685B68B3F5A02F3D
:100F940004D040F26B119848FFF74BFA974B5B680B
:100FA40003F00C03042B0CD0944B5B6803F00C038C
:100FB400082B12D1914B5B6803F48033B3F5803F67
:100FC4000BD18E4B1B6803F40033002B6CD07B6871
:100FD4005B68002B68D1012302E37B685B68B3F58F
:100FE400803F06D1854B1B68844A43F480331360E9
:100FF4002EE07B685B68002B0CD1804B1B687F4A1A
:1010040023F4803313607D4B1B687C4A23F48023D4
:1010140013601DE07B685B68B3F5A02F0CD1774BA0
:101024001B68764A43F480231360744B1B68734A2D
:1010340043F4803313600BE0704B1B686F4A23F456
:10104400803313606D4B1B686C4A23F48023136058
:101054007B685B68002B13D0FFF728FB386108E03E
:10106400FFF724FB02463B69D31A642B01D90323FF
:10107400B6E2624B1B6803F40033002BF0D014E09B
:10108400FFF714FB386108E0FFF710FB02463B69E9
:10109400D31A642B01D90323A2E2584B1B6803F42F
:1010A4000033002BF0D100E000BF7B681B6803F025
:1010B4000203002B79D07B681B69002B08D07B6866
:1010C4001B69012B04D040F29F114B48FFF7B1F983
:1010D4007B685B691F2B04D94FF4D0714648FFF736
:1010E400A8F9464B5B6803F00C03002B0BD0434B71
:1010F4005B6803F00C03082B1CD1404B5B6803F4C2
:101104008033002B16D13D4B1B6803F00203002BE8
:1011140005D07B681B69012B01D0012360E2374BAA
:101124001B6823F0F8027B685B69DB0033491343D7
:101134000B603AE07B681B69002B20D0304B012206
:101144001A60FFF7B3FA386108E0FFF7AFFA024616
:101154003B69D31A022B01D9032341E2274B1B68B5
:1011640003F00203002BF0D0244B1B6823F0F80299
:101174007B685B69DB00214913430B6015E0204B5E
:1011840000221A60FFF792FA386108E0FFF78EFA3E
:1011940002463B69D31A022B01D9032320E2174BE1
:1011A4001B6803F00203002BF0D17B681B6803F07B
:1011B4000803002B48D07B689B69002B08D07B6810
:1011C4009B69012B04D04FF4F0710B48FFF731F900
:1011D4007B689B69002B21D00A4B01221A60FFF720
:1011E40065FA386110E0FFF761FA02463B69D31AE9
:1011F400022B09D90323F3E1C022000800100240A6
:101204000000424280044242674B5B6A03F00203DF
:10121400002BE8D0012000F0D1FB15E0634B002245
:101224001A60FFF743FA386108E0FFF73FFA024615
:101234003B69D31A022B01D90323D1E15A4B5B6AD0
:1012440003F00203002BF0D17B681B6803F0040356
:10125400002B00F0C0800023FB757B68DB68002B4B
:101264000CD07B68DB68012B08D07B68DB68052B1E
:1012740004D040F20F214E48FFF7DBF84A4BDB69FC
:1012840003F08053002B0DD1474BDB69464A43F0F2
:101294008053D361444BDB6903F08053BB60BB686C
:1012A4000123FB75434B1B6803F48073002B18D197
:1012B400404B1B683F4A43F480731360FFF7F6F911
:1012C400386108E0FFF7F2F902463B69D31A642B50
:1012D40001D9032384E1374B1B6803F48073002B8B
:1012E400F0D07B68DB68012B06D12F4B1B6A2E4A9A
:1012F40043F0010313622DE07B68DB68002B0CD103
:10130400294B1B6A284A23F001031362264B1B6AEC
:10131400254A23F0040313621CE07B68DB68052B79
:101324000CD1214B1B6A204A43F0040313621E4B69
:101334001B6A1D4A43F0010313620BE01A4B1B6A3C
:10134400194A23F001031362174B1B6A164A23F050
:10135400040313627B68DB68002B15D0FFF7A6F942
:1013640038610AE0FFF7A2F902463B69D31A41F259
:101374008832934201D9032332E10B4B1B6A03F0F9
:101384000203002BEED01DE0FFF790F9386113E063
:10139400FFF78CF902463B69D31A41F28832934233
:1013A4000AD903231CE100BF00100240800442421A
:1013B400C0220008007000408B4B1B6A03F002033C
:1013C400002BE5D1FB7D012B05D1874BDB69864AD8
:1013D40023F08053D3617B68DB69002B0CD07B68DE
:1013E400DB69012B08D07B68DB69022B04D040F257
:1013F400AD217E48FFF71DF87B68DB69002B00F008
:10140400EE80794B5B6803F00C03082B00F0CE8070
:101414007B68DB69022B40F0B2807B681B6A002B7F
:1014240009D07B681B6AB3F5803F04D040F2B62133
:101434006E48FEF7FEFF7B685B6A002B4AD07B6830
:101444005B6AB3F5802F45D07B685B6AB3F5002FE8
:1014540040D07B685B6AB3F5402F3BD07B685B6A06
:10146400B3F5801F36D07B685B6AB3F5A01F31D01B
:101474007B685B6AB3F5C01F2CD07B685B6AB3F5ED
:10148400E01F27D07B685B6AB3F5001F22D07B681E
:101494005B6AB3F5101F1DD07B685B6AB3F5201F30
:1014A40018D07B685B6AB3F5301F13D07B685B6A26
:1014B400B3F5401F0ED07B685B6AB3F5501F09D0AB
:1014C4007B685B6AB3F5601F04D040F2B7214748DC
:1014D400FEF7AFFF464B00221A60FFF7E7F83861CA
:1014E40008E0FFF7E3F802463B69D31A022B01D95F
:1014F400032375E03C4B1B6803F00073002BF0D111
:101504007B681B6AB3F5803F16D17B689B68002B10
:1015140009D07B689B68B3F5003F04D040F2CD212D
:101524003248FEF786FF304B5B6823F400327B6859
:101534009B682D4913434B602B4B5B6823F4741257
:101544007B68196A7B685B6A0B43274913434B60CA
:10155400274B01221A60FFF7A9F8386108E0FFF76A
:10156400A5F802463B69D31A022B01D9032337E0BD
:101574001D4B1B6803F00073002BF0D02FE01C4BB5
:1015840000221A60FFF792F8386108E0FFF78EF83E
:1015940002463B69D31A022B01D9032320E0124BE4
:1015A4001B6803F00073002BF0D118E07B68DB6943
:1015B400012B01D1012313E00B4B5B68FB60FB683B
:1015C40003F480327B681B6A9A4206D1FB6803F4F9
:1015D40070127B685B6A9A4201D0012300E0002309
:1015E40018461837BD4680BD00100240C0220008CE
:1015F4006000424280B584B000AF786039607B6897
:10160400002B01D1012376E17B681B6803F0010301
:10161400002B16D17B681B6803F00203002B10D14A
:101624007B681B6803F00403002B0AD17B681B68EA
:1016340003F00803002B04D140F236317448FEF75E
:10164400F8FE3B68002B0AD03B68012B07D03B68AF
:10165400022B04D040F237316D48FEF7EAFE6D4BA1
:101664001B6803F007033A689A4210D9694B1B6858
:1016740023F0070267493B6813430B60654B1B6803
:1016840003F007033A689A4201D0012333E17B68EF
:101694001B6803F00203002B49D07B681B6803F02E
:1016A4000403002B05D05C4B5B685B4A43F4E063A6
:1016B40053607B681B6803F00803002B05D0564B6E
:1016C4005B68554A43F4605353607B689B68002B06
:1016D40024D07B689B68802B20D07B689B68902BF0
:1016E4001CD07B689B68A02B18D07B689B68B02BB0
:1016F40014D07B689B68C02B10D07B689B68D02B70
:101704000CD07B689B68E02B08D07B689B68F02B2F
:1017140004D040F25D313E48FEF78BFE3E4B5B68E1
:1017240023F0F0027B689B683B4913434B607B6862
:101734001B6803F00103002B51D07B685B68002B0E
:101744000CD07B685B68012B08D07B685B68022B3C
:1017540004D04FF459712E48FEF76BFE7B685B682A
:10176400012B07D12C4B1B6803F40033002B15D13C
:101774000123C0E07B685B68022B07D1264B1B6802
:1017840003F00073002B09D10123B4E0224B1B6842
:1017940003F00203002B01D10123ACE01E4B5B6874
:1017A40023F003027B685B681B4913434B60FEF71D
:1017B4007DFFF8600AE0FEF779FF0246FB68D31A62
:1017C40041F28832934201D9032394E0124B5B68BF
:1017D40003F00C027B685B689B009A42EBD10D4BD3
:1017E4001B6803F007033A689A4217D2094B1B6837
:1017F40023F0070207493B6813430B60054B1B6842
:1018040003F007033A689A4208D0012373E000BF4B
:10181400C022000800200240001002407B681B68C0
:1018240003F00403002B25D07B68DB68002B18D061
:101834007B68DB68B3F5806F13D07B68DB68B3F536
:10184400A06F0ED07B68DB68B3F5C06F09D07B68EE
:10185400DB68B3F5E06F04D040F2A2312848FEF70C
:10186400E8FD284B5B6823F4E0627B68DB6825496C
:1018740013434B607B681B6803F00803002B26D0DE
:101884007B681B69002B18D07B681B69B3F5806FDC
:1018940013D07B681B69B3F5A06F0ED07B681B69FE
:1018A400B3F5C06F09D07B681B69B3F5E06F04D052
:1018B40040F2A9311248FEF7BCFD124B5B6823F4D9
:1018C40060527B681B69DB000E4913434B6000F0D8
:1018D40021F802460B4B5B681B0903F00F030A490E
:1018E400CB5C22FA03F3094A1360094B1B681846C0
:1018F400FEF79AFE002318461037BD4680BD00BF90
:10190400C0220008001002406C23000804000020DC
:101914000800002080B487B000AF0023FB600023E0
:10192400BB6000237B6100237B6000233B611E4B73
:101934005B68FB60FB6803F00C03042B02D0082BEC
:1019440003D027E0194B3B6127E0FB689B0C03F0B5
:101954000F03174AD35C7B60FB6803F48033002BCE
:1019640010D0114B5B685B0C03F00103114AD35C8C
:10197400BB607B680D4A02FB03F2BB68B2FBF3F366
:101984007B6104E07B680C4A02FB03F37B617B69A7
:101994003B6102E0054B3B6100BF3B6918461C37C5
:1019A400BD4680BC704700BF0010024000127A00A0
:1019B4007C2300088C23000800093D0080B485B016
:1019C40000AF78600A4B1B680A4AA2FB03235B0A38
:1019D4007A6802FB03F3FB6000BFFB685A1EFA60DF
:1019E400002BF9D100BF00BF1437BD4680BC70473F
:1019F40004000020D34D621080B582B000AF78603F
:101A04007B68002B01D10123B5E07B681B685C4A2D
:101A1400934227D07B681B685A4A934222D07B6842
:101A24001B68B3F1804F1DD07B681B68564A9342F4
:101A340018D07B681B68554A934213D07B681B6897
:101A4400534A93420ED07B681B68524A934209D092
:101A54007B681B68504A934204D040F213114F48EC
:101A6400FEF7E7FC7B689B68002B14D07B689B68BF
:101A7400102B10D07B689B68202B0CD07B689B6854
:101A8400402B08D07B689B68602B04D04FF48A718C
:101A94004248FEF7CEFC7B681B69002B0ED07B68A6
:101AA4001B69B3F5807F09D07B681B69B3F5007FA0
:101AB40004D040F215113948FEF7BBFC7B68DB68A3
:101AC400002B04D07B68DB68B3F5803F04D34FF46C
:101AD4008B713248FEF7ADFC7B689B69002B08D004
:101AE4007B689B69802B04D040F217112B48FEF7CA
:101AF400A0FC7B6893F83D30DBB2002B06D17B68F9
:101B0400002283F83C207868FEF734FD7B680222CB
:101B140083F83D207B681A687B68043319461046B5
:101B240000F0FCF97B68012283F846207B680122DF
:101B340083F83E207B68012283F83F207B680122E2
:101B440083F840207B68012283F841207B680122CE
:101B540083F842207B68012283F843207B680122BA
:101B640083F844207B68012283F845207B680122A6
:101B740083F83D20002318460837BD4680BD00BFCA
:101B8400002C0140003401400004004000080040E3
:101B9400000C00400010004000140040F82200082F
:101BA40080B584B000AF78607B681B683D4A93427F
:101BB40027D07B681B683C4A934222D07B681B6811
:101BC400B3F1804F1DD07B681B68384A934218D00C
:101BD4007B681B68364A934213D07B681B68354A7E
:101BE40093420ED07B681B68334A934209D07B68CA
:101BF4001B68324A934204D04FF4E8713048FEF730
:101C040018FC7B6893F83D30DBB2012B01D0012333
:101C140044E07B68022283F83D207B681B68DA6815
:101C24007B681B6842F00102DA607B681B681D4A0E
:101C3400934218D07B681B681B4A934213D07B687D
:101C44001B68B3F1804F0ED07B681B68174A934220
:101C540009D07B681B68164A934204D07B681B68D2
:101C6400144A934211D17B681B689B6803F00703F5
:101C7400FB60FB68062B10D07B681B681A687B68C6
:101C84001B6842F001021A6007E07B681B681A684F
:101C94007B681B6842F001021A6000231846103763
:101CA400BD4680BD002C01400034014000040040CA
:101CB40000080040000C00400010004000140040E8
:101CC400F822000880B582B000AF78607B681B689A
:101CD4001B6903F00203022B22D17B681B68DB68BB
:101CE40003F00203022B1BD17B681B686FF0020216
:101CF4001A617B6801221A777B681B689B6903F071
:101D04000303002B03D0786800F0EDF805E0786851
:101D140000F0E0F8786800F0EFF87B6800221A77AA
:101D24007B681B681B6903F00403042B22D17B68C6
:101D34001B68DB6803F00403042B1BD17B681B685E
:101D44006FF004021A617B6802221A777B681B68B1
:101D54009B6903F44073002B03D0786800F0C3F848
:101D640005E0786800F0B6F8786800F0C5F87B689C
:101D740000221A777B681B681B6903F00803082B91
:101D840022D17B681B68DB6803F00803082B1BD196
:101D94007B681B686FF008021A617B6804221A775B
:101DA4007B681B68DB6903F00303002B03D07868AE
:101DB40000F099F805E0786800F08CF8786800F095
:101DC4009BF87B6800221A777B681B681B6903F009
:101DD4001003102B22D17B681B68DB6803F010030F
:101DE400102B1BD17B681B686FF010021A617B6893
:101DF40008221A777B681B68DB6903F44073002BA5
:101E040003D0786800F06FF805E0786800F062F8B5
:101E1400786800F071F87B6800221A777B681B6889
:101E24001B6903F00103012B0ED17B681B68DB687F
:101E340003F00103012B07D17B681B686FF00102DB
:101E44001A617868FEF700FA7B681B681B6903F067
:101E54008003802B0ED17B681B68DB6803F0800352
:101E6400802B07D17B681B686FF080021A61786849
:101E740000F0A7F97B681B681B6903F04003402B43
:101E84000ED17B681B68DB6803F04003402B07D14D
:101E94007B681B686FF040021A61786800F035F8BF
:101EA4007B681B681B6903F02003202B0ED17B6821
:101EB4001B68DB6803F02003202B07D17B681B68B9
:101EC4006FF020021A61786800F072F900BF0837D9
:101ED400BD4680BD80B483B000AF786000BF0C37CE
:101EE400BD4680BC704780B483B000AF786000BF4B
:101EF4000C37BD4680BC704780B483B000AF7860B7
:101F040000BF0C37BD4680BC704780B483B000AFBF
:101F1400786000BF0C37BD4680BC704780B485B084
:101F240000AF786039607B681B68FB607B68334A6C
:101F3400934213D07B68324A93420FD07B68B3F14B
:101F4400804F0BD07B682F4A934207D07B682E4A80
:101F5400934203D07B682D4A934208D1FB6823F057
:101F64007003FB603B685B68FA681343FB607B6843
:101F7400224A934213D07B68214A93420FD07B6854
:101F8400B3F1804F0BD07B681E4A934207D07B6825
:101F94001D4A934203D07B681C4A934208D1FB68D4
:101FA40023F44073FB603B68DB68FA681343FB600F
:101FB400FB6823F080023B685B691343FB607B682A
:101FC400FA681A603B689A687B68DA623B681A6848
:101FD4007B689A627B68094A934203D07B68084A0B
:101FE400934203D13B681A697B681A637B680122B8
:101FF4005A6100BF1437BD4680BC7047002C0140B5
:10200400003401400004004000080040000C00407F
:1020140080B584B000AF786039607B681B685C4A27
:10202400934227D07B681B685A4A934222D07B682C
:102034001B68B3F1804F1DD07B681B68564A9342DE
:1020440018D07B681B68554A934213D07B681B6881
:10205400534A93420ED07B681B68524A934209D07C
:102064007B681B68504A934204D040F2B4714F48D5
:10207400FEF7DFF93B681B68002B20D03B681B6828
:10208400102B1CD03B681B68202B18D03B681B68A6
:10209400302B14D03B681B68402B10D03B681B6866
:1020A400502B0CD03B681B68602B08D03B681B6826
:1020B400702B04D040F2B5713C48FEF7BAF93B6886
:1020C4005B68802B08D03B685B68002B04D040F22F
:1020D400B6713648FEF7ADF97B6893F83C30012BB6
:1020E40001D1022350E07B68012283F83C207B6805
:1020F400022283F83D207B681B685B68FB607B6879
:102104001B689B68BB60FB6823F07003FB603B6843
:102114001B68FA681343FB607B681B68FA685A60A3
:102124007B681B681A4A934218D07B681B68194A5B
:10213400934213D07B681B68B3F1804F0ED07B6849
:102144001B68154A934209D07B681B68134A934263
:1021540004D07B681B68124A93420CD1BB6823F0FD
:102164008003BB603B685B68BA681343BB607B68F1
:102174001B68BA689A607B68012283F83D207B68FB
:10218400002283F83C20002318461037BD4680BD4A
:10219400002C0140003401400004004000080040CD
:1021A400000C0040001000400014004030230008E0
:1021B40080B483B000AF786000BF0C37BD4680BCEC
:1021C400704780B483B000AF786000BF0C37BD4661
:1021D40080BC704770B500260C4D0D4C641BA410D8
:1021E400A64209D100F022F800260A4D0A4C641BCD
:1021F400A410A64205D170BD55F8043B984701369A
:10220400EEE755F8043B98470136F2E790230008BF
:1022140090230008902300089423000803460244F6
:10222400934200D1704703F8011BF9E7F8B500BFEA
:10223400F8BC08BC9E467047F8B500BFF8BC08BCA3
:042244009E467047FB
:102248002E2E2F447269766572732F53544D333294
:10225800463178785F48414C5F4472697665722FE1
:102268005372632F73746D3332663178785F6861A7
:102278006C5F636F727465782E6300002E2E2F4496
:102288007269766572732F53544D333246317878BC
:102298005F48414C5F4472697665722F5372632FB1
:1022A80073746D3332663178785F68616C5F67701C
:1022B800696F2E63000000002E2E2F447269766528
:1022C80072732F53544D3332463178785F48414CFE
:1022D8005F4472697665722F5372632F73746D331E
:1022E80032663178785F68616C5F7263632E630071
:1022F8002E2E2F447269766572732F53544D3332E4
:10230800463178785F48414C5F4472697665722F30
:102318005372632F73746D3332663178785F6861F6
:102328006C5F74696D2E63002E2E2F44726976657A
:1023380072732F53544D3332463178785F48414C8D
:102348005F4472697665722F5372632F73746D33AD
:1023580032663178785F68616C5F74696D5F657843
:102368002E630000000000000000000001020304CA
:102378000607080902030405060708090A0B0C0DDD
:082388000E0F1010010200000D
:042390000902000836
:04239400E501000857
:10239800010000000024F40010000000010000000B
:04000005080005B535
:00000001FF
