:020000040800F2
:1000000000000120A10F0008A10C0008A70C0008A7
:10001000AD0C0008B30C0008B90C0008000000008B
:10002000000000000000000000000000BF0C0008FD
:10003000CB0C000800000000D70C0008E30C0008FF
:10004000E90F0008E90F0008E90F0008E90F0008B0
:10005000E90F0008E90F0008E90F0008E90F0008A0
:10006000E90F0008E90F0008E90F0008E90F000890
:10007000E90F0008E90F0008E90F0008E90F000880
:10008000E90F0008E90F0008E90F0008E90F000870
:10009000E90F0008E90F0008E90F0008E90F000860
:1000A000E90F0008E90F0008E90F0008E90F000850
:1000B000E90F0008E90F0008E90F0008E90F000840
:1000C000E90F0008E90F0008E90F0008E90F000830
:1000D000E90F0008E90F000871060008E90F0008A1
:1000E000E90F0008E90F0008E90F0008E90F000810
:1000F000E90F0008E90F0008E90F0008E90F000800
:10010000E90F0008E90F0008E90F0008E90F0008EF
:10011000E90F0008E90F0008E90F0008E90F0008DF
:10012000E90F0008E90F0008E90F0008E90F0008CF
:1001300000000000000000000000000000000000BF
:1001400000000000000000000000000000000000AF
:10015000000000000000000000000000000000009F
:10016000000000000000000000000000000000008F
:10017000000000000000000000000000000000007F
:10018000000000000000000000000000000000006F
:10019000000000000000000000000000000000005F
:1001A000000000000000000000000000000000004F
:1001B000000000000000000000000000000000003F
:1001C000000000000000000000000000000000002F
:1001D000000000000000000000000000000000001F
:0401E0005FF8E0F1F3
:1001E40010B5054C237833B9044B13B10448AFF36D
:1001F40000800123237010BD0C00002000000000CB
:10020400B02C000808B5034B1BB103490348AFF3F6
:10021400008008BD0000000010000020B02C000881
:1002240010F8012B11F8013B012A28BF9A42F7D09C
:10023400D01A704780B500AF0821054801F0F6FADE
:100244000346002B01D1012300E00023184680BDA2
:100254000020014080B500AF1021054801F0E6FA06
:100264000346002B01D1012300E00023184680BD82
:100274000020014080B500AF2021054801F0D6FAE6
:100284000346002B01D1012300E00023184680BD62
:100294000020014080B582B000AF0346FB71FFF738
:1002A400C9FF0346012B0ED1114B1B881A46FB795B
:1002B40001335B009A420CDA0D4B1B8801339AB26E
:1002C4000B4B1A8005E00A4B00221A80094B0022CE
:1002D4001A80074B1B88022B04D1064B01221A807B
:1002E400012300E0002318460837BD4680BD00BF47
:1002F4002E0000202800002080B582B000AF034605
:10030400FB71FFF7A7FF0346012B0ED1114B1B888E
:100314001A46FB7901335B009A420CDA0D4B1B88B9
:1003240001339AB20B4B1A8005E00A4B00221A8063
:10033400094B00221A80074B1B88022B04D1064B61
:1003440001221A80012300E0002318460837BD4625
:1003540080BD00BF300000202A00002080B582B09C
:1003640000AF0346FB71FFF785FF0346012B0ED157
:10037400114B1B881A46FB7901335B009A420CDA55
:100384000D4B1B8801339AB20B4B1A8005E00A4BC4
:1003940000221A80094B00221A80074B1B88022B6B
:1003A40004D1064B01221A80012300E000231846E1
:1003B4000837BD4680BD00BF320000202C0000205D
:1003C40080B483B000AF0346FB71FB79062B57D88A
:1003D40001A252F823F000BFF90300080D0400083D
:1003E4002104000835040008490400085D040008DD
:1003F400710400082A4B01221A602A4B00221A6059
:10040400294B00221A6045E0254B00221A60254B37
:1004140001221A60244B00221A603BE0204B002288
:100424001A60204B00221A601F4B01221A6031E02F
:100434001B4B01221A601B4B01221A601A4B00222B
:100444001A6027E0164B01221A60164B00221A602C
:10045400154B01221A601DE0114B00221A60114B4A
:1004640001221A60104B01221A6013E00C4B012286
:100474001A600C4B01221A600B4B01221A6009E02E
:10048400074B00221A60074B00221A60064B002219
:100494001A6000BF00BF0C37BD4680BC704700BF68
:1004A400880123428C0123429001234280B483B00B
:1004B40000AF0346FB71FB79062B57D801A252F813
:1004C40023F000BFE5040008F90400080D05000846
:1004D4002105000835050008490500085D050008E8
:1004E4002A4B01221A602A4B00221A60294B00224F
:1004F4001A6045E0254B00221A60254B01221A6040
:10050400244B00221A603BE0204B00221A60204B4F
:1005140000221A601F4B01221A6031E01B4B01229A
:100524001A601B4B01221A601A4B00221A6027E042
:10053400164B01221A60164B00221A60154B012239
:100544001A601DE0114B00221A60114B01221A603F
:10055400104B01221A6013E00C4B01221A600C4B61
:1005640001221A600B4B01221A6009E0074B00229A
:100574001A60074B00221A60064B00221A6000BF63
:1005840000BF0C37BD4680BC704700BF84012442C5
:100594009C0123428801244280B483B000AF786078
:1005A4007B681B6803F08003802B0CBF01230023AE
:1005B400DBB218460C37BD4680BC704780B489B0A6
:1005C40000AF78607B680C33FB60FB6853E8003F46
:1005D400BB60BB6843F02003FB617B680C33FA69A2
:1005E400BA617B617969BA6941E800233B613B697F
:1005F400002BE7D100BF00BF2437BD4680BC704745
:1006040080B483B000AF78607B68DB6803F02003BC
:10061400202B0CBF01230023DBB218460C37BD4648
:1006240080BC704780B483B000AF78607B685B683F
:10063400DBB218460C37BD4680BC704780B483B02B
:1006440000AF78600B46FB70FA787B685A6000BF95
:100654000C37BD4680BC704780B500AF0248FFF739
:10066400ADFF00BF80BD00BF0044004080B582B034
:1006740000AF0948FFF7C4FF0346002B08D0064823
:10068400FFF7D0FF0346FB71FB79184600F006F92B
:1006940000BF0837BD4680BD0044004080B582B02D
:1006A40000AF0346FB7100BF0748FFF775FF034621
:1006B400002BF9D0FB7919460348FFF7BFFF00BFB1
:1006C4000837BD4680BD00BF0044004080B584B0FB
:1006D40000AF78600B467B800023FB7309E0FB7B53
:1006E4007A6813441B781846FFF7D8FFFB7B013365
:1006F400FB73FB7B9BB27A889A42F0D800BF00BFA1
:100704001037BD4680BD000080B584B000AF002323
:100714007B6007F1080300221A609A80FFF79CFFB0
:100724000A2000F0C3FC3B1D064A92E8030083E85C
:1007340003003B1D0A211846FFF7C8FF00BF10370E
:10074400BD4680BDC82C000880B500AF0120FFF76E
:10075400A1FD0346002B3AD0454B1B78022B19D040
:10076400022B1EDC002B02D0012B0BD019E0414BD5
:10077400414A92E8030018600433198002330A0CDA
:100784001A7011E03B4B3D4A92E8030018600433B1
:10079400198009E0374B3A4A92E8030083E80300E2
:1007A40002E0334B00221A70314B1B785A1C354B34
:1007B40083FB0231D317C91A0B465B000B44D11AD1
:1007C400CAB22B4B1A700A212A4800F049F90120B9
:1007D400FFF792FD0346002B37D02B4B1B78022BDF
:1007E40012D0022B1BDC002B02D0012B06D016E00A
:1007F400204B264A07CA03C31A7013E01D4B244A30
:1008040007CA03C31A700DE01A4B224A92E8030088
:1008140018600433198002330A0C1A7002E01A4B70
:1008240000221A70184B1B785A1C164B83FB02319A
:10083400D317C91A0B465B000B44D11ACAB2124B28
:100844001A700A210B4800F00BF90120FFF786FD0E
:100854000346002B09D0074B0F4A92E8030083E8B4
:1008640003000A21034800F0FBF800BF80BD00BF6D
:100874003E00002034000020D02C0008D82C0008B2
:10088400E02C0008565555553F000020E82C000880
:10089400F42C0008002D0008C82C000880B582B094
:1008A40000AF0346FB71FB79242B0CD1224B1B7840
:1008B400002B08D1204B01221A70142200211F485A
:1008C40002F0ECF934E01C4B1B78012B30D1FB799E
:1008D400232B0DD1184B00221A70194B00221A70C9
:1008E40000F030F814220021144802F0D7F91FE078
:1008F400114B1B78012B1BD1FB79242B18D0104BE7
:100904001B785A1CD1B20E4A117019460B4AFB7956
:1009140053540B4B1B78142B0AD9094B00221A7021
:10092400054B00221A7014220021044802F0B6F983
:100934000837BD4680BD00BF5400002040000020A1
:100944005500002080B500AF37493848FFF768FCF0
:100954000346002B06D10220FFF732FD0220FFF7E9
:10096400A5FD5EE030493248FFF75AFC0346002BF0
:1009740006D10020FFF724FD0020FFF797FD50E08B
:1009840029492C48FFF74CFC0346002B06D10120D3
:10099400FFF716FD0120FFF789FD42E022492648B2
:1009A400FFF73EFC0346002B06D10320FFF708FDAA
:1009B4000320FFF77BFD34E01B492048FFF730FCA0
:1009C4000346002B06D10420FFF7FAFC0420FFF7AE
:1009D4006DFD26E014491A48FFF722FC0346002B5C
:1009E40006D10520FFF7ECFC0520FFF75FFD18E0BA
:1009F4000D491448FFF714FC0346002B11D1124B88
:100A040000221A60114B00221A60114B00221A6056
:100A1400104B00221A60104B00221A600F4B002268
:100A24001A6000BF80BD00BF40000020082D0008F0
:100A3400102D0008142D00081C2D0008242D00087A
:100A44002C2D0008342D0008880123428C012342F8
:100A540090012342840124429C01234288012442C0
:100A640080B582B000AF78600B467B807B881946E6
:100A74007868FFF72BFE00BF0837BD4680BD000035
:100A840080B588B000AF07F1100300221A605A60E5
:100A94009A60DA60324B9B69314A43F040039361B8
:100AA4002F4B9B6903F04003FB60FB682C4B9B6955
:100AB4002B4A43F480739361294B9B6903F480733D
:100AC400BB60BB68264B9B69254A43F004039361D2
:100AD400234B9B6903F004037B607B68204B9B6979
:100AE4001F4A43F0200393611D4B9B6903F02003CD
:100AF4003B603B6800229C211A4800F0BDFE0022A6
:100B04000621194800F0B8FE9C233B6101237B6158
:100B14000023BB610223FB6107F11003194611484E
:100B240000F0F0FB06233B6101237B610023BB61E2
:100B34000223FB6107F1100319460B4800F0E2FBA6
:100B440038233B6100237B610123BB6107F1100360
:100B54001946054800F0D6FB00BF2037BD4680BDCE
:100B640000100240001801400020014080B500AF91
:100B740000F03AFA00F009F8FFF782FF00F0A6F956
:100B8400FFF7C2FDFFF7E0FDFCE780B590B000AFD2
:100B940007F1180328220021184602F07FF83B1DB4
:100BA40000221A605A609A60DA601A610123BB61FC
:100BB4004FF48033FB6100233B620123BB620223B9
:100BC4007B634FF48033BB634FF4E013FB6307F1A3
:100BD4001803184600F082FE0346002B01D000F0F3
:100BE40019F80F237B600223BB600023FB604FF4E2
:100BF40080633B6100237B613B1D0221184601F0A9
:100C0400DDF90346002B01D000F004F800BF4037A3
:100C1400BD4680BD80B400AF72B600BFFEE780B4AD
:100C240083B000AF7860396000BF0C37BD4680BC2C
:100C34007047000080B584B000AF164B9B69154A1D
:100C440043F001039361134B9B6903F00103BB6001
:100C5400BB68104BDB690F4A43F08053D3610D4BE3
:100C6400DB6903F080537B607B68052000F0F2FAB7
:100C7400094B5B68FB60FB6823F0E063FB60FB6887
:100C840043F00073FB60044AFB68536000BF1037F5
:100C9400BD4680BD001002400000014080B400AF9A
:100CA400FEE780B400AFFEE780B400AFFEE780B497
:100CB40000AFFEE780B400AFFEE780B400AF00BF32
:100CC400BD4680BC704780B400AF00BFBD4680BC49
:100CD400704780B400AF00BFBD4680BC704780B58C
:100CE40000AF00F0C7F900BF80BD80B400AF00BF03
:100CF400BD4680BC7047000080B400AF044BDB6885
:100D04001B0A03F007031846BD4680BC704700BFAA
:100D140000ED00E080B483B000AF0346FB7197F9A7
:100D24000730002B0BDBFB7903F01F02064997F910
:100D340007305B09012000FA02F241F8232000BFCA
:100D44000C37BD4680BC704700E100E080B483B03E
:100D540000AF03463960FB7197F90730002B0ADBBB
:100D64003B68DAB20C4997F907301201D2B20B444E
:100D740083F800230AE03B68DAB20849FB7903F000
:100D84000F03043B1201D2B20B441A7600BF0C3796
:100D9400BD4680BC704700BF00E100E000ED00E00C
:100DA40080B489B000AFF860B9607A60FB6803F082
:100DB4000703FB61FB69C3F10703042B28BF04236A
:100DC400BB61FB690433062B02D9FB69033B00E0DA
:100DD40000237B614FF0FF32BB6902FA03F3DA436D
:100DE400BB681A407B699A404FF0FF317B6901FA76
:100DF40003F3D9437B680B40134318462437BD469D
:100E040080BC704780B483B000AF78607B68DB68D7
:100E140043F400527B68DA6000BF0C37BD4680BCE7
:100E2400704780B483B000AF78607B681B6923F49B
:100E340090427B681A617B685B6923F02A027B68B5
:100E44005A6100BF0C37BD4680BC704780B485B082
:100E540000AF7860084BDA6907497B681343CB61BC
:100E6400054BDA697B681340FB60FB6800BF1437ED
:100E7400BD4680BC704700BF0010024080B485B0FE
:100E840000AF7860084B9A6907497B6813438B610C
:100E9400054B9A697B681340FB60FB6800BF1437FD
:100EA400BD4680BC704700BF0010024080B400AF54
:100EB400054B5B68044A43F0E06343F00803536066
:100EC40000BFBD4680BC70470000014080B58CB0B7
:100ED40000AF07F1140300221A605A609A60DA60C6
:100EE4001A615A619A613B4600221A605A609A60FC
:100EF400DA601A614FF40030FFF7A8FF2020FFF7F3
:100F0400BDFF42F220033B6009237B600323BB60E7
:100F14000023FB603B4619461E4801F009FB44F2DE
:100F240040033B6004237B603B461946194801F0AB
:100F3400FFFAFFF7BBFFFFF7DFFE034601220221A2
:100F44001846FFF72DFF034619462620FFF7FEFE3D
:100F54002620FFF7DFFE4FF4E1337B610023BB6102
:100F64000023FB6100233B620C237B620023BB62F2
:100F74000023FB6207F114031946074801F068FDDA
:100F84000548FFF74EFF0448FFF73CFF00BF30372A
:100F9400BD4680BD0014014000440040FFF7A5FE9B
:100FA4000B480C490C4A002302E0D458C4500433C3
:100FB400C4188C42F9D3094A094C002301E0136098
:100FC4000432A242FBD301F045FEFFF7CFFD704788
:100FD400000000200C000020942E00080C000020CB
:100FE4005C000020FEE7000080B500AF084B1B68E2
:100FF400074A43F010031360032000F02BF9032089
:1010040000F008F8FFF716FE0023184680BD00BF65
:101014000020024080B582B000AF7860124B1A689D
:10102400124B1B7819464FF47A73B3FBF1F3B2FBFE
:10103400F3F3184600F05AF90346002B01D00123BC
:101044000EE07B680F2B0AD8002279684FF0FF303E
:1010540000F020F9064A7B681360002300E00123B6
:1010640018460837BD4680BD000000200800002057
:101074000400002080B400AF054B1B781A46054BD2
:101084001B681344034A136000BFBD4680BC70470D
:10109400080000205800002080B400AF024B1B68F9
:1010A4001846BD4680BC70475800002080B584B007
:1010B40000AF7860FFF7F0FFB8607B68FB60FB6807
:1010C400B3F1FF3F05D00A4B1B781A46FB68134463
:1010D400FB6000BFFFF7E0FF0246BB68D31AFA6863
:1010E4009A42F7D800BF00BF1037BD4680BD00BF8D
:1010F4000800002080B485B000AF78607B6803F0FE
:101104000703FB600C4BDB68BB60BA684FF6FF0358
:101114001340BB60FB681A02BB68134343F0BF6310
:1011240043F40033BB60044ABB68D36000BF143788
:10113400BD4680BC704700BF00ED00E080B400AF46
:10114400044BDB681B0A03F007031846BD4680BC4A
:10115400704700BF00ED00E080B483B000AF0346E9
:101164003960FB7197F90730002B0ADB3B68DAB270
:101174000C4997F907301201D2B20B4483F80023CB
:101184000AE03B68DAB20849FB7903F00F03043B39
:101194001201D2B20B441A7600BF0C37BD4680BC94
:1011A400704700BF00E100E000ED00E080B489B0CA
:1011B40000AFF860B9607A60FB6803F00703FB6175
:1011C400FB69C3F10703042B28BF0423BB61FB693C
:1011D4000433062B02D9FB69033B00E000237B6147
:1011E4004FF0FF32BB6902FA03F3DA43BB681A40DB
:1011F4007B699A404FF0FF317B6901FA03F3D943CD
:101204007B680B40134318462437BD4680BC7047A7
:1012140080B582B000AF78607B68013BB3F1807F1A
:1012240001D301230FE00A4A7B68013B53600F217D
:101234004FF0FF30FFF790FF054B00229A60044BFC
:1012440007221A60002318460837BD4680BD00BF38
:1012540010E000E080B582B000AF78607B68072BB7
:101264000FD07B68062B0CD07B68052B09D07B68DC
:10127400042B06D07B68032B03D091210448FFF78D
:10128400CEFC7868FFF736FF00BF0837BD4680BD47
:101294003C2D000880B586B000AF0346B9607A6083
:1012A400FB7300237B617B680F2B03D9A9210E48B4
:1012B400FFF7B5FCBB680F2B03D9AA210A48FFF737
:1012C400AEFCFFF73BFF78617A68B9687869FFF78D
:1012D4006DFF024697F90F3011461846FFF73CFFA1
:1012E40000BF1837BD4680BD3C2D000880B582B0D4
:1012F40000AF78607868FFF78BFF0346184608371D
:10130400BD4680BD80B58AB000AF786039600023E7
:101314007B6200233B627B68A94A93421BD07B68B3
:10132400A84A934217D07B68A74A934213D07B689C
:10133400A64A93420FD07B68A54A93420BD07B68A0
:10134400A44A934207D07B68A34A934203D0BD21A9
:10135400A248FFF764FC3B681B689BB2002B05D0D6
:101364003B681B681B0C1B04002B03D0BE219B484D
:10137400FFF755FC3B685B68002B00F035823B6847
:101384005B68012B00F030823B685B68112B00F036
:101394002B823B685B68022B00F026823B685B680B
:1013A400122B00F021823B685B688D4A934200F067
:1013B4001B823B685B688B4A934200F015823B6852
:1013C4005B68894A934200F00F823B685B68874AF6
:1013D400934200F009823B685B68854A934200F0BF
:1013E40003823B685B68834A934200F0FD813B685B
:1013F4005B68032B00F0F881BF217848FFF70FFCEE
:10140400F2E101227B6A02FA03F3FB613B681B6889
:10141400FA691340BB61BA69FB699A4240F0E18101
:101424007B68674A93421BD07B68664A934217D015
:101434007B68654A934213D07B68644A93420FD019
:101444007B68634A93420BD07B68624A934207D01D
:101454007B68614A934203D0CD216048FFF7DFFBEC
:101464003B685B68634A934200F0C680614A9342DA
:1014740000F2EC805C4A934200F0BE805A4A9342E8
:1014840000F2E4805A4A934200F0B680584A9342EC
:1014940000F2DC80534A934200F0AE80514A9342FA
:1014A40000F2D480514A934200F0A6804F4A9342FE
:1014B40000F2CC80122B2BD8122B00F2C78001A291
:1014C40052F823F0FD1500081D1500086F150008DB
:1014D4004B16000851160008511600085116000852
:1014E400511600085116000851160008511600083C
:1014F400511600085116000851160008511600082C
:1015040051160008511600084515000899150008E1
:10151400334A934270D099E03B68DB68022B0BD0CE
:101524003B68DB68012B07D03B68DB68032B03D0E7
:10153400D5212A48FFF773FB3B68DB683B6286E0F2
:101544003B68DB68022B0BD03B68DB68012B07D0C0
:101554003B68DB68032B03D0DC212048FFF75FFBEB
:101564003B68DB6804333B6271E03B68DB68022B59
:101574000BD03B68DB68012B07D03B68DB68032B8F
:1015840003D0E3211548FFF74AFB3B68DB680833C7
:101594003B625CE03B68DB68022B0BD03B68DB689A
:1015A400012B07D03B68DB68032B03D0EA210B48EF
:1015B400FFF735FB3B68DB680C333B6247E000BF59
:1015C40000080140000C01400010014000140140DB
:1015D40000180140001C014000200140782D000843
:1015E4000000111000002110000031100000121042
:1015F40000002210000032103B689B68002B0BD0C7
:101604003B689B68012B07D03B689B68022B03D087
:10161400F7217C48FFF703FB3B689B68002B02D152
:1016240004233B6213E03B689B68012B05D108232C
:101634003B627B68FA691A6109E008233B627B68B4
:10164400FA695A6103E000233B6200E000BFBB6912
:10165400FF2B01D87B6801E07B6804337B61BB69A5
:10166400FF2B02D87B6A9B0002E07B6A083B9B004D
:101674003B617B691A680F213B6901FA03F3DB4381
:101684001A40396A3B6901FA03F31A437B691A6009
:101694003B685B6803F08053002B00F0A2805A4B38
:1016A4009B69594A43F001039361574B9B6903F0CB
:1016B4000103BB60BB68554A7B6A9B08023352F83E
:1016C4002330FB607B6A03F003039B000F2202FAC2
:1016D40003F3DB43FA681340FB607B684C4A934294
:1016E4001FD07B684B4A934219D07B684A4A934285
:1016F40013D07B68494A93420DD07B68484A934291
:1017040007D07B68474A934201D105230AE00623A8
:1017140008E0042306E0032304E0022302E001239B
:1017240000E000237A6A02F0030292009340FA6810
:101734001343FB6035497B6A9B080233FA6841F81E
:1017440023203B685B6803F48013002B06D0364BE0
:101754009A683549BB6913438B6006E0324B9A683B
:10176400BB69DB43304913408B603B685B6803F41F
:101774000013002B06D02C4BDA682B49BB691343AA
:10178400CB6006E0284BDA68BB69DB43264913408B
:10179400CB603B685B6803F40033002B06D0224B1C
:1017A4005A682149BB6913434B6006E01E4B5A68D3
:1017B400BB69DB431C4913404B603B685B6803F423
:1017C4008033002B06D0184B1A681749BB691343A2
:1017D4000B6006E0144B1A68BB69DB4312491340E3
:1017E4000B607B6A01337B623B681A687B6A22FA6E
:1017F40003F3002B7FF405AE00BF00BF2837BD46BE
:1018040080BD00BF782D0008001002400000014098
:1018140000080140000C0140001001400014014088
:1018240000180140001C01400004014080B584B050
:1018340000AF78600B467B807B88002B04D07B88CC
:101844001B0C1B04002B04D04FF4DA710948FFF77A
:10185400E6F97B689A687B881340002B02D0012349
:10186400FB7301E00023FB73FB7B18461037BD4676
:1018740080BD00BF782D000880B582B000AF7860CD
:101884000B467B8013467B707B88002B04D07B88BF
:101894001B0C1B04002B04D04FF4EA710E48FFF715
:1018A400BEF97B78002B07D07B78012B04D040F263
:1018B400D5110948FFF7B3F97B78002B03D07A8858
:1018C4007B681A6103E07B881A047B681A6100BF95
:1018D4000837BD4680BD00BF782D000880B586B0AE
:1018E40000AF78607B68002B01D101235CE37B6847
:1018F4001B68002B1CD07B681B6803F00103002BC2
:1019040016D17B681B6803F00203002B10D17B689F
:101914001B6803F00803002B0AD17B681B6803F0E3
:101924000403002B04D140F26511A548FFF777F9B1
:101934007B681B6803F00103002B00F09A807B682E
:101944005B68002B0ED07B685B68B3F5803F09D0E1
:101954007B685B68B3F5A02F04D040F26B11984804
:10196400FFF75DF9974B5B6803F00C03042B0CD075
:10197400944B5B6803F00C03082B12D1914B5B680A
:1019840003F48033B3F5803F0BD18E4B1B6803F413
:101994000033002B6CD07B685B68002B68D101237B
:1019A40002E37B685B68B3F5803F06D1854B1B6817
:1019B400844A43F4803313602EE07B685B68002B19
:1019C4000CD1804B1B687F4A23F4803313607D4B1A
:1019D4001B687C4A23F4802313601DE07B685B68EA
:1019E400B3F5A02F0CD1774B1B68764A43F48023C0
:1019F4001360744B1B68734A43F4803313600BE029
:101A0400704B1B686F4A23F4803313606D4B1B6863
:101A14006C4A23F4802313607B685B68002B13D02B
:101A2400FFF73AFB386108E0FFF736FB02463B69F3
:101A3400D31A642B01D90323B6E2624B1B6803F467
:101A44000033002BF0D014E0FFF726FB386108E0E8
:101A5400FFF722FB02463B69D31A642B01D9032307
:101A6400A2E2584B1B6803F40033002BF0D100E0D2
:101A740000BF7B681B6803F00203002B79D07B68EE
:101A84001B69002B08D07B681B69012B04D040F232
:101A94009F114B48FFF7C3F87B685B691F2B04D980
:101AA4004FF4D0714648FFF7BAF8464B5B6803F031
:101AB4000C03002B0BD0434B5B6803F00C03082B87
:101AC4001CD1404B5B6803F48033002B16D13D4B93
:101AD4001B6803F00203002B05D07B681B69012BF4
:101AE40001D0012360E2374B1B6823F0F8027B68C6
:101AF4005B69DB00334913430B603AE07B681B6985
:101B0400002B20D0304B01221A60FFF7C5FA386150
:101B140008E0FFF7C1FA02463B69D31A022B01D948
:101B2400032341E2274B1B6803F00203002BF0D090
:101B3400244B1B6823F0F8027B685B69DB002149B6
:101B440013430B6015E0204B00221A60FFF7A4FA40
:101B5400386108E0FFF7A0FA02463B69D31A022B6A
:101B640001D9032320E2174B1B6803F00203002B67
:101B7400F0D17B681B6803F00803002B48D07B6816
:101B84009B69002B08D07B689B69012B04D04FF420
:101B9400F0710B48FFF743F87B689B69002B21D059
:101BA4000A4B01221A60FFF777FA386110E0FFF759
:101BB40073FA02463B69D31A022B09D90323F3E1D2
:101BC400B42D00080010024000004242800442424A
:101BD400674B5B6A03F00203002BE8D0012000F09E
:101BE400D1FB15E0634B00221A60FFF755FA386108
:101BF40008E0FFF751FA02463B69D31A022B01D9D8
:101C04000323D1E15A4B5B6A03F00203002BF0D1AA
:101C14007B681B6803F00403002B00F0C0800023E2
:101C2400FB757B68DB68002B0CD07B68DB68012BC1
:101C340008D07B68DB68052B04D040F20F214E48A6
:101C4400FEF7EDFF4A4BDB6903F08053002B0DD107
:101C5400474BDB69464A43F08053D361444BDB690D
:101C640003F08053BB60BB680123FB75434B1B68C7
:101C740003F48073002B18D1404B1B683F4A43F494
:101C840080731360FFF708FA386108E0FFF704FA7D
:101C940002463B69D31A642B01D9032384E1374BF1
:101CA4001B6803F48073002BF0D07B68DB68012B86
:101CB40006D12F4B1B6A2E4A43F0010313622DE019
:101CC4007B68DB68002B0CD1294B1B6A284A23F064
:101CD40001031362264B1B6A254A23F00403136293
:101CE4001CE07B68DB68052B0CD1214B1B6A204A66
:101CF40043F0040313621E4B1B6A1D4A43F00103A5
:101D040013620BE01A4B1B6A194A23F00103136296
:101D1400174B1B6A164A23F0040313627B68DB68C3
:101D2400002B15D0FFF7B8F938610AE0FFF7B4F9D2
:101D340002463B69D31A41F28832934201D9032304
:101D440032E10B4B1B6A03F00203002BEED01DE0C3
:101D5400FFF7A2F9386113E0FFF79EF902463B69E9
:101D6400D31A41F2883293420AD903231CE100BFFB
:101D74000010024080044242B42D0008007000406C
:101D84008B4B1B6A03F00203002BE5D1FB7D012B77
:101D940005D1874BDB69864A23F08053D3617B6886
:101DA400DB69002B0CD07B68DB69012B08D07B68D6
:101DB400DB69022B04D040F2AD217E48FEF72FFFF1
:101DC4007B68DB69002B00F0EE80794B5B6803F0E5
:101DD4000C03082B00F0CE807B68DB69022B40F0FB
:101DE400B2807B681B6A002B09D07B681B6AB3F541
:101DF400803F04D040F2B6216E48FEF710FF7B68A6
:101E04005B6A002B4AD07B685B6AB3F5802F45D0B0
:101E14007B685B6AB3F5002F40D07B685B6AB3F5DF
:101E2400402F3BD07B685B6AB3F5801F36D07B685C
:101E34005B6AB3F5A01F31D07B685B6AB3F5C01F42
:101E44002CD07B685B6AB3F5E01F27D07B685B6AA4
:101E5400B3F5001F22D07B685B6AB3F5101F1DD059
:101E64007B685B6AB3F5201F18D07B685B6AB3F5A7
:101E7400301F13D07B685B6AB3F5401F0ED07B68BC
:101E84005B6AB3F5501F09D07B685B6AB3F5601FCA
:101E940004D040F2B7214748FEF7C1FE464B00226A
:101EA4001A60FFF7F9F8386108E0FFF7F5F8024621
:101EB4003B69D31A022B01D9032375E03C4B1B6801
:101EC40003F00073002BF0D17B681B6AB3F5803FED
:101ED40016D17B689B68002B09D07B689B68B3F59F
:101EE400003F04D040F2CD213248FEF798FE304B3B
:101EF4005B6823F400327B689B682D4913434B6075
:101F04002B4B5B6823F474127B68196A7B685B6AE9
:101F14000B43274913434B60274B01221A60FFF7F9
:101F2400BBF8386108E0FFF7B7F802463B69D31AFB
:101F3400022B01D9032337E01D4B1B6803F0007308
:101F4400002BF0D02FE01C4B00221A60FFF7A4F8FE
:101F5400386108E0FFF7A0F802463B69D31A022B68
:101F640001D9032320E0124B1B6803F00073002BFC
:101F7400F0D118E07B68DB69012B01D1012313E068
:101F84000B4B5B68FB60FB6803F480327B681B6A65
:101F94009A4206D1FB6803F470127B685B6A9A422A
:101FA40001D0012300E0002318461837BD4680BD48
:101FB40000100240B42D00086000424280B584B095
:101FC40000AF786039607B68002B01D1012376E192
:101FD4007B681B6803F00103002B16D17B681B6828
:101FE40003F00203002B10D17B681B6803F0040389
:101FF400002B0AD17B681B6803F00803002B04D173
:1020040040F236317448FEF70AFE3B68002B0AD0D2
:102014003B68012B07D03B68022B04D040F23731D8
:102024006D48FEF7FCFD6D4B1B6803F007033A682F
:102034009A4210D9694B1B6823F0070267493B6831
:1020440013430B60654B1B6803F007033A689A421D
:1020540001D0012333E17B681B6803F00203002BEA
:1020640049D07B681B6803F00403002B05D05C4B4C
:102074005B685B4A43F4E06353607B681B6803F06E
:102084000803002B05D0564B5B68554A43F4605354
:1020940053607B689B68002B24D07B689B68802BF3
:1020A40020D07B689B68902B1CD07B689B68A02BFE
:1020B40018D07B689B68B02B14D07B689B68C02BBE
:1020C40010D07B689B68D02B0CD07B689B68E02B7E
:1020D40008D07B689B68F02B04D040F25D313E4809
:1020E400FEF79DFD3E4B5B6823F0F0027B689B6826
:1020F4003B4913434B607B681B6803F00103002BCF
:1021040051D07B685B68002B0CD07B685B68012B2B
:1021140008D07B685B68022B04D04FF459712E48B9
:10212400FEF77DFD7B685B68012B07D12C4B1B6898
:1021340003F40033002B15D10123C0E07B685B68F6
:10214400022B07D1264B1B6803F00073002B09D127
:102154000123B4E0224B1B6803F00203002B01D1DE
:102164000123ACE01E4B5B6823F003027B685B68D1
:102174001B4913434B60FEF78FFFF8600AE0FEF73C
:102184008BFF0246FB68D31A41F28832934201D98D
:10219400032394E0124B5B6803F00C027B685B68DA
:1021A4009B009A42EBD10D4B1B6803F007033A687E
:1021B4009A4217D2094B1B6823F0070207493B6870
:1021C40013430B60054B1B6803F007033A689A42FC
:1021D40008D0012373E000BFB42D000800200240A2
:1021E400001002407B681B6803F00403002B25D019
:1021F4007B68DB68002B18D07B68DB68B3F5806FE5
:1022040013D07B68DB68B3F5A06F0ED07B68DB6806
:10221400B3F5C06F09D07B68DB68B3F5E06F04D019
:1022240040F2A2312848FEF7FAFC284B5B6823F4FD
:10223400E0627B68DB68254913434B607B681B685D
:1022440003F00803002B26D07B681B69002B18D0F1
:102254007B681B69B3F5806F13D07B681B69B3F58A
:10226400A06F0ED07B681B69B3F5C06F09D07B6883
:102274001B69B3F5E06F04D040F2A9311248FEF7B0
:10228400CEFC124B5B6823F460527B681B69DB0055
:102294000E4913434B6000F021F802460B4B5B6878
:1022A4001B0903F00F030A49CB5C22FA03F3094A22
:1022B4001360094B1B681846FEF7ACFE0023184652
:1022C4001037BD4680BD00BFB42D00080010024089
:1022D400602E0008000000200400002080B487B0B5
:1022E40000AF0023FB600023BB6000237B6100235D
:1022F4007B6000233B611E4B5B68FB60FB6803F063
:102304000C03042B02D0082B03D027E0194B3B61AC
:1023140027E0FB689B0C03F00F03174AD35C7B6038
:10232400FB6803F48033002B10D0114B5B685B0C0B
:1023340003F00103114AD35CBB607B680D4A02FBC6
:1023440003F2BB68B2FBF3F37B6104E07B680C4AE5
:1023540002FB03F37B617B693B6102E0054B3B615C
:1023640000BF3B6918461C37BD4680BC704700BFA0
:102374000010024000127A00782E0008882E00080F
:1023840000093D0080B485B000AF78600A4B1B683B
:102394000A4AA2FB03235B0A7A6802FB03F3FB608D
:1023A40000BFFB685A1EFA60002BF9D100BF00BFC2
:1023B4001437BD4680BC704700000020D34D621026
:1023C40090B488B000AFF860B9607A60FB681A46D0
:1023D400BB681B0E13441C462268BB687B617B6987
:1023E40093FAA3F33B613B69B3FA83F3DBB29B003B
:1023F4000F2101FA03F3DB431A40BB68FB61FB695D
:1024040093FAA3F3BB61BB69B3FA83F3DBB29B001A
:10241400796801FA03F31343236000BF2037BD46F4
:1024240090BC704790B488B000AFF860B9607A602F
:10243400FB681A46BB681B0E13441C462268BB6823
:102444007B617B6993FAA3F33B613B69B3FA83F342
:10245400DBB29B00032101FA03F3DB431A40BB68A0
:10246400FB61FB6993FAA3F3BB61BB69B3FA83F322
:10247400DBB29B00796801FA03F31343236000BFC6
:102484002037BD4690BC704790B488B000AFF86068
:10249400B9607A60FB681A46BB681B0E13441C467D
:1024A4002268BB687B617B6993FAA3F33B613B6958
:1024B400B3FA83F3DBB29B00042101FA03F3DB4399
:1024C4001A40BB68FB61FB6993FAA3F3BB61BB6968
:1024D400B3FA83F3DBB29B00796801FA03F3134385
:1024E400236000BF2037BD4690BC704780B487B0DE
:1024F40000AFF860B9607A60FB68DA68BB681B0AF1
:10250400DB431A40BB681B0A7B617B6993FAA3F324
:102514003B613B69B3FA83F3DBB219467B688B40BA
:102524001A43FB68DA6000BF1C37BD4680BC7047A5
:1025340080B588B000AF786039607B68684A9342A0
:102544001BD07B68674A934217D07B68664A9342E4
:1025540013D07B68654A93420FD07B68644A9342E8
:102564000BD07B68634A934207D07B68624A9342EC
:1025740003D0A2216148FEF752FB3B681B6823F09D
:102584007B43002B05D03B681B6803F07B43002B87
:1025940003D0A3215948FEF742FB3B681B681B028A
:1025A4001B0C7B617B693B613B6993FAA3F3FB6082
:1025B400FB68B3FA83F3DBB2FB6184E00122FB69BD
:1025C4009A407B691340002B7AD0FB69072B06D80D
:1025D40040F20112FB6902FA03F3BB6108E0FB69F4
:1025E400083B4FF0011202FA03F343F08063BB612E
:1025F4003B685B68082B12D13B681B69002B07D032
:102604003B681B69012B03D0BE213C48FEF707FB46
:102614003B681B691A46B9697868FFF767FF3B682E
:102624005B68002B13D03B685B68042B0FD03B68BE
:102634005B68082B0BD03B685B68012B07D03B68B9
:102644005B68092B03D0C5212C48FEF7E8FA3B68E8
:102654005B681A46B9697868FFF7B2FE3B685B6845
:10266400012B03D03B685B68092B29D13B689B682D
:10267400022B0BD03B689B68012B07D03B689B68FF
:10268400032B03D0CD211D48FEF7C9FA3B68DB6854
:10269400002B07D03B68DB68042B03D0CE211748FE
:1026A400FEF7BDFA3B689B681A46B9697868FFF77C
:1026B400B9FE3B68DB681A46B9697868FFF7E4FE3F
:1026C400FB690133FB617A69FB6922FA03F3002B8E
:1026D4007FF474AF002318462037BD4680BD00BF89
:1026E40000080140000C01400010014000140140AA
:1026F40000180140001C014000200140EC2D00089E
:1027040080B400AF034B5B6803F00C031846BD466E
:1027140080BC70470010024080B400AF034B5B687C
:1027240003F0F0031846BD4680BC70470010024019
:1027340080B400AF034B5B6803F4E0631846BD4606
:1027440080BC70470010024080B400AF034B5B684C
:1027540003F460531846BD4680BC70470010024025
:1027640080B400AF034B5B6803F480331846BD4666
:1027740080BC70470010024080B400AF034B5B681C
:1027840003F470131846BD4680BC70470010024025
:1027940080B400AF044B5B685B0C03F00103184684
:1027A400BD4680BC704700BF0010024080B582B0B7
:1027B40000AF786000F020F802467B681A607B68FE
:1027C4001B68184600F03EF802467B685A607B6836
:1027D4005B68184600F04CF802467B689A607B6898
:1027E4005B68184600F058F802467B68DA6000BF60
:1027F4000837BD4680BD000080B582B000AF00231D
:102804007B60FFF77DFF0346082B0CD0082B0ED806
:10281400002B02D0042B03D009E0094B7B6009E0B4
:10282400074B7B6006E000F04BF8786002E0044B55
:102834007B6000BF7B6818460837BD4680BD00BF7B
:1028440000127A0080B582B000AF7860FFF764FFB1
:1028540003461B0903F00F03044AD35C1A467B6842
:10286400D34018460837BD4680BD00BF602E00081F
:1028740080B582B000AF7860FFF75AFF03461B0AA9
:10288400044AD35C1A467B68D34018460837BD46D1
:1028940080BD00BF702E000880B582B000AF7860A4
:1028A400FFF752FF0346DB0A044AD35C1A467B68EF
:1028B400D34018460837BD4680BD00BF702E0008BF
:1028C40080B582B000AF00237B6000233B60FFF73C
:1028D40047FF38603B68002B04D03B68B3F5803F6A
:1028E40003D00BE00D4B7B600BE0FFF751FF034679
:1028F40001330B4AB2FBF3F37B6002E0074B7B60CE
:1029040000BFFFF739FF03469B0C02337A6802FBD2
:1029140003F318460837BD4680BD00BF00093D00DB
:1029240000127A0080B483B000AF78607B68DB6803
:1029340003F40053B3F5005F0CBF01230023DBB2A3
:1029440018460C37BD4680BC704780B483B000AFD6
:10295400786039607B681B6923F440523B681A43F2
:102964007B681A6100BF0C37BD4680BC704780B4D9
:1029740083B000AF786039607B685B6923F4407290
:102984003B681A437B685A6100BF0C37BD4680BC64
:102994007047000080B485B000AFF860B9607A6019
:1029A400BA6813469B0013449A001A447B689B0040
:1029B400B2FBF3F3254AA2FB03235B099BB21B0181
:1029C40099B2BA6813469B0013449A001A447B6870
:1029D4009B00B2FBF3F21D4BA3FB02035B096420D3
:1029E40000FB03F3D31A1B013233184AA2FB03235F
:1029F4005B099BB203F0F0039BB20B4499B2BA6833
:102A040013469B0013449A001A447B689B00B2FB54
:102A1400F3F20E4BA3FB02035B09642000FB03F3F8
:102A2400D31A1B013233094AA2FB03235B099BB26D
:102A340003F00F039BB20B449BB21A46FB689A60E7
:102A440000BF1437BD4680BC704700BF1F85EB51E3
:102A540080B588B000AF786039600123FB7700232C
:102A6400BB617B68744A934213D07B68734A934278
:102A74000FD07B68724A93420BD07B68714A9342B1
:102A840007D07B68704A934203D0CD216F48FEF78C
:102A9400C6F83B681B686E4A934203D9CE216B4843
:102AA400FEF7BDF83B685B68002B08D03B685B68A9
:102AB400B3F5805F03D0CF216448FEF7B0F83B68DC
:102AC4009B68B3F5805F11D03B689B68002B0DD0E9
:102AD4003B689B68B3F5405F08D03B689B68B3F5DF
:102AE400005F03D0D0215948FEF799F83B68DB68B2
:102AF400002B0DD03B68DB68B3F5806F08D03B68D2
:102B0400DB68B3F5C06F03D0D1215048FEF787F8D6
:102B14003B681B69002B0FD03B681B69042B0BD04F
:102B24003B681B69082B07D03B681B690C2B03D03F
:102B3400D2214648FEF773F83B685B69002B12D03C
:102B44003B685B69B3F5807F0DD03B685B69B3F587
:102B5400007F08D03B685B69B3F5407F03D0D32185
:102B64003A48FEF75CF87868FFF7DCFE0346002B72
:102B74005CD17B68DB6823F4B05323F00C033A6820
:102B840051683A68D26811433A6812690A431A4391
:102B94007B68DA603B689B6819467868FFF7D5FE66
:102BA4003B685B6919467868FFF7E1FE07F10803A3
:102BB4001846FFF7FBFD7B681F4A934202D17B69ED
:102BC400BB611AE07B681D4A934202D13B69BB6139
:102BD40013E07B681A4A934202D13B69BB610CE063
:102BE4007B68184A934202D13B69BB6105E07B686C
:102BF400154A934201D13B69BB61BB69002B15D0D7
:102C04003B681B68002B11D00023FB773B681B68D3
:102C14001A46B9697868FFF7BDFE7B689B680F2B7D
:102C240004D840F235110948FDF7F9FFFB7F184637
:102C34002037BD4680BD00BF00380140004400403D
:102C440000480040004C004000500040242E000882
:102C540020AA440070B500260C4D0D4C641BA41032
:102C6400A64209D100F022F800260A4D0A4C641B42
:102C7400A410A64205D170BD55F8043B984701360F
:102C8400EEE755F8043B98470136F2E78C2E00082E
:102C94008C2E00088C2E0008902E00080346024457
:102CA400934200D1704703F8011BF9E7F8B500BF60
:102CB400F8BC08BC9E467047F8B500BFF8BC08BC19
:042CC4009E46704771
:102CC80024636C6F7365230024626C7565230000B0
:102CD800247265642300000024677265656E230012
:102CE8002479656C6C6F772300000000247075727E
:102CF8007065722300000000246C616B652300007E
:102D0800626C756500000000726564006772656535
:102D18006E00000079656C6C6F77000070757270DA
:102D2800657200006C616B6500000000636C6F7376
:102D3800650000002E2E2F447269766572732F533A
:102D4800544D3332463178785F48414C5F4472695C
:102D58007665722F5372632F73746D3332663178D0
:102D6800785F68616C5F636F727465782E630000CA
:102D78002E2E2F447269766572732F53544D333259
:102D8800463178785F48414C5F4472697665722FA6
:102D98005372632F73746D3332663178785F68616C
:102DA8006C5F6770696F2E63000000002E2E2F4441
:102DB8007269766572732F53544D33324631787881
:102DC8005F48414C5F4472697665722F5372632F76
:102DD80073746D3332663178785F68616C5F7263E3
:102DE800632E63002E2E2F447269766572732F53FB
:102DF800544D3332463178785F48414C5F447269AC
:102E08007665722F5372632F73746D33326631781F
:102E1800785F6C6C5F6770696F2E63002E2E2F448D
:102E28007269766572732F53544D33324631787810
:102E38005F48414C5F4472697665722F5372632F05
:102E480073746D3332663178785F6C6C5F7573615B
:102E580072742E63000000000000000000000000F3
:102E68000102030406070809000000000102030428
:102E780002030405060708090A0B0C0D0E0F1010B3
:042E88000102000043
:042E8C00090200082F
:042E9000E501000850
:0C2E94000024F400100000000100000009
:0400000508000FA13F
:00000001FF
