:020000040800F2
:10000000000001204D1B00082116000827160008DB
:100010002D160008331600083916000800000000ED
:100020000000000000000000000000003F16000873
:100030004B16000800000000571600086316000861
:10004000951B0008951B0008951B0008951B0008D0
:10005000951B0008951B0008951B0008951B0008C0
:10006000951B0008951B0008951B0008951B0008B0
:10007000951B0008951B0008951B0008951B0008A0
:10008000951B0008951B0008951B0008951B000890
:10009000951B0008951B0008951B0008951B000880
:1000A000951B0008951B0008951B0008951B000870
:1000B000951B0008951B0008951B0008951B000860
:1000C000951B0008951B0008951B0008951B000850
:1000D000951B0008951B0008951B0008510C000893
:1000E000951B0008951B0008951B0008951B000830
:1000F000951B0008951B0008951B0008951B000820
:10010000951B0008951B0008951B0008951B00080F
:10011000951B0008951B0008951B0008951B0008FF
:10012000951B0008951B0008951B0008951B0008EF
:1001300000000000000000000000000000000000BF
:1001400000000000000000000000000000000000AF
:10015000000000000000000000000000000000009F
:10016000000000000000000000000000000000008F
:10017000000000000000000000000000000000007F
:10018000000000000000000000000000000000006F
:10019000000000000000000000000000000000005F
:1001A000000000000000000000000000000000004F
:1001B000000000000000000000000000000000003F
:1001C000000000000000000000000000000000002F
:1001D000000000000000000000000000000000001F
:0401E0005FF8E0F1F3
:1001E80010B5054C237833B9044B13B10448AFF369
:1001F80000800123237010BD78000020000000005B
:100208003C50000808B5034B1BB103490348AFF342
:10021800008008BD000000007C0000203C50000861
:1002280081F0004102E000BF83F0004330B54FEA9F
:1002380041044FEA430594EA050F08BF90EA020F0C
:100248001FBF54EA000C55EA020C7FEA645C7FEA9F
:10025800655C00F0E2804FEA5454D4EB5555B8BFC2
:100268006D420CDD2C4480EA020281EA030382EA33
:10027800000083EA010180EA020281EA0303362DC5
:1002880088BF30BD11F0004F4FEA01314FF4801C98
:100298004CEA113102D0404261EB410113F0004FAA
:1002A8004FEA03334CEA133302D0524263EB430361
:1002B80094EA050F00F0A780A4F10104D5F1200EFF
:1002C8000DDB02FA0EFC22FA05F2801841F100015A
:1002D80003FA0EF2801843FA05F359410EE0A5F12E
:1002E80020050EF1200E012A03FA0EFC28BF4CF05F
:1002F800020C43FA05F3C01851EBE37101F0004515
:1003080007D54FF0000EDCF1000C7EEB00006EEB21
:100318000101B1F5801F1BD3B1F5001F0CD34908AB
:100328005FEA30004FEA3C0C04F101044FEA445202
:1003380012F5800F80F09A80BCF1004F08BF5FEA89
:10034800500C50F1000041EB045141EA050130BD69
:100358005FEA4C0C404141EB0101013C28BFB1F57B
:10036800801FE9D291F0000F04BF01460020B1FAC6
:1003780081F308BF2033A3F10B03B3F120020CDA99
:100388000C3208DD02F1140CC2F10C0201FA0CF077
:1003980021FA02F10CE002F11402D8BFC2F1200CDC
:1003A80001FA02F120FA0CFCDCBF41EA0C01904092
:1003B800E41AA2BF01EB0451294330BD6FEA0404DB
:1003C8001F3C1CDA0C340EDC04F11404C4F12002C6
:1003D80020FA04F001FA02F340EA030021FA04F3D8
:1003E80045EA030130BDC4F10C04C4F1200220FA2F
:1003F80002F001FA04F340EA0300294630BD21FA6D
:1004080004F0294630BD94F0000F83F4801306BF32
:1004180081F480110134013D4EE77FEA645C18BF26
:100428007FEA655C29D094EA050F08BF90EA020FBD
:1004380005D054EA000C04BF1946104630BD91EAB5
:10044800030F1EBF0021002030BD5FEA545C05D1B8
:100458004000494128BF41F0004130BD14F58004F7
:100468003CBF01F5801130BD01F0004545F0FE416B
:1004780041F470014FF0000030BD7FEA645C1ABFA0
:10048800194610467FEA655C1CBF0B46024650EAD7
:10049800013406BF52EA033591EA030F41F4002103
:1004A80030BD00BF90F0000F04BF0021704730B589
:1004B8004FF4806404F132044FF000054FF000015E
:1004C80050E700BF90F0000F04BF0021704730B51F
:1004D8004FF4806404F1320410F0004548BF4042F4
:1004E8004FF000013EE700BF42004FEAE2014FEA49
:1004F80031014FEA02701FBF12F07F4393F07F4F24
:1005080081F06051704732F07F4208BF704793F026
:100518007F4F04BF41F40021704730B54FF4607439
:1005280001F0004521F000411CE700BF50EA01023C
:1005380008BF704730B54FF000050AE050EA0102E5
:1005480008BF704730B511F0004502D5404261EB55
:1005580041014FF4806404F132045FEA915C3FF496
:10056800D8AE4FF003025FEADC0C18BF03325FEA33
:10057800DC0C18BF033202EBDC02C2F1200300FAE4
:1005880003FC20FA02F001FA03FE40EA0E0021FA09
:1005980002F11444BDE600BF70B54FF0FF0C4CF4F7
:1005A800E06C1CEA11541DBF1CEA135594EA0C0FA9
:1005B80095EA0C0F00F0DEF82C4481EA030621EAE4
:1005C8004C5123EA4C5350EA013518BF52EA03351F
:1005D80041F4801143F4801338D0A0FB02CE4FF0D1
:1005E8000005E1FB02E506F00042E0FB03E54FF001
:1005F8000006E1FB03569CF0000F18BF4EF0010EF9
:10060800A4F1FF04B6F5007F64F5407404D25FEAF4
:100618004E0E6D4146EB060642EAC62141EA5551A7
:100628004FEAC52040EA5E504FEACE2EB4F1FD0CE9
:1006380088BFBCF5E06F1ED8BEF1004F08BF5FEA67
:10064800500E50F1000041EB045170BD06F0004619
:1006580046EA010140EA020081EA0301B4EB5C04C6
:10066800C2BFD4EB0C0541EA045170BD41F48011BE
:100678004FF0000E013C00F3AB8014F1360FDEBFE3
:10068800002001F0004170BDC4F10004203C35DABF
:100698000C341BDC04F11404C4F1200500FA05F342
:1006A80020FA04F001FA05F240EA020001F00042E3
:1006B80021F0004110EBD37021FA04F642EB060159
:1006C8005EEA430E08BF20EAD37070BDC4F10C0483
:1006D800C4F1200500FA04F320FA05F001FA04F247
:1006E80040EA020001F0004110EBD37041F1000133
:1006F8005EEA430E08BF20EAD37070BDC4F120053E
:1007080000FA05F24EEA020E20FA04F301FA05F2A5
:1007180043EA020321FA04F001F0004121FA04F24D
:1007280020EA020000EBD3705EEA430E08BF20EA1D
:10073800D37070BD94F0000F0FD101F00046400057
:1007480041EB010111F4801F08BF013CF7D041EAD9
:10075800060195F0000F18BF704703F000465200DD
:1007680043EB030313F4801F08BF013DF7D043EAAE
:100778000603704794EA0C0F0CEA135518BF95EA64
:100788000C0F0CD050EA410618BF52EA4306D1D1EB
:1007980081EA030101F000414FF0000070BD50EA0A
:1007A800410606BF1046194652EA430619D094EA94
:1007B8000C0F02D150EA013613D195EA0C0F05D17E
:1007C80052EA03361CBF104619460AD181EA0301D2
:1007D80001F0004141F0FE4141F470014FF000008A
:1007E80070BD41F0FE4141F4780170BD70B54FF025
:1007F800FF0C4CF4E06C1CEA11541DBF1CEA1355A5
:1008080094EA0C0F95EA0C0F00F0A7F8A4EB050486
:1008180081EA030E52EA03354FEA013100F088807D
:100828004FEA03334FF0805545EA131343EA126346
:100838004FEA022245EA111545EA10654FEA0026FB
:100848000EF000419D4208BF964244F1FD0404F5B4
:10085800407402D25B084FEA3202B61A65EB030510
:100868005B084FEA32024FF480104FF4002CB6EBCD
:10087800020E75EB030E22BFB61A754640EA0C004D
:100888005B084FEA3202B6EB020E75EB030E22BF8D
:10089800B61A754640EA5C005B084FEA3202B6EBCE
:1008A800020E75EB030E22BFB61A754640EA9C008D
:1008B8005B084FEA3202B6EB020E75EB030E22BF5D
:1008C800B61A754640EADC0055EA060E18D04FEA1B
:1008D800051545EA16754FEA06164FEAC30343EABB
:1008E80052734FEAC2025FEA1C1CC0D111F4801F88
:1008F8000BD141EA00014FF000004FF0004CB6E781
:1009080011F4801F04BF01430020B4F1FD0C88BF1F
:10091800BCF5E06F3FF6AFAEB5EB030C04BFB6EB2A
:10092800020C5FEA500C50F1000041EB045170BD1D
:100938000EF0004E4EEA113114EB5C04C2BFD4EB4A
:100948000C0541EA045170BD41F480114FF0000ECE
:10095800013C90E645EA060E8DE60CEA135594EA4A
:100968000C0F08BF95EA0C0F3FF43BAF94EA0C0F4D
:100978000AD150EA01347FF434AF95EA0C0F7FF4C2
:1009880025AF104619462CE795EA0C0F06D152EA16
:1009980003353FF4FDAE1046194622E750EA4106FA
:1009A80018BF52EA43067FF4C5AE50EA41047FF40B
:1009B8000DAF52EA43057FF4EBAE12E74FF0FF3C70
:1009C80006E000BF4FF0010C02E000BF4FF0010C41
:1009D8004DF804CD4FEA410C7FEA6C5C4FEA430CBA
:1009E80018BF7FEA6C5C1BD001B050EA410C0CBF09
:1009F80052EA430C91EA030F02BF90EA020F00206B
:100A0800704710F1000F91EA030F58BF994208BFD1
:100A180090422CBFD8176FEAE37040F0010070478E
:100A28004FEA410C7FEA6C5C02D150EA013C07D1E5
:100A38004FEA430C7FEA6C5CD6D152EA033CD3D030
:100A48005DF8040B704700BF8446104662468C462A
:100A58001946634600E000BF01B5FFF7B7FF00285D
:100A680048BF10F1000F01BD4DF808EDFFF7F4FF86
:100A78000CBF012000205DF808FB00BF4DF808ED11
:100A8800FFF7EAFF34BF012000205DF808FB00BF34
:100A98004DF808EDFFF7E0FF94BF012000205DF856
:100AA80008FB00BF4DF808EDFFF7CEFF94BF01200B
:100AB80000205DF808FB00BF4DF808EDFFF7C4FF04
:100AC80034BF012000205DF808FB00BF4A0011D2A6
:100AD80012F5001211D20DD56FF47873B3EB625290
:100AE8000ED44FEAC12343F0004343EA505323FA9C
:100AF80002F070474FF00000704750EA013002D111
:100B08004FF0FF3070474FF00000704780B500AFDE
:100B180000F090F800BF80BD80B582B000AF002320
:100B2800FB8012E0FB88104A52F82330002B09D0D2
:100B3800FB88591CFB880C4A52F823301A460B488C
:100B480003F014F9FB880133FB80FB88B3F5B47F0D
:100B5800E8D3074803F090F94FF4FA7001F07AF8F7
:100B680000BF0837BD4680BD5C0100205850000812
:100B78007050000880B582B000AF7860391D4FF61C
:100B8800FF730122034802F0B5FA7B68184608375C
:100B9800BD4680BDF413002080B483B000AF7860F8
:100BA8007B681B6803F02003202B0CBF0123002364
:100BB800DBB218460C37BD4680BC704780B483B0A2
:100BC80000AF78607B686FF020021A6000BF0C37B6
:100BD800BD4680BC704780B489B000AF78607B6840
:100BE8000C33FB60FB6853E8003FBB60BB6843F015
:100BF8002003FB617B680C33FA69BA617B61796910
:100C0800BA6941E800233B613B69002BE7D100BF8B
:100C180000BF2437BD4680BC704780B483B000AFA6
:100C280078607B685B68DBB218460C37BD4680BCD1
:100C38007047000080B500AF0248FFF7CCFF00BF47
:100C480080BD00BF0048004080B582B000AF0B48AF
:100C5800FFF7A2FF0346012B0BD10848FFF7AEFFB1
:100C68000648FFF7DAFF0346FB71FB79184600F0E8
:100C780007F800BF0837BD4680BD00BF00480040E8
:100C880080B582B000AF0346FB71654B1B780A2B19
:100C980000F2C18001A252F823F000BFD10C000875
:100CA800E70C0008030D00081D0D0008410D0008A1
:100CB8005B0D0008750D00088F0D0008A90D0008D0
:100CC800C30D0008DD0D0008FB79AA2B40F0A080B9
:100CD800534B01221A70534BAA221A7098E0FB79E1
:100CE800552B06D14E4B02221A704E4B55225A7084
:100CF80091E04B4B00221A708DE0494B1B78194646
:100D0800484AFB795354464B1B780133DAB2444BBB
:100D18001A7080E0424B1B781946424AFB795354BB
:100D28003F4B1B780133DAB23D4B1A70FB795B00FD
:100D3800DAB23D4B1A706EE0394B1B781946394AC6
:100D4800FB795354364B1B780133DAB2344B1A70A3
:100D580061E0334B1B781946324AFB795354304BC8
:100D68001B780133DAB22E4B1A7054E02C4B1B78E7
:100D780019462C4AFB795354294B1B780133DAB2B4
:100D8800274B1A7047E0264B1B781946254AFB79F2
:100D98005354234B1B780133DAB2214B1A703AE0D3
:100DA8001F4B1B7819461F4AFB7953541C4B1B7861
:100DB8000133DAB21A4B1A702DE0194B1B78194619
:100DC800184AFB795354164B1B780133DAB2144B8B
:100DD8001A7020E0124B1B781A46144B1B781344E8
:100DE8001049FA79CA54114B1B780133DAB20F4B08
:100DF8001A700E4B1A780C4B1B789A420AD300F0E3
:100E080017F80A4B00221A70054B00221A7001E0ED
:100E180000BF00E000BF00BF0837BD4680BD00BF6F
:100E2800FE06002094000020FF0600200007002096
:100E380080B584B000AF3D4BBB603D4BDB785B00B9
:100E4800FB710023FB733A4B5B781B021AB2384BD9
:100E58001B781BB213431BB29AB2BB681A80344B7F
:100E68009A78BB689A70324BDA78BB68DA70304B84
:100E78005B791B021AB22E4B1B791BB213431BB2B0
:100E88009AB2BB689A802A4BDB791B021AB2284BAC
:100E98009B791BB213431BB29AB2BB68DA80244B0E
:100EA8005B7A1B021AB2224B1B7A1BB213431BB28A
:100EB8009AB2BB681A810023BB7319E0BB7B0B3362
:100EC8001B4AD35C1B021AB2BB7B0A331849CB5CA2
:100ED8001BB213431AB2FB7B591CF97391B2BA685F
:100EE80004335B0013440A465A80BB7B0233BB734E
:100EF800BA7BFB799A42E1D3B86800F01BF8034645
:100F0800002B0AD0C8220021094802F027FF6422DA
:100F18000021B86802F022FF04E0B86800F048F841
:100F280000F02CFA1037BD4680BD00BF901300209A
:100F38009400002080B485B000AF78600023FB8166
:100F48007B68DB781B021AB27B689B781BB2134361
:100F58001BB27B817B68DB787B737B681A887B8913
:100F680053409AB27B689B8853409AB27B68DB886F
:100F78005340FB817B7B013B7A6804335B0013445D
:100F88005A88FB895340FB817B7B013B7B737B7BCE
:100F9800002BEFD17B681B89FA899A4201D0012383
:100FA80000E0002318461437BD4680BC7047000097
:100FB80090B58DB002AF78600023FB7711E0FB7F1E
:100FC8007A6804335B0013445B88FC7F184600F0A2
:100FD800B9F80246584923010B441A60FB7F0133D4
:100FE800FB777B68DB78FA7F9A42E8D37B689B883B
:100FF800184600F0F7F8C7E904017B68DB88184653
:1010080000F0F0F8C7E902014C4B1B889BB24A4A32
:101018001B01134403F10801D7E90423C1E90023A4
:101028007B68DB78013B444A1B01134403F1080148
:10103800D7E90223C1E90023D7E90223D7E904014C
:10104800FFF73AFD0346002B11D0D7E904234FF0F0
:1010580000003B49FFF7E8F802460B46D7E90201D2
:10106800FFF7E4F802460B46C7E9082309E0D7E989
:101078000423D7E90201FFF7D7F802460B46C7E970
:1010880008234FF000024FF00003D7E90801FFF7EB
:10109800EBFC0346002B23D10123BB771AE07B68C6
:1010A800DB78013BD8B2BC7FB97FD7E90423CDE90F
:1010B800002303460A46D7E9080100F056F802461D
:1010C8000B461D48210101440831C1E90023BB7FBB
:1010D8000133BB77BA7F7B68DB78013B9A42DEDB62
:1010E80000237B771AE07B7F134A1B0113440833E4
:1010F800D3E900017B7F104A1B0113441B687C7FE6
:101108001A4600F08DF802460B460B4821010144AF
:101118000831C1E900237B7F01337B777B68DB786B
:101128007A7F9A42DFD37B68DB789AB2034B1A80C6
:1011380000BF2C37BD4690BD10070020FC060020DC
:101148000080764080B483B000AF0346FB80FB8804
:101158001B0A9BB29A01FB889B1003F03F031344C0
:1011680018460C37BD4680BC7047B0B586B000AF96
:10117800C7E9020111461A460B46FB711346BB71BB
:10118800BB791846FFF79EF902460B46D7E90201DC
:10119800FFF72CFB02460B4614461D46FB79184602
:1011A800FFF790F902460B4620462946FFF7F4F967
:1011B80002460B46C7E90423D7E90A23D7E9040105
:1011C800FFF734F802460B46C7E90423D7E90401C0
:1011D80000F09CF802460B46104619461837BD46E3
:1011E800B0BD000080B584B000AF0346FB80FB882B
:1011F8005B089BB21846FFF765F94FF00002074BF2
:10120800FFF7F4FA02460B46C7E90223D7E902239F
:10121800104619461037BD4680BD00BF000050403B
:10122800B0B586B000AFC7E902017A607B68002BD1
:1012380002D1D7E9022354E04FF000024FF0000337
:10124800C7E904237868FFF73DF902460B4628A151
:10125800D1E90001FEF7E8FF02460B4614461D4699
:101268007868FFF72FF922A3D3E90023FFF794F951
:1012780002460B4620462946FFF7B8FA02460B46B7
:10128800104619461CA3D3E90023FFF785F9024647
:101298000B46C7E90423D7E9040103F03DFD4FF0ED
:1012A8000002194BFFF778F902460B46104619461B
:1012B80013A3D3E90023FFF799FA02460B46C7E9BF
:1012C8000423D7E90223D7E90401FEF7AFFF02465A
:1012D8000B46C7E90423D7E9040100F017F80246D2
:1012E8000B46104619461837BD46B0BDAFF300800F
:1012F8009A99999999696340CDCCCCCCCCCC35409E
:10130800FCDEA63FFB2109400080664080B582B024
:1013180000AFC7E900014FF00002174BD7E9000101
:10132800FFF7CAFB0346002B09D04FF00002124B0F
:10133800D7E90001FEF778FF02460B4616E04FF0AA
:1013480000024FF00003D7E90001FFF797FB0346BF
:10135800002B09D04FF00002074BD7E90001FEF738
:1013680065FF02460B4601E0D7E9002310461946FF
:101378000837BD4680BD00BF0080764080B582B08A
:1013880000AF0023BB800023FB8048E0FB882A4A8B
:101398001B0113440833D3E900014FF00002274B27
:1013A800FFF78AFB0346002B35D1FB88224A1B0135
:1013B80013440833D3E900014FF000024FF0000353
:1013C800FFF75CFB0346002B25D1FB881A4A1B015B
:1013D80013440833D3E9002310461946FFF776FB78
:1013E8000346BB80FA88BB88134912010A44126875
:1013F800134941F82320BB88114A52F82330114A77
:101408001288934208DD0F4B1A88BB8811460C4A94
:1014180042F8231000E000BFFB880133FB800A4B31
:101428001B889BB2FA889A42B0D3074B00221A80D5
:1014380000BF0837BD4680BD1007002000807640F9
:101448005C01002000000020FC06002080B588B068
:1014580000AF07F1100300221A605A609A60DA6040
:101468001E4B9B691D4A43F0200393611B4B9B69EC
:1014780003F02003FB60FB68184B9B69174A43F095
:1014880004039361154B9B6903F00403BB60BB68BD
:10149800124B9B69114A43F4807393610F4B9B690C
:1014A80003F480737B607B6800224FF480510C4802
:1014B80000F090FF4FF480533B6101237B610023D0
:1014C800BB610223FB6107F110031946044800F0D1
:1014D800EDFC00BF2037BD4680BD00BF00100240B4
:1014E8000020014080B500AF00F052FB00F00BF87F
:1014F800FFF7ACFF00F046FA00F06EFAFFF706FBC4
:10150800FFF70AFBFCE780B590B000AF07F11803BE
:1015180028220021184602F021FC3B1D00221A60F7
:101528005A609A60DA601A610123BB614FF4803314
:10153800FB6100233B620123BB6202237B634FF400
:101548008033BB634FF4E013FB6307F118031846BD
:1015580000F072FF0346002B01D000F019F80F23AA
:101568007B600223BB600023FB604FF480633B6118
:1015780000237B613B1D0221184601F0CDFA03468A
:10158800002B01D000F004F800BF4037BD4680BDF5
:1015980080B400AF72B600BFFEE780B483B000AF7E
:1015A8007860396000BF0C37BD4680BC70470000CA
:1015B80080B584B000AF164B9B69154A43F0010310
:1015C8009361134B9B6903F00103BB60BB68104B2D
:1015D800DB690F4A43F08053D3610D4BDB6903F09D
:1015E80080537B607B68052000F008FC094B5B6832
:1015F800FB60FB6823F0E063FB60FB6843F000736B
:10160800FB60044AFB68536000BF1037BD4680BDCD
:10161800001002400000014080B400AFFEE780B433
:1016280000AFFEE780B400AFFEE780B400AFFEE78E
:1016380080B400AFFEE780B400AF00BFBD4680BCF9
:10164800704780B400AF00BFBD4680BC704780B40F
:1016580000AF00BFBD4680BC704780B500AF00F04A
:10166800DDFA00BF80BD80B586B000AFF860B96014
:101678007A6000237B610AE0AFF300800146BB6813
:101688005A1CBA60CAB21A707B6901337B617A69E5
:101698007B689A42F0DB7B6818461837BD4680BDE8
:1016A80080B586B000AFF860B9607A6000237B61CE
:1016B80009E0BB685A1CBA601B781846FFF75AFA4B
:1016C8007B6901337B617A697B689A42F1DB7B68CD
:1016D80018461837BD4680BD80B483B000AF786027
:1016E8004FF0FF3318460C37BD4680BC704780B4B6
:1016F80083B000AF786039603B684FF400525A609D
:10170800002318460C37BD4680BC704780B483B0B0
:1017180000AF7860012318460C37BD4680BC70477F
:1017280080B485B000AFF860B9607A6000231846CD
:101738001437BD4680BC704780B586B000AF78606E
:10174800144A154BD31A7B617B693B61134B1B68A9
:10175800002B02D1114B124A1A60104B1A687B6891
:1017680013443A699A4207D202F0CEFA03460C2291
:101778001A604FF0FF3309E0084B1B68FB60074B0A
:101788001A687B681344054A1360FB6818461837C3
:10179800BD4680BD000001200004000004070020B1
:1017A8005014002080B400AF00BFBD4680BC704715
:1017B80080B400AF044BDB681B0A03F0070318462C
:1017C800BD4680BC704700BF00ED00E080B483B028
:1017D80000AF0346FB7197F90730002B0BDBFB7951
:1017E80003F01F02064997F907305B09012000FA48
:1017F80002F241F8232000BF0C37BD4680BC704779
:1018080000E100E080B483B000AF03463960FB71AB
:1018180097F90730002B0ADB3B68DAB20C4997F9D5
:1018280007301201D2B20B4483F800230AE03B6868
:10183800DAB20849FB7903F00F03043B1201D2B274
:101848000B441A7600BF0C37BD4680BC704700BFFA
:1018580000E100E000ED00E080B489B000AFF8607E
:10186800B9607A60FB6803F00703FB61FB69C3F1A9
:101878000703042B28BF0423BB61FB690433062B31
:1018880002D9FB69033B00E000237B614FF0FF3284
:10189800BB6902FA03F3DA43BB681A407B699A40D2
:1018A8004FF0FF317B6901FA03F3D9437B680B40A2
:1018B800134318462437BD4680BC704780B483B0B4
:1018C80000AF78607B68DB6843F400527B68DA60BD
:1018D80000BF0C37BD4680BC704780B483B000AFF2
:1018E80078607B681B6923F490427B681A617B6887
:1018F8005B6923F02A027B685A6100BF0C37BD463A
:1019080080BC704780B485B000AF7860084BDA6956
:1019180007497B681343CB61054BDA697B68134041
:10192800FB60FB6800BF1437BD4680BC704700BF32
:101938000010024080B485B000AF7860084B9A6907
:1019480007497B6813438B61054B9A697B68134091
:10195800FB60FB6800BF1437BD4680BC704700BF02
:101968000010024080B400AF054B5B68044A43F0A6
:10197800E06343F03003536000BFBD4680BC70474E
:101988000000014080B500AF114B124A1A60104B9D
:101998004FF4E1325A600E4B00229A600C4B002241
:1019A800DA600B4B00221A61094B0C225A61084B72
:1019B80000229A61064B0022DA61054801F0E0FA3C
:1019C8000346002B01D0FFF7E3FD00BF80BD00BF39
:1019D800F41300200038014080B58CB000AF07F147
:1019E800140300221A605A609A60DA601A615A6118
:1019F8009A613B4600221A605A609A60DA601A615E
:101A08004FF48020FFF77EFF2020FFF793FF234B42
:101A18003B6009237B600323BB600023FB603B46DC
:101A280019461F4801F0DEFD1E4B3B6004237B6016
:101A38003B4619461A4801F0D5FDFFF793FFFFF71B
:101A4800B7FE0346002202211846FFF705FF0346AA
:101A580019462720FFF7D6FE2720FFF7B7FE4FF4D9
:101A6800E1337B610023BB610023FB6100233B6200
:101A78000C237B620023BB620023FB6207F1140383
:101A88001946094802F03EF80748FFF726FF0648BE
:101A9800FFF714FF00BF3037BD4680BD01000104C9
:101AA80000140140020002040048004080B588B0DC
:101AB80000AF786007F1100300221A605A609A603C
:101AC800DA607B681B681C4A934231D11B4B9B69C7
:101AD8001A4A43F480439361184B9B6903F480438B
:101AE800FB60FB68154B9B69144A43F00403936140
:101AF800124B9B6903F00403BB60BB684FF400738F
:101B08003B6102237B610323FB6107F11003194644
:101B18000B4800F0CBF94FF480633B6100237B61F5
:101B28000023BB6107F110031946054800F0BEF910
:101B380000BF2037BD4680BD00380140001002407C
:101B480000080140FFF72EFE0B480C490C4A002301
:101B580002E0D458C4500433C4188C42F9D3094A5B
:101B6800094C002301E013600432A242FBD302F0C7
:101B7800D1F8FFF7B7FC7047000000207400002080
:101B8800F85200087800002050140020FEE70000FA
:101B980080B500AF084B1B68074A43F01003136079
:101BA800032000F02BF9032000F008F8FFF700FDF0
:101BB8000023184680BD00BF0020024080B582B0D7
:101BC80000AF7860124B1A68124B1B7819464FF415
:101BD8007A73B3FBF1F3B2FBF3F3184600F05AF94A
:101BE8000346002B01D001230EE07B680F2B0AD897
:101BF800002279684FF0FF3000F020F9064A7B6830
:101C08001360002300E0012318460837BD4680BD55
:101C1800040000200C0000200800002080B400AF61
:101C2800054B1B781A46054B1B681344034A13607F
:101C380000BFBD4680BC70470C0000203C1400204B
:101C480080B400AF024B1B681846BD4680BC704785
:101C58003C14002080B584B000AF7860FFF7F0FF37
:101C6800B8607B68FB60FB68B3F1FF3F05D00A4BA7
:101C78001B781A46FB681344FB6000BFFFF7E0FFC0
:101C88000246BB68D31AFA689A42F7D800BF00BF69
:101C98001037BD4680BD00BF0C00002080B485B061
:101CA80000AF78607B6803F00703FB600C4BDB68D0
:101CB800BB60BA684FF6FF031340BB60FB681A02AB
:101CC800BB68134343F0BF6343F40033BB60044A6B
:101CD800BB68D36000BF1437BD4680BC704700BFE7
:101CE80000ED00E080B400AF044BDB681B0A03F092
:101CF80007031846BD4680BC704700BF00ED00E0F2
:101D080080B483B000AF03463960FB7197F90730A0
:101D1800002B0ADB3B68DAB20C4997F9073012014D
:101D2800D2B20B4483F800230AE03B68DAB20849D0
:101D3800FB7903F00F03043B1201D2B20B441A766D
:101D480000BF0C37BD4680BC704700BF00E100E013
:101D580000ED00E080B489B000AFF860B9607A6047
:101D6800FB6803F00703FB61FB69C3F10703042B5E
:101D780028BF0423BB61FB690433062B02D9FB6926
:101D8800033B00E000237B614FF0FF32BB6902FA9E
:101D980003F3DA43BB681A407B699A404FF0FF317E
:101DA8007B6901FA03F3D9437B680B401343184658
:101DB8002437BD4680BC704780B582B000AF7860DC
:101DC8007B68013BB3F1807F01D301230FE00A4A0E
:101DD8007B68013B53600F214FF0FF30FFF790FF06
:101DE800054B00229A60044B07221A60002318460C
:101DF8000837BD4680BD00BF10E000E080B582B066
:101E080000AF78607B68072B0FD07B68062B0CD05F
:101E18007B68052B09D07B68042B06D07B68032BD5
:101E280003D091210448FFF7B8FB7868FFF736FF25
:101E380000BF0837BD4680BD8C50000880B586B00D
:101E480000AF0346B9607A60FB7300237B617B684F
:101E58000F2B03D9A9210E48FFF79FFBBB680F2B57
:101E680003D9AA210A48FFF798FBFFF73BFF7861DF
:101E78007A68B9687869FFF76DFF024697F90F30FD
:101E880011461846FFF73CFF00BF1837BD4680BD16
:101E98008C50000880B582B000AF78607868FFF792
:101EA8008BFF034618460837BD4680BD80B58AB00B
:101EB80000AF7860396000237B6200233B627B6857
:101EC800A94A93421BD07B68A84A934217D07B68E3
:101ED800A74A934213D07B68A64A93420FD07B68E7
:101EE800A54A93420BD07B68A44A934207D07B68EB
:101EF800A34A934203D0BD21A248FFF74EFB3B689B
:101F08001B689BB2002B05D03B681B681B0C1B048D
:101F1800002B03D0BE219B48FFF73FFB3B685B6863
:101F2800002B00F035823B685B68012B00F03082A3
:101F38003B685B68112B00F02B823B685B68022BC7
:101F480000F026823B685B68122B00F021823B6818
:101F58005B688D4A934200F01B823B685B688B4A42
:101F6800934200F015823B685B68894A934200F00F
:101F78000F823B685B68874A934200F009823B689E
:101F88005B68854A934200F003823B685B68834A3A
:101F9800934200F0FD813B685B68032B00F0F881F9
:101FA800BF217848FFF7F9FAF2E101227B6A02FAC9
:101FB80003F3FB613B681B68FA691340BB61BA69AC
:101FC800FB699A4240F0E1817B68674A93421BD0E3
:101FD8007B68664A934217D07B68654A934213D060
:101FE8007B68644A93420FD07B68634A93420BD064
:101FF8007B68624A934207D07B68614A934203D068
:10200800CD216048FFF7C9FA3B685B68634A934291
:1020180000F0C680614A934200F2EC805C4A934229
:1020280000F0BE805A4A934200F2E4805A4A934232
:1020380000F0B680584A934200F2DC80534A93423B
:1020480000F0AE80514A934200F2D480514A934244
:1020580000F0A6804F4A934200F2CC80122B2BD876
:10206800122B00F2C78001A252F823F0A921000820
:10207800C92000081B210008F7210008FD210008DD
:10208800FD210008FD210008FD210008FD210008B0
:10209800FD210008FD210008FD210008FD210008A0
:1020A800FD210008FD210008FD210008FD21000890
:1020B800F120000845210008334A934270D099E086
:1020C8003B68DB68022B0BD03B68DB68012B07D031
:1020D8003B68DB68032B03D0D5212A48FFF75DFA5C
:1020E8003B68DB683B6286E03B68DB68022B0BD011
:1020F8003B68DB68012B07D03B68DB68032B03D008
:10210800DC212048FFF749FA3B68DB6804333B626F
:1021180071E03B68DB68022B0BD03B68DB68012B66
:1021280007D03B68DB68032B03D0E3211548FFF792
:1021380034FA3B68DB6808333B625CE03B68DB6889
:10214800022B0BD03B68DB68012B07D03B68DB68B0
:10215800032B03D0EA210B48FFF71FFA3B68DB6823
:102168000C333B6247E000BF00080140000C01400F
:10217800001001400014014000180140001C0140FB
:1021880000200140C8500008000011100000211074
:102198000000311000001210000022100000321060
:1021A8003B689B68002B0BD03B689B68012B07D0D2
:1021B8003B689B68022B03D0F7217C48FFF7EDF9B9
:1021C8003B689B68002B02D104233B6213E03B6809
:1021D8009B68012B05D108233B627B68FA691A6169
:1021E80009E008233B627B68FA695A6103E000232F
:1021F8003B6200E000BFBB69FF2B01D87B6801E0B0
:102208007B6804337B61BB69FF2B02D87B6A9B0028
:1022180002E07B6A083B9B003B617B691A680F21DF
:102228003B6901FA03F3DB431A40396A3B6901FA57
:1022380003F31A437B691A603B685B6803F08053B9
:10224800002B00F0A2805A4B9B69594A43F00103C6
:102258009361574B9B6903F00103BB60BB68554A08
:102268007B6A9B08023352F82330FB607B6A03F0D9
:1022780003039B000F2202FA03F3DB43FA681340BF
:10228800FB607B684C4A93421FD07B684B4A934261
:1022980019D07B684A4A934213D07B68494A9342D3
:1022A8000DD07B68484A934207D07B68474A9342DF
:1022B80001D105230AE0062308E0042306E00323EE
:1022C80004E0022302E0012300E000237A6A02F01E
:1022D800030292009340FA681343FB6035497B6A16
:1022E8009B080233FA6841F823203B685B6803F4D3
:1022F8008013002B06D0364B9A683549BB691343C7
:102308008B6006E0324B9A68BB69DB433049134067
:102318008B603B685B6803F40013002B06D02C4BE2
:10232800DA682B49BB691343CB6006E0284BDA68AF
:10233800BB69DB4326491340CB603B685B6803F409
:102348000033002B06D0224B5A682149BB6913433E
:102358004B6006E01E4B5A68BB69DB431C491340BF
:102368004B603B685B6803F48033002B06D0184B46
:102378001A681749BB6913430B6006E0144B1A68C7
:10238800BB69DB43124913400B607B6A01337B62F4
:102398003B681A687B6A22FA03F3002B7FF405AEC8
:1023A80000BF00BF2837BD4680BD00BFC850000829
:1023B800001002400000014000080140000C0140EC
:1023C800001001400014014000180140001C0140A9
:1023D8000004014080B582B000AF78600B467B8076
:1023E80013467B707B88002B04D07B881B0C1B0456
:1023F800002B04D04FF4EA710E48FFF7CEF87B7833
:10240800002B07D07B78012B04D040F2D511094866
:10241800FFF7C3F87B78002B03D07A887B681A61B2
:1024280003E07B881A047B681A6100BF0837BD4641
:1024380080BD00BFC850000880B586B000AF786086
:102448007B68002B01D101235CE37B681B68002BB0
:102458001CD07B681B6803F00103002B16D17B6836
:102468001B6803F00203002B10D17B681B6803F084
:102478000803002B0AD17B681B6803F00403002BB8
:1024880004D140F26511A548FFF787F87B681B68FF
:1024980003F00103002B00F09A807B685B68002B37
:1024A8000ED07B685B68B3F5803F09D07B685B68BA
:1024B800B3F5A02F04D040F26B119848FFF76DF8E0
:1024C800974B5B6803F00C03042B0CD0944B5B68B0
:1024D80003F00C03082B12D1914B5B6803F4803393
:1024E800B3F5803F0BD18E4B1B6803F40033002BF0
:1024F8006CD07B685B68002B68D1012302E37B68A2
:102508005B68B3F5803F06D1854B1B68844A43F46A
:10251800803313602EE07B685B68002B0CD1804B06
:102528001B687F4A23F4803313607D4B1B687C4A09
:1025380023F4802313601DE07B685B68B3F5A02F4C
:102548000CD1774B1B68764A43F480231360744B95
:102558001B68734A43F4803313600BE0704B1B68AD
:102568006F4A23F4803313606D4B1B686C4A23F465
:10257800802313607B685B68002B13D0FFF760FB38
:10258800386108E0FFF75CFB02463B69D31A642B0D
:1025980001D90323B6E2624B1B6803F40033002B16
:1025A800F0D014E0FFF74CFB386108E0FFF748FB78
:1025B80002463B69D31A642B01D90323A2E2584B84
:1025C8001B6803F40033002BF0D100E000BF7B68E8
:1025D8001B6803F00203002B79D07B681B69002B72
:1025E80008D07B681B69012B04D040F29F114B482F
:1025F800FEF7D3FF7B685B691F2B04D94FF4D071BA
:102608004648FEF7CAFF464B5B6803F00C03002BF5
:102618000BD0434B5B6803F00C03082B1CD1404BD9
:102628005B6803F48033002B16D13D4B1B6803F025
:102638000203002B05D07B681B69012B01D0012305
:1026480060E2374B1B6823F0F8027B685B69DB00AC
:10265800334913430B603AE07B681B69002B20D099
:10266800304B01221A60FFF7EBFA386108E0FFF7F8
:10267800E7FA02463B69D31A022B01D9032341E248
:10268800274B1B6803F00203002BF0D0244B1B6878
:1026980023F0F8027B685B69DB00214913430B6078
:1026A80015E0204B00221A60FFF7CAFA386108E0EB
:1026B800FFF7C6FA02463B69D31A022B01D9032356
:1026C80020E2174B1B6803F00203002BF0D17B6854
:1026D8001B6803F00803002B48D07B689B69002B1C
:1026E80008D07B689B69012B04D04FF4F0710B482C
:1026F800FEF753FF7B689B69002B21D00A4B012210
:102708001A60FFF79DFA386110E0FFF799FA024660
:102718003B69D31A022B09D90323F3E104510008BA
:10272800001002400000424280044242674B5B6A4C
:1027380003F00203002BE8D0012000F003FC15E0B1
:10274800634B00221A60FFF77BFA386108E0FFF755
:1027580077FA02463B69D31A022B01D90323D1E148
:102768005A4B5B6A03F00203002BF0D17B681B68AD
:1027780003F00403002B00F0C0800023FB757B6886
:10278800DB68002B0CD07B68DB68012B08D07B68EA
:10279800DB68052B04D040F20F214E48FEF7FDFE02
:1027A8004A4BDB6903F08053002B0DD1474BDB69A3
:1027B800464A43F08053D361444BDB6903F08053AE
:1027C800BB60BB680123FB75434B1B6803F4807334
:1027D800002B18D1404B1B683F4A43F480731360A9
:1027E800FFF72EFA386108E0FFF72AFA02463B693C
:1027F800D31A642B01D9032384E1374B1B6803F4F4
:102808008073002BF0D07B68DB68012B06D12F4B3F
:102818001B6A2E4A43F0010313622DE07B68DB68D4
:10282800002B0CD1294B1B6A284A23F001031362A1
:10283800264B1B6A254A23F0040313621CE07B68BD
:10284800DB68052B0CD1214B1B6A204A43F004039B
:1028580013621E4B1B6A1D4A43F0010313620BE00F
:102868001A4B1B6A194A23F001031362174B1B6AA0
:10287800164A23F0040313627B68DB68002B15D02B
:10288800FFF7DEF938610AE0FFF7DAF902463B693B
:10289800D31A41F28832934201D9032332E10B4B18
:1028A8001B6A03F00203002BEED01DE0FFF7C8F906
:1028B800386113E0FFF7C4F902463B69D31A41F2C5
:1028C800883293420AD903231CE100BF001002405A
:1028D8008004424204510008007000408B4B1B6A80
:1028E80003F00203002BE5D1FB7D012B05D1874BBB
:1028F800DB69864A23F08053D3617B68DB69002B50
:102908000CD07B68DB69012B08D07B68DB69022B64
:1029180004D040F2AD217E48FEF73FFE7B68DB69BC
:10292800002B00F0EE80794B5B6803F00C03082B5A
:1029380000F0CE807B68DB69022B40F0B2807B68B8
:102948001B6A002B09D07B681B6AB3F5803F04D053
:1029580040F2B6216E48FEF720FE7B685B6A002BCA
:102968004AD07B685B6AB3F5802F45D07B685B6A89
:10297800B3F5002F40D07B685B6AB3F5402F3BD09E
:102988007B685B6AB3F5801F36D07B685B6AB3F5FA
:10299800A01F31D07B685B6AB3F5C01F2CD07B6861
:1029A8005B6AB3F5E01F27D07B685B6AB3F5001F4D
:1029B80022D07B685B6AB3F5101F1DD07B685B6A09
:1029C800B3F5201F18D07B685B6AB3F5301F13D0AE
:1029D8007B685B6AB3F5401F0ED07B685B6AB3F512
:1029E800501F09D07B685B6AB3F5601F04D040F2C2
:1029F800B7214748FEF7D1FD464B00221A60FFF782
:102A08001FF9386108E0FFF71BF902463B69D31A42
:102A1800022B01D9032375E03C4B1B6803F00073BC
:102A2800002BF0D17B681B6AB3F5803F16D17B6819
:102A38009B68002B09D07B689B68B3F5003F04D0E6
:102A480040F2CD213248FEF7A8FD304B5B6823F4F5
:102A580000327B689B682D4913434B602B4B5B68A6
:102A680023F474127B68196A7B685B6A0B432749F5
:102A780013434B60274B01221A60FFF7E1F83861D6
:102A880008E0FFF7DDF802463B69D31A022B01D9AB
:102A9800032337E01D4B1B6803F00073002BF0D0B5
:102AA8002FE01C4B00221A60FFF7CAF8386108E0D3
:102AB800FFF7C6F802463B69D31A022B01D9032354
:102AC80020E0124B1B6803F00073002BF0D118E0D4
:102AD8007B68DB69012B01D1012313E00B4B5B6899
:102AE800FB60FB6803F480327B681B6A9A4206D15C
:102AF800FB6803F470127B685B6A9A4201D0012379
:102B080000E0002318461837BD4680BD001002407B
:102B1800045100086000424280B584B000AF78607C
:102B280039607B68002B01D1012376E17B681B6843
:102B380003F00103002B16D17B681B6803F0020326
:102B4800002B10D17B681B6803F00403002B0AD10B
:102B58007B681B6803F00803002B04D140F2363170
:102B68007448FEF71AFD3B68002B0AD03B68012B1E
:102B780007D03B68022B04D040F237316D48FEF78E
:102B88000CFD6D4B1B6803F007033A689A4210D995
:102B9800694B1B6823F0070267493B6813430B60C6
:102BA800654B1B6803F007033A689A4201D001237A
:102BB80033E17B681B6803F00203002B49D07B6874
:102BC8001B6803F00403002B05D05C4B5B685B4A71
:102BD80043F4E06353607B681B6803F00803002B31
:102BE80005D0564B5B68554A43F4605353607B6885
:102BF8009B68002B24D07B689B68802B20D07B6847
:102C08009B68902B1CD07B689B68A02B18D07B6896
:102C18009B68B02B14D07B689B68C02B10D07B6856
:102C28009B68D02B0CD07B689B68E02B08D07B6816
:102C38009B68F02B04D040F25D313E48FEF7ADFCB6
:102C48003E4B5B6823F0F0027B689B683B4913436B
:102C58004B607B681B6803F00103002B51D07B6835
:102C68005B68002B0CD07B685B68012B08D07B6805
:102C78005B68022B04D04FF459712E48FEF78DFC87
:102C88007B685B68012B07D12C4B1B6803F400336E
:102C9800002B15D10123C0E07B685B68022B07D1AC
:102CA800264B1B6803F00073002B09D10123B4E005
:102CB800224B1B6803F00203002B01D10123ACE077
:102CC8001E4B5B6823F003027B685B681B49134358
:102CD8004B60FEF7B5FFF8600AE0FEF7B1FF024669
:102CE800FB68D31A41F28832934201D9032394E056
:102CF800124B5B6803F00C027B685B689B009A428E
:102D0800EBD10D4B1B6803F007033A689A4217D2C0
:102D1800094B1B6823F0070207493B6813430B6004
:102D2800054B1B6803F007033A689A4208D0012351
:102D380073E000BF04510008002002400010024068
:102D48007B681B6803F00403002B25D07B68DB68D5
:102D5800002B18D07B68DB68B3F5806F13D07B68D5
:102D6800DB68B3F5A06F0ED07B68DB68B3F5C06F86
:102D780009D07B68DB68B3F5E06F04D040F2A2317C
:102D88002848FEF70AFC284B5B6823F4E0627B685E
:102D9800DB68254913434B607B681B6803F0080315
:102DA800002B26D07B681B69002B18D07B681B6919
:102DB800B3F5806F13D07B681B69B3F5A06F0ED095
:102DC8007B681B69B3F5C06F09D07B681B69B3F5D5
:102DD800E06F04D040F2A9311248FEF7DEFB124B37
:102DE8005B6823F460527B681B69DB000E49134360
:102DF8004B6000F021F802460B4B5B681B0903F09F
:102E08000F030A49CB5C22FA03F3094A1360094B02
:102E18001B681846FEF7D2FE002318461037BD4639
:102E280080BD00BF0451000800100240EC510008AA
:102E3800040000200800002080B487B000AF002301
:102E4800FB600023BB6000237B6100237B600023C1
:102E58003B611E4B5B68FB60FB6803F00C03042BB3
:102E680002D0082B03D027E0194B3B6127E0FB6811
:102E78009B0C03F00F03174AD35C7B60FB6803F4D9
:102E88008033002B10D0114B5B685B0C03F00103FF
:102E9800114AD35CBB607B680D4A02FB03F2BB6836
:102EA800B2FBF3F37B6104E07B680C4A02FB03F39B
:102EB8007B617B693B6102E0054B3B6100BF3B697D
:102EC80018461C37BD4680BC704700BF0010024042
:102ED80000127A00045200081452000800093D004C
:102EE80080B400AF024B1B681846BD4680BC7047D3
:102EF8000400002080B500AFFFF7F2FF0246054B43
:102F08005B681B0A03F007030349CB5C22FA03F34F
:102F1800184680BD00100240FC51000880B500AF83
:102F2800FFF7DEFF0246054B5B68DB0A03F0070389
:102F38000349CB5C22FA03F3184680BD0010024017
:102F4800FC51000880B485B000AF78600A4B1B685C
:102F58000A4AA2FB03235B0A7A6802FB03F3FB60BD
:102F680000BFFB685A1EFA60002BF9D100BF00BFF2
:102F78001437BD4680BC704704000020D34D621052
:102F880080B582B000AF78607B68002B01D1012347
:102F98009FE07B689B69002B2CD07B681B684F4A9D
:102FA80093420ED07B681B684D4A934209D07B68D8
:102FB8001B684C4A934204D04FF4B7714A48FEF755
:102FC800ECFA7B689B69002B32D07B689B69B3F570
:102FD800807F2DD07B689B69B3F5007F28D07B6804
:102FE8009B69B3F5407F23D040F26F113E48FEF74E
:102FF800D4FA1DE07B681B68384A934218D07B6876
:103008001B68374A934213D07B681B68354A934242
:103018000ED07B681B68354A934209D07B681B68D1
:10302800334A934204D040F273112F48FEF7B5FAA1
:103038007B689B68002B09D07B689B68B3F5805F31
:1030480004D040F275112848FEF7A7FA7B6893F878
:103058004130DBB2002B06D17B68002283F8402088
:103068007868FEF723FD7B68242283F841207B687B
:103078001B68DA687B681B6822F40052DA6078689B
:1030880000F02AF97B681B681A697B681B6822F4C0
:1030980090421A617B681B685A697B681B6822F03A
:1030A8002A025A617B681B68DA687B681B6842F4ED
:1030B8000052DA607B6800225A647B68202283F819
:1030C80041207B68202283F842207B6800225A63D3
:1030D800002318460837BD4680BD00BF00380140B0
:1030E80000440040004800403C510008004C0040AB
:1030F8000050004080B58AB002AFF860B9603B600C
:103108001346FB8000237B61FB6893F84130DBB2F8
:10311800202B6DD1BB68002B02D0FB88002B01D17E
:10312800012366E0FB6800225A64FB68212283F8C9
:103138004120FEF785FD7861FB68FA889A84FB6870
:10314800FA88DA84FB689B68B3F5805F08D1FB686E
:103158001B69002B04D10023FB61BB68BB6103E042
:10316800BB68FB610023BB612AE03B6800937B6975
:1031780000228021F86800F040F80346002B01D0B7
:10318800032336E0FB69002B0BD1BB691B881A4669
:10319800FB681B68C2F308025A60BB690233BB6153
:1031A80007E0FB691A78FB681B685A60FB69013302
:1031B800FB61FB68DB8C9BB2013B9AB2FB68DA844B
:1031C800FB68DB8C9BB2002BCFD13B6800937B69FB
:1031D80000224021F86800F010F80346002B01D0C7
:1031E800032306E0FB68202283F84120002300E047
:1031F800022318462037BD4680BD80B590B000AF89
:10320800F860B9603B601346FB7150E0BB6CB3F1EA
:10321800FF3F4CD0BB6C002B07D0FEF711FD0246D8
:103228003B68D31ABA6C9A4241D2FB681B680C33CC
:10323800BB62BB6A53E8003F7B627B6A23F4D073AE
:10324800FB63FB681B680C33FA6B7A633B63396B6F
:103258007A6B41E80023FB62FB6A002BE5D1FB682F
:103268001B6814337B617B6953E8003F3B613B6912
:1032780023F00103BB63FB681B681433BA6B3A6223
:10328800FB61F9693A6A41E80023BB61BB69002B1D
:10329800E5D1FB68202283F84120FB68202283F8CF
:1032A8004220FB68002283F8402003230FE0FB68DC
:1032B8001B681A68BB681340BA689A420CBF01239E
:1032C8000023DBB21A46FB799A429FD000231846A6
:1032D8004037BD4680BD000080B584B000AF78603F
:1032E8007B685B685F4A934204D940F666615E4832
:1032F800FEF753F97B68DB68002B09D07B68DB6835
:10330800B3F5005F04D040F667615748FEF745F90A
:103318007B681B69002B0ED07B681B69B3F5806F37
:1033280009D07B681B69B3F5C06F04D040F66861AB
:103338004D48FEF732F97B685A694FF6F37313402C
:10334800002B03D17B685B69002B04D140F66961CF
:103358004548FEF722F97B681B681B6923F4405136
:103368007B68DA687B681B680A431A617B689A681D
:103378007B681B691A437B685B691343BB607B6886
:103388001B68DB6823F4B05323F00C037A681268D7
:10339800B9680B43D3607B681B685B6923F4407191
:1033A8007B689A697B681B680A435A617B681B685B
:1033B8002E4A934203D1FFF7B1FDF86002E0FFF710
:1033C80099FDF860FA6813469B0013449A001A4462
:1033D8007B685B689B00B2FBF3F3254AA2FB0323DF
:1033E8005B091901FA6813469B0013449A001A44B2
:1033F8007B685B689B00B2FBF3F21D4BA3FB0203E7
:103408005B09642000FB03F3D31A1B013233184A0B
:10341800A2FB03235B0903F0F0031944FA6813467F
:103428009B0013449A001A447B685B689B00B2FBBC
:10343800F3F20F4BA3FB02035B09642000FB03F3C9
:10344800D31A1B0132330A4AA2FB03235B0903F098
:103458000F027B681B680A449A6000BF1037BD469C
:1034680080BD00BF20AA44003C510008003801403C
:103478001F85EB5190B488B000AFF860B9607A60EE
:10348800FB681A46BB681B0E13441C462268BB68BF
:103498007B617B6993FAA3F33B613B69B3FA83F3DE
:1034A800DBB29B000F2101FA03F3DB431A40BB6830
:1034B800FB61FB6993FAA3F3BB61BB69B3FA83F3BE
:1034C800DBB29B00796801FA03F31343236000BF62
:1034D8002037BD4690BC704790B488B000AFF86004
:1034E800B9607A60FB681A46BB681B0E13441C4619
:1034F8002268BB687B617B6993FAA3F33B613B69F4
:10350800B3FA83F3DBB29B00032101FA03F3DB4335
:103518001A40BB68FB61FB6993FAA3F3BB61BB6903
:10352800B3FA83F3DBB29B00796801FA03F3134320
:10353800236000BF2037BD4690BC704790B488B068
:1035480000AFF860B9607A60FB681A46BB681B0E6A
:1035580013441C462268BB687B617B6993FAA3F31A
:103568003B613B69B3FA83F3DBB29B00042101FAA8
:1035780003F3DB431A40BB68FB61FB6993FAA3F3CF
:10358800BB61BB69B3FA83F3DBB29B00796801FACC
:1035980003F31343236000BF2037BD4690BC704738
:1035A80080B487B000AFF860B9607A60FB68DA6809
:1035B800BB681B0ADB431A40BB681B0A7B617B693B
:1035C80093FAA3F33B613B69B3FA83F3DBB2194681
:1035D8007B688B401A43FB68DA6000BF1C37BD4626
:1035E80080BC704780B588B000AF786039607B6870
:1035F800684A93421BD07B68674A934217D07B681E
:10360800664A934213D07B68654A93420FD07B6821
:10361800644A93420BD07B68634A934207D07B6825
:10362800624A934203D0A2216148FDF7B6FF3B6886
:103638001B6823F07B43002B05D03B681B6803F015
:103648007B43002B03D0A3215948FDF7A6FF3B6815
:103658001B681B021B0C7B617B693B613B6993FA0E
:10366800A3F3FB60FB68B3FA83F3DBB2FB6184E08E
:103678000122FB699A407B691340002B7AD0FB69D1
:10368800072B06D840F20112FB6902FA03F3BB616B
:1036980008E0FB69083B4FF0011202FA03F343F01C
:1036A8008063BB613B685B68082B12D13B681B6970
:1036B800002B07D03B681B69012B03D0BE213C4877
:1036C800FDF76BFF3B681B691A46B9697868FFF715
:1036D80067FF3B685B68002B13D03B685B68042B73
:1036E8000FD03B685B68082B0BD03B685B68012BED
:1036F80007D03B685B68092B03D0C5212C48FDF730
:103708004CFF3B685B681A46B9697868FFF7B2FEF8
:103718003B685B68012B03D03B685B68092B29D1A8
:103728003B689B68022B0BD03B689B68012B07D03A
:103738003B689B68032B03D0CD211D48FDF72DFF67
:103748003B68DB68002B07D03B68DB68042B03D0A1
:10375800CE211748FDF721FF3B689B681A46B969D7
:103768007868FFF7B9FE3B68DB681A46B96978687C
:10377800FFF7E4FEFB690133FB617A69FB6922FA12
:1037880003F3002B7FF474AF002318462037BD469F
:1037980080BD00BF00080140000C0140001001403E
:1037A8000014014000180140001C014000200140A5
:1037B8007851000880B400AF034B5B6803F00C033A
:1037C8001846BD4680BC70470010024080B400AF68
:1037D800034B5B6803F0F0031846BD4680BC704796
:1037E8000010024080B400AF034B5B6803F4E06351
:1037F8001846BD4680BC70470010024080B400AF38
:10380800034B5B6803F460531846BD4680BC7047A1
:103818000010024080B400AF034B5B6803F48033B0
:103828001846BD4680BC70470010024080B400AF07
:10383800034B5B6803F470131846BD4680BC7047A1
:103848000010024080B400AF044B5B685B0C03F0CF
:1038580001031846BD4680BC704700BF00100240F7
:1038680080B582B000AF786000F020F802467B682F
:103878001A607B681B68184600F03EF802467B68B1
:103888005A607B685B68184600F04CF802467B6813
:103898009A607B685B68184600F058F802467B68B7
:1038A800DA6000BF0837BD4680BD000080B582B031
:1038B80000AF00237B60FFF77DFF0346082B0CD089
:1038C800082B0ED8002B02D0042B03D009E0094B9B
:1038D8007B6009E0074B7B6006E000F04BF87860FE
:1038E80002E0044B7B6000BF7B6818460837BD4682
:1038F80080BD00BF00127A0080B582B000AF78604A
:10390800FFF764FF03461B0903F00F03044AD35C67
:103918001A467B68D34018460837BD4680BD00BFAD
:10392800EC51000880B582B000AF7860FFF75AFF0D
:1039380003461B0A044AD35C1A467B68D3401846E0
:103948000837BD4680BD00BFFC51000880B582B075
:1039580000AF7860FFF752FF0346DB0A044AD35CE6
:103968001A467B68D34018460837BD4680BD00BF5D
:10397800FC51000880B582B000AF00237B600023B3
:103988003B60FFF747FF38603B68002B04D03B687B
:10399800B3F5803F03D00BE00D4B7B600BE0FFF7E6
:1039A80051FF034601330B4AB2FBF3F37B6002E09D
:1039B800074B7B6000BFFFF739FF03469B0C0233C0
:1039C8007A6802FB03F318460837BD4680BD00BF7E
:1039D80000093D0000127A0080B483B000AF78601F
:1039E8007B68DB6803F40053B3F5005F0CBF012369
:1039F8000023DBB218460C37BD4680BC704780B444
:103A080083B000AF786039607B681B6923F440524B
:103A18003B681A437B681A6100BF0C37BD4680BCFF
:103A2800704780B483B000AF786039607B685B69A9
:103A380023F440723B681A437B685A6100BF0C3715
:103A4800BD4680BC7047000080B485B000AFF86008
:103A5800B9607A60BA6813469B0013449A001A4406
:103A68007B689B00B2FBF3F3254AA2FB03235B09A7
:103A78009BB21B0199B2BA6813469B0013449A0083
:103A88001A447B689B00B2FBF3F21D4BA3FB0203B5
:103A98005B09642000FB03F3D31A1B013233184A75
:103AA800A2FB03235B099BB203F0F0039BB20B4418
:103AB80099B2BA6813469B0013449A001A447B686B
:103AC8009B00B2FBF3F20E4BA3FB02035B096420DD
:103AD80000FB03F3D31A1B013233094AA2FB032369
:103AE8005B099BB203F00F039BB20B449BB21A46CF
:103AF800FB689A6000BF1437BD4680BC704700BFA2
:103B08001F85EB5180B588B000AF7860396001231C
:103B1800FB770023BB617B68744A934213D07B68B0
:103B2800734A93420FD07B68724A93420BD07B68EA
:103B3800714A934207D07B68704A934203D0CD21E3
:103B48006F48FDF72AFD3B681B686E4A934203D90C
:103B5800CE216B48FDF721FD3B685B68002B08D040
:103B68003B685B68B3F5805F03D0CF216448FDF7FD
:103B780014FD3B689B68B3F5805F11D03B689B6878
:103B8800002B0DD03B689B68B3F5405F08D03B68BD
:103B98009B68B3F5005F03D0D0215948FDF7FDFCC1
:103BA8003B68DB68002B0DD03B68DB68B3F5806FA2
:103BB80008D03B68DB68B3F5C06F03D0D12150480B
:103BC800FDF7EBFC3B681B69002B0FD03B681B69BA
:103BD800042B0BD03B681B69082B07D03B681B697B
:103BE8000C2B03D0D2214648FDF7D7FC3B685B6914
:103BF800002B12D03B685B69B3F5807F0DD03B6822
:103C08005B69B3F5007F08D03B685B69B3F5407F1B
:103C180003D0D3213A48FDF7C0FC7868FFF7DCFEF3
:103C28000346002B5CD17B68DB6823F4B05323F098
:103C38000C033A6851683A68D26811433A681269C5
:103C48000A431A437B68DA603B689B6819467868C0
:103C5800FFF7D5FE3B685B6919467868FFF7E1FE18
:103C680007F108031846FFF7FBFD7B681F4A9342DC
:103C780002D17B69BB611AE07B681D4A934202D17D
:103C88003B69BB6113E07B681A4A934202D13B69E6
:103C9800BB610CE07B68184A934202D13B69BB6167
:103CA80005E07B68154A934201D13B69BB61BB695A
:103CB800002B15D03B681B68002B11D00023FB7725
:103CC8003B681B681A46B9697868FFF7BDFE7B68D0
:103CD8009B680F2B04D840F235110948FDF75DFCAD
:103CE800FB7F18462037BD4680BD00BF0038014025
:103CF8000044004000480040004C00400050004094
:103D0800B051000820AA4400014B1868704700BF52
:103D18001000002070B500260C4D0D4C641BA4103B
:103D2800A64209D101F086F900260A4D0A4C641B07
:103D3800A410A64205D170BD55F8043B984701363A
:103D4800EEE755F8043B98470136F2E7F0520008D1
:103D5800F0520008F0520008F452000803460244EA
:103D6800934200D1704703F8011BF9E70FB40A4BDF
:103D780013B51C6824B1A36913B9204600F05EFA94
:103D880005AB2046049AA168019300F029FC02B013
:103D9800BDE8104004B070471000002070B50E4612
:103DA800054618B183690BB900F048FAAB69AC68ED
:103DB80013B9284600F042FA2C4B9C4220D16C687B
:103DC800636EDB0705D4A389980502D4A06D00F0C3
:103DD800D3FAA38919071DD52369DBB1013EA3686E
:103DE80016F8011F013BA36039BB002B38DA2246C5
:103DF8000A21284600F048F8013011D00A2511E0C0
:103E08001B4B9C4201D1AC68DAE71A4B9C4208BFB5
:103E1800EC68D5E72146284600F088F80028DDD070
:103E28004FF0FF35636EDA0705D4A3899B0502D4EA
:103E3800A06D00F0A2FA284670BD002B04DAA26932
:103E48009A4206DC0A2904D023685A1C2260197099
:103E5800C5E72246284600F017F80130BFD1DFE752
:103E68000A2523685A1C22601D70DBE73C520008B3
:103E78005C5200081C520008024B01461868FFF704
:103E88008DBF00BF10000020F8B50E461446054649
:103E980018B183690BB900F0D1F9214B9C422BD1A1
:103EA8006C68A369A360A3891A072FD523696BB32C
:103EB80023692068F6B2C01A63693746834204DC76
:103EC8002146284600F026F930BBA3680130013BA3
:103ED800A36023685A1C22601E706369834204D061
:103EE800A389DB0706D50A2E04D12146284600F00F
:103EF80011F988B93846F8BD0A4B9C4201D1AC6823
:103F0800CFE7094B9C4208BFEC68CAE72146284620
:103F180000F00CF80028CBD04FF0FF37EAE700BFDD
:103F28003C5200085C5200081C520008324B70B525
:103F38001D6806460C4625B1AB6913B9284600F042
:103F48007DF92E4B9C420FD16C68A389B4F90C20E3
:103F580019072CD4DD0611D40923336042F040033D
:103F68004FF0FF30A3813EE0254B9C4201D1AC6865
:103F7800EBE7244B9C4208BFEC68E6E7580712D5EC
:103F8800616B41B104F14403994202D0304600F01C
:103F980059FA00236363A38923F02403A381002330
:103FA800636023692360A38943F00803A38123691D
:103FB8004BB9A38903F42073B3F5007F03D02146DE
:103FC800304600F0FFF9A089B4F90C2010F0010385
:103FD8000AD00023A36063695B42A361236943B9E4
:103FE80010F08000BAD170BD810758BF6369A36023
:103FF800F4E70020F7E700BF100000203C5200085B
:104008005C5200081C5200088A892DE9F0410546D7
:1040180010070C4658D44B68002B05DC0B6C002BA2
:1040280002DC0020BDE8F081E66A002EF9D000230A
:1040380012F480522F682B6032D0606DA3895A0722
:1040480005D56368C01A636B0BB1236CC01A0023D3
:104058000246E66A2846216AB047431CA38906D16E
:1040680029681D292CD82A4ACA40D60728D50022F3
:1040780062602269D904226004D5421C01D12B68F0
:1040880003B96065616B2F600029CAD004F144034D
:10409800994202D0284600F0D5F900206063C1E7B4
:1040A800216A01232846B047411CC7D12B68002B41
:1040B800C4D01D2B01D0162B01D12F60B1E7A389E5
:1040C80043F04003A381ADE70F69002FA9D0930700
:1040D80018BF00230E6808BF4B69A6EB07080F60DE
:1040E8008B60B8F1000F9CDD43463A462846216AAA
:1040F800A66AB047002806DCA3894FF0FF3043F0DA
:104108004003A3818EE70744A8EB0008E9E700BF56
:104118000100402038B50B6905460C4613B9002547
:10412800284638BD18B183690BB900F087F8144BDD
:104138009C421BD16C68B4F90C30002BEFD0626E36
:10414800D00704D4990502D4A06D00F015F92846CB
:104158002146FFF759FF636E0546DA07E0D4A389C5
:104168009B05DDD4A06D00F008F9D9E7054B9C420A
:1041780001D1AC68DFE7044B9C4208BFEC68DAE782
:104188003C5200085C5200081C520008002310B57D
:104198000446C0E90033C0E9043383608181436683
:1041A800C2818361194608225C30FFF7D7FD054BB1
:1041B80024626362044BA362044BE362044B2363EF
:1041C80010BD00BF954B0008B74B0008EF4B000827
:1041D800134C0008014900F0AFB800BF1D410008AA
:1041E80070B568254A1E55430E4605F1740100F066
:1041F80075F9044640B10021C0E900160C30A060F2
:1042080005F16802FFF7AAFD204670BD014800F0DD
:10421800B3B800BF48140020014800F0AEB800BF92
:1042280048140020014800F0A7B800BF431400203C
:10423800014800F0A2B800BF4314002010B504469E
:10424800FFF7F0FFA3691BB1BDE81040FFF7F0BF0F
:10425800C4E912332365134B134A1B68A262A342B5
:1042680008BF0123204608BFA36100F01FF8606063
:10427800204600F01BF8A060204600F017F8002246
:104288000421E0606068FFF781FF01220921A0682E
:10429800FFF77CFF02221221E068FFF777FF012376
:1042A800A361D1E718520008DD410008F8B50746B8
:1042B800FFF7ACFF1E4B1E68B36913B93046FFF712
:1042C800BDFF4836D6E90134013B03D533680BB34B
:1042D8003668F7E7B4F90C50D5B9164B04F1580015
:1042E800E360656600F047F8FFF796FF0822294665
:1042F800C4E90155C4E904552560A56104F15C00D1
:10430800FFF72CFDC4E90D55C4E912552046F8BD48
:104318006834D9E704213846FFF762FF0446306065
:104328000028D5D1FFF778FF0C233B60EEE700BFEC
:10433800185200080100FFFF2DE9F8430646884699
:10434800002700F14804D4E90195B9F1010905D520
:104358002468002CF7D13846BDE8F883AB89012BD7
:1043680007D9B5F90E30013303D029463046C04786
:1043780007436835E9E770477047704770B50E46E0
:10438800B1F90E10144600291D4696B007DA00232D
:104398002B60B3891A0610D44FF480630EE06A4686
:1043A80000F05AFC0028F2DB019A02F47042A2F5F0
:1043B80000535A425A412A60EEE740230020236006
:1043C80016B070BD8B8973B59D0706460C4607D598
:1043D80004F14703236023610123636102B070BDC8
:1043E8006A4601ABFFF7CAFF00990546304600F060
:1043F80075F848B9B4F90C309A05EFD423F00303E3
:1044080043F00203A381E3E70D4BB362A389206065
:1044180043F08003A381009B20616361019B5BB132
:104428003046B4F90E1000F029FC28B1A38923F016
:10443800030343F00103A381A0890543A581CDE7C8
:10444800DD41000838B50546002943D051F8043C41
:104458000C1F002BB8BFE41800F040FC1E4A13687C
:10446800104633B9636014602846BDE8384000F050
:104478003BBCA3420AD921686218934201BF1A685B
:104488005B685218226063600460EDE71A465B6857
:104498000BB1A342FAD911685018A0420BD1206879
:1044A8000144501883421160DED118685B680144EA
:1044B80011605360D8E702D90C232B60D4E7206839
:1044C80021188B4201BF19685B6809182160636075
:1044D8005460C9E738BD00BF08070020F8B5CD1CF7
:1044E80025F0030508350C2D38BF0C25002D064690
:1044F80001DBA94203D90C2333600020F8BD00F08A
:10450800EDFB21490A6814469CB9204F3B6823B942
:104518002146304600F02AFB38602946304600F034
:1045280025FB431C23D10C233046336000F0DCFB11
:10453800E3E723685B1B17D40B2B03D923601C44C8
:10454800256004E06368A2420CBF0B6053603046EC
:1045580000F0CAFB04F10B00231D20F00700C21A6B
:10456800CCD01B1AA350C9E722466468CCE7C41C08
:1045780024F00304A042E3D0211A304600F0F6FAF2
:104588000130DDD1CFE700BF080700200C0700206D
:10459800936810B4013B002B936007DA9469A34237
:1045A80001DB0A2902D110BCFFF76EBC1368581C46
:1045B80010601970084610BC7047F8B506460F46DB
:1045C8001446D518AC4201D1002007E03A463046DF
:1045D80014F8011BFFF7DCFF431CF3D1F8BD000002
:1045E8002DE9F04F0D461446984606469DB018B181
:1045F80083690BB9FFF722FE894B9D421BD1756871
:104608006B6ED90705D4AB899A0502D4A86DFFF75C
:10461800B3FEAB891B0701D52B69EBB92946304698
:10462800FFF784FCC0B16B6EDC070ED54FF0FF308E
:104638001DB0BDE8F08F7B4B9D4201D1B568DFE727
:10464800794B9D4208BFF568DAE7AB899805EDD448
:10465800A86DFFF792FEE9E70023099320238DF860
:10466800293030234FF00109CDF80C80DFF8BC81E8
:104678008DF82A3023469A4613F8012B0AB1252AC9
:10468800F9D1BAEB040B0BD05B46224629463046DB
:10469800FFF793FF013000F0AA80099A5A44099263
:1046A8009AF80030002B00F0A28000234FF0FF3270
:1046B800CDE905230AF1010A049307938DF85330D5
:1046C8001A935446052214F8011B584800F0F8FACA
:1046D800049AD8B9D10644BF20238DF85330130764
:1046E80044BF2B238DF853309AF800302A2B15D06D
:1046F800544600204FF00A0C079A214611F8013B56
:10470800303B092B4ED9B0B1079214E0A0EB080357
:1047180009FA03F31343A2460493D2E7039B191D36
:104728001B680391002BBBBF5B4242F00202079358
:104738000793B8BF049223782E2B0CD163782A2BC9
:1047480035D1039B02341A1D1B680392002BB8BF96
:104758004FF0FF330593DFF8E4A003225046217899
:1047680000F0AEFA40B14023A0EB0A0003FA00F0D3
:10477800049B01340343049314F8011B06222C48BC
:104788008DF8281000F09CFA00283FD0294B1BBB5D
:10479800039B073323F0070308330393099B3B4428
:1047A800099367E70C4601200CFB0232A5E70023BA
:1047B8004FF00A0C194601340593204610F8012BD6
:1047C800303A092A03D9002BC5D00591C3E704461E
:1047D80001230CFB0121F0E703AB00932A46304686
:1047E800154B04A9AFF300800746781CD6D16B6E31
:1047F800D90705D4AB899A0502D4A86DFFF7BDFD8A
:10480800AB895B063FF512AF099811E703AB00933C
:104818002A463046084B04A900F082F8E4E700BFB6
:104828003C5200085C5200081C5200087C520008E8
:104838008652000800000000C345000882520008A4
:104848002DE9F047164699468A680B690746934250
:10485800B8BF1346336091F843200C46DDF820803A
:104868000AB1013333602368990642BF33680233C3
:104878003360256815F0060506D104F1190AE368C6
:1048880032689B1AAB4228DC94F84320131E226836
:1048980018BF012392062DD44946384604F1430235
:1048A800C047013020D02368E56803F00603042BD5
:1048B80018BF002532684FF00006A36808BFAD1A7C
:1048C800226908BF25EAE5759342C4BF9B1AED1813
:1048D8001A34B5421AD1002008E00123524649464D
:1048E8003846C047013003D14FF0FF30BDE8F087AC
:1048F8000135C4E73020E11881F843005A1C94F8C8
:1049080045102244023382F84310C5E701232246AA
:1049180049463846C0470130E6D00136D9E700009D
:104928002DE9FF470C46277E9146782F80469A4608
:104938000C9904F1430207D8622F0AD8002F00F01F
:10494800D980582F00F0A48004F1420684F8427000
:104958003AE0A7F16303152BF6D801A050F823F02D
:10496800C1490008D54900085149000851490008C3
:104978005149000851490008D54900085149000823
:10498800514900085149000851490008E34A000804
:10499800054A0008C54A000851490008514900085D
:1049A800054B000851490008054A0008514900080C
:1049B80051490008CD4A00080B6804F142061A1D47
:1049C8001B680A6084F842300123A4E0256808685F
:1049D8002E0600F104030AD505680B60002D03DAE2
:1049E8002D236D4284F843300A235E4819E015F000
:1049F800400F05680B6018BF2DB2EFE70B682568FC
:104A0800181D0860280601D51D6802E06906FBD557
:104A18001D886F2F0CBF08230A235248002184F8F1
:104A280043106668002EA8BF2168A660A4BF21F0C5
:104A3800040121600DB9002E4DD01646B5FBF3F1E7
:104A480003FB1157C75D06F8017D2F46BB420D4693
:104A5800F4D9082B0BD12368DF0708D523696168CF
:104A68009942DEBF302306F8013C06F1FF36921B5F
:104A780022614B4621464046CDF800A003AAFFF725
:104A8800DFFE01304CD14FF0FF3004B0BDE8F087B5
:104A9800344884F845700E68236856F8045B1F068E
:104AA8000E6014D5D90744BF43F0200323601DB915
:104AB800236823F0200323601023AFE7236843F023
:104AC800200323607823284884F84530E3E75E060E
:104AD80048BFADB2E6E71646BBE70B6826681D1D62
:104AE80060690D6035061B6801D5186002E0710623
:104AF800FBD51880002316462361BAE70B681A1DF8
:104B08000A601E6800213046626800F0D9F808B1D2
:104B1800801B606063682361002384F84330A8E742
:104B28003246494640462369D0470130ABD0236816
:104B38009B0713D4E068039B9842B8BF1846A4E7C4
:104B48000123324649464046D04701309BD00135C3
:104B5800E36803995B1AAB42F2DCEBE7002504F14A
:104B68001906F5E78D5200089E52000838B5002353
:104B7800054D044608462B60FCF7DEFD431C02D1B8
:104B88002B6803B1236038BD4C14002010B50C46C7
:104B9800B1F90E1000F0AEF80028ABBF636DA38921
:104BA8001B1823F48053ACBF6365A38110BD2DE9A6
:104BB800F0411F468B890546DB050C46164605D590
:104BC80002230022B1F90E1000F068F8A3893246DA
:104BD80023F48053A38128463B46B4F90E10BDE860
:104BE800F04100F017B810B50C46B1F90E1000F0FE
:104BF80055F8431CA38915BF606523F4805343F41B
:104C08008053A38118BFA38110BDB1F90E1000F025
:104C180013B8000038B50446084611460022054D71
:104C28002A601A46FCF73CFD431C02D12B6803B1ED
:104C3800236038BD4C14002038B50023054D0446C8
:104C480008462B60FCF748FD431C02D12B6803B1D2
:104C5800236038BD4C14002038B50023064D0446A7
:104C6800084611462B60FCF742FD431C02D12B6815
:104C780003B1236038BD00BF4C14002038B50023B1
:104C8800054D044608462B60FCF740FD431C02D145
:104C98002B6803B1236038BD4C14002038B5044696
:104CA800084611460022054D2A601A46FCF738FDD1
:104CB800431C02D12B6803B1236038BD4C1400207B
:104CC800034610B5C9B202449342184601D10020E8
:104CD80003E0047801338C42F6D110BD0148FFF798
:104CE8004BBB00BF441400200148FFF746BB00BF80
:104CF8004414002038B50446084611460022054DE4
:104D08002A601A46FCF7AFFC431C02D12B6803B19A
:104D1800236038BD4C1400202DE9F84FB64B21F024
:104D280000469E4204460D468B4617DDB34B9E4215
:104D380001DC09D140B122462B4620462946FBF723
:104D480075FA04460D4605E0BBF1000FAC4C00F3C4
:104D58002181AC4D20462946BDE8F88FAA4B9E42DA
:104D680011DCA3F1DE739E420ADC8BA3D3E9002396
:104D7800FBF75CFA0022A54BFBF79EFE0028E9D161
:104D88004FF0FF3A27E000F051F9A14B04469E424C
:104D98000D4600F3B880A3F550239E4200F39C8093
:104DA80002460B46FBF742FA0022984BFBF73CFA07
:104DB800002206460F464FF0804320462946FBF75F
:104DC80035FA02460B4630463946FBF70FFD4FF0E1
:104DD800000A04460D4622462B4620462946FBF784
:104DE800DBFB02460B4680468946FBF7D5FB6CA3E6
:104DF800D3E9002306460F46FBF7CEFB6AA3D3E9A7
:104E08000023FBF713FA32463B46FBF7C5FB68A3C2
:104E1800D3E90023FBF70AFA32463B46FBF7BCFB13
:104E280065A3D3E90023FBF701FA32463B46FBF7BB
:104E3800B3FB63A3D3E90023FBF7F8F932463B46FB
:104E4800FBF7AAFB60A3D3E90023FBF7EFF942467F
:104E58004B46FBF7A1FB5EA3D3E9002380468946B6
:104E680030463946FBF798FB5BA3D3E90023FBF7F1
:104E7800DBF932463B46FBF78FFB59A3D3E9002306
:104E8800FBF7D2F932463B46FBF786FB56A3D3E93C
:104E98000023FBF7C9F932463B46FBF77DFB54A3D9
:104EA800D3E90023FBF7C0F932463B46FBF774FB16
:104EB80002460B4640464946FBF7B8F922462B46C0
:104EC800FBF76AFBBAF1FF3F02460B4644D1204686
:104ED8002946FBF7A9F934E700224C4BFBF7A4F964
:104EE800002206460F4620462946484BFBF79EF906
:104EF80002460B4630463946FBF778FC4FF0010A6C
:104F080004460D4667E7434B9E421ADA0022424B9D
:104F1800FBF78AF9002206460F46204629463E4BF3
:104F2800FBF73AFB0022394BFBF780F902460B46A8
:104F380030463946FBF75AFC4FF0020A04460D4644
:104F480049E702460B4600203449FBF74FFC4FF077
:104F5800030A04460D463EE7314B324E06EBCA06BD
:104F680003EBCA0ADAE90023FBF75EF922462B466F
:104F7800FBF75AF902460B46D6E90001FBF754F94C
:104F8800BBF1000F04460D46BFF6E4AE01F1004345
:104F98001D46DFE6244DDDE69C7500883CE4377E3F
:104FA80011DA22E33AAD903FEB0D76244B7BA93F13
:104FB800513DD0A0660DB13F6E204CC5CD45B73FE1
:104FC800FF8300922449C23F0D5555555555D53F8D
:104FD8002F6C6A2C44B4A2BF9AFDDE522DDEAD3F81
:104FE8006D9A74AFF2B0B33F711623FEC671BC3F21
:104FF800C4EB98999999C93FFFFF0F440000F07FCF
:10500800182D4454FB21F9BFFFFFDB3F0000F03FA0
:10501800FFFFF23F008003400000F83F0000F0BFB0
:10502800D0520008B0520008FB21F93F21F000419E
:1050380070470000F8B500BFF8BC08BC9E46704732
:0C504800F8B500BFF8BC08BC9E467047DD
:10505800616E676C65203A202564092020646973B5
:105068003A202564200D0A00232323232323232306
:1050780023232323232323232323232323232323F8
:10508800230D00002E2E2F447269766572732F53FC
:10509800544D3332463178785F48414C5F447269E9
:1050A8007665722F5372632F73746D33326631785D
:1050B800785F68616C5F636F727465782E63000057
:1050C8002E2E2F447269766572732F53544D3332E6
:1050D800463178785F48414C5F4472697665722F33
:1050E8005372632F73746D3332663178785F6861F9
:1050F8006C5F6770696F2E63000000002E2E2F44CE
:105108007269766572732F53544D3332463178780D
:105118005F48414C5F4472697665722F5372632F02
:1051280073746D3332663178785F68616C5F72636F
:10513800632E63002E2E2F447269766572732F5387
:10514800544D3332463178785F48414C5F44726938
:105158007665722F5372632F73746D3332663178AC
:10516800785F68616C5F756172742E63000000007F
:105178002E2E2F447269766572732F53544D333235
:10518800463178785F48414C5F4472697665722F82
:105198005372632F73746D3332663178785F6C6C39
:1051A8005F6770696F2E63002E2E2F4472697665D3
:1051B80072732F53544D3332463178785F48414CDF
:1051C8005F4472697665722F5372632F73746D33FF
:1051D80032663178785F6C6C5F75736172742E63B8
:1051E80000000000000000000000000001020304AD
:1051F8000607080900000000010203040203040571
:10520800060708090A0B0C0D0E0F1010010200000A
:105218001400002000000000000000000000000052
:105228000000000000000000000000000000000076
:105238000000000000000000000000000000000066
:105248000000000000000000000000000000000056
:105258000000000000000000000000000000000046
:105268000000000000000000000000000000000036
:1052780000000000232D302B2000686C4C00656670
:10528800674546470030313233343536373839418F
:1052980042434445460030313233343536373839A5
:1052A80061626364656600004FBB610567ACDD3F02
:1052B800182D4454FB21E93F9BF681D20B73EF3F35
:1052C800182D4454FB21F93FE2652F227F2B7A3CAD
:1052D800075C143326A6813CBDCBF07A8807703C66
:0852E800075C143326A6913C7B
:0452F0000D020008A3
:0452F400E9010008C4
:1052F800FF3F00000024F40010000000010000003F
:1053080014000020000000003C5200085C52000815
:105318001C5200080000000000000000000000000F
:105328000000000000000000000000000000000075
:105338000000000000000000000000000000000065
:105348000000000000000000000000000000000055
:105358000000000000000000000000000000000045
:045368000000000041
:0400000508001B4D87
:00000001FF
