:020000040800F2
:100000000000012061550008995200089F52000825
:10001000A5520008AB520008B152000800000000D1
:10002000000000000000000000000000B7520008BF
:10003000C352000800000000CF520008DB52000845
:10004000A9550008A9550008A9550008A955000898
:10005000A9550008A9550008A9550008A955000888
:10006000A9550008A9550008A9550008A955000878
:10007000A9550008A9550008A9550008A955000868
:10008000A9550008A9550008A9550008A955000858
:10009000A9550008A9550008A9550008A955000848
:1000A000A9550008A9550008A9550008A955000838
:1000B000A9550008A9550008A9550008A955000828
:1000C000A9550008A9550008A9550008A955000818
:1000D000A9550008A9550008A9550008A955000808
:1000E000A9550008A9550008A9550008A9550008F8
:1000F000A9550008A9550008A9550008A9550008E8
:10010000A9550008A9550008A9550008A9550008D7
:10011000A9550008A9550008A9550008A9550008C7
:10012000A9550008A9550008A9550008A9550008B7
:1001300000000000000000000000000000000000BF
:1001400000000000000000000000000000000000AF
:10015000000000000000000000000000000000009F
:10016000000000000000000000000000000000008F
:10017000000000000000000000000000000000007F
:10018000000000000000000000000000000000006F
:10019000000000000000000000000000000000005F
:1001A000000000000000000000000000000000004F
:1001B000000000000000000000000000000000003F
:1001C000000000000000000000000000000000002F
:1001D000000000000000000000000000000000001F
:0401E0005FF8E0F1F3
:1001E80010B5054C237833B9044B13B10448AFF369
:1001F80000800123237010BD1C02002000000000B5
:1002080024C3000808B5034B1BB103490348AFF3E7
:10021800008008BD000000002002002024C3000860
:10022800034613F8012B002AFBD1181A013870472E
:1002380081F0004102E000BF83F0004330B54FEA8F
:1002480041044FEA430594EA050F08BF90EA020FFC
:100258001FBF54EA000C55EA020C7FEA645C7FEA8F
:10026800655C00F0E2804FEA5454D4EB5555B8BFB2
:100278006D420CDD2C4480EA020281EA030382EA23
:10028800000083EA010180EA020281EA0303362DB5
:1002980088BF30BD11F0004F4FEA01314FF4801C88
:1002A8004CEA113102D0404261EB410113F0004F9A
:1002B8004FEA03334CEA133302D0524263EB430351
:1002C80094EA050F00F0A780A4F10104D5F1200EEF
:1002D8000DDB02FA0EFC22FA05F2801841F100014A
:1002E80003FA0EF2801843FA05F359410EE0A5F11E
:1002F80020050EF1200E012A03FA0EFC28BF4CF04F
:10030800020C43FA05F3C01851EBE37101F0004504
:1003180007D54FF0000EDCF1000C7EEB00006EEB11
:100328000101B1F5801F1BD3B1F5001F0CD349089B
:100338005FEA30004FEA3C0C04F101044FEA4452F2
:1003480012F5800F80F09A80BCF1004F08BF5FEA79
:10035800500C50F1000041EB045141EA050130BD59
:100368005FEA4C0C404141EB0101013C28BFB1F56B
:10037800801FE9D291F0000F04BF01460020B1FAB6
:1003880081F308BF2033A3F10B03B3F120020CDA89
:100398000C3208DD02F1140CC2F10C0201FA0CF067
:1003A80021FA02F10CE002F11402D8BFC2F1200CCC
:1003B80001FA02F120FA0CFCDCBF41EA0C01904082
:1003C800E41AA2BF01EB0451294330BD6FEA0404CB
:1003D8001F3C1CDA0C340EDC04F11404C4F12002B6
:1003E80020FA04F001FA02F340EA030021FA04F3C8
:1003F80045EA030130BDC4F10C04C4F1200220FA1F
:1004080002F001FA04F340EA0300294630BD21FA5C
:1004180004F0294630BD94F0000F83F4801306BF22
:1004280081F480110134013D4EE77FEA645C18BF16
:100438007FEA655C29D094EA050F08BF90EA020FAD
:1004480005D054EA000C04BF1946104630BD91EAA5
:10045800030F1EBF0021002030BD5FEA545C05D1A8
:100468004000494128BF41F0004130BD14F58004E7
:100478003CBF01F5801130BD01F0004545F0FE415B
:1004880041F470014FF0000030BD7FEA645C1ABF90
:10049800194610467FEA655C1CBF0B46024650EAC7
:1004A800013406BF52EA033591EA030F41F40021F3
:1004B80030BD00BF90F0000F04BF0021704730B579
:1004C8004FF4806404F132044FF000054FF000014E
:1004D80050E700BF90F0000F04BF0021704730B50F
:1004E8004FF4806404F1320410F0004548BF4042E4
:1004F8004FF000013EE700BF42004FEAE2014FEA39
:1005080031014FEA02701FBF12F07F4393F07F4F13
:1005180081F06051704732F07F4208BF704793F016
:100528007F4F04BF41F40021704730B54FF4607429
:1005380001F0004521F000411CE700BF50EA01022C
:1005480008BF704730B54FF000050AE050EA0102D5
:1005580008BF704730B511F0004502D5404261EB45
:1005680041014FF4806404F132045FEA915C3FF486
:10057800D8AE4FF003025FEADC0C18BF03325FEA23
:10058800DC0C18BF033202EBDC02C2F1200300FAD4
:1005980003FC20FA02F001FA03FE40EA0E0021FAF9
:1005A80002F11444BDE600BF70B54FF0FF0C4CF4E7
:1005B800E06C1CEA11541DBF1CEA135594EA0C0F99
:1005C80095EA0C0F00F0DEF82C4481EA030621EAD4
:1005D8004C5123EA4C5350EA013518BF52EA03350F
:1005E80041F4801143F4801338D0A0FB02CE4FF0C1
:1005F8000005E1FB02E506F00042E0FB03E54FF0F1
:100608000006E1FB03569CF0000F18BF4EF0010EE8
:10061800A4F1FF04B6F5007F64F5407404D25FEAE4
:100628004E0E6D4146EB060642EAC62141EA555197
:100638004FEAC52040EA5E504FEACE2EB4F1FD0CD9
:1006480088BFBCF5E06F1ED8BEF1004F08BF5FEA57
:10065800500E50F1000041EB045170BD06F0004609
:1006680046EA010140EA020081EA0301B4EB5C04B6
:10067800C2BFD4EB0C0541EA045170BD41F48011AE
:100688004FF0000E013C00F3AB8014F1360FDEBFD3
:10069800002001F0004170BDC4F10004203C35DAAF
:1006A8000C341BDC04F11404C4F1200500FA05F332
:1006B80020FA04F001FA05F240EA020001F00042D3
:1006C80021F0004110EBD37021FA04F642EB060149
:1006D8005EEA430E08BF20EAD37070BDC4F10C0473
:1006E800C4F1200500FA04F320FA05F001FA04F237
:1006F80040EA020001F0004110EBD37041F1000123
:100708005EEA430E08BF20EAD37070BDC4F120052D
:1007180000FA05F24EEA020E20FA04F301FA05F295
:1007280043EA020321FA04F001F0004121FA04F23D
:1007380020EA020000EBD3705EEA430E08BF20EA0D
:10074800D37070BD94F0000F0FD101F00046400047
:1007580041EB010111F4801F08BF013CF7D041EAC9
:10076800060195F0000F18BF704703F000465200CD
:1007780043EB030313F4801F08BF013DF7D043EA9E
:100788000603704794EA0C0F0CEA135518BF95EA54
:100798000C0F0CD050EA410618BF52EA4306D1D1DB
:1007A80081EA030101F000414FF0000070BD50EAFA
:1007B800410606BF1046194652EA430619D094EA84
:1007C8000C0F02D150EA013613D195EA0C0F05D16E
:1007D80052EA03361CBF104619460AD181EA0301C2
:1007E80001F0004141F0FE4141F470014FF000007A
:1007F80070BD41F0FE4141F4780170BD70B54FF015
:10080800FF0C4CF4E06C1CEA11541DBF1CEA135594
:1008180094EA0C0F95EA0C0F00F0A7F8A4EB050476
:1008280081EA030E52EA03354FEA013100F088806D
:100838004FEA03334FF0805545EA131343EA126336
:100848004FEA022245EA111545EA10654FEA0026EB
:100858000EF000419D4208BF964244F1FD0404F5A4
:10086800407402D25B084FEA3202B61A65EB030500
:100878005B084FEA32024FF480104FF4002CB6EBBD
:10088800020E75EB030E22BFB61A754640EA0C003D
:100898005B084FEA3202B6EB020E75EB030E22BF7D
:1008A800B61A754640EA5C005B084FEA3202B6EBBE
:1008B800020E75EB030E22BFB61A754640EA9C007D
:1008C8005B084FEA3202B6EB020E75EB030E22BF4D
:1008D800B61A754640EADC0055EA060E18D04FEA0B
:1008E800051545EA16754FEA06164FEAC30343EAAB
:1008F80052734FEAC2025FEA1C1CC0D111F4801F78
:100908000BD141EA00014FF000004FF0004CB6E770
:1009180011F4801F04BF01430020B4F1FD0C88BF0F
:10092800BCF5E06F3FF6AFAEB5EB030C04BFB6EB1A
:10093800020C5FEA500C50F1000041EB045170BD0D
:100948000EF0004E4EEA113114EB5C04C2BFD4EB3A
:100958000C0541EA045170BD41F480114FF0000EBE
:10096800013C90E645EA060E8DE60CEA135594EA3A
:100978000C0F08BF95EA0C0F3FF43BAF94EA0C0F3D
:100988000AD150EA01347FF434AF95EA0C0F7FF4B2
:1009980025AF104619462CE795EA0C0F06D152EA06
:1009A80003353FF4FDAE1046194622E750EA4106EA
:1009B80018BF52EA43067FF4C5AE50EA41047FF4FB
:1009C8000DAF52EA43057FF4EBAE12E74FF0FF3C60
:1009D80006E000BF4FF0010C02E000BF4FF0010C31
:1009E8004DF804CD4FEA410C7FEA6C5C4FEA430CAA
:1009F80018BF7FEA6C5C1BD001B050EA410C0CBFF9
:100A080052EA430C91EA030F02BF90EA020F00205A
:100A1800704710F1000F91EA030F58BF994208BFC1
:100A280090422CBFD8176FEAE37040F0010070477E
:100A38004FEA410C7FEA6C5C02D150EA013C07D1D5
:100A48004FEA430C7FEA6C5CD6D152EA033CD3D020
:100A58005DF8040B704700BF8446104662468C461A
:100A68001946634600E000BF01B5FFF7B7FF00284D
:100A780048BF10F1000F01BD4DF808EDFFF7F4FF76
:100A88000CBF012000205DF808FB00BF4DF808ED01
:100A9800FFF7EAFF34BF012000205DF808FB00BF24
:100AA8004DF808EDFFF7E0FF94BF012000205DF846
:100AB80008FB00BF4DF808EDFFF7CEFF94BF0120FB
:100AC80000205DF808FB00BF4DF808EDFFF7C4FFF4
:100AD80034BF012000205DF808FB00BF4FEA410C3D
:100AE8007FEA6C5C02D150EA013C0AD14FEA430C20
:100AF8007FEA6C5C02D152EA033C02D14FF000005D
:100B080070474FF0010070474FEA410212F500129A
:100B180015D211D56FF47873B3EB625212D94FEA3C
:100B2800C12343F0004343EA505311F0004F23FA26
:100B380002F018BF404270474FF00000704750EA7B
:100B4800013005D111F0004008BF6FF00040704738
:100B58004FF00000704700BF4A0011D212F5001292
:100B680011D20DD56FF47873B3EB62520ED44FEAFD
:100B7800C12343F0004343EA505323FA02F070477D
:100B88004FF00000704750EA013002D14FF0FF30BB
:100B980070474FF0000070474FEA4102B2F1E0435E
:100BA80024BFB3F5001CDCF1FE5C0DD901F0004C4C
:100BB8004FEAC0024CEA5070B2F1004F40EB83009C
:100BC80008BF20F00100704711F0804F21D113F1C8
:100BD8003872BCBF01F00040704741F480114FEA01
:100BE8005252C2F11802C2F1200C10FA0CF320FA8A
:100BF80002F018BF40F001004FEAC1234FEAD323A7
:100C080003FA0CFC40EA0C0023FA02F34FEA430310
:100C1800CCE77FEA625307D150EA01331EBF4FF099
:100C2800FE4040F44000704701F0004040F0FE40B4
:100C380040F40000704700BF80F0004002E000BFB1
:100C480081F0004142001FBF5FEA410392EA030FAF
:100C58007FEA226C7FEA236C6AD04FEA1262D2EBF9
:100C68001363C1BFD218414048404140B8BF5B42FE
:100C7800192B88BF704710F0004F40F4000020F097
:100C88007F4018BF404211F0004F41F4000121F0AD
:100C98007F4118BF494292EA030F3FD0A2F10102F7
:100CA80041FA03FC10EB0C00C3F1200301FA03F135
:100CB80000F0004302D5494260EB4000B0F5000F58
:100CC80013D3B0F1807F06D340084FEA310102F117
:100CD8000102FE2A51D2B1F1004F40EBC25008BFC9
:100CE80020F0010040EA03007047490040EB000093
:100CF800013A28BFB0F5000FEDD2B0FA80FCACF194
:100D0800080CB2EB0C0200FA0CF0AABF00EBC250C0
:100D180052421843BCBFD0401843704792F0000FAE
:100D280081F4000106BF80F400000132013BB5E701
:100D38004FEA41037FEA226C18BF7FEA236C21D077
:100D480092EA030F04D092F0000F08BF08467047DC
:100D580090EA010F1CBF0020704712F07F4F04D1AA
:100D6800400028BF40F00040704712F100723CBFBD
:100D780000F50000704700F0004343F0FE4040F4E7
:100D8800000070477FEA226216BF08467FEA2363A5
:100D98000146420206BF5FEA412390EA010F40F490
:100DA800800070474FF0000304E000BF10F00043DC
:100DB80048BF40425FEA000C08BF704743F09643C3
:100DC80001464FF000001CE050EA010208BF7047DE
:100DD8004FF000030AE000BF50EA010208BF704765
:100DE80011F0004302D5404261EB41015FEA010C7A
:100DF80002BF84460146002043F0B64308BFA3F172
:100E08008053A3F50003BCFA8CF2083AA3EBC25353
:100E180010DB01FA02FC634400FA02FCC2F1200272
:100E2800BCF1004F20FA02F243EB020008BF20F0A9
:100E38000100704702F1200201FA02FCC2F120020F
:100E480050EA4C0021FA02F243EB020008BF20EA04
:100E5800DC7070474FF0FF0C1CEAD0521EBF1CEA32
:100E6800D15392EA0C0F93EA0C0F6FD01A4480EA20
:100E7800010C400218BF5FEA41211ED04FF0006309
:100E880043EA501043EA5111A0FB01310CF0004035
:100E9800B1F5000F3EBF490041EAD3715B0040EA5B
:100EA800010062F17F02FD2A1DD8B3F1004F40EB2B
:100EB800C25008BF20F00100704790F0000F0CF0FE
:100EC800004C08BF49024CEA502040EA51207F3AC2
:100ED800C2BFD2F1FF0340EAC250704740F400009D
:100EE8004FF00003013A5DDC12F1190FDCBF00F08E
:100EF80000407047C2F10002410021FA02F1C2F13C
:100F0800200200FA02FC5FEA310040F1000053EAD7
:100F18004C0308BF20EADC70704792F0000F00F025
:100F2800004C02BF400010F4000F013AF9D040EA2B
:100F38000C0093F0000F01F0004C02BF490011F4BF
:100F4800000F013BF9D041EA0C018FE70CEAD153BD
:100F580092EA0C0F18BF93EA0C0F0AD030F0004C3D
:100F680018BF31F0004CD8D180EA010000F00040F1
:100F7800704790F0000F17BF90F0004F084691F0AF
:100F8800000F91F0004F14D092EA0C0F01D14202E9
:100F98000FD193EA0C0F03D14B0218BF084608D1B2
:100FA80080EA010000F0004040F0FE4040F40000FC
:100FB800704740F0FE4040F4400070474FF0FF0C8F
:100FC8001CEAD0521EBF1CEAD15392EA0C0F93EAD6
:100FD8000C0F69D0A2EB030280EA010C49024FEA28
:100FE800402037D04FF0805343EA111143EA1013E1
:100FF8000CF000408B4238BF5B0042F17D024FF499
:10100800000C8B4224BF5B1A40EA0C00B3EB510F73
:1010180024BFA3EB510340EA5C00B3EB910F24BF5C
:10102800A3EB910340EA9C00B3EBD10F24BFA3EBE1
:10103800D10340EADC001B0118BF5FEA1C1CE0D1A9
:10104800FD2A3FF650AF8B4240EBC25008BF20F05C
:10105800010070470CF0004C4CEA50207F32C2BFB0
:10106800D2F1FF0340EAC250704740F400004FF04D
:101078000003013A37E792F0000F00F0004C02BF7E
:10108800400010F4000F013AF9D040EA0C0093F048
:10109800000F01F0004C02BF490011F4000F013BA2
:1010A800F9D041EA0C0195E70CEAD15392EA0C0F0A
:1010B80008D142027FF47DAF93EA0C0F7FF470AF42
:1010C800084676E793EA0C0F04D14B023FF44CAF85
:1010D80008466EE730F0004C18BF31F0004CCAD11A
:1010E80030F000427FF45CAF31F000437FF43CAF56
:1010F8005FE700BF4FF0FF3C06E000BF4FF0010C78
:1011080002E000BF4FF0010C4DF804CD4FEA400259
:101118004FEA41037FEA226C18BF7FEA236C11D0A3
:1011280001B052EA530C18BF90EA010F58BFB2EB56
:10113800030088BFC81738BF6FEAE17018BF40F0D6
:10114800010070477FEA226C02D15FEA402C05D18A
:101158007FEA236CE4D15FEA412CE1D05DF8040B0F
:10116800704700BF844608466146FFE70FB5FFF7A2
:10117800C9FF002848BF10F1000F0FBD4DF808ED5A
:10118800FFF7F4FF0CBF012000205DF808FB00BF4B
:101198004DF808EDFFF7EAFF34BF012000205DF8A5
:1011A80008FB00BF4DF808EDFFF7E0FF94BF0120F2
:1011B80000205DF808FB00BF4DF808EDFFF7D2FFEF
:1011C80094BF012000205DF808FB00BF4DF808ED32
:1011D800FFF7C8FF34BF012000205DF808FB00BFFF
:1011E8004FEA4002B2F1FE4F0FD34FF09E03B3EB2C
:1011F80012620DD94FEA002343F0004310F0004F6C
:1012080023FA02F018BF404270474FF000007047C1
:1012180012F1610F01D1420205D110F0004008BF60
:101228006FF0004070474FF00000704742000ED248
:10123800B2F1FE4F0BD34FF09E03B3EB126209D409
:101248004FEA002343F0004323FA02F070474FF0BF
:101258000000704712F1610F01D1420202D14FF034
:10126800FF3070474FF00000704700BF7BB972B97C
:101278000029BEBF00204FF0004106E008BF00284B
:101288001CBF6FF000414FF0FF3000F0D9B9ADF14D
:10129800080C6DE904CE002909DB002B1ADB00F0ED
:1012A8006DF8DDF804E0DDE9022304B07047404240
:1012B80061EB4101002B1BDB00F060F8DDF804E076
:1012C800DDE9022304B0404261EB4101524263EB85
:1012D80043037047524263EB430300F04FF8DDF8D5
:1012E80004E0DDE9022304B0404261EB41017047AC
:1012F800524263EB430300F041F8DDF804E0DDE916
:10130800022304B0524263EB4303704738B50C46DE
:1013180005462146284600220023FFF7B7FB28B9D7
:1013280028462146BDE8384000F00AB8284604F1AE
:10133800004100F005F8404261EB410138BD00BFB3
:10134800D0B500220B4B06460F46FFF72DF9FFF7E5
:1013580003FC0446FFF7AEF80022074BFFF724F919
:1013680002460B4630463946FEF766FFFFF7F4FBA8
:101378002146D0BD0000F03D0000F0412DE9F047C6
:10138800089E0D4604468E46002B40F083808A4214
:10139800174647D9B2FA82F34BB1C3F1200105FAD7
:1013A80003FE20FA01F19F4041EA0E0E9C404FEAED
:1013B8001748BEFBF8FC1FFA87F908FB1CE20CFB78
:1013C80009F0210C41EA024290420AD9BA180CF1FC
:1013D800FF3180F01881904240F21581ACF1020C87
:1013E8003A44121AB2FBF8F008FB102200FB09F18C
:1013F800A4B244EA0244A14209D93C1900F1FF32DF
:1014080080F00381A14240F2008102383C44641A12
:10141800002140EA0C401EB10022DC40C6E900422F
:10142800BDE8F08702B9FFDEB2FA82F3002B4FD194
:101438008D1A01214FEA124E1FFA82F8B5FBFEFC05
:101448000EFB1C5508FB0CF0220C42EA0545A8428D
:1014580007D97D190CF1FF3202D2A84200F2E980C7
:1014680094462D1AB5FBFEF00EFB105508FB00F84C
:10147800A4B244EA0544A04507D93C1900F1FF325B
:1014880002D2A04500F2D9801046A4EB080440EA35
:101498000C40C0E78B4208D9002E00F0B180002133
:1014A800C6E900050846BDE8F087B3FA83F10029CC
:1014B8004BD1AB4202D3824200F2B980841A65EB69
:1014C800030301209E46002EAAD0C6E9004EA7E7D6
:1014D8009F40C3F12002D1404FEA174EB1FBFEF006
:1014E8001FFA87F80EFB101124FA02F29D4000FB48
:1014F80008FC2A43150C45EA0145AC4504FA03F4F7
:1015080009D97D1900F1FF3180F08F80AC4540F298
:101518008C8002383D44A5EB0C05B5FBFEF10EFBB3
:10152800115C01FB08F995B245EA0C45A94507D9B4
:101538007D1901F1FF3274D2A94572D902393D44AF
:10154800A5EB090541EA004178E7C1F120078B4086
:1015580022FA07FC4CEA030C25FA07F44FEA1C4E62
:10156800B4FBFEF91FFA8CF80EFB194420FA07F3B6
:1015780009FB08FA8D401D432B0C43EA0444A2459D
:1015880002FA01F200FA01F309D91CEB040409F18B
:10159800FF3048D2A24546D9A9F102096444A4EB18
:1015A8000A04B4FBFEF00EFB104400FB08FAADB2CF
:1015B80045EA0444A24508D91CEB040400F1FF35B0
:1015C8002DD2A2452BD90238644440EA0940A0FB39
:1015D8000289A4EB0A044C45C6464D4619D316D0D9
:1015E8005EB1B3EB0E0264EB050404FA07F722FAC6
:1015F80001F31F43CC40C6E900740021BDE8F08721
:10160800314630460CE78C46EBE61046FFE643458C
:10161800E6D2B8EB020E69EB0C050138E0E7284684
:10162800D3E711468CE78146B9E7084673E70846D1
:1016380049E7ACF1020C3D4413E702383C4424E787
:10164800704700BF80B584B000AF3B600346FB71B4
:101658000B46BB7113467B7100F0DCF8FB795B002D
:10166800DBB2184600F0A8F900F020F90346002B79
:1016780003D000F0F5F8012322E0BB79184600F00A
:101688009BF900F013F90023FB7312E0FB7B3A6827
:1016980013441B78184600F08FF900F007F9034649
:1016A800002B03D000F0DCF8012309E0FB7B0133B9
:1016B800FB73FA7B7B799A42E8D300F0D1F80023D8
:1016C80018461037BD4680BD80B582B000AF3B607C
:1016D8000346FB710B46BB7113467B7100F09AF809
:1016E800FB795B00DBB2184600F066F900F0DEF823
:1016F8000346002B03D000F0B3F8012332E0BB7996
:10170800184600F059F900F0D1F800F083F8FB7999
:101718005B005BB243F001035BB2DBB2184600F03A
:101728004BF900F0C3F817E07B79012B07D10020B3
:1017380000F07CF903461A463B681A7006E001205F
:1017480000F074F903461A463B681A707B79013B2E
:101758007B713B6801333B607B79002BE4D100F05F
:101768007FF8002318460837BD4680BD80B500AF16
:1017780005E0074806F0FAFA142003F07FFC02F0AF
:101788009DF90346002BF4D100BF00BF80BD00BF08
:1017980040C300082DE9B04384B004AF154A164988
:1017A800164802F0FDF90346002B1ED0134B1B68A8
:1017B8001846FEF7A1FE804689460F4B1B6818465F
:1017C800FEF79AFE04460D460A4B1B681846FEF7BC
:1017D80093FE02460B46CDE90223CDE90045424679
:1017E8004B46074806F03CFA00E000BFBD46BDE89E
:1017F800B08300BF5C020020640200206002002069
:1018080050C3000880B500AF022003F0F9FB00BF09
:1018180080BD000080B500AF0E4B5B680D4A23F415
:10182800704353600B4B5B680A4A43F44053536060
:10183800094B01221A60094B01221A60FFF7E2FFE7
:10184800054B00221A60FFF7DDFF044B00221A60E7
:1018580000BF80BD000C0140AC812142A88121421B
:1018680080B500AF0E4B5B680D4A23F4704353609C
:101878000B4B5B680A4A43F440535360094B002200
:101888001A60094B00221A60FFF7BCFF054B0122C2
:101898001A60054B01221A60FFF7B4FF00BF80BD34
:1018A800000C0140A8812142AC81214280B582B060
:1018B80000AF0023FB71164B5B68154A23F4704395
:1018C8005360134B5B68124A43F400435360114B57
:1018D80001221A60FFF796FF0F4B01221A60FFF7EB
:1018E80091FF09E0FB790133FB71FB79FA2B03D9EE
:1018F800FFF7B6FF012307E0084B1B68002BF1D167
:10190800054B00221A60002318460837BD4680BDE3
:10191800000C0140AC812142A88121422C81214246
:1019280080B500AF0E4B00221A600E4B5B680D4A63
:1019380023F4704353600B4B5B680A4A43F44053EB
:101948005360094B00221A60FFF75CFF044B012229
:101958001A60FFF757FF024B00221A6000BF80BDD4
:10196800A8812142000C0140AC81214280B500AF22
:101978000E4B00221A600E4B5B680D4A23F470432D
:1019880053600B4B5B680A4A43F440535360094B5E
:1019980001221A60FFF736FF044B01221A60FFF795
:1019A80031FF024B00221A6000BF80BDA88121428E
:1019B800000C0140AC81214280B584B000AF0346E1
:1019C800FB71174B5B68164A23F470435360144B42
:1019D8005B68134A43F440535360124B00221A6069
:1019E8000023FB7314E0FB79DB09DAB20E4B1A60B3
:1019F800FB795B00FB710B4B01221A60FFF702FFBA
:101A0800084B00221A60FFF7FDFEFB7B0133FB73D6
:101A1800FB7B072BE7D900BF00BF1037BD4680BD51
:101A2800000C0140A8812142AC81214280B584B0DC
:101A380000AF0346FB710023BB731B4B5B681A4A5C
:101A480023F470435360184B5B68174A43F4004310
:101A580053600023FB7316E0144B00221A60FFF753
:101A6800D1FE124B01221A60BB7B5B00BB73104B8B
:101A78001B68002B02D0BB7B0133BB73FFF7C2FE90
:101A8800FB7B0133FB73FB7B072BE5D9FB79002B31
:101A980002D1FFF76BFF01E0FFF742FFBB7B18465F
:101AA8001037BD4680BD00BF000C0140A88121420F
:101AB8002C81214280B584B000AF0346FB71294BCD
:101AC80093F82430002B1CD0FB79002B02D0022382
:101AD800FB7301E00023FB73224B5B681878214BF2
:101AE8001B68D97B07F10F030122FFF7ABFD034603
:101AF800002B02D04FF0FF3330E0FA7B194B5A74B9
:101B08002BE0184B9B7A002B02D14FF0FF3325E0D6
:101B1800FB79002B05D0134B5B7C002B01D00023F5
:101B28001CE0FB79002B02D00123FB7301E00023AA
:101B3800FB730C4B5B6818780A4B1B68D97B07F161
:101B48000F030122FFF77EFD0346002B02D04FF062
:101B5800FF3303E0FA7B034B5A740023184610370F
:101B6800BD4680BD0000002080B582B000AF802354
:101B78003B70824B5B681878804B1B68997C3B46AE
:101B88000122FFF75FFD0346002B02D04FF0FF3321
:101B9800EFE0642003F072FA00233B70774B5B6838
:101BA8001878764B1B68997C3B460122FFF74AFD63
:101BB8000346002B02D04FF0FF33DAE06F4B5B682F
:101BC80018786E4B1B68997D3B460622FFF77CFD13
:101BD8000346002B02D04FF0FF33CAE07B799B000D
:101BE8005BB203F004035AB2FB785B005BB203F00C
:101BF80002035BB213435AB27B785BB203F0010372
:101C08005BB213435BB2FB71FB79002B15D0FB79F8
:101C1800012B03D1594B0122DA7438E0FB79022BEE
:101C280003D1564B0022DA7431E0FB791946544847
:101C380006F016F84FF0FF339BE0504B5B681878BE
:101C48004E4B1B68D9783B460122FFF73DFD034602
:101C5800002B02D04FF0FF338BE03B7803F00F03EB
:101C6800FB71FB79002B05D1464806F07FF84FF051
:101C7800FF337EE0FB79042B06D1434806F076F863
:101C88003E4B0122DA7402E03C4B0022DA743B4BF3
:101C9800FF229A72394BFF221A72384BFF225A726E
:101CA800364BFF22DA72354B4FF6FF72DA81334B2F
:101CB800FF221A74314BFF229A74304B01221A7397
:101CC8002E4B012283F822202C4B002283F823205C
:101CD8002A4B00225A75294B00221A750C22002122
:101CE8002A4805F043F9254B002283F82420234B8A
:101CF800002283F82520214B0022DA844FF4FA6071
:101D080000F0FAF90346002B02D04FF0FF3330E021
:101D1800022000F07FFA0346002B02D04FF0FF3379
:101D280027E02A2000F01AFB0346002B02D04FF0D0
:101D3800FF331EE0322000F077FB0346002B02D071
:101D48004FF0FF3315E0002000F05AFC0346002B4B
:101D580002D04FF0FF330CE0002000F0A7FD03464F
:101D6800002B02D04FF0FF3303E0002000F09AFC74
:101D7800002318460837BD4680BD00BF000000207C
:101D880084C30008ACC30008F8C30008160000208C
:101D980080B584B000AF0346FB71FB79282B02D9CC
:101DA8004FF0FF336AE0FB79002B1CD1002000F0D4
:101DB80043FE00233B7307237B73324B5B68187821
:101DC800304B1B68997C07F10C030222FFF73AFCA1
:101DD8000346002B02D04FF0FF334FE0294B00227F
:101DE8001A7500234AE0012000F026FE20233B73E9
:101DF800FB79012B05D100237B73052000F0AEFA97
:101E080016E0FB79052B05D801237B73052000F02C
:101E1800A5FA0DE0FB79142B05D802237B730A2061
:101E280000F09CFA04E003237B73142000F096FA78
:101E38007B7B9B015BB243F007035BB2DBB27B7336
:101E4800104B5B6818780F4B1B68997C07F10C03E3
:101E58000222FFF7F7FB0346002B02D04FF0FF33B7
:101E68000CE0084B08229A72064B00221A73054BA5
:101E780001221A75002000F0C3FB00231846103712
:101E8800BD4680BD0000002080B582B000AF7E4B0B
:101E98009B7A002B02D14FF0FF33F1E00023FB7156
:101EA800794B5B681878784B1B68D97BFB1D01223E
:101EB800FFF7C8FB0346002B02D04FF0FF33DFE0EB
:101EC800714B5B681878704B1B685979FB1D0122B0
:101ED800FFF7B8FB0346002B02D04FF0FF33CFE0EB
:101EE800694B5B681878684B1B681979FB1D0122E0
:101EF800FFF7A8FB0346002B02D04FF0FF33BFE0EB
:101F0800614B93F82430002B5CD00C23FB715E4BA3
:101F18005B6818785C4B1B681979FB1D0122FFF779
:101F280091FB0346002B02D04FF0FF33A8E032208C
:101F380003F0A4F8C023FB71534B9B7A03F0010311
:101F4800002B04D0FB7943F02003DBB2FB714E4B2E
:101F58005B6818784C4B1B681979FB1D0122FFF749
:101F680071FB0346002B02D04FF0FF3388E0464B4D
:101F78005B7C002B02D00223FB7101E00023FB7184
:101F8800414B5B681878404B1B68D97BFB1D0122CD
:101F9800FFF758FB0346002B02D04FF0FF336FE0EA
:101FA8000023FB71384B5B681878374B1B685979ED
:101FB800FB1D0122FFF746FB0346002B5FD04FF0C5
:101FC800FF335DE00423FB712F4B5B6818782E4BC1
:101FD8001B681979FB1D0122FFF734FB0346002B10
:101FE80002D04FF0FF334BE0274B9B7C002B05D1F1
:101FF800254B9B7A03F00103002B02D14023FB7190
:1020080001E06023FB71204B5B6818781E4B1B684E
:102018001979FB1D0122FFF715FB0346002B02D09F
:102028004FF0FF332CE0322003F028F8164B5B7C8E
:10203800002B02D00123FB7101E00023FB71124B3E
:102048005B681878104B1B68D97BFB1D0122FFF7D2
:10205800F9FA0346002B02D04FF0FF3310E00A4B89
:102068005B681878084B1B685979084B0122FFF701
:10207800E9FA0346002B02D04FF0FF3300E00023BB
:1020880018460837BD4680BD00000020100000201B
:1020980080B483B000AF7860164B1B7A032B1ED830
:1020A80001A252F823F000BFC1200008C92000088F
:1020B800D3200008DD2000087B68FA221A8012E08D
:1020C8007B684FF4FA721A800DE07B684FF47A72DD
:1020D8001A8008E07B684FF4FA621A8003E07B6894
:1020E80000221A8000BF002318460C37BD4680BC6A
:1020F800704700BF0000002080B584B000AF0346E1
:10210800FB80264B9B7A002B02D14FF0FF3341E036
:10211800FB88B3F5FA6F17D0B3F5FA6F17DCB3F590
:102128007A7F0ED0B3F57A7F11DCFA2B03D0B3F5A2
:10213800FA7F03D00BE00023FB730BE00823FB734B
:1021480008E01023FB7305E01823FB7302E04FF04F
:10215800FF331FE0114B1A7AFB7BDB08DBB29A4294
:1021680001D1002316E00D4B5B6818780B4B1B68F8
:10217800997907F10F030122FFF764FA0346002B50
:1021880002D04FF0FF3305E0FB7BDB08DAB2034BEC
:102198001A72002318461037BD4680BD0000002083
:1021A80080B483B000AF7860194B5B7A032B1BD8DF
:1021B80001A252F823F000BFD1210008D92100085C
:1021C800E1210008E92100087B6802221A700EE06C
:1021D8007B6804221A700AE07B6808221A7006E0FD
:1021E8007B6810221A7002E04FF0FF330AE0084BB8
:1021F800DB7C002B05D07B681B785B00DAB27B6840
:102208001A70002318460C37BD4680BC704700BFC3
:102218000000002080B584B000AF0346FB71304B4E
:102228009B7A002B02D14FF0FF3354E0FB79023B3D
:102238000E2B2DD801A252F823F000BF81220008EE
:10224800992200088722000899220008992200088C
:10225800992200088D220008992200089922000876
:10226800992200089922000899220008992200085A
:1022780099220008932200080023FB730BE008232F
:10228800FB7308E01023FB7305E01823FB7302E0DF
:102298004FF0FF331FE0124B5A7AFB7BDB08DBB2AF
:1022A8009A4201D1002316E00D4B5B6818780C4B5D
:1022B8001B68D97907F10F030122FFF7C3F9034619
:1022C800002B02D04FF0FF3305E0FB7BDB08DAB2CE
:1022D800034B5A72002318461037BD4680BD00BF15
:1022E8000000002080B483B000AF78601A4BDB7A1E
:1022F800013B052B26D801A252F823F01D23000824
:10230800252300082D230008352300083D23000855
:10231800452300087B68BC221A8017E07B6862228C
:102328001A8013E07B682A221A800FE07B68142247
:102338001A800BE07B680A221A8007E07B68052276
:102348001A8003E07B6800221A8000BF0023184629
:102358000C37BD4680BC70470000002080B584B0B3
:1023680000AF0346FB80234B9B7A002B02D14FF032
:10237800FF333BE0FB88BB2B02D90123FB7319E039
:10238800FB88612B02D90223FB7313E0FB88292BFE
:1023980002D90323FB730DE0FB88132B02D9042316
:1023A800FB7307E0FB88092B02D90523FB7301E0C7
:1023B8000623FB730F4BDA7AFB7B9A4201D1002389
:1023C80014E00C4B5B6818780A4B1B68997807F186
:1023D8000F030122FFF736F90346002B02D04FF016
:1023E800FF3303E0FA7B034BDA72002318461037F9
:1023F800BD4680BD0000002080B483B000AF786087
:10240800084B93F82430002B02D04FF0FF3304E040
:10241800044BDA897B681A80002318460C37BD46BE
:1024280080BC70470000002080B584B000AF034630
:10243800FB802F4B9B7A002B02D14FF0FF3353E0E8
:102448002B4B93F82430002B02D04FF0FF334BE096
:10245800274B1B7D002B0FD0FB88002B09D0FB8856
:10246800282B06D8FB88DBB21846FFF791FC00231F
:102478003AE00020FFF78CFCFB88032B02D80423EA
:10248800FB8006E0FB88B3F57A7F02D94FF47A73B4
:10249800FB80FB884FF47A7292FBF3F3DBB2013BCB
:1024A800DBB2FB73124B5B681878114B1B685978C9
:1024B80007F10F030122FFF7C5F80346002B02D0EE
:1024C8004FF0FF3310E0FB7B01334FF47A7292FB3D
:1024D800F3F39AB2064BDA81054BDB895B089BB2B2
:1024E8001846FFF73BFF002318461037BD4680BD4E
:1024F8000000002080B483B000AF7860144B1B7AD2
:10250800032B1BD801A252F823F000BF2525000891
:102518002D250008352500083D2500087B680D4A53
:102528001A600EE07B680C4A1A600AE07B680B4A66
:102538001A6006E07B680A4A1A6002E04FF0FF332F
:1025480000E0002318460C37BD4680BC704700BF2A
:10255800000000200000034300008342333303429D
:102568003333834180B483B000AF78601B4B5B7A10
:10257800032B1FD801A252F823F000BF95250008AD
:102588009F250008A9250008B32500087B684FF49B
:1025980080421A8011E07B6841F69C721A800CE038
:1025A8007B684FF480521A8007E07B684FF4006222
:1025B8001A8002E04FF0FF330AE0084BDB7C002B67
:1025C80005D07B681B885B089AB27B681A80002359
:1025D80018460C37BD4680BC704700BF000000207D
:1025E80080B483B000AF7860044B1A7C7B681A70A3
:1025F800002318460C37BD4680BC704700000020F9
:1026080080B584B000AF0346FB710023FB60FB7903
:1026180023F00103FB71224B93F82430002B01D0E7
:10262800002338E01E4B9B7A002B02D14FF0FF337A
:1026380031E01B4B1B7CFB72194B9A7AFB791340D8
:10264800DAB2174B1A74164B1B7CFA799A4203D0EC
:102658004FF0FF33FB6001E00023FB60FB79002BA8
:1026680003D10F4B1B7D002B03D00120FFF722FA6B
:1026780002E00020FFF71EFAFB79002B0AD0FFF7D3
:1026880003FC0346002B05D0054AFB7A13744FF070
:10269800FF3300E0FB6818461037BD4680BD00BF19
:1026A8000000002080B584B000AF0346FB71FB79C1
:1026B80003F07003002B02D00123FB7307E0FB79C2
:1026C800002B02D00023FB7301E04023FB73374B40
:1026D8005B681878354B1B68997C07F10F0301225A
:1026E800FEF7B0FF0346002B05D0304B00229A724C
:1026F8004FF0FF3356E0FB7B23F04003DAB22B4B5D
:102708001A730023FB73FB7903F04003002B04D1F9
:10271800FB7B43F00403DBB2FB73FB7903F020037C
:10272800002B04D1FB7B43F00203DBB2FB73FB7984
:1027380003F01003002B04D1FB7B43F00103DBB251
:10274800FB73FB7903F00803002B04D1FB7B43F0F8
:102758003803DBB2FB73154B5B681878134B1B68A7
:10276800D97C07F10F030122FEF76CFF0346002B0B
:1027780005D00E4B00229A724FF0FF3312E0FB791E
:10278800002B05D0FB79082B02D0002000F054F96B
:10279800064AFB799372054B00221A75322002F023
:1027A8006DFC002318461037BD4680BD0000002090
:1027B80080B586B000AF0346B9607A60FB813A4BBA
:1027C80093F82430002B02D14FF0FF3368E0364BEA
:1027D8009B7A002B02D14FF0FF3361E0324B5B68EC
:1027E8001878314B1B68997A07F114030222FEF717
:1027F8006BFF0346002B02D04FF0FF3350E03B7DC8
:102808001B021AB27B7D1BB213431BB2FB82FA8AEE
:10281800FB899A4205D27B6800221A704FF0FF3379
:102828003EE0214B5B685B885B089BB2FA8A9A4260
:102838001AD91D4B5B6818781B4B1B68597C07F12C
:1028480014030122FEF740FF0346002B02D04FF08D
:10285800FF3325E03B7D03F01003002B04D0FFF786
:1028680013FB6FF001031BE00F4B5B6818780E4BEE
:102878001B68D97AFB89DAB2BB68FEF725FF0346E5
:10288800002B02D04FF0FF330AE0FA8AFB89B2FB33
:10289800F3F39BB2DBB2013BDAB27B681A70002318
:1028A80018461837BD4680BD0000002080B584B0AA
:1028B80000AF0346FB715F4B9B7CFA799A4201D1CA
:1028C8000023B2E0FB79002B50D05A4B5B68187894
:1028D800584B1B68197907F10F030122FEF7F4FE24
:1028E8000346002B02D04FF0FF339EE0FB7B23F022
:1028F8002003DBB2FB734F4B5B6818784D4B1B68AA
:10290800197907F10F030122FEF79CFE0346002BFD
:1029180002D04FF0FF3388E0032002F0AFFB022320
:10292800FB73444B93F82230002B04D0FB7B63F0FD
:102938007F03DBB2FB733F4B93F82330002B04D0AB
:10294800FB7B43F03003DBB2FB733A4B5B681878D0
:10295800384B1B68197D07F10F030122FEF772FE41
:102968000346002B5DD04FF0FF335EE0314B5B68D0
:102978001878304B1B68197907F10F030122FEF70D
:10298800A3FE0346002B02D04FF0FF334DE0294B46
:102998009B7A03F00103002B05D0FB7B43F0200357
:1029A800DBB2FB7304E0FB7B23F02003DBB2FB7399
:1029B800204B5B6818781F4B1B68197907F10F03C8
:1029C8000122FEF73FFE0346002B02D04FF0FF33F3
:1029D8002BE0032002F052FB164B93F82230002B19
:1029E80002D08023FB7301E00023FB73114B93F8A3
:1029F8002330002B04D0FB7B43F03003DBB2FB73A6
:102A08000C4B5B6818780B4B1B68197D07F10F039B
:102A18000122FEF717FE0346002B02D04FF0FF33CA
:102A280003E0044AFB799374002318461037BD4627
:102A380080BD00BF0000002080B584B000AF034611
:102A4800FB711E4B93F82330FA799A4201D1002387
:102A580030E0FB79002B02D03023FB7301E0002328
:102A6800FB73164B9B7C002B04D0FB7B43F00203CB
:102A7800DBB2FB73114B93F82230002B04D0FB7BA5
:102A880063F07F03DBB2FB730C4B5B6818780B4B6E
:102A98001B68197D07F10F030122FEF7D3FD0346DA
:102AA800002B02D04FF0FF3304E0044AFB7982F890
:102AB8002330002318461037BD4680BD0000002093
:102AC80090B587B000AF7860414B5B68187807F124
:102AD800100304220D21FEF7F7FD0346002B01D059
:102AE800072371E03B7CDB105BB203F01C035AB296
:102AF800FB7C1B115BB203F003035BB213435BB2B5
:102B0800DBB23B737B7CDB105BB203F01C035AB275
:102B1800FB7C9B105BB203F003035BB213435BB215
:102B2800DBB27B73BB7CDB105BB203F01C035AB2D5
:102B3800FB7C5BB203F003035BB213435BB2DBB213
:102B4800BB730023FB753BE0FB7D07F118021344C0
:102B580013F80C3C002B07D1FB7D9B007A681344CB
:102B68004FF000021A6028E0FB7D9B007A6813444E
:102B7800184A1A600DE0FB7D9B007A6813441868B8
:102B8800FB7D9B007A68D4181349FEF763F9034666
:102B98002360FB7D07F118021A4412F80C2C013A45
:102BA800D1B207F118021A4402F80C1C07F11802F6
:102BB800134413F80C3C002BDDD1FB7D0133FB756E
:102BC800FB7D022BC0D9002318461C37BD4690BD9B
:102BD800000000207B14AE3E1D5A843F80B58AB0A9
:102BE80000AF7860396000233B6207F10C03184698
:102BF800FFF766FF00237B6267E07B6A9B007A68C9
:102C080013441A687B6A9B0039680B441B68D31A03
:102C1800002BB8BF5B421846FEF7C8F803464FF0D2
:102C28008F411846FEF7CAF90346FB617B6A9B0091
:102C380007F12802134453F81C3C4FF000011846D2
:102C4800FEF79CFA0346002B25D17B6A9B0007F10F
:102C58002802134453F81C3C1946F869FEF7AEF9EC
:102C680003464FF07E511846FDF7EAFF0346BB6165
:102C7800BB6923F00043194A11461846FEF7A6FA25
:102C88000346002B1ED001227B6A02FA03F33A6A3C
:102C980013433B6216E0124B1946F869FEF778FABF
:102CA8000346002B07D10F4B1946F869FEF78EFA39
:102CB8000346002B06D001227B6A02FA03F33A6A24
:102CC80013433B627B6A01337B627B6A022B94DD90
:102CD8003B6A18462837BD4680BD00BF295C0F3EB9
:102CE8009A99993E3333733F80B588B000AF7860C6
:102CF80039600023BB61544B5B68187807F10803FF
:102D080003220D21FEF7E0FC0346002B01D0072328
:102D180095E03B7A03F01F03DBB23B727B7A03F04A
:102D28001F03DBB27B72BB7A03F01F03DBB2BB72FB
:102D38000023FB617EE0FB699B007A6813441A68F4
:102D4800FB699B0039680B441B68D31A002BB8BF7A
:102D58005B421846FEF72AF803464FF08F411846A3
:102D6800FEF72CF903463B6107F10802FB6913449F
:102D78001B78002B44D083231846FEF713F803462C
:102D880019463248FEF71AF903467B6105E03049D7
:102D98007869FEF75FF803467B6107F10802FB6973
:102DA80013441B78013BD9B207F10802FB691344AD
:102DB8000A461A7007F10802FB6913441B78002BB6
:102DC800E5D179693869FEF7F9F803464FF07E5185
:102DD8001846FDF735FF0346FB60FB6823F0004308
:102DE8001C4A11461846FEF7F1F90346002B1ED07F
:102DF8000122FB6902FA03F3BA691343BB6116E0C7
:102E0800154B19463869FEF7C3F90346002B07D15D
:102E1800124B19463869FEF7D9F90346002B06D03C
:102E28000122FB6902FA03F3BA691343BB61FB6928
:102E38000133FB61FB69022B7FF77DAFBB69184645
:102E48002037BD4680BD00BF0000002000B04C45C3
:102E580054E3853F295C0F3E000020410000D24228
:102E68002DE9B04F94B000AF786239621346FB7712
:102E7800012387F83C30002387F83D30A34B5B687B
:102E88001878A24B1B68997C07F13C030222FEF7D5
:102E9800D9FB0346002B02D04FF0FF33E4E2C820F1
:102EA80002F0ECF8002387F83C30984B5B68187800
:102EB800964B1B68D97B07F13C030122FEF7C2FB46
:102EC8000346002B02D04FF0FF33CDE28F4B5B68F7
:102ED80018788E4B1B68597907F13C030122FEF7DD
:102EE800B1FB0346002B02D04FF0FF33BCE2874B07
:102EF8005B681878854B1B68997C07F13C030122B5
:102F0800FEF7A0FB0346002B02D04FF0FF33ABE2E5
:102F18007E4B5B6818787D4B1B68D97D07F13C03B5
:102F28000122FEF78FFB0346002B02D04FF0FF3340
:102F38009AE2764B5B681878744B1B68197907F12D
:102F48003C030122FEF77EFB0346002B02D04FF024
:102F5800FF3389E20C2387F83C306C4B5B681878A8
:102F68006A4B1B68197907F13C030122FEF76AFBDB
:102F78000346002B02D04FF0FF3375E20F2002F01A
:102F88007DF8624B9B6A5B7A87F83C305F4B5B68E5
:102F980018785E4B1B68997807F13C030122FEF70D
:102FA80051FB0346002B02D04FF0FF335CE2574B36
:102FB8009B6A1B7A87F83C30544B5B681878534BF4
:102FC8001B68597807F13C030122FEF73BFB0346D7
:102FD800002B02D04FF0FF3346E2FB7F002B08D0D6
:102FE8004A4B9B6A9B7A63F01F03DBB287F83C303D
:102FF80004E0464B9B6A9B7A87F83C30434B5B68FE
:103008001878424B1B68997907F13C030122FEF7B7
:1030180019FB0346002B02D04FF0FF3324E2FB7F5D
:10302800002B08D0394B9B6ADB7A63F01F03DBB2B5
:1030380087F83C3002E0182387F83C30334B5B6854
:103048001878324B1B68D97907F13C030122FEF747
:10305800F9FA0346002B02D04FF0FF3304E2FB7F5E
:10306800002B02D0C82002F009F8402387F83C3032
:10307800264B5B681878254B1B68197907F13C03C8
:103088000122FEF7DFFA0346002B02D04FF0FF3390
:10309800EAE1782387F83C301C4B5B6818781B4BB7
:1030A8001B68597907F13C030122FEF7CBFA034666
:1030B800002B02D04FF0FF33D6E13223184601F03F
:1030C800DDFF002387F83C30104B5B6818780F4B06
:1030D8001B68597907F13C030122FEF7B3FA03464E
:1030E800002B02D04FF0FF33BEE1084B5B68187825
:1030F800064B1B68997A07F13C030222FEF7E4FAB3
:103108000346002B04D04FF0FF33ADE10000002050
:1031180097F83C301B021AB297F83D301BB21343A4
:103128001BB2A7F84C30B7F84C301A4AA2FB03235D
:10313800DB089BB287F84B307B6A03F10801002358
:103148000B607B6A1A1D0B68136012687B6A1A6031
:103158003B6A03F1080100230B603B6A1A1D0B68E8
:10316800136012683B6A1A60002387F84F308EE0BC
:10317800094B5B681878084B1B68D97A07F13C0340
:103188000C22FEF7A1FA0346002B07D04FF0FF33BD
:103198006AE100BFABAAAAAA0000002097F83C3059
:1031A8001B021AB297F83D301BB213431BB2BB8601
:1031B80097F83E301B021AB297F83F301BB2134300
:1031C8001BB2FB8697F840301B021AB297F84130C1
:1031D8001BB213431BB23B873B6A1A68B7F93430FA
:1031E8001A443B6A1A603B6A04331968B7F93630E7
:1031F80018463B6A1A1D0B1813603B6A0833196896
:10320800B7F9383018463B6A03F108020B18136007
:1032180097F842301B021AB297F843301BB2134397
:103228001BB2BB8597F844301B021AB297F8453099
:103238001BB213431BB2FB8597F846301B021AB228
:1032480097F847301BB213431BB23B867B6A1A6858
:10325800B7F92C301A447B6A1A607B6A0433196800
:10326800B7F92E3018467B6A1A1D0B1813607B6A53
:1032780008331968B7F9303018467B6A03F1080239
:103288000B18136097F84F30013387F84F3097F8D1
:103298004F2097F84B309A42FFF46AAF7B6A1B685D
:1032A8001A464FEAE2731514140483231A464FF0A2
:1032B800000320462946FDF7D9FF02460B46104673
:1032C800194697F84B204FF00003FDF7CFFF024651
:1032D8000B467B6A1A607B6A04331B681A464FEAFE
:1032E800E2734FEA22494FEA024883231A464FF015
:1032F800000340464946FDF7B9FF02460B46104613
:10330800194697F84B204FF00003FDF7AFFF024630
:103318000B46104619467B6A043302461A607B6ADC
:1033280008331B681A464FEAE273111479611304D3
:103338003B6183231A464FF00003D7E90401FDF7E8
:1033480095FF02460B461046194697F84B204FF05A
:103358000003FDF78BFF02460B46104619467B6AB1
:10336800083302461A603B6A1B681A464FEAE27342
:103378001114F9601304BB604FF400631A464FF050
:103388000003D7E90201FDF771FF02460B4610461C
:10339800194697F84B204FF00003FDF767FF0246E8
:1033A8000B463B6A1A603B6A04331B681A464FEAAD
:1033B800E2731114796013043B604FF400631A46FA
:1033C8004FF00003D7E90001FDF750FF02460B4616
:1033D8001046194697F84B204FF00003FDF746FFBB
:1033E80002460B46104619463B6A043302461A60E9
:1033F8003B6A08331B681A464FEAE2734FEA224BCE
:103408004FEA024A4FF400631A464FF00003504651
:103418005946FDF72BFF02460B461046194697F80A
:103428004B204FF00003FDF721FF02460B461046E4
:1034380019463B6A083302461A603B6A08331B6820
:10344800002B08DD3B6A08331A683B6A0833A2F58B
:1034580080321A6007E03B6A08331A683B6A08330F
:1034680002F580321A60002318465037BD46BDE881
:10347800B08F00BF80B58EB000AF7860396002238E
:1034880087F82E30644B93F82430002B06D00020A8
:1034980000F0E6F9012387F82F3002E0002387F8CF
:1034A8002F3007F10C031846FEF7F2FD07F10F0362
:1034B8001846FEF775FE07F108031846FEF712FFD7
:1034C80007F10A031846FEF797FF534B9B7A87F8D4
:1034D8002D3007F10E031846FFF782F800237B63AF
:1034E8000AE0002239687868FFF7BAFC0346002B27
:1034F80008D07B6B01337B6397F82E307A6B9A4246
:10350800EFDB00E000BF97F82E307A6B9A4202D1C9
:1035180000233B6345E000237B630DE007F11001C6
:1035280007F11C0301221846FFF79AFC0346002BFB
:1035380008D07B6B01337B6397F82E307A6B9A4205
:10354800ECDB00E000BF97F82E307A6B9A4202D18C
:1035580000233B6325E007F1100319463868FFF79D
:103568003DFB034687F82C3007F11C0319467868A1
:10357800FFF7BAFB034687F82B3000233B6397F825
:103588002B30002B03D13B6B43F001033B6397F8CF
:103598002C30002B04D13B6B43F002033B6300E06B
:1035A80000BF1D4BFF221A721B4BFF225A721A4B87
:1035B800FF22DA72184B4FF6FF72DA81164BFF22A0
:1035C8009A72154BFF221A74134B01221A73BB8986
:1035D8001846FEF791FDFB7B1846FEF71BFE3B895C
:1035E8001846FEF7BBFE7B891846FEF71DFF97F8C5
:1035F8002D301846FFF756F8BB7B1846FFF700F842
:1036080097F82F30002B02D0012000F029F93B6BEE
:1036180018463837BD4680BD0000002080B584B00C
:1036280000AF03463A60FB800B46BB803B68002B2B
:1036380002D14FF0FF333DE0204B9B7A002B02D1A3
:103648004FF0FF3336E0FB881B0A9BB2DBB23B73BB
:10365800FB88DBB27B737B7B1A46BB881344174A13
:1036680052685289934202DD4FF0FF3322E0134B38
:103678005B681878114B1B68197E07F10C0302224E
:10368800FDF7E0FF0346002B02D04FF0FF3311E0B7
:103698000A4B5B681878094B1B68597DBB88DAB2FE
:1036A8003B68FDF7CFFF0346002B02D04FF0FF33F6
:1036B80000E0002318461037BD4680BD00000020FA
:1036C80080B584B000AF03463A60FB800B46BB80F0
:1036D8003B68002B02D14FF0FF333DE0204B9B7A33
:1036E800002B02D14FF0FF3336E0FB881B0A9BB258
:1036F800DBB23B73FB88DBB27B737B7B1A46BB88F0
:103708001344174A52685289934202DD4FF0FF333F
:1037180022E0134B5B681878114B1B68197E07F180
:103728000C030222FDF78EFF0346002B02D04FF058
:10373800FF3311E00A4B5B681878094B1B68597D09
:10374800BB88DAB23B68FDF7BFFF0346002B02D007
:103758004FF0FF3300E0002318461037BD4680BD08
:103768000000002080B58AB000AFB96011461A4643
:103778000346FB810B46BB811346FB80374B93F80E
:103788002530002B02D04FF0FF3362E0BB68002BDE
:1037980002D14FF0FF335CE00023FB8434E0FA8968
:1037A800FB8CD31A102BA8BF1023BB84FB8CBA68E0
:1037B8001A44B98CFB8C1846FFF730FF0346002BE0
:1037C80002D04FF0FF3344E007F11402B98CFB8CB0
:1037D8001846FFF775FF0346002B02D04FF0FF3362
:1037E80037E0FB8CBA681344BA8C07F11401184609
:1037F80003F0AEFB0346002B02D06FF0010328E074
:10380800FA8CBB8C1344FB84FA8CFB899A42C6D38E
:10381800BB891B0A9BB2DBB23B74BB89DBB27B74EE
:103828000E4B5B6818780D4B1B68997E07F11003E7
:103838000222FDF707FF0346002B02D04FF0FF33AB
:1038480007E0064B012283F82520044AFB88D3842D
:10385800002318462837BD4680BD00BF0000002061
:1038680080B584B000AF0346FB71264B93F8243033
:10387800FA799A4201D1002340E0FB79002B27D046
:10388800204B93F82530002B02D14FF0FF3335E061
:103898000020FEF70FF90020FFF708F8194BDB8C22
:1038A8001846FEF7C1FD0023FB73164B5B681878BA
:1038B80007F10F0301222321FDF7C4FE114B01225A
:1038C80083F824200120FEF7F5F8FEF7DDFA14E06E
:1038D8000020FEF7EFF80B4B1B7CFB73094B5B6872
:1038E800187807F10F0301222321FDF7ABFE054BE2
:1038F800002283F82420FEF7C7FA00231846103761
:10390800BD4680BD0000002080B58AB000AF07F139
:103918000C0207F1180311461846FFF7ABFD786251
:103928007B6A032B53D107F108031846FEF7E2FD23
:10393800BB691846FDF73AFA0246BB6819461046B5
:10394800FDF788FA03461846FDF74AFC0346BB61B3
:10395800FB691846FDF72AFA0246BB681946104665
:10396800FDF778FA03461846FDF73AFC0346FB6173
:103978003B6A1846FDF71AFA0246BB681946104614
:10398800FDF768FA03461846FDF72AFC03463B6232
:1039980007F11803184600F055FBBB1D1846FEF743
:1039A800E1FDFB68FA8802FB03F3FB603B69FA88D8
:1039B80002FB03F33B617B69FA8802FB03F37B613B
:1039C80007F10C03184600F023FC002300E0012354
:1039D80018462837BD4680BD80B584B000AF7860F2
:1039E800786800F021F80346FB817B6803331846AA
:1039F80000F01AF80346DB001AB2B7F90E30134389
:103A08001BB2FB817B680633184600F00DF80346AD
:103A18009B011AB2B7F90E3013431BB2FB81FB8925
:103A280018461037BD4680BD80B485B000AF7860B9
:103A38007B6893F90030002B02DD0023FB812DE029
:103A48007B6893F90030002B02DA0423FB8125E020
:103A58007B68013393F90030002B02DD0123FB81E1
:103A68001CE07B68013393F90030002B02DA052350
:103A7800FB8113E07B68023393F90030002B02DDF1
:103A88000223FB810AE07B68023393F90030002BA4
:103A980002DA0623FB8101E00723FB81FB89184634
:103AA8001437BD4680BC704780B483B000AF7860DF
:103AB80000BF0C37BD4680BC7047000080B582B09F
:103AC80000AF0023FB71FEF74FF80346002B5CD1D3
:103AD8007820FEF7E7FD0346FB71FB79002B01D048
:103AE800012355E07820FEF78BFD0346FB71FB7937
:103AF800002B01D002234BE06420FEF795FC03461F
:103B0800FB71FB79002B01D0032341E000F098F909
:103B18000346FB71FB79002B01D0042338E01E48D3
:103B2800FFF75AFF0346184600F09AF90346FB715F
:103B3800FB79002B01D005232AE040F2731000F036
:103B4800C1FE0346FB71FB79002B01D006231FE061
:103B5800642000F039FC0346FB71FB79002B01D08F
:103B6800072315E0FFF7D0FE0346FB71FB79002B16
:103B780001D008230CE00120FFF772FE0346FB7119
:103B8800FB79002B03D0092302E00A2300E000237D
:103B980018460837BD4680BD2C00002000000000F4
:103BA800F0B595B002AFF860B9607A604FF07E5317
:103BB8007B644FF000033B644FF00003FB634FF05E
:103BC8000003BB6307F1340407F1100207F1240175
:103BD80007F12C0007F12103019307F12203009359
:103BE800234601F059F80346002B01D001231EE1BA
:103BF800B7F922309BB203F48073002B00F01681D2
:103C08003B691846FDF7D2F803464FF09D41184628
:103C1800FDF7D4F903467B647B691846FDF7C6F8BF
:103C280003464FF09D411846FDF7C8F903463B642B
:103C3800BB691846FDF7BAF803464FF09D41184690
:103C4800FDF7BCF90346FB63FB691846FDF7AEF8C0
:103C580003464FF09D411846FDF7B0F90346BB6394
:103C68004FF04041386CFDF7F5F80346B96B18463C
:103C7800FDF7F0F803461C467B6C19461846FCF71E
:103C8800E1FF0346F96B1846FDF7E4F803461946C9
:103C98002046FCF7D7FF03461846FCF72DFC0246E2
:103CA8000B461046194607F0FDFD63A3D3E9002330
:103CB800FCF77AFC02460B4610461946FCF76CFFE7
:103CC8000246FB681A60FB6B19461846FCF7BAFFF8
:103CD8000346B96B1846FDF7BDF803461C467B6CD6
:103CE80019461846FCF7AEFF0346396C1846FDF72F
:103CF800B1F8034619462046FCF7A4FF03461846C8
:103D0800FCF7FAFB04460D464FF04041386CFDF7CE
:103D1800A1F80346396C1846FDF79CF803461E4681
:103D2800FB6B19461846FCF78DFF0346F96B1846DE
:103D3800FDF790F8034619463046FCF781FF034625
:103D48004FF07E511846FCF77DFF03461846FCF7F6
:103D5800D3FB02460B462046294607F0D1FD36A381
:103D6800D3E90023FCF720FC02460B46104619460F
:103D7800FCF712FF0246BB681A60F96B386CFDF756
:103D880069F803461C46B96B786CFDF763F803467F
:103D980019462046FCF756FF034619461846FCF715
:103DA80051FF03461846FCF7A7FB04460D46796CFD
:103DB800786CFDF74FF803461E46396C386CFDF7F2
:103DC80049F8034619463046FCF73CFF03461E46B1
:103DD800F96BF86BFDF73EF8034619463046FCF7D9
:103DE8002FFF03461E46B96BB86BFDF733F8034641
:103DF80019463046FCF724FF03461846FCF77CFBBF
:103E080002460B462046294607F07AFD0AA3D3E965
:103E18000023FCF7C9FB02460B4610461946FCF77F
:103E2800BBFE02467B681A60002300E002231846A6
:103E38004C37BD46F0BD00BF6666666666A64C4058
:103E480080B500AF4FF48062C823044940F6F630CD
:103E5800FFF788FC0346184680BD00BFA0C50008D0
:103E680080B588B000AF0346FB80714A07F11403A0
:103E78001268114619800233120C1A706D4A07F144
:103E880010031268114619800233120C1A706A4A1C
:103E980007F10C031268114619800233120C1A70CC
:103EA800664A07F108031268114619800233120C9A
:103EB8001A70FB8803F0030307F12002134413F878
:103EC8000C3C3B77FB88DB089BB203F0030307F14C
:103ED8002002134413F80C3C7B77FB889B099BB2A8
:103EE80003F0030307F12002134413F80C3CBB77DB
:103EF800FB8803F0030307F12002134413F8103C76
:103F08003B76FB88DB089BB203F0030307F1200232
:103F1800134413F8103C7B76FB889B099BB203F093
:103F2800030307F12002134413F8103CBB7607F192
:103F38001C031A46032140F22640FFF76FFB034695
:103F4800002B02D04FF0FF336EE007F118031A463A
:103F5800032140F22A40FFF761FB0346002B02D001
:103F68004FF0FF3360E007F11C0307F10C02126801
:103F7800114619800233120C1A7007F1180307F161
:103F880008021268114619800233120C1A70FB8855
:103F980003F00403002B09D03B7F43F00103DBB29D
:103FA8003B773B7E43F00103DBB23B76FB8803F0B3
:103FB8002003002B09D07B7F43F00103DBB27B7722
:103FC8007B7E43F00103DBB27B76FB8803F48073CE
:103FD800002B09D0BB7F43F00103DBB2BB77BB7E6C
:103FE80043F00103DBB2BB7607F11C031A46032139
:103FF8004FF48860FFF712FB0346002B02D04FF006
:10400800FF3311E007F118031A46032140F231404B
:10401800FFF704FB0346002B02D04FF0FF3303E009
:10402800074AFB881381002318462037BD4680BD08
:1040380018C400081CC4000820C4000824C40008D0
:104048003802002080B586B000AF78606E4B1B89BF
:1040580003F003039B007A6813441B68FB606A4BF8
:104068001B8903F00403002B02D0FB685B42FB6052
:10407800654B1B89DB089BB203F003039B007A683E
:1040880013441B683B61604B1B8903F02003002B22
:1040980002D03B695B423B615B4B1B899B099BB22E
:1040A80003F003039B007A6813441B687B61564B3B
:1040B8001B8903F48073002B02D07B695B427B6110
:1040C800FB681A464FEAE273504901FB03F00021EE
:1040D80001FB02F101444D48A2FB002319440B46A1
:1040E8004FF000004FF00001900F40EA830099174D
:1040F8000346FB603B691A464FEAE273434901FBFA
:1041080003F0002101FB02F101444048A2FB002317
:1041180019440B464FF000004FF00001900F40EAA1
:104128008300991703463B617B691A464FEAE2739D
:10413800364901FB03F0002101FB02F10144334839
:10414800A2FB002319440B464FF000004FF000017A
:10415800900F40EA8300991703467B61FB681B16A2
:10416800DBB23B72FB681B14DBB27B72FB681B1271
:10417800DBB2BB72FB68DBB2FB7207F108031A46BD
:1041880004214FF47470FFF749FA0346002B02D05C
:104198004FF0FF3334E03B691B16DBB23B723B69DF
:1041A8001B14DBB27B723B691B12DBB2BB723B692F
:1041B800DBB2FB7207F108031A4604214FF475704D
:1041C800FFF72CFA0346002B02D04FF0FF3317E01D
:1041D8007B691B16DBB23B727B691B14DBB27B72FB
:1041E8007B691B12DBB2BB727B69DBB2FB7207F126
:1041F80008031A4604214FF47670FFF70FFA0346B6
:1042080018461837BD4680BD3802002009E3CA02A7
:1042180080B58CB000AF786007F10E031846FEF742
:10422800A1F9FB8998B24FF000014FF000024FF05E
:104238000003CB0343EA5043C203C7E90A23614B97
:104248001B8903F003039B007A6813441B68FB6116
:104258005C4B1B8903F00403002B02D0FB695B4213
:10426800FB61584B1B89DB089BB203F003039B00DF
:104278007A6813441B683B62524B1B8903F0200386
:10428800002B02D03B6A5B423B624E4B1B899B0969
:104298009BB203F003039B007A6813441B687B629C
:1042A800484B1B8903F48073002B02D07B6A5B4266
:1042B8007B62FB691A464FEAE273B96A03FB01F0B5
:1042C800F96A02FB01F10144B86AA0FB0223194410
:1042D8000B464FF000004FF00001900F40EA8300BA
:1042E80099170346FB613B6A1A464FEAE273B96ABB
:1042F80003FB01F0F96A02FB01F10144B86AA0FB73
:10430800022319440B464FF000004FF00001900FB4
:1043180040EA8300991703463B627B6A1A464FEAD4
:10432800E273B96A03FB01F0F96A02FB01F1014487
:10433800B86AA0FB022319440B464FF000004FF067
:104348000001900F40EA8300991703467B62FB69DE
:104358001B16DBB23B74FB691B14DBB27B74FB6975
:104368001B12DBB2BB74FB69DBB2FB743B6A1B1626
:10437800DBB23B753B6A1B14DBB27B753B6A1B12D5
:10438800DBB2BB753B6ADBB2FB757B6A1B16DBB223
:104398003B767B6A1B14DBB27B767B6A1B12DBB233
:1043A800BB767B6ADBB2FB7607F110031A460C2159
:1043B8004FF42570FFF732F9034618463037BD46EB
:1043C80080BD00BF3802002080B588B000AF03462A
:1043D800FB801F4A07F1100307CA83E80700FB8820
:1043E800C82B02D94FF0FF332EE0FB88C82292FB7E
:1043F800F3F39BB2013BFB83FB8B1B0A9BB2DBB243
:104408003B72FB8BDBB27B7207F108031A46022171
:1044180040F21620FFF702F90346002B02D04FF0B6
:10442800FF3311E007F110031A460C2140F6C120B2
:10443800FFF7F4F80346002B02D04FF0FF3303E0F8
:10444800044AFB889381002318462037BD4680BD67
:1044580028C400083802002080B586B000AF0346A3
:104468000A46FB711346BB80FB7903F00703002B58
:1044780003D0BB88B3F5C86F02D94FF0FF3307E10B
:10448800BB881846FCF78EFC034683491846FCF7A0
:1044980095FD03463B6107F10B031846FDF780FEC7
:1044A800FB7A023B0E2B79D801A252F823F000BF09
:1044B800F5440008A545000821450008A545000861
:1044C800A5450008A54500084D450008A545000874
:1044D800A5450008A5450008A5450008A54500080C
:1044E800A5450008A5450008794500084FF08D410D
:1044F8003869FCF7AFFC03461846FCF797FE0346FD
:10450800FB8266493869FCF7A5FC03461846FCF7A8
:104518008DFE0346BB8244E04FF08C413869FCF7BE
:1045280099FC03461846FCF781FE0346FB825C496A
:104538003869FCF78FFC03461846FCF777FE0346FC
:10454800BB822EE04FF08B413869FCF783FC0346B1
:104558001846FCF76BFE0346FB8252493869FCF7A4
:1045680079FC03461846FCF761FE0346BB8218E057
:104578004FF08A413869FCF76DFC03461846FCF792
:1045880055FE0346FB8248493869FCF763FC03463D
:104598001846FCF74BFE0346BB8202E04FF0FF33A0
:1045A80076E0FB8A1B0A9BB2DBB23B73FB8ADBB269
:1045B8007B73BB8A1B0A9BB2DBB2BB73BB8ADBB2C1
:1045C800FB73FB7903F00103002B1CD007F10C03EC
:1045D8001A4602214FF4EA70FFF720F80346002B31
:1045E80002D04FF0FF3353E007F10C0302331A46B1
:1045F80002214FF49270FFF711F80346002B02D006
:104608004FF0FF3344E0FB7903F00203002B1CD08A
:1046180007F10C031A4602214FF4EC70FEF7FEFF77
:104628000346002B02D04FF0FF3331E007F10C03B3
:1046380002331A4602214FF49470FEF7EFFF034647
:10464800002B02D04FF0FF3322E0FB7903F0040384
:10465800002B1CD007F10C031A4602214FF4EE7010
:10466800FEF7DCFF0346002B02D04FF0FF330FE0CC
:1046780007F10C0302331A4602214FF49670FEF735
:10468800CDFF0346002B02D04FF0FF3300E000239C
:1046980018461837BD4680BD000048430000404614
:1046A8000000C045000040450000C04480B584B00B
:1046B80000AF0346FB710023FB73FB7903F0010392
:1046C800002B04D0FB7B43F03003DBB2FB73FB7998
:1046D80003F00203002B04D0FB7B43F00C03DBB296
:1046E800FB73FB7903F00403002B04D0FB7B43F03E
:1046F8000303DBB2FB7307F10F031A4601214FF4E2
:10470800A470FEF78BFF034618461037BD4680BDE0
:1047180080B584B000AF0346FB71FB79002B02D152
:104728000123FB7104E0FB79042B01D90423FB71FD
:10473800FB79013BDBB2FB7307F10F031A4601213A
:1047480040F24F10FEF76AFF034618461037BD4681
:1047580080BD000080B584B000AF0346FB80FB88B5
:104768000C4AA2FB03239B08FB81FB891B0A9BB213
:10477800DBB23B73FB89DBB27B7307F10C031A4690
:1047880002214FF4EF70FEF749FF03461846103731
:10479800BD4680BDCDCCCCCC80B584B000AF03463F
:1047A800FB80FB880C4AA2FB03239B08FB81FB8947
:1047B8001B0A9BB2DBB23B73FB89DBB27B7307F14D
:1047C8000C031A4602214FF4ED70FEF727FF03464B
:1047D80018461037BD4680BDCDCCCCCC80B584B052
:1047E80000AF78600B467B807B68134A82FB03121C
:1047F8009211DB17D31A7A8802FB03F3FB60FB687C
:104808001B16DBB23B72FB681B14DBB27B72FB68C6
:104818001B12DBB2BB72FB68DBB2FB7207F1080349
:104828001A4604214FF4AE70FEF7F8FE0346184608
:104838001037BD4680BD00BFD34D621080B584B02F
:1048480000AF0346FB80FB880C4AA2FB03239B08AE
:10485800FB80FB881B0A9BB2DBB23B73FB88DBB295
:104868007B7307F10C031A4602214FF4AD70FEF773
:10487800D5FE034618461037BD4680BDCDCCCCCCFE
:1048880080B584B000AF0346FB80FB880C4AA2FBCE
:1048980003239B08FB80FB881B0A9BB2DBB23B739C
:1048A800FB88DBB27B7307F10C031A4602214FF435
:1048B800AC70FEF7B3FE034618461037BD4680BD00
:1048C800CDCCCCCC80B586B000AF0346FB800223AC
:1048D8003B73CA237B73E323BB730923FB7307F181
:1048E8000C031A4604216820FEF798FEA3233B73A5
:1048F800FB8803F04003002B06D0C0237B73C8233A
:10490800BB73C223FB7305E0A3237B73A323BB7391
:10491800A323FB73FB8803F4C073002B06D0C423C6
:104928003B74CC237B74C623BB7405E0A3233B7480
:10493800A3237B74A323BB74A323FB74A3233B751A
:10494800A3237B7507F10C031A460A2140F6A7201A
:10495800FEF764FEFB8803F00303002B02D020233C
:104968003B7301E0D8233B7307F10C031A4601217E
:1049780040F6B620FEF752FEFB8803F02003002B1A
:1049880003D0012000F0C6F802E0002000F0C2F8D1
:10499800FB8803F4C073002B1DD0FB8803F48073DD
:1049A800002B08D0B2233B738B237B73B623BB73D6
:1049B8009B23FB7307E0B0233B7380237B73B423F3
:1049C800BB739023FB7307F10C031A46042140F6CE
:1049D800A220FEF723FEFB8803F00103002B25D05D
:1049E800F8233B7307F10C031A4601214FF40B60BF
:1049F800FEF714FEFA210720FFF72EFD0720FFF728
:104A080055FE0120FFF784FE6420FFF7A3FE4FF454
:104A1800FA70FFF7C1FEC8213C48FFF7DFFE2820E7
:104A2800FFF70CFF0A20FFF72BFF09E0D8233B73A1
:104A380007F10C031A4601214FF40B60FEF7EEFD57
:104A4800FB8803F00203002B02D0D9233B7301E05B
:104A5800D8233B7307F10C031A46012140F23D703D
:104A6800FEF7DCFDFB8803F00403002B03D00120D4
:104A780000F080F802E0002000F07CF8FB8803F0EA
:104A88001003002B03D0012000F09BF802E0002067
:104A980000F097F8FB8843F008039AB21C4B5A8140
:104AA800FDF7F2F91A4B00229A73FB8803F04003D2
:104AB800002B05D0164B9B7B0633DAB2144B9A7346
:104AC800FB8803F4C073002B05D0114B9B7B063386
:104AD800DAB20F4B9A73FB8803F01403002B05D04E
:104AE8000B4B9B7B1033DAB2094B9A73FB8803F0AC
:104AF8000303002B05D0064B9B7B0433DAB2044B2F
:104B08009A73002318461837BD4680BD09E3CA02C8
:104B18003802002080B588B000AF0346FB71FB79EE
:104B2800002B0FD0114A07F1140307CA03C31A70E8
:104B380007F114031A4609214FF49760FEF76EFD3A
:104B480003460EE00A4A07F1080307CA03C31A70AE
:104B580007F108031A4609214FF49760FEF75EFD36
:104B6800034618462037BD4680BD00BF34C4000840
:104B780040C4000880B584B000AF0346FB71FB79E0
:104B8800002B08D0C0233B73C2237B73C423BB73A1
:104B9800C623FB7306E007F10C0304228B21184699
:104BA80002F0E4F907F10C031A46042140F69820B4
:104BB800FEF734FDFDF768F9034618461037BD4681
:104BC80080BD80B584B000AF0346FB71FB79002B34
:104BD80008D020233B7328237B733023BB733823EF
:104BE800FB7306E007F10C030422A321184602F028
:104BF800BDF907F10C031A46042140F69E20FEF782
:104C08000DFDFDF741F9034618461037BD4680BD36
:104C180080B584B000AF78607B6803331B7823F0DD
:104C28003F03FB737B6803331B7803F03F03BB73BD
:104C38007B6801331B7803F00103002B12D0BB7B88
:104C4800DB087B73BB7B03F00703DBB201333B73E9
:104C5800104B1B68002B05D00E4B1B68397B7A7BE9
:104C6800104698477B6801331B7803F00803002B34
:104C78000AD0084B5B68002B06D0064B5B68FA7BB2
:104C88009209D2B210469847002318461037BD46FD
:104C980080BD00BF3802002080B592B000AFF86038
:104CA800B9607A603B60002387F847303B6D00228B
:104CB8001A80B44B9B7B9BB207F120017A6D184692
:104CC800FDF776FD0346002B02D04FF0FF3354E189
:104CD800AC4B5B8903F01403002B00F08A8097F833
:104CE80020301A0697F821301B041A4397F822300F
:104CF8001B02134397F823201A437B681A6097F81E
:104D080024301A0697F825301B041A4397F82630E2
:104D18001B021A4397F8273019467B6804330A4365
:104D28001A6097F828301A0697F829301B041A4396
:104D380097F82A301B021A4397F82B3019467B68DC
:104D480008330A431A6097F82C301A0697F82D3062
:104D58001B041A4397F82E301B021A4397F82F307A
:104D680019467B680C330A431A6097F847301033AA
:104D780087F847307B681B681B143B617B680433EA
:104D88001B681B147B617B6808331B681B14BB61A1
:104D98007B680C331B681B14FB613B693A6902FB97
:104DA80003F27B69796901FB03F31A44BB69B969AA
:104DB80001FB03F31A44FB69F96901FB03F313448C
:104DC8003B643B6CB3F1706F03DB3B6CB3F1885F02
:104DD80007DDFDF759F83B6D00221A804FF0FF33CD
:104DE800CBE03B6DB3F9003043F480731AB23B6DEE
:104DF8001A80644B5B8903F04003002B52D097F86C
:104E0800473007F14802134413F8283C1B021AB232
:104E180097F84730013307F148010B4413F8283C51
:104E28001BB213431AB2BB681A8097F84730023393
:104E380007F14802134413F8283C1B0219B297F8EB
:104E48004730033307F14802134413F8283C1AB2D9
:104E5800BB6802330A4312B21A8097F8473004330A
:104E680007F14802134413F8283C1B0219B297F8BB
:104E78004730053307F14802134413F8283C1AB2A7
:104E8800BB6804330A4312B21A8097F847300633D6
:104E980087F847303B6DB3F9003043F008031AB286
:104EA8003B6D1A80374B5B8903F4C073002B52D0DB
:104EB80097F8473007F14802134413F8283C1B02BF
:104EC8001AB297F84730013307F148010B4413F839
:104ED800283C1BB213431AB2FB681A8097F8473074
:104EE800023307F14802134413F8283C1B0219B295
:104EF80097F84730033307F14802134413F8283C66
:104F08001AB2FB6802330A4312B21A8097F8473084
:104F1800043307F14802134413F8283C1B0219B262
:104F280097F84730053307F14802134413F8283C33
:104F38001AB2FB6804330A4312B21A8097F8473052
:104F4800063387F847303B6DB3F9003043F0700300
:104F58001AB23B6D1A800B4B5B8903F00303002BDD
:104F680007D097F8473007F1200213441846FFF797
:104F78004FFE3868FEF798FD002318464837BD46AF
:104F880080BD00BF3802002080B582B000AF7860D5
:104F9800391D4FF6FF730122034801F091FD7B682C
:104FA80018460837BD4680BD6802002080B500AFAE
:104FB80001220349034801F006FE00BF80BD00BF7F
:104FC800480200206802002080B500AF00F00CF80D
:104FD800FFF7ECFFFCF7CAFB00BF80BD80B500AF50
:104FE800FCF7D8FB00BF80BD80B400AF034B48225C
:104FF8001A6000BFBD4680BC704700BF4C0200204D
:1050080080B489B000AF78600023BB61194B5B683E
:105018007B61194B1A687B6802FB03F33B61154BF4
:105028009B68FB61134B9B68FB60FA68FB699A42BB
:10503800F8D0FA68FB699A4206D2FA69FB68D31A73
:10504800BA691344BB6107E07A69FB68D21AFB6945
:105058001344BA691344BB61FB68FB61BA693B69D5
:105068009A4200D2DEE700BF00BF2437BD4680BCAD
:10507800704700BF10E000E04C02002080B582B00D
:1050880000AF0346FB80FB884FF47A7202FB03F300
:105098001846FFF7B5FF00BF0837BD4680BD0000C2
:1050A80080B588B000AF07F1100300221A605A607B
:1050B8009A60DA60274B9B69264A43F0080393619C
:1050C800244B9B6903F00803FB60FB68214B9B6939
:1050D800204A43F0040393611E4B9B6903F00403C9
:1050E800BB60BB681B4B9B691A4A43F04003936142
:1050F800184B9B6903F040037B607B6800224FF4E8
:105108004061154800F04CFE00220221134800F0CF
:1051180047FE4FF440633B6101237B610023BB6181
:105128000323FB6107F1100319460B4800F0A4FBA9
:1051380002233B6101237B610023BB610123FB61E7
:1051480007F110031946054800F096FB00BF203709
:10515800BD4680BD00100240000C0140001801400F
:1051680080B500AF00F01EFA00F009F8FFF798FFCD
:1051780000F07CF9FFF728FFFFF730FFFCE780B568
:1051880090B000AF07F1180328220021184601F05B
:10519800EDFE3B1D00221A605A609A60DA601A61BF
:1051A8000123BB614FF48033FB6100233B62012381
:1051B800BB6202237B634FF48033BB634FF4E0137D
:1051C800FB6307F11803184600F01CFE0346002B8A
:1051D80001D000F019F80F237B600223BB60002385
:1051E800FB604FF480633B6100237B613B1D022120
:1051F800184601F077F90346002B01D000F004F8B7
:1052080000BF4037BD4680BD80B400AF72B600BF56
:10521800FEE780B483B000AF7860396000BF0C3718
:10522800BD4680BC7047000080B584B000AF164B07
:105238009B69154A43F001039361134B9B6903F083
:105248000103BB60BB68104BDB690F4A43F0805316
:10525800D3610D4BDB6903F080537B607B680520CD
:1052680000F0B2FA094B5B68FB60FB6823F0E0636F
:10527800FB60FB6843F00073FB60044AFB68536003
:1052880000BF1037BD4680BD00100240000001403D
:1052980080B400AFFEE780B400AFFEE780B400AF93
:1052A800FEE780B400AFFEE780B400AFFEE780B44D
:1052B80000AF00BFBD4680BC704780B400AF00BFE0
:1052C800BD4680BC704780B400AF00BFBD4680BCFF
:1052D800704780B500AF00F0ABF900BF80BD80B467
:1052E80000AF01231846BD4680BC704780B582B028
:1052F80000AF7860396001F001FE034616221A609B
:105308004FF0FF3318460837BD4680BD80B582B0E0
:1053180000AF78604FF0FF317868FFF7E7FFFEE7EE
:1053280080B586B000AFF860B9607A6000237B6111
:105338000AE0AFF300800146BB685A1CBA60CAB2E3
:105348001A707B6901337B617A697B689A42F0DB6A
:105358007B6818461837BD4680BD80B586B000AF5B
:10536800F860B9607A6000237B6109E0BB685A1C69
:10537800BA601B781846FFF707FE7B6901337B612B
:105388007A697B689A42F1DB7B6818461837BD4614
:1053980080BD80B483B000AF78604FF0FF3318460B
:1053A8000C37BD4680BC704780B483B000AF7860CE
:1053B80039603B684FF400525A60002318460C3796
:1053C800BD4680BC704780B483B000AF78600123CD
:1053D80018460C37BD4680BC704780B485B000AF16
:1053E800F860B9607A60002318461437BD4680BC5F
:1053F8007047000080B586B000AF7860144A154B3E
:10540800D31A7B617B693B61134B1B68002B02D16C
:10541800114B124A1A60104B1A687B6813443A6998
:105428009A4207D201F06AFD03460C221A604FF037
:10543800FF3309E0084B1B68FB60074B1A687B6861
:105448001344054A1360FB6818461837BD4680BDEB
:10545800000001200004000050020020C8020020C3
:1054680080B400AF00BFBD4680BC704780B500AFB8
:10547800114B124A1A60104B4FF4E1325A600E4B2E
:1054880000229A600C4B0022DA600B4B00221A6152
:10549800094B0C225A61084B00229A61064B0022E4
:1054A800DA61054801F052FA0346002B01D0FFF7F4
:1054B800ABFE00BF80BD00BF68020020003801407D
:1054C80080B588B000AF786007F1100300221A6039
:1054D8005A609A60DA607B681B681C4A934231D133
:1054E8001B4B9B691A4A43F480439361184B9B6991
:1054F80003F48043FB60FB68154B9B69144A43F037
:1055080004039361124B9B6903F00403BB60BB68FF
:105518004FF400733B6102237B610323FB6107F1B6
:10552800100319460B4800F0A7F94FF480633B615C
:1055380000237B610023BB6107F11003194605486E
:1055480000F09AF900BF2037BD4680BD0038014001
:105558000010024000080140FFF782FF0B480C4989
:105568000C4A002302E0D458C4500433C4188C42B7
:10557800F9D3094A094C002301E013600432A2421E
:10558800FBD301F0C1FCFFF7EBFD704700000020E2
:105598001C02002000D700081C020020C4020020C2
:1055A800FEE7000080B500AF084B1B68074A43F0D0
:1055B80010031360032000F007F9032000F008F837
:1055C800FFF732FE0023184680BD00BF00200240CE
:1055D80080B582B000AF7860124B1A68124B1B7806
:1055E80019464FF47A73B3FBF1F3B2FBF3F31846A1
:1055F80000F036F90346002B01D001230EE07B684A
:105608000F2B0AD8002279684FF0FF3000F0FCF821
:10561800064A7B681360002300E001231846083718
:10562800BD4680BD38000020400000203C0000201E
:1056380080B400AF054B1B781A46054B1B68134412
:10564800034A136000BFBD4680BC7047400000207D
:10565800B002002080B400AF024B1B681846BD465C
:1056680080BC7047B002002080B485B000AF78607D
:105678007B6803F00703FB600C4BDB68BB60BA6810
:105688004FF6FF031340BB60FB681A02BB68134365
:1056980043F0BF6343F40033BB60044ABB68D36084
:1056A80000BF1437BD4680BC704700BF00ED00E066
:1056B80080B400AF044BDB681B0A03F007031846ED
:1056C800BD4680BC704700BF00ED00E080B483B0E9
:1056D80000AF03463960FB7197F90730002B0ADBEE
:1056E8003B68DAB20C4997F907301201D2B20B4481
:1056F80083F800230AE03B68DAB20849FB7903F033
:105708000F03043B1201D2B20B441A7600BF0C37C8
:10571800BD4680BC704700BF00E100E000ED00E03E
:1057280080B489B000AFF860B9607A60FB6803F0B4
:105738000703FB61FB69C3F10703042B28BF04239C
:10574800BB61FB690433062B02D9FB69033B00E00C
:1057580000237B614FF0FF32BB6902FA03F3DA439F
:10576800BB681A407B699A404FF0FF317B6901FAA8
:1057780003F3D9437B680B40134318462437BD46CF
:1057880080BC704780B582B000AF78607B68013B11
:10579800B3F1807F01D301230FE00A4A7B68013B04
:1057A80053600F214FF0FF30FFF790FF054B0022A9
:1057B8009A60044B07221A60002318460837BD4632
:1057C80080BD00BF10E000E080B582B000AF786017
:1057D8007B68072B0FD07B68062B0CD07B68052BCA
:1057E80009D07B68042B06D07B68032B03D091215A
:1057F8000448FFF70EFD7868FFF736FF00BF08374B
:10580800BD4680BD64C4000880B586B000AF0346BD
:10581800B9607A60FB7300237B617B680F2B03D927
:10582800A9210E48FFF7F5FCBB680F2B03D9AA2165
:105838000A48FFF7EEFCFFF73BFF78617A68B96822
:105848007869FFF76DFF024697F90F301146184641
:10585800FFF73CFF00BF1837BD4680BD64C4000891
:1058680080B582B000AF78607868FFF78BFF034699
:1058780018460837BD4680BD80B58AB000AF78604D
:10588800396000237B6200233B627B68A94A93420C
:105898001BD07B68A84A934217D07B68A74A9342DB
:1058A80013D07B68A64A93420FD07B68A54A9342DF
:1058B8000BD07B68A44A934207D07B68A34A9342E3
:1058C80003D0BD21A248FFF7A4FC3B681B689BB22C
:1058D800002B05D03B681B681B0C1B04002B03D056
:1058E800BE219B48FFF795FC3B685B68002B00F0E6
:1058F80035823B685B68012B00F030823B685B684F
:10590800112B00F02B823B685B68022B00F026828B
:105918003B685B68122B00F021823B685B688D4A0C
:10592800934200F01B823B685B688B4A934200F00D
:1059380015823B685B68894A934200F00F823B6896
:105948005B68874A934200F009823B685B68854A36
:10595800934200F003823B685B68834A934200F0FD
:10596800FD813B685B68032B00F0F881BF21784814
:10597800FFF74FFCF2E101227B6A02FA03F3FB61B5
:105988003B681B68FA691340BB61BA69FB699A42B4
:1059980040F0E1817B68674A93421BD07B68664A86
:1059A800934217D07B68654A934213D07B68644A58
:1059B80093420FD07B68634A93420BD07B68624A5C
:1059C800934207D07B68614A934203D0CD21604857
:1059D800FFF71FFC3B685B68634A934200F0C68090
:1059E800614A934200F2EC805C4A934200F0BE8028
:1059F8005A4A934200F2E4805A4A934200F0B68031
:105A0800584A934200F2DC80534A934200F0AE8039
:105A1800514A934200F2D480514A934200F0A68042
:105A28004F4A934200F2CC80122B2BD8122B00F253
:105A3800C78001A252F823F0755B0008955A000848
:105A4800E75A0008C35B0008C95B0008C95B000887
:105A5800C95B0008C95B0008C95B0008C95B00088E
:105A6800C95B0008C95B0008C95B0008C95B00087E
:105A7800C95B0008C95B0008C95B0008BD5A00087B
:105A8800115B0008334A934270D099E03B68DB68A9
:105A9800022B0BD03B68DB68012B07D03B68DB6827
:105AA800032B03D0D5212A48FFF7B3FB3B68DB68FB
:105AB8003B6286E03B68DB68022B0BD03B68DB6807
:105AC800012B07D03B68DB68032B03D0DC2120487F
