:020000040800F2
:1000000000000120910800080D06000813060008F2
:10001000190600081F060008250600080000000059
:100020000000000000000000000000002B06000897
:100030003706000800000000430600084F060008CD
:10004000D9080008D9080008D9080008D90800080C
:10005000D9080008D9080008D9080008D9080008FC
:10006000D9080008D9080008D9080008D9080008EC
:10007000D9080008D9080008D9080008D9080008DC
:10008000D9080008D9080008D9080008D9080008CC
:10009000D9080008D9080008D9080008D9080008BC
:1000A000D9080008D9080008D9080008D9080008AC
:1000B000D9080008D9080008D9080008D90800089C
:1000C000D9080008D9080008D9080008D90800088C
:1000D000D9080008D9080008D9080008D90800087C
:1000E000D9080008D9080008D9080008D90800086C
:1000F000D9080008D9080008D9080008D90800085C
:10010000D9080008D9080008D9080008D90800084B
:10011000D9080008D9080008D9080008D90800083B
:10012000D9080008D9080008D9080008D90800082B
:1001300000000000000000000000000000000000BF
:1001400000000000000000000000000000000000AF
:10015000000000000000000000000000000000009F
:10016000000000000000000000000000000000008F
:10017000000000000000000000000000000000007F
:10018000000000000000000000000000000000006F
:10019000000000000000000000000000000000005F
:1001A000000000000000000000000000000000004F
:1001B000000000000000000000000000000000003F
:1001C000000000000000000000000000000000002F
:1001D000000000000000000000000000000000001F
:0401E0005FF8E0F1F3
:1001E40010B5054C237833B9044B13B10448AFF36D
:1001F40000800123237010BD700000200000000067
:10020400A836000808B5034B1BB103490348AFF3F4
:10021400008008BD0000000074000020A83600081B
:1002240080B586B000AF786007F10C0300221A6035
:100234005A609A607B68FB6001233B6107237B6102
:1002440007F10C0319460C4800F076FE0346002B18
:1002540001D000F09FF9084800F0AEFC4FF4FA71A9
:10026400054800F057FD044800F05AFE03469BB2CF
:1002740018461837BD4680BD9400002080B582B072
:1002840000AF786039600720FFF7CAFF03461A46BB
:100294007B681A800820FFF7C3FF03461A463B68B1
:1002A4001A807B681B8819463B681B881A460348DA
:1002B40002F064FA00BF0837BD4680BDC0360008AE
:1002C40080B500AF00F024F800BF80BD80B500AF5A
:1002D40004490548FFF7D2FF4FF4967000F05EFB27
:1002E40000BF80BD8E0000208C00002080B582B04D
:1002F40000AF7860391D4FF6FF730122034802F006
:100304002DF87B6818460837BD4680BDC80000201C
:1003140080B500AF01220349034802F0A2F800BFF0
:1003240080BD00BF90000020C800002080B584B0CC
:1003340000AF3B1D00221A605A609A60184B194A9C
:100344001A60174B00229A60154B00221A73144B43
:1003540000221A75124B4FF46022DA61104B00220E
:100364005A600F4B01221A610D4800F03BFB034613
:10037400002B01D000F00EF907237B600123BB6042
:100384000023FB603B1D1946054800F0D5FD0346DC
:10039400002B01D000F0FEF800BF1037BD4680BD31
:1003A40094000020003C014080B588B000AF786024
:1003B40007F1100300221A605A609A60DA607B68C1
:1003C4001B68154A934222D1144B9B69134A43F488
:1003D40000439361114B9B6903F40043FB60FB688A
:1003E4000E4B9B690D4A43F0800393610B4B9B6951
:1003F40003F08003BB60BB684FF4C0633B6103231D
:100404007B6107F110031946054801F00DF800BFA0
:100414002037BD4680BD00BF003C014000100240B3
:10042400001C014080B588B000AF07F11003002222
:100434001A605A609A60DA601D4B9B691C4A43F04B
:10044400400393611A4B9B6903F04003FB60FB6814
:10045400174B9B69164A43F080039361144B9B69C5
:1004640003F08003BB60BB68114B9B69104A43F0E7
:10047400040393610E4B9B6903F004037B607B6868
:10048400002260210B4801F063F960233B610123E2
:100494007B610023BB610123FB6107F11003194653
:1004A400044800F0C1FF00BF2037BD4680BD00BF37
:1004B400001002400018014080B500AF00F00CFAB3
:1004C40000F00BF8FFF7AEFFFFF730FF00F068F91C
:1004D400FFF7F6FEFFF7FAFEFCE780B596B000AF33
:1004E40007F1300328220021184602F03FF907F1F2
:1004F4001C0300221A605A609A60DA601A613B1D7C
:1005040000221A605A609A60DA601A615A61012303
:100514003B634FF480337B630023BB6301233B6461
:100524000223FB644FF480333B654FF4E0137B6597
:1005340007F13003184601F023F90346002B01D0DC
:1005440000F028F80F23FB6102233B6200237B6247
:100554004FF48063BB620023FB6207F11C0302219A
:10056400184601F08FFB0346002B01D000F012F86F
:1005740002237B604FF40043FB603B1D184601F0EF
:100584000FFD0346002B01D000F004F800BF5837DC
:10059400BD4680BD80B400AF72B600BFFEE7000068
:1005A40080B584B000AF164B9B69154A43F0010334
:1005B4009361134B9B6903F00103BB60BB68104B51
:1005C400DB690F4A43F08053D3610D4BDB6903F0C1
:1005D40080537B607B68052000F0F2FE094B5B686A
:1005E400FB60FB6823F0E063FB60FB6843F000738F
:1005F400FB60044AFB68536000BF1037BD4680BDF2
:10060400001002400000014080B400AFFEE780B457
:1006140000AFFEE780B400AFFEE780B400AFFEE7B2
:1006240080B400AFFEE780B400AF00BFBD4680BC1D
:10063400704780B400AF00BFBD4680BC704780B433
:1006440000AF00BFBD4680BC704780B500AF00F06E
:1006540089F900BF80BD80B586B000AFF860B9608D
:100664007A6000237B610AE0AFF300800146BB6837
:100674005A1CBA60CAB21A707B6901337B617A6909
:100684007B689A42F0DB7B6818461837BD4680BD0C
:1006940080B586B000AFF860B9607A6000237B61F2
:1006A40009E0BB685A1CBA601B781846FFF71EFEA7
:1006B4007B6901337B617A697B689A42F1DB7B68F1
:1006C40018461837BD4680BD80B483B000AF78604B
:1006D4004FF0FF3318460C37BD4680BC704780B4DA
:1006E40083B000AF786039603B684FF400525A60C1
:1006F400002318460C37BD4680BC704780B483B0D5
:1007040000AF7860012318460C37BD4680BC7047A3
:1007140080B485B000AFF860B9607A6000231846F1
:100724001437BD4680BC704780B586B000AF786092
:10073400144A154BD31A7B617B693B61134B1B68CD
:10074400002B02D1114B124A1A60104B1A687B68B5
:1007540013443A699A4207D201F0DEFF03460C22A1
:100764001A604FF0FF3309E0084B1B68FB60074B2E
:100774001A687B681344054A1360FB6818461837E7
:10078400BD4680BD0000012000040000C40000201C
:100794002801002080B400AF00BFBD4680BC704774
:1007A40080B500AF114B124A1A60104B4FF4E1327E
:1007B4005A600E4B00229A600C4B0022DA600B4BFD
:1007C40000221A61094B0C225A61084B00229A61DB
:1007D400064B0022DA61054801F070FD0346002B48
:1007E40001D0FFF7D7FE00BF80BD00BFC8000020C6
:1007F4000038014080B588B000AF786007F110037D
:1008040000221A605A609A60DA607B681B681C4A8E
:10081400934231D11B4B9B691A4A43F48043936141
:10082400184B9B6903F48043FB60FB68154B9B6981
:10083400144A43F004039361124B9B6903F00403CD
:10084400BB60BB684FF400733B6102237B610323ED
:10085400FB6107F1100319460B4800F0E5FD4FF466
:1008640080633B6100237B610023BB6107F11003BC
:100874001946054800F0D8FD00BF2037BD4680BDAD
:10088400003801400010024000080140FFF782FFD9
:100894000B480C490C4A002302E0D458C4500433DA
:1008A400C4188C42F9D3094A094C002301E01360AF
:1008B4000432A242FBD301F035FFFFF7FDFD704780
:1008C4000000002070000020B437000870000020F1
:1008D40024010020FEE7000080B500AF084B1B6830
:1008E400074A43F010031360032000F069FD03205E
:1008F40000F008F8FFF754FE0023184680BD00BF3F
:100904000020024080B582B000AF7860124B1A68B4
:10091400124B1B7819464FF47A73B3FBF1F3B2FB15
:10092400F3F3184600F073FD0346002B01D00123B6
:100934000EE07B680F2B0AD8002279684FF0FF3055
:1009440000F049FD064A7B681360002300E00123A0
:1009540018460837BD4680BD00000020080000206E
:100964000400002080B400AF054B1B781A46054BE9
:100974001B681344034A136000BFBD4680BC704724
:10098400080000201001002080B400AF024B1B6857
:100994001846BD4680BC70471001002080B584B065
:1009A40000AF7860FFF7F0FFB8607B68FB60FB681E
:1009B400B3F1FF3F05D00A4B1B781A46FB6813447A
:1009C400FB6000BFFFF7E0FF0246BB68D31AFA687A
:1009D4009A42F7D800BF00BF1037BD4680BD00BFA4
:1009E4000800002080B586B000AF78600023FB7556
:1009F40000233B610023BB600023FB607B68002B6A
:100A040001D10123CEE07B689B68002B7B689B6A45
:100A1400002B09D17B680022DA627B68002283F80C
:100A240024207868FFF7C0FC786800F0D7FB034601
:100A3400FB757B689B6A03F01003002B40F0A980D0
:100A4400FB7D002B40F0A5807B689B6A23F48853D0
:100A540023F0020343F002027B689A627B685A68BF
:100A64007B681B6851498B420AD17B68DB69B3F50B
:100A7400402F02D07B68DB6904E04FF4002301E0DF
:100A84007B68DB691A437B681B7B5B001343BA6892
:100A94001343BB607B689B68B3F5807F03D07B689E
:100AA4009B68012B02D14FF4807300E000233A6964
:100AB40013433B617B681B7D012B19D17B681B7B36
:100AC400002B09D17B689B69013B5A033B691343A3
:100AD40043F400633B610BE07B689B6A43F02002B4
:100AE4007B689A627B68DB6A43F001027B68DA62A6
:100AF4007B681B685B6823F469417B681B683A69FF
:100B04000A435A607B681B689A68294B13407A68C9
:100B14001268B9680B4393607B689B68B3F5807F68
:100B240003D07B689B68012B04D17B681B69013B64
:100B34001B05FB607B681B68DB6A23F470017B6820
:100B44001B68FA680A43DA627B681B689A68194B67
:100B54001340BA689A420BD17B680022DA627B6840
:100B64009B6A23F0030343F001027B689A6218E056
:100B74007B689B6A23F0120343F010027B689A623D
:100B84007B68DB6A43F001027B68DA620123FB7550
:100B940007E07B689B6A43F010027B689A6201233A
:100BA400FB75FB7D18461837BD4680BD003C0140EF
:100BB400FDF7E1FFFE0E1FFF80B584B000AF786043
:100BC4000023FB737B6893F82430012B01D10223AB
:100BD40098E07B68012283F82420786800F0A4FA66
:100BE4000346FB73FB7B002B40F087807B689B6A8A
:100BF40023F4407323F0010343F480727B689A6208
:100C04007B681B68414A934205D1414B5B6803F4FE
:100C14007023002B15D17B689B6A23F480127B68B8
:100C24009A627B681B685B6803F48063002B26D0A0
:100C34007B689B6A23F4405343F480527B689A6236
:100C44001DE07B689B6A43F480127B689A627B6830
:100C54001B682F4A934204D07B681B682B4A93423B
:100C64000DD12B4B5B6803F48063002B07D07B68AA
:100C74009B6A23F4405343F480527B689A627B68F6
:100C84009B6A03F48053002B06D07B68DB6A23F055
:100C940006027B68DA6202E07B680022DA627B6823
:100CA400002283F824207B681B686FF002021A601C
:100CB4007B681B689B6803F46023B3F5602F13D132
:100CC4007B681B68114A934205D1114B5B6803F49E
:100CD4007023002B08D17B681B689A687B681B68AB
:100CE40042F4A0029A600CE07B681B689A687B68F7
:100CF4001B6842F480129A6003E07B68002283F848
:100D04002420FB7B18461037BD4680BD00280140D7
:100D14000024014090B587B000AF786039600023AB
:100D24007B610023FB6000233B61FFF72DFE7861AC
:100D34007B681B689B6803F48073002B0BD07B6873
:100D44009B6A43F020027B689A627B68002283F8E6
:100D540024200123D3E07B681B685B6803F4807361
:100D6400002B31D17B681B68DB6A03F47003002B12
:100D74002AD121E03B68B3F1FF3F1DD03B68002B33
:100D840007D0FFF701FE02467B69D31A3A689A42FC
:100D940012D27B681B681B6803F00203002B0BD183
:100DA4007B689B6A43F004027B689A627B6800223A
:100DB40083F824200323A2E07B681B681B6803F0EC
:100DC4000203002BD6D070E04F4B1C68022001F0C8
:100DD4009DF90346B4FBF3F27B681B6819694B4B1E
:100DE4000B40002B18D17B681B68D968484B0B401B
:100DF400002B11D17B681B681969464B0B40002BF3
:100E040008D17B681B68D968434B0B40002B01D188
:100E1400142320E029231EE07B681B6819693D4BDD
:100E24000B40002B06D17B681B68D9683A4B0B40FA
:100E3400002B0DD07B681B681969384B0B40002BC5
:100E440008D17B681B68D968344B0B40002B01D157
:100E5400542300E0FC2302FB03F33B6121E03B68E5
:100E6400B3F1FF3F1AD03B68002B07D0FFF78CFD8E
:100E740002467B69D31A3A689A420FD2FB683A69F0
:100E84009A420BD97B689B6A43F004027B689A629E
:100E94007B68002283F82420032330E0FB680133BD
:100EA400FB60FB683A699A42D9D87B681B686FF08B
:100EB40012021A607B689B6A43F400727B689A6230
:100EC4007B681B689B6803F46023B3F5602F15D11E
:100ED4007B681B7B002B11D17B689B6A23F4807297
:100EE4007B689A627B689B6A03F48053002B05D16C
:100EF4007B689B6A43F001027B689A620023184670
:100F04001C37BD4690BD00BF000000202449922438
:100F140024499200922449129224490049922400BF
:100F240080B483B000AF78607B681B68DB6C1846C4
:100F34000C37BD4680BC704780B485B000AF786084
:100F440039600023FB730023BB607B6893F8243073
:100F5400012B01D10223DCE07B68012283F82420E9
:100F64003B685B68062B1CD87B681B68596B3B6825
:100F74005A6813469B001344053B1F2202FA03F3ED
:100F8400DB4319403B6818683B685A6813469B006A
:100F94001344053B00FA03F27B681B680A435A6357
:100FA4003CE03B685B680C2B1CD87B681B68196BA6
:100FB4003B685A6813469B001344233B1F2202FAE2
:100FC40003F3DB4319403B6818683B685A681346CF
:100FD4009B001344233B00FA03F27B681B680A431B
:100FE4001A631BE07B681B68D96A3B685A6813461E
:100FF4009B001344413B1F2202FA03F3DB431940D5
:101004003B6818683B685A6813469B001344413B8D
:1010140000FA03F27B681B680A43DA623B681B68C8
:10102400092B1CD97B681B68D9683B681A6813466E
:101034005B0013441E3B072202FA03F3DB4319400F
:101044003B6898683B681A6813465B0013441E3B70
:1010540000FA03F27B681B680A43DA6019E07B68D4
:101064001B6819693B681A6813465B00134407221E
:1010740002FA03F3DB4319403B6898683B681A683B
:1010840013465B00134400FA03F27B681B680A43AF
:101094001A613B681B68102B03D03B681B68112B3B
:1010A40032D17B681B681D4A934225D17B681B683B
:1010B4009B6803F40003002B26D17B681B689A68A5
:1010C4007B681B6842F400029A603B681B68102B23
:1010D4001AD1134B1B68134AA2FB03239A0C134621
:1010E4009B0013445B00BB6002E0BB68013BBB6038
:1010F400BB68002BF9D107E07B689B6A43F02002B0
:101104007B689A620123FB737B68002283F82420A6
:10111400FB7B18461437BD4680BC70470024014051
:101124000000002083DE1B4380B584B000AF7860EC
:101134000023FB600023BB607B681B689B6803F093
:101144000103012B40D07B681B689A687B681B688D
:1011540042F001029A601F4B1B681F4AA2FB032343
:101164009B0CBB6002E0BB68013BBB60BB68002B0F
:10117400F9D1FFF709FCF8601FE0FFF705FC024610
:10118400FB68D31A022B18D97B681B689B6803F091
:101194000103012B11D07B689B6A43F010027B682A
:1011A4009A627B68DB6A43F001027B68DA627B68DF
:1011B400002283F82420012307E07B681B689B68D6
:1011C40003F00103012BD8D1002318461037BD4684
:1011D40080BD00BF0000002083DE1B4380B584B0C7
:1011E40000AF78600023FB607B681B689B6803F09A
:1011F4000103012B2ED17B681B689A687B681B68EE
:1012040022F001029A60FFF7BFFBF8601BE0FFF7D2
:10121400BBFB0246FB68D31A022B14D97B681B68FC
:101224009B6803F00103012B0DD17B689B6A43F09B
:1012340010027B689A627B68DB6A43F001027B6878
:10124400DA62012307E07B681B689B6803F00103F3
:10125400012BDCD0002318461037BD4680BD0000AA
:1012640080B485B000AF78607B6803F00703FB604F
:101274000C4BDB68BB60BA684FF6FF031340BB60DE
:10128400FB681A02BB68134343F0BF6343F40033A3
:10129400BB60044ABB68D36000BF1437BD4680BC42
:1012A400704700BF00ED00E080B400AF044BDB6882
:1012B4001B0A03F007031846BD4680BC704700BFF5
:1012C40000ED00E080B483B000AF03463960FB71E9
:1012D40097F90730002B0ADB3B68DAB20C4997F91F
:1012E40007301201D2B20B4483F800230AE03B68B2
:1012F400DAB20849FB7903F00F03043B1201D2B2BE
:101304000B441A7600BF0C37BD4680BC704700BF43
:1013140000E100E000ED00E080B489B000AFF860C7
:10132400B9607A60FB6803F00703FB61FB69C3F1F2
:101334000703042B28BF0423BB61FB690433062B7A
:1013440002D9FB69033B00E000237B614FF0FF32CD
:10135400BB6902FA03F3DA43BB681A407B699A401B
:101364004FF0FF317B6901FA03F3D9437B680B40EB
:10137400134318462437BD4680BC704780B582B0FD
:1013840000AF78607B68013BB3F1807F01D3012318
:101394000FE00A4A7B68013B53600F214FF0FF3096
:1013A400FFF790FF054B00229A60044B07221A6056
:1013B400002318460837BD4680BD00BF10E000E09A
:1013C40080B582B000AF78607868FFF749FF00BF4E
:1013D4000837BD4680BD80B586B000AF0346B9600E
:1013E4007A60FB7300237B61FFF75EFF78617A68A4
:1013F400B9687869FFF790FF024697F90F301146F4
:101404001846FFF75FFF00BF1837BD4680BD80B5A3
:1014140082B000AF78607868FFF7B0FF03461846E3
:101424000837BD4680BD000080B48BB000AF786043
:10143400396000237B6200233B6279E101227B6AED
:1014440002FA03F3FB613B681B68FA691340BB6152
:10145400BA69FB699A4240F068813B685B68964AC6
:1014640093425ED0944A934275D8944A934258D09A
:10147400924A93426FD8924A934252D0904A9342EE
:1014840069D8904A93424CD08E4A934263D88E4A8C
:10149400934246D08C4A93425DD8122B2AD8122B01
:1014A40059D801A252F823F02715000801150008A5
:1014B40013150008551500085B1500085B15000896
:1014C4005B1500085B1500085B1500085B15000838
:1014D4005B1500085B1500085B1500085B15000828
:1014E4005B1500085B1500085B150008091500086A
:1014F4001D150008754A934213D02CE03B68DB6845
:101504003B6229E03B68DB6804333B6224E03B68D0
:10151400DB6808333B621FE03B68DB680C333B62EB
:101524001AE03B689B68002B02D104233B6213E062
:101534003B689B68012B05D108233B627B68FA69F1
:101544001A6109E008233B627B68FA695A6103E087
:1015540000233B6200E000BFBB69FF2B01D87B681E
:1015640001E07B6804337B61BB69FF2B02D87B6A93
:101574009B0002E07B6A083B9B003B617B691A6825
:101584000F213B6901FA03F3DB431A40396A3B69D3
:1015940001FA03F31A437B691A603B685B6803F042
:1015A4008053002B00F0C180494B9B69484A43F0AB
:1015B40001039361464B9B6903F00103BB60BB6865
:1015C400444A7B6A9B08023352F82330FB607B6AEF
:1015D40003F003039B000F2202FA03F3DB43FA68D0
:1015E4001340FB607B683C4A93421FD07B683B4AB4
:1015F400934219D07B683A4A934213D07B68394AA4
:1016040093420DD07B68384A934207D07B68374AAF
:10161400934201D105230AE0062308E0042306E0EF
:10162400032304E0022302E0012300E000237A6A9A
:1016340002F0030292009340FA681343FB602549C9
:101644007B6A9B080233FA6841F823203B685B6895
:1016540003F48013002B06D0254B9A682449BB69F8
:1016640013438B6006E0224B9A68BB69DB43204935
:1016740013408B603B685B6803F40013002B06D0B7
:101684001B4BDA681A49BB691343CB6006E0184B5D
:10169400DA68BB69DB4316491340CB603B685B687F
:1016A40003F40033002B25D0114B5A681049BB6951
:1016B40013434B6025E000BF0000321000003110DE
:1016C4000000221000002110000012100000111070
:1016D400001002400000014000080140000C0140DD
:1016E400001001400014014000180140001C01409A
:1016F40000040140154B5A68BB69DB43134913408E
:101704004B603B685B6803F48033002B06D00F4BBF
:101714001A680E49BB6913430B6006E00B4B1A6849
:10172400BB69DB43094913400B607B6A01337B626D
:101734003B681A687B6A22FA03F3002B7FF47EAEBF
:1017440000BF00BF2C37BD4680BC70470004014079
:1017540080B483B000AF78600B467B8013467B7007
:101764007B78002B03D07A887B681A6103E07B883E
:101774001A047B681A6100BF0C37BD4680BC7047F1
:1017840080B586B000AF78607B68002B01D101235F
:1017940072E27B681B6803F00103002B00F0878072
:1017A400924B5B6803F00C03042B0CD08F4B5B68EB
:1017B40003F00C03082B12D18C4B5B6803F48033C9
:1017C400B3F5803F0BD1894B1B6803F40033002B26
:1017D4006CD07B685B68002B68D101234CE27B688A
:1017E4005B68B3F5803F06D1804B1B687F4A43F4A6
:1017F400803313602EE07B685B68002B0CD17B4B3D
:101804001B687A4A23F480331360784B1B68774A49
:1018140023F4802313601DE07B685B68B3F5A02F7D
:101824000CD1724B1B68714A43F4802313606F4BD5
:101834001B686E4A43F4803313600BE06B4B1B68E8
:101844006A4A23F480331360684B1B68674A23F4A5
:10185400802313607B685B68002B13D0FFF794F838
:10186400386108E0FFF790F802463B69D31A642B0D
:1018740001D9032300E25D4B1B6803F40033002B02
:10188400F0D014E0FFF780F8386108E0FFF77CF847
:1018940002463B69D31A642B01D90323ECE1534B71
:1018A4001B6803F40033002BF0D100E000BF7B6819
:1018B4001B6803F00203002B63D04C4B5B6803F0FE
:1018C4000C03002B0BD0494B5B6803F00C03082B73
:1018D4001CD1464B5B6803F48033002B16D1434B79
:1018E4001B6803F00203002B05D07B681B69012BE6
:1018F40001D00123C0E13D4B1B6823F0F8027B6853
:101904005B69DB00394913430B603AE07B681B6970
:10191400002B20D0364B01221A60FFF735F83861CE
:1019240008E0FFF731F802463B69D31A022B01D9CC
:101934000323A1E12D4B1B6803F00203002BF0D01D
:101944002A4B1B6823F0F8027B685B69DB0027499C
:1019540013430B6015E0264B00221A60FFF714F8BE
:10196400386108E0FFF710F802463B69D31A022BEE
:1019740001D9032380E11D4B1B6803F00203002BF4
:10198400F0D17B681B6803F00803002B3AD07B6816
:101994009B69002B19D0174B01221A60FEF7F4FF44
:1019A400386108E0FEF7F0FF02463B69D31A022BC8
:1019B40001D9032360E10D4B5B6A03F00203002BA2
:1019C400F0D0012000F0CEFA1CE00A4B00221A608D
:1019D400FEF7DAFF38610FE0FEF7D6FF02463B69F7
:1019E400D31A022B08D9032346E100BF001002409A
:1019F4000000424280044242924B5B6A03F00203BD
:101A0400002BE9D17B681B6803F00403002B00F072
:101A1400A6800023FB758B4BDB6903F08053002BFE
:101A24000DD1884BDB69874A43F08053D361854BE2
:101A3400DB6903F08053BB60BB680123FB75824BF9
:101A44001B6803F48073002B18D17F4B1B687E4AFC
:101A540043F480731360FEF797FF386108E0FEF7E4
:101A640093FF02463B69D31A642B01D9032303E194
:101A7400754B1B6803F48073002BF0D07B68DB6824
:101A8400012B06D16F4B1B6A6E4A43F001031362AC
:101A94002DE07B68DB68002B0CD16A4B1B6A694A1A
:101AA40023F001031362674B1B6A664A23F00403A5
:101AB40013621CE07B68DB68052B0CD1614B1B6A4D
:101AC400604A43F0040313625E4B1B6A5D4A43F0B1
:101AD400010313620BE05B4B1B6A5A4A23F00103B8
:101AE4001362584B1B6A574A23F0040313627B6842
:101AF400DB68002B15D0FEF747FF38610AE0FEF7DC
:101B040043FF02463B69D31A41F28832934201D91A
:101B14000323B1E04B4B1B6A03F00203002BEED00E
:101B240014E0FEF731FF38610AE0FEF72DFF0246AC
:101B34003B69D31A41F28832934201D903239BE0D3
:101B4400404B1B6A03F00203002BEED1FB7D012BFB
:101B540005D13C4BDB693B4A23F08053D3617B685E
:101B6400DB69002B00F08780364B5B6803F00C03C5
:101B7400082B61D07B68DB69022B46D1334B0022F2
:101B84001A60FEF701FF386108E0FEF7FDFE024629
:101B94003B69D31A022B01D903236DE0294B1B683F
:101BA40003F00073002BF0D17B681B6AB3F5803F10
:101BB40008D1244B5B6823F400327B689B6821497D
:101BC40013434B601F4B5B6823F474127B68196AE0
:101BD4007B685B6A0B431B4913434B601B4B01221D
:101BE4001A60FEF7D1FE386108E0FEF7CDFE02462A
:101BF4003B69D31A022B01D903233DE0114B1B6827
:101C040003F00073002BF0D035E0104B00221A6073
:101C1400FEF7BAFE386108E0FEF7B6FE02463B69FD
:101C2400D31A022B01D9032326E0064B1B6803F0C9
:101C34000073002BF0D11EE07B68DB69012B07D118
:101C4400012319E00010024000700040600042428D
:101C54000B4B5B68FB60FB6803F480327B681B6A98
:101C64009A4206D1FB6803F470127B685B6A9A425D
:101C740001D0012300E0002318461837BD4680BD7B
:101C84000010024080B584B000AF786039607B6892
:101C9400002B01D10123D0E06A4B1B6803F007033A
:101CA4003A689A4210D9674B1B6823F007026549CA
:101CB4003B6813430B60634B1B6803F007033A68EC
:101CC4009A4201D00123B8E07B681B6803F0020349
:101CD400002B20D07B681B6803F00403002B05D085
:101CE400594B5B68584A43F4E06353607B681B6854
:101CF40003F00803002B05D0534B5B68524A43F4AE
:101D040060535360504B5B6823F0F0027B689B6820
:101D14004D4913434B607B681B6803F00103002BA0
:101D240040D07B685B68012B07D1474B1B6803F4E9
:101D34000033002B15D101237FE07B685B68022B05
:101D440007D1414B1B6803F00073002B09D1012319
:101D540073E03D4B1B6803F00203002B01D1012308
:101D64006BE0394B5B6823F003027B685B683649A0
:101D740013434B60FEF708FEF8600AE0FEF704FE2A
:101D84000246FB68D31A41F28832934201D90323F5
:101D940053E02D4B5B6803F00C027B685B689B008F
:101DA4009A42EBD1274B1B6803F007033A689A4227
:101DB40010D2244B1B6823F0070222493B681343CB
:101DC4000B60204B1B6803F007033A689A4201D06A
:101DD400012332E07B681B6803F00403002B08D066
:101DE400194B5B6823F4E0627B68DB681649134394
:101DF4004B607B681B6803F00803002B09D0124B6F
:101E04005B6823F460527B681B69DB000E49134353
:101E14004B6000F021F802460B4B5B681B0903F092
:101E24000F030A49CB5C22FA03F3094A1360094BF6
:101E34001B681846FEF766FD002318461037BD469A
:101E440080BD00BF0020024000100240D4360008CC
:101E5400000000200400002080B487B000AF0023FD
:101E6400FB600023BB6000237B6100237B600023B5
:101E74003B611E4B5B68FB60FB6803F00C03042BA7
:101E840002D0082B03D027E0194B3B6127E0FB6805
:101E94009B0C03F00F03174AD35C7B60FB6803F4CD
:101EA4008033002B10D0114B5B685B0C03F00103F3
:101EB400114AD35CBB607B680D4A03FB02F2BB682A
:101EC400B2FBF3F37B6104E07B680C4A02FB03F38F
:101ED4007B617B693B6102E0054B3B6100BF3B6971
:101EE40018461C37BD4680BC704700BF0010024036
:101EF40000127A00EC360008FC36000800093D00A8
:101F040080B400AF024B1B681846BD4680BC7047C6
:101F14000000002080B500AFFFF7F2FF0246054B3A
:101F24005B681B0A03F007030349CB5C22FA03F343
:101F3400184680BD00100240E436000880B500AFAA
:101F4400FFF7DEFF0246054B5B68DB0A03F007037D
:101F54000349CB5C22FA03F3184680BD001002400B
:101F6400E436000880B485B000AF78600A4B1B6883
:101F74000A4AA2FB03235B0A7A6802FB03F3FB60B1
:101F840000BFFB685A1EFA60002BF9D100BF00BFE6
:101F94001437BD4680BC704700000020D34D62104A
:101FA40080B586B000AF786000233B610023FB60FE
:101FB4007B681B6803F00103002B7DD00023FB75B5
:101FC4004F4BDB6903F08053002B0DD14C4BDB6985
:101FD4004B4A43F08053D361494BDB6903F0805390
:101FE400BB60BB680123FB75464B1B6803F480731D
:101FF400002B18D1434B1B68424A43F4807313608F
:10200400FEF7C2FC386108E0FEF7BEFC02463B69FD
:10201400D31A642B01D903236DE03A4B1B6803F4F4
:102024008073002BF0D0364B1B6A03F44073FB60C3
:10203400FB68002B2ED07B685B6803F44073FA685E
:102044009A4227D02E4B1B6A23F44073FB602E4B1D
:1020540001221A602C4B00221A60294AFB68136281
:10206400FB6803F00103002B14D0FEF78DFC3861EC
:102074000AE0FEF789FC02463B69D31A41F2883232
:10208400934201D9032336E01D4B1B6A03F002037C
:10209400002BEED01A4B1B6A23F440727B685B68FA
:1020A400174913430B62FB7D012B05D1144BDB69EC
:1020B400134A23F08053D3617B681B6803F0020347
:1020C400002B08D00E4B5B6823F440427B689B686E
:1020D4000B4913434B607B681B6803F01003002B10
:1020E40008D0074B5B6823F480027B685B69044972
:1020F40013434B60002318461837BD4680BD00BF0C
:1021040000100240007000404004424280B588B094
:1021140000AF786000237B610023FB6100233B61F7
:102124000023FB600023BB617B68013B0F2B00F2A3
:10213400AF8001A252F823F013220008792200088C
:102144009522000803220008952200089522000821
:10215400952200080B220008952200089522000809
:10216400952200089522000895220008952200086F
:10217400952200087D2100084A4B5B68FB60494BAF
:102184001B6803F08073002B00F08480FB689B0CB9
:1021940003F00F03444AD35C3B61FB6803F48033D0
:1021A400002B15D03F4B5B685B0C03F001033F4AE7
:1021B400D35C7B61FB6803F48033002B0DD03C4A75
:1021C4007B69B2FBF3F23B6902FB03F3FB6104E0BE
:1021D4003B69384A02FB03F3FB61324B5B6803F44F
:1021E4008003B3F5800F02D1FB69BB6152E0FB6948
:1021F4005B00314AA2FB03235B08BB614AE0FFF7A3
:102204002BFEB86149E0FFF727FEB86145E0254B96
:102214001B6AFB60FB6803F44073B3F5807F08D14D
:10222400FB6803F00203002B03D04FF40043BB61AF
:102234001FE0FB6803F44073B3F5007F09D1194B29
:102244005B6A03F00203002B03D049F64043BB61F1
:102254000FE0FB6803F44073B3F5407F1CD1114BCE
:102264001B6803F40033002B16D04FF22443BB61E8
:1022740012E011E0FFF762FE02460A4B5B689B0B1B
:1022840003F0030301335B00B2FBF3F3BB6104E02F
:1022940000BF02E000BF00E000BFBB691846203762
:1022A400BD4680BD0010024000370008103700080A
:1022B40000127A0000093D00ABAAAAAA80B582B038
:1022C40000AF78607B68002B01D1012342E07B687A
:1022D40093F84130DBB2002B06D17B68002283F8EF
:1022E40040207868FEF786FA7B68242283F8412030
:1022F4007B681B68DA687B681B6822F40052DA602A
:10230400786800F07BF97B681B681A697B681B6836
:1023140022F490421A617B681B685A697B681B68C7
:1023240022F02A025A617B681B68DA687B681B68A2
:1023340042F40052DA607B6800225A647B682022EF
:1023440083F841207B68202283F842207B680022A6
:102354005A63002318460837BD4680BD80B58AB04D
:1023640002AFF860B9603B601346FB8000237B61D9
:10237400FB6893F84130DBB2202B6DD1BB68002B96
:1023840002D0FB88002B01D1012366E0FB68002208
:102394005A64FB68212283F84120FEF7F5FA78613C
:1023A400FB68FA889A84FB68FA88DA84FB689B687D
:1023B400B3F5805F08D1FB681B69002B04D10023AF
:1023C400FB61BB68BB6103E0BB68FB610023BB61CD
:1023D4002AE03B6800937B6900228021F86800F0C2
:1023E40065F80346002B01D0032336E0FB69002B7C
:1023F4000BD1BB691B881A46FB681B68C2F3080231
:102404005A60BB690233BB6107E0FB691A78FB6859
:102414001B685A60FB690133FB61FB68DB8C9BB270
:10242400013B9AB2FB68DA84FB68DB8C9BB2002B1D
:10243400CFD13B6800937B6900224021F86800F00B
:1024440035F80346002B01D0032306E0FB68202265
:1024540083F84120002300E0022318462037BD46BC
:1024640080BD80B584B000AFF860B9601346FB80CE
:10247400FB6893F84230DBB2202B12D1BB68002BEF
:1024840002D0FB88002B01D101230BE0FB68002262
:102494001A63FB881A46B968F86800F075F80346B1
:1024A40000E0022318461037BD4680BD80B590B0C9
:1024B40000AFF860B9603B601346FB7150E0BB6C41
:1024C400B3F1FF3F4CD0BB6C002B07D0FEF75CFA96
:1024D40002463B68D31ABA6C9A4241D2FB681B6825
:1024E4000C33BB62BB6A53E8003F7B627B6A23F414
:1024F400D073FB63FB681B680C33FA6B7A633B6332
:10250400396B7A6B41E80023FB62FB6A002BE5D14F
:10251400FB681B6814337B617B6953E8003F3B61B4
:102524003B6923F00103BB63FB681B681433BA6B7C
:102534003A62FB61F9693A6A41E80023BB61BB690D
:10254400002BE5D1FB68202283F84120FB68202280
:1025540083F84220FB68002283F8402003230FE025
:10256400FB681B681A68BB681340BA689A420CBFC0
:1025740001230023DBB21A46FB799A429FD0002341
:1025840018464037BD4680BD80B485B000AFF860C2
:10259400B9601346FB80FB68BA689A62FB68FA88E4
:1025A4009A85FB68FA88DA85FB6800225A64FB681E
:1025B400222283F84220FB681B69002B07D0FB68AA
:1025C4001B68DA68FB681B6842F48072DA60FB6897
:1025D4001B685A69FB681B6842F001025A61FB6878
:1025E4001B68DA68FB681B6842F02002DA6000238B
:1025F40018461437BD4680BC7047000080B584B0CF
:1026040000AF78607B681B681B6923F440517B68CA
:10261400DA687B681B680A431A617B689A687B687E
:102624001B691A437B685B691343BB607B681B6847
:10263400DB6823F4B05323F00C037A681268B9689A
:102644000B43D3607B681B685B6923F440717B6830
:102654009A697B681B680A435A617B681B682C4A29
:10266400934203D1FFF76AFCF86002E0FFF752FCE3
:10267400F860FA6813469B0013449A001A447B6876
:102684005B689B00B2FBF3F3224AA2FB03235B09C2
:102694001901FA6813469B0013449A001A447B6894
:1026A4005B689B00B2FBF3F21A4BA3FB02035B09CA
:1026B400642000FB03F3D31A1B013233154AA2FB37
:1026C40003235B0903F0F0031944FA6813469B00E3
:1026D40013449A001A447B685B689B00B2FBF3F2D4
:1026E4000C4BA3FB02035B09642000FB03F3D31A26
:1026F4001B013233074AA2FB03235B0903F00F02D9
:102704007B681B680A449A6000BF1037BD4680BDD1
:10271400003801401F85EB51014B1868704700BF1A
:102724000C00002070B500260C4D0D4C641BA41049
:10273400A64209D100F0B6FF00260A4D0A4C641BDC
:10274400A410A64205D170BD55F8043B9847013644
:10275400EEE755F8043B98470136F2E7AC3700083A
:10276400AC370008AC370008B03700080346024411
:10277400934200D1704703F8011BF9E70FB40A4BE9
:1027840013B51C6824B1A36913B9204600F066F898
:1027940005AB2046049AA168019300F0BBF902B08E
:1027A400BDE8104004B070470C000020002310B5B1
:1027B4000446C0E90033C0E9043383608181436681
:1027C400C2818361194608225C30FFF7CFFF054BB5
:1027D40024626362044BA362044BE362044B2363ED
:1027E40010BD00BFC5300008E73000081F310008E5
:1027F40043310008014900F0AFB800BF15340008A8
:10280400682270B54D1E55430E4605F1740100F063
:10281400E5F8044640B10021C0E900160C30A06080
:1028240005F16802FFF7A2FF204670BD014800F0E1
:10283400B3B800BF15010020014800F0AEB800BFD6
:1028440015010020014800F0A7B800BF16010020C0
:10285400014800F0A2B800BF1601002010B50446DC
:10286400FFF7F0FFA3691BB1BDE81040FFF7F0BF0D
:10287400C4E912332365134B134A1B68A262A342B3
:1028840008BF0123204608BFA36100F01FF8606061
:10289400204600F01BF8A060204600F017F8002244
:1028A4000421E0606068FFF781FF01220921A0682C
:1028B400FFF77CFF02221221E068FFF777FF012374
:1028C400A361D1E714370008F9270008F8B50746D3
:1028D400FFF7ACFF1E4B1E68B36913B93046FFF710
:1028E400BDFF4836D6E90134013B03D533680BB349
:1028F4003668F7E7B4F90C50D5B9164B04F1580013
:10290400E360656600F047F8FFF796FF0822294662
:10291400C4E90155C4E904552560A56104F15C00CE
:10292400FFF724FFC4E90D55C4E912552046F8BD4C
:102934006834D9E704213846FFF762FF0446306063
:102944000028D5D1FFF778FF0C233B60EEE700BFEA
:10295400143700080100FFFF2DE9F84306468846B6
:10296400002700F14804D4E90195B9F1010905D51E
:102974002468002CF7D13846BDE8F883AB89012BD5
:1029840007D9B5F90E30013303D029463046C04784
:1029940007436835E9E770477047704770B50E4ED6
:1029A4000C463168054611B900F07AFB30602146C7
:1029B400284600F075FB431C0AD0C41C24F0030411
:1029C400A04207D0211A284600F06AFB013001D149
:1029D4004FF0FF34204670BD1C0100202DE9F0416A
:1029E400CD1C25F0030508350C2D38BF0C25002D12
:1029F400074601DBA94205D90C2300263B6030467B
:102A0400BDE8F0812E4E00F0C5FD33681C4634BB92
:102A140029463846FFF7C2FF431C04464DD13468AB
:102A24002646002E40D123683146384604EB03087D
:102A340000F036FB80453AD1216803356D1A25F044
:102A4400030508350C2D38BF0C2538462946FFF7F9
:102A5400A5FF01302BD023682B4423600EE02268AD
:102A6400521B1ED40B2A16D96119A342256018BF24
:102A74005960636808BF316062514B60384604F1A5
:102A84000B0600F08DFD26F00706231DF21AB6D0C2
:102A94009B1BA350B3E76268A3420CBF32605A6029
:102AA400ECE723466468B2E734467668B9E70C235A
:102AB40038463B6000F074FDA1E72560DEE700BF07
:102AC40018010020936810B4013B002B936007DACF
:102AD4009469A34201DB0A2902D110BC00F034BB83
:102AE4001368581C10601970084610BC7047F8B57C
:102AF40006460F461446D518AC4201D1002007E023
:102B04003A46304614F8011BFFF7DCFF431CF3D1AF
:102B1400F8BD00002DE9F04F0D46144698460646D0
:102B24009DB018B183690BB9FFF798FE894B9D429C
:102B34001BD175686B6ED90705D4AB899A0502D48D
:102B4400A86DFFF729FFAB891B0701D52B69EBB9EA
:102B54002946304600F05CFBC0B16B6EDC070ED535
:102B64004FF0FF301DB0BDE8F08F7B4B9D4201D18B
:102B7400B568DFE7794B9D4208BFF568DAE7AB89B2
:102B84009805EDD4A86DFFF708FFE9E70023099342
:102B940020238DF8293030234FF00109CDF80C8023
:102BA400DFF8BC818DF82A3023469A4613F8012BAE
:102BB4000AB1252AF9D1BAEB040B0BD05B462246A5
:102BC40029463046FFF793FF013000F0AA80099AA6
:102BD4005A4409929AF80030002B00F0A280002396
:102BE4004FF0FF32CDE905230AF1010A049307935C
:102BF4008DF853301A935446052214F8011B584893
:102C040000F0BAFC049AD8B9D10644BF20238DF849
:102C14005330130744BF2B238DF853309AF80030F8
:102C24002A2B15D0544600204FF00A0C079A21464F
:102C340011F8013B303B092B4ED9B0B1079214E097
:102C4400A0EB080309FA03F31343A2460493D2E763
:102C5400039B191D1B680391002BBBBF5B4242F011
:102C6400020207930793B8BF049223782E2B0CD14A
:102C740063782A2B35D1039B02341A1D1B680392F7
:102C8400002BB8BF4FF0FF330593DFF8D8A0032221
:102C94005046217800F070FC40B14023A0EB0A00BC
:102CA40003FA00F0049B01340343049314F8011B5A
:102CB40006222D488DF8281000F05EFC00283FD035
:102CC4002A4B1BBB039B073323F0070308330393EF
:102CD400099B3B44099367E70C4601200CFB023235
:102CE400A5E700234FF00A0C19460134059320464A
:102CF40010F8012B303A092A03D9002BC5D00591CD
:102D0400C3E7044601230CFB0121F0E703AB009366
:102D14002A463046164B04A9AFF300800746781CB8
:102D2400D6D16B6ED90705D4AB899A0502D4A86DA8
:102D3400FFF733FEAB895B063FF512AF099811E745
:102D440003AB00932A463046094B04A900F082F8ED
:102D5400E4E700BF38370008583700081837000880
:102D6400783700087E37000882370008000000002A
:102D7400F32A00082DE9F047164699468A680B693C
:102D840007469342B8BF1346336091F843200C467C
:102D9400DDF820800AB1013333602368990642BF0D
:102DA400336802333360256815F0060506D104F153
:102DB400190AE36832689B1AAB4228DC94F8432072
:102DC400131E226818BF012392062DD449463846A3
:102DD40004F14302C047013020D02368E56803F0C2
:102DE4000603042B18BF002532684FF00006A368C1
:102DF40008BFAD1A226908BF25EAE5759342C4BF2E
:102E04009B1AED181A34B5421AD1002008E00123A8
:102E1400524649463846C047013003D14FF0FF308F
:102E2400BDE8F0870135C4E73020E11881F843009C
:102E34005A1C94F845102244023382F84310C5E723
:102E44000123224649463846C0470130E6D00136C0
:102E5400D9E700002DE9FF470F7E9146782F804681
:102E64000C469A460C9D01F1430207D8622F0AD8FA
:102E7400002F00F0D980582F00F0A48004F14205FF
:102E840084F842703AE0A7F16303152BF6D801A148
:102E940051F823F0F12E0008052F0008812E0008B8
:102EA400812E0008812E0008812E0008052F0008BD
:102EB400812E0008812E0008812E0008812E000832
:102EC40013300008352F0008F52F0008812E000864
:102ED400812E000835300008812E0008352F0008A7
:102EE400812E0008812E0008FD2F00082B681A1D72
:102EF4001B682A6004F1420584F842300123A4E0EF
:102F040020682968060601F104030AD50E682B60BF
:102F1400002E03DA2D23764284F843300A235E48D8
:102F240019E00E6810F0400F2B6018BF36B2EFE7BF
:102F34002B682068191D2960010601D51E6802E06E
:102F44004606FBD51E886F2F0CBF08230A23524860
:102F5400002184F843106568002DA8BF2168A5608E
:102F6400A4BF21F0040121600EB9002D4DD01546F7
:102F7400B6FBF3F103FB1167C75D05F8017D374626
:102F8400BB420E46F4D9082B0BD12368DE0708D5C3
:102F9400236961689942DEBF302305F8013C05F1DD
:102FA400FF35521B22614B4621464046CDF800A016
:102FB40003AAFFF7DFFE01304CD14FF0FF3004B01D
:102FC400BDE8F087344881F845702968236851F8D2
:102FD400046B29601D0614D5DF0744BF43F02003AA
:102FE40023601EB9236823F0200323601023AFE776
:102FF400236843F0200323607823284884F845306D
:10300400E3E7590648BFB6B2E6E71546BBE72B68C7
:103014002668181D6169286035061B6801D519608A
:1030240002E07006FBD51980002315462361BAE738
:103034002B6800211A1D2A601D686268284600F06A
:103044009BFA08B1401B606063682361002384F825
:103054004330A8E72A46494640462369D047013011
:10306400ABD023689B0713D4E068039B9842B8BF96
:103074001846A4E70123324649464046D04701306A
:103084009BD00135E36803995B1AAB42F2DCEBE7B2
:10309400002504F11906F5E7893700089A37000876
:1030A40038B50023054D044608462B60FDF73CFB6C
:1030B400431C02D12B6803B1236038BD20010020DA
:1030C40010B50C46B1F90E1000F0B8FA0028ABBFE9
:1030D400636DA3891B1823F48053ACBF6365A3817C
:1030E40010BD2DE9F0411F468B890546DB050C46D2
:1030F400164605D502230022B1F90E1000F0C4F9DA
:10310400A389324623F48053A38128463B46B4F96D
:103114000E10BDE8F04100F069B810B50C46B1F9E5
:103124000E1000F0B1F9431CA38915BF606523F4A8
:10313400805343F48053A38118BFA38110BDB1F918
:103144000E1000F0D3B80000F8B50E46144605463C
:1031540018B183690BB9FFF781FB214B9C422BD13A
:103164006C68A369A360A3891A072FD523696BB37D
:1031740023692068F6B2C01A63693746834204DCC7
:103184002146284600F044F930BBA3680130013BD6
:10319400A36023685A1C22601E706369834204D0B2
:1031A400A389DB0706D50A2E04D12146284600F060
:1031B4002FF988B93846F8BD0A4B9C4201D1AC6856
:1031C400CFE7094B9C4208BFEC68CAE72146284672
:1031D40000F01EF80028CBD04FF0FF37EAE700BF1D
:1031E40038370008583700081837000838B504463F
:1031F400084611460022054D2A601A46FDF748FA92
:10320400431C02D12B6803B1236038BD2001002088
:10321400324B70B51D6806460C4625B1AB6913B92F
:103224002846FFF71BFB2E4B9C420FD16C68A389E9
:10323400B4F90C2019072CD4DD0611D4092333600A
:1032440042F040034FF0FF30A3813EE0254B9C4207
:1032540001D1AC68EBE7244B9C4208BFEC68E6E77D
:10326400580712D5616B41B104F14403994202D06D
:10327400304600F09BF900236363A38923F0240301
:10328400A3810023636023692360A38943F00803B7
:10329400A38123694BB9A38903F42073B3F5007F99
:1032A40003D02146304600F027F9A089B4F90C2058
:1032B40010F001030AD00023A36063695B42A36199
:1032C400236943B910F08000BAD170BD810758BF9B
:1032D4006369A360F4E70020F7E700BF0C00002057
:1032E40038370008583700081837000838B5002365
:1032F400054D044608462B60FDF7E6F9431C02D150
:103304002B6803B1236038BD200100208A89F8B5F9
:10331400054610070C4657D44B68002B04DC0B6C95
:10332400002B01DC0020F8BDE66A002EFAD0002351
:1033340012F480522F682B6032D0606DA3895A0733
:1033440005D56368C01A636B0BB1236CC01A0023E4
:103354000246E66A2846216AB047431CA38906D17F
:1033640029681D292CD8294ACA40D60728D5002205
:1033740062602269D904226004D5421C01D12B6801
:1033840003B96065616B2F600029CBD004F144035D
:10339400994202D0284600F009F900206063C2E790
:1033A400216A01232846B047411CC7D12B68002B52
:1033B400C4D01D2B01D0162B01D12F60B2E7A389F5
:1033C40043F04003A381AEE70F69002FAAD093070F
:1033D40018BF00230E6808BF4B69F61B0F608B6093
:1033E400002E9FDD33463A462846216AD4F828C089
:1033F400E047002806DCA3894FF0FF3043F0400388
:10340400A38190E70744361AEAE700BF0100402091
:1034140038B50B6905460C4613B90025284638BD56
:1034240018B183690BB9FFF719FA144B9C421BD1ED
:103434006C68B4F90C30002BEFD0626ED00704D462
:10344400990502D4A06DFFF7A7FA28462146FFF795
:103454005DFF636E0546DA07E0D4A3899B05DDD4DE
:10346400A06DFFF79AFAD9E7054B9C4201D1AC68ED
:10347400DFE7044B9C4208BFEC68DAE73837000802
:10348400583700081837000838B50446084611466E
:103494000022054D2A601A46FDF73AF9431C02D171
:1034A4002B6803B1236038BD2001002070B50E469F
:1034B400B1F90E10144600291D4696B008DA002210
:1034C400B6F90C302A601A0610D44FF480630EE06B
:1034D4006A4600F0C5F80028F1DB019A02F4704254
:1034E400A2F500535A425A412A60EEE740230020D5
:1034F400236016B070BD00008B8973B59D07064626
:103504000C4607D504F1470323602361012363615B
:1035140002B070BD6A4601ABFFF7C8FF00990546CB
:103524003046FFF75BFA48B9B4F90C309A05EFD48A
:1035340023F0030343F00203A381E3E70D4BB362DB
:10354400A389206043F08003A381009B2061636111
:10355400019B5BB13046B4F90E1000F093F828B12A
:10356400A38923F0030343F00103A381A089054346
:10357400A581CDE7F9270008034610B5C9B2024476
:103584009342184601D1002003E0047801338C42B1
:10359400F6D110BD0148FFF7FFB900BF14010020A8
:1035A4000148FFF7FAB900BF1401002038B50546F9
:1035B400002940D051F8043C0C1F002BB8BFE4187C
:1035C400FFF7E8FF1C4A136833B9636014602846A8
:1035D400BDE83840FFF7E4BFA34208D920682118AA
:1035E4008B4201BF19685B6809182160EDE71A4630
:1035F4005B680BB1A342FAD911685018A0420BD1F1
:1036040020680144501883421160E0D118685B6857
:10361400014411605360DAE702D90C232B60D6E72A
:10362400206821188B4201BF19685B680918216062
:1036340063605460CBE738BD1801002038B50446F8
:10364400084611460022054D2A601A46FDF703F884
:10365400431C02D12B6803B1236038BD2001002034
:1036640038B50023064D0446084611462B60FDF785
:1036740036F8431C02D12B6803B1236038BD00BF68
:103684002001002038B50023054D044608462B6070
:10369400FDF734F8431C02D12B6803B1236038BD15
:1036A40020010020F8B500BFF8BC08BC9E46704756
:0C36B400F8B500BFF8BC08BC9E4670478B
:1036C0004C313A2564202020202052313A256420B4
:1036D0000D0A0000000000000000000001020304C9
:1036E00006070809000000000102030402030405A4
:1036F000060708090A0B0C0D0E0F1010010200003E
:1037000002030405060708090A0B0C0D0E0F101022
:103710000102000010000020000000000000000076
:103720000000000000000000000000000000000099
:103730000000000000000000000000000000000089
:103740000000000000000000000000000000000079
:103750000000000000000000000000000000000069
:103760000000000000000000000000000000000059
:103770000000000000000000232D302B2000686CAA
:103780004C00656667454647003031323334353684
:1037900037383941424344454600303132333435BD
:0C37A000363738396162636465660000EA
:0437AC000902000806
:0437B000E501000827
:1037B4000024F400100000000100000010000020AC
:1037C4000000000038370008583700081837000890
:1037D40000000000000000000000000000000000E5
:1037E40000000000000000000000000000000000D5
:1037F40000000000000000000000000000000000C5
:1038040000000000000000000000000000000000B4
:1038140000000000000000000000000000000000A4
:040000050800089156
:00000001FF
